{
	"contracts/Twitter.sol": {
		"Twitter": {
			"abi": [
				{
					"inputs": [],
					"stateMutability": "nonpayable",
					"type": "constructor"
				},
				{
					"inputs": [],
					"name": "MAX_TWEET_LENGTH",
					"outputs": [
						{
							"internalType": "uint16",
							"name": "",
							"type": "uint16"
						}
					],
					"stateMutability": "view",
					"type": "function"
				},
				{
					"inputs": [
						{
							"internalType": "uint16",
							"name": "_input",
							"type": "uint16"
						}
					],
					"name": "changeTweetLength",
					"outputs": [],
					"stateMutability": "nonpayable",
					"type": "function"
				},
				{
					"inputs": [
						{
							"internalType": "string",
							"name": "_input",
							"type": "string"
						}
					],
					"name": "createTweet",
					"outputs": [],
					"stateMutability": "nonpayable",
					"type": "function"
				},
				{
					"inputs": [],
					"name": "getAllTweets",
					"outputs": [
						{
							"components": [
								{
									"internalType": "uint256",
									"name": "id",
									"type": "uint256"
								},
								{
									"internalType": "address",
									"name": "author",
									"type": "address"
								},
								{
									"internalType": "string",
									"name": "content",
									"type": "string"
								},
								{
									"internalType": "uint256",
									"name": "timestamp",
									"type": "uint256"
								},
								{
									"internalType": "uint256",
									"name": "likes",
									"type": "uint256"
								}
							],
							"internalType": "struct Twitter.Tweet[]",
							"name": "",
							"type": "tuple[]"
						}
					],
					"stateMutability": "view",
					"type": "function"
				},
				{
					"inputs": [],
					"name": "getOwner",
					"outputs": [
						{
							"internalType": "address",
							"name": "",
							"type": "address"
						}
					],
					"stateMutability": "view",
					"type": "function"
				},
				{
					"inputs": [
						{
							"internalType": "uint256",
							"name": "_i",
							"type": "uint256"
						}
					],
					"name": "getTweet",
					"outputs": [
						{
							"components": [
								{
									"internalType": "uint256",
									"name": "id",
									"type": "uint256"
								},
								{
									"internalType": "address",
									"name": "author",
									"type": "address"
								},
								{
									"internalType": "string",
									"name": "content",
									"type": "string"
								},
								{
									"internalType": "uint256",
									"name": "timestamp",
									"type": "uint256"
								},
								{
									"internalType": "uint256",
									"name": "likes",
									"type": "uint256"
								}
							],
							"internalType": "struct Twitter.Tweet",
							"name": "",
							"type": "tuple"
						}
					],
					"stateMutability": "view",
					"type": "function"
				},
				{
					"inputs": [
						{
							"internalType": "uint256",
							"name": "_id",
							"type": "uint256"
						},
						{
							"internalType": "address",
							"name": "_author",
							"type": "address"
						}
					],
					"name": "likeTweet",
					"outputs": [],
					"stateMutability": "nonpayable",
					"type": "function"
				},
				{
					"inputs": [
						{
							"internalType": "address",
							"name": "",
							"type": "address"
						}
					],
					"name": "tweetCount",
					"outputs": [
						{
							"internalType": "uint256",
							"name": "",
							"type": "uint256"
						}
					],
					"stateMutability": "view",
					"type": "function"
				},
				{
					"inputs": [
						{
							"internalType": "address",
							"name": "",
							"type": "address"
						},
						{
							"internalType": "uint256",
							"name": "",
							"type": "uint256"
						}
					],
					"name": "tweets",
					"outputs": [
						{
							"internalType": "uint256",
							"name": "id",
							"type": "uint256"
						},
						{
							"internalType": "address",
							"name": "author",
							"type": "address"
						},
						{
							"internalType": "string",
							"name": "content",
							"type": "string"
						},
						{
							"internalType": "uint256",
							"name": "timestamp",
							"type": "uint256"
						},
						{
							"internalType": "uint256",
							"name": "likes",
							"type": "uint256"
						}
					],
					"stateMutability": "view",
					"type": "function"
				},
				{
					"inputs": [
						{
							"internalType": "uint256",
							"name": "_id",
							"type": "uint256"
						},
						{
							"internalType": "address",
							"name": "_author",
							"type": "address"
						}
					],
					"name": "unlikeTweet",
					"outputs": [],
					"stateMutability": "nonpayable",
					"type": "function"
				}
			],
			"devdoc": {
				"kind": "dev",
				"methods": {},
				"version": 1
			},
			"evm": {
				"assembly": "    /* \"contracts/Twitter.sol\":132:2175  contract Twitter {... */\n  mstore(0x40, 0x80)\n    /* \"contracts/Twitter.sol\":188:191  200 */\n  0xc8\n    /* \"contracts/Twitter.sol\":155:191  uint16 public MAX_TWEET_LENGTH = 200 */\n  0x00\n  dup1\n  0x0100\n  exp\n  dup2\n  sload\n  dup2\n  0xffff\n  mul\n  not\n  and\n  swap1\n  dup4\n  0xffff\n  and\n  mul\n  or\n  swap1\n  sstore\n  pop\n    /* \"contracts/Twitter.sol\":241:242  0 */\n  0x00\n    /* \"contracts/Twitter.sol\":216:242  uint256 currentTweetId = 0 */\n  0x01\n  sstore\n    /* \"contracts/Twitter.sol\":533:582  constructor() {... */\n  callvalue\n  dup1\n  iszero\n  tag_1\n  jumpi\n  0x00\n  dup1\n  revert\ntag_1:\n  pop\n    /* \"contracts/Twitter.sol\":565:575  msg.sender */\n  caller\n    /* \"contracts/Twitter.sol\":557:562  OWNER */\n  0x00\n  0x02\n    /* \"contracts/Twitter.sol\":557:575  OWNER = msg.sender */\n  0x0100\n  exp\n  dup2\n  sload\n  dup2\n  0xffffffffffffffffffffffffffffffffffffffff\n  mul\n  not\n  and\n  swap1\n  dup4\n  0xffffffffffffffffffffffffffffffffffffffff\n  and\n  mul\n  or\n  swap1\n  sstore\n  pop\n    /* \"contracts/Twitter.sol\":132:2175  contract Twitter {... */\n  dataSize(sub_0)\n  dup1\n  dataOffset(sub_0)\n  0x00\n  codecopy\n  0x00\n  return\nstop\n\nsub_0: assembly {\n        /* \"contracts/Twitter.sol\":132:2175  contract Twitter {... */\n      mstore(0x40, 0x80)\n      callvalue\n      dup1\n      iszero\n      tag_1\n      jumpi\n      0x00\n      dup1\n      revert\n    tag_1:\n      pop\n      jumpi(tag_2, lt(calldatasize, 0x04))\n      shr(0xe0, calldataload(0x00))\n      dup1\n      0x893d20e8\n      gt\n      tag_13\n      jumpi\n      dup1\n      0x893d20e8\n      eq\n      tag_8\n      jumpi\n      dup1\n      0xa1488f7c\n      eq\n      tag_9\n      jumpi\n      dup1\n      0xc3ad5ecb\n      eq\n      tag_10\n      jumpi\n      dup1\n      0xcbb78557\n      eq\n      tag_11\n      jumpi\n      dup1\n      0xd04ddaa0\n      eq\n      tag_12\n      jumpi\n      jump(tag_2)\n    tag_13:\n      dup1\n      0x05a1b4a9\n      eq\n      tag_3\n      jumpi\n      dup1\n      0x53256135\n      eq\n      tag_4\n      jumpi\n      dup1\n      0x58bfa4ab\n      eq\n      tag_5\n      jumpi\n      dup1\n      0x6eb10797\n      eq\n      tag_6\n      jumpi\n      dup1\n      0x7c9cd2bc\n      eq\n      tag_7\n      jumpi\n    tag_2:\n      0x00\n      dup1\n      revert\n        /* \"contracts/Twitter.sol\":413:474  mapping (address => mapping (uint256 => Tweet)) public tweets */\n    tag_3:\n      tag_14\n      0x04\n      dup1\n      calldatasize\n      sub\n      dup2\n      add\n      swap1\n      tag_15\n      swap2\n      swap1\n      tag_16\n      jump\t// in\n    tag_15:\n      tag_17\n      jump\t// in\n    tag_14:\n      mload(0x40)\n      tag_18\n      swap6\n      swap5\n      swap4\n      swap3\n      swap2\n      swap1\n      tag_19\n      jump\t// in\n    tag_18:\n      mload(0x40)\n      dup1\n      swap2\n      sub\n      swap1\n      return\n        /* \"contracts/Twitter.sol\":1299:1611  function getAllTweets() public view returns (Tweet[] memory) {... */\n    tag_4:\n      tag_20\n      tag_21\n      jump\t// in\n    tag_20:\n      mload(0x40)\n      tag_22\n      swap2\n      swap1\n      tag_23\n      jump\t// in\n    tag_22:\n      mload(0x40)\n      dup1\n      swap2\n      sub\n      swap1\n      return\n        /* \"contracts/Twitter.sol\":1617:1718  function changeTweetLength(uint16 _input) public onlyOwner {... */\n    tag_5:\n      tag_24\n      0x04\n      dup1\n      calldatasize\n      sub\n      dup2\n      add\n      swap1\n      tag_25\n      swap2\n      swap1\n      tag_26\n      jump\t// in\n    tag_25:\n      tag_27\n      jump\t// in\n    tag_24:\n      stop\n        /* \"contracts/Twitter.sol\":155:191  uint16 public MAX_TWEET_LENGTH = 200 */\n    tag_6:\n      tag_28\n      tag_29\n      jump\t// in\n    tag_28:\n      mload(0x40)\n      tag_30\n      swap2\n      swap1\n      tag_31\n      jump\t// in\n    tag_30:\n      mload(0x40)\n      dup1\n      swap2\n      sub\n      swap1\n      return\n        /* \"contracts/Twitter.sol\":713:1180  function createTweet(string memory _input) public {... */\n    tag_7:\n      tag_32\n      0x04\n      dup1\n      calldatasize\n      sub\n      dup2\n      add\n      swap1\n      tag_33\n      swap2\n      swap1\n      tag_34\n      jump\t// in\n    tag_33:\n      tag_35\n      jump\t// in\n    tag_32:\n      stop\n        /* \"contracts/Twitter.sol\":1724:1803  function getOwner() public view returns (address) {... */\n    tag_8:\n      tag_36\n      tag_37\n      jump\t// in\n    tag_36:\n      mload(0x40)\n      tag_38\n      swap2\n      swap1\n      tag_39\n      jump\t// in\n    tag_38:\n      mload(0x40)\n      dup1\n      swap2\n      sub\n      swap1\n      return\n        /* \"contracts/Twitter.sol\":1991:2173  function unlikeTweet(uint256 _id, address _author) external {... */\n    tag_9:\n      tag_40\n      0x04\n      dup1\n      calldatasize\n      sub\n      dup2\n      add\n      swap1\n      tag_41\n      swap2\n      swap1\n      tag_42\n      jump\t// in\n    tag_41:\n      tag_43\n      jump\t// in\n    tag_40:\n      stop\n        /* \"contracts/Twitter.sol\":1186:1293  function getTweet(uint _i) public view returns (Tweet memory){... */\n    tag_10:\n      tag_44\n      0x04\n      dup1\n      calldatasize\n      sub\n      dup2\n      add\n      swap1\n      tag_45\n      swap2\n      swap1\n      tag_46\n      jump\t// in\n    tag_45:\n      tag_47\n      jump\t// in\n    tag_44:\n      mload(0x40)\n      tag_48\n      swap2\n      swap1\n      tag_49\n      jump\t// in\n    tag_48:\n      mload(0x40)\n      dup1\n      swap2\n      sub\n      swap1\n      return\n        /* \"contracts/Twitter.sol\":480:526  mapping (address => uint256) public tweetCount */\n    tag_11:\n      tag_50\n      0x04\n      dup1\n      calldatasize\n      sub\n      dup2\n      add\n      swap1\n      tag_51\n      swap2\n      swap1\n      tag_52\n      jump\t// in\n    tag_51:\n      tag_53\n      jump\t// in\n    tag_50:\n      mload(0x40)\n      tag_54\n      swap2\n      swap1\n      tag_55\n      jump\t// in\n    tag_54:\n      mload(0x40)\n      dup1\n      swap2\n      sub\n      swap1\n      return\n        /* \"contracts/Twitter.sol\":1809:1985  function likeTweet(uint256 _id, address _author) external {... */\n    tag_12:\n      tag_56\n      0x04\n      dup1\n      calldatasize\n      sub\n      dup2\n      add\n      swap1\n      tag_57\n      swap2\n      swap1\n      tag_42\n      jump\t// in\n    tag_57:\n      tag_58\n      jump\t// in\n    tag_56:\n      stop\n        /* \"contracts/Twitter.sol\":413:474  mapping (address => mapping (uint256 => Tweet)) public tweets */\n    tag_17:\n      mstore(0x20, 0x02)\n      dup2\n      0x00\n      mstore\n      mstore(0x20, keccak256(0x00, 0x40))\n      dup1\n      0x00\n      mstore\n      keccak256(0x00, 0x40)\n      0x00\n      swap2\n      pop\n      swap2\n      pop\n      pop\n      dup1\n      0x00\n      add\n      sload\n      swap1\n      dup1\n      0x01\n      add\n      0x00\n      swap1\n      sload\n      swap1\n      0x0100\n      exp\n      swap1\n      div\n      0xffffffffffffffffffffffffffffffffffffffff\n      and\n      swap1\n      dup1\n      0x02\n      add\n      dup1\n      sload\n      tag_59\n      swap1\n      tag_60\n      jump\t// in\n    tag_59:\n      dup1\n      0x1f\n      add\n      0x20\n      dup1\n      swap2\n      div\n      mul\n      0x20\n      add\n      mload(0x40)\n      swap1\n      dup2\n      add\n      0x40\n      mstore\n      dup1\n      swap3\n      swap2\n      swap1\n      dup2\n      dup2\n      mstore\n      0x20\n      add\n      dup3\n      dup1\n      sload\n      tag_61\n      swap1\n      tag_60\n      jump\t// in\n    tag_61:\n      dup1\n      iszero\n      tag_62\n      jumpi\n      dup1\n      0x1f\n      lt\n      tag_63\n      jumpi\n      0x0100\n      dup1\n      dup4\n      sload\n      div\n      mul\n      dup4\n      mstore\n      swap2\n      0x20\n      add\n      swap2\n      jump(tag_62)\n    tag_63:\n      dup3\n      add\n      swap2\n      swap1\n      0x00\n      mstore\n      keccak256(0x00, 0x20)\n      swap1\n    tag_64:\n      dup2\n      sload\n      dup2\n      mstore\n      swap1\n      0x01\n      add\n      swap1\n      0x20\n      add\n      dup1\n      dup4\n      gt\n      tag_64\n      jumpi\n      dup3\n      swap1\n      sub\n      0x1f\n      and\n      dup3\n      add\n      swap2\n    tag_62:\n      pop\n      pop\n      pop\n      pop\n      pop\n      swap1\n      dup1\n      0x03\n      add\n      sload\n      swap1\n      dup1\n      0x04\n      add\n      sload\n      swap1\n      pop\n      dup6\n      jump\t// out\n        /* \"contracts/Twitter.sol\":1299:1611  function getAllTweets() public view returns (Tweet[] memory) {... */\n    tag_21:\n        /* \"contracts/Twitter.sol\":1344:1358  Tweet[] memory */\n      0x60\n        /* \"contracts/Twitter.sol\":1370:1383  uint256 count */\n      0x00\n        /* \"contracts/Twitter.sol\":1386:1396  tweetCount */\n      0x03\n        /* \"contracts/Twitter.sol\":1386:1408  tweetCount[msg.sender] */\n      0x00\n        /* \"contracts/Twitter.sol\":1397:1407  msg.sender */\n      caller\n        /* \"contracts/Twitter.sol\":1386:1408  tweetCount[msg.sender] */\n      0xffffffffffffffffffffffffffffffffffffffff\n      and\n      0xffffffffffffffffffffffffffffffffffffffff\n      and\n      dup2\n      mstore\n      0x20\n      add\n      swap1\n      dup2\n      mstore\n      0x20\n      add\n      0x00\n      keccak256\n      sload\n        /* \"contracts/Twitter.sol\":1370:1408  uint256 count = tweetCount[msg.sender] */\n      swap1\n      pop\n        /* \"contracts/Twitter.sol\":1418:1442  Tweet[] memory allTweets */\n      0x00\n        /* \"contracts/Twitter.sol\":1457:1462  count */\n      dup2\n        /* \"contracts/Twitter.sol\":1445:1463  new Tweet[](count) */\n      0xffffffffffffffff\n      dup2\n      gt\n      iszero\n      tag_66\n      jumpi\n      tag_67\n      tag_68\n      jump\t// in\n    tag_67:\n    tag_66:\n      mload(0x40)\n      swap1\n      dup1\n      dup3\n      mstore\n      dup1\n      0x20\n      mul\n      0x20\n      add\n      dup3\n      add\n      0x40\n      mstore\n      dup1\n      iszero\n      tag_69\n      jumpi\n      dup2\n      0x20\n      add\n    tag_70:\n      tag_71\n      tag_72\n      jump\t// in\n    tag_71:\n      dup2\n      mstore\n      0x20\n      add\n      swap1\n      0x01\n      swap1\n      sub\n      swap1\n      dup2\n      tag_70\n      jumpi\n      swap1\n      pop\n    tag_69:\n      pop\n        /* \"contracts/Twitter.sol\":1418:1463  Tweet[] memory allTweets = new Tweet[](count) */\n      swap1\n      pop\n        /* \"contracts/Twitter.sol\":1478:1487  uint256 i */\n      0x00\n        /* \"contracts/Twitter.sol\":1473:1570  for (uint256 i = 0; i < count; i++) {... */\n    tag_73:\n        /* \"contracts/Twitter.sol\":1497:1502  count */\n      dup3\n        /* \"contracts/Twitter.sol\":1493:1494  i */\n      dup2\n        /* \"contracts/Twitter.sol\":1493:1502  i < count */\n      lt\n        /* \"contracts/Twitter.sol\":1473:1570  for (uint256 i = 0; i < count; i++) {... */\n      iszero\n      tag_74\n      jumpi\n        /* \"contracts/Twitter.sol\":1538:1544  tweets */\n      0x02\n        /* \"contracts/Twitter.sol\":1538:1556  tweets[msg.sender] */\n      0x00\n        /* \"contracts/Twitter.sol\":1545:1555  msg.sender */\n      caller\n        /* \"contracts/Twitter.sol\":1538:1556  tweets[msg.sender] */\n      0xffffffffffffffffffffffffffffffffffffffff\n      and\n      0xffffffffffffffffffffffffffffffffffffffff\n      and\n      dup2\n      mstore\n      0x20\n      add\n      swap1\n      dup2\n      mstore\n      0x20\n      add\n      0x00\n      keccak256\n        /* \"contracts/Twitter.sol\":1538:1559  tweets[msg.sender][i] */\n      0x00\n        /* \"contracts/Twitter.sol\":1557:1558  i */\n      dup3\n        /* \"contracts/Twitter.sol\":1538:1559  tweets[msg.sender][i] */\n      dup2\n      mstore\n      0x20\n      add\n      swap1\n      dup2\n      mstore\n      0x20\n      add\n      0x00\n      keccak256\n        /* \"contracts/Twitter.sol\":1523:1559  allTweets[i] = tweets[msg.sender][i] */\n      mload(0x40)\n      dup1\n      0xa0\n      add\n      0x40\n      mstore\n      swap1\n      dup2\n      0x00\n      dup3\n      add\n      sload\n      dup2\n      mstore\n      0x20\n      add\n      0x01\n      dup3\n      add\n      0x00\n      swap1\n      sload\n      swap1\n      0x0100\n      exp\n      swap1\n      div\n      0xffffffffffffffffffffffffffffffffffffffff\n      and\n      0xffffffffffffffffffffffffffffffffffffffff\n      and\n      0xffffffffffffffffffffffffffffffffffffffff\n      and\n      dup2\n      mstore\n      0x20\n      add\n      0x02\n      dup3\n      add\n      dup1\n      sload\n      tag_76\n      swap1\n      tag_60\n      jump\t// in\n    tag_76:\n      dup1\n      0x1f\n      add\n      0x20\n      dup1\n      swap2\n      div\n      mul\n      0x20\n      add\n      mload(0x40)\n      swap1\n      dup2\n      add\n      0x40\n      mstore\n      dup1\n      swap3\n      swap2\n      swap1\n      dup2\n      dup2\n      mstore\n      0x20\n      add\n      dup3\n      dup1\n      sload\n      tag_77\n      swap1\n      tag_60\n      jump\t// in\n    tag_77:\n      dup1\n      iszero\n      tag_78\n      jumpi\n      dup1\n      0x1f\n      lt\n      tag_79\n      jumpi\n      0x0100\n      dup1\n      dup4\n      sload\n      div\n      mul\n      dup4\n      mstore\n      swap2\n      0x20\n      add\n      swap2\n      jump(tag_78)\n    tag_79:\n      dup3\n      add\n      swap2\n      swap1\n      0x00\n      mstore\n      keccak256(0x00, 0x20)\n      swap1\n    tag_80:\n      dup2\n      sload\n      dup2\n      mstore\n      swap1\n      0x01\n      add\n      swap1\n      0x20\n      add\n      dup1\n      dup4\n      gt\n      tag_80\n      jumpi\n      dup3\n      swap1\n      sub\n      0x1f\n      and\n      dup3\n      add\n      swap2\n    tag_78:\n      pop\n      pop\n      pop\n      pop\n      pop\n      dup2\n      mstore\n      0x20\n      add\n      0x03\n      dup3\n      add\n      sload\n      dup2\n      mstore\n      0x20\n      add\n      0x04\n      dup3\n      add\n      sload\n      dup2\n      mstore\n      pop\n      pop\n        /* \"contracts/Twitter.sol\":1523:1532  allTweets */\n      dup3\n        /* \"contracts/Twitter.sol\":1533:1534  i */\n      dup3\n        /* \"contracts/Twitter.sol\":1523:1535  allTweets[i] */\n      dup2\n      mload\n      dup2\n      lt\n      tag_81\n      jumpi\n      tag_82\n      tag_83\n      jump\t// in\n    tag_82:\n    tag_81:\n      0x20\n      mul\n      0x20\n      add\n      add\n        /* \"contracts/Twitter.sol\":1523:1559  allTweets[i] = tweets[msg.sender][i] */\n      dup2\n      swap1\n      mstore\n      pop\n        /* \"contracts/Twitter.sol\":1504:1507  i++ */\n      dup1\n      dup1\n      0x01\n      add\n      swap2\n      pop\n      pop\n        /* \"contracts/Twitter.sol\":1473:1570  for (uint256 i = 0; i < count; i++) {... */\n      jump(tag_73)\n    tag_74:\n      pop\n        /* \"contracts/Twitter.sol\":1595:1604  allTweets */\n      dup1\n        /* \"contracts/Twitter.sol\":1588:1604  return allTweets */\n      swap3\n      pop\n      pop\n      pop\n        /* \"contracts/Twitter.sol\":1299:1611  function getAllTweets() public view returns (Tweet[] memory) {... */\n      swap1\n      jump\t// out\n        /* \"contracts/Twitter.sol\":1617:1718  function changeTweetLength(uint16 _input) public onlyOwner {... */\n    tag_27:\n        /* \"contracts/Twitter.sol\":636:646  msg.sender */\n      caller\n        /* \"contracts/Twitter.sol\":627:646  OWNER == msg.sender */\n      0xffffffffffffffffffffffffffffffffffffffff\n      and\n        /* \"contracts/Twitter.sol\":627:632  OWNER */\n      0x00\n      0x02\n      swap1\n      sload\n      swap1\n      0x0100\n      exp\n      swap1\n      div\n      0xffffffffffffffffffffffffffffffffffffffff\n      and\n        /* \"contracts/Twitter.sol\":627:646  OWNER == msg.sender */\n      0xffffffffffffffffffffffffffffffffffffffff\n      and\n      eq\n        /* \"contracts/Twitter.sol\":619:689  require(OWNER == msg.sender, \"Only owner can change the tweet length\") */\n      tag_85\n      jumpi\n      mload(0x40)\n      0x08c379a000000000000000000000000000000000000000000000000000000000\n      dup2\n      mstore\n      0x04\n      add\n      tag_86\n      swap1\n      tag_87\n      jump\t// in\n    tag_86:\n      mload(0x40)\n      dup1\n      swap2\n      sub\n      swap1\n      revert\n    tag_85:\n        /* \"contracts/Twitter.sol\":1705:1711  _input */\n      dup1\n        /* \"contracts/Twitter.sol\":1686:1702  MAX_TWEET_LENGTH */\n      0x00\n      dup1\n        /* \"contracts/Twitter.sol\":1686:1711  MAX_TWEET_LENGTH = _input */\n      0x0100\n      exp\n      dup2\n      sload\n      dup2\n      0xffff\n      mul\n      not\n      and\n      swap1\n      dup4\n      0xffff\n      and\n      mul\n      or\n      swap1\n      sstore\n      pop\n        /* \"contracts/Twitter.sol\":1617:1718  function changeTweetLength(uint16 _input) public onlyOwner {... */\n      pop\n      jump\t// out\n        /* \"contracts/Twitter.sol\":155:191  uint16 public MAX_TWEET_LENGTH = 200 */\n    tag_29:\n      0x00\n      dup1\n      sload\n      swap1\n      0x0100\n      exp\n      swap1\n      div\n      0xffff\n      and\n      dup2\n      jump\t// out\n        /* \"contracts/Twitter.sol\":713:1180  function createTweet(string memory _input) public {... */\n    tag_35:\n        /* \"contracts/Twitter.sol\":805:821  MAX_TWEET_LENGTH */\n      0x00\n      dup1\n      sload\n      swap1\n      0x0100\n      exp\n      swap1\n      div\n      0xffff\n      and\n        /* \"contracts/Twitter.sol\":781:821  bytes(_input).length <= MAX_TWEET_LENGTH */\n      0xffff\n      and\n        /* \"contracts/Twitter.sol\":787:793  _input */\n      dup2\n        /* \"contracts/Twitter.sol\":781:801  bytes(_input).length */\n      mload\n        /* \"contracts/Twitter.sol\":781:821  bytes(_input).length <= MAX_TWEET_LENGTH */\n      gt\n      iszero\n        /* \"contracts/Twitter.sol\":773:850  require(bytes(_input).length <= MAX_TWEET_LENGTH, \"Tweet content is lengthy\") */\n      tag_90\n      jumpi\n      mload(0x40)\n      0x08c379a000000000000000000000000000000000000000000000000000000000\n      dup2\n      mstore\n      0x04\n      add\n      tag_91\n      swap1\n      tag_92\n      jump\t// in\n    tag_91:\n      mload(0x40)\n      dup1\n      swap2\n      sub\n      swap1\n      revert\n    tag_90:\n        /* \"contracts/Twitter.sol\":861:882  Tweet memory newTweet */\n      0x00\n        /* \"contracts/Twitter.sol\":885:1057  Tweet({... */\n      mload(0x40)\n      dup1\n      0xa0\n      add\n      0x40\n      mstore\n      dup1\n        /* \"contracts/Twitter.sol\":909:923  currentTweetId */\n      sload(0x01)\n        /* \"contracts/Twitter.sol\":885:1057  Tweet({... */\n      dup2\n      mstore\n      0x20\n      add\n        /* \"contracts/Twitter.sol\":945:955  msg.sender */\n      caller\n        /* \"contracts/Twitter.sol\":885:1057  Tweet({... */\n      0xffffffffffffffffffffffffffffffffffffffff\n      and\n      dup2\n      mstore\n      0x20\n      add\n        /* \"contracts/Twitter.sol\":978:984  _input */\n      dup4\n        /* \"contracts/Twitter.sol\":885:1057  Tweet({... */\n      dup2\n      mstore\n      0x20\n      add\n        /* \"contracts/Twitter.sol\":1009:1024  block.timestamp */\n      timestamp\n        /* \"contracts/Twitter.sol\":885:1057  Tweet({... */\n      dup2\n      mstore\n      0x20\n      add\n        /* \"contracts/Twitter.sol\":1045:1046  0 */\n      0x00\n        /* \"contracts/Twitter.sol\":885:1057  Tweet({... */\n      dup2\n      mstore\n      pop\n        /* \"contracts/Twitter.sol\":861:1057  Tweet memory newTweet = Tweet({... */\n      swap1\n      pop\n        /* \"contracts/Twitter.sol\":1105:1113  newTweet */\n      dup1\n        /* \"contracts/Twitter.sol\":1068:1074  tweets */\n      0x02\n        /* \"contracts/Twitter.sol\":1068:1086  tweets[msg.sender] */\n      0x00\n        /* \"contracts/Twitter.sol\":1075:1085  msg.sender */\n      caller\n        /* \"contracts/Twitter.sol\":1068:1086  tweets[msg.sender] */\n      0xffffffffffffffffffffffffffffffffffffffff\n      and\n      0xffffffffffffffffffffffffffffffffffffffff\n      and\n      dup2\n      mstore\n      0x20\n      add\n      swap1\n      dup2\n      mstore\n      0x20\n      add\n      0x00\n      keccak256\n        /* \"contracts/Twitter.sol\":1068:1102  tweets[msg.sender][currentTweetId] */\n      0x00\n        /* \"contracts/Twitter.sol\":1087:1101  currentTweetId */\n      sload(0x01)\n        /* \"contracts/Twitter.sol\":1068:1102  tweets[msg.sender][currentTweetId] */\n      dup2\n      mstore\n      0x20\n      add\n      swap1\n      dup2\n      mstore\n      0x20\n      add\n      0x00\n      keccak256\n        /* \"contracts/Twitter.sol\":1068:1113  tweets[msg.sender][currentTweetId] = newTweet */\n      0x00\n      dup3\n      add\n      mload\n      dup2\n      0x00\n      add\n      sstore\n      0x20\n      dup3\n      add\n      mload\n      dup2\n      0x01\n      add\n      exp(0x0100, 0x00)\n      dup2\n      sload\n      dup2\n      0xffffffffffffffffffffffffffffffffffffffff\n      mul\n      not\n      and\n      swap1\n      dup4\n      0xffffffffffffffffffffffffffffffffffffffff\n      and\n      mul\n      or\n      swap1\n      sstore\n      pop\n      0x40\n      dup3\n      add\n      mload\n      dup2\n      0x02\n      add\n      swap1\n      dup2\n      tag_93\n      swap2\n      swap1\n      tag_94\n      jump\t// in\n    tag_93:\n      pop\n      0x60\n      dup3\n      add\n      mload\n      dup2\n      0x03\n      add\n      sstore\n      0x80\n      dup3\n      add\n      mload\n      dup2\n      0x04\n      add\n      sstore\n      swap1\n      pop\n      pop\n        /* \"contracts/Twitter.sol\":1123:1137  currentTweetId */\n      0x01\n      0x00\n        /* \"contracts/Twitter.sol\":1123:1139  currentTweetId++ */\n      dup2\n      sload\n      dup1\n      swap3\n      swap2\n      swap1\n      tag_95\n      swap1\n      tag_96\n      jump\t// in\n    tag_95:\n      swap2\n      swap1\n      pop\n      sstore\n      pop\n        /* \"contracts/Twitter.sol\":1149:1159  tweetCount */\n      0x03\n        /* \"contracts/Twitter.sol\":1149:1171  tweetCount[msg.sender] */\n      0x00\n        /* \"contracts/Twitter.sol\":1160:1170  msg.sender */\n      caller\n        /* \"contracts/Twitter.sol\":1149:1171  tweetCount[msg.sender] */\n      0xffffffffffffffffffffffffffffffffffffffff\n      and\n      0xffffffffffffffffffffffffffffffffffffffff\n      and\n      dup2\n      mstore\n      0x20\n      add\n      swap1\n      dup2\n      mstore\n      0x20\n      add\n      0x00\n      keccak256\n      0x00\n        /* \"contracts/Twitter.sol\":1149:1173  tweetCount[msg.sender]++ */\n      dup2\n      sload\n      dup1\n      swap3\n      swap2\n      swap1\n      tag_97\n      swap1\n      tag_96\n      jump\t// in\n    tag_97:\n      swap2\n      swap1\n      pop\n      sstore\n      pop\n        /* \"contracts/Twitter.sol\":763:1180  {... */\n      pop\n        /* \"contracts/Twitter.sol\":713:1180  function createTweet(string memory _input) public {... */\n      pop\n      jump\t// out\n        /* \"contracts/Twitter.sol\":1724:1803  function getOwner() public view returns (address) {... */\n    tag_37:\n        /* \"contracts/Twitter.sol\":1765:1772  address */\n      0x00\n        /* \"contracts/Twitter.sol\":1791:1796  OWNER */\n      dup1\n      0x02\n      swap1\n      sload\n      swap1\n      0x0100\n      exp\n      swap1\n      div\n      0xffffffffffffffffffffffffffffffffffffffff\n      and\n        /* \"contracts/Twitter.sol\":1784:1796  return OWNER */\n      swap1\n      pop\n        /* \"contracts/Twitter.sol\":1724:1803  function getOwner() public view returns (address) {... */\n      swap1\n      jump\t// out\n        /* \"contracts/Twitter.sol\":1991:2173  function unlikeTweet(uint256 _id, address _author) external {... */\n    tag_43:\n        /* \"contracts/Twitter.sol\":2098:2099  0 */\n      0x00\n        /* \"contracts/Twitter.sol\":2069:2075  tweets */\n      0x02\n        /* \"contracts/Twitter.sol\":2069:2084  tweets[_author] */\n      0x00\n        /* \"contracts/Twitter.sol\":2076:2083  _author */\n      dup4\n        /* \"contracts/Twitter.sol\":2069:2084  tweets[_author] */\n      0xffffffffffffffffffffffffffffffffffffffff\n      and\n      0xffffffffffffffffffffffffffffffffffffffff\n      and\n      dup2\n      mstore\n      0x20\n      add\n      swap1\n      dup2\n      mstore\n      0x20\n      add\n      0x00\n      keccak256\n        /* \"contracts/Twitter.sol\":2069:2089  tweets[_author][_id] */\n      0x00\n        /* \"contracts/Twitter.sol\":2085:2088  _id */\n      dup5\n        /* \"contracts/Twitter.sol\":2069:2089  tweets[_author][_id] */\n      dup2\n      mstore\n      0x20\n      add\n      swap1\n      dup2\n      mstore\n      0x20\n      add\n      0x00\n      keccak256\n        /* \"contracts/Twitter.sol\":2069:2095  tweets[_author][_id].likes */\n      0x04\n      add\n      sload\n        /* \"contracts/Twitter.sol\":2069:2099  tweets[_author][_id].likes > 0 */\n      gt\n        /* \"contracts/Twitter.sol\":2061:2128  require(tweets[_author][_id].likes > 0, \"Likes have not added yet\") */\n      tag_100\n      jumpi\n      mload(0x40)\n      0x08c379a000000000000000000000000000000000000000000000000000000000\n      dup2\n      mstore\n      0x04\n      add\n      tag_101\n      swap1\n      tag_102\n      jump\t// in\n    tag_101:\n      mload(0x40)\n      dup1\n      swap2\n      sub\n      swap1\n      revert\n    tag_100:\n        /* \"contracts/Twitter.sol\":2138:2144  tweets */\n      0x02\n        /* \"contracts/Twitter.sol\":2138:2153  tweets[_author] */\n      0x00\n        /* \"contracts/Twitter.sol\":2145:2152  _author */\n      dup3\n        /* \"contracts/Twitter.sol\":2138:2153  tweets[_author] */\n      0xffffffffffffffffffffffffffffffffffffffff\n      and\n      0xffffffffffffffffffffffffffffffffffffffff\n      and\n      dup2\n      mstore\n      0x20\n      add\n      swap1\n      dup2\n      mstore\n      0x20\n      add\n      0x00\n      keccak256\n        /* \"contracts/Twitter.sol\":2138:2158  tweets[_author][_id] */\n      0x00\n        /* \"contracts/Twitter.sol\":2154:2157  _id */\n      dup4\n        /* \"contracts/Twitter.sol\":2138:2158  tweets[_author][_id] */\n      dup2\n      mstore\n      0x20\n      add\n      swap1\n      dup2\n      mstore\n      0x20\n      add\n      0x00\n      keccak256\n        /* \"contracts/Twitter.sol\":2138:2164  tweets[_author][_id].likes */\n      0x04\n      add\n      0x00\n        /* \"contracts/Twitter.sol\":2138:2166  tweets[_author][_id].likes-- */\n      dup2\n      sload\n      dup1\n      swap3\n      swap2\n      swap1\n      tag_103\n      swap1\n      tag_104\n      jump\t// in\n    tag_103:\n      swap2\n      swap1\n      pop\n      sstore\n      pop\n        /* \"contracts/Twitter.sol\":1991:2173  function unlikeTweet(uint256 _id, address _author) external {... */\n      pop\n      pop\n      jump\t// out\n        /* \"contracts/Twitter.sol\":1186:1293  function getTweet(uint _i) public view returns (Tweet memory){... */\n    tag_47:\n        /* \"contracts/Twitter.sol\":1234:1246  Tweet memory */\n      tag_105\n      tag_72\n      jump\t// in\n    tag_105:\n        /* \"contracts/Twitter.sol\":1264:1270  tweets */\n      0x02\n        /* \"contracts/Twitter.sol\":1264:1282  tweets[msg.sender] */\n      0x00\n        /* \"contracts/Twitter.sol\":1271:1281  msg.sender */\n      caller\n        /* \"contracts/Twitter.sol\":1264:1282  tweets[msg.sender] */\n      0xffffffffffffffffffffffffffffffffffffffff\n      and\n      0xffffffffffffffffffffffffffffffffffffffff\n      and\n      dup2\n      mstore\n      0x20\n      add\n      swap1\n      dup2\n      mstore\n      0x20\n      add\n      0x00\n      keccak256\n        /* \"contracts/Twitter.sol\":1264:1286  tweets[msg.sender][_i] */\n      0x00\n        /* \"contracts/Twitter.sol\":1283:1285  _i */\n      dup4\n        /* \"contracts/Twitter.sol\":1264:1286  tweets[msg.sender][_i] */\n      dup2\n      mstore\n      0x20\n      add\n      swap1\n      dup2\n      mstore\n      0x20\n      add\n      0x00\n      keccak256\n        /* \"contracts/Twitter.sol\":1257:1286  return tweets[msg.sender][_i] */\n      mload(0x40)\n      dup1\n      0xa0\n      add\n      0x40\n      mstore\n      swap1\n      dup2\n      0x00\n      dup3\n      add\n      sload\n      dup2\n      mstore\n      0x20\n      add\n      0x01\n      dup3\n      add\n      0x00\n      swap1\n      sload\n      swap1\n      0x0100\n      exp\n      swap1\n      div\n      0xffffffffffffffffffffffffffffffffffffffff\n      and\n      0xffffffffffffffffffffffffffffffffffffffff\n      and\n      0xffffffffffffffffffffffffffffffffffffffff\n      and\n      dup2\n      mstore\n      0x20\n      add\n      0x02\n      dup3\n      add\n      dup1\n      sload\n      tag_107\n      swap1\n      tag_60\n      jump\t// in\n    tag_107:\n      dup1\n      0x1f\n      add\n      0x20\n      dup1\n      swap2\n      div\n      mul\n      0x20\n      add\n      mload(0x40)\n      swap1\n      dup2\n      add\n      0x40\n      mstore\n      dup1\n      swap3\n      swap2\n      swap1\n      dup2\n      dup2\n      mstore\n      0x20\n      add\n      dup3\n      dup1\n      sload\n      tag_108\n      swap1\n      tag_60\n      jump\t// in\n    tag_108:\n      dup1\n      iszero\n      tag_109\n      jumpi\n      dup1\n      0x1f\n      lt\n      tag_110\n      jumpi\n      0x0100\n      dup1\n      dup4\n      sload\n      div\n      mul\n      dup4\n      mstore\n      swap2\n      0x20\n      add\n      swap2\n      jump(tag_109)\n    tag_110:\n      dup3\n      add\n      swap2\n      swap1\n      0x00\n      mstore\n      keccak256(0x00, 0x20)\n      swap1\n    tag_111:\n      dup2\n      sload\n      dup2\n      mstore\n      swap1\n      0x01\n      add\n      swap1\n      0x20\n      add\n      dup1\n      dup4\n      gt\n      tag_111\n      jumpi\n      dup3\n      swap1\n      sub\n      0x1f\n      and\n      dup3\n      add\n      swap2\n    tag_109:\n      pop\n      pop\n      pop\n      pop\n      pop\n      dup2\n      mstore\n      0x20\n      add\n      0x03\n      dup3\n      add\n      sload\n      dup2\n      mstore\n      0x20\n      add\n      0x04\n      dup3\n      add\n      sload\n      dup2\n      mstore\n      pop\n      pop\n      swap1\n      pop\n        /* \"contracts/Twitter.sol\":1186:1293  function getTweet(uint _i) public view returns (Tweet memory){... */\n      swap2\n      swap1\n      pop\n      jump\t// out\n        /* \"contracts/Twitter.sol\":480:526  mapping (address => uint256) public tweetCount */\n    tag_53:\n      mstore(0x20, 0x03)\n      dup1\n      0x00\n      mstore\n      keccak256(0x00, 0x40)\n      0x00\n      swap2\n      pop\n      swap1\n      pop\n      sload\n      dup2\n      jump\t// out\n        /* \"contracts/Twitter.sol\":1809:1985  function likeTweet(uint256 _id, address _author) external {... */\n    tag_58:\n        /* \"contracts/Twitter.sol\":1912:1915  _id */\n      dup2\n        /* \"contracts/Twitter.sol\":1885:1891  tweets */\n      0x02\n        /* \"contracts/Twitter.sol\":1885:1900  tweets[_author] */\n      0x00\n        /* \"contracts/Twitter.sol\":1892:1899  _author */\n      dup4\n        /* \"contracts/Twitter.sol\":1885:1900  tweets[_author] */\n      0xffffffffffffffffffffffffffffffffffffffff\n      and\n      0xffffffffffffffffffffffffffffffffffffffff\n      and\n      dup2\n      mstore\n      0x20\n      add\n      swap1\n      dup2\n      mstore\n      0x20\n      add\n      0x00\n      keccak256\n        /* \"contracts/Twitter.sol\":1885:1905  tweets[_author][_id] */\n      0x00\n        /* \"contracts/Twitter.sol\":1901:1904  _id */\n      dup5\n        /* \"contracts/Twitter.sol\":1885:1905  tweets[_author][_id] */\n      dup2\n      mstore\n      0x20\n      add\n      swap1\n      dup2\n      mstore\n      0x20\n      add\n      0x00\n      keccak256\n        /* \"contracts/Twitter.sol\":1885:1908  tweets[_author][_id].id */\n      0x00\n      add\n      sload\n        /* \"contracts/Twitter.sol\":1885:1915  tweets[_author][_id].id == _id */\n      eq\n        /* \"contracts/Twitter.sol\":1877:1940  require(tweets[_author][_id].id == _id, \"Tweet does not exist\") */\n      tag_113\n      jumpi\n      mload(0x40)\n      0x08c379a000000000000000000000000000000000000000000000000000000000\n      dup2\n      mstore\n      0x04\n      add\n      tag_114\n      swap1\n      tag_115\n      jump\t// in\n    tag_114:\n      mload(0x40)\n      dup1\n      swap2\n      sub\n      swap1\n      revert\n    tag_113:\n        /* \"contracts/Twitter.sol\":1950:1956  tweets */\n      0x02\n        /* \"contracts/Twitter.sol\":1950:1965  tweets[_author] */\n      0x00\n        /* \"contracts/Twitter.sol\":1957:1964  _author */\n      dup3\n        /* \"contracts/Twitter.sol\":1950:1965  tweets[_author] */\n      0xffffffffffffffffffffffffffffffffffffffff\n      and\n      0xffffffffffffffffffffffffffffffffffffffff\n      and\n      dup2\n      mstore\n      0x20\n      add\n      swap1\n      dup2\n      mstore\n      0x20\n      add\n      0x00\n      keccak256\n        /* \"contracts/Twitter.sol\":1950:1970  tweets[_author][_id] */\n      0x00\n        /* \"contracts/Twitter.sol\":1966:1969  _id */\n      dup4\n        /* \"contracts/Twitter.sol\":1950:1970  tweets[_author][_id] */\n      dup2\n      mstore\n      0x20\n      add\n      swap1\n      dup2\n      mstore\n      0x20\n      add\n      0x00\n      keccak256\n        /* \"contracts/Twitter.sol\":1950:1976  tweets[_author][_id].likes */\n      0x04\n      add\n      0x00\n        /* \"contracts/Twitter.sol\":1950:1978  tweets[_author][_id].likes++ */\n      dup2\n      sload\n      dup1\n      swap3\n      swap2\n      swap1\n      tag_116\n      swap1\n      tag_96\n      jump\t// in\n    tag_116:\n      swap2\n      swap1\n      pop\n      sstore\n      pop\n        /* \"contracts/Twitter.sol\":1809:1985  function likeTweet(uint256 _id, address _author) external {... */\n      pop\n      pop\n      jump\t// out\n    tag_72:\n      mload(0x40)\n      dup1\n      0xa0\n      add\n      0x40\n      mstore\n      dup1\n      0x00\n      dup2\n      mstore\n      0x20\n      add\n      and(0xffffffffffffffffffffffffffffffffffffffff, 0x00)\n      dup2\n      mstore\n      0x20\n      add\n      0x60\n      dup2\n      mstore\n      0x20\n      add\n      0x00\n      dup2\n      mstore\n      0x20\n      add\n      0x00\n      dup2\n      mstore\n      pop\n      swap1\n      jump\t// out\n        /* \"#utility.yul\":7:82   */\n    tag_117:\n        /* \"#utility.yul\":40:46   */\n      0x00\n        /* \"#utility.yul\":73:75   */\n      0x40\n        /* \"#utility.yul\":67:76   */\n      mload\n        /* \"#utility.yul\":57:76   */\n      swap1\n      pop\n        /* \"#utility.yul\":7:82   */\n      swap1\n      jump\t// out\n        /* \"#utility.yul\":88:205   */\n    tag_118:\n        /* \"#utility.yul\":197:198   */\n      0x00\n        /* \"#utility.yul\":194:195   */\n      dup1\n        /* \"#utility.yul\":187:199   */\n      revert\n        /* \"#utility.yul\":211:328   */\n    tag_119:\n        /* \"#utility.yul\":320:321   */\n      0x00\n        /* \"#utility.yul\":317:318   */\n      dup1\n        /* \"#utility.yul\":310:322   */\n      revert\n        /* \"#utility.yul\":334:460   */\n    tag_120:\n        /* \"#utility.yul\":371:378   */\n      0x00\n        /* \"#utility.yul\":411:453   */\n      0xffffffffffffffffffffffffffffffffffffffff\n        /* \"#utility.yul\":404:409   */\n      dup3\n        /* \"#utility.yul\":400:454   */\n      and\n        /* \"#utility.yul\":389:454   */\n      swap1\n      pop\n        /* \"#utility.yul\":334:460   */\n      swap2\n      swap1\n      pop\n      jump\t// out\n        /* \"#utility.yul\":466:562   */\n    tag_121:\n        /* \"#utility.yul\":503:510   */\n      0x00\n        /* \"#utility.yul\":532:556   */\n      tag_189\n        /* \"#utility.yul\":550:555   */\n      dup3\n        /* \"#utility.yul\":532:556   */\n      tag_120\n      jump\t// in\n    tag_189:\n        /* \"#utility.yul\":521:556   */\n      swap1\n      pop\n        /* \"#utility.yul\":466:562   */\n      swap2\n      swap1\n      pop\n      jump\t// out\n        /* \"#utility.yul\":568:690   */\n    tag_122:\n        /* \"#utility.yul\":641:665   */\n      tag_191\n        /* \"#utility.yul\":659:664   */\n      dup2\n        /* \"#utility.yul\":641:665   */\n      tag_121\n      jump\t// in\n    tag_191:\n        /* \"#utility.yul\":634:639   */\n      dup2\n        /* \"#utility.yul\":631:666   */\n      eq\n        /* \"#utility.yul\":621:684   */\n      tag_192\n      jumpi\n        /* \"#utility.yul\":680:681   */\n      0x00\n        /* \"#utility.yul\":677:678   */\n      dup1\n        /* \"#utility.yul\":670:682   */\n      revert\n        /* \"#utility.yul\":621:684   */\n    tag_192:\n        /* \"#utility.yul\":568:690   */\n      pop\n      jump\t// out\n        /* \"#utility.yul\":696:835   */\n    tag_123:\n        /* \"#utility.yul\":742:747   */\n      0x00\n        /* \"#utility.yul\":780:786   */\n      dup2\n        /* \"#utility.yul\":767:787   */\n      calldataload\n        /* \"#utility.yul\":758:787   */\n      swap1\n      pop\n        /* \"#utility.yul\":796:829   */\n      tag_194\n        /* \"#utility.yul\":823:828   */\n      dup2\n        /* \"#utility.yul\":796:829   */\n      tag_122\n      jump\t// in\n    tag_194:\n        /* \"#utility.yul\":696:835   */\n      swap3\n      swap2\n      pop\n      pop\n      jump\t// out\n        /* \"#utility.yul\":841:918   */\n    tag_124:\n        /* \"#utility.yul\":878:885   */\n      0x00\n        /* \"#utility.yul\":907:912   */\n      dup2\n        /* \"#utility.yul\":896:912   */\n      swap1\n      pop\n        /* \"#utility.yul\":841:918   */\n      swap2\n      swap1\n      pop\n      jump\t// out\n        /* \"#utility.yul\":924:1046   */\n    tag_125:\n        /* \"#utility.yul\":997:1021   */\n      tag_197\n        /* \"#utility.yul\":1015:1020   */\n      dup2\n        /* \"#utility.yul\":997:1021   */\n      tag_124\n      jump\t// in\n    tag_197:\n        /* \"#utility.yul\":990:995   */\n      dup2\n        /* \"#utility.yul\":987:1022   */\n      eq\n        /* \"#utility.yul\":977:1040   */\n      tag_198\n      jumpi\n        /* \"#utility.yul\":1036:1037   */\n      0x00\n        /* \"#utility.yul\":1033:1034   */\n      dup1\n        /* \"#utility.yul\":1026:1038   */\n      revert\n        /* \"#utility.yul\":977:1040   */\n    tag_198:\n        /* \"#utility.yul\":924:1046   */\n      pop\n      jump\t// out\n        /* \"#utility.yul\":1052:1191   */\n    tag_126:\n        /* \"#utility.yul\":1098:1103   */\n      0x00\n        /* \"#utility.yul\":1136:1142   */\n      dup2\n        /* \"#utility.yul\":1123:1143   */\n      calldataload\n        /* \"#utility.yul\":1114:1143   */\n      swap1\n      pop\n        /* \"#utility.yul\":1152:1185   */\n      tag_200\n        /* \"#utility.yul\":1179:1184   */\n      dup2\n        /* \"#utility.yul\":1152:1185   */\n      tag_125\n      jump\t// in\n    tag_200:\n        /* \"#utility.yul\":1052:1191   */\n      swap3\n      swap2\n      pop\n      pop\n      jump\t// out\n        /* \"#utility.yul\":1197:1671   */\n    tag_16:\n        /* \"#utility.yul\":1265:1271   */\n      0x00\n        /* \"#utility.yul\":1273:1279   */\n      dup1\n        /* \"#utility.yul\":1322:1324   */\n      0x40\n        /* \"#utility.yul\":1310:1319   */\n      dup4\n        /* \"#utility.yul\":1301:1308   */\n      dup6\n        /* \"#utility.yul\":1297:1320   */\n      sub\n        /* \"#utility.yul\":1293:1325   */\n      slt\n        /* \"#utility.yul\":1290:1409   */\n      iszero\n      tag_202\n      jumpi\n        /* \"#utility.yul\":1328:1407   */\n      tag_203\n      tag_118\n      jump\t// in\n    tag_203:\n        /* \"#utility.yul\":1290:1409   */\n    tag_202:\n        /* \"#utility.yul\":1448:1449   */\n      0x00\n        /* \"#utility.yul\":1473:1526   */\n      tag_204\n        /* \"#utility.yul\":1518:1525   */\n      dup6\n        /* \"#utility.yul\":1509:1515   */\n      dup3\n        /* \"#utility.yul\":1498:1507   */\n      dup7\n        /* \"#utility.yul\":1494:1516   */\n      add\n        /* \"#utility.yul\":1473:1526   */\n      tag_123\n      jump\t// in\n    tag_204:\n        /* \"#utility.yul\":1463:1526   */\n      swap3\n      pop\n        /* \"#utility.yul\":1419:1536   */\n      pop\n        /* \"#utility.yul\":1575:1577   */\n      0x20\n        /* \"#utility.yul\":1601:1654   */\n      tag_205\n        /* \"#utility.yul\":1646:1653   */\n      dup6\n        /* \"#utility.yul\":1637:1643   */\n      dup3\n        /* \"#utility.yul\":1626:1635   */\n      dup7\n        /* \"#utility.yul\":1622:1644   */\n      add\n        /* \"#utility.yul\":1601:1654   */\n      tag_126\n      jump\t// in\n    tag_205:\n        /* \"#utility.yul\":1591:1654   */\n      swap2\n      pop\n        /* \"#utility.yul\":1546:1664   */\n      pop\n        /* \"#utility.yul\":1197:1671   */\n      swap3\n      pop\n      swap3\n      swap1\n      pop\n      jump\t// out\n        /* \"#utility.yul\":1677:1795   */\n    tag_127:\n        /* \"#utility.yul\":1764:1788   */\n      tag_207\n        /* \"#utility.yul\":1782:1787   */\n      dup2\n        /* \"#utility.yul\":1764:1788   */\n      tag_124\n      jump\t// in\n    tag_207:\n        /* \"#utility.yul\":1759:1762   */\n      dup3\n        /* \"#utility.yul\":1752:1789   */\n      mstore\n        /* \"#utility.yul\":1677:1795   */\n      pop\n      pop\n      jump\t// out\n        /* \"#utility.yul\":1801:1919   */\n    tag_128:\n        /* \"#utility.yul\":1888:1912   */\n      tag_209\n        /* \"#utility.yul\":1906:1911   */\n      dup2\n        /* \"#utility.yul\":1888:1912   */\n      tag_121\n      jump\t// in\n    tag_209:\n        /* \"#utility.yul\":1883:1886   */\n      dup3\n        /* \"#utility.yul\":1876:1913   */\n      mstore\n        /* \"#utility.yul\":1801:1919   */\n      pop\n      pop\n      jump\t// out\n        /* \"#utility.yul\":1925:2024   */\n    tag_129:\n        /* \"#utility.yul\":1977:1983   */\n      0x00\n        /* \"#utility.yul\":2011:2016   */\n      dup2\n        /* \"#utility.yul\":2005:2017   */\n      mload\n        /* \"#utility.yul\":1995:2017   */\n      swap1\n      pop\n        /* \"#utility.yul\":1925:2024   */\n      swap2\n      swap1\n      pop\n      jump\t// out\n        /* \"#utility.yul\":2030:2199   */\n    tag_130:\n        /* \"#utility.yul\":2114:2125   */\n      0x00\n        /* \"#utility.yul\":2148:2154   */\n      dup3\n        /* \"#utility.yul\":2143:2146   */\n      dup3\n        /* \"#utility.yul\":2136:2155   */\n      mstore\n        /* \"#utility.yul\":2188:2192   */\n      0x20\n        /* \"#utility.yul\":2183:2186   */\n      dup3\n        /* \"#utility.yul\":2179:2193   */\n      add\n        /* \"#utility.yul\":2164:2193   */\n      swap1\n      pop\n        /* \"#utility.yul\":2030:2199   */\n      swap3\n      swap2\n      pop\n      pop\n      jump\t// out\n        /* \"#utility.yul\":2205:2451   */\n    tag_131:\n        /* \"#utility.yul\":2286:2287   */\n      0x00\n        /* \"#utility.yul\":2296:2409   */\n    tag_213:\n        /* \"#utility.yul\":2310:2316   */\n      dup4\n        /* \"#utility.yul\":2307:2308   */\n      dup2\n        /* \"#utility.yul\":2304:2317   */\n      lt\n        /* \"#utility.yul\":2296:2409   */\n      iszero\n      tag_215\n      jumpi\n        /* \"#utility.yul\":2395:2396   */\n      dup1\n        /* \"#utility.yul\":2390:2393   */\n      dup3\n        /* \"#utility.yul\":2386:2397   */\n      add\n        /* \"#utility.yul\":2380:2398   */\n      mload\n        /* \"#utility.yul\":2376:2377   */\n      dup2\n        /* \"#utility.yul\":2371:2374   */\n      dup5\n        /* \"#utility.yul\":2367:2378   */\n      add\n        /* \"#utility.yul\":2360:2399   */\n      mstore\n        /* \"#utility.yul\":2332:2334   */\n      0x20\n        /* \"#utility.yul\":2329:2330   */\n      dup2\n        /* \"#utility.yul\":2325:2335   */\n      add\n        /* \"#utility.yul\":2320:2335   */\n      swap1\n      pop\n        /* \"#utility.yul\":2296:2409   */\n      jump(tag_213)\n    tag_215:\n        /* \"#utility.yul\":2443:2444   */\n      0x00\n        /* \"#utility.yul\":2434:2440   */\n      dup5\n        /* \"#utility.yul\":2429:2432   */\n      dup5\n        /* \"#utility.yul\":2425:2441   */\n      add\n        /* \"#utility.yul\":2418:2445   */\n      mstore\n        /* \"#utility.yul\":2267:2451   */\n      pop\n        /* \"#utility.yul\":2205:2451   */\n      pop\n      pop\n      pop\n      jump\t// out\n        /* \"#utility.yul\":2457:2559   */\n    tag_132:\n        /* \"#utility.yul\":2498:2504   */\n      0x00\n        /* \"#utility.yul\":2549:2551   */\n      0x1f\n        /* \"#utility.yul\":2545:2552   */\n      not\n        /* \"#utility.yul\":2540:2542   */\n      0x1f\n        /* \"#utility.yul\":2533:2538   */\n      dup4\n        /* \"#utility.yul\":2529:2543   */\n      add\n        /* \"#utility.yul\":2525:2553   */\n      and\n        /* \"#utility.yul\":2515:2553   */\n      swap1\n      pop\n        /* \"#utility.yul\":2457:2559   */\n      swap2\n      swap1\n      pop\n      jump\t// out\n        /* \"#utility.yul\":2565:2942   */\n    tag_133:\n        /* \"#utility.yul\":2653:2656   */\n      0x00\n        /* \"#utility.yul\":2681:2720   */\n      tag_218\n        /* \"#utility.yul\":2714:2719   */\n      dup3\n        /* \"#utility.yul\":2681:2720   */\n      tag_129\n      jump\t// in\n    tag_218:\n        /* \"#utility.yul\":2736:2807   */\n      tag_219\n        /* \"#utility.yul\":2800:2806   */\n      dup2\n        /* \"#utility.yul\":2795:2798   */\n      dup6\n        /* \"#utility.yul\":2736:2807   */\n      tag_130\n      jump\t// in\n    tag_219:\n        /* \"#utility.yul\":2729:2807   */\n      swap4\n      pop\n        /* \"#utility.yul\":2816:2881   */\n      tag_220\n        /* \"#utility.yul\":2874:2880   */\n      dup2\n        /* \"#utility.yul\":2869:2872   */\n      dup6\n        /* \"#utility.yul\":2862:2866   */\n      0x20\n        /* \"#utility.yul\":2855:2860   */\n      dup7\n        /* \"#utility.yul\":2851:2867   */\n      add\n        /* \"#utility.yul\":2816:2881   */\n      tag_131\n      jump\t// in\n    tag_220:\n        /* \"#utility.yul\":2906:2935   */\n      tag_221\n        /* \"#utility.yul\":2928:2934   */\n      dup2\n        /* \"#utility.yul\":2906:2935   */\n      tag_132\n      jump\t// in\n    tag_221:\n        /* \"#utility.yul\":2901:2904   */\n      dup5\n        /* \"#utility.yul\":2897:2936   */\n      add\n        /* \"#utility.yul\":2890:2936   */\n      swap2\n      pop\n        /* \"#utility.yul\":2657:2942   */\n      pop\n        /* \"#utility.yul\":2565:2942   */\n      swap3\n      swap2\n      pop\n      pop\n      jump\t// out\n        /* \"#utility.yul\":2948:3703   */\n    tag_19:\n        /* \"#utility.yul\":3173:3177   */\n      0x00\n        /* \"#utility.yul\":3211:3214   */\n      0xa0\n        /* \"#utility.yul\":3200:3209   */\n      dup3\n        /* \"#utility.yul\":3196:3215   */\n      add\n        /* \"#utility.yul\":3188:3215   */\n      swap1\n      pop\n        /* \"#utility.yul\":3225:3296   */\n      tag_223\n        /* \"#utility.yul\":3293:3294   */\n      0x00\n        /* \"#utility.yul\":3282:3291   */\n      dup4\n        /* \"#utility.yul\":3278:3295   */\n      add\n        /* \"#utility.yul\":3269:3275   */\n      dup9\n        /* \"#utility.yul\":3225:3296   */\n      tag_127\n      jump\t// in\n    tag_223:\n        /* \"#utility.yul\":3306:3378   */\n      tag_224\n        /* \"#utility.yul\":3374:3376   */\n      0x20\n        /* \"#utility.yul\":3363:3372   */\n      dup4\n        /* \"#utility.yul\":3359:3377   */\n      add\n        /* \"#utility.yul\":3350:3356   */\n      dup8\n        /* \"#utility.yul\":3306:3378   */\n      tag_128\n      jump\t// in\n    tag_224:\n        /* \"#utility.yul\":3425:3434   */\n      dup2\n        /* \"#utility.yul\":3419:3423   */\n      dup2\n        /* \"#utility.yul\":3415:3435   */\n      sub\n        /* \"#utility.yul\":3410:3412   */\n      0x40\n        /* \"#utility.yul\":3399:3408   */\n      dup4\n        /* \"#utility.yul\":3395:3413   */\n      add\n        /* \"#utility.yul\":3388:3436   */\n      mstore\n        /* \"#utility.yul\":3453:3531   */\n      tag_225\n        /* \"#utility.yul\":3526:3530   */\n      dup2\n        /* \"#utility.yul\":3517:3523   */\n      dup7\n        /* \"#utility.yul\":3453:3531   */\n      tag_133\n      jump\t// in\n    tag_225:\n        /* \"#utility.yul\":3445:3531   */\n      swap1\n      pop\n        /* \"#utility.yul\":3541:3613   */\n      tag_226\n        /* \"#utility.yul\":3609:3611   */\n      0x60\n        /* \"#utility.yul\":3598:3607   */\n      dup4\n        /* \"#utility.yul\":3594:3612   */\n      add\n        /* \"#utility.yul\":3585:3591   */\n      dup6\n        /* \"#utility.yul\":3541:3613   */\n      tag_127\n      jump\t// in\n    tag_226:\n        /* \"#utility.yul\":3623:3696   */\n      tag_227\n        /* \"#utility.yul\":3691:3694   */\n      0x80\n        /* \"#utility.yul\":3680:3689   */\n      dup4\n        /* \"#utility.yul\":3676:3695   */\n      add\n        /* \"#utility.yul\":3667:3673   */\n      dup5\n        /* \"#utility.yul\":3623:3696   */\n      tag_127\n      jump\t// in\n    tag_227:\n        /* \"#utility.yul\":2948:3703   */\n      swap7\n      swap6\n      pop\n      pop\n      pop\n      pop\n      pop\n      pop\n      jump\t// out\n        /* \"#utility.yul\":3709:3844   */\n    tag_134:\n        /* \"#utility.yul\":3797:3803   */\n      0x00\n        /* \"#utility.yul\":3831:3836   */\n      dup2\n        /* \"#utility.yul\":3825:3837   */\n      mload\n        /* \"#utility.yul\":3815:3837   */\n      swap1\n      pop\n        /* \"#utility.yul\":3709:3844   */\n      swap2\n      swap1\n      pop\n      jump\t// out\n        /* \"#utility.yul\":3850:4055   */\n    tag_135:\n        /* \"#utility.yul\":3970:3981   */\n      0x00\n        /* \"#utility.yul\":4004:4010   */\n      dup3\n        /* \"#utility.yul\":3999:4002   */\n      dup3\n        /* \"#utility.yul\":3992:4011   */\n      mstore\n        /* \"#utility.yul\":4044:4048   */\n      0x20\n        /* \"#utility.yul\":4039:4042   */\n      dup3\n        /* \"#utility.yul\":4035:4049   */\n      add\n        /* \"#utility.yul\":4020:4049   */\n      swap1\n      pop\n        /* \"#utility.yul\":3850:4055   */\n      swap3\n      swap2\n      pop\n      pop\n      jump\t// out\n        /* \"#utility.yul\":4061:4214   */\n    tag_136:\n        /* \"#utility.yul\":4149:4153   */\n      0x00\n        /* \"#utility.yul\":4172:4175   */\n      dup2\n        /* \"#utility.yul\":4164:4175   */\n      swap1\n      pop\n        /* \"#utility.yul\":4202:4206   */\n      0x20\n        /* \"#utility.yul\":4197:4200   */\n      dup3\n        /* \"#utility.yul\":4193:4207   */\n      add\n        /* \"#utility.yul\":4185:4207   */\n      swap1\n      pop\n        /* \"#utility.yul\":4061:4214   */\n      swap2\n      swap1\n      pop\n      jump\t// out\n        /* \"#utility.yul\":4220:4328   */\n    tag_137:\n        /* \"#utility.yul\":4297:4321   */\n      tag_232\n        /* \"#utility.yul\":4315:4320   */\n      dup2\n        /* \"#utility.yul\":4297:4321   */\n      tag_124\n      jump\t// in\n    tag_232:\n        /* \"#utility.yul\":4292:4295   */\n      dup3\n        /* \"#utility.yul\":4285:4322   */\n      mstore\n        /* \"#utility.yul\":4220:4328   */\n      pop\n      pop\n      jump\t// out\n        /* \"#utility.yul\":4334:4442   */\n    tag_138:\n        /* \"#utility.yul\":4411:4435   */\n      tag_234\n        /* \"#utility.yul\":4429:4434   */\n      dup2\n        /* \"#utility.yul\":4411:4435   */\n      tag_121\n      jump\t// in\n    tag_234:\n        /* \"#utility.yul\":4406:4409   */\n      dup3\n        /* \"#utility.yul\":4399:4436   */\n      mstore\n        /* \"#utility.yul\":4334:4442   */\n      pop\n      pop\n      jump\t// out\n        /* \"#utility.yul\":4448:4607   */\n    tag_139:\n        /* \"#utility.yul\":4522:4533   */\n      0x00\n        /* \"#utility.yul\":4556:4562   */\n      dup3\n        /* \"#utility.yul\":4551:4554   */\n      dup3\n        /* \"#utility.yul\":4544:4563   */\n      mstore\n        /* \"#utility.yul\":4596:4600   */\n      0x20\n        /* \"#utility.yul\":4591:4594   */\n      dup3\n        /* \"#utility.yul\":4587:4601   */\n      add\n        /* \"#utility.yul\":4572:4601   */\n      swap1\n      pop\n        /* \"#utility.yul\":4448:4607   */\n      swap3\n      swap2\n      pop\n      pop\n      jump\t// out\n        /* \"#utility.yul\":4613:4970   */\n    tag_140:\n        /* \"#utility.yul\":4691:4694   */\n      0x00\n        /* \"#utility.yul\":4719:4758   */\n      tag_237\n        /* \"#utility.yul\":4752:4757   */\n      dup3\n        /* \"#utility.yul\":4719:4758   */\n      tag_129\n      jump\t// in\n    tag_237:\n        /* \"#utility.yul\":4774:4835   */\n      tag_238\n        /* \"#utility.yul\":4828:4834   */\n      dup2\n        /* \"#utility.yul\":4823:4826   */\n      dup6\n        /* \"#utility.yul\":4774:4835   */\n      tag_139\n      jump\t// in\n    tag_238:\n        /* \"#utility.yul\":4767:4835   */\n      swap4\n      pop\n        /* \"#utility.yul\":4844:4909   */\n      tag_239\n        /* \"#utility.yul\":4902:4908   */\n      dup2\n        /* \"#utility.yul\":4897:4900   */\n      dup6\n        /* \"#utility.yul\":4890:4894   */\n      0x20\n        /* \"#utility.yul\":4883:4888   */\n      dup7\n        /* \"#utility.yul\":4879:4895   */\n      add\n        /* \"#utility.yul\":4844:4909   */\n      tag_131\n      jump\t// in\n    tag_239:\n        /* \"#utility.yul\":4934:4963   */\n      tag_240\n        /* \"#utility.yul\":4956:4962   */\n      dup2\n        /* \"#utility.yul\":4934:4963   */\n      tag_132\n      jump\t// in\n    tag_240:\n        /* \"#utility.yul\":4929:4932   */\n      dup5\n        /* \"#utility.yul\":4925:4964   */\n      add\n        /* \"#utility.yul\":4918:4964   */\n      swap2\n      pop\n        /* \"#utility.yul\":4695:4970   */\n      pop\n        /* \"#utility.yul\":4613:4970   */\n      swap3\n      swap2\n      pop\n      pop\n      jump\t// out\n        /* \"#utility.yul\":5028:6147   */\n    tag_141:\n        /* \"#utility.yul\":5129:5132   */\n      0x00\n        /* \"#utility.yul\":5165:5169   */\n      0xa0\n        /* \"#utility.yul\":5160:5163   */\n      dup4\n        /* \"#utility.yul\":5156:5170   */\n      add\n        /* \"#utility.yul\":5250:5254   */\n      0x00\n        /* \"#utility.yul\":5243:5248   */\n      dup4\n        /* \"#utility.yul\":5239:5255   */\n      add\n        /* \"#utility.yul\":5233:5256   */\n      mload\n        /* \"#utility.yul\":5269:5332   */\n      tag_242\n        /* \"#utility.yul\":5326:5330   */\n      0x00\n        /* \"#utility.yul\":5321:5324   */\n      dup7\n        /* \"#utility.yul\":5317:5331   */\n      add\n        /* \"#utility.yul\":5303:5315   */\n      dup3\n        /* \"#utility.yul\":5269:5332   */\n      tag_137\n      jump\t// in\n    tag_242:\n        /* \"#utility.yul\":5180:5342   */\n      pop\n        /* \"#utility.yul\":5426:5430   */\n      0x20\n        /* \"#utility.yul\":5419:5424   */\n      dup4\n        /* \"#utility.yul\":5415:5431   */\n      add\n        /* \"#utility.yul\":5409:5432   */\n      mload\n        /* \"#utility.yul\":5445:5508   */\n      tag_243\n        /* \"#utility.yul\":5502:5506   */\n      0x20\n        /* \"#utility.yul\":5497:5500   */\n      dup7\n        /* \"#utility.yul\":5493:5507   */\n      add\n        /* \"#utility.yul\":5479:5491   */\n      dup3\n        /* \"#utility.yul\":5445:5508   */\n      tag_138\n      jump\t// in\n    tag_243:\n        /* \"#utility.yul\":5352:5518   */\n      pop\n        /* \"#utility.yul\":5603:5607   */\n      0x40\n        /* \"#utility.yul\":5596:5601   */\n      dup4\n        /* \"#utility.yul\":5592:5608   */\n      add\n        /* \"#utility.yul\":5586:5609   */\n      mload\n        /* \"#utility.yul\":5656:5659   */\n      dup5\n        /* \"#utility.yul\":5650:5654   */\n      dup3\n        /* \"#utility.yul\":5646:5660   */\n      sub\n        /* \"#utility.yul\":5639:5643   */\n      0x40\n        /* \"#utility.yul\":5634:5637   */\n      dup7\n        /* \"#utility.yul\":5630:5644   */\n      add\n        /* \"#utility.yul\":5623:5661   */\n      mstore\n        /* \"#utility.yul\":5682:5755   */\n      tag_244\n        /* \"#utility.yul\":5750:5754   */\n      dup3\n        /* \"#utility.yul\":5736:5748   */\n      dup3\n        /* \"#utility.yul\":5682:5755   */\n      tag_140\n      jump\t// in\n    tag_244:\n        /* \"#utility.yul\":5674:5755   */\n      swap2\n      pop\n        /* \"#utility.yul\":5528:5766   */\n      pop\n        /* \"#utility.yul\":5853:5857   */\n      0x60\n        /* \"#utility.yul\":5846:5851   */\n      dup4\n        /* \"#utility.yul\":5842:5858   */\n      add\n        /* \"#utility.yul\":5836:5859   */\n      mload\n        /* \"#utility.yul\":5872:5935   */\n      tag_245\n        /* \"#utility.yul\":5929:5933   */\n      0x60\n        /* \"#utility.yul\":5924:5927   */\n      dup7\n        /* \"#utility.yul\":5920:5934   */\n      add\n        /* \"#utility.yul\":5906:5918   */\n      dup3\n        /* \"#utility.yul\":5872:5935   */\n      tag_137\n      jump\t// in\n    tag_245:\n        /* \"#utility.yul\":5776:5945   */\n      pop\n        /* \"#utility.yul\":6028:6032   */\n      0x80\n        /* \"#utility.yul\":6021:6026   */\n      dup4\n        /* \"#utility.yul\":6017:6033   */\n      add\n        /* \"#utility.yul\":6011:6034   */\n      mload\n        /* \"#utility.yul\":6047:6110   */\n      tag_246\n        /* \"#utility.yul\":6104:6108   */\n      0x80\n        /* \"#utility.yul\":6099:6102   */\n      dup7\n        /* \"#utility.yul\":6095:6109   */\n      add\n        /* \"#utility.yul\":6081:6093   */\n      dup3\n        /* \"#utility.yul\":6047:6110   */\n      tag_137\n      jump\t// in\n    tag_246:\n        /* \"#utility.yul\":5955:6120   */\n      pop\n        /* \"#utility.yul\":6137:6141   */\n      dup1\n        /* \"#utility.yul\":6130:6141   */\n      swap2\n      pop\n        /* \"#utility.yul\":5134:6147   */\n      pop\n        /* \"#utility.yul\":5028:6147   */\n      swap3\n      swap2\n      pop\n      pop\n      jump\t// out\n        /* \"#utility.yul\":6153:6393   */\n    tag_142:\n        /* \"#utility.yul\":6264:6274   */\n      0x00\n        /* \"#utility.yul\":6299:6387   */\n      tag_248\n        /* \"#utility.yul\":6383:6386   */\n      dup4\n        /* \"#utility.yul\":6375:6381   */\n      dup4\n        /* \"#utility.yul\":6299:6387   */\n      tag_141\n      jump\t// in\n    tag_248:\n        /* \"#utility.yul\":6285:6387   */\n      swap1\n      pop\n        /* \"#utility.yul\":6153:6393   */\n      swap3\n      swap2\n      pop\n      pop\n      jump\t// out\n        /* \"#utility.yul\":6399:6533   */\n    tag_143:\n        /* \"#utility.yul\":6490:6494   */\n      0x00\n        /* \"#utility.yul\":6522:6526   */\n      0x20\n        /* \"#utility.yul\":6517:6520   */\n      dup3\n        /* \"#utility.yul\":6513:6527   */\n      add\n        /* \"#utility.yul\":6505:6527   */\n      swap1\n      pop\n        /* \"#utility.yul\":6399:6533   */\n      swap2\n      swap1\n      pop\n      jump\t// out\n        /* \"#utility.yul\":6595:7674   */\n    tag_144:\n        /* \"#utility.yul\":6756:6759   */\n      0x00\n        /* \"#utility.yul\":6785:6860   */\n      tag_251\n        /* \"#utility.yul\":6854:6859   */\n      dup3\n        /* \"#utility.yul\":6785:6860   */\n      tag_134\n      jump\t// in\n    tag_251:\n        /* \"#utility.yul\":6876:6983   */\n      tag_252\n        /* \"#utility.yul\":6976:6982   */\n      dup2\n        /* \"#utility.yul\":6971:6974   */\n      dup6\n        /* \"#utility.yul\":6876:6983   */\n      tag_135\n      jump\t// in\n    tag_252:\n        /* \"#utility.yul\":6869:6983   */\n      swap4\n      pop\n        /* \"#utility.yul\":7009:7012   */\n      dup4\n        /* \"#utility.yul\":7054:7058   */\n      0x20\n        /* \"#utility.yul\":7046:7052   */\n      dup3\n        /* \"#utility.yul\":7042:7059   */\n      mul\n        /* \"#utility.yul\":7037:7040   */\n      dup6\n        /* \"#utility.yul\":7033:7060   */\n      add\n        /* \"#utility.yul\":7084:7161   */\n      tag_253\n        /* \"#utility.yul\":7155:7160   */\n      dup6\n        /* \"#utility.yul\":7084:7161   */\n      tag_136\n      jump\t// in\n    tag_253:\n        /* \"#utility.yul\":7184:7191   */\n      dup1\n        /* \"#utility.yul\":7215:7216   */\n      0x00\n        /* \"#utility.yul\":7200:7629   */\n    tag_254:\n        /* \"#utility.yul\":7225:7231   */\n      dup6\n        /* \"#utility.yul\":7222:7223   */\n      dup2\n        /* \"#utility.yul\":7219:7232   */\n      lt\n        /* \"#utility.yul\":7200:7629   */\n      iszero\n      tag_256\n      jumpi\n        /* \"#utility.yul\":7296:7305   */\n      dup5\n        /* \"#utility.yul\":7290:7294   */\n      dup5\n        /* \"#utility.yul\":7286:7306   */\n      sub\n        /* \"#utility.yul\":7281:7284   */\n      dup10\n        /* \"#utility.yul\":7274:7307   */\n      mstore\n        /* \"#utility.yul\":7347:7353   */\n      dup2\n        /* \"#utility.yul\":7341:7354   */\n      mload\n        /* \"#utility.yul\":7375:7481   */\n      tag_257\n        /* \"#utility.yul\":7476:7480   */\n      dup6\n        /* \"#utility.yul\":7461:7474   */\n      dup3\n        /* \"#utility.yul\":7375:7481   */\n      tag_142\n      jump\t// in\n    tag_257:\n        /* \"#utility.yul\":7367:7481   */\n      swap5\n      pop\n        /* \"#utility.yul\":7504:7585   */\n      tag_258\n        /* \"#utility.yul\":7578:7584   */\n      dup4\n        /* \"#utility.yul\":7504:7585   */\n      tag_143\n      jump\t// in\n    tag_258:\n        /* \"#utility.yul\":7494:7585   */\n      swap3\n      pop\n        /* \"#utility.yul\":7614:7618   */\n      0x20\n        /* \"#utility.yul\":7609:7612   */\n      dup11\n        /* \"#utility.yul\":7605:7619   */\n      add\n        /* \"#utility.yul\":7598:7619   */\n      swap10\n      pop\n        /* \"#utility.yul\":7260:7629   */\n      pop\n        /* \"#utility.yul\":7247:7248   */\n      0x01\n        /* \"#utility.yul\":7244:7245   */\n      dup2\n        /* \"#utility.yul\":7240:7249   */\n      add\n        /* \"#utility.yul\":7235:7249   */\n      swap1\n      pop\n        /* \"#utility.yul\":7200:7629   */\n      jump(tag_254)\n    tag_256:\n        /* \"#utility.yul\":7204:7218   */\n      pop\n        /* \"#utility.yul\":7645:7649   */\n      dup3\n        /* \"#utility.yul\":7638:7649   */\n      swap8\n      pop\n        /* \"#utility.yul\":7665:7668   */\n      dup8\n        /* \"#utility.yul\":7658:7668   */\n      swap6\n      pop\n        /* \"#utility.yul\":6761:7674   */\n      pop\n      pop\n      pop\n      pop\n      pop\n        /* \"#utility.yul\":6595:7674   */\n      swap3\n      swap2\n      pop\n      pop\n      jump\t// out\n        /* \"#utility.yul\":7680:8137   */\n    tag_23:\n        /* \"#utility.yul\":7865:7869   */\n      0x00\n        /* \"#utility.yul\":7903:7905   */\n      0x20\n        /* \"#utility.yul\":7892:7901   */\n      dup3\n        /* \"#utility.yul\":7888:7906   */\n      add\n        /* \"#utility.yul\":7880:7906   */\n      swap1\n      pop\n        /* \"#utility.yul\":7952:7961   */\n      dup2\n        /* \"#utility.yul\":7946:7950   */\n      dup2\n        /* \"#utility.yul\":7942:7962   */\n      sub\n        /* \"#utility.yul\":7938:7939   */\n      0x00\n        /* \"#utility.yul\":7927:7936   */\n      dup4\n        /* \"#utility.yul\":7923:7940   */\n      add\n        /* \"#utility.yul\":7916:7963   */\n      mstore\n        /* \"#utility.yul\":7980:8130   */\n      tag_260\n        /* \"#utility.yul\":8125:8129   */\n      dup2\n        /* \"#utility.yul\":8116:8122   */\n      dup5\n        /* \"#utility.yul\":7980:8130   */\n      tag_144\n      jump\t// in\n    tag_260:\n        /* \"#utility.yul\":7972:8130   */\n      swap1\n      pop\n        /* \"#utility.yul\":7680:8137   */\n      swap3\n      swap2\n      pop\n      pop\n      jump\t// out\n        /* \"#utility.yul\":8143:8232   */\n    tag_145:\n        /* \"#utility.yul\":8179:8186   */\n      0x00\n        /* \"#utility.yul\":8219:8225   */\n      0xffff\n        /* \"#utility.yul\":8212:8217   */\n      dup3\n        /* \"#utility.yul\":8208:8226   */\n      and\n        /* \"#utility.yul\":8197:8226   */\n      swap1\n      pop\n        /* \"#utility.yul\":8143:8232   */\n      swap2\n      swap1\n      pop\n      jump\t// out\n        /* \"#utility.yul\":8238:8358   */\n    tag_146:\n        /* \"#utility.yul\":8310:8333   */\n      tag_263\n        /* \"#utility.yul\":8327:8332   */\n      dup2\n        /* \"#utility.yul\":8310:8333   */\n      tag_145\n      jump\t// in\n    tag_263:\n        /* \"#utility.yul\":8303:8308   */\n      dup2\n        /* \"#utility.yul\":8300:8334   */\n      eq\n        /* \"#utility.yul\":8290:8352   */\n      tag_264\n      jumpi\n        /* \"#utility.yul\":8348:8349   */\n      0x00\n        /* \"#utility.yul\":8345:8346   */\n      dup1\n        /* \"#utility.yul\":8338:8350   */\n      revert\n        /* \"#utility.yul\":8290:8352   */\n    tag_264:\n        /* \"#utility.yul\":8238:8358   */\n      pop\n      jump\t// out\n        /* \"#utility.yul\":8364:8501   */\n    tag_147:\n        /* \"#utility.yul\":8409:8414   */\n      0x00\n        /* \"#utility.yul\":8447:8453   */\n      dup2\n        /* \"#utility.yul\":8434:8454   */\n      calldataload\n        /* \"#utility.yul\":8425:8454   */\n      swap1\n      pop\n        /* \"#utility.yul\":8463:8495   */\n      tag_266\n        /* \"#utility.yul\":8489:8494   */\n      dup2\n        /* \"#utility.yul\":8463:8495   */\n      tag_146\n      jump\t// in\n    tag_266:\n        /* \"#utility.yul\":8364:8501   */\n      swap3\n      swap2\n      pop\n      pop\n      jump\t// out\n        /* \"#utility.yul\":8507:8834   */\n    tag_26:\n        /* \"#utility.yul\":8565:8571   */\n      0x00\n        /* \"#utility.yul\":8614:8616   */\n      0x20\n        /* \"#utility.yul\":8602:8611   */\n      dup3\n        /* \"#utility.yul\":8593:8600   */\n      dup5\n        /* \"#utility.yul\":8589:8612   */\n      sub\n        /* \"#utility.yul\":8585:8617   */\n      slt\n        /* \"#utility.yul\":8582:8701   */\n      iszero\n      tag_268\n      jumpi\n        /* \"#utility.yul\":8620:8699   */\n      tag_269\n      tag_118\n      jump\t// in\n    tag_269:\n        /* \"#utility.yul\":8582:8701   */\n    tag_268:\n        /* \"#utility.yul\":8740:8741   */\n      0x00\n        /* \"#utility.yul\":8765:8817   */\n      tag_270\n        /* \"#utility.yul\":8809:8816   */\n      dup5\n        /* \"#utility.yul\":8800:8806   */\n      dup3\n        /* \"#utility.yul\":8789:8798   */\n      dup6\n        /* \"#utility.yul\":8785:8807   */\n      add\n        /* \"#utility.yul\":8765:8817   */\n      tag_147\n      jump\t// in\n    tag_270:\n        /* \"#utility.yul\":8755:8817   */\n      swap2\n      pop\n        /* \"#utility.yul\":8711:8827   */\n      pop\n        /* \"#utility.yul\":8507:8834   */\n      swap3\n      swap2\n      pop\n      pop\n      jump\t// out\n        /* \"#utility.yul\":8840:8955   */\n    tag_148:\n        /* \"#utility.yul\":8925:8948   */\n      tag_272\n        /* \"#utility.yul\":8942:8947   */\n      dup2\n        /* \"#utility.yul\":8925:8948   */\n      tag_145\n      jump\t// in\n    tag_272:\n        /* \"#utility.yul\":8920:8923   */\n      dup3\n        /* \"#utility.yul\":8913:8949   */\n      mstore\n        /* \"#utility.yul\":8840:8955   */\n      pop\n      pop\n      jump\t// out\n        /* \"#utility.yul\":8961:9179   */\n    tag_31:\n        /* \"#utility.yul\":9052:9056   */\n      0x00\n        /* \"#utility.yul\":9090:9092   */\n      0x20\n        /* \"#utility.yul\":9079:9088   */\n      dup3\n        /* \"#utility.yul\":9075:9093   */\n      add\n        /* \"#utility.yul\":9067:9093   */\n      swap1\n      pop\n        /* \"#utility.yul\":9103:9172   */\n      tag_274\n        /* \"#utility.yul\":9169:9170   */\n      0x00\n        /* \"#utility.yul\":9158:9167   */\n      dup4\n        /* \"#utility.yul\":9154:9171   */\n      add\n        /* \"#utility.yul\":9145:9151   */\n      dup5\n        /* \"#utility.yul\":9103:9172   */\n      tag_148\n      jump\t// in\n    tag_274:\n        /* \"#utility.yul\":8961:9179   */\n      swap3\n      swap2\n      pop\n      pop\n      jump\t// out\n        /* \"#utility.yul\":9185:9302   */\n    tag_149:\n        /* \"#utility.yul\":9294:9295   */\n      0x00\n        /* \"#utility.yul\":9291:9292   */\n      dup1\n        /* \"#utility.yul\":9284:9296   */\n      revert\n        /* \"#utility.yul\":9308:9425   */\n    tag_150:\n        /* \"#utility.yul\":9417:9418   */\n      0x00\n        /* \"#utility.yul\":9414:9415   */\n      dup1\n        /* \"#utility.yul\":9407:9419   */\n      revert\n        /* \"#utility.yul\":9431:9611   */\n    tag_68:\n        /* \"#utility.yul\":9479:9556   */\n      0x4e487b7100000000000000000000000000000000000000000000000000000000\n        /* \"#utility.yul\":9476:9477   */\n      0x00\n        /* \"#utility.yul\":9469:9557   */\n      mstore\n        /* \"#utility.yul\":9576:9580   */\n      0x41\n        /* \"#utility.yul\":9573:9574   */\n      0x04\n        /* \"#utility.yul\":9566:9581   */\n      mstore\n        /* \"#utility.yul\":9600:9604   */\n      0x24\n        /* \"#utility.yul\":9597:9598   */\n      0x00\n        /* \"#utility.yul\":9590:9605   */\n      revert\n        /* \"#utility.yul\":9617:9898   */\n    tag_151:\n        /* \"#utility.yul\":9700:9727   */\n      tag_279\n        /* \"#utility.yul\":9722:9726   */\n      dup3\n        /* \"#utility.yul\":9700:9727   */\n      tag_132\n      jump\t// in\n    tag_279:\n        /* \"#utility.yul\":9692:9698   */\n      dup2\n        /* \"#utility.yul\":9688:9728   */\n      add\n        /* \"#utility.yul\":9830:9836   */\n      dup2\n        /* \"#utility.yul\":9818:9828   */\n      dup2\n        /* \"#utility.yul\":9815:9837   */\n      lt\n        /* \"#utility.yul\":9794:9812   */\n      0xffffffffffffffff\n        /* \"#utility.yul\":9782:9792   */\n      dup3\n        /* \"#utility.yul\":9779:9813   */\n      gt\n        /* \"#utility.yul\":9776:9838   */\n      or\n        /* \"#utility.yul\":9773:9861   */\n      iszero\n      tag_280\n      jumpi\n        /* \"#utility.yul\":9841:9859   */\n      tag_281\n      tag_68\n      jump\t// in\n    tag_281:\n        /* \"#utility.yul\":9773:9861   */\n    tag_280:\n        /* \"#utility.yul\":9881:9891   */\n      dup1\n        /* \"#utility.yul\":9877:9879   */\n      0x40\n        /* \"#utility.yul\":9870:9892   */\n      mstore\n        /* \"#utility.yul\":9660:9898   */\n      pop\n        /* \"#utility.yul\":9617:9898   */\n      pop\n      pop\n      jump\t// out\n        /* \"#utility.yul\":9904:10033   */\n    tag_152:\n        /* \"#utility.yul\":9938:9944   */\n      0x00\n        /* \"#utility.yul\":9965:9985   */\n      tag_283\n      tag_117\n      jump\t// in\n    tag_283:\n        /* \"#utility.yul\":9955:9985   */\n      swap1\n      pop\n        /* \"#utility.yul\":9994:10027   */\n      tag_284\n        /* \"#utility.yul\":10022:10026   */\n      dup3\n        /* \"#utility.yul\":10014:10020   */\n      dup3\n        /* \"#utility.yul\":9994:10027   */\n      tag_151\n      jump\t// in\n    tag_284:\n        /* \"#utility.yul\":9904:10033   */\n      swap2\n      swap1\n      pop\n      jump\t// out\n        /* \"#utility.yul\":10039:10347   */\n    tag_153:\n        /* \"#utility.yul\":10101:10105   */\n      0x00\n        /* \"#utility.yul\":10191:10209   */\n      0xffffffffffffffff\n        /* \"#utility.yul\":10183:10189   */\n      dup3\n        /* \"#utility.yul\":10180:10210   */\n      gt\n        /* \"#utility.yul\":10177:10233   */\n      iszero\n      tag_286\n      jumpi\n        /* \"#utility.yul\":10213:10231   */\n      tag_287\n      tag_68\n      jump\t// in\n    tag_287:\n        /* \"#utility.yul\":10177:10233   */\n    tag_286:\n        /* \"#utility.yul\":10251:10280   */\n      tag_288\n        /* \"#utility.yul\":10273:10279   */\n      dup3\n        /* \"#utility.yul\":10251:10280   */\n      tag_132\n      jump\t// in\n    tag_288:\n        /* \"#utility.yul\":10243:10280   */\n      swap1\n      pop\n        /* \"#utility.yul\":10335:10339   */\n      0x20\n        /* \"#utility.yul\":10329:10333   */\n      dup2\n        /* \"#utility.yul\":10325:10340   */\n      add\n        /* \"#utility.yul\":10317:10340   */\n      swap1\n      pop\n        /* \"#utility.yul\":10039:10347   */\n      swap2\n      swap1\n      pop\n      jump\t// out\n        /* \"#utility.yul\":10353:10499   */\n    tag_154:\n        /* \"#utility.yul\":10450:10456   */\n      dup3\n        /* \"#utility.yul\":10445:10448   */\n      dup2\n        /* \"#utility.yul\":10440:10443   */\n      dup4\n        /* \"#utility.yul\":10427:10457   */\n      calldatacopy\n        /* \"#utility.yul\":10491:10492   */\n      0x00\n        /* \"#utility.yul\":10482:10488   */\n      dup4\n        /* \"#utility.yul\":10477:10480   */\n      dup4\n        /* \"#utility.yul\":10473:10489   */\n      add\n        /* \"#utility.yul\":10466:10493   */\n      mstore\n        /* \"#utility.yul\":10353:10499   */\n      pop\n      pop\n      pop\n      jump\t// out\n        /* \"#utility.yul\":10505:10930   */\n    tag_155:\n        /* \"#utility.yul\":10583:10588   */\n      0x00\n        /* \"#utility.yul\":10608:10674   */\n      tag_291\n        /* \"#utility.yul\":10624:10673   */\n      tag_292\n        /* \"#utility.yul\":10666:10672   */\n      dup5\n        /* \"#utility.yul\":10624:10673   */\n      tag_153\n      jump\t// in\n    tag_292:\n        /* \"#utility.yul\":10608:10674   */\n      tag_152\n      jump\t// in\n    tag_291:\n        /* \"#utility.yul\":10599:10674   */\n      swap1\n      pop\n        /* \"#utility.yul\":10697:10703   */\n      dup3\n        /* \"#utility.yul\":10690:10695   */\n      dup2\n        /* \"#utility.yul\":10683:10704   */\n      mstore\n        /* \"#utility.yul\":10735:10739   */\n      0x20\n        /* \"#utility.yul\":10728:10733   */\n      dup2\n        /* \"#utility.yul\":10724:10740   */\n      add\n        /* \"#utility.yul\":10773:10776   */\n      dup5\n        /* \"#utility.yul\":10764:10770   */\n      dup5\n        /* \"#utility.yul\":10759:10762   */\n      dup5\n        /* \"#utility.yul\":10755:10771   */\n      add\n        /* \"#utility.yul\":10752:10777   */\n      gt\n        /* \"#utility.yul\":10749:10861   */\n      iszero\n      tag_293\n      jumpi\n        /* \"#utility.yul\":10780:10859   */\n      tag_294\n      tag_150\n      jump\t// in\n    tag_294:\n        /* \"#utility.yul\":10749:10861   */\n    tag_293:\n        /* \"#utility.yul\":10870:10924   */\n      tag_295\n        /* \"#utility.yul\":10917:10923   */\n      dup5\n        /* \"#utility.yul\":10912:10915   */\n      dup3\n        /* \"#utility.yul\":10907:10910   */\n      dup6\n        /* \"#utility.yul\":10870:10924   */\n      tag_154\n      jump\t// in\n    tag_295:\n        /* \"#utility.yul\":10589:10930   */\n      pop\n        /* \"#utility.yul\":10505:10930   */\n      swap4\n      swap3\n      pop\n      pop\n      pop\n      jump\t// out\n        /* \"#utility.yul\":10950:11290   */\n    tag_156:\n        /* \"#utility.yul\":11006:11011   */\n      0x00\n        /* \"#utility.yul\":11055:11058   */\n      dup3\n        /* \"#utility.yul\":11048:11052   */\n      0x1f\n        /* \"#utility.yul\":11040:11046   */\n      dup4\n        /* \"#utility.yul\":11036:11053   */\n      add\n        /* \"#utility.yul\":11032:11059   */\n      slt\n        /* \"#utility.yul\":11022:11144   */\n      tag_297\n      jumpi\n        /* \"#utility.yul\":11063:11142   */\n      tag_298\n      tag_149\n      jump\t// in\n    tag_298:\n        /* \"#utility.yul\":11022:11144   */\n    tag_297:\n        /* \"#utility.yul\":11180:11186   */\n      dup2\n        /* \"#utility.yul\":11167:11187   */\n      calldataload\n        /* \"#utility.yul\":11205:11284   */\n      tag_299\n        /* \"#utility.yul\":11280:11283   */\n      dup5\n        /* \"#utility.yul\":11272:11278   */\n      dup3\n        /* \"#utility.yul\":11265:11269   */\n      0x20\n        /* \"#utility.yul\":11257:11263   */\n      dup7\n        /* \"#utility.yul\":11253:11270   */\n      add\n        /* \"#utility.yul\":11205:11284   */\n      tag_155\n      jump\t// in\n    tag_299:\n        /* \"#utility.yul\":11196:11284   */\n      swap2\n      pop\n        /* \"#utility.yul\":11012:11290   */\n      pop\n        /* \"#utility.yul\":10950:11290   */\n      swap3\n      swap2\n      pop\n      pop\n      jump\t// out\n        /* \"#utility.yul\":11296:11805   */\n    tag_34:\n        /* \"#utility.yul\":11365:11371   */\n      0x00\n        /* \"#utility.yul\":11414:11416   */\n      0x20\n        /* \"#utility.yul\":11402:11411   */\n      dup3\n        /* \"#utility.yul\":11393:11400   */\n      dup5\n        /* \"#utility.yul\":11389:11412   */\n      sub\n        /* \"#utility.yul\":11385:11417   */\n      slt\n        /* \"#utility.yul\":11382:11501   */\n      iszero\n      tag_301\n      jumpi\n        /* \"#utility.yul\":11420:11499   */\n      tag_302\n      tag_118\n      jump\t// in\n    tag_302:\n        /* \"#utility.yul\":11382:11501   */\n    tag_301:\n        /* \"#utility.yul\":11568:11569   */\n      0x00\n        /* \"#utility.yul\":11557:11566   */\n      dup3\n        /* \"#utility.yul\":11553:11570   */\n      add\n        /* \"#utility.yul\":11540:11571   */\n      calldataload\n        /* \"#utility.yul\":11598:11616   */\n      0xffffffffffffffff\n        /* \"#utility.yul\":11590:11596   */\n      dup2\n        /* \"#utility.yul\":11587:11617   */\n      gt\n        /* \"#utility.yul\":11584:11701   */\n      iszero\n      tag_303\n      jumpi\n        /* \"#utility.yul\":11620:11699   */\n      tag_304\n      tag_119\n      jump\t// in\n    tag_304:\n        /* \"#utility.yul\":11584:11701   */\n    tag_303:\n        /* \"#utility.yul\":11725:11788   */\n      tag_305\n        /* \"#utility.yul\":11780:11787   */\n      dup5\n        /* \"#utility.yul\":11771:11777   */\n      dup3\n        /* \"#utility.yul\":11760:11769   */\n      dup6\n        /* \"#utility.yul\":11756:11778   */\n      add\n        /* \"#utility.yul\":11725:11788   */\n      tag_156\n      jump\t// in\n    tag_305:\n        /* \"#utility.yul\":11715:11788   */\n      swap2\n      pop\n        /* \"#utility.yul\":11511:11798   */\n      pop\n        /* \"#utility.yul\":11296:11805   */\n      swap3\n      swap2\n      pop\n      pop\n      jump\t// out\n        /* \"#utility.yul\":11811:12033   */\n    tag_39:\n        /* \"#utility.yul\":11904:11908   */\n      0x00\n        /* \"#utility.yul\":11942:11944   */\n      0x20\n        /* \"#utility.yul\":11931:11940   */\n      dup3\n        /* \"#utility.yul\":11927:11945   */\n      add\n        /* \"#utility.yul\":11919:11945   */\n      swap1\n      pop\n        /* \"#utility.yul\":11955:12026   */\n      tag_307\n        /* \"#utility.yul\":12023:12024   */\n      0x00\n        /* \"#utility.yul\":12012:12021   */\n      dup4\n        /* \"#utility.yul\":12008:12025   */\n      add\n        /* \"#utility.yul\":11999:12005   */\n      dup5\n        /* \"#utility.yul\":11955:12026   */\n      tag_128\n      jump\t// in\n    tag_307:\n        /* \"#utility.yul\":11811:12033   */\n      swap3\n      swap2\n      pop\n      pop\n      jump\t// out\n        /* \"#utility.yul\":12039:12513   */\n    tag_42:\n        /* \"#utility.yul\":12107:12113   */\n      0x00\n        /* \"#utility.yul\":12115:12121   */\n      dup1\n        /* \"#utility.yul\":12164:12166   */\n      0x40\n        /* \"#utility.yul\":12152:12161   */\n      dup4\n        /* \"#utility.yul\":12143:12150   */\n      dup6\n        /* \"#utility.yul\":12139:12162   */\n      sub\n        /* \"#utility.yul\":12135:12167   */\n      slt\n        /* \"#utility.yul\":12132:12251   */\n      iszero\n      tag_309\n      jumpi\n        /* \"#utility.yul\":12170:12249   */\n      tag_310\n      tag_118\n      jump\t// in\n    tag_310:\n        /* \"#utility.yul\":12132:12251   */\n    tag_309:\n        /* \"#utility.yul\":12290:12291   */\n      0x00\n        /* \"#utility.yul\":12315:12368   */\n      tag_311\n        /* \"#utility.yul\":12360:12367   */\n      dup6\n        /* \"#utility.yul\":12351:12357   */\n      dup3\n        /* \"#utility.yul\":12340:12349   */\n      dup7\n        /* \"#utility.yul\":12336:12358   */\n      add\n        /* \"#utility.yul\":12315:12368   */\n      tag_126\n      jump\t// in\n    tag_311:\n        /* \"#utility.yul\":12305:12368   */\n      swap3\n      pop\n        /* \"#utility.yul\":12261:12378   */\n      pop\n        /* \"#utility.yul\":12417:12419   */\n      0x20\n        /* \"#utility.yul\":12443:12496   */\n      tag_312\n        /* \"#utility.yul\":12488:12495   */\n      dup6\n        /* \"#utility.yul\":12479:12485   */\n      dup3\n        /* \"#utility.yul\":12468:12477   */\n      dup7\n        /* \"#utility.yul\":12464:12486   */\n      add\n        /* \"#utility.yul\":12443:12496   */\n      tag_123\n      jump\t// in\n    tag_312:\n        /* \"#utility.yul\":12433:12496   */\n      swap2\n      pop\n        /* \"#utility.yul\":12388:12506   */\n      pop\n        /* \"#utility.yul\":12039:12513   */\n      swap3\n      pop\n      swap3\n      swap1\n      pop\n      jump\t// out\n        /* \"#utility.yul\":12519:12848   */\n    tag_46:\n        /* \"#utility.yul\":12578:12584   */\n      0x00\n        /* \"#utility.yul\":12627:12629   */\n      0x20\n        /* \"#utility.yul\":12615:12624   */\n      dup3\n        /* \"#utility.yul\":12606:12613   */\n      dup5\n        /* \"#utility.yul\":12602:12625   */\n      sub\n        /* \"#utility.yul\":12598:12630   */\n      slt\n        /* \"#utility.yul\":12595:12714   */\n      iszero\n      tag_314\n      jumpi\n        /* \"#utility.yul\":12633:12712   */\n      tag_315\n      tag_118\n      jump\t// in\n    tag_315:\n        /* \"#utility.yul\":12595:12714   */\n    tag_314:\n        /* \"#utility.yul\":12753:12754   */\n      0x00\n        /* \"#utility.yul\":12778:12831   */\n      tag_316\n        /* \"#utility.yul\":12823:12830   */\n      dup5\n        /* \"#utility.yul\":12814:12820   */\n      dup3\n        /* \"#utility.yul\":12803:12812   */\n      dup6\n        /* \"#utility.yul\":12799:12821   */\n      add\n        /* \"#utility.yul\":12778:12831   */\n      tag_126\n      jump\t// in\n    tag_316:\n        /* \"#utility.yul\":12768:12831   */\n      swap2\n      pop\n        /* \"#utility.yul\":12724:12841   */\n      pop\n        /* \"#utility.yul\":12519:12848   */\n      swap3\n      swap2\n      pop\n      pop\n      jump\t// out\n        /* \"#utility.yul\":12906:14035   */\n    tag_157:\n        /* \"#utility.yul\":13017:13020   */\n      0x00\n        /* \"#utility.yul\":13053:13057   */\n      0xa0\n        /* \"#utility.yul\":13048:13051   */\n      dup4\n        /* \"#utility.yul\":13044:13058   */\n      add\n        /* \"#utility.yul\":13138:13142   */\n      0x00\n        /* \"#utility.yul\":13131:13136   */\n      dup4\n        /* \"#utility.yul\":13127:13143   */\n      add\n        /* \"#utility.yul\":13121:13144   */\n      mload\n        /* \"#utility.yul\":13157:13220   */\n      tag_318\n        /* \"#utility.yul\":13214:13218   */\n      0x00\n        /* \"#utility.yul\":13209:13212   */\n      dup7\n        /* \"#utility.yul\":13205:13219   */\n      add\n        /* \"#utility.yul\":13191:13203   */\n      dup3\n        /* \"#utility.yul\":13157:13220   */\n      tag_137\n      jump\t// in\n    tag_318:\n        /* \"#utility.yul\":13068:13230   */\n      pop\n        /* \"#utility.yul\":13314:13318   */\n      0x20\n        /* \"#utility.yul\":13307:13312   */\n      dup4\n        /* \"#utility.yul\":13303:13319   */\n      add\n        /* \"#utility.yul\":13297:13320   */\n      mload\n        /* \"#utility.yul\":13333:13396   */\n      tag_319\n        /* \"#utility.yul\":13390:13394   */\n      0x20\n        /* \"#utility.yul\":13385:13388   */\n      dup7\n        /* \"#utility.yul\":13381:13395   */\n      add\n        /* \"#utility.yul\":13367:13379   */\n      dup3\n        /* \"#utility.yul\":13333:13396   */\n      tag_138\n      jump\t// in\n    tag_319:\n        /* \"#utility.yul\":13240:13406   */\n      pop\n        /* \"#utility.yul\":13491:13495   */\n      0x40\n        /* \"#utility.yul\":13484:13489   */\n      dup4\n        /* \"#utility.yul\":13480:13496   */\n      add\n        /* \"#utility.yul\":13474:13497   */\n      mload\n        /* \"#utility.yul\":13544:13547   */\n      dup5\n        /* \"#utility.yul\":13538:13542   */\n      dup3\n        /* \"#utility.yul\":13534:13548   */\n      sub\n        /* \"#utility.yul\":13527:13531   */\n      0x40\n        /* \"#utility.yul\":13522:13525   */\n      dup7\n        /* \"#utility.yul\":13518:13532   */\n      add\n        /* \"#utility.yul\":13511:13549   */\n      mstore\n        /* \"#utility.yul\":13570:13643   */\n      tag_320\n        /* \"#utility.yul\":13638:13642   */\n      dup3\n        /* \"#utility.yul\":13624:13636   */\n      dup3\n        /* \"#utility.yul\":13570:13643   */\n      tag_140\n      jump\t// in\n    tag_320:\n        /* \"#utility.yul\":13562:13643   */\n      swap2\n      pop\n        /* \"#utility.yul\":13416:13654   */\n      pop\n        /* \"#utility.yul\":13741:13745   */\n      0x60\n        /* \"#utility.yul\":13734:13739   */\n      dup4\n        /* \"#utility.yul\":13730:13746   */\n      add\n        /* \"#utility.yul\":13724:13747   */\n      mload\n        /* \"#utility.yul\":13760:13823   */\n      tag_321\n        /* \"#utility.yul\":13817:13821   */\n      0x60\n        /* \"#utility.yul\":13812:13815   */\n      dup7\n        /* \"#utility.yul\":13808:13822   */\n      add\n        /* \"#utility.yul\":13794:13806   */\n      dup3\n        /* \"#utility.yul\":13760:13823   */\n      tag_137\n      jump\t// in\n    tag_321:\n        /* \"#utility.yul\":13664:13833   */\n      pop\n        /* \"#utility.yul\":13916:13920   */\n      0x80\n        /* \"#utility.yul\":13909:13914   */\n      dup4\n        /* \"#utility.yul\":13905:13921   */\n      add\n        /* \"#utility.yul\":13899:13922   */\n      mload\n        /* \"#utility.yul\":13935:13998   */\n      tag_322\n        /* \"#utility.yul\":13992:13996   */\n      0x80\n        /* \"#utility.yul\":13987:13990   */\n      dup7\n        /* \"#utility.yul\":13983:13997   */\n      add\n        /* \"#utility.yul\":13969:13981   */\n      dup3\n        /* \"#utility.yul\":13935:13998   */\n      tag_137\n      jump\t// in\n    tag_322:\n        /* \"#utility.yul\":13843:14008   */\n      pop\n        /* \"#utility.yul\":14025:14029   */\n      dup1\n        /* \"#utility.yul\":14018:14029   */\n      swap2\n      pop\n        /* \"#utility.yul\":13022:14035   */\n      pop\n        /* \"#utility.yul\":12906:14035   */\n      swap3\n      swap2\n      pop\n      pop\n      jump\t// out\n        /* \"#utility.yul\":14041:14398   */\n    tag_49:\n        /* \"#utility.yul\":14176:14180   */\n      0x00\n        /* \"#utility.yul\":14214:14216   */\n      0x20\n        /* \"#utility.yul\":14203:14212   */\n      dup3\n        /* \"#utility.yul\":14199:14217   */\n      add\n        /* \"#utility.yul\":14191:14217   */\n      swap1\n      pop\n        /* \"#utility.yul\":14263:14272   */\n      dup2\n        /* \"#utility.yul\":14257:14261   */\n      dup2\n        /* \"#utility.yul\":14253:14273   */\n      sub\n        /* \"#utility.yul\":14249:14250   */\n      0x00\n        /* \"#utility.yul\":14238:14247   */\n      dup4\n        /* \"#utility.yul\":14234:14251   */\n      add\n        /* \"#utility.yul\":14227:14274   */\n      mstore\n        /* \"#utility.yul\":14291:14391   */\n      tag_324\n        /* \"#utility.yul\":14386:14390   */\n      dup2\n        /* \"#utility.yul\":14377:14383   */\n      dup5\n        /* \"#utility.yul\":14291:14391   */\n      tag_157\n      jump\t// in\n    tag_324:\n        /* \"#utility.yul\":14283:14391   */\n      swap1\n      pop\n        /* \"#utility.yul\":14041:14398   */\n      swap3\n      swap2\n      pop\n      pop\n      jump\t// out\n        /* \"#utility.yul\":14404:14733   */\n    tag_52:\n        /* \"#utility.yul\":14463:14469   */\n      0x00\n        /* \"#utility.yul\":14512:14514   */\n      0x20\n        /* \"#utility.yul\":14500:14509   */\n      dup3\n        /* \"#utility.yul\":14491:14498   */\n      dup5\n        /* \"#utility.yul\":14487:14510   */\n      sub\n        /* \"#utility.yul\":14483:14515   */\n      slt\n        /* \"#utility.yul\":14480:14599   */\n      iszero\n      tag_326\n      jumpi\n        /* \"#utility.yul\":14518:14597   */\n      tag_327\n      tag_118\n      jump\t// in\n    tag_327:\n        /* \"#utility.yul\":14480:14599   */\n    tag_326:\n        /* \"#utility.yul\":14638:14639   */\n      0x00\n        /* \"#utility.yul\":14663:14716   */\n      tag_328\n        /* \"#utility.yul\":14708:14715   */\n      dup5\n        /* \"#utility.yul\":14699:14705   */\n      dup3\n        /* \"#utility.yul\":14688:14697   */\n      dup6\n        /* \"#utility.yul\":14684:14706   */\n      add\n        /* \"#utility.yul\":14663:14716   */\n      tag_123\n      jump\t// in\n    tag_328:\n        /* \"#utility.yul\":14653:14716   */\n      swap2\n      pop\n        /* \"#utility.yul\":14609:14726   */\n      pop\n        /* \"#utility.yul\":14404:14733   */\n      swap3\n      swap2\n      pop\n      pop\n      jump\t// out\n        /* \"#utility.yul\":14739:14961   */\n    tag_55:\n        /* \"#utility.yul\":14832:14836   */\n      0x00\n        /* \"#utility.yul\":14870:14872   */\n      0x20\n        /* \"#utility.yul\":14859:14868   */\n      dup3\n        /* \"#utility.yul\":14855:14873   */\n      add\n        /* \"#utility.yul\":14847:14873   */\n      swap1\n      pop\n        /* \"#utility.yul\":14883:14954   */\n      tag_330\n        /* \"#utility.yul\":14951:14952   */\n      0x00\n        /* \"#utility.yul\":14940:14949   */\n      dup4\n        /* \"#utility.yul\":14936:14953   */\n      add\n        /* \"#utility.yul\":14927:14933   */\n      dup5\n        /* \"#utility.yul\":14883:14954   */\n      tag_127\n      jump\t// in\n    tag_330:\n        /* \"#utility.yul\":14739:14961   */\n      swap3\n      swap2\n      pop\n      pop\n      jump\t// out\n        /* \"#utility.yul\":14967:15147   */\n    tag_158:\n        /* \"#utility.yul\":15015:15092   */\n      0x4e487b7100000000000000000000000000000000000000000000000000000000\n        /* \"#utility.yul\":15012:15013   */\n      0x00\n        /* \"#utility.yul\":15005:15093   */\n      mstore\n        /* \"#utility.yul\":15112:15116   */\n      0x22\n        /* \"#utility.yul\":15109:15110   */\n      0x04\n        /* \"#utility.yul\":15102:15117   */\n      mstore\n        /* \"#utility.yul\":15136:15140   */\n      0x24\n        /* \"#utility.yul\":15133:15134   */\n      0x00\n        /* \"#utility.yul\":15126:15141   */\n      revert\n        /* \"#utility.yul\":15153:15473   */\n    tag_60:\n        /* \"#utility.yul\":15197:15203   */\n      0x00\n        /* \"#utility.yul\":15234:15235   */\n      0x02\n        /* \"#utility.yul\":15228:15232   */\n      dup3\n        /* \"#utility.yul\":15224:15236   */\n      div\n        /* \"#utility.yul\":15214:15236   */\n      swap1\n      pop\n        /* \"#utility.yul\":15281:15282   */\n      0x01\n        /* \"#utility.yul\":15275:15279   */\n      dup3\n        /* \"#utility.yul\":15271:15283   */\n      and\n        /* \"#utility.yul\":15302:15320   */\n      dup1\n        /* \"#utility.yul\":15292:15373   */\n      tag_333\n      jumpi\n        /* \"#utility.yul\":15358:15362   */\n      0x7f\n        /* \"#utility.yul\":15350:15356   */\n      dup3\n        /* \"#utility.yul\":15346:15363   */\n      and\n        /* \"#utility.yul\":15336:15363   */\n      swap2\n      pop\n        /* \"#utility.yul\":15292:15373   */\n    tag_333:\n        /* \"#utility.yul\":15420:15422   */\n      0x20\n        /* \"#utility.yul\":15412:15418   */\n      dup3\n        /* \"#utility.yul\":15409:15423   */\n      lt\n        /* \"#utility.yul\":15389:15407   */\n      dup2\n        /* \"#utility.yul\":15386:15424   */\n      sub\n        /* \"#utility.yul\":15383:15467   */\n      tag_334\n      jumpi\n        /* \"#utility.yul\":15439:15457   */\n      tag_335\n      tag_158\n      jump\t// in\n    tag_335:\n        /* \"#utility.yul\":15383:15467   */\n    tag_334:\n        /* \"#utility.yul\":15204:15473   */\n      pop\n        /* \"#utility.yul\":15153:15473   */\n      swap2\n      swap1\n      pop\n      jump\t// out\n        /* \"#utility.yul\":15479:15659   */\n    tag_83:\n        /* \"#utility.yul\":15527:15604   */\n      0x4e487b7100000000000000000000000000000000000000000000000000000000\n        /* \"#utility.yul\":15524:15525   */\n      0x00\n        /* \"#utility.yul\":15517:15605   */\n      mstore\n        /* \"#utility.yul\":15624:15628   */\n      0x32\n        /* \"#utility.yul\":15621:15622   */\n      0x04\n        /* \"#utility.yul\":15614:15629   */\n      mstore\n        /* \"#utility.yul\":15648:15652   */\n      0x24\n        /* \"#utility.yul\":15645:15646   */\n      0x00\n        /* \"#utility.yul\":15638:15653   */\n      revert\n        /* \"#utility.yul\":15665:15890   */\n    tag_159:\n        /* \"#utility.yul\":15805:15839   */\n      0x4f6e6c79206f776e65722063616e206368616e67652074686520747765657420\n        /* \"#utility.yul\":15801:15802   */\n      0x00\n        /* \"#utility.yul\":15793:15799   */\n      dup3\n        /* \"#utility.yul\":15789:15803   */\n      add\n        /* \"#utility.yul\":15782:15840   */\n      mstore\n        /* \"#utility.yul\":15874:15882   */\n      0x6c656e6774680000000000000000000000000000000000000000000000000000\n        /* \"#utility.yul\":15869:15871   */\n      0x20\n        /* \"#utility.yul\":15861:15867   */\n      dup3\n        /* \"#utility.yul\":15857:15872   */\n      add\n        /* \"#utility.yul\":15850:15883   */\n      mstore\n        /* \"#utility.yul\":15665:15890   */\n      pop\n      jump\t// out\n        /* \"#utility.yul\":15896:16262   */\n    tag_160:\n        /* \"#utility.yul\":16038:16041   */\n      0x00\n        /* \"#utility.yul\":16059:16126   */\n      tag_339\n        /* \"#utility.yul\":16123:16125   */\n      0x26\n        /* \"#utility.yul\":16118:16121   */\n      dup4\n        /* \"#utility.yul\":16059:16126   */\n      tag_130\n      jump\t// in\n    tag_339:\n        /* \"#utility.yul\":16052:16126   */\n      swap2\n      pop\n        /* \"#utility.yul\":16135:16228   */\n      tag_340\n        /* \"#utility.yul\":16224:16227   */\n      dup3\n        /* \"#utility.yul\":16135:16228   */\n      tag_159\n      jump\t// in\n    tag_340:\n        /* \"#utility.yul\":16253:16255   */\n      0x40\n        /* \"#utility.yul\":16248:16251   */\n      dup3\n        /* \"#utility.yul\":16244:16256   */\n      add\n        /* \"#utility.yul\":16237:16256   */\n      swap1\n      pop\n        /* \"#utility.yul\":15896:16262   */\n      swap2\n      swap1\n      pop\n      jump\t// out\n        /* \"#utility.yul\":16268:16687   */\n    tag_87:\n        /* \"#utility.yul\":16434:16438   */\n      0x00\n        /* \"#utility.yul\":16472:16474   */\n      0x20\n        /* \"#utility.yul\":16461:16470   */\n      dup3\n        /* \"#utility.yul\":16457:16475   */\n      add\n        /* \"#utility.yul\":16449:16475   */\n      swap1\n      pop\n        /* \"#utility.yul\":16521:16530   */\n      dup2\n        /* \"#utility.yul\":16515:16519   */\n      dup2\n        /* \"#utility.yul\":16511:16531   */\n      sub\n        /* \"#utility.yul\":16507:16508   */\n      0x00\n        /* \"#utility.yul\":16496:16505   */\n      dup4\n        /* \"#utility.yul\":16492:16509   */\n      add\n        /* \"#utility.yul\":16485:16532   */\n      mstore\n        /* \"#utility.yul\":16549:16680   */\n      tag_342\n        /* \"#utility.yul\":16675:16679   */\n      dup2\n        /* \"#utility.yul\":16549:16680   */\n      tag_160\n      jump\t// in\n    tag_342:\n        /* \"#utility.yul\":16541:16680   */\n      swap1\n      pop\n        /* \"#utility.yul\":16268:16687   */\n      swap2\n      swap1\n      pop\n      jump\t// out\n        /* \"#utility.yul\":16693:16867   */\n    tag_161:\n        /* \"#utility.yul\":16833:16859   */\n      0x547765657420636f6e74656e74206973206c656e677468790000000000000000\n        /* \"#utility.yul\":16829:16830   */\n      0x00\n        /* \"#utility.yul\":16821:16827   */\n      dup3\n        /* \"#utility.yul\":16817:16831   */\n      add\n        /* \"#utility.yul\":16810:16860   */\n      mstore\n        /* \"#utility.yul\":16693:16867   */\n      pop\n      jump\t// out\n        /* \"#utility.yul\":16873:17239   */\n    tag_162:\n        /* \"#utility.yul\":17015:17018   */\n      0x00\n        /* \"#utility.yul\":17036:17103   */\n      tag_345\n        /* \"#utility.yul\":17100:17102   */\n      0x18\n        /* \"#utility.yul\":17095:17098   */\n      dup4\n        /* \"#utility.yul\":17036:17103   */\n      tag_130\n      jump\t// in\n    tag_345:\n        /* \"#utility.yul\":17029:17103   */\n      swap2\n      pop\n        /* \"#utility.yul\":17112:17205   */\n      tag_346\n        /* \"#utility.yul\":17201:17204   */\n      dup3\n        /* \"#utility.yul\":17112:17205   */\n      tag_161\n      jump\t// in\n    tag_346:\n        /* \"#utility.yul\":17230:17232   */\n      0x20\n        /* \"#utility.yul\":17225:17228   */\n      dup3\n        /* \"#utility.yul\":17221:17233   */\n      add\n        /* \"#utility.yul\":17214:17233   */\n      swap1\n      pop\n        /* \"#utility.yul\":16873:17239   */\n      swap2\n      swap1\n      pop\n      jump\t// out\n        /* \"#utility.yul\":17245:17664   */\n    tag_92:\n        /* \"#utility.yul\":17411:17415   */\n      0x00\n        /* \"#utility.yul\":17449:17451   */\n      0x20\n        /* \"#utility.yul\":17438:17447   */\n      dup3\n        /* \"#utility.yul\":17434:17452   */\n      add\n        /* \"#utility.yul\":17426:17452   */\n      swap1\n      pop\n        /* \"#utility.yul\":17498:17507   */\n      dup2\n        /* \"#utility.yul\":17492:17496   */\n      dup2\n        /* \"#utility.yul\":17488:17508   */\n      sub\n        /* \"#utility.yul\":17484:17485   */\n      0x00\n        /* \"#utility.yul\":17473:17482   */\n      dup4\n        /* \"#utility.yul\":17469:17486   */\n      add\n        /* \"#utility.yul\":17462:17509   */\n      mstore\n        /* \"#utility.yul\":17526:17657   */\n      tag_348\n        /* \"#utility.yul\":17652:17656   */\n      dup2\n        /* \"#utility.yul\":17526:17657   */\n      tag_162\n      jump\t// in\n    tag_348:\n        /* \"#utility.yul\":17518:17657   */\n      swap1\n      pop\n        /* \"#utility.yul\":17245:17664   */\n      swap2\n      swap1\n      pop\n      jump\t// out\n        /* \"#utility.yul\":17670:17811   */\n    tag_163:\n        /* \"#utility.yul\":17719:17723   */\n      0x00\n        /* \"#utility.yul\":17742:17745   */\n      dup2\n        /* \"#utility.yul\":17734:17745   */\n      swap1\n      pop\n        /* \"#utility.yul\":17765:17768   */\n      dup2\n        /* \"#utility.yul\":17762:17763   */\n      0x00\n        /* \"#utility.yul\":17755:17769   */\n      mstore\n        /* \"#utility.yul\":17799:17803   */\n      0x20\n        /* \"#utility.yul\":17796:17797   */\n      0x00\n        /* \"#utility.yul\":17786:17804   */\n      keccak256\n        /* \"#utility.yul\":17778:17804   */\n      swap1\n      pop\n        /* \"#utility.yul\":17670:17811   */\n      swap2\n      swap1\n      pop\n      jump\t// out\n        /* \"#utility.yul\":17817:17910   */\n    tag_164:\n        /* \"#utility.yul\":17854:17860   */\n      0x00\n        /* \"#utility.yul\":17901:17903   */\n      0x20\n        /* \"#utility.yul\":17896:17898   */\n      0x1f\n        /* \"#utility.yul\":17889:17894   */\n      dup4\n        /* \"#utility.yul\":17885:17899   */\n      add\n        /* \"#utility.yul\":17881:17904   */\n      div\n        /* \"#utility.yul\":17871:17904   */\n      swap1\n      pop\n        /* \"#utility.yul\":17817:17910   */\n      swap2\n      swap1\n      pop\n      jump\t// out\n        /* \"#utility.yul\":17916:18023   */\n    tag_165:\n        /* \"#utility.yul\":17960:17968   */\n      0x00\n        /* \"#utility.yul\":18010:18015   */\n      dup3\n        /* \"#utility.yul\":18004:18008   */\n      dup3\n        /* \"#utility.yul\":18000:18016   */\n      shl\n        /* \"#utility.yul\":17979:18016   */\n      swap1\n      pop\n        /* \"#utility.yul\":17916:18023   */\n      swap3\n      swap2\n      pop\n      pop\n      jump\t// out\n        /* \"#utility.yul\":18029:18422   */\n    tag_166:\n        /* \"#utility.yul\":18098:18104   */\n      0x00\n        /* \"#utility.yul\":18148:18149   */\n      0x08\n        /* \"#utility.yul\":18136:18146   */\n      dup4\n        /* \"#utility.yul\":18132:18150   */\n      mul\n        /* \"#utility.yul\":18171:18268   */\n      tag_353\n        /* \"#utility.yul\":18201:18267   */\n      0xffffffffffffffffffffffffffffffffffffffffffffffffffffffffffffffff\n        /* \"#utility.yul\":18190:18199   */\n      dup3\n        /* \"#utility.yul\":18171:18268   */\n      tag_165\n      jump\t// in\n    tag_353:\n        /* \"#utility.yul\":18289:18328   */\n      tag_354\n        /* \"#utility.yul\":18319:18327   */\n      dup7\n        /* \"#utility.yul\":18308:18317   */\n      dup4\n        /* \"#utility.yul\":18289:18328   */\n      tag_165\n      jump\t// in\n    tag_354:\n        /* \"#utility.yul\":18277:18328   */\n      swap6\n      pop\n        /* \"#utility.yul\":18361:18365   */\n      dup1\n        /* \"#utility.yul\":18357:18366   */\n      not\n        /* \"#utility.yul\":18350:18355   */\n      dup5\n        /* \"#utility.yul\":18346:18367   */\n      and\n        /* \"#utility.yul\":18337:18367   */\n      swap4\n      pop\n        /* \"#utility.yul\":18410:18414   */\n      dup1\n        /* \"#utility.yul\":18400:18408   */\n      dup7\n        /* \"#utility.yul\":18396:18415   */\n      and\n        /* \"#utility.yul\":18389:18394   */\n      dup5\n        /* \"#utility.yul\":18386:18416   */\n      or\n        /* \"#utility.yul\":18376:18416   */\n      swap3\n      pop\n        /* \"#utility.yul\":18105:18422   */\n      pop\n      pop\n        /* \"#utility.yul\":18029:18422   */\n      swap4\n      swap3\n      pop\n      pop\n      pop\n      jump\t// out\n        /* \"#utility.yul\":18428:18488   */\n    tag_167:\n        /* \"#utility.yul\":18456:18459   */\n      0x00\n        /* \"#utility.yul\":18477:18482   */\n      dup2\n        /* \"#utility.yul\":18470:18482   */\n      swap1\n      pop\n        /* \"#utility.yul\":18428:18488   */\n      swap2\n      swap1\n      pop\n      jump\t// out\n        /* \"#utility.yul\":18494:18636   */\n    tag_168:\n        /* \"#utility.yul\":18544:18553   */\n      0x00\n        /* \"#utility.yul\":18577:18630   */\n      tag_357\n        /* \"#utility.yul\":18595:18629   */\n      tag_358\n        /* \"#utility.yul\":18604:18628   */\n      tag_359\n        /* \"#utility.yul\":18622:18627   */\n      dup5\n        /* \"#utility.yul\":18604:18628   */\n      tag_124\n      jump\t// in\n    tag_359:\n        /* \"#utility.yul\":18595:18629   */\n      tag_167\n      jump\t// in\n    tag_358:\n        /* \"#utility.yul\":18577:18630   */\n      tag_124\n      jump\t// in\n    tag_357:\n        /* \"#utility.yul\":18564:18630   */\n      swap1\n      pop\n        /* \"#utility.yul\":18494:18636   */\n      swap2\n      swap1\n      pop\n      jump\t// out\n        /* \"#utility.yul\":18642:18717   */\n    tag_169:\n        /* \"#utility.yul\":18685:18688   */\n      0x00\n        /* \"#utility.yul\":18706:18711   */\n      dup2\n        /* \"#utility.yul\":18699:18711   */\n      swap1\n      pop\n        /* \"#utility.yul\":18642:18717   */\n      swap2\n      swap1\n      pop\n      jump\t// out\n        /* \"#utility.yul\":18723:18992   */\n    tag_170:\n        /* \"#utility.yul\":18833:18872   */\n      tag_362\n        /* \"#utility.yul\":18864:18871   */\n      dup4\n        /* \"#utility.yul\":18833:18872   */\n      tag_168\n      jump\t// in\n    tag_362:\n        /* \"#utility.yul\":18894:18985   */\n      tag_363\n        /* \"#utility.yul\":18943:18984   */\n      tag_364\n        /* \"#utility.yul\":18967:18983   */\n      dup3\n        /* \"#utility.yul\":18943:18984   */\n      tag_169\n      jump\t// in\n    tag_364:\n        /* \"#utility.yul\":18935:18941   */\n      dup5\n        /* \"#utility.yul\":18928:18932   */\n      dup5\n        /* \"#utility.yul\":18922:18933   */\n      sload\n        /* \"#utility.yul\":18894:18985   */\n      tag_166\n      jump\t// in\n    tag_363:\n        /* \"#utility.yul\":18888:18892   */\n      dup3\n        /* \"#utility.yul\":18881:18986   */\n      sstore\n        /* \"#utility.yul\":18799:18992   */\n      pop\n        /* \"#utility.yul\":18723:18992   */\n      pop\n      pop\n      pop\n      jump\t// out\n        /* \"#utility.yul\":18998:19071   */\n    tag_171:\n        /* \"#utility.yul\":19043:19046   */\n      0x00\n        /* \"#utility.yul\":18998:19071   */\n      swap1\n      jump\t// out\n        /* \"#utility.yul\":19077:19266   */\n    tag_172:\n        /* \"#utility.yul\":19154:19186   */\n      tag_367\n      tag_171\n      jump\t// in\n    tag_367:\n        /* \"#utility.yul\":19195:19260   */\n      tag_368\n        /* \"#utility.yul\":19253:19259   */\n      dup2\n        /* \"#utility.yul\":19245:19251   */\n      dup5\n        /* \"#utility.yul\":19239:19243   */\n      dup5\n        /* \"#utility.yul\":19195:19260   */\n      tag_170\n      jump\t// in\n    tag_368:\n        /* \"#utility.yul\":19130:19266   */\n      pop\n        /* \"#utility.yul\":19077:19266   */\n      pop\n      pop\n      jump\t// out\n        /* \"#utility.yul\":19272:19458   */\n    tag_173:\n        /* \"#utility.yul\":19332:19452   */\n    tag_370:\n        /* \"#utility.yul\":19349:19352   */\n      dup2\n        /* \"#utility.yul\":19342:19347   */\n      dup2\n        /* \"#utility.yul\":19339:19353   */\n      lt\n        /* \"#utility.yul\":19332:19452   */\n      iszero\n      tag_372\n      jumpi\n        /* \"#utility.yul\":19403:19442   */\n      tag_373\n        /* \"#utility.yul\":19440:19441   */\n      0x00\n        /* \"#utility.yul\":19433:19438   */\n      dup3\n        /* \"#utility.yul\":19403:19442   */\n      tag_172\n      jump\t// in\n    tag_373:\n        /* \"#utility.yul\":19376:19377   */\n      0x01\n        /* \"#utility.yul\":19369:19374   */\n      dup2\n        /* \"#utility.yul\":19365:19378   */\n      add\n        /* \"#utility.yul\":19356:19378   */\n      swap1\n      pop\n        /* \"#utility.yul\":19332:19452   */\n      jump(tag_370)\n    tag_372:\n        /* \"#utility.yul\":19272:19458   */\n      pop\n      pop\n      jump\t// out\n        /* \"#utility.yul\":19464:20007   */\n    tag_174:\n        /* \"#utility.yul\":19565:19567   */\n      0x1f\n        /* \"#utility.yul\":19560:19563   */\n      dup3\n        /* \"#utility.yul\":19557:19568   */\n      gt\n        /* \"#utility.yul\":19554:20000   */\n      iszero\n      tag_375\n      jumpi\n        /* \"#utility.yul\":19599:19637   */\n      tag_376\n        /* \"#utility.yul\":19631:19636   */\n      dup2\n        /* \"#utility.yul\":19599:19637   */\n      tag_163\n      jump\t// in\n    tag_376:\n        /* \"#utility.yul\":19683:19712   */\n      tag_377\n        /* \"#utility.yul\":19701:19711   */\n      dup5\n        /* \"#utility.yul\":19683:19712   */\n      tag_164\n      jump\t// in\n    tag_377:\n        /* \"#utility.yul\":19673:19681   */\n      dup2\n        /* \"#utility.yul\":19669:19713   */\n      add\n        /* \"#utility.yul\":19866:19868   */\n      0x20\n        /* \"#utility.yul\":19854:19864   */\n      dup6\n        /* \"#utility.yul\":19851:19869   */\n      lt\n        /* \"#utility.yul\":19848:19897   */\n      iszero\n      tag_378\n      jumpi\n        /* \"#utility.yul\":19887:19895   */\n      dup2\n        /* \"#utility.yul\":19872:19895   */\n      swap1\n      pop\n        /* \"#utility.yul\":19848:19897   */\n    tag_378:\n        /* \"#utility.yul\":19910:19990   */\n      tag_379\n        /* \"#utility.yul\":19966:19988   */\n      tag_380\n        /* \"#utility.yul\":19984:19987   */\n      dup6\n        /* \"#utility.yul\":19966:19988   */\n      tag_164\n      jump\t// in\n    tag_380:\n        /* \"#utility.yul\":19956:19964   */\n      dup4\n        /* \"#utility.yul\":19952:19989   */\n      add\n        /* \"#utility.yul\":19939:19950   */\n      dup3\n        /* \"#utility.yul\":19910:19990   */\n      tag_173\n      jump\t// in\n    tag_379:\n        /* \"#utility.yul\":19569:20000   */\n      pop\n      pop\n        /* \"#utility.yul\":19554:20000   */\n    tag_375:\n        /* \"#utility.yul\":19464:20007   */\n      pop\n      pop\n      pop\n      jump\t// out\n        /* \"#utility.yul\":20013:20130   */\n    tag_175:\n        /* \"#utility.yul\":20067:20075   */\n      0x00\n        /* \"#utility.yul\":20117:20122   */\n      dup3\n        /* \"#utility.yul\":20111:20115   */\n      dup3\n        /* \"#utility.yul\":20107:20123   */\n      shr\n        /* \"#utility.yul\":20086:20123   */\n      swap1\n      pop\n        /* \"#utility.yul\":20013:20130   */\n      swap3\n      swap2\n      pop\n      pop\n      jump\t// out\n        /* \"#utility.yul\":20136:20305   */\n    tag_176:\n        /* \"#utility.yul\":20180:20186   */\n      0x00\n        /* \"#utility.yul\":20213:20264   */\n      tag_383\n        /* \"#utility.yul\":20261:20262   */\n      0x00\n        /* \"#utility.yul\":20257:20263   */\n      not\n        /* \"#utility.yul\":20249:20254   */\n      dup5\n        /* \"#utility.yul\":20246:20247   */\n      0x08\n        /* \"#utility.yul\":20242:20255   */\n      mul\n        /* \"#utility.yul\":20213:20264   */\n      tag_175\n      jump\t// in\n    tag_383:\n        /* \"#utility.yul\":20209:20265   */\n      not\n        /* \"#utility.yul\":20294:20298   */\n      dup1\n        /* \"#utility.yul\":20288:20292   */\n      dup4\n        /* \"#utility.yul\":20284:20299   */\n      and\n        /* \"#utility.yul\":20274:20299   */\n      swap2\n      pop\n        /* \"#utility.yul\":20187:20305   */\n      pop\n        /* \"#utility.yul\":20136:20305   */\n      swap3\n      swap2\n      pop\n      pop\n      jump\t// out\n        /* \"#utility.yul\":20310:20605   */\n    tag_177:\n        /* \"#utility.yul\":20386:20390   */\n      0x00\n        /* \"#utility.yul\":20532:20561   */\n      tag_385\n        /* \"#utility.yul\":20557:20560   */\n      dup4\n        /* \"#utility.yul\":20551:20555   */\n      dup4\n        /* \"#utility.yul\":20532:20561   */\n      tag_176\n      jump\t// in\n    tag_385:\n        /* \"#utility.yul\":20524:20561   */\n      swap2\n      pop\n        /* \"#utility.yul\":20594:20597   */\n      dup3\n        /* \"#utility.yul\":20591:20592   */\n      0x02\n        /* \"#utility.yul\":20587:20598   */\n      mul\n        /* \"#utility.yul\":20581:20585   */\n      dup3\n        /* \"#utility.yul\":20578:20599   */\n      or\n        /* \"#utility.yul\":20570:20599   */\n      swap1\n      pop\n        /* \"#utility.yul\":20310:20605   */\n      swap3\n      swap2\n      pop\n      pop\n      jump\t// out\n        /* \"#utility.yul\":20610:22005   */\n    tag_94:\n        /* \"#utility.yul\":20727:20764   */\n      tag_387\n        /* \"#utility.yul\":20760:20763   */\n      dup3\n        /* \"#utility.yul\":20727:20764   */\n      tag_129\n      jump\t// in\n    tag_387:\n        /* \"#utility.yul\":20829:20847   */\n      0xffffffffffffffff\n        /* \"#utility.yul\":20821:20827   */\n      dup2\n        /* \"#utility.yul\":20818:20848   */\n      gt\n        /* \"#utility.yul\":20815:20871   */\n      iszero\n      tag_388\n      jumpi\n        /* \"#utility.yul\":20851:20869   */\n      tag_389\n      tag_68\n      jump\t// in\n    tag_389:\n        /* \"#utility.yul\":20815:20871   */\n    tag_388:\n        /* \"#utility.yul\":20895:20933   */\n      tag_390\n        /* \"#utility.yul\":20927:20931   */\n      dup3\n        /* \"#utility.yul\":20921:20932   */\n      sload\n        /* \"#utility.yul\":20895:20933   */\n      tag_60\n      jump\t// in\n    tag_390:\n        /* \"#utility.yul\":20980:21047   */\n      tag_391\n        /* \"#utility.yul\":21040:21046   */\n      dup3\n        /* \"#utility.yul\":21032:21038   */\n      dup3\n        /* \"#utility.yul\":21026:21030   */\n      dup6\n        /* \"#utility.yul\":20980:21047   */\n      tag_174\n      jump\t// in\n    tag_391:\n        /* \"#utility.yul\":21074:21075   */\n      0x00\n        /* \"#utility.yul\":21098:21102   */\n      0x20\n        /* \"#utility.yul\":21085:21102   */\n      swap1\n      pop\n        /* \"#utility.yul\":21130:21132   */\n      0x1f\n        /* \"#utility.yul\":21122:21128   */\n      dup4\n        /* \"#utility.yul\":21119:21133   */\n      gt\n        /* \"#utility.yul\":21147:21148   */\n      0x01\n        /* \"#utility.yul\":21142:21760   */\n      dup2\n      eq\n      tag_393\n      jumpi\n        /* \"#utility.yul\":21804:21805   */\n      0x00\n        /* \"#utility.yul\":21821:21827   */\n      dup5\n        /* \"#utility.yul\":21818:21895   */\n      iszero\n      tag_394\n      jumpi\n        /* \"#utility.yul\":21870:21879   */\n      dup3\n        /* \"#utility.yul\":21865:21868   */\n      dup8\n        /* \"#utility.yul\":21861:21880   */\n      add\n        /* \"#utility.yul\":21855:21881   */\n      mload\n        /* \"#utility.yul\":21846:21881   */\n      swap1\n      pop\n        /* \"#utility.yul\":21818:21895   */\n    tag_394:\n        /* \"#utility.yul\":21921:21988   */\n      tag_395\n        /* \"#utility.yul\":21981:21987   */\n      dup6\n        /* \"#utility.yul\":21974:21979   */\n      dup3\n        /* \"#utility.yul\":21921:21988   */\n      tag_177\n      jump\t// in\n    tag_395:\n        /* \"#utility.yul\":21915:21919   */\n      dup7\n        /* \"#utility.yul\":21908:21989   */\n      sstore\n        /* \"#utility.yul\":21777:21999   */\n      pop\n        /* \"#utility.yul\":21112:21999   */\n      jump(tag_392)\n        /* \"#utility.yul\":21142:21760   */\n    tag_393:\n        /* \"#utility.yul\":21194:21198   */\n      0x1f\n        /* \"#utility.yul\":21190:21199   */\n      not\n        /* \"#utility.yul\":21182:21188   */\n      dup5\n        /* \"#utility.yul\":21178:21200   */\n      and\n        /* \"#utility.yul\":21228:21265   */\n      tag_396\n        /* \"#utility.yul\":21260:21264   */\n      dup7\n        /* \"#utility.yul\":21228:21265   */\n      tag_163\n      jump\t// in\n    tag_396:\n        /* \"#utility.yul\":21287:21288   */\n      0x00\n        /* \"#utility.yul\":21301:21509   */\n    tag_397:\n        /* \"#utility.yul\":21315:21322   */\n      dup3\n        /* \"#utility.yul\":21312:21313   */\n      dup2\n        /* \"#utility.yul\":21309:21323   */\n      lt\n        /* \"#utility.yul\":21301:21509   */\n      iszero\n      tag_399\n      jumpi\n        /* \"#utility.yul\":21394:21403   */\n      dup5\n        /* \"#utility.yul\":21389:21392   */\n      dup10\n        /* \"#utility.yul\":21385:21404   */\n      add\n        /* \"#utility.yul\":21379:21405   */\n      mload\n        /* \"#utility.yul\":21371:21377   */\n      dup3\n        /* \"#utility.yul\":21364:21406   */\n      sstore\n        /* \"#utility.yul\":21445:21446   */\n      0x01\n        /* \"#utility.yul\":21437:21443   */\n      dup3\n        /* \"#utility.yul\":21433:21447   */\n      add\n        /* \"#utility.yul\":21423:21447   */\n      swap2\n      pop\n        /* \"#utility.yul\":21492:21494   */\n      0x20\n        /* \"#utility.yul\":21481:21490   */\n      dup6\n        /* \"#utility.yul\":21477:21495   */\n      add\n        /* \"#utility.yul\":21464:21495   */\n      swap5\n      pop\n        /* \"#utility.yul\":21338:21342   */\n      0x20\n        /* \"#utility.yul\":21335:21336   */\n      dup2\n        /* \"#utility.yul\":21331:21343   */\n      add\n        /* \"#utility.yul\":21326:21343   */\n      swap1\n      pop\n        /* \"#utility.yul\":21301:21509   */\n      jump(tag_397)\n    tag_399:\n        /* \"#utility.yul\":21537:21543   */\n      dup7\n        /* \"#utility.yul\":21528:21535   */\n      dup4\n        /* \"#utility.yul\":21525:21544   */\n      lt\n        /* \"#utility.yul\":21522:21701   */\n      iszero\n      tag_400\n      jumpi\n        /* \"#utility.yul\":21595:21604   */\n      dup5\n        /* \"#utility.yul\":21590:21593   */\n      dup10\n        /* \"#utility.yul\":21586:21605   */\n      add\n        /* \"#utility.yul\":21580:21606   */\n      mload\n        /* \"#utility.yul\":21638:21686   */\n      tag_401\n        /* \"#utility.yul\":21680:21684   */\n      0x1f\n        /* \"#utility.yul\":21672:21678   */\n      dup10\n        /* \"#utility.yul\":21668:21685   */\n      and\n        /* \"#utility.yul\":21657:21666   */\n      dup3\n        /* \"#utility.yul\":21638:21686   */\n      tag_176\n      jump\t// in\n    tag_401:\n        /* \"#utility.yul\":21630:21636   */\n      dup4\n        /* \"#utility.yul\":21623:21687   */\n      sstore\n        /* \"#utility.yul\":21545:21701   */\n      pop\n        /* \"#utility.yul\":21522:21701   */\n    tag_400:\n        /* \"#utility.yul\":21747:21748   */\n      0x01\n        /* \"#utility.yul\":21743:21744   */\n      0x02\n        /* \"#utility.yul\":21735:21741   */\n      dup9\n        /* \"#utility.yul\":21731:21745   */\n      mul\n        /* \"#utility.yul\":21727:21749   */\n      add\n        /* \"#utility.yul\":21721:21725   */\n      dup9\n        /* \"#utility.yul\":21714:21750   */\n      sstore\n        /* \"#utility.yul\":21149:21760   */\n      pop\n      pop\n      pop\n        /* \"#utility.yul\":21112:21999   */\n    tag_392:\n      pop\n        /* \"#utility.yul\":20702:22005   */\n      pop\n      pop\n      pop\n        /* \"#utility.yul\":20610:22005   */\n      pop\n      pop\n      jump\t// out\n        /* \"#utility.yul\":22011:22191   */\n    tag_178:\n        /* \"#utility.yul\":22059:22136   */\n      0x4e487b7100000000000000000000000000000000000000000000000000000000\n        /* \"#utility.yul\":22056:22057   */\n      0x00\n        /* \"#utility.yul\":22049:22137   */\n      mstore\n        /* \"#utility.yul\":22156:22160   */\n      0x11\n        /* \"#utility.yul\":22153:22154   */\n      0x04\n        /* \"#utility.yul\":22146:22161   */\n      mstore\n        /* \"#utility.yul\":22180:22184   */\n      0x24\n        /* \"#utility.yul\":22177:22178   */\n      0x00\n        /* \"#utility.yul\":22170:22185   */\n      revert\n        /* \"#utility.yul\":22197:22430   */\n    tag_96:\n        /* \"#utility.yul\":22236:22239   */\n      0x00\n        /* \"#utility.yul\":22259:22283   */\n      tag_404\n        /* \"#utility.yul\":22277:22282   */\n      dup3\n        /* \"#utility.yul\":22259:22283   */\n      tag_124\n      jump\t// in\n    tag_404:\n        /* \"#utility.yul\":22250:22283   */\n      swap2\n      pop\n        /* \"#utility.yul\":22305:22371   */\n      0xffffffffffffffffffffffffffffffffffffffffffffffffffffffffffffffff\n        /* \"#utility.yul\":22298:22303   */\n      dup3\n        /* \"#utility.yul\":22295:22372   */\n      sub\n        /* \"#utility.yul\":22292:22395   */\n      tag_405\n      jumpi\n        /* \"#utility.yul\":22375:22393   */\n      tag_406\n      tag_178\n      jump\t// in\n    tag_406:\n        /* \"#utility.yul\":22292:22395   */\n    tag_405:\n        /* \"#utility.yul\":22422:22423   */\n      0x01\n        /* \"#utility.yul\":22415:22420   */\n      dup3\n        /* \"#utility.yul\":22411:22424   */\n      add\n        /* \"#utility.yul\":22404:22424   */\n      swap1\n      pop\n        /* \"#utility.yul\":22197:22430   */\n      swap2\n      swap1\n      pop\n      jump\t// out\n        /* \"#utility.yul\":22436:22610   */\n    tag_179:\n        /* \"#utility.yul\":22576:22602   */\n      0x4c696b65732068617665206e6f74206164646564207965740000000000000000\n        /* \"#utility.yul\":22572:22573   */\n      0x00\n        /* \"#utility.yul\":22564:22570   */\n      dup3\n        /* \"#utility.yul\":22560:22574   */\n      add\n        /* \"#utility.yul\":22553:22603   */\n      mstore\n        /* \"#utility.yul\":22436:22610   */\n      pop\n      jump\t// out\n        /* \"#utility.yul\":22616:22982   */\n    tag_180:\n        /* \"#utility.yul\":22758:22761   */\n      0x00\n        /* \"#utility.yul\":22779:22846   */\n      tag_409\n        /* \"#utility.yul\":22843:22845   */\n      0x18\n        /* \"#utility.yul\":22838:22841   */\n      dup4\n        /* \"#utility.yul\":22779:22846   */\n      tag_130\n      jump\t// in\n    tag_409:\n        /* \"#utility.yul\":22772:22846   */\n      swap2\n      pop\n        /* \"#utility.yul\":22855:22948   */\n      tag_410\n        /* \"#utility.yul\":22944:22947   */\n      dup3\n        /* \"#utility.yul\":22855:22948   */\n      tag_179\n      jump\t// in\n    tag_410:\n        /* \"#utility.yul\":22973:22975   */\n      0x20\n        /* \"#utility.yul\":22968:22971   */\n      dup3\n        /* \"#utility.yul\":22964:22976   */\n      add\n        /* \"#utility.yul\":22957:22976   */\n      swap1\n      pop\n        /* \"#utility.yul\":22616:22982   */\n      swap2\n      swap1\n      pop\n      jump\t// out\n        /* \"#utility.yul\":22988:23407   */\n    tag_102:\n        /* \"#utility.yul\":23154:23158   */\n      0x00\n        /* \"#utility.yul\":23192:23194   */\n      0x20\n        /* \"#utility.yul\":23181:23190   */\n      dup3\n        /* \"#utility.yul\":23177:23195   */\n      add\n        /* \"#utility.yul\":23169:23195   */\n      swap1\n      pop\n        /* \"#utility.yul\":23241:23250   */\n      dup2\n        /* \"#utility.yul\":23235:23239   */\n      dup2\n        /* \"#utility.yul\":23231:23251   */\n      sub\n        /* \"#utility.yul\":23227:23228   */\n      0x00\n        /* \"#utility.yul\":23216:23225   */\n      dup4\n        /* \"#utility.yul\":23212:23229   */\n      add\n        /* \"#utility.yul\":23205:23252   */\n      mstore\n        /* \"#utility.yul\":23269:23400   */\n      tag_412\n        /* \"#utility.yul\":23395:23399   */\n      dup2\n        /* \"#utility.yul\":23269:23400   */\n      tag_180\n      jump\t// in\n    tag_412:\n        /* \"#utility.yul\":23261:23400   */\n      swap1\n      pop\n        /* \"#utility.yul\":22988:23407   */\n      swap2\n      swap1\n      pop\n      jump\t// out\n        /* \"#utility.yul\":23413:23584   */\n    tag_104:\n        /* \"#utility.yul\":23452:23455   */\n      0x00\n        /* \"#utility.yul\":23475:23499   */\n      tag_414\n        /* \"#utility.yul\":23493:23498   */\n      dup3\n        /* \"#utility.yul\":23475:23499   */\n      tag_124\n      jump\t// in\n    tag_414:\n        /* \"#utility.yul\":23466:23499   */\n      swap2\n      pop\n        /* \"#utility.yul\":23521:23525   */\n      0x00\n        /* \"#utility.yul\":23514:23519   */\n      dup3\n        /* \"#utility.yul\":23511:23526   */\n      sub\n        /* \"#utility.yul\":23508:23549   */\n      tag_415\n      jumpi\n        /* \"#utility.yul\":23529:23547   */\n      tag_416\n      tag_178\n      jump\t// in\n    tag_416:\n        /* \"#utility.yul\":23508:23549   */\n    tag_415:\n        /* \"#utility.yul\":23576:23577   */\n      0x01\n        /* \"#utility.yul\":23569:23574   */\n      dup3\n        /* \"#utility.yul\":23565:23578   */\n      sub\n        /* \"#utility.yul\":23558:23578   */\n      swap1\n      pop\n        /* \"#utility.yul\":23413:23584   */\n      swap2\n      swap1\n      pop\n      jump\t// out\n        /* \"#utility.yul\":23590:23760   */\n    tag_181:\n        /* \"#utility.yul\":23730:23752   */\n      0x547765657420646f6573206e6f74206578697374000000000000000000000000\n        /* \"#utility.yul\":23726:23727   */\n      0x00\n        /* \"#utility.yul\":23718:23724   */\n      dup3\n        /* \"#utility.yul\":23714:23728   */\n      add\n        /* \"#utility.yul\":23707:23753   */\n      mstore\n        /* \"#utility.yul\":23590:23760   */\n      pop\n      jump\t// out\n        /* \"#utility.yul\":23766:24132   */\n    tag_182:\n        /* \"#utility.yul\":23908:23911   */\n      0x00\n        /* \"#utility.yul\":23929:23996   */\n      tag_419\n        /* \"#utility.yul\":23993:23995   */\n      0x14\n        /* \"#utility.yul\":23988:23991   */\n      dup4\n        /* \"#utility.yul\":23929:23996   */\n      tag_130\n      jump\t// in\n    tag_419:\n        /* \"#utility.yul\":23922:23996   */\n      swap2\n      pop\n        /* \"#utility.yul\":24005:24098   */\n      tag_420\n        /* \"#utility.yul\":24094:24097   */\n      dup3\n        /* \"#utility.yul\":24005:24098   */\n      tag_181\n      jump\t// in\n    tag_420:\n        /* \"#utility.yul\":24123:24125   */\n      0x20\n        /* \"#utility.yul\":24118:24121   */\n      dup3\n        /* \"#utility.yul\":24114:24126   */\n      add\n        /* \"#utility.yul\":24107:24126   */\n      swap1\n      pop\n        /* \"#utility.yul\":23766:24132   */\n      swap2\n      swap1\n      pop\n      jump\t// out\n        /* \"#utility.yul\":24138:24557   */\n    tag_115:\n        /* \"#utility.yul\":24304:24308   */\n      0x00\n        /* \"#utility.yul\":24342:24344   */\n      0x20\n        /* \"#utility.yul\":24331:24340   */\n      dup3\n        /* \"#utility.yul\":24327:24345   */\n      add\n        /* \"#utility.yul\":24319:24345   */\n      swap1\n      pop\n        /* \"#utility.yul\":24391:24400   */\n      dup2\n        /* \"#utility.yul\":24385:24389   */\n      dup2\n        /* \"#utility.yul\":24381:24401   */\n      sub\n        /* \"#utility.yul\":24377:24378   */\n      0x00\n        /* \"#utility.yul\":24366:24375   */\n      dup4\n        /* \"#utility.yul\":24362:24379   */\n      add\n        /* \"#utility.yul\":24355:24402   */\n      mstore\n        /* \"#utility.yul\":24419:24550   */\n      tag_422\n        /* \"#utility.yul\":24545:24549   */\n      dup2\n        /* \"#utility.yul\":24419:24550   */\n      tag_182\n      jump\t// in\n    tag_422:\n        /* \"#utility.yul\":24411:24550   */\n      swap1\n      pop\n        /* \"#utility.yul\":24138:24557   */\n      swap2\n      swap1\n      pop\n      jump\t// out\n\n    auxdata: 0xa2646970667358221220adc495b311d14cce1a68bc38909d114c3944ce2c8f983860d2fa093a3afeb19364736f6c63430008180033\n}\n",
				"bytecode": {
					"linkReferences": {},
					"object": "608060405260c86000806101000a81548161ffff021916908361ffff160217905550600060015534801561003257600080fd5b5033600060026101000a81548173ffffffffffffffffffffffffffffffffffffffff021916908373ffffffffffffffffffffffffffffffffffffffff1602179055506118a4806100836000396000f3fe608060405234801561001057600080fd5b506004361061009e5760003560e01c8063893d20e811610066578063893d20e81461014b578063a1488f7c14610169578063c3ad5ecb14610185578063cbb78557146101b5578063d04ddaa0146101e55761009e565b806305a1b4a9146100a357806353256135146100d757806358bfa4ab146100f55780636eb10797146101115780637c9cd2bc1461012f575b600080fd5b6100bd60048036038101906100b89190610c6a565b610201565b6040516100ce959493929190610d58565b60405180910390f35b6100df6102ec565b6040516100ec9190610f52565b60405180910390f35b61010f600480360381019061010a9190610fae565b61052a565b005b6101196105d9565b6040516101269190610fea565b60405180910390f35b6101496004803603810190610144919061113a565b6105eb565b005b6101536107c7565b6040516101609190611183565b60405180910390f35b610183600480360381019061017e919061119e565b6107f0565b005b61019f600480360381019061019a91906111de565b6108f3565b6040516101ac9190611281565b60405180910390f35b6101cf60048036038101906101ca91906112a3565b610a63565b6040516101dc91906112d0565b60405180910390f35b6101ff60048036038101906101fa919061119e565b610a7b565b005b6002602052816000526040600020602052806000526040600020600091509150508060000154908060010160009054906101000a900473ffffffffffffffffffffffffffffffffffffffff169080600201805461025d9061131a565b80601f01602080910402602001604051908101604052809291908181526020018280546102899061131a565b80156102d65780601f106102ab576101008083540402835291602001916102d6565b820191906000526020600020905b8154815290600101906020018083116102b957829003601f168201915b5050505050908060030154908060040154905085565b60606000600360003373ffffffffffffffffffffffffffffffffffffffff1673ffffffffffffffffffffffffffffffffffffffff16815260200190815260200160002054905060008167ffffffffffffffff81111561034e5761034d61100f565b5b60405190808252806020026020018201604052801561038757816020015b610374610b7d565b81526020019060019003908161036c5790505b50905060005b8281101561052157600260003373ffffffffffffffffffffffffffffffffffffffff1673ffffffffffffffffffffffffffffffffffffffff16815260200190815260200160002060008281526020019081526020016000206040518060a0016040529081600082015481526020016001820160009054906101000a900473ffffffffffffffffffffffffffffffffffffffff1673ffffffffffffffffffffffffffffffffffffffff1673ffffffffffffffffffffffffffffffffffffffff1681526020016002820180546104609061131a565b80601f016020809104026020016040519081016040528092919081815260200182805461048c9061131a565b80156104d95780601f106104ae576101008083540402835291602001916104d9565b820191906000526020600020905b8154815290600101906020018083116104bc57829003601f168201915b50505050508152602001600382015481526020016004820154815250508282815181106105095761050861134b565b5b6020026020010181905250808060010191505061038d565b50809250505090565b3373ffffffffffffffffffffffffffffffffffffffff16600060029054906101000a900473ffffffffffffffffffffffffffffffffffffffff1673ffffffffffffffffffffffffffffffffffffffff16146105ba576040517f08c379a00000000000000000000000000000000000000000000000000000000081526004016105b1906113ec565b60405180910390fd5b806000806101000a81548161ffff021916908361ffff16021790555050565b60008054906101000a900461ffff1681565b60008054906101000a900461ffff1661ffff1681511115610641576040517f08c379a000000000000000000000000000000000000000000000000000000000815260040161063890611458565b60405180910390fd5b60006040518060a0016040528060015481526020013373ffffffffffffffffffffffffffffffffffffffff1681526020018381526020014281526020016000815250905080600260003373ffffffffffffffffffffffffffffffffffffffff1673ffffffffffffffffffffffffffffffffffffffff168152602001908152602001600020600060015481526020019081526020016000206000820151816000015560208201518160010160006101000a81548173ffffffffffffffffffffffffffffffffffffffff021916908373ffffffffffffffffffffffffffffffffffffffff160217905550604082015181600201908161073e9190611624565b5060608201518160030155608082015181600401559050506001600081548092919061076990611725565b9190505550600360003373ffffffffffffffffffffffffffffffffffffffff1673ffffffffffffffffffffffffffffffffffffffff16815260200190815260200160002060008154809291906107be90611725565b91905055505050565b60008060029054906101000a900473ffffffffffffffffffffffffffffffffffffffff16905090565b6000600260008373ffffffffffffffffffffffffffffffffffffffff1673ffffffffffffffffffffffffffffffffffffffff16815260200190815260200160002060008481526020019081526020016000206004015411610886576040517f08c379a000000000000000000000000000000000000000000000000000000000815260040161087d906117b9565b60405180910390fd5b600260008273ffffffffffffffffffffffffffffffffffffffff1673ffffffffffffffffffffffffffffffffffffffff168152602001908152602001600020600083815260200190815260200160002060040160008154809291906108ea906117d9565b91905055505050565b6108fb610b7d565b600260003373ffffffffffffffffffffffffffffffffffffffff1673ffffffffffffffffffffffffffffffffffffffff16815260200190815260200160002060008381526020019081526020016000206040518060a0016040529081600082015481526020016001820160009054906101000a900473ffffffffffffffffffffffffffffffffffffffff1673ffffffffffffffffffffffffffffffffffffffff1673ffffffffffffffffffffffffffffffffffffffff1681526020016002820180546109c69061131a565b80601f01602080910402602001604051908101604052809291908181526020018280546109f29061131a565b8015610a3f5780601f10610a1457610100808354040283529160200191610a3f565b820191906000526020600020905b815481529060010190602001808311610a2257829003601f168201915b50505050508152602001600382015481526020016004820154815250509050919050565b60036020528060005260406000206000915090505481565b81600260008373ffffffffffffffffffffffffffffffffffffffff1673ffffffffffffffffffffffffffffffffffffffff16815260200190815260200160002060008481526020019081526020016000206000015414610b10576040517f08c379a0000000000000000000000000000000000000000000000000000000008152600401610b079061184e565b60405180910390fd5b600260008273ffffffffffffffffffffffffffffffffffffffff1673ffffffffffffffffffffffffffffffffffffffff16815260200190815260200160002060008381526020019081526020016000206004016000815480929190610b7490611725565b91905055505050565b6040518060a0016040528060008152602001600073ffffffffffffffffffffffffffffffffffffffff1681526020016060815260200160008152602001600081525090565b6000604051905090565b600080fd5b600080fd5b600073ffffffffffffffffffffffffffffffffffffffff82169050919050565b6000610c0182610bd6565b9050919050565b610c1181610bf6565b8114610c1c57600080fd5b50565b600081359050610c2e81610c08565b92915050565b6000819050919050565b610c4781610c34565b8114610c5257600080fd5b50565b600081359050610c6481610c3e565b92915050565b60008060408385031215610c8157610c80610bcc565b5b6000610c8f85828601610c1f565b9250506020610ca085828601610c55565b9150509250929050565b610cb381610c34565b82525050565b610cc281610bf6565b82525050565b600081519050919050565b600082825260208201905092915050565b60005b83811015610d02578082015181840152602081019050610ce7565b60008484015250505050565b6000601f19601f8301169050919050565b6000610d2a82610cc8565b610d348185610cd3565b9350610d44818560208601610ce4565b610d4d81610d0e565b840191505092915050565b600060a082019050610d6d6000830188610caa565b610d7a6020830187610cb9565b8181036040830152610d8c8186610d1f565b9050610d9b6060830185610caa565b610da86080830184610caa565b9695505050505050565b600081519050919050565b600082825260208201905092915050565b6000819050602082019050919050565b610de781610c34565b82525050565b610df681610bf6565b82525050565b600082825260208201905092915050565b6000610e1882610cc8565b610e228185610dfc565b9350610e32818560208601610ce4565b610e3b81610d0e565b840191505092915050565b600060a083016000830151610e5e6000860182610dde565b506020830151610e716020860182610ded565b5060408301518482036040860152610e898282610e0d565b9150506060830151610e9e6060860182610dde565b506080830151610eb16080860182610dde565b508091505092915050565b6000610ec88383610e46565b905092915050565b6000602082019050919050565b6000610ee882610db2565b610ef28185610dbd565b935083602082028501610f0485610dce565b8060005b85811015610f405784840389528151610f218582610ebc565b9450610f2c83610ed0565b925060208a01995050600181019050610f08565b50829750879550505050505092915050565b60006020820190508181036000830152610f6c8184610edd565b905092915050565b600061ffff82169050919050565b610f8b81610f74565b8114610f9657600080fd5b50565b600081359050610fa881610f82565b92915050565b600060208284031215610fc457610fc3610bcc565b5b6000610fd284828501610f99565b91505092915050565b610fe481610f74565b82525050565b6000602082019050610fff6000830184610fdb565b92915050565b600080fd5b600080fd5b7f4e487b7100000000000000000000000000000000000000000000000000000000600052604160045260246000fd5b61104782610d0e565b810181811067ffffffffffffffff821117156110665761106561100f565b5b80604052505050565b6000611079610bc2565b9050611085828261103e565b919050565b600067ffffffffffffffff8211156110a5576110a461100f565b5b6110ae82610d0e565b9050602081019050919050565b82818337600083830152505050565b60006110dd6110d88461108a565b61106f565b9050828152602081018484840111156110f9576110f861100a565b5b6111048482856110bb565b509392505050565b600082601f83011261112157611120611005565b5b81356111318482602086016110ca565b91505092915050565b6000602082840312156111505761114f610bcc565b5b600082013567ffffffffffffffff81111561116e5761116d610bd1565b5b61117a8482850161110c565b91505092915050565b60006020820190506111986000830184610cb9565b92915050565b600080604083850312156111b5576111b4610bcc565b5b60006111c385828601610c55565b92505060206111d485828601610c1f565b9150509250929050565b6000602082840312156111f4576111f3610bcc565b5b600061120284828501610c55565b91505092915050565b600060a0830160008301516112236000860182610dde565b5060208301516112366020860182610ded565b506040830151848203604086015261124e8282610e0d565b91505060608301516112636060860182610dde565b5060808301516112766080860182610dde565b508091505092915050565b6000602082019050818103600083015261129b818461120b565b905092915050565b6000602082840312156112b9576112b8610bcc565b5b60006112c784828501610c1f565b91505092915050565b60006020820190506112e56000830184610caa565b92915050565b7f4e487b7100000000000000000000000000000000000000000000000000000000600052602260045260246000fd5b6000600282049050600182168061133257607f821691505b602082108103611345576113446112eb565b5b50919050565b7f4e487b7100000000000000000000000000000000000000000000000000000000600052603260045260246000fd5b7f4f6e6c79206f776e65722063616e206368616e6765207468652074776565742060008201527f6c656e6774680000000000000000000000000000000000000000000000000000602082015250565b60006113d6602683610cd3565b91506113e18261137a565b604082019050919050565b60006020820190508181036000830152611405816113c9565b9050919050565b7f547765657420636f6e74656e74206973206c656e677468790000000000000000600082015250565b6000611442601883610cd3565b915061144d8261140c565b602082019050919050565b6000602082019050818103600083015261147181611435565b9050919050565b60008190508160005260206000209050919050565b60006020601f8301049050919050565b600082821b905092915050565b6000600883026114da7fffffffffffffffffffffffffffffffffffffffffffffffffffffffffffffffff8261149d565b6114e4868361149d565b95508019841693508086168417925050509392505050565b6000819050919050565b600061152161151c61151784610c34565b6114fc565b610c34565b9050919050565b6000819050919050565b61153b83611506565b61154f61154782611528565b8484546114aa565b825550505050565b600090565b611564611557565b61156f818484611532565b505050565b5b818110156115935761158860008261155c565b600181019050611575565b5050565b601f8211156115d8576115a981611478565b6115b28461148d565b810160208510156115c1578190505b6115d56115cd8561148d565b830182611574565b50505b505050565b600082821c905092915050565b60006115fb600019846008026115dd565b1980831691505092915050565b600061161483836115ea565b9150826002028217905092915050565b61162d82610cc8565b67ffffffffffffffff8111156116465761164561100f565b5b611650825461131a565b61165b828285611597565b600060209050601f83116001811461168e576000841561167c578287015190505b6116868582611608565b8655506116ee565b601f19841661169c86611478565b60005b828110156116c45784890151825560018201915060208501945060208101905061169f565b868310156116e157848901516116dd601f8916826115ea565b8355505b6001600288020188555050505b505050505050565b7f4e487b7100000000000000000000000000000000000000000000000000000000600052601160045260246000fd5b600061173082610c34565b91507fffffffffffffffffffffffffffffffffffffffffffffffffffffffffffffffff8203611762576117616116f6565b5b600182019050919050565b7f4c696b65732068617665206e6f74206164646564207965740000000000000000600082015250565b60006117a3601883610cd3565b91506117ae8261176d565b602082019050919050565b600060208201905081810360008301526117d281611796565b9050919050565b60006117e482610c34565b9150600082036117f7576117f66116f6565b5b600182039050919050565b7f547765657420646f6573206e6f74206578697374000000000000000000000000600082015250565b6000611838601483610cd3565b915061184382611802565b602082019050919050565b600060208201905081810360008301526118678161182b565b905091905056fea2646970667358221220adc495b311d14cce1a68bc38909d114c3944ce2c8f983860d2fa093a3afeb19364736f6c63430008180033",
					"opcodes": "PUSH1 0x80 PUSH1 0x40 MSTORE PUSH1 0xC8 PUSH1 0x0 DUP1 PUSH2 0x100 EXP DUP2 SLOAD DUP2 PUSH2 0xFFFF MUL NOT AND SWAP1 DUP4 PUSH2 0xFFFF AND MUL OR SWAP1 SSTORE POP PUSH1 0x0 PUSH1 0x1 SSTORE CALLVALUE DUP1 ISZERO PUSH2 0x32 JUMPI PUSH1 0x0 DUP1 REVERT JUMPDEST POP CALLER PUSH1 0x0 PUSH1 0x2 PUSH2 0x100 EXP DUP2 SLOAD DUP2 PUSH20 0xFFFFFFFFFFFFFFFFFFFFFFFFFFFFFFFFFFFFFFFF MUL NOT AND SWAP1 DUP4 PUSH20 0xFFFFFFFFFFFFFFFFFFFFFFFFFFFFFFFFFFFFFFFF AND MUL OR SWAP1 SSTORE POP PUSH2 0x18A4 DUP1 PUSH2 0x83 PUSH1 0x0 CODECOPY PUSH1 0x0 RETURN INVALID PUSH1 0x80 PUSH1 0x40 MSTORE CALLVALUE DUP1 ISZERO PUSH2 0x10 JUMPI PUSH1 0x0 DUP1 REVERT JUMPDEST POP PUSH1 0x4 CALLDATASIZE LT PUSH2 0x9E JUMPI PUSH1 0x0 CALLDATALOAD PUSH1 0xE0 SHR DUP1 PUSH4 0x893D20E8 GT PUSH2 0x66 JUMPI DUP1 PUSH4 0x893D20E8 EQ PUSH2 0x14B JUMPI DUP1 PUSH4 0xA1488F7C EQ PUSH2 0x169 JUMPI DUP1 PUSH4 0xC3AD5ECB EQ PUSH2 0x185 JUMPI DUP1 PUSH4 0xCBB78557 EQ PUSH2 0x1B5 JUMPI DUP1 PUSH4 0xD04DDAA0 EQ PUSH2 0x1E5 JUMPI PUSH2 0x9E JUMP JUMPDEST DUP1 PUSH4 0x5A1B4A9 EQ PUSH2 0xA3 JUMPI DUP1 PUSH4 0x53256135 EQ PUSH2 0xD7 JUMPI DUP1 PUSH4 0x58BFA4AB EQ PUSH2 0xF5 JUMPI DUP1 PUSH4 0x6EB10797 EQ PUSH2 0x111 JUMPI DUP1 PUSH4 0x7C9CD2BC EQ PUSH2 0x12F JUMPI JUMPDEST PUSH1 0x0 DUP1 REVERT JUMPDEST PUSH2 0xBD PUSH1 0x4 DUP1 CALLDATASIZE SUB DUP2 ADD SWAP1 PUSH2 0xB8 SWAP2 SWAP1 PUSH2 0xC6A JUMP JUMPDEST PUSH2 0x201 JUMP JUMPDEST PUSH1 0x40 MLOAD PUSH2 0xCE SWAP6 SWAP5 SWAP4 SWAP3 SWAP2 SWAP1 PUSH2 0xD58 JUMP JUMPDEST PUSH1 0x40 MLOAD DUP1 SWAP2 SUB SWAP1 RETURN JUMPDEST PUSH2 0xDF PUSH2 0x2EC JUMP JUMPDEST PUSH1 0x40 MLOAD PUSH2 0xEC SWAP2 SWAP1 PUSH2 0xF52 JUMP JUMPDEST PUSH1 0x40 MLOAD DUP1 SWAP2 SUB SWAP1 RETURN JUMPDEST PUSH2 0x10F PUSH1 0x4 DUP1 CALLDATASIZE SUB DUP2 ADD SWAP1 PUSH2 0x10A SWAP2 SWAP1 PUSH2 0xFAE JUMP JUMPDEST PUSH2 0x52A JUMP JUMPDEST STOP JUMPDEST PUSH2 0x119 PUSH2 0x5D9 JUMP JUMPDEST PUSH1 0x40 MLOAD PUSH2 0x126 SWAP2 SWAP1 PUSH2 0xFEA JUMP JUMPDEST PUSH1 0x40 MLOAD DUP1 SWAP2 SUB SWAP1 RETURN JUMPDEST PUSH2 0x149 PUSH1 0x4 DUP1 CALLDATASIZE SUB DUP2 ADD SWAP1 PUSH2 0x144 SWAP2 SWAP1 PUSH2 0x113A JUMP JUMPDEST PUSH2 0x5EB JUMP JUMPDEST STOP JUMPDEST PUSH2 0x153 PUSH2 0x7C7 JUMP JUMPDEST PUSH1 0x40 MLOAD PUSH2 0x160 SWAP2 SWAP1 PUSH2 0x1183 JUMP JUMPDEST PUSH1 0x40 MLOAD DUP1 SWAP2 SUB SWAP1 RETURN JUMPDEST PUSH2 0x183 PUSH1 0x4 DUP1 CALLDATASIZE SUB DUP2 ADD SWAP1 PUSH2 0x17E SWAP2 SWAP1 PUSH2 0x119E JUMP JUMPDEST PUSH2 0x7F0 JUMP JUMPDEST STOP JUMPDEST PUSH2 0x19F PUSH1 0x4 DUP1 CALLDATASIZE SUB DUP2 ADD SWAP1 PUSH2 0x19A SWAP2 SWAP1 PUSH2 0x11DE JUMP JUMPDEST PUSH2 0x8F3 JUMP JUMPDEST PUSH1 0x40 MLOAD PUSH2 0x1AC SWAP2 SWAP1 PUSH2 0x1281 JUMP JUMPDEST PUSH1 0x40 MLOAD DUP1 SWAP2 SUB SWAP1 RETURN JUMPDEST PUSH2 0x1CF PUSH1 0x4 DUP1 CALLDATASIZE SUB DUP2 ADD SWAP1 PUSH2 0x1CA SWAP2 SWAP1 PUSH2 0x12A3 JUMP JUMPDEST PUSH2 0xA63 JUMP JUMPDEST PUSH1 0x40 MLOAD PUSH2 0x1DC SWAP2 SWAP1 PUSH2 0x12D0 JUMP JUMPDEST PUSH1 0x40 MLOAD DUP1 SWAP2 SUB SWAP1 RETURN JUMPDEST PUSH2 0x1FF PUSH1 0x4 DUP1 CALLDATASIZE SUB DUP2 ADD SWAP1 PUSH2 0x1FA SWAP2 SWAP1 PUSH2 0x119E JUMP JUMPDEST PUSH2 0xA7B JUMP JUMPDEST STOP JUMPDEST PUSH1 0x2 PUSH1 0x20 MSTORE DUP2 PUSH1 0x0 MSTORE PUSH1 0x40 PUSH1 0x0 KECCAK256 PUSH1 0x20 MSTORE DUP1 PUSH1 0x0 MSTORE PUSH1 0x40 PUSH1 0x0 KECCAK256 PUSH1 0x0 SWAP2 POP SWAP2 POP POP DUP1 PUSH1 0x0 ADD SLOAD SWAP1 DUP1 PUSH1 0x1 ADD PUSH1 0x0 SWAP1 SLOAD SWAP1 PUSH2 0x100 EXP SWAP1 DIV PUSH20 0xFFFFFFFFFFFFFFFFFFFFFFFFFFFFFFFFFFFFFFFF AND SWAP1 DUP1 PUSH1 0x2 ADD DUP1 SLOAD PUSH2 0x25D SWAP1 PUSH2 0x131A JUMP JUMPDEST DUP1 PUSH1 0x1F ADD PUSH1 0x20 DUP1 SWAP2 DIV MUL PUSH1 0x20 ADD PUSH1 0x40 MLOAD SWAP1 DUP2 ADD PUSH1 0x40 MSTORE DUP1 SWAP3 SWAP2 SWAP1 DUP2 DUP2 MSTORE PUSH1 0x20 ADD DUP3 DUP1 SLOAD PUSH2 0x289 SWAP1 PUSH2 0x131A JUMP JUMPDEST DUP1 ISZERO PUSH2 0x2D6 JUMPI DUP1 PUSH1 0x1F LT PUSH2 0x2AB JUMPI PUSH2 0x100 DUP1 DUP4 SLOAD DIV MUL DUP4 MSTORE SWAP2 PUSH1 0x20 ADD SWAP2 PUSH2 0x2D6 JUMP JUMPDEST DUP3 ADD SWAP2 SWAP1 PUSH1 0x0 MSTORE PUSH1 0x20 PUSH1 0x0 KECCAK256 SWAP1 JUMPDEST DUP2 SLOAD DUP2 MSTORE SWAP1 PUSH1 0x1 ADD SWAP1 PUSH1 0x20 ADD DUP1 DUP4 GT PUSH2 0x2B9 JUMPI DUP3 SWAP1 SUB PUSH1 0x1F AND DUP3 ADD SWAP2 JUMPDEST POP POP POP POP POP SWAP1 DUP1 PUSH1 0x3 ADD SLOAD SWAP1 DUP1 PUSH1 0x4 ADD SLOAD SWAP1 POP DUP6 JUMP JUMPDEST PUSH1 0x60 PUSH1 0x0 PUSH1 0x3 PUSH1 0x0 CALLER PUSH20 0xFFFFFFFFFFFFFFFFFFFFFFFFFFFFFFFFFFFFFFFF AND PUSH20 0xFFFFFFFFFFFFFFFFFFFFFFFFFFFFFFFFFFFFFFFF AND DUP2 MSTORE PUSH1 0x20 ADD SWAP1 DUP2 MSTORE PUSH1 0x20 ADD PUSH1 0x0 KECCAK256 SLOAD SWAP1 POP PUSH1 0x0 DUP2 PUSH8 0xFFFFFFFFFFFFFFFF DUP2 GT ISZERO PUSH2 0x34E JUMPI PUSH2 0x34D PUSH2 0x100F JUMP JUMPDEST JUMPDEST PUSH1 0x40 MLOAD SWAP1 DUP1 DUP3 MSTORE DUP1 PUSH1 0x20 MUL PUSH1 0x20 ADD DUP3 ADD PUSH1 0x40 MSTORE DUP1 ISZERO PUSH2 0x387 JUMPI DUP2 PUSH1 0x20 ADD JUMPDEST PUSH2 0x374 PUSH2 0xB7D JUMP JUMPDEST DUP2 MSTORE PUSH1 0x20 ADD SWAP1 PUSH1 0x1 SWAP1 SUB SWAP1 DUP2 PUSH2 0x36C JUMPI SWAP1 POP JUMPDEST POP SWAP1 POP PUSH1 0x0 JUMPDEST DUP3 DUP2 LT ISZERO PUSH2 0x521 JUMPI PUSH1 0x2 PUSH1 0x0 CALLER PUSH20 0xFFFFFFFFFFFFFFFFFFFFFFFFFFFFFFFFFFFFFFFF AND PUSH20 0xFFFFFFFFFFFFFFFFFFFFFFFFFFFFFFFFFFFFFFFF AND DUP2 MSTORE PUSH1 0x20 ADD SWAP1 DUP2 MSTORE PUSH1 0x20 ADD PUSH1 0x0 KECCAK256 PUSH1 0x0 DUP3 DUP2 MSTORE PUSH1 0x20 ADD SWAP1 DUP2 MSTORE PUSH1 0x20 ADD PUSH1 0x0 KECCAK256 PUSH1 0x40 MLOAD DUP1 PUSH1 0xA0 ADD PUSH1 0x40 MSTORE SWAP1 DUP2 PUSH1 0x0 DUP3 ADD SLOAD DUP2 MSTORE PUSH1 0x20 ADD PUSH1 0x1 DUP3 ADD PUSH1 0x0 SWAP1 SLOAD SWAP1 PUSH2 0x100 EXP SWAP1 DIV PUSH20 0xFFFFFFFFFFFFFFFFFFFFFFFFFFFFFFFFFFFFFFFF AND PUSH20 0xFFFFFFFFFFFFFFFFFFFFFFFFFFFFFFFFFFFFFFFF AND PUSH20 0xFFFFFFFFFFFFFFFFFFFFFFFFFFFFFFFFFFFFFFFF AND DUP2 MSTORE PUSH1 0x20 ADD PUSH1 0x2 DUP3 ADD DUP1 SLOAD PUSH2 0x460 SWAP1 PUSH2 0x131A JUMP JUMPDEST DUP1 PUSH1 0x1F ADD PUSH1 0x20 DUP1 SWAP2 DIV MUL PUSH1 0x20 ADD PUSH1 0x40 MLOAD SWAP1 DUP2 ADD PUSH1 0x40 MSTORE DUP1 SWAP3 SWAP2 SWAP1 DUP2 DUP2 MSTORE PUSH1 0x20 ADD DUP3 DUP1 SLOAD PUSH2 0x48C SWAP1 PUSH2 0x131A JUMP JUMPDEST DUP1 ISZERO PUSH2 0x4D9 JUMPI DUP1 PUSH1 0x1F LT PUSH2 0x4AE JUMPI PUSH2 0x100 DUP1 DUP4 SLOAD DIV MUL DUP4 MSTORE SWAP2 PUSH1 0x20 ADD SWAP2 PUSH2 0x4D9 JUMP JUMPDEST DUP3 ADD SWAP2 SWAP1 PUSH1 0x0 MSTORE PUSH1 0x20 PUSH1 0x0 KECCAK256 SWAP1 JUMPDEST DUP2 SLOAD DUP2 MSTORE SWAP1 PUSH1 0x1 ADD SWAP1 PUSH1 0x20 ADD DUP1 DUP4 GT PUSH2 0x4BC JUMPI DUP3 SWAP1 SUB PUSH1 0x1F AND DUP3 ADD SWAP2 JUMPDEST POP POP POP POP POP DUP2 MSTORE PUSH1 0x20 ADD PUSH1 0x3 DUP3 ADD SLOAD DUP2 MSTORE PUSH1 0x20 ADD PUSH1 0x4 DUP3 ADD SLOAD DUP2 MSTORE POP POP DUP3 DUP3 DUP2 MLOAD DUP2 LT PUSH2 0x509 JUMPI PUSH2 0x508 PUSH2 0x134B JUMP JUMPDEST JUMPDEST PUSH1 0x20 MUL PUSH1 0x20 ADD ADD DUP2 SWAP1 MSTORE POP DUP1 DUP1 PUSH1 0x1 ADD SWAP2 POP POP PUSH2 0x38D JUMP JUMPDEST POP DUP1 SWAP3 POP POP POP SWAP1 JUMP JUMPDEST CALLER PUSH20 0xFFFFFFFFFFFFFFFFFFFFFFFFFFFFFFFFFFFFFFFF AND PUSH1 0x0 PUSH1 0x2 SWAP1 SLOAD SWAP1 PUSH2 0x100 EXP SWAP1 DIV PUSH20 0xFFFFFFFFFFFFFFFFFFFFFFFFFFFFFFFFFFFFFFFF AND PUSH20 0xFFFFFFFFFFFFFFFFFFFFFFFFFFFFFFFFFFFFFFFF AND EQ PUSH2 0x5BA JUMPI PUSH1 0x40 MLOAD PUSH32 0x8C379A000000000000000000000000000000000000000000000000000000000 DUP2 MSTORE PUSH1 0x4 ADD PUSH2 0x5B1 SWAP1 PUSH2 0x13EC JUMP JUMPDEST PUSH1 0x40 MLOAD DUP1 SWAP2 SUB SWAP1 REVERT JUMPDEST DUP1 PUSH1 0x0 DUP1 PUSH2 0x100 EXP DUP2 SLOAD DUP2 PUSH2 0xFFFF MUL NOT AND SWAP1 DUP4 PUSH2 0xFFFF AND MUL OR SWAP1 SSTORE POP POP JUMP JUMPDEST PUSH1 0x0 DUP1 SLOAD SWAP1 PUSH2 0x100 EXP SWAP1 DIV PUSH2 0xFFFF AND DUP2 JUMP JUMPDEST PUSH1 0x0 DUP1 SLOAD SWAP1 PUSH2 0x100 EXP SWAP1 DIV PUSH2 0xFFFF AND PUSH2 0xFFFF AND DUP2 MLOAD GT ISZERO PUSH2 0x641 JUMPI PUSH1 0x40 MLOAD PUSH32 0x8C379A000000000000000000000000000000000000000000000000000000000 DUP2 MSTORE PUSH1 0x4 ADD PUSH2 0x638 SWAP1 PUSH2 0x1458 JUMP JUMPDEST PUSH1 0x40 MLOAD DUP1 SWAP2 SUB SWAP1 REVERT JUMPDEST PUSH1 0x0 PUSH1 0x40 MLOAD DUP1 PUSH1 0xA0 ADD PUSH1 0x40 MSTORE DUP1 PUSH1 0x1 SLOAD DUP2 MSTORE PUSH1 0x20 ADD CALLER PUSH20 0xFFFFFFFFFFFFFFFFFFFFFFFFFFFFFFFFFFFFFFFF AND DUP2 MSTORE PUSH1 0x20 ADD DUP4 DUP2 MSTORE PUSH1 0x20 ADD TIMESTAMP DUP2 MSTORE PUSH1 0x20 ADD PUSH1 0x0 DUP2 MSTORE POP SWAP1 POP DUP1 PUSH1 0x2 PUSH1 0x0 CALLER PUSH20 0xFFFFFFFFFFFFFFFFFFFFFFFFFFFFFFFFFFFFFFFF AND PUSH20 0xFFFFFFFFFFFFFFFFFFFFFFFFFFFFFFFFFFFFFFFF AND DUP2 MSTORE PUSH1 0x20 ADD SWAP1 DUP2 MSTORE PUSH1 0x20 ADD PUSH1 0x0 KECCAK256 PUSH1 0x0 PUSH1 0x1 SLOAD DUP2 MSTORE PUSH1 0x20 ADD SWAP1 DUP2 MSTORE PUSH1 0x20 ADD PUSH1 0x0 KECCAK256 PUSH1 0x0 DUP3 ADD MLOAD DUP2 PUSH1 0x0 ADD SSTORE PUSH1 0x20 DUP3 ADD MLOAD DUP2 PUSH1 0x1 ADD PUSH1 0x0 PUSH2 0x100 EXP DUP2 SLOAD DUP2 PUSH20 0xFFFFFFFFFFFFFFFFFFFFFFFFFFFFFFFFFFFFFFFF MUL NOT AND SWAP1 DUP4 PUSH20 0xFFFFFFFFFFFFFFFFFFFFFFFFFFFFFFFFFFFFFFFF AND MUL OR SWAP1 SSTORE POP PUSH1 0x40 DUP3 ADD MLOAD DUP2 PUSH1 0x2 ADD SWAP1 DUP2 PUSH2 0x73E SWAP2 SWAP1 PUSH2 0x1624 JUMP JUMPDEST POP PUSH1 0x60 DUP3 ADD MLOAD DUP2 PUSH1 0x3 ADD SSTORE PUSH1 0x80 DUP3 ADD MLOAD DUP2 PUSH1 0x4 ADD SSTORE SWAP1 POP POP PUSH1 0x1 PUSH1 0x0 DUP2 SLOAD DUP1 SWAP3 SWAP2 SWAP1 PUSH2 0x769 SWAP1 PUSH2 0x1725 JUMP JUMPDEST SWAP2 SWAP1 POP SSTORE POP PUSH1 0x3 PUSH1 0x0 CALLER PUSH20 0xFFFFFFFFFFFFFFFFFFFFFFFFFFFFFFFFFFFFFFFF AND PUSH20 0xFFFFFFFFFFFFFFFFFFFFFFFFFFFFFFFFFFFFFFFF AND DUP2 MSTORE PUSH1 0x20 ADD SWAP1 DUP2 MSTORE PUSH1 0x20 ADD PUSH1 0x0 KECCAK256 PUSH1 0x0 DUP2 SLOAD DUP1 SWAP3 SWAP2 SWAP1 PUSH2 0x7BE SWAP1 PUSH2 0x1725 JUMP JUMPDEST SWAP2 SWAP1 POP SSTORE POP POP POP JUMP JUMPDEST PUSH1 0x0 DUP1 PUSH1 0x2 SWAP1 SLOAD SWAP1 PUSH2 0x100 EXP SWAP1 DIV PUSH20 0xFFFFFFFFFFFFFFFFFFFFFFFFFFFFFFFFFFFFFFFF AND SWAP1 POP SWAP1 JUMP JUMPDEST PUSH1 0x0 PUSH1 0x2 PUSH1 0x0 DUP4 PUSH20 0xFFFFFFFFFFFFFFFFFFFFFFFFFFFFFFFFFFFFFFFF AND PUSH20 0xFFFFFFFFFFFFFFFFFFFFFFFFFFFFFFFFFFFFFFFF AND DUP2 MSTORE PUSH1 0x20 ADD SWAP1 DUP2 MSTORE PUSH1 0x20 ADD PUSH1 0x0 KECCAK256 PUSH1 0x0 DUP5 DUP2 MSTORE PUSH1 0x20 ADD SWAP1 DUP2 MSTORE PUSH1 0x20 ADD PUSH1 0x0 KECCAK256 PUSH1 0x4 ADD SLOAD GT PUSH2 0x886 JUMPI PUSH1 0x40 MLOAD PUSH32 0x8C379A000000000000000000000000000000000000000000000000000000000 DUP2 MSTORE PUSH1 0x4 ADD PUSH2 0x87D SWAP1 PUSH2 0x17B9 JUMP JUMPDEST PUSH1 0x40 MLOAD DUP1 SWAP2 SUB SWAP1 REVERT JUMPDEST PUSH1 0x2 PUSH1 0x0 DUP3 PUSH20 0xFFFFFFFFFFFFFFFFFFFFFFFFFFFFFFFFFFFFFFFF AND PUSH20 0xFFFFFFFFFFFFFFFFFFFFFFFFFFFFFFFFFFFFFFFF AND DUP2 MSTORE PUSH1 0x20 ADD SWAP1 DUP2 MSTORE PUSH1 0x20 ADD PUSH1 0x0 KECCAK256 PUSH1 0x0 DUP4 DUP2 MSTORE PUSH1 0x20 ADD SWAP1 DUP2 MSTORE PUSH1 0x20 ADD PUSH1 0x0 KECCAK256 PUSH1 0x4 ADD PUSH1 0x0 DUP2 SLOAD DUP1 SWAP3 SWAP2 SWAP1 PUSH2 0x8EA SWAP1 PUSH2 0x17D9 JUMP JUMPDEST SWAP2 SWAP1 POP SSTORE POP POP POP JUMP JUMPDEST PUSH2 0x8FB PUSH2 0xB7D JUMP JUMPDEST PUSH1 0x2 PUSH1 0x0 CALLER PUSH20 0xFFFFFFFFFFFFFFFFFFFFFFFFFFFFFFFFFFFFFFFF AND PUSH20 0xFFFFFFFFFFFFFFFFFFFFFFFFFFFFFFFFFFFFFFFF AND DUP2 MSTORE PUSH1 0x20 ADD SWAP1 DUP2 MSTORE PUSH1 0x20 ADD PUSH1 0x0 KECCAK256 PUSH1 0x0 DUP4 DUP2 MSTORE PUSH1 0x20 ADD SWAP1 DUP2 MSTORE PUSH1 0x20 ADD PUSH1 0x0 KECCAK256 PUSH1 0x40 MLOAD DUP1 PUSH1 0xA0 ADD PUSH1 0x40 MSTORE SWAP1 DUP2 PUSH1 0x0 DUP3 ADD SLOAD DUP2 MSTORE PUSH1 0x20 ADD PUSH1 0x1 DUP3 ADD PUSH1 0x0 SWAP1 SLOAD SWAP1 PUSH2 0x100 EXP SWAP1 DIV PUSH20 0xFFFFFFFFFFFFFFFFFFFFFFFFFFFFFFFFFFFFFFFF AND PUSH20 0xFFFFFFFFFFFFFFFFFFFFFFFFFFFFFFFFFFFFFFFF AND PUSH20 0xFFFFFFFFFFFFFFFFFFFFFFFFFFFFFFFFFFFFFFFF AND DUP2 MSTORE PUSH1 0x20 ADD PUSH1 0x2 DUP3 ADD DUP1 SLOAD PUSH2 0x9C6 SWAP1 PUSH2 0x131A JUMP JUMPDEST DUP1 PUSH1 0x1F ADD PUSH1 0x20 DUP1 SWAP2 DIV MUL PUSH1 0x20 ADD PUSH1 0x40 MLOAD SWAP1 DUP2 ADD PUSH1 0x40 MSTORE DUP1 SWAP3 SWAP2 SWAP1 DUP2 DUP2 MSTORE PUSH1 0x20 ADD DUP3 DUP1 SLOAD PUSH2 0x9F2 SWAP1 PUSH2 0x131A JUMP JUMPDEST DUP1 ISZERO PUSH2 0xA3F JUMPI DUP1 PUSH1 0x1F LT PUSH2 0xA14 JUMPI PUSH2 0x100 DUP1 DUP4 SLOAD DIV MUL DUP4 MSTORE SWAP2 PUSH1 0x20 ADD SWAP2 PUSH2 0xA3F JUMP JUMPDEST DUP3 ADD SWAP2 SWAP1 PUSH1 0x0 MSTORE PUSH1 0x20 PUSH1 0x0 KECCAK256 SWAP1 JUMPDEST DUP2 SLOAD DUP2 MSTORE SWAP1 PUSH1 0x1 ADD SWAP1 PUSH1 0x20 ADD DUP1 DUP4 GT PUSH2 0xA22 JUMPI DUP3 SWAP1 SUB PUSH1 0x1F AND DUP3 ADD SWAP2 JUMPDEST POP POP POP POP POP DUP2 MSTORE PUSH1 0x20 ADD PUSH1 0x3 DUP3 ADD SLOAD DUP2 MSTORE PUSH1 0x20 ADD PUSH1 0x4 DUP3 ADD SLOAD DUP2 MSTORE POP POP SWAP1 POP SWAP2 SWAP1 POP JUMP JUMPDEST PUSH1 0x3 PUSH1 0x20 MSTORE DUP1 PUSH1 0x0 MSTORE PUSH1 0x40 PUSH1 0x0 KECCAK256 PUSH1 0x0 SWAP2 POP SWAP1 POP SLOAD DUP2 JUMP JUMPDEST DUP2 PUSH1 0x2 PUSH1 0x0 DUP4 PUSH20 0xFFFFFFFFFFFFFFFFFFFFFFFFFFFFFFFFFFFFFFFF AND PUSH20 0xFFFFFFFFFFFFFFFFFFFFFFFFFFFFFFFFFFFFFFFF AND DUP2 MSTORE PUSH1 0x20 ADD SWAP1 DUP2 MSTORE PUSH1 0x20 ADD PUSH1 0x0 KECCAK256 PUSH1 0x0 DUP5 DUP2 MSTORE PUSH1 0x20 ADD SWAP1 DUP2 MSTORE PUSH1 0x20 ADD PUSH1 0x0 KECCAK256 PUSH1 0x0 ADD SLOAD EQ PUSH2 0xB10 JUMPI PUSH1 0x40 MLOAD PUSH32 0x8C379A000000000000000000000000000000000000000000000000000000000 DUP2 MSTORE PUSH1 0x4 ADD PUSH2 0xB07 SWAP1 PUSH2 0x184E JUMP JUMPDEST PUSH1 0x40 MLOAD DUP1 SWAP2 SUB SWAP1 REVERT JUMPDEST PUSH1 0x2 PUSH1 0x0 DUP3 PUSH20 0xFFFFFFFFFFFFFFFFFFFFFFFFFFFFFFFFFFFFFFFF AND PUSH20 0xFFFFFFFFFFFFFFFFFFFFFFFFFFFFFFFFFFFFFFFF AND DUP2 MSTORE PUSH1 0x20 ADD SWAP1 DUP2 MSTORE PUSH1 0x20 ADD PUSH1 0x0 KECCAK256 PUSH1 0x0 DUP4 DUP2 MSTORE PUSH1 0x20 ADD SWAP1 DUP2 MSTORE PUSH1 0x20 ADD PUSH1 0x0 KECCAK256 PUSH1 0x4 ADD PUSH1 0x0 DUP2 SLOAD DUP1 SWAP3 SWAP2 SWAP1 PUSH2 0xB74 SWAP1 PUSH2 0x1725 JUMP JUMPDEST SWAP2 SWAP1 POP SSTORE POP POP POP JUMP JUMPDEST PUSH1 0x40 MLOAD DUP1 PUSH1 0xA0 ADD PUSH1 0x40 MSTORE DUP1 PUSH1 0x0 DUP2 MSTORE PUSH1 0x20 ADD PUSH1 0x0 PUSH20 0xFFFFFFFFFFFFFFFFFFFFFFFFFFFFFFFFFFFFFFFF AND DUP2 MSTORE PUSH1 0x20 ADD PUSH1 0x60 DUP2 MSTORE PUSH1 0x20 ADD PUSH1 0x0 DUP2 MSTORE PUSH1 0x20 ADD PUSH1 0x0 DUP2 MSTORE POP SWAP1 JUMP JUMPDEST PUSH1 0x0 PUSH1 0x40 MLOAD SWAP1 POP SWAP1 JUMP JUMPDEST PUSH1 0x0 DUP1 REVERT JUMPDEST PUSH1 0x0 DUP1 REVERT JUMPDEST PUSH1 0x0 PUSH20 0xFFFFFFFFFFFFFFFFFFFFFFFFFFFFFFFFFFFFFFFF DUP3 AND SWAP1 POP SWAP2 SWAP1 POP JUMP JUMPDEST PUSH1 0x0 PUSH2 0xC01 DUP3 PUSH2 0xBD6 JUMP JUMPDEST SWAP1 POP SWAP2 SWAP1 POP JUMP JUMPDEST PUSH2 0xC11 DUP2 PUSH2 0xBF6 JUMP JUMPDEST DUP2 EQ PUSH2 0xC1C JUMPI PUSH1 0x0 DUP1 REVERT JUMPDEST POP JUMP JUMPDEST PUSH1 0x0 DUP2 CALLDATALOAD SWAP1 POP PUSH2 0xC2E DUP2 PUSH2 0xC08 JUMP JUMPDEST SWAP3 SWAP2 POP POP JUMP JUMPDEST PUSH1 0x0 DUP2 SWAP1 POP SWAP2 SWAP1 POP JUMP JUMPDEST PUSH2 0xC47 DUP2 PUSH2 0xC34 JUMP JUMPDEST DUP2 EQ PUSH2 0xC52 JUMPI PUSH1 0x0 DUP1 REVERT JUMPDEST POP JUMP JUMPDEST PUSH1 0x0 DUP2 CALLDATALOAD SWAP1 POP PUSH2 0xC64 DUP2 PUSH2 0xC3E JUMP JUMPDEST SWAP3 SWAP2 POP POP JUMP JUMPDEST PUSH1 0x0 DUP1 PUSH1 0x40 DUP4 DUP6 SUB SLT ISZERO PUSH2 0xC81 JUMPI PUSH2 0xC80 PUSH2 0xBCC JUMP JUMPDEST JUMPDEST PUSH1 0x0 PUSH2 0xC8F DUP6 DUP3 DUP7 ADD PUSH2 0xC1F JUMP JUMPDEST SWAP3 POP POP PUSH1 0x20 PUSH2 0xCA0 DUP6 DUP3 DUP7 ADD PUSH2 0xC55 JUMP JUMPDEST SWAP2 POP POP SWAP3 POP SWAP3 SWAP1 POP JUMP JUMPDEST PUSH2 0xCB3 DUP2 PUSH2 0xC34 JUMP JUMPDEST DUP3 MSTORE POP POP JUMP JUMPDEST PUSH2 0xCC2 DUP2 PUSH2 0xBF6 JUMP JUMPDEST DUP3 MSTORE POP POP JUMP JUMPDEST PUSH1 0x0 DUP2 MLOAD SWAP1 POP SWAP2 SWAP1 POP JUMP JUMPDEST PUSH1 0x0 DUP3 DUP3 MSTORE PUSH1 0x20 DUP3 ADD SWAP1 POP SWAP3 SWAP2 POP POP JUMP JUMPDEST PUSH1 0x0 JUMPDEST DUP4 DUP2 LT ISZERO PUSH2 0xD02 JUMPI DUP1 DUP3 ADD MLOAD DUP2 DUP5 ADD MSTORE PUSH1 0x20 DUP2 ADD SWAP1 POP PUSH2 0xCE7 JUMP JUMPDEST PUSH1 0x0 DUP5 DUP5 ADD MSTORE POP POP POP POP JUMP JUMPDEST PUSH1 0x0 PUSH1 0x1F NOT PUSH1 0x1F DUP4 ADD AND SWAP1 POP SWAP2 SWAP1 POP JUMP JUMPDEST PUSH1 0x0 PUSH2 0xD2A DUP3 PUSH2 0xCC8 JUMP JUMPDEST PUSH2 0xD34 DUP2 DUP6 PUSH2 0xCD3 JUMP JUMPDEST SWAP4 POP PUSH2 0xD44 DUP2 DUP6 PUSH1 0x20 DUP7 ADD PUSH2 0xCE4 JUMP JUMPDEST PUSH2 0xD4D DUP2 PUSH2 0xD0E JUMP JUMPDEST DUP5 ADD SWAP2 POP POP SWAP3 SWAP2 POP POP JUMP JUMPDEST PUSH1 0x0 PUSH1 0xA0 DUP3 ADD SWAP1 POP PUSH2 0xD6D PUSH1 0x0 DUP4 ADD DUP9 PUSH2 0xCAA JUMP JUMPDEST PUSH2 0xD7A PUSH1 0x20 DUP4 ADD DUP8 PUSH2 0xCB9 JUMP JUMPDEST DUP2 DUP2 SUB PUSH1 0x40 DUP4 ADD MSTORE PUSH2 0xD8C DUP2 DUP7 PUSH2 0xD1F JUMP JUMPDEST SWAP1 POP PUSH2 0xD9B PUSH1 0x60 DUP4 ADD DUP6 PUSH2 0xCAA JUMP JUMPDEST PUSH2 0xDA8 PUSH1 0x80 DUP4 ADD DUP5 PUSH2 0xCAA JUMP JUMPDEST SWAP7 SWAP6 POP POP POP POP POP POP JUMP JUMPDEST PUSH1 0x0 DUP2 MLOAD SWAP1 POP SWAP2 SWAP1 POP JUMP JUMPDEST PUSH1 0x0 DUP3 DUP3 MSTORE PUSH1 0x20 DUP3 ADD SWAP1 POP SWAP3 SWAP2 POP POP JUMP JUMPDEST PUSH1 0x0 DUP2 SWAP1 POP PUSH1 0x20 DUP3 ADD SWAP1 POP SWAP2 SWAP1 POP JUMP JUMPDEST PUSH2 0xDE7 DUP2 PUSH2 0xC34 JUMP JUMPDEST DUP3 MSTORE POP POP JUMP JUMPDEST PUSH2 0xDF6 DUP2 PUSH2 0xBF6 JUMP JUMPDEST DUP3 MSTORE POP POP JUMP JUMPDEST PUSH1 0x0 DUP3 DUP3 MSTORE PUSH1 0x20 DUP3 ADD SWAP1 POP SWAP3 SWAP2 POP POP JUMP JUMPDEST PUSH1 0x0 PUSH2 0xE18 DUP3 PUSH2 0xCC8 JUMP JUMPDEST PUSH2 0xE22 DUP2 DUP6 PUSH2 0xDFC JUMP JUMPDEST SWAP4 POP PUSH2 0xE32 DUP2 DUP6 PUSH1 0x20 DUP7 ADD PUSH2 0xCE4 JUMP JUMPDEST PUSH2 0xE3B DUP2 PUSH2 0xD0E JUMP JUMPDEST DUP5 ADD SWAP2 POP POP SWAP3 SWAP2 POP POP JUMP JUMPDEST PUSH1 0x0 PUSH1 0xA0 DUP4 ADD PUSH1 0x0 DUP4 ADD MLOAD PUSH2 0xE5E PUSH1 0x0 DUP7 ADD DUP3 PUSH2 0xDDE JUMP JUMPDEST POP PUSH1 0x20 DUP4 ADD MLOAD PUSH2 0xE71 PUSH1 0x20 DUP7 ADD DUP3 PUSH2 0xDED JUMP JUMPDEST POP PUSH1 0x40 DUP4 ADD MLOAD DUP5 DUP3 SUB PUSH1 0x40 DUP7 ADD MSTORE PUSH2 0xE89 DUP3 DUP3 PUSH2 0xE0D JUMP JUMPDEST SWAP2 POP POP PUSH1 0x60 DUP4 ADD MLOAD PUSH2 0xE9E PUSH1 0x60 DUP7 ADD DUP3 PUSH2 0xDDE JUMP JUMPDEST POP PUSH1 0x80 DUP4 ADD MLOAD PUSH2 0xEB1 PUSH1 0x80 DUP7 ADD DUP3 PUSH2 0xDDE JUMP JUMPDEST POP DUP1 SWAP2 POP POP SWAP3 SWAP2 POP POP JUMP JUMPDEST PUSH1 0x0 PUSH2 0xEC8 DUP4 DUP4 PUSH2 0xE46 JUMP JUMPDEST SWAP1 POP SWAP3 SWAP2 POP POP JUMP JUMPDEST PUSH1 0x0 PUSH1 0x20 DUP3 ADD SWAP1 POP SWAP2 SWAP1 POP JUMP JUMPDEST PUSH1 0x0 PUSH2 0xEE8 DUP3 PUSH2 0xDB2 JUMP JUMPDEST PUSH2 0xEF2 DUP2 DUP6 PUSH2 0xDBD JUMP JUMPDEST SWAP4 POP DUP4 PUSH1 0x20 DUP3 MUL DUP6 ADD PUSH2 0xF04 DUP6 PUSH2 0xDCE JUMP JUMPDEST DUP1 PUSH1 0x0 JUMPDEST DUP6 DUP2 LT ISZERO PUSH2 0xF40 JUMPI DUP5 DUP5 SUB DUP10 MSTORE DUP2 MLOAD PUSH2 0xF21 DUP6 DUP3 PUSH2 0xEBC JUMP JUMPDEST SWAP5 POP PUSH2 0xF2C DUP4 PUSH2 0xED0 JUMP JUMPDEST SWAP3 POP PUSH1 0x20 DUP11 ADD SWAP10 POP POP PUSH1 0x1 DUP2 ADD SWAP1 POP PUSH2 0xF08 JUMP JUMPDEST POP DUP3 SWAP8 POP DUP8 SWAP6 POP POP POP POP POP POP SWAP3 SWAP2 POP POP JUMP JUMPDEST PUSH1 0x0 PUSH1 0x20 DUP3 ADD SWAP1 POP DUP2 DUP2 SUB PUSH1 0x0 DUP4 ADD MSTORE PUSH2 0xF6C DUP2 DUP5 PUSH2 0xEDD JUMP JUMPDEST SWAP1 POP SWAP3 SWAP2 POP POP JUMP JUMPDEST PUSH1 0x0 PUSH2 0xFFFF DUP3 AND SWAP1 POP SWAP2 SWAP1 POP JUMP JUMPDEST PUSH2 0xF8B DUP2 PUSH2 0xF74 JUMP JUMPDEST DUP2 EQ PUSH2 0xF96 JUMPI PUSH1 0x0 DUP1 REVERT JUMPDEST POP JUMP JUMPDEST PUSH1 0x0 DUP2 CALLDATALOAD SWAP1 POP PUSH2 0xFA8 DUP2 PUSH2 0xF82 JUMP JUMPDEST SWAP3 SWAP2 POP POP JUMP JUMPDEST PUSH1 0x0 PUSH1 0x20 DUP3 DUP5 SUB SLT ISZERO PUSH2 0xFC4 JUMPI PUSH2 0xFC3 PUSH2 0xBCC JUMP JUMPDEST JUMPDEST PUSH1 0x0 PUSH2 0xFD2 DUP5 DUP3 DUP6 ADD PUSH2 0xF99 JUMP JUMPDEST SWAP2 POP POP SWAP3 SWAP2 POP POP JUMP JUMPDEST PUSH2 0xFE4 DUP2 PUSH2 0xF74 JUMP JUMPDEST DUP3 MSTORE POP POP JUMP JUMPDEST PUSH1 0x0 PUSH1 0x20 DUP3 ADD SWAP1 POP PUSH2 0xFFF PUSH1 0x0 DUP4 ADD DUP5 PUSH2 0xFDB JUMP JUMPDEST SWAP3 SWAP2 POP POP JUMP JUMPDEST PUSH1 0x0 DUP1 REVERT JUMPDEST PUSH1 0x0 DUP1 REVERT JUMPDEST PUSH32 0x4E487B7100000000000000000000000000000000000000000000000000000000 PUSH1 0x0 MSTORE PUSH1 0x41 PUSH1 0x4 MSTORE PUSH1 0x24 PUSH1 0x0 REVERT JUMPDEST PUSH2 0x1047 DUP3 PUSH2 0xD0E JUMP JUMPDEST DUP2 ADD DUP2 DUP2 LT PUSH8 0xFFFFFFFFFFFFFFFF DUP3 GT OR ISZERO PUSH2 0x1066 JUMPI PUSH2 0x1065 PUSH2 0x100F JUMP JUMPDEST JUMPDEST DUP1 PUSH1 0x40 MSTORE POP POP POP JUMP JUMPDEST PUSH1 0x0 PUSH2 0x1079 PUSH2 0xBC2 JUMP JUMPDEST SWAP1 POP PUSH2 0x1085 DUP3 DUP3 PUSH2 0x103E JUMP JUMPDEST SWAP2 SWAP1 POP JUMP JUMPDEST PUSH1 0x0 PUSH8 0xFFFFFFFFFFFFFFFF DUP3 GT ISZERO PUSH2 0x10A5 JUMPI PUSH2 0x10A4 PUSH2 0x100F JUMP JUMPDEST JUMPDEST PUSH2 0x10AE DUP3 PUSH2 0xD0E JUMP JUMPDEST SWAP1 POP PUSH1 0x20 DUP2 ADD SWAP1 POP SWAP2 SWAP1 POP JUMP JUMPDEST DUP3 DUP2 DUP4 CALLDATACOPY PUSH1 0x0 DUP4 DUP4 ADD MSTORE POP POP POP JUMP JUMPDEST PUSH1 0x0 PUSH2 0x10DD PUSH2 0x10D8 DUP5 PUSH2 0x108A JUMP JUMPDEST PUSH2 0x106F JUMP JUMPDEST SWAP1 POP DUP3 DUP2 MSTORE PUSH1 0x20 DUP2 ADD DUP5 DUP5 DUP5 ADD GT ISZERO PUSH2 0x10F9 JUMPI PUSH2 0x10F8 PUSH2 0x100A JUMP JUMPDEST JUMPDEST PUSH2 0x1104 DUP5 DUP3 DUP6 PUSH2 0x10BB JUMP JUMPDEST POP SWAP4 SWAP3 POP POP POP JUMP JUMPDEST PUSH1 0x0 DUP3 PUSH1 0x1F DUP4 ADD SLT PUSH2 0x1121 JUMPI PUSH2 0x1120 PUSH2 0x1005 JUMP JUMPDEST JUMPDEST DUP2 CALLDATALOAD PUSH2 0x1131 DUP5 DUP3 PUSH1 0x20 DUP7 ADD PUSH2 0x10CA JUMP JUMPDEST SWAP2 POP POP SWAP3 SWAP2 POP POP JUMP JUMPDEST PUSH1 0x0 PUSH1 0x20 DUP3 DUP5 SUB SLT ISZERO PUSH2 0x1150 JUMPI PUSH2 0x114F PUSH2 0xBCC JUMP JUMPDEST JUMPDEST PUSH1 0x0 DUP3 ADD CALLDATALOAD PUSH8 0xFFFFFFFFFFFFFFFF DUP2 GT ISZERO PUSH2 0x116E JUMPI PUSH2 0x116D PUSH2 0xBD1 JUMP JUMPDEST JUMPDEST PUSH2 0x117A DUP5 DUP3 DUP6 ADD PUSH2 0x110C JUMP JUMPDEST SWAP2 POP POP SWAP3 SWAP2 POP POP JUMP JUMPDEST PUSH1 0x0 PUSH1 0x20 DUP3 ADD SWAP1 POP PUSH2 0x1198 PUSH1 0x0 DUP4 ADD DUP5 PUSH2 0xCB9 JUMP JUMPDEST SWAP3 SWAP2 POP POP JUMP JUMPDEST PUSH1 0x0 DUP1 PUSH1 0x40 DUP4 DUP6 SUB SLT ISZERO PUSH2 0x11B5 JUMPI PUSH2 0x11B4 PUSH2 0xBCC JUMP JUMPDEST JUMPDEST PUSH1 0x0 PUSH2 0x11C3 DUP6 DUP3 DUP7 ADD PUSH2 0xC55 JUMP JUMPDEST SWAP3 POP POP PUSH1 0x20 PUSH2 0x11D4 DUP6 DUP3 DUP7 ADD PUSH2 0xC1F JUMP JUMPDEST SWAP2 POP POP SWAP3 POP SWAP3 SWAP1 POP JUMP JUMPDEST PUSH1 0x0 PUSH1 0x20 DUP3 DUP5 SUB SLT ISZERO PUSH2 0x11F4 JUMPI PUSH2 0x11F3 PUSH2 0xBCC JUMP JUMPDEST JUMPDEST PUSH1 0x0 PUSH2 0x1202 DUP5 DUP3 DUP6 ADD PUSH2 0xC55 JUMP JUMPDEST SWAP2 POP POP SWAP3 SWAP2 POP POP JUMP JUMPDEST PUSH1 0x0 PUSH1 0xA0 DUP4 ADD PUSH1 0x0 DUP4 ADD MLOAD PUSH2 0x1223 PUSH1 0x0 DUP7 ADD DUP3 PUSH2 0xDDE JUMP JUMPDEST POP PUSH1 0x20 DUP4 ADD MLOAD PUSH2 0x1236 PUSH1 0x20 DUP7 ADD DUP3 PUSH2 0xDED JUMP JUMPDEST POP PUSH1 0x40 DUP4 ADD MLOAD DUP5 DUP3 SUB PUSH1 0x40 DUP7 ADD MSTORE PUSH2 0x124E DUP3 DUP3 PUSH2 0xE0D JUMP JUMPDEST SWAP2 POP POP PUSH1 0x60 DUP4 ADD MLOAD PUSH2 0x1263 PUSH1 0x60 DUP7 ADD DUP3 PUSH2 0xDDE JUMP JUMPDEST POP PUSH1 0x80 DUP4 ADD MLOAD PUSH2 0x1276 PUSH1 0x80 DUP7 ADD DUP3 PUSH2 0xDDE JUMP JUMPDEST POP DUP1 SWAP2 POP POP SWAP3 SWAP2 POP POP JUMP JUMPDEST PUSH1 0x0 PUSH1 0x20 DUP3 ADD SWAP1 POP DUP2 DUP2 SUB PUSH1 0x0 DUP4 ADD MSTORE PUSH2 0x129B DUP2 DUP5 PUSH2 0x120B JUMP JUMPDEST SWAP1 POP SWAP3 SWAP2 POP POP JUMP JUMPDEST PUSH1 0x0 PUSH1 0x20 DUP3 DUP5 SUB SLT ISZERO PUSH2 0x12B9 JUMPI PUSH2 0x12B8 PUSH2 0xBCC JUMP JUMPDEST JUMPDEST PUSH1 0x0 PUSH2 0x12C7 DUP5 DUP3 DUP6 ADD PUSH2 0xC1F JUMP JUMPDEST SWAP2 POP POP SWAP3 SWAP2 POP POP JUMP JUMPDEST PUSH1 0x0 PUSH1 0x20 DUP3 ADD SWAP1 POP PUSH2 0x12E5 PUSH1 0x0 DUP4 ADD DUP5 PUSH2 0xCAA JUMP JUMPDEST SWAP3 SWAP2 POP POP JUMP JUMPDEST PUSH32 0x4E487B7100000000000000000000000000000000000000000000000000000000 PUSH1 0x0 MSTORE PUSH1 0x22 PUSH1 0x4 MSTORE PUSH1 0x24 PUSH1 0x0 REVERT JUMPDEST PUSH1 0x0 PUSH1 0x2 DUP3 DIV SWAP1 POP PUSH1 0x1 DUP3 AND DUP1 PUSH2 0x1332 JUMPI PUSH1 0x7F DUP3 AND SWAP2 POP JUMPDEST PUSH1 0x20 DUP3 LT DUP2 SUB PUSH2 0x1345 JUMPI PUSH2 0x1344 PUSH2 0x12EB JUMP JUMPDEST JUMPDEST POP SWAP2 SWAP1 POP JUMP JUMPDEST PUSH32 0x4E487B7100000000000000000000000000000000000000000000000000000000 PUSH1 0x0 MSTORE PUSH1 0x32 PUSH1 0x4 MSTORE PUSH1 0x24 PUSH1 0x0 REVERT JUMPDEST PUSH32 0x4F6E6C79206F776E65722063616E206368616E67652074686520747765657420 PUSH1 0x0 DUP3 ADD MSTORE PUSH32 0x6C656E6774680000000000000000000000000000000000000000000000000000 PUSH1 0x20 DUP3 ADD MSTORE POP JUMP JUMPDEST PUSH1 0x0 PUSH2 0x13D6 PUSH1 0x26 DUP4 PUSH2 0xCD3 JUMP JUMPDEST SWAP2 POP PUSH2 0x13E1 DUP3 PUSH2 0x137A JUMP JUMPDEST PUSH1 0x40 DUP3 ADD SWAP1 POP SWAP2 SWAP1 POP JUMP JUMPDEST PUSH1 0x0 PUSH1 0x20 DUP3 ADD SWAP1 POP DUP2 DUP2 SUB PUSH1 0x0 DUP4 ADD MSTORE PUSH2 0x1405 DUP2 PUSH2 0x13C9 JUMP JUMPDEST SWAP1 POP SWAP2 SWAP1 POP JUMP JUMPDEST PUSH32 0x547765657420636F6E74656E74206973206C656E677468790000000000000000 PUSH1 0x0 DUP3 ADD MSTORE POP JUMP JUMPDEST PUSH1 0x0 PUSH2 0x1442 PUSH1 0x18 DUP4 PUSH2 0xCD3 JUMP JUMPDEST SWAP2 POP PUSH2 0x144D DUP3 PUSH2 0x140C JUMP JUMPDEST PUSH1 0x20 DUP3 ADD SWAP1 POP SWAP2 SWAP1 POP JUMP JUMPDEST PUSH1 0x0 PUSH1 0x20 DUP3 ADD SWAP1 POP DUP2 DUP2 SUB PUSH1 0x0 DUP4 ADD MSTORE PUSH2 0x1471 DUP2 PUSH2 0x1435 JUMP JUMPDEST SWAP1 POP SWAP2 SWAP1 POP JUMP JUMPDEST PUSH1 0x0 DUP2 SWAP1 POP DUP2 PUSH1 0x0 MSTORE PUSH1 0x20 PUSH1 0x0 KECCAK256 SWAP1 POP SWAP2 SWAP1 POP JUMP JUMPDEST PUSH1 0x0 PUSH1 0x20 PUSH1 0x1F DUP4 ADD DIV SWAP1 POP SWAP2 SWAP1 POP JUMP JUMPDEST PUSH1 0x0 DUP3 DUP3 SHL SWAP1 POP SWAP3 SWAP2 POP POP JUMP JUMPDEST PUSH1 0x0 PUSH1 0x8 DUP4 MUL PUSH2 0x14DA PUSH32 0xFFFFFFFFFFFFFFFFFFFFFFFFFFFFFFFFFFFFFFFFFFFFFFFFFFFFFFFFFFFFFFFF DUP3 PUSH2 0x149D JUMP JUMPDEST PUSH2 0x14E4 DUP7 DUP4 PUSH2 0x149D JUMP JUMPDEST SWAP6 POP DUP1 NOT DUP5 AND SWAP4 POP DUP1 DUP7 AND DUP5 OR SWAP3 POP POP POP SWAP4 SWAP3 POP POP POP JUMP JUMPDEST PUSH1 0x0 DUP2 SWAP1 POP SWAP2 SWAP1 POP JUMP JUMPDEST PUSH1 0x0 PUSH2 0x1521 PUSH2 0x151C PUSH2 0x1517 DUP5 PUSH2 0xC34 JUMP JUMPDEST PUSH2 0x14FC JUMP JUMPDEST PUSH2 0xC34 JUMP JUMPDEST SWAP1 POP SWAP2 SWAP1 POP JUMP JUMPDEST PUSH1 0x0 DUP2 SWAP1 POP SWAP2 SWAP1 POP JUMP JUMPDEST PUSH2 0x153B DUP4 PUSH2 0x1506 JUMP JUMPDEST PUSH2 0x154F PUSH2 0x1547 DUP3 PUSH2 0x1528 JUMP JUMPDEST DUP5 DUP5 SLOAD PUSH2 0x14AA JUMP JUMPDEST DUP3 SSTORE POP POP POP POP JUMP JUMPDEST PUSH1 0x0 SWAP1 JUMP JUMPDEST PUSH2 0x1564 PUSH2 0x1557 JUMP JUMPDEST PUSH2 0x156F DUP2 DUP5 DUP5 PUSH2 0x1532 JUMP JUMPDEST POP POP POP JUMP JUMPDEST JUMPDEST DUP2 DUP2 LT ISZERO PUSH2 0x1593 JUMPI PUSH2 0x1588 PUSH1 0x0 DUP3 PUSH2 0x155C JUMP JUMPDEST PUSH1 0x1 DUP2 ADD SWAP1 POP PUSH2 0x1575 JUMP JUMPDEST POP POP JUMP JUMPDEST PUSH1 0x1F DUP3 GT ISZERO PUSH2 0x15D8 JUMPI PUSH2 0x15A9 DUP2 PUSH2 0x1478 JUMP JUMPDEST PUSH2 0x15B2 DUP5 PUSH2 0x148D JUMP JUMPDEST DUP2 ADD PUSH1 0x20 DUP6 LT ISZERO PUSH2 0x15C1 JUMPI DUP2 SWAP1 POP JUMPDEST PUSH2 0x15D5 PUSH2 0x15CD DUP6 PUSH2 0x148D JUMP JUMPDEST DUP4 ADD DUP3 PUSH2 0x1574 JUMP JUMPDEST POP POP JUMPDEST POP POP POP JUMP JUMPDEST PUSH1 0x0 DUP3 DUP3 SHR SWAP1 POP SWAP3 SWAP2 POP POP JUMP JUMPDEST PUSH1 0x0 PUSH2 0x15FB PUSH1 0x0 NOT DUP5 PUSH1 0x8 MUL PUSH2 0x15DD JUMP JUMPDEST NOT DUP1 DUP4 AND SWAP2 POP POP SWAP3 SWAP2 POP POP JUMP JUMPDEST PUSH1 0x0 PUSH2 0x1614 DUP4 DUP4 PUSH2 0x15EA JUMP JUMPDEST SWAP2 POP DUP3 PUSH1 0x2 MUL DUP3 OR SWAP1 POP SWAP3 SWAP2 POP POP JUMP JUMPDEST PUSH2 0x162D DUP3 PUSH2 0xCC8 JUMP JUMPDEST PUSH8 0xFFFFFFFFFFFFFFFF DUP2 GT ISZERO PUSH2 0x1646 JUMPI PUSH2 0x1645 PUSH2 0x100F JUMP JUMPDEST JUMPDEST PUSH2 0x1650 DUP3 SLOAD PUSH2 0x131A JUMP JUMPDEST PUSH2 0x165B DUP3 DUP3 DUP6 PUSH2 0x1597 JUMP JUMPDEST PUSH1 0x0 PUSH1 0x20 SWAP1 POP PUSH1 0x1F DUP4 GT PUSH1 0x1 DUP2 EQ PUSH2 0x168E JUMPI PUSH1 0x0 DUP5 ISZERO PUSH2 0x167C JUMPI DUP3 DUP8 ADD MLOAD SWAP1 POP JUMPDEST PUSH2 0x1686 DUP6 DUP3 PUSH2 0x1608 JUMP JUMPDEST DUP7 SSTORE POP PUSH2 0x16EE JUMP JUMPDEST PUSH1 0x1F NOT DUP5 AND PUSH2 0x169C DUP7 PUSH2 0x1478 JUMP JUMPDEST PUSH1 0x0 JUMPDEST DUP3 DUP2 LT ISZERO PUSH2 0x16C4 JUMPI DUP5 DUP10 ADD MLOAD DUP3 SSTORE PUSH1 0x1 DUP3 ADD SWAP2 POP PUSH1 0x20 DUP6 ADD SWAP5 POP PUSH1 0x20 DUP2 ADD SWAP1 POP PUSH2 0x169F JUMP JUMPDEST DUP7 DUP4 LT ISZERO PUSH2 0x16E1 JUMPI DUP5 DUP10 ADD MLOAD PUSH2 0x16DD PUSH1 0x1F DUP10 AND DUP3 PUSH2 0x15EA JUMP JUMPDEST DUP4 SSTORE POP JUMPDEST PUSH1 0x1 PUSH1 0x2 DUP9 MUL ADD DUP9 SSTORE POP POP POP JUMPDEST POP POP POP POP POP POP JUMP JUMPDEST PUSH32 0x4E487B7100000000000000000000000000000000000000000000000000000000 PUSH1 0x0 MSTORE PUSH1 0x11 PUSH1 0x4 MSTORE PUSH1 0x24 PUSH1 0x0 REVERT JUMPDEST PUSH1 0x0 PUSH2 0x1730 DUP3 PUSH2 0xC34 JUMP JUMPDEST SWAP2 POP PUSH32 0xFFFFFFFFFFFFFFFFFFFFFFFFFFFFFFFFFFFFFFFFFFFFFFFFFFFFFFFFFFFFFFFF DUP3 SUB PUSH2 0x1762 JUMPI PUSH2 0x1761 PUSH2 0x16F6 JUMP JUMPDEST JUMPDEST PUSH1 0x1 DUP3 ADD SWAP1 POP SWAP2 SWAP1 POP JUMP JUMPDEST PUSH32 0x4C696B65732068617665206E6F74206164646564207965740000000000000000 PUSH1 0x0 DUP3 ADD MSTORE POP JUMP JUMPDEST PUSH1 0x0 PUSH2 0x17A3 PUSH1 0x18 DUP4 PUSH2 0xCD3 JUMP JUMPDEST SWAP2 POP PUSH2 0x17AE DUP3 PUSH2 0x176D JUMP JUMPDEST PUSH1 0x20 DUP3 ADD SWAP1 POP SWAP2 SWAP1 POP JUMP JUMPDEST PUSH1 0x0 PUSH1 0x20 DUP3 ADD SWAP1 POP DUP2 DUP2 SUB PUSH1 0x0 DUP4 ADD MSTORE PUSH2 0x17D2 DUP2 PUSH2 0x1796 JUMP JUMPDEST SWAP1 POP SWAP2 SWAP1 POP JUMP JUMPDEST PUSH1 0x0 PUSH2 0x17E4 DUP3 PUSH2 0xC34 JUMP JUMPDEST SWAP2 POP PUSH1 0x0 DUP3 SUB PUSH2 0x17F7 JUMPI PUSH2 0x17F6 PUSH2 0x16F6 JUMP JUMPDEST JUMPDEST PUSH1 0x1 DUP3 SUB SWAP1 POP SWAP2 SWAP1 POP JUMP JUMPDEST PUSH32 0x547765657420646F6573206E6F74206578697374000000000000000000000000 PUSH1 0x0 DUP3 ADD MSTORE POP JUMP JUMPDEST PUSH1 0x0 PUSH2 0x1838 PUSH1 0x14 DUP4 PUSH2 0xCD3 JUMP JUMPDEST SWAP2 POP PUSH2 0x1843 DUP3 PUSH2 0x1802 JUMP JUMPDEST PUSH1 0x20 DUP3 ADD SWAP1 POP SWAP2 SWAP1 POP JUMP JUMPDEST PUSH1 0x0 PUSH1 0x20 DUP3 ADD SWAP1 POP DUP2 DUP2 SUB PUSH1 0x0 DUP4 ADD MSTORE PUSH2 0x1867 DUP2 PUSH2 0x182B JUMP JUMPDEST SWAP1 POP SWAP2 SWAP1 POP JUMP INVALID LOG2 PUSH5 0x6970667358 0x22 SLT KECCAK256 0xAD 0xC4 SWAP6 0xB3 GT 0xD1 0x4C 0xCE BYTE PUSH9 0xBC38909D114C3944CE 0x2C DUP16 SWAP9 CODESIZE PUSH1 0xD2 STATICCALL MULMOD GASPRICE GASPRICE INVALID 0xB1 SWAP4 PUSH5 0x736F6C6343 STOP ADDMOD XOR STOP CALLER "
				},
				"gasEstimates": {
					"creation": {
						"codeDepositCost": "1261600",
						"executionCost": "54904",
						"totalCost": "1316504"
					},
					"external": {
						"MAX_TWEET_LENGTH()": "2535",
						"changeTweetLength(uint16)": "26944",
						"createTweet(string)": "infinite",
						"getAllTweets()": "infinite",
						"getOwner()": "2572",
						"getTweet(uint256)": "infinite",
						"likeTweet(uint256,address)": "infinite",
						"tweetCount(address)": "2880",
						"tweets(address,uint256)": "infinite",
						"unlikeTweet(uint256,address)": "infinite"
					}
				},
				"methodIdentifiers": {
					"MAX_TWEET_LENGTH()": "6eb10797",
					"changeTweetLength(uint16)": "58bfa4ab",
					"createTweet(string)": "7c9cd2bc",
					"getAllTweets()": "53256135",
					"getOwner()": "893d20e8",
					"getTweet(uint256)": "c3ad5ecb",
					"likeTweet(uint256,address)": "d04ddaa0",
					"tweetCount(address)": "cbb78557",
					"tweets(address,uint256)": "05a1b4a9",
					"unlikeTweet(uint256,address)": "a1488f7c"
				}
			},
			"storageLayout": {
				"storage": [
					{
						"astId": 4,
						"contract": "contracts/Twitter.sol:Twitter",
						"label": "MAX_TWEET_LENGTH",
						"offset": 0,
						"slot": "0",
						"type": "t_uint16"
					},
					{
						"astId": 6,
						"contract": "contracts/Twitter.sol:Twitter",
						"label": "OWNER",
						"offset": 2,
						"slot": "0",
						"type": "t_address"
					},
					{
						"astId": 9,
						"contract": "contracts/Twitter.sol:Twitter",
						"label": "currentTweetId",
						"offset": 0,
						"slot": "1",
						"type": "t_uint256"
					},
					{
						"astId": 27,
						"contract": "contracts/Twitter.sol:Twitter",
						"label": "tweets",
						"offset": 0,
						"slot": "2",
						"type": "t_mapping(t_address,t_mapping(t_uint256,t_struct(Tweet)20_storage))"
					},
					{
						"astId": 31,
						"contract": "contracts/Twitter.sol:Twitter",
						"label": "tweetCount",
						"offset": 0,
						"slot": "3",
						"type": "t_mapping(t_address,t_uint256)"
					}
				],
				"types": {
					"t_address": {
						"encoding": "inplace",
						"label": "address",
						"numberOfBytes": "20"
					},
					"t_mapping(t_address,t_mapping(t_uint256,t_struct(Tweet)20_storage))": {
						"encoding": "mapping",
						"key": "t_address",
						"label": "mapping(address => mapping(uint256 => struct Twitter.Tweet))",
						"numberOfBytes": "32",
						"value": "t_mapping(t_uint256,t_struct(Tweet)20_storage)"
					},
					"t_mapping(t_address,t_uint256)": {
						"encoding": "mapping",
						"key": "t_address",
						"label": "mapping(address => uint256)",
						"numberOfBytes": "32",
						"value": "t_uint256"
					},
					"t_mapping(t_uint256,t_struct(Tweet)20_storage)": {
						"encoding": "mapping",
						"key": "t_uint256",
						"label": "mapping(uint256 => struct Twitter.Tweet)",
						"numberOfBytes": "32",
						"value": "t_struct(Tweet)20_storage"
					},
					"t_string_storage": {
						"encoding": "bytes",
						"label": "string",
						"numberOfBytes": "32"
					},
					"t_struct(Tweet)20_storage": {
						"encoding": "inplace",
						"label": "struct Twitter.Tweet",
						"members": [
							{
								"astId": 11,
								"contract": "contracts/Twitter.sol:Twitter",
								"label": "id",
								"offset": 0,
								"slot": "0",
								"type": "t_uint256"
							},
							{
								"astId": 13,
								"contract": "contracts/Twitter.sol:Twitter",
								"label": "author",
								"offset": 0,
								"slot": "1",
								"type": "t_address"
							},
							{
								"astId": 15,
								"contract": "contracts/Twitter.sol:Twitter",
								"label": "content",
								"offset": 0,
								"slot": "2",
								"type": "t_string_storage"
							},
							{
								"astId": 17,
								"contract": "contracts/Twitter.sol:Twitter",
								"label": "timestamp",
								"offset": 0,
								"slot": "3",
								"type": "t_uint256"
							},
							{
								"astId": 19,
								"contract": "contracts/Twitter.sol:Twitter",
								"label": "likes",
								"offset": 0,
								"slot": "4",
								"type": "t_uint256"
							}
						],
						"numberOfBytes": "160"
					},
					"t_uint16": {
						"encoding": "inplace",
						"label": "uint16",
						"numberOfBytes": "2"
					},
					"t_uint256": {
						"encoding": "inplace",
						"label": "uint256",
						"numberOfBytes": "32"
					}
				}
			},
			"userdoc": {
				"kind": "user",
				"methods": {},
				"version": 1
			}
		}
	}
}