{
	"contracts/Basic/Twitter.sol": {
		"Twitter": {
			"abi": [
				{
					"inputs": [
						{
							"internalType": "address",
							"name": "_profileContract",
							"type": "address"
						}
					],
					"stateMutability": "nonpayable",
					"type": "constructor"
				},
				{
					"inputs": [
						{
							"internalType": "address",
							"name": "owner",
							"type": "address"
						}
					],
					"name": "OwnableInvalidOwner",
					"type": "error"
				},
				{
					"inputs": [
						{
							"internalType": "address",
							"name": "account",
							"type": "address"
						}
					],
					"name": "OwnableUnauthorizedAccount",
					"type": "error"
				},
				{
					"anonymous": false,
					"inputs": [
						{
							"indexed": true,
							"internalType": "address",
							"name": "previousOwner",
							"type": "address"
						},
						{
							"indexed": true,
							"internalType": "address",
							"name": "newOwner",
							"type": "address"
						}
					],
					"name": "OwnershipTransferred",
					"type": "event"
				},
				{
					"anonymous": false,
					"inputs": [
						{
							"indexed": false,
							"internalType": "uint256",
							"name": "id",
							"type": "uint256"
						},
						{
							"indexed": false,
							"internalType": "address",
							"name": "author",
							"type": "address"
						},
						{
							"indexed": false,
							"internalType": "string",
							"name": "content",
							"type": "string"
						},
						{
							"indexed": false,
							"internalType": "uint256",
							"name": "timestamp",
							"type": "uint256"
						}
					],
					"name": "TweetCreated",
					"type": "event"
				},
				{
					"anonymous": false,
					"inputs": [
						{
							"indexed": false,
							"internalType": "uint256",
							"name": "id",
							"type": "uint256"
						},
						{
							"indexed": false,
							"internalType": "address",
							"name": "author",
							"type": "address"
						},
						{
							"indexed": false,
							"internalType": "uint256",
							"name": "likeCount",
							"type": "uint256"
						},
						{
							"indexed": false,
							"internalType": "address",
							"name": "liker",
							"type": "address"
						}
					],
					"name": "TweetLiked",
					"type": "event"
				},
				{
					"anonymous": false,
					"inputs": [
						{
							"indexed": false,
							"internalType": "uint256",
							"name": "id",
							"type": "uint256"
						},
						{
							"indexed": false,
							"internalType": "address",
							"name": "author",
							"type": "address"
						},
						{
							"indexed": false,
							"internalType": "uint256",
							"name": "likeCount",
							"type": "uint256"
						},
						{
							"indexed": false,
							"internalType": "address",
							"name": "liker",
							"type": "address"
						}
					],
					"name": "TweetUnliked",
					"type": "event"
				},
				{
					"inputs": [
						{
							"internalType": "uint16",
							"name": "_input",
							"type": "uint16"
						}
					],
					"name": "changeTweetLength",
					"outputs": [],
					"stateMutability": "nonpayable",
					"type": "function"
				},
				{
					"inputs": [
						{
							"internalType": "string",
							"name": "_input",
							"type": "string"
						}
					],
					"name": "createTweet",
					"outputs": [],
					"stateMutability": "nonpayable",
					"type": "function"
				},
				{
					"inputs": [
						{
							"internalType": "address",
							"name": "owner",
							"type": "address"
						}
					],
					"name": "getAllTweets",
					"outputs": [
						{
							"components": [
								{
									"internalType": "uint256",
									"name": "id",
									"type": "uint256"
								},
								{
									"internalType": "address",
									"name": "author",
									"type": "address"
								},
								{
									"internalType": "string",
									"name": "content",
									"type": "string"
								},
								{
									"internalType": "uint256",
									"name": "timestamp",
									"type": "uint256"
								},
								{
									"internalType": "uint256",
									"name": "likes",
									"type": "uint256"
								}
							],
							"internalType": "struct Twitter.Tweet[]",
							"name": "",
							"type": "tuple[]"
						}
					],
					"stateMutability": "view",
					"type": "function"
				},
				{
					"inputs": [],
					"name": "getOwner",
					"outputs": [
						{
							"internalType": "address",
							"name": "",
							"type": "address"
						}
					],
					"stateMutability": "view",
					"type": "function"
				},
				{
					"inputs": [
						{
							"internalType": "address",
							"name": "_author",
							"type": "address"
						}
					],
					"name": "getTotalLikes",
					"outputs": [
						{
							"internalType": "uint256",
							"name": "",
							"type": "uint256"
						}
					],
					"stateMutability": "view",
					"type": "function"
				},
				{
					"inputs": [
						{
							"internalType": "uint256",
							"name": "_i",
							"type": "uint256"
						}
					],
					"name": "getTweet",
					"outputs": [
						{
							"components": [
								{
									"internalType": "uint256",
									"name": "id",
									"type": "uint256"
								},
								{
									"internalType": "address",
									"name": "author",
									"type": "address"
								},
								{
									"internalType": "string",
									"name": "content",
									"type": "string"
								},
								{
									"internalType": "uint256",
									"name": "timestamp",
									"type": "uint256"
								},
								{
									"internalType": "uint256",
									"name": "likes",
									"type": "uint256"
								}
							],
							"internalType": "struct Twitter.Tweet",
							"name": "",
							"type": "tuple"
						}
					],
					"stateMutability": "view",
					"type": "function"
				},
				{
					"inputs": [
						{
							"internalType": "uint256",
							"name": "_id",
							"type": "uint256"
						},
						{
							"internalType": "address",
							"name": "_author",
							"type": "address"
						}
					],
					"name": "likeTweet",
					"outputs": [],
					"stateMutability": "nonpayable",
					"type": "function"
				},
				{
					"inputs": [],
					"name": "owner",
					"outputs": [
						{
							"internalType": "address",
							"name": "",
							"type": "address"
						}
					],
					"stateMutability": "view",
					"type": "function"
				},
				{
					"inputs": [],
					"name": "renounceOwnership",
					"outputs": [],
					"stateMutability": "nonpayable",
					"type": "function"
				},
				{
					"inputs": [
						{
							"internalType": "address",
							"name": "newOwner",
							"type": "address"
						}
					],
					"name": "transferOwnership",
					"outputs": [],
					"stateMutability": "nonpayable",
					"type": "function"
				},
				{
					"inputs": [
						{
							"internalType": "uint256",
							"name": "_id",
							"type": "uint256"
						},
						{
							"internalType": "address",
							"name": "_author",
							"type": "address"
						}
					],
					"name": "unlikeTweet",
					"outputs": [],
					"stateMutability": "nonpayable",
					"type": "function"
				}
			],
			"devdoc": {
				"errors": {
					"OwnableInvalidOwner(address)": [
						{
							"details": "The owner is not a valid owner account. (eg. `address(0)`)"
						}
					],
					"OwnableUnauthorizedAccount(address)": [
						{
							"details": "The caller account is not authorized to perform an operation."
						}
					]
				},
				"kind": "dev",
				"methods": {
					"owner()": {
						"details": "Returns the address of the current owner."
					},
					"renounceOwnership()": {
						"details": "Leaves the contract without owner. It will not be possible to call `onlyOwner` functions. Can only be called by the current owner. NOTE: Renouncing ownership will leave the contract without an owner, thereby disabling any functionality that is only available to the owner."
					},
					"transferOwnership(address)": {
						"details": "Transfers ownership of the contract to a new account (`newOwner`). Can only be called by the current owner."
					}
				},
				"version": 1
			},
			"evm": {
				"assembly": "    /* \"contracts/Basic/Twitter.sol\":896:4123  contract Twitter is Ownable {... */\n  mstore(0x40, 0x80)\n    /* \"contracts/Basic/Twitter.sol\":956:959  200 */\n  0xc8\n    /* \"contracts/Basic/Twitter.sol\":930:959  uint16 MAX_TWEET_LENGTH = 200 */\n  0x00\n  exp(0x0100, 0x14)\n  dup2\n  sload\n  dup2\n  0xffff\n  mul\n  not\n  and\n  swap1\n  dup4\n  0xffff\n  and\n  mul\n  or\n  swap1\n  sstore\n  pop\n    /* \"contracts/Basic/Twitter.sol\":990:991  0 */\n  0x00\n    /* \"contracts/Basic/Twitter.sol\":965:991  uint256 currentTweetId = 0 */\n  0x01\n  sstore\n    /* \"contracts/Basic/Twitter.sol\":1577:1696  constructor(address _profileContract) Ownable(msg.sender) {... */\n  callvalue\n  dup1\n  iszero\n  tag_1\n  jumpi\n  0x00\n  dup1\n  revert\ntag_1:\n  pop\n  mload(0x40)\n  sub(codesize, bytecodeSize)\n  dup1\n  bytecodeSize\n  dup4\n  codecopy\n  dup2\n  dup2\n  add\n  0x40\n  mstore\n  dup2\n  add\n  swap1\n  tag_2\n  swap2\n  swap1\n  tag_3\n  jump\t// in\ntag_2:\n    /* \"contracts/Basic/Twitter.sol\":1623:1633  msg.sender */\n  caller\n    /* \"@openzeppelin/contracts/access/Ownable.sol\":1297:1298  0 */\n  0x00\n    /* \"@openzeppelin/contracts/access/Ownable.sol\":1273:1299  initialOwner == address(0) */\n  0xffffffffffffffffffffffffffffffffffffffff\n  and\n    /* \"@openzeppelin/contracts/access/Ownable.sol\":1273:1285  initialOwner */\n  dup2\n    /* \"@openzeppelin/contracts/access/Ownable.sol\":1273:1299  initialOwner == address(0) */\n  0xffffffffffffffffffffffffffffffffffffffff\n  and\n  sub\n    /* \"@openzeppelin/contracts/access/Ownable.sol\":1269:1364  if (initialOwner == address(0)) {... */\n  tag_7\n  jumpi\n    /* \"@openzeppelin/contracts/access/Ownable.sol\":1350:1351  0 */\n  0x00\n    /* \"@openzeppelin/contracts/access/Ownable.sol\":1322:1353  OwnableInvalidOwner(address(0)) */\n  mload(0x40)\n  0x1e4fbdf700000000000000000000000000000000000000000000000000000000\n  dup2\n  mstore\n  0x04\n  add\n  tag_8\n  swap2\n  swap1\n  tag_9\n  jump\t// in\ntag_8:\n  mload(0x40)\n  dup1\n  swap2\n  sub\n  swap1\n  revert\n    /* \"@openzeppelin/contracts/access/Ownable.sol\":1269:1364  if (initialOwner == address(0)) {... */\ntag_7:\n    /* \"@openzeppelin/contracts/access/Ownable.sol\":1373:1405  _transferOwnership(initialOwner) */\n  tag_10\n    /* \"@openzeppelin/contracts/access/Ownable.sol\":1392:1404  initialOwner */\n  dup2\n    /* \"@openzeppelin/contracts/access/Ownable.sol\":1373:1391  _transferOwnership */\n  shl(0x20, tag_11)\n    /* \"@openzeppelin/contracts/access/Ownable.sol\":1373:1405  _transferOwnership(initialOwner) */\n  0x20\n  shr\n  jump\t// in\ntag_10:\n    /* \"@openzeppelin/contracts/access/Ownable.sol\":1225:1412  constructor(address initialOwner) {... */\n  pop\n    /* \"contracts/Basic/Twitter.sol\":1672:1688  _profileContract */\n  dup1\n    /* \"contracts/Basic/Twitter.sol\":1645:1660  profileContract */\n  0x04\n  0x00\n    /* \"contracts/Basic/Twitter.sol\":1645:1689  profileContract = IProfile(_profileContract) */\n  0x0100\n  exp\n  dup2\n  sload\n  dup2\n  0xffffffffffffffffffffffffffffffffffffffff\n  mul\n  not\n  and\n  swap1\n  dup4\n  0xffffffffffffffffffffffffffffffffffffffff\n  and\n  mul\n  or\n  swap1\n  sstore\n  pop\n    /* \"contracts/Basic/Twitter.sol\":1577:1696  constructor(address _profileContract) Ownable(msg.sender) {... */\n  pop\n    /* \"contracts/Basic/Twitter.sol\":896:4123  contract Twitter is Ownable {... */\n  jump(tag_13)\n    /* \"@openzeppelin/contracts/access/Ownable.sol\":2912:3099  function _transferOwnership(address newOwner) internal virtual {... */\ntag_11:\n    /* \"@openzeppelin/contracts/access/Ownable.sol\":2985:3001  address oldOwner */\n  0x00\n    /* \"@openzeppelin/contracts/access/Ownable.sol\":3004:3010  _owner */\n  dup1\n  0x00\n  swap1\n  sload\n  swap1\n  0x0100\n  exp\n  swap1\n  div\n  0xffffffffffffffffffffffffffffffffffffffff\n  and\n    /* \"@openzeppelin/contracts/access/Ownable.sol\":2985:3010  address oldOwner = _owner */\n  swap1\n  pop\n    /* \"@openzeppelin/contracts/access/Ownable.sol\":3029:3037  newOwner */\n  dup2\n    /* \"@openzeppelin/contracts/access/Ownable.sol\":3020:3026  _owner */\n  0x00\n  dup1\n    /* \"@openzeppelin/contracts/access/Ownable.sol\":3020:3037  _owner = newOwner */\n  0x0100\n  exp\n  dup2\n  sload\n  dup2\n  0xffffffffffffffffffffffffffffffffffffffff\n  mul\n  not\n  and\n  swap1\n  dup4\n  0xffffffffffffffffffffffffffffffffffffffff\n  and\n  mul\n  or\n  swap1\n  sstore\n  pop\n    /* \"@openzeppelin/contracts/access/Ownable.sol\":3083:3091  newOwner */\n  dup2\n    /* \"@openzeppelin/contracts/access/Ownable.sol\":3052:3092  OwnershipTransferred(oldOwner, newOwner) */\n  0xffffffffffffffffffffffffffffffffffffffff\n  and\n    /* \"@openzeppelin/contracts/access/Ownable.sol\":3073:3081  oldOwner */\n  dup2\n    /* \"@openzeppelin/contracts/access/Ownable.sol\":3052:3092  OwnershipTransferred(oldOwner, newOwner) */\n  0xffffffffffffffffffffffffffffffffffffffff\n  and\n  0x8be0079c531659141344cd1fd0a4f28419497f9722a3daafe3b4186f6b6457e0\n  mload(0x40)\n  mload(0x40)\n  dup1\n  swap2\n  sub\n  swap1\n  log3\n    /* \"@openzeppelin/contracts/access/Ownable.sol\":2975:3099  {... */\n  pop\n    /* \"@openzeppelin/contracts/access/Ownable.sol\":2912:3099  function _transferOwnership(address newOwner) internal virtual {... */\n  pop\n  jump\t// out\n    /* \"#utility.yul\":88:205   */\ntag_16:\n    /* \"#utility.yul\":197:198   */\n  0x00\n    /* \"#utility.yul\":194:195   */\n  dup1\n    /* \"#utility.yul\":187:199   */\n  revert\n    /* \"#utility.yul\":334:460   */\ntag_18:\n    /* \"#utility.yul\":371:378   */\n  0x00\n    /* \"#utility.yul\":411:453   */\n  0xffffffffffffffffffffffffffffffffffffffff\n    /* \"#utility.yul\":404:409   */\n  dup3\n    /* \"#utility.yul\":400:454   */\n  and\n    /* \"#utility.yul\":389:454   */\n  swap1\n  pop\n    /* \"#utility.yul\":334:460   */\n  swap2\n  swap1\n  pop\n  jump\t// out\n    /* \"#utility.yul\":466:562   */\ntag_19:\n    /* \"#utility.yul\":503:510   */\n  0x00\n    /* \"#utility.yul\":532:556   */\n  tag_29\n    /* \"#utility.yul\":550:555   */\n  dup3\n    /* \"#utility.yul\":532:556   */\n  tag_18\n  jump\t// in\ntag_29:\n    /* \"#utility.yul\":521:556   */\n  swap1\n  pop\n    /* \"#utility.yul\":466:562   */\n  swap2\n  swap1\n  pop\n  jump\t// out\n    /* \"#utility.yul\":568:690   */\ntag_20:\n    /* \"#utility.yul\":641:665   */\n  tag_31\n    /* \"#utility.yul\":659:664   */\n  dup2\n    /* \"#utility.yul\":641:665   */\n  tag_19\n  jump\t// in\ntag_31:\n    /* \"#utility.yul\":634:639   */\n  dup2\n    /* \"#utility.yul\":631:666   */\n  eq\n    /* \"#utility.yul\":621:684   */\n  tag_32\n  jumpi\n    /* \"#utility.yul\":680:681   */\n  0x00\n    /* \"#utility.yul\":677:678   */\n  dup1\n    /* \"#utility.yul\":670:682   */\n  revert\n    /* \"#utility.yul\":621:684   */\ntag_32:\n    /* \"#utility.yul\":568:690   */\n  pop\n  jump\t// out\n    /* \"#utility.yul\":696:839   */\ntag_21:\n    /* \"#utility.yul\":753:758   */\n  0x00\n    /* \"#utility.yul\":784:790   */\n  dup2\n    /* \"#utility.yul\":778:791   */\n  mload\n    /* \"#utility.yul\":769:791   */\n  swap1\n  pop\n    /* \"#utility.yul\":800:833   */\n  tag_34\n    /* \"#utility.yul\":827:832   */\n  dup2\n    /* \"#utility.yul\":800:833   */\n  tag_20\n  jump\t// in\ntag_34:\n    /* \"#utility.yul\":696:839   */\n  swap3\n  swap2\n  pop\n  pop\n  jump\t// out\n    /* \"#utility.yul\":845:1196   */\ntag_3:\n    /* \"#utility.yul\":915:921   */\n  0x00\n    /* \"#utility.yul\":964:966   */\n  0x20\n    /* \"#utility.yul\":952:961   */\n  dup3\n    /* \"#utility.yul\":943:950   */\n  dup5\n    /* \"#utility.yul\":939:962   */\n  sub\n    /* \"#utility.yul\":935:967   */\n  slt\n    /* \"#utility.yul\":932:1051   */\n  iszero\n  tag_36\n  jumpi\n    /* \"#utility.yul\":970:1049   */\n  tag_37\n  tag_16\n  jump\t// in\ntag_37:\n    /* \"#utility.yul\":932:1051   */\ntag_36:\n    /* \"#utility.yul\":1090:1091   */\n  0x00\n    /* \"#utility.yul\":1115:1179   */\n  tag_38\n    /* \"#utility.yul\":1171:1178   */\n  dup5\n    /* \"#utility.yul\":1162:1168   */\n  dup3\n    /* \"#utility.yul\":1151:1160   */\n  dup6\n    /* \"#utility.yul\":1147:1169   */\n  add\n    /* \"#utility.yul\":1115:1179   */\n  tag_21\n  jump\t// in\ntag_38:\n    /* \"#utility.yul\":1105:1179   */\n  swap2\n  pop\n    /* \"#utility.yul\":1061:1189   */\n  pop\n    /* \"#utility.yul\":845:1196   */\n  swap3\n  swap2\n  pop\n  pop\n  jump\t// out\n    /* \"#utility.yul\":1202:1320   */\ntag_22:\n    /* \"#utility.yul\":1289:1313   */\n  tag_40\n    /* \"#utility.yul\":1307:1312   */\n  dup2\n    /* \"#utility.yul\":1289:1313   */\n  tag_19\n  jump\t// in\ntag_40:\n    /* \"#utility.yul\":1284:1287   */\n  dup3\n    /* \"#utility.yul\":1277:1314   */\n  mstore\n    /* \"#utility.yul\":1202:1320   */\n  pop\n  pop\n  jump\t// out\n    /* \"#utility.yul\":1326:1548   */\ntag_9:\n    /* \"#utility.yul\":1419:1423   */\n  0x00\n    /* \"#utility.yul\":1457:1459   */\n  0x20\n    /* \"#utility.yul\":1446:1455   */\n  dup3\n    /* \"#utility.yul\":1442:1460   */\n  add\n    /* \"#utility.yul\":1434:1460   */\n  swap1\n  pop\n    /* \"#utility.yul\":1470:1541   */\n  tag_42\n    /* \"#utility.yul\":1538:1539   */\n  0x00\n    /* \"#utility.yul\":1527:1536   */\n  dup4\n    /* \"#utility.yul\":1523:1540   */\n  add\n    /* \"#utility.yul\":1514:1520   */\n  dup5\n    /* \"#utility.yul\":1470:1541   */\n  tag_22\n  jump\t// in\ntag_42:\n    /* \"#utility.yul\":1326:1548   */\n  swap3\n  swap2\n  pop\n  pop\n  jump\t// out\n    /* \"contracts/Basic/Twitter.sol\":896:4123  contract Twitter is Ownable {... */\ntag_13:\n  dataSize(sub_0)\n  dup1\n  dataOffset(sub_0)\n  0x00\n  codecopy\n  0x00\n  return\nstop\n\nsub_0: assembly {\n        /* \"contracts/Basic/Twitter.sol\":896:4123  contract Twitter is Ownable {... */\n      mstore(0x40, 0x80)\n      callvalue\n      dup1\n      iszero\n      tag_1\n      jumpi\n      0x00\n      dup1\n      revert\n    tag_1:\n      pop\n      jumpi(tag_2, lt(calldatasize, 0x04))\n      shr(0xe0, calldataload(0x00))\n      dup1\n      0x893d20e8\n      gt\n      tag_14\n      jumpi\n      dup1\n      0x893d20e8\n      eq\n      tag_8\n      jumpi\n      dup1\n      0x8da5cb5b\n      eq\n      tag_9\n      jumpi\n      dup1\n      0xa1488f7c\n      eq\n      tag_10\n      jumpi\n      dup1\n      0xc3ad5ecb\n      eq\n      tag_11\n      jumpi\n      dup1\n      0xd04ddaa0\n      eq\n      tag_12\n      jumpi\n      dup1\n      0xf2fde38b\n      eq\n      tag_13\n      jumpi\n      jump(tag_2)\n    tag_14:\n      dup1\n      0x12e7ee1c\n      eq\n      tag_3\n      jumpi\n      dup1\n      0x58bfa4ab\n      eq\n      tag_4\n      jumpi\n      dup1\n      0x715018a6\n      eq\n      tag_5\n      jumpi\n      dup1\n      0x7c9cd2bc\n      eq\n      tag_6\n      jumpi\n      dup1\n      0x820785cc\n      eq\n      tag_7\n      jumpi\n    tag_2:\n      0x00\n      dup1\n      revert\n        /* \"contracts/Basic/Twitter.sol\":2725:3040  function getAllTweets(address owner) public view returns (Tweet[] memory) {... */\n    tag_3:\n      tag_15\n      0x04\n      dup1\n      calldatasize\n      sub\n      dup2\n      add\n      swap1\n      tag_16\n      swap2\n      swap1\n      tag_17\n      jump\t// in\n    tag_16:\n      tag_18\n      jump\t// in\n    tag_15:\n      mload(0x40)\n      tag_19\n      swap2\n      swap1\n      tag_20\n      jump\t// in\n    tag_19:\n      mload(0x40)\n      dup1\n      swap2\n      sub\n      swap1\n      return\n        /* \"contracts/Basic/Twitter.sol\":3046:3147  function changeTweetLength(uint16 _input) public onlyOwner {... */\n    tag_4:\n      tag_21\n      0x04\n      dup1\n      calldatasize\n      sub\n      dup2\n      add\n      swap1\n      tag_22\n      swap2\n      swap1\n      tag_23\n      jump\t// in\n    tag_22:\n      tag_24\n      jump\t// in\n    tag_21:\n      stop\n        /* \"@openzeppelin/contracts/access/Ownable.sol\":2293:2394  function renounceOwnership() public virtual onlyOwner {... */\n    tag_5:\n      tag_25\n      tag_26\n      jump\t// in\n    tag_25:\n      stop\n        /* \"contracts/Basic/Twitter.sol\":2008:2606  function createTweet(string memory _input) public onlyRegistered {... */\n    tag_6:\n      tag_27\n      0x04\n      dup1\n      calldatasize\n      sub\n      dup2\n      add\n      swap1\n      tag_28\n      swap2\n      swap1\n      tag_29\n      jump\t// in\n    tag_28:\n      tag_30\n      jump\t// in\n    tag_27:\n      stop\n        /* \"contracts/Basic/Twitter.sol\":3810:4121  function getTotalLikes(address _author) public view returns (uint256) {... */\n    tag_7:\n      tag_31\n      0x04\n      dup1\n      calldatasize\n      sub\n      dup2\n      add\n      swap1\n      tag_32\n      swap2\n      swap1\n      tag_17\n      jump\t// in\n    tag_32:\n      tag_33\n      jump\t// in\n    tag_31:\n      mload(0x40)\n      tag_34\n      swap2\n      swap1\n      tag_35\n      jump\t// in\n    tag_34:\n      mload(0x40)\n      dup1\n      swap2\n      sub\n      swap1\n      return\n        /* \"contracts/Basic/Twitter.sol\":3153:3242  function getOwner() public view returns (address) {... */\n    tag_8:\n      tag_36\n      tag_37\n      jump\t// in\n    tag_36:\n      mload(0x40)\n      tag_38\n      swap2\n      swap1\n      tag_39\n      jump\t// in\n    tag_38:\n      mload(0x40)\n      dup1\n      swap2\n      sub\n      swap1\n      return\n        /* \"@openzeppelin/contracts/access/Ownable.sol\":1638:1723  function owner() public view virtual returns (address) {... */\n    tag_9:\n      tag_40\n      tag_41\n      jump\t// in\n    tag_40:\n      mload(0x40)\n      tag_42\n      swap2\n      swap1\n      tag_39\n      jump\t// in\n    tag_42:\n      mload(0x40)\n      dup1\n      swap2\n      sub\n      swap1\n      return\n        /* \"contracts/Basic/Twitter.sol\":3525:3804  function unlikeTweet(uint256 _id, address _author) external onlyRegistered {... */\n    tag_10:\n      tag_43\n      0x04\n      dup1\n      calldatasize\n      sub\n      dup2\n      add\n      swap1\n      tag_44\n      swap2\n      swap1\n      tag_45\n      jump\t// in\n    tag_44:\n      tag_46\n      jump\t// in\n    tag_43:\n      stop\n        /* \"contracts/Basic/Twitter.sol\":2612:2719  function getTweet(uint _i) public view returns (Tweet memory){... */\n    tag_11:\n      tag_47\n      0x04\n      dup1\n      calldatasize\n      sub\n      dup2\n      add\n      swap1\n      tag_48\n      swap2\n      swap1\n      tag_49\n      jump\t// in\n    tag_48:\n      tag_50\n      jump\t// in\n    tag_47:\n      mload(0x40)\n      tag_51\n      swap2\n      swap1\n      tag_52\n      jump\t// in\n    tag_51:\n      mload(0x40)\n      dup1\n      swap2\n      sub\n      swap1\n      return\n        /* \"contracts/Basic/Twitter.sol\":3248:3519  function likeTweet(uint256 _id, address _author) external onlyRegistered {... */\n    tag_12:\n      tag_53\n      0x04\n      dup1\n      calldatasize\n      sub\n      dup2\n      add\n      swap1\n      tag_54\n      swap2\n      swap1\n      tag_45\n      jump\t// in\n    tag_54:\n      tag_55\n      jump\t// in\n    tag_53:\n      stop\n        /* \"@openzeppelin/contracts/access/Ownable.sol\":2543:2758  function transferOwnership(address newOwner) public virtual onlyOwner {... */\n    tag_13:\n      tag_56\n      0x04\n      dup1\n      calldatasize\n      sub\n      dup2\n      add\n      swap1\n      tag_57\n      swap2\n      swap1\n      tag_17\n      jump\t// in\n    tag_57:\n      tag_58\n      jump\t// in\n    tag_56:\n      stop\n        /* \"contracts/Basic/Twitter.sol\":2725:3040  function getAllTweets(address owner) public view returns (Tweet[] memory) {... */\n    tag_18:\n        /* \"contracts/Basic/Twitter.sol\":2783:2797  Tweet[] memory */\n      0x60\n        /* \"contracts/Basic/Twitter.sol\":2809:2822  uint256 count */\n      0x00\n        /* \"contracts/Basic/Twitter.sol\":2825:2835  tweetCount */\n      0x03\n        /* \"contracts/Basic/Twitter.sol\":2825:2842  tweetCount[owner] */\n      0x00\n        /* \"contracts/Basic/Twitter.sol\":2836:2841  owner */\n      dup5\n        /* \"contracts/Basic/Twitter.sol\":2825:2842  tweetCount[owner] */\n      0xffffffffffffffffffffffffffffffffffffffff\n      and\n      0xffffffffffffffffffffffffffffffffffffffff\n      and\n      dup2\n      mstore\n      0x20\n      add\n      swap1\n      dup2\n      mstore\n      0x20\n      add\n      0x00\n      keccak256\n      sload\n        /* \"contracts/Basic/Twitter.sol\":2809:2842  uint256 count = tweetCount[owner] */\n      swap1\n      pop\n        /* \"contracts/Basic/Twitter.sol\":2852:2876  Tweet[] memory allTweets */\n      0x00\n        /* \"contracts/Basic/Twitter.sol\":2891:2896  count */\n      dup2\n        /* \"contracts/Basic/Twitter.sol\":2879:2897  new Tweet[](count) */\n      0xffffffffffffffff\n      dup2\n      gt\n      iszero\n      tag_60\n      jumpi\n      tag_61\n      tag_62\n      jump\t// in\n    tag_61:\n    tag_60:\n      mload(0x40)\n      swap1\n      dup1\n      dup3\n      mstore\n      dup1\n      0x20\n      mul\n      0x20\n      add\n      dup3\n      add\n      0x40\n      mstore\n      dup1\n      iszero\n      tag_63\n      jumpi\n      dup2\n      0x20\n      add\n    tag_64:\n      tag_65\n      tag_66\n      jump\t// in\n    tag_65:\n      dup2\n      mstore\n      0x20\n      add\n      swap1\n      0x01\n      swap1\n      sub\n      swap1\n      dup2\n      tag_64\n      jumpi\n      swap1\n      pop\n    tag_63:\n      pop\n        /* \"contracts/Basic/Twitter.sol\":2852:2897  Tweet[] memory allTweets = new Tweet[](count) */\n      swap1\n      pop\n        /* \"contracts/Basic/Twitter.sol\":2912:2921  uint256 i */\n      0x00\n        /* \"contracts/Basic/Twitter.sol\":2907:2999  for (uint256 i = 0; i < count; i++) {... */\n    tag_67:\n        /* \"contracts/Basic/Twitter.sol\":2931:2936  count */\n      dup3\n        /* \"contracts/Basic/Twitter.sol\":2927:2928  i */\n      dup2\n        /* \"contracts/Basic/Twitter.sol\":2927:2936  i < count */\n      lt\n        /* \"contracts/Basic/Twitter.sol\":2907:2999  for (uint256 i = 0; i < count; i++) {... */\n      iszero\n      tag_68\n      jumpi\n        /* \"contracts/Basic/Twitter.sol\":2972:2978  tweets */\n      0x02\n        /* \"contracts/Basic/Twitter.sol\":2972:2985  tweets[owner] */\n      0x00\n        /* \"contracts/Basic/Twitter.sol\":2979:2984  owner */\n      dup7\n        /* \"contracts/Basic/Twitter.sol\":2972:2985  tweets[owner] */\n      0xffffffffffffffffffffffffffffffffffffffff\n      and\n      0xffffffffffffffffffffffffffffffffffffffff\n      and\n      dup2\n      mstore\n      0x20\n      add\n      swap1\n      dup2\n      mstore\n      0x20\n      add\n      0x00\n      keccak256\n        /* \"contracts/Basic/Twitter.sol\":2972:2988  tweets[owner][i] */\n      0x00\n        /* \"contracts/Basic/Twitter.sol\":2986:2987  i */\n      dup3\n        /* \"contracts/Basic/Twitter.sol\":2972:2988  tweets[owner][i] */\n      dup2\n      mstore\n      0x20\n      add\n      swap1\n      dup2\n      mstore\n      0x20\n      add\n      0x00\n      keccak256\n        /* \"contracts/Basic/Twitter.sol\":2957:2988  allTweets[i] = tweets[owner][i] */\n      mload(0x40)\n      dup1\n      0xa0\n      add\n      0x40\n      mstore\n      swap1\n      dup2\n      0x00\n      dup3\n      add\n      sload\n      dup2\n      mstore\n      0x20\n      add\n      0x01\n      dup3\n      add\n      0x00\n      swap1\n      sload\n      swap1\n      0x0100\n      exp\n      swap1\n      div\n      0xffffffffffffffffffffffffffffffffffffffff\n      and\n      0xffffffffffffffffffffffffffffffffffffffff\n      and\n      0xffffffffffffffffffffffffffffffffffffffff\n      and\n      dup2\n      mstore\n      0x20\n      add\n      0x02\n      dup3\n      add\n      dup1\n      sload\n      tag_70\n      swap1\n      tag_71\n      jump\t// in\n    tag_70:\n      dup1\n      0x1f\n      add\n      0x20\n      dup1\n      swap2\n      div\n      mul\n      0x20\n      add\n      mload(0x40)\n      swap1\n      dup2\n      add\n      0x40\n      mstore\n      dup1\n      swap3\n      swap2\n      swap1\n      dup2\n      dup2\n      mstore\n      0x20\n      add\n      dup3\n      dup1\n      sload\n      tag_72\n      swap1\n      tag_71\n      jump\t// in\n    tag_72:\n      dup1\n      iszero\n      tag_73\n      jumpi\n      dup1\n      0x1f\n      lt\n      tag_74\n      jumpi\n      0x0100\n      dup1\n      dup4\n      sload\n      div\n      mul\n      dup4\n      mstore\n      swap2\n      0x20\n      add\n      swap2\n      jump(tag_73)\n    tag_74:\n      dup3\n      add\n      swap2\n      swap1\n      0x00\n      mstore\n      keccak256(0x00, 0x20)\n      swap1\n    tag_75:\n      dup2\n      sload\n      dup2\n      mstore\n      swap1\n      0x01\n      add\n      swap1\n      0x20\n      add\n      dup1\n      dup4\n      gt\n      tag_75\n      jumpi\n      dup3\n      swap1\n      sub\n      0x1f\n      and\n      dup3\n      add\n      swap2\n    tag_73:\n      pop\n      pop\n      pop\n      pop\n      pop\n      dup2\n      mstore\n      0x20\n      add\n      0x03\n      dup3\n      add\n      sload\n      dup2\n      mstore\n      0x20\n      add\n      0x04\n      dup3\n      add\n      sload\n      dup2\n      mstore\n      pop\n      pop\n        /* \"contracts/Basic/Twitter.sol\":2957:2966  allTweets */\n      dup3\n        /* \"contracts/Basic/Twitter.sol\":2967:2968  i */\n      dup3\n        /* \"contracts/Basic/Twitter.sol\":2957:2969  allTweets[i] */\n      dup2\n      mload\n      dup2\n      lt\n      tag_76\n      jumpi\n      tag_77\n      tag_78\n      jump\t// in\n    tag_77:\n    tag_76:\n      0x20\n      mul\n      0x20\n      add\n      add\n        /* \"contracts/Basic/Twitter.sol\":2957:2988  allTweets[i] = tweets[owner][i] */\n      dup2\n      swap1\n      mstore\n      pop\n        /* \"contracts/Basic/Twitter.sol\":2938:2941  i++ */\n      dup1\n      dup1\n      0x01\n      add\n      swap2\n      pop\n      pop\n        /* \"contracts/Basic/Twitter.sol\":2907:2999  for (uint256 i = 0; i < count; i++) {... */\n      jump(tag_67)\n    tag_68:\n      pop\n        /* \"contracts/Basic/Twitter.sol\":3024:3033  allTweets */\n      dup1\n        /* \"contracts/Basic/Twitter.sol\":3017:3033  return allTweets */\n      swap3\n      pop\n      pop\n      pop\n        /* \"contracts/Basic/Twitter.sol\":2725:3040  function getAllTweets(address owner) public view returns (Tweet[] memory) {... */\n      swap2\n      swap1\n      pop\n      jump\t// out\n        /* \"contracts/Basic/Twitter.sol\":3046:3147  function changeTweetLength(uint16 _input) public onlyOwner {... */\n    tag_24:\n        /* \"@openzeppelin/contracts/access/Ownable.sol\":1531:1544  _checkOwner() */\n      tag_80\n        /* \"@openzeppelin/contracts/access/Ownable.sol\":1531:1542  _checkOwner */\n      tag_81\n        /* \"@openzeppelin/contracts/access/Ownable.sol\":1531:1544  _checkOwner() */\n      jump\t// in\n    tag_80:\n        /* \"contracts/Basic/Twitter.sol\":3134:3140  _input */\n      dup1\n        /* \"contracts/Basic/Twitter.sol\":3115:3131  MAX_TWEET_LENGTH */\n      0x00\n      0x14\n        /* \"contracts/Basic/Twitter.sol\":3115:3140  MAX_TWEET_LENGTH = _input */\n      0x0100\n      exp\n      dup2\n      sload\n      dup2\n      0xffff\n      mul\n      not\n      and\n      swap1\n      dup4\n      0xffff\n      and\n      mul\n      or\n      swap1\n      sstore\n      pop\n        /* \"contracts/Basic/Twitter.sol\":3046:3147  function changeTweetLength(uint16 _input) public onlyOwner {... */\n      pop\n      jump\t// out\n        /* \"@openzeppelin/contracts/access/Ownable.sol\":2293:2394  function renounceOwnership() public virtual onlyOwner {... */\n    tag_26:\n        /* \"@openzeppelin/contracts/access/Ownable.sol\":1531:1544  _checkOwner() */\n      tag_84\n        /* \"@openzeppelin/contracts/access/Ownable.sol\":1531:1542  _checkOwner */\n      tag_81\n        /* \"@openzeppelin/contracts/access/Ownable.sol\":1531:1544  _checkOwner() */\n      jump\t// in\n    tag_84:\n        /* \"@openzeppelin/contracts/access/Ownable.sol\":2357:2387  _transferOwnership(address(0)) */\n      tag_86\n        /* \"@openzeppelin/contracts/access/Ownable.sol\":2384:2385  0 */\n      0x00\n        /* \"@openzeppelin/contracts/access/Ownable.sol\":2357:2375  _transferOwnership */\n      tag_87\n        /* \"@openzeppelin/contracts/access/Ownable.sol\":2357:2387  _transferOwnership(address(0)) */\n      jump\t// in\n    tag_86:\n        /* \"@openzeppelin/contracts/access/Ownable.sol\":2293:2394  function renounceOwnership() public virtual onlyOwner {... */\n      jump\t// out\n        /* \"contracts/Basic/Twitter.sol\":2008:2606  function createTweet(string memory _input) public onlyRegistered {... */\n    tag_30:\n        /* \"contracts/Basic/Twitter.sol\":1950:1951  0 */\n      0x00\n        /* \"contracts/Basic/Twitter.sol\":1889:1904  profileContract */\n      0x04\n      0x00\n      swap1\n      sload\n      swap1\n      0x0100\n      exp\n      swap1\n      div\n      0xffffffffffffffffffffffffffffffffffffffff\n      and\n        /* \"contracts/Basic/Twitter.sol\":1889:1915  profileContract.getProfile */\n      0xffffffffffffffffffffffffffffffffffffffff\n      and\n      0x0f53a470\n        /* \"contracts/Basic/Twitter.sol\":1916:1926  msg.sender */\n      caller\n        /* \"contracts/Basic/Twitter.sol\":1889:1927  profileContract.getProfile(msg.sender) */\n      mload(0x40)\n      dup3\n      0xffffffff\n      and\n      0xe0\n      shl\n      dup2\n      mstore\n      0x04\n      add\n      tag_89\n      swap2\n      swap1\n      tag_39\n      jump\t// in\n    tag_89:\n      0x00\n      mload(0x40)\n      dup1\n      dup4\n      sub\n      dup2\n      dup7\n      gas\n      staticcall\n      iszero\n      dup1\n      iszero\n      tag_91\n      jumpi\n      returndatasize\n      0x00\n      dup1\n      returndatacopy\n      revert(0x00, returndatasize)\n    tag_91:\n      pop\n      pop\n      pop\n      pop\n      mload(0x40)\n      returndatasize\n      0x00\n      dup3\n      returndatacopy\n      returndatasize\n      not(0x1f)\n      0x1f\n      dup3\n      add\n      and\n      dup3\n      add\n      dup1\n      0x40\n      mstore\n      pop\n      dup2\n      add\n      swap1\n      tag_92\n      swap2\n      swap1\n      tag_93\n      jump\t// in\n    tag_92:\n        /* \"contracts/Basic/Twitter.sol\":1889:1939  profileContract.getProfile(msg.sender).displayName */\n      0x00\n      add\n      mload\n        /* \"contracts/Basic/Twitter.sol\":1883:1947  bytes(profileContract.getProfile(msg.sender).displayName).length */\n      mload\n        /* \"contracts/Basic/Twitter.sol\":1883:1951  bytes(profileContract.getProfile(msg.sender).displayName).length > 0 */\n      gt\n        /* \"contracts/Basic/Twitter.sol\":1875:1984  require(bytes(profileContract.getProfile(msg.sender).displayName).length > 0, \"User does not have a profile\") */\n      tag_94\n      jumpi\n      mload(0x40)\n      0x08c379a000000000000000000000000000000000000000000000000000000000\n      dup2\n      mstore\n      0x04\n      add\n      tag_95\n      swap1\n      tag_96\n      jump\t// in\n    tag_95:\n      mload(0x40)\n      dup1\n      swap2\n      sub\n      swap1\n      revert\n    tag_94:\n        /* \"contracts/Basic/Twitter.sol\":2115:2131  MAX_TWEET_LENGTH */\n      0x00\n      0x14\n      swap1\n      sload\n      swap1\n      0x0100\n      exp\n      swap1\n      div\n      0xffff\n      and\n        /* \"contracts/Basic/Twitter.sol\":2091:2131  bytes(_input).length <= MAX_TWEET_LENGTH */\n      0xffff\n      and\n        /* \"contracts/Basic/Twitter.sol\":2097:2103  _input */\n      dup2\n        /* \"contracts/Basic/Twitter.sol\":2091:2111  bytes(_input).length */\n      mload\n        /* \"contracts/Basic/Twitter.sol\":2091:2131  bytes(_input).length <= MAX_TWEET_LENGTH */\n      gt\n      iszero\n        /* \"contracts/Basic/Twitter.sol\":2083:2160  require(bytes(_input).length <= MAX_TWEET_LENGTH, \"Tweet content is lengthy\") */\n      tag_98\n      jumpi\n      mload(0x40)\n      0x08c379a000000000000000000000000000000000000000000000000000000000\n      dup2\n      mstore\n      0x04\n      add\n      tag_99\n      swap1\n      tag_100\n      jump\t// in\n    tag_99:\n      mload(0x40)\n      dup1\n      swap2\n      sub\n      swap1\n      revert\n    tag_98:\n        /* \"contracts/Basic/Twitter.sol\":2171:2192  Tweet memory newTweet */\n      0x00\n        /* \"contracts/Basic/Twitter.sol\":2195:2367  Tweet({... */\n      mload(0x40)\n      dup1\n      0xa0\n      add\n      0x40\n      mstore\n      dup1\n        /* \"contracts/Basic/Twitter.sol\":2219:2233  currentTweetId */\n      sload(0x01)\n        /* \"contracts/Basic/Twitter.sol\":2195:2367  Tweet({... */\n      dup2\n      mstore\n      0x20\n      add\n        /* \"contracts/Basic/Twitter.sol\":2255:2265  msg.sender */\n      caller\n        /* \"contracts/Basic/Twitter.sol\":2195:2367  Tweet({... */\n      0xffffffffffffffffffffffffffffffffffffffff\n      and\n      dup2\n      mstore\n      0x20\n      add\n        /* \"contracts/Basic/Twitter.sol\":2288:2294  _input */\n      dup4\n        /* \"contracts/Basic/Twitter.sol\":2195:2367  Tweet({... */\n      dup2\n      mstore\n      0x20\n      add\n        /* \"contracts/Basic/Twitter.sol\":2319:2334  block.timestamp */\n      timestamp\n        /* \"contracts/Basic/Twitter.sol\":2195:2367  Tweet({... */\n      dup2\n      mstore\n      0x20\n      add\n        /* \"contracts/Basic/Twitter.sol\":2355:2356  0 */\n      0x00\n        /* \"contracts/Basic/Twitter.sol\":2195:2367  Tweet({... */\n      dup2\n      mstore\n      pop\n        /* \"contracts/Basic/Twitter.sol\":2171:2367  Tweet memory newTweet = Tweet({... */\n      swap1\n      pop\n        /* \"contracts/Basic/Twitter.sol\":2415:2423  newTweet */\n      dup1\n        /* \"contracts/Basic/Twitter.sol\":2378:2384  tweets */\n      0x02\n        /* \"contracts/Basic/Twitter.sol\":2378:2396  tweets[msg.sender] */\n      0x00\n        /* \"contracts/Basic/Twitter.sol\":2385:2395  msg.sender */\n      caller\n        /* \"contracts/Basic/Twitter.sol\":2378:2396  tweets[msg.sender] */\n      0xffffffffffffffffffffffffffffffffffffffff\n      and\n      0xffffffffffffffffffffffffffffffffffffffff\n      and\n      dup2\n      mstore\n      0x20\n      add\n      swap1\n      dup2\n      mstore\n      0x20\n      add\n      0x00\n      keccak256\n        /* \"contracts/Basic/Twitter.sol\":2378:2412  tweets[msg.sender][currentTweetId] */\n      0x00\n        /* \"contracts/Basic/Twitter.sol\":2397:2411  currentTweetId */\n      sload(0x01)\n        /* \"contracts/Basic/Twitter.sol\":2378:2412  tweets[msg.sender][currentTweetId] */\n      dup2\n      mstore\n      0x20\n      add\n      swap1\n      dup2\n      mstore\n      0x20\n      add\n      0x00\n      keccak256\n        /* \"contracts/Basic/Twitter.sol\":2378:2423  tweets[msg.sender][currentTweetId] = newTweet */\n      0x00\n      dup3\n      add\n      mload\n      dup2\n      0x00\n      add\n      sstore\n      0x20\n      dup3\n      add\n      mload\n      dup2\n      0x01\n      add\n      exp(0x0100, 0x00)\n      dup2\n      sload\n      dup2\n      0xffffffffffffffffffffffffffffffffffffffff\n      mul\n      not\n      and\n      swap1\n      dup4\n      0xffffffffffffffffffffffffffffffffffffffff\n      and\n      mul\n      or\n      swap1\n      sstore\n      pop\n      0x40\n      dup3\n      add\n      mload\n      dup2\n      0x02\n      add\n      swap1\n      dup2\n      tag_101\n      swap2\n      swap1\n      tag_102\n      jump\t// in\n    tag_101:\n      pop\n      0x60\n      dup3\n      add\n      mload\n      dup2\n      0x03\n      add\n      sstore\n      0x80\n      dup3\n      add\n      mload\n      dup2\n      0x04\n      add\n      sstore\n      swap1\n      pop\n      pop\n        /* \"contracts/Basic/Twitter.sol\":2447:2530  TweetCreated(currentTweetId, newTweet.author, newTweet.content, newTweet.timestamp) */\n      0x16fd3c13e9d46923e0a8bce11c7b473ec508a72e6c96cd2404b29ce972afc29e\n        /* \"contracts/Basic/Twitter.sol\":2460:2474  currentTweetId */\n      sload(0x01)\n        /* \"contracts/Basic/Twitter.sol\":2476:2484  newTweet */\n      dup3\n        /* \"contracts/Basic/Twitter.sol\":2476:2491  newTweet.author */\n      0x20\n      add\n      mload\n        /* \"contracts/Basic/Twitter.sol\":2493:2501  newTweet */\n      dup4\n        /* \"contracts/Basic/Twitter.sol\":2493:2509  newTweet.content */\n      0x40\n      add\n      mload\n        /* \"contracts/Basic/Twitter.sol\":2511:2519  newTweet */\n      dup5\n        /* \"contracts/Basic/Twitter.sol\":2511:2529  newTweet.timestamp */\n      0x60\n      add\n      mload\n        /* \"contracts/Basic/Twitter.sol\":2447:2530  TweetCreated(currentTweetId, newTweet.author, newTweet.content, newTweet.timestamp) */\n      mload(0x40)\n      tag_103\n      swap5\n      swap4\n      swap3\n      swap2\n      swap1\n      tag_104\n      jump\t// in\n    tag_103:\n      mload(0x40)\n      dup1\n      swap2\n      sub\n      swap1\n      log1\n        /* \"contracts/Basic/Twitter.sol\":2549:2563  currentTweetId */\n      0x01\n      0x00\n        /* \"contracts/Basic/Twitter.sol\":2549:2565  currentTweetId++ */\n      dup2\n      sload\n      dup1\n      swap3\n      swap2\n      swap1\n      tag_105\n      swap1\n      tag_106\n      jump\t// in\n    tag_105:\n      swap2\n      swap1\n      pop\n      sstore\n      pop\n        /* \"contracts/Basic/Twitter.sol\":2575:2585  tweetCount */\n      0x03\n        /* \"contracts/Basic/Twitter.sol\":2575:2597  tweetCount[msg.sender] */\n      0x00\n        /* \"contracts/Basic/Twitter.sol\":2586:2596  msg.sender */\n      caller\n        /* \"contracts/Basic/Twitter.sol\":2575:2597  tweetCount[msg.sender] */\n      0xffffffffffffffffffffffffffffffffffffffff\n      and\n      0xffffffffffffffffffffffffffffffffffffffff\n      and\n      dup2\n      mstore\n      0x20\n      add\n      swap1\n      dup2\n      mstore\n      0x20\n      add\n      0x00\n      keccak256\n      0x00\n        /* \"contracts/Basic/Twitter.sol\":2575:2599  tweetCount[msg.sender]++ */\n      dup2\n      sload\n      dup1\n      swap3\n      swap2\n      swap1\n      tag_107\n      swap1\n      tag_106\n      jump\t// in\n    tag_107:\n      swap2\n      swap1\n      pop\n      sstore\n      pop\n        /* \"contracts/Basic/Twitter.sol\":2073:2606  {... */\n      pop\n        /* \"contracts/Basic/Twitter.sol\":2008:2606  function createTweet(string memory _input) public onlyRegistered {... */\n      pop\n      jump\t// out\n        /* \"contracts/Basic/Twitter.sol\":3810:4121  function getTotalLikes(address _author) public view returns (uint256) {... */\n    tag_33:\n        /* \"contracts/Basic/Twitter.sol\":3871:3878  uint256 */\n      0x00\n        /* \"contracts/Basic/Twitter.sol\":3890:3908  uint256 totalLikes */\n      dup1\n        /* \"contracts/Basic/Twitter.sol\":3911:3912  0 */\n      0x00\n        /* \"contracts/Basic/Twitter.sol\":3890:3912  uint256 totalLikes = 0 */\n      swap1\n      pop\n        /* \"contracts/Basic/Twitter.sol\":3922:3947  uint256 tweetCountForUser */\n      0x00\n        /* \"contracts/Basic/Twitter.sol\":3950:3960  tweetCount */\n      0x03\n        /* \"contracts/Basic/Twitter.sol\":3950:3969  tweetCount[_author] */\n      0x00\n        /* \"contracts/Basic/Twitter.sol\":3961:3968  _author */\n      dup6\n        /* \"contracts/Basic/Twitter.sol\":3950:3969  tweetCount[_author] */\n      0xffffffffffffffffffffffffffffffffffffffff\n      and\n      0xffffffffffffffffffffffffffffffffffffffff\n      and\n      dup2\n      mstore\n      0x20\n      add\n      swap1\n      dup2\n      mstore\n      0x20\n      add\n      0x00\n      keccak256\n      sload\n        /* \"contracts/Basic/Twitter.sol\":3922:3969  uint256 tweetCountForUser = tweetCount[_author] */\n      swap1\n      pop\n        /* \"contracts/Basic/Twitter.sol\":3984:3990  uint i */\n      0x00\n        /* \"contracts/Basic/Twitter.sol\":3979:4087  for (uint i = 0; i < tweetCountForUser; i++) {... */\n    tag_109:\n        /* \"contracts/Basic/Twitter.sol\":4000:4017  tweetCountForUser */\n      dup2\n        /* \"contracts/Basic/Twitter.sol\":3996:3997  i */\n      dup2\n        /* \"contracts/Basic/Twitter.sol\":3996:4017  i < tweetCountForUser */\n      lt\n        /* \"contracts/Basic/Twitter.sol\":3979:4087  for (uint i = 0; i < tweetCountForUser; i++) {... */\n      iszero\n      tag_110\n      jumpi\n        /* \"contracts/Basic/Twitter.sol\":4052:4058  tweets */\n      0x02\n        /* \"contracts/Basic/Twitter.sol\":4052:4067  tweets[_author] */\n      0x00\n        /* \"contracts/Basic/Twitter.sol\":4059:4066  _author */\n      dup7\n        /* \"contracts/Basic/Twitter.sol\":4052:4067  tweets[_author] */\n      0xffffffffffffffffffffffffffffffffffffffff\n      and\n      0xffffffffffffffffffffffffffffffffffffffff\n      and\n      dup2\n      mstore\n      0x20\n      add\n      swap1\n      dup2\n      mstore\n      0x20\n      add\n      0x00\n      keccak256\n        /* \"contracts/Basic/Twitter.sol\":4052:4070  tweets[_author][i] */\n      0x00\n        /* \"contracts/Basic/Twitter.sol\":4068:4069  i */\n      dup3\n        /* \"contracts/Basic/Twitter.sol\":4052:4070  tweets[_author][i] */\n      dup2\n      mstore\n      0x20\n      add\n      swap1\n      dup2\n      mstore\n      0x20\n      add\n      0x00\n      keccak256\n        /* \"contracts/Basic/Twitter.sol\":4052:4076  tweets[_author][i].likes */\n      0x04\n      add\n      sload\n        /* \"contracts/Basic/Twitter.sol\":4038:4076  totalLikes += tweets[_author][i].likes */\n      dup4\n      tag_112\n      swap2\n      swap1\n      tag_113\n      jump\t// in\n    tag_112:\n      swap3\n      pop\n        /* \"contracts/Basic/Twitter.sol\":4019:4022  i++ */\n      dup1\n      dup1\n      0x01\n      add\n      swap2\n      pop\n      pop\n        /* \"contracts/Basic/Twitter.sol\":3979:4087  for (uint i = 0; i < tweetCountForUser; i++) {... */\n      jump(tag_109)\n    tag_110:\n      pop\n        /* \"contracts/Basic/Twitter.sol\":4104:4114  totalLikes */\n      dup2\n        /* \"contracts/Basic/Twitter.sol\":4097:4114  return totalLikes */\n      swap3\n      pop\n      pop\n      pop\n        /* \"contracts/Basic/Twitter.sol\":3810:4121  function getTotalLikes(address _author) public view returns (uint256) {... */\n      swap2\n      swap1\n      pop\n      jump\t// out\n        /* \"contracts/Basic/Twitter.sol\":3153:3242  function getOwner() public view returns (address) {... */\n    tag_37:\n        /* \"contracts/Basic/Twitter.sol\":3194:3201  address */\n      0x00\n        /* \"contracts/Basic/Twitter.sol\":3220:3235  Ownable.owner() */\n      tag_115\n        /* \"contracts/Basic/Twitter.sol\":3220:3233  Ownable.owner */\n      tag_41\n        /* \"contracts/Basic/Twitter.sol\":3220:3235  Ownable.owner() */\n      jump\t// in\n    tag_115:\n        /* \"contracts/Basic/Twitter.sol\":3213:3235  return Ownable.owner() */\n      swap1\n      pop\n        /* \"contracts/Basic/Twitter.sol\":3153:3242  function getOwner() public view returns (address) {... */\n      swap1\n      jump\t// out\n        /* \"@openzeppelin/contracts/access/Ownable.sol\":1638:1723  function owner() public view virtual returns (address) {... */\n    tag_41:\n        /* \"@openzeppelin/contracts/access/Ownable.sol\":1684:1691  address */\n      0x00\n        /* \"@openzeppelin/contracts/access/Ownable.sol\":1710:1716  _owner */\n      dup1\n      0x00\n      swap1\n      sload\n      swap1\n      0x0100\n      exp\n      swap1\n      div\n      0xffffffffffffffffffffffffffffffffffffffff\n      and\n        /* \"@openzeppelin/contracts/access/Ownable.sol\":1703:1716  return _owner */\n      swap1\n      pop\n        /* \"@openzeppelin/contracts/access/Ownable.sol\":1638:1723  function owner() public view virtual returns (address) {... */\n      swap1\n      jump\t// out\n        /* \"contracts/Basic/Twitter.sol\":3525:3804  function unlikeTweet(uint256 _id, address _author) external onlyRegistered {... */\n    tag_46:\n        /* \"contracts/Basic/Twitter.sol\":1950:1951  0 */\n      0x00\n        /* \"contracts/Basic/Twitter.sol\":1889:1904  profileContract */\n      0x04\n      0x00\n      swap1\n      sload\n      swap1\n      0x0100\n      exp\n      swap1\n      div\n      0xffffffffffffffffffffffffffffffffffffffff\n      and\n        /* \"contracts/Basic/Twitter.sol\":1889:1915  profileContract.getProfile */\n      0xffffffffffffffffffffffffffffffffffffffff\n      and\n      0x0f53a470\n        /* \"contracts/Basic/Twitter.sol\":1916:1926  msg.sender */\n      caller\n        /* \"contracts/Basic/Twitter.sol\":1889:1927  profileContract.getProfile(msg.sender) */\n      mload(0x40)\n      dup3\n      0xffffffff\n      and\n      0xe0\n      shl\n      dup2\n      mstore\n      0x04\n      add\n      tag_118\n      swap2\n      swap1\n      tag_39\n      jump\t// in\n    tag_118:\n      0x00\n      mload(0x40)\n      dup1\n      dup4\n      sub\n      dup2\n      dup7\n      gas\n      staticcall\n      iszero\n      dup1\n      iszero\n      tag_120\n      jumpi\n      returndatasize\n      0x00\n      dup1\n      returndatacopy\n      revert(0x00, returndatasize)\n    tag_120:\n      pop\n      pop\n      pop\n      pop\n      mload(0x40)\n      returndatasize\n      0x00\n      dup3\n      returndatacopy\n      returndatasize\n      not(0x1f)\n      0x1f\n      dup3\n      add\n      and\n      dup3\n      add\n      dup1\n      0x40\n      mstore\n      pop\n      dup2\n      add\n      swap1\n      tag_121\n      swap2\n      swap1\n      tag_93\n      jump\t// in\n    tag_121:\n        /* \"contracts/Basic/Twitter.sol\":1889:1939  profileContract.getProfile(msg.sender).displayName */\n      0x00\n      add\n      mload\n        /* \"contracts/Basic/Twitter.sol\":1883:1947  bytes(profileContract.getProfile(msg.sender).displayName).length */\n      mload\n        /* \"contracts/Basic/Twitter.sol\":1883:1951  bytes(profileContract.getProfile(msg.sender).displayName).length > 0 */\n      gt\n        /* \"contracts/Basic/Twitter.sol\":1875:1984  require(bytes(profileContract.getProfile(msg.sender).displayName).length > 0, \"User does not have a profile\") */\n      tag_122\n      jumpi\n      mload(0x40)\n      0x08c379a000000000000000000000000000000000000000000000000000000000\n      dup2\n      mstore\n      0x04\n      add\n      tag_123\n      swap1\n      tag_96\n      jump\t// in\n    tag_123:\n      mload(0x40)\n      dup1\n      swap2\n      sub\n      swap1\n      revert\n    tag_122:\n        /* \"contracts/Basic/Twitter.sol\":3647:3648  0 */\n      0x00\n        /* \"contracts/Basic/Twitter.sol\":3618:3624  tweets */\n      0x02\n        /* \"contracts/Basic/Twitter.sol\":3618:3633  tweets[_author] */\n      0x00\n        /* \"contracts/Basic/Twitter.sol\":3625:3632  _author */\n      dup4\n        /* \"contracts/Basic/Twitter.sol\":3618:3633  tweets[_author] */\n      0xffffffffffffffffffffffffffffffffffffffff\n      and\n      0xffffffffffffffffffffffffffffffffffffffff\n      and\n      dup2\n      mstore\n      0x20\n      add\n      swap1\n      dup2\n      mstore\n      0x20\n      add\n      0x00\n      keccak256\n        /* \"contracts/Basic/Twitter.sol\":3618:3638  tweets[_author][_id] */\n      0x00\n        /* \"contracts/Basic/Twitter.sol\":3634:3637  _id */\n      dup5\n        /* \"contracts/Basic/Twitter.sol\":3618:3638  tweets[_author][_id] */\n      dup2\n      mstore\n      0x20\n      add\n      swap1\n      dup2\n      mstore\n      0x20\n      add\n      0x00\n      keccak256\n        /* \"contracts/Basic/Twitter.sol\":3618:3644  tweets[_author][_id].likes */\n      0x04\n      add\n      sload\n        /* \"contracts/Basic/Twitter.sol\":3618:3648  tweets[_author][_id].likes > 0 */\n      gt\n        /* \"contracts/Basic/Twitter.sol\":3610:3677  require(tweets[_author][_id].likes > 0, \"Likes have not added yet\") */\n      tag_125\n      jumpi\n      mload(0x40)\n      0x08c379a000000000000000000000000000000000000000000000000000000000\n      dup2\n      mstore\n      0x04\n      add\n      tag_126\n      swap1\n      tag_127\n      jump\t// in\n    tag_126:\n      mload(0x40)\n      dup1\n      swap2\n      sub\n      swap1\n      revert\n    tag_125:\n        /* \"contracts/Basic/Twitter.sol\":3687:3693  tweets */\n      0x02\n        /* \"contracts/Basic/Twitter.sol\":3687:3702  tweets[_author] */\n      0x00\n        /* \"contracts/Basic/Twitter.sol\":3694:3701  _author */\n      dup3\n        /* \"contracts/Basic/Twitter.sol\":3687:3702  tweets[_author] */\n      0xffffffffffffffffffffffffffffffffffffffff\n      and\n      0xffffffffffffffffffffffffffffffffffffffff\n      and\n      dup2\n      mstore\n      0x20\n      add\n      swap1\n      dup2\n      mstore\n      0x20\n      add\n      0x00\n      keccak256\n        /* \"contracts/Basic/Twitter.sol\":3687:3707  tweets[_author][_id] */\n      0x00\n        /* \"contracts/Basic/Twitter.sol\":3703:3706  _id */\n      dup4\n        /* \"contracts/Basic/Twitter.sol\":3687:3707  tweets[_author][_id] */\n      dup2\n      mstore\n      0x20\n      add\n      swap1\n      dup2\n      mstore\n      0x20\n      add\n      0x00\n      keccak256\n        /* \"contracts/Basic/Twitter.sol\":3687:3713  tweets[_author][_id].likes */\n      0x04\n      add\n      0x00\n        /* \"contracts/Basic/Twitter.sol\":3687:3715  tweets[_author][_id].likes-- */\n      dup2\n      sload\n      dup1\n      swap3\n      swap2\n      swap1\n      tag_128\n      swap1\n      tag_129\n      jump\t// in\n    tag_128:\n      swap2\n      swap1\n      pop\n      sstore\n      pop\n        /* \"contracts/Basic/Twitter.sol\":3731:3797  TweetUnliked(_id, _author, tweets[_author][_id].likes, msg.sender) */\n      0x560f33c84a1e75cd12dcc1ef33a1eca2b503d63bff21b19bf61d9a18fe9f3b41\n        /* \"contracts/Basic/Twitter.sol\":3744:3747  _id */\n      dup3\n        /* \"contracts/Basic/Twitter.sol\":3749:3756  _author */\n      dup3\n        /* \"contracts/Basic/Twitter.sol\":3758:3764  tweets */\n      0x02\n        /* \"contracts/Basic/Twitter.sol\":3758:3773  tweets[_author] */\n      0x00\n        /* \"contracts/Basic/Twitter.sol\":3765:3772  _author */\n      dup6\n        /* \"contracts/Basic/Twitter.sol\":3758:3773  tweets[_author] */\n      0xffffffffffffffffffffffffffffffffffffffff\n      and\n      0xffffffffffffffffffffffffffffffffffffffff\n      and\n      dup2\n      mstore\n      0x20\n      add\n      swap1\n      dup2\n      mstore\n      0x20\n      add\n      0x00\n      keccak256\n        /* \"contracts/Basic/Twitter.sol\":3758:3778  tweets[_author][_id] */\n      0x00\n        /* \"contracts/Basic/Twitter.sol\":3774:3777  _id */\n      dup7\n        /* \"contracts/Basic/Twitter.sol\":3758:3778  tweets[_author][_id] */\n      dup2\n      mstore\n      0x20\n      add\n      swap1\n      dup2\n      mstore\n      0x20\n      add\n      0x00\n      keccak256\n        /* \"contracts/Basic/Twitter.sol\":3758:3784  tweets[_author][_id].likes */\n      0x04\n      add\n      sload\n        /* \"contracts/Basic/Twitter.sol\":3786:3796  msg.sender */\n      caller\n        /* \"contracts/Basic/Twitter.sol\":3731:3797  TweetUnliked(_id, _author, tweets[_author][_id].likes, msg.sender) */\n      mload(0x40)\n      tag_130\n      swap5\n      swap4\n      swap3\n      swap2\n      swap1\n      tag_131\n      jump\t// in\n    tag_130:\n      mload(0x40)\n      dup1\n      swap2\n      sub\n      swap1\n      log1\n        /* \"contracts/Basic/Twitter.sol\":3525:3804  function unlikeTweet(uint256 _id, address _author) external onlyRegistered {... */\n      pop\n      pop\n      jump\t// out\n        /* \"contracts/Basic/Twitter.sol\":2612:2719  function getTweet(uint _i) public view returns (Tweet memory){... */\n    tag_50:\n        /* \"contracts/Basic/Twitter.sol\":2660:2672  Tweet memory */\n      tag_132\n      tag_66\n      jump\t// in\n    tag_132:\n        /* \"contracts/Basic/Twitter.sol\":2690:2696  tweets */\n      0x02\n        /* \"contracts/Basic/Twitter.sol\":2690:2708  tweets[msg.sender] */\n      0x00\n        /* \"contracts/Basic/Twitter.sol\":2697:2707  msg.sender */\n      caller\n        /* \"contracts/Basic/Twitter.sol\":2690:2708  tweets[msg.sender] */\n      0xffffffffffffffffffffffffffffffffffffffff\n      and\n      0xffffffffffffffffffffffffffffffffffffffff\n      and\n      dup2\n      mstore\n      0x20\n      add\n      swap1\n      dup2\n      mstore\n      0x20\n      add\n      0x00\n      keccak256\n        /* \"contracts/Basic/Twitter.sol\":2690:2712  tweets[msg.sender][_i] */\n      0x00\n        /* \"contracts/Basic/Twitter.sol\":2709:2711  _i */\n      dup4\n        /* \"contracts/Basic/Twitter.sol\":2690:2712  tweets[msg.sender][_i] */\n      dup2\n      mstore\n      0x20\n      add\n      swap1\n      dup2\n      mstore\n      0x20\n      add\n      0x00\n      keccak256\n        /* \"contracts/Basic/Twitter.sol\":2683:2712  return tweets[msg.sender][_i] */\n      mload(0x40)\n      dup1\n      0xa0\n      add\n      0x40\n      mstore\n      swap1\n      dup2\n      0x00\n      dup3\n      add\n      sload\n      dup2\n      mstore\n      0x20\n      add\n      0x01\n      dup3\n      add\n      0x00\n      swap1\n      sload\n      swap1\n      0x0100\n      exp\n      swap1\n      div\n      0xffffffffffffffffffffffffffffffffffffffff\n      and\n      0xffffffffffffffffffffffffffffffffffffffff\n      and\n      0xffffffffffffffffffffffffffffffffffffffff\n      and\n      dup2\n      mstore\n      0x20\n      add\n      0x02\n      dup3\n      add\n      dup1\n      sload\n      tag_134\n      swap1\n      tag_71\n      jump\t// in\n    tag_134:\n      dup1\n      0x1f\n      add\n      0x20\n      dup1\n      swap2\n      div\n      mul\n      0x20\n      add\n      mload(0x40)\n      swap1\n      dup2\n      add\n      0x40\n      mstore\n      dup1\n      swap3\n      swap2\n      swap1\n      dup2\n      dup2\n      mstore\n      0x20\n      add\n      dup3\n      dup1\n      sload\n      tag_135\n      swap1\n      tag_71\n      jump\t// in\n    tag_135:\n      dup1\n      iszero\n      tag_136\n      jumpi\n      dup1\n      0x1f\n      lt\n      tag_137\n      jumpi\n      0x0100\n      dup1\n      dup4\n      sload\n      div\n      mul\n      dup4\n      mstore\n      swap2\n      0x20\n      add\n      swap2\n      jump(tag_136)\n    tag_137:\n      dup3\n      add\n      swap2\n      swap1\n      0x00\n      mstore\n      keccak256(0x00, 0x20)\n      swap1\n    tag_138:\n      dup2\n      sload\n      dup2\n      mstore\n      swap1\n      0x01\n      add\n      swap1\n      0x20\n      add\n      dup1\n      dup4\n      gt\n      tag_138\n      jumpi\n      dup3\n      swap1\n      sub\n      0x1f\n      and\n      dup3\n      add\n      swap2\n    tag_136:\n      pop\n      pop\n      pop\n      pop\n      pop\n      dup2\n      mstore\n      0x20\n      add\n      0x03\n      dup3\n      add\n      sload\n      dup2\n      mstore\n      0x20\n      add\n      0x04\n      dup3\n      add\n      sload\n      dup2\n      mstore\n      pop\n      pop\n      swap1\n      pop\n        /* \"contracts/Basic/Twitter.sol\":2612:2719  function getTweet(uint _i) public view returns (Tweet memory){... */\n      swap2\n      swap1\n      pop\n      jump\t// out\n        /* \"contracts/Basic/Twitter.sol\":3248:3519  function likeTweet(uint256 _id, address _author) external onlyRegistered {... */\n    tag_55:\n        /* \"contracts/Basic/Twitter.sol\":1950:1951  0 */\n      0x00\n        /* \"contracts/Basic/Twitter.sol\":1889:1904  profileContract */\n      0x04\n      0x00\n      swap1\n      sload\n      swap1\n      0x0100\n      exp\n      swap1\n      div\n      0xffffffffffffffffffffffffffffffffffffffff\n      and\n        /* \"contracts/Basic/Twitter.sol\":1889:1915  profileContract.getProfile */\n      0xffffffffffffffffffffffffffffffffffffffff\n      and\n      0x0f53a470\n        /* \"contracts/Basic/Twitter.sol\":1916:1926  msg.sender */\n      caller\n        /* \"contracts/Basic/Twitter.sol\":1889:1927  profileContract.getProfile(msg.sender) */\n      mload(0x40)\n      dup3\n      0xffffffff\n      and\n      0xe0\n      shl\n      dup2\n      mstore\n      0x04\n      add\n      tag_140\n      swap2\n      swap1\n      tag_39\n      jump\t// in\n    tag_140:\n      0x00\n      mload(0x40)\n      dup1\n      dup4\n      sub\n      dup2\n      dup7\n      gas\n      staticcall\n      iszero\n      dup1\n      iszero\n      tag_142\n      jumpi\n      returndatasize\n      0x00\n      dup1\n      returndatacopy\n      revert(0x00, returndatasize)\n    tag_142:\n      pop\n      pop\n      pop\n      pop\n      mload(0x40)\n      returndatasize\n      0x00\n      dup3\n      returndatacopy\n      returndatasize\n      not(0x1f)\n      0x1f\n      dup3\n      add\n      and\n      dup3\n      add\n      dup1\n      0x40\n      mstore\n      pop\n      dup2\n      add\n      swap1\n      tag_143\n      swap2\n      swap1\n      tag_93\n      jump\t// in\n    tag_143:\n        /* \"contracts/Basic/Twitter.sol\":1889:1939  profileContract.getProfile(msg.sender).displayName */\n      0x00\n      add\n      mload\n        /* \"contracts/Basic/Twitter.sol\":1883:1947  bytes(profileContract.getProfile(msg.sender).displayName).length */\n      mload\n        /* \"contracts/Basic/Twitter.sol\":1883:1951  bytes(profileContract.getProfile(msg.sender).displayName).length > 0 */\n      gt\n        /* \"contracts/Basic/Twitter.sol\":1875:1984  require(bytes(profileContract.getProfile(msg.sender).displayName).length > 0, \"User does not have a profile\") */\n      tag_144\n      jumpi\n      mload(0x40)\n      0x08c379a000000000000000000000000000000000000000000000000000000000\n      dup2\n      mstore\n      0x04\n      add\n      tag_145\n      swap1\n      tag_96\n      jump\t// in\n    tag_145:\n      mload(0x40)\n      dup1\n      swap2\n      sub\n      swap1\n      revert\n    tag_144:\n        /* \"contracts/Basic/Twitter.sol\":3366:3369  _id */\n      dup2\n        /* \"contracts/Basic/Twitter.sol\":3339:3345  tweets */\n      0x02\n        /* \"contracts/Basic/Twitter.sol\":3339:3354  tweets[_author] */\n      0x00\n        /* \"contracts/Basic/Twitter.sol\":3346:3353  _author */\n      dup4\n        /* \"contracts/Basic/Twitter.sol\":3339:3354  tweets[_author] */\n      0xffffffffffffffffffffffffffffffffffffffff\n      and\n      0xffffffffffffffffffffffffffffffffffffffff\n      and\n      dup2\n      mstore\n      0x20\n      add\n      swap1\n      dup2\n      mstore\n      0x20\n      add\n      0x00\n      keccak256\n        /* \"contracts/Basic/Twitter.sol\":3339:3359  tweets[_author][_id] */\n      0x00\n        /* \"contracts/Basic/Twitter.sol\":3355:3358  _id */\n      dup5\n        /* \"contracts/Basic/Twitter.sol\":3339:3359  tweets[_author][_id] */\n      dup2\n      mstore\n      0x20\n      add\n      swap1\n      dup2\n      mstore\n      0x20\n      add\n      0x00\n      keccak256\n        /* \"contracts/Basic/Twitter.sol\":3339:3362  tweets[_author][_id].id */\n      0x00\n      add\n      sload\n        /* \"contracts/Basic/Twitter.sol\":3339:3369  tweets[_author][_id].id == _id */\n      eq\n        /* \"contracts/Basic/Twitter.sol\":3331:3394  require(tweets[_author][_id].id == _id, \"Tweet does not exist\") */\n      tag_147\n      jumpi\n      mload(0x40)\n      0x08c379a000000000000000000000000000000000000000000000000000000000\n      dup2\n      mstore\n      0x04\n      add\n      tag_148\n      swap1\n      tag_149\n      jump\t// in\n    tag_148:\n      mload(0x40)\n      dup1\n      swap2\n      sub\n      swap1\n      revert\n    tag_147:\n        /* \"contracts/Basic/Twitter.sol\":3404:3410  tweets */\n      0x02\n        /* \"contracts/Basic/Twitter.sol\":3404:3419  tweets[_author] */\n      0x00\n        /* \"contracts/Basic/Twitter.sol\":3411:3418  _author */\n      dup3\n        /* \"contracts/Basic/Twitter.sol\":3404:3419  tweets[_author] */\n      0xffffffffffffffffffffffffffffffffffffffff\n      and\n      0xffffffffffffffffffffffffffffffffffffffff\n      and\n      dup2\n      mstore\n      0x20\n      add\n      swap1\n      dup2\n      mstore\n      0x20\n      add\n      0x00\n      keccak256\n        /* \"contracts/Basic/Twitter.sol\":3404:3424  tweets[_author][_id] */\n      0x00\n        /* \"contracts/Basic/Twitter.sol\":3420:3423  _id */\n      dup4\n        /* \"contracts/Basic/Twitter.sol\":3404:3424  tweets[_author][_id] */\n      dup2\n      mstore\n      0x20\n      add\n      swap1\n      dup2\n      mstore\n      0x20\n      add\n      0x00\n      keccak256\n        /* \"contracts/Basic/Twitter.sol\":3404:3430  tweets[_author][_id].likes */\n      0x04\n      add\n      0x00\n        /* \"contracts/Basic/Twitter.sol\":3404:3432  tweets[_author][_id].likes++ */\n      dup2\n      sload\n      dup1\n      swap3\n      swap2\n      swap1\n      tag_150\n      swap1\n      tag_106\n      jump\t// in\n    tag_150:\n      swap2\n      swap1\n      pop\n      sstore\n      pop\n        /* \"contracts/Basic/Twitter.sol\":3448:3512  TweetLiked(_id, _author, tweets[_author][_id].likes, msg.sender) */\n      0x3406cce04214d6f2a48b440426569ed56dc2700c5801c7891e32d62e23cb2331\n        /* \"contracts/Basic/Twitter.sol\":3459:3462  _id */\n      dup3\n        /* \"contracts/Basic/Twitter.sol\":3464:3471  _author */\n      dup3\n        /* \"contracts/Basic/Twitter.sol\":3473:3479  tweets */\n      0x02\n        /* \"contracts/Basic/Twitter.sol\":3473:3488  tweets[_author] */\n      0x00\n        /* \"contracts/Basic/Twitter.sol\":3480:3487  _author */\n      dup6\n        /* \"contracts/Basic/Twitter.sol\":3473:3488  tweets[_author] */\n      0xffffffffffffffffffffffffffffffffffffffff\n      and\n      0xffffffffffffffffffffffffffffffffffffffff\n      and\n      dup2\n      mstore\n      0x20\n      add\n      swap1\n      dup2\n      mstore\n      0x20\n      add\n      0x00\n      keccak256\n        /* \"contracts/Basic/Twitter.sol\":3473:3493  tweets[_author][_id] */\n      0x00\n        /* \"contracts/Basic/Twitter.sol\":3489:3492  _id */\n      dup7\n        /* \"contracts/Basic/Twitter.sol\":3473:3493  tweets[_author][_id] */\n      dup2\n      mstore\n      0x20\n      add\n      swap1\n      dup2\n      mstore\n      0x20\n      add\n      0x00\n      keccak256\n        /* \"contracts/Basic/Twitter.sol\":3473:3499  tweets[_author][_id].likes */\n      0x04\n      add\n      sload\n        /* \"contracts/Basic/Twitter.sol\":3501:3511  msg.sender */\n      caller\n        /* \"contracts/Basic/Twitter.sol\":3448:3512  TweetLiked(_id, _author, tweets[_author][_id].likes, msg.sender) */\n      mload(0x40)\n      tag_151\n      swap5\n      swap4\n      swap3\n      swap2\n      swap1\n      tag_131\n      jump\t// in\n    tag_151:\n      mload(0x40)\n      dup1\n      swap2\n      sub\n      swap1\n      log1\n        /* \"contracts/Basic/Twitter.sol\":3248:3519  function likeTweet(uint256 _id, address _author) external onlyRegistered {... */\n      pop\n      pop\n      jump\t// out\n        /* \"@openzeppelin/contracts/access/Ownable.sol\":2543:2758  function transferOwnership(address newOwner) public virtual onlyOwner {... */\n    tag_58:\n        /* \"@openzeppelin/contracts/access/Ownable.sol\":1531:1544  _checkOwner() */\n      tag_153\n        /* \"@openzeppelin/contracts/access/Ownable.sol\":1531:1542  _checkOwner */\n      tag_81\n        /* \"@openzeppelin/contracts/access/Ownable.sol\":1531:1544  _checkOwner() */\n      jump\t// in\n    tag_153:\n        /* \"@openzeppelin/contracts/access/Ownable.sol\":2647:2648  0 */\n      0x00\n        /* \"@openzeppelin/contracts/access/Ownable.sol\":2627:2649  newOwner == address(0) */\n      0xffffffffffffffffffffffffffffffffffffffff\n      and\n        /* \"@openzeppelin/contracts/access/Ownable.sol\":2627:2635  newOwner */\n      dup2\n        /* \"@openzeppelin/contracts/access/Ownable.sol\":2627:2649  newOwner == address(0) */\n      0xffffffffffffffffffffffffffffffffffffffff\n      and\n      sub\n        /* \"@openzeppelin/contracts/access/Ownable.sol\":2623:2714  if (newOwner == address(0)) {... */\n      tag_155\n      jumpi\n        /* \"@openzeppelin/contracts/access/Ownable.sol\":2700:2701  0 */\n      0x00\n        /* \"@openzeppelin/contracts/access/Ownable.sol\":2672:2703  OwnableInvalidOwner(address(0)) */\n      mload(0x40)\n      0x1e4fbdf700000000000000000000000000000000000000000000000000000000\n      dup2\n      mstore\n      0x04\n      add\n      tag_156\n      swap2\n      swap1\n      tag_39\n      jump\t// in\n    tag_156:\n      mload(0x40)\n      dup1\n      swap2\n      sub\n      swap1\n      revert\n        /* \"@openzeppelin/contracts/access/Ownable.sol\":2623:2714  if (newOwner == address(0)) {... */\n    tag_155:\n        /* \"@openzeppelin/contracts/access/Ownable.sol\":2723:2751  _transferOwnership(newOwner) */\n      tag_157\n        /* \"@openzeppelin/contracts/access/Ownable.sol\":2742:2750  newOwner */\n      dup2\n        /* \"@openzeppelin/contracts/access/Ownable.sol\":2723:2741  _transferOwnership */\n      tag_87\n        /* \"@openzeppelin/contracts/access/Ownable.sol\":2723:2751  _transferOwnership(newOwner) */\n      jump\t// in\n    tag_157:\n        /* \"@openzeppelin/contracts/access/Ownable.sol\":2543:2758  function transferOwnership(address newOwner) public virtual onlyOwner {... */\n      pop\n      jump\t// out\n        /* \"@openzeppelin/contracts/access/Ownable.sol\":1796:1958  function _checkOwner() internal view virtual {... */\n    tag_81:\n        /* \"@openzeppelin/contracts/access/Ownable.sol\":1866:1878  _msgSender() */\n      tag_159\n        /* \"@openzeppelin/contracts/access/Ownable.sol\":1866:1876  _msgSender */\n      tag_160\n        /* \"@openzeppelin/contracts/access/Ownable.sol\":1866:1878  _msgSender() */\n      jump\t// in\n    tag_159:\n        /* \"@openzeppelin/contracts/access/Ownable.sol\":1855:1878  owner() != _msgSender() */\n      0xffffffffffffffffffffffffffffffffffffffff\n      and\n        /* \"@openzeppelin/contracts/access/Ownable.sol\":1855:1862  owner() */\n      tag_161\n        /* \"@openzeppelin/contracts/access/Ownable.sol\":1855:1860  owner */\n      tag_41\n        /* \"@openzeppelin/contracts/access/Ownable.sol\":1855:1862  owner() */\n      jump\t// in\n    tag_161:\n        /* \"@openzeppelin/contracts/access/Ownable.sol\":1855:1878  owner() != _msgSender() */\n      0xffffffffffffffffffffffffffffffffffffffff\n      and\n      eq\n        /* \"@openzeppelin/contracts/access/Ownable.sol\":1851:1952  if (owner() != _msgSender()) {... */\n      tag_162\n      jumpi\n        /* \"@openzeppelin/contracts/access/Ownable.sol\":1928:1940  _msgSender() */\n      tag_163\n        /* \"@openzeppelin/contracts/access/Ownable.sol\":1928:1938  _msgSender */\n      tag_160\n        /* \"@openzeppelin/contracts/access/Ownable.sol\":1928:1940  _msgSender() */\n      jump\t// in\n    tag_163:\n        /* \"@openzeppelin/contracts/access/Ownable.sol\":1901:1941  OwnableUnauthorizedAccount(_msgSender()) */\n      mload(0x40)\n      0x118cdaa700000000000000000000000000000000000000000000000000000000\n      dup2\n      mstore\n      0x04\n      add\n      tag_164\n      swap2\n      swap1\n      tag_39\n      jump\t// in\n    tag_164:\n      mload(0x40)\n      dup1\n      swap2\n      sub\n      swap1\n      revert\n        /* \"@openzeppelin/contracts/access/Ownable.sol\":1851:1952  if (owner() != _msgSender()) {... */\n    tag_162:\n        /* \"@openzeppelin/contracts/access/Ownable.sol\":1796:1958  function _checkOwner() internal view virtual {... */\n      jump\t// out\n        /* \"@openzeppelin/contracts/access/Ownable.sol\":2912:3099  function _transferOwnership(address newOwner) internal virtual {... */\n    tag_87:\n        /* \"@openzeppelin/contracts/access/Ownable.sol\":2985:3001  address oldOwner */\n      0x00\n        /* \"@openzeppelin/contracts/access/Ownable.sol\":3004:3010  _owner */\n      dup1\n      0x00\n      swap1\n      sload\n      swap1\n      0x0100\n      exp\n      swap1\n      div\n      0xffffffffffffffffffffffffffffffffffffffff\n      and\n        /* \"@openzeppelin/contracts/access/Ownable.sol\":2985:3010  address oldOwner = _owner */\n      swap1\n      pop\n        /* \"@openzeppelin/contracts/access/Ownable.sol\":3029:3037  newOwner */\n      dup2\n        /* \"@openzeppelin/contracts/access/Ownable.sol\":3020:3026  _owner */\n      0x00\n      dup1\n        /* \"@openzeppelin/contracts/access/Ownable.sol\":3020:3037  _owner = newOwner */\n      0x0100\n      exp\n      dup2\n      sload\n      dup2\n      0xffffffffffffffffffffffffffffffffffffffff\n      mul\n      not\n      and\n      swap1\n      dup4\n      0xffffffffffffffffffffffffffffffffffffffff\n      and\n      mul\n      or\n      swap1\n      sstore\n      pop\n        /* \"@openzeppelin/contracts/access/Ownable.sol\":3083:3091  newOwner */\n      dup2\n        /* \"@openzeppelin/contracts/access/Ownable.sol\":3052:3092  OwnershipTransferred(oldOwner, newOwner) */\n      0xffffffffffffffffffffffffffffffffffffffff\n      and\n        /* \"@openzeppelin/contracts/access/Ownable.sol\":3073:3081  oldOwner */\n      dup2\n        /* \"@openzeppelin/contracts/access/Ownable.sol\":3052:3092  OwnershipTransferred(oldOwner, newOwner) */\n      0xffffffffffffffffffffffffffffffffffffffff\n      and\n      0x8be0079c531659141344cd1fd0a4f28419497f9722a3daafe3b4186f6b6457e0\n      mload(0x40)\n      mload(0x40)\n      dup1\n      swap2\n      sub\n      swap1\n      log3\n        /* \"@openzeppelin/contracts/access/Ownable.sol\":2975:3099  {... */\n      pop\n        /* \"@openzeppelin/contracts/access/Ownable.sol\":2912:3099  function _transferOwnership(address newOwner) internal virtual {... */\n      pop\n      jump\t// out\n        /* \"@openzeppelin/contracts/utils/Context.sol\":656:752  function _msgSender() internal view virtual returns (address) {... */\n    tag_160:\n        /* \"@openzeppelin/contracts/utils/Context.sol\":709:716  address */\n      0x00\n        /* \"@openzeppelin/contracts/utils/Context.sol\":735:745  msg.sender */\n      caller\n        /* \"@openzeppelin/contracts/utils/Context.sol\":728:745  return msg.sender */\n      swap1\n      pop\n        /* \"@openzeppelin/contracts/utils/Context.sol\":656:752  function _msgSender() internal view virtual returns (address) {... */\n      swap1\n      jump\t// out\n    tag_66:\n      mload(0x40)\n      dup1\n      0xa0\n      add\n      0x40\n      mstore\n      dup1\n      0x00\n      dup2\n      mstore\n      0x20\n      add\n      and(0xffffffffffffffffffffffffffffffffffffffff, 0x00)\n      dup2\n      mstore\n      0x20\n      add\n      0x60\n      dup2\n      mstore\n      0x20\n      add\n      0x00\n      dup2\n      mstore\n      0x20\n      add\n      0x00\n      dup2\n      mstore\n      pop\n      swap1\n      jump\t// out\n        /* \"#utility.yul\":7:82   */\n    tag_167:\n        /* \"#utility.yul\":40:46   */\n      0x00\n        /* \"#utility.yul\":73:75   */\n      0x40\n        /* \"#utility.yul\":67:76   */\n      mload\n        /* \"#utility.yul\":57:76   */\n      swap1\n      pop\n        /* \"#utility.yul\":7:82   */\n      swap1\n      jump\t// out\n        /* \"#utility.yul\":88:205   */\n    tag_168:\n        /* \"#utility.yul\":197:198   */\n      0x00\n        /* \"#utility.yul\":194:195   */\n      dup1\n        /* \"#utility.yul\":187:199   */\n      revert\n        /* \"#utility.yul\":211:328   */\n    tag_169:\n        /* \"#utility.yul\":320:321   */\n      0x00\n        /* \"#utility.yul\":317:318   */\n      dup1\n        /* \"#utility.yul\":310:322   */\n      revert\n        /* \"#utility.yul\":334:460   */\n    tag_170:\n        /* \"#utility.yul\":371:378   */\n      0x00\n        /* \"#utility.yul\":411:453   */\n      0xffffffffffffffffffffffffffffffffffffffff\n        /* \"#utility.yul\":404:409   */\n      dup3\n        /* \"#utility.yul\":400:454   */\n      and\n        /* \"#utility.yul\":389:454   */\n      swap1\n      pop\n        /* \"#utility.yul\":334:460   */\n      swap2\n      swap1\n      pop\n      jump\t// out\n        /* \"#utility.yul\":466:562   */\n    tag_171:\n        /* \"#utility.yul\":503:510   */\n      0x00\n        /* \"#utility.yul\":532:556   */\n      tag_243\n        /* \"#utility.yul\":550:555   */\n      dup3\n        /* \"#utility.yul\":532:556   */\n      tag_170\n      jump\t// in\n    tag_243:\n        /* \"#utility.yul\":521:556   */\n      swap1\n      pop\n        /* \"#utility.yul\":466:562   */\n      swap2\n      swap1\n      pop\n      jump\t// out\n        /* \"#utility.yul\":568:690   */\n    tag_172:\n        /* \"#utility.yul\":641:665   */\n      tag_245\n        /* \"#utility.yul\":659:664   */\n      dup2\n        /* \"#utility.yul\":641:665   */\n      tag_171\n      jump\t// in\n    tag_245:\n        /* \"#utility.yul\":634:639   */\n      dup2\n        /* \"#utility.yul\":631:666   */\n      eq\n        /* \"#utility.yul\":621:684   */\n      tag_246\n      jumpi\n        /* \"#utility.yul\":680:681   */\n      0x00\n        /* \"#utility.yul\":677:678   */\n      dup1\n        /* \"#utility.yul\":670:682   */\n      revert\n        /* \"#utility.yul\":621:684   */\n    tag_246:\n        /* \"#utility.yul\":568:690   */\n      pop\n      jump\t// out\n        /* \"#utility.yul\":696:835   */\n    tag_173:\n        /* \"#utility.yul\":742:747   */\n      0x00\n        /* \"#utility.yul\":780:786   */\n      dup2\n        /* \"#utility.yul\":767:787   */\n      calldataload\n        /* \"#utility.yul\":758:787   */\n      swap1\n      pop\n        /* \"#utility.yul\":796:829   */\n      tag_248\n        /* \"#utility.yul\":823:828   */\n      dup2\n        /* \"#utility.yul\":796:829   */\n      tag_172\n      jump\t// in\n    tag_248:\n        /* \"#utility.yul\":696:835   */\n      swap3\n      swap2\n      pop\n      pop\n      jump\t// out\n        /* \"#utility.yul\":841:1170   */\n    tag_17:\n        /* \"#utility.yul\":900:906   */\n      0x00\n        /* \"#utility.yul\":949:951   */\n      0x20\n        /* \"#utility.yul\":937:946   */\n      dup3\n        /* \"#utility.yul\":928:935   */\n      dup5\n        /* \"#utility.yul\":924:947   */\n      sub\n        /* \"#utility.yul\":920:952   */\n      slt\n        /* \"#utility.yul\":917:1036   */\n      iszero\n      tag_250\n      jumpi\n        /* \"#utility.yul\":955:1034   */\n      tag_251\n      tag_168\n      jump\t// in\n    tag_251:\n        /* \"#utility.yul\":917:1036   */\n    tag_250:\n        /* \"#utility.yul\":1075:1076   */\n      0x00\n        /* \"#utility.yul\":1100:1153   */\n      tag_252\n        /* \"#utility.yul\":1145:1152   */\n      dup5\n        /* \"#utility.yul\":1136:1142   */\n      dup3\n        /* \"#utility.yul\":1125:1134   */\n      dup6\n        /* \"#utility.yul\":1121:1143   */\n      add\n        /* \"#utility.yul\":1100:1153   */\n      tag_173\n      jump\t// in\n    tag_252:\n        /* \"#utility.yul\":1090:1153   */\n      swap2\n      pop\n        /* \"#utility.yul\":1046:1163   */\n      pop\n        /* \"#utility.yul\":841:1170   */\n      swap3\n      swap2\n      pop\n      pop\n      jump\t// out\n        /* \"#utility.yul\":1176:1312   */\n    tag_174:\n        /* \"#utility.yul\":1265:1271   */\n      0x00\n        /* \"#utility.yul\":1299:1304   */\n      dup2\n        /* \"#utility.yul\":1293:1305   */\n      mload\n        /* \"#utility.yul\":1283:1305   */\n      swap1\n      pop\n        /* \"#utility.yul\":1176:1312   */\n      swap2\n      swap1\n      pop\n      jump\t// out\n        /* \"#utility.yul\":1318:1524   */\n    tag_175:\n        /* \"#utility.yul\":1439:1450   */\n      0x00\n        /* \"#utility.yul\":1473:1479   */\n      dup3\n        /* \"#utility.yul\":1468:1471   */\n      dup3\n        /* \"#utility.yul\":1461:1480   */\n      mstore\n        /* \"#utility.yul\":1513:1517   */\n      0x20\n        /* \"#utility.yul\":1508:1511   */\n      dup3\n        /* \"#utility.yul\":1504:1518   */\n      add\n        /* \"#utility.yul\":1489:1518   */\n      swap1\n      pop\n        /* \"#utility.yul\":1318:1524   */\n      swap3\n      swap2\n      pop\n      pop\n      jump\t// out\n        /* \"#utility.yul\":1530:1684   */\n    tag_176:\n        /* \"#utility.yul\":1619:1623   */\n      0x00\n        /* \"#utility.yul\":1642:1645   */\n      dup2\n        /* \"#utility.yul\":1634:1645   */\n      swap1\n      pop\n        /* \"#utility.yul\":1672:1676   */\n      0x20\n        /* \"#utility.yul\":1667:1670   */\n      dup3\n        /* \"#utility.yul\":1663:1677   */\n      add\n        /* \"#utility.yul\":1655:1677   */\n      swap1\n      pop\n        /* \"#utility.yul\":1530:1684   */\n      swap2\n      swap1\n      pop\n      jump\t// out\n        /* \"#utility.yul\":1690:1767   */\n    tag_177:\n        /* \"#utility.yul\":1727:1734   */\n      0x00\n        /* \"#utility.yul\":1756:1761   */\n      dup2\n        /* \"#utility.yul\":1745:1761   */\n      swap1\n      pop\n        /* \"#utility.yul\":1690:1767   */\n      swap2\n      swap1\n      pop\n      jump\t// out\n        /* \"#utility.yul\":1773:1881   */\n    tag_178:\n        /* \"#utility.yul\":1850:1874   */\n      tag_258\n        /* \"#utility.yul\":1868:1873   */\n      dup2\n        /* \"#utility.yul\":1850:1874   */\n      tag_177\n      jump\t// in\n    tag_258:\n        /* \"#utility.yul\":1845:1848   */\n      dup3\n        /* \"#utility.yul\":1838:1875   */\n      mstore\n        /* \"#utility.yul\":1773:1881   */\n      pop\n      pop\n      jump\t// out\n        /* \"#utility.yul\":1887:1995   */\n    tag_179:\n        /* \"#utility.yul\":1964:1988   */\n      tag_260\n        /* \"#utility.yul\":1982:1987   */\n      dup2\n        /* \"#utility.yul\":1964:1988   */\n      tag_171\n      jump\t// in\n    tag_260:\n        /* \"#utility.yul\":1959:1962   */\n      dup3\n        /* \"#utility.yul\":1952:1989   */\n      mstore\n        /* \"#utility.yul\":1887:1995   */\n      pop\n      pop\n      jump\t// out\n        /* \"#utility.yul\":2001:2100   */\n    tag_180:\n        /* \"#utility.yul\":2053:2059   */\n      0x00\n        /* \"#utility.yul\":2087:2092   */\n      dup2\n        /* \"#utility.yul\":2081:2093   */\n      mload\n        /* \"#utility.yul\":2071:2093   */\n      swap1\n      pop\n        /* \"#utility.yul\":2001:2100   */\n      swap2\n      swap1\n      pop\n      jump\t// out\n        /* \"#utility.yul\":2106:2265   */\n    tag_181:\n        /* \"#utility.yul\":2180:2191   */\n      0x00\n        /* \"#utility.yul\":2214:2220   */\n      dup3\n        /* \"#utility.yul\":2209:2212   */\n      dup3\n        /* \"#utility.yul\":2202:2221   */\n      mstore\n        /* \"#utility.yul\":2254:2258   */\n      0x20\n        /* \"#utility.yul\":2249:2252   */\n      dup3\n        /* \"#utility.yul\":2245:2259   */\n      add\n        /* \"#utility.yul\":2230:2259   */\n      swap1\n      pop\n        /* \"#utility.yul\":2106:2265   */\n      swap3\n      swap2\n      pop\n      pop\n      jump\t// out\n        /* \"#utility.yul\":2271:2517   */\n    tag_182:\n        /* \"#utility.yul\":2352:2353   */\n      0x00\n        /* \"#utility.yul\":2362:2475   */\n    tag_264:\n        /* \"#utility.yul\":2376:2382   */\n      dup4\n        /* \"#utility.yul\":2373:2374   */\n      dup2\n        /* \"#utility.yul\":2370:2383   */\n      lt\n        /* \"#utility.yul\":2362:2475   */\n      iszero\n      tag_266\n      jumpi\n        /* \"#utility.yul\":2461:2462   */\n      dup1\n        /* \"#utility.yul\":2456:2459   */\n      dup3\n        /* \"#utility.yul\":2452:2463   */\n      add\n        /* \"#utility.yul\":2446:2464   */\n      mload\n        /* \"#utility.yul\":2442:2443   */\n      dup2\n        /* \"#utility.yul\":2437:2440   */\n      dup5\n        /* \"#utility.yul\":2433:2444   */\n      add\n        /* \"#utility.yul\":2426:2465   */\n      mstore\n        /* \"#utility.yul\":2398:2400   */\n      0x20\n        /* \"#utility.yul\":2395:2396   */\n      dup2\n        /* \"#utility.yul\":2391:2401   */\n      add\n        /* \"#utility.yul\":2386:2401   */\n      swap1\n      pop\n        /* \"#utility.yul\":2362:2475   */\n      jump(tag_264)\n    tag_266:\n        /* \"#utility.yul\":2509:2510   */\n      0x00\n        /* \"#utility.yul\":2500:2506   */\n      dup5\n        /* \"#utility.yul\":2495:2498   */\n      dup5\n        /* \"#utility.yul\":2491:2507   */\n      add\n        /* \"#utility.yul\":2484:2511   */\n      mstore\n        /* \"#utility.yul\":2333:2517   */\n      pop\n        /* \"#utility.yul\":2271:2517   */\n      pop\n      pop\n      pop\n      jump\t// out\n        /* \"#utility.yul\":2523:2625   */\n    tag_183:\n        /* \"#utility.yul\":2564:2570   */\n      0x00\n        /* \"#utility.yul\":2615:2617   */\n      0x1f\n        /* \"#utility.yul\":2611:2618   */\n      not\n        /* \"#utility.yul\":2606:2608   */\n      0x1f\n        /* \"#utility.yul\":2599:2604   */\n      dup4\n        /* \"#utility.yul\":2595:2609   */\n      add\n        /* \"#utility.yul\":2591:2619   */\n      and\n        /* \"#utility.yul\":2581:2619   */\n      swap1\n      pop\n        /* \"#utility.yul\":2523:2625   */\n      swap2\n      swap1\n      pop\n      jump\t// out\n        /* \"#utility.yul\":2631:2988   */\n    tag_184:\n        /* \"#utility.yul\":2709:2712   */\n      0x00\n        /* \"#utility.yul\":2737:2776   */\n      tag_269\n        /* \"#utility.yul\":2770:2775   */\n      dup3\n        /* \"#utility.yul\":2737:2776   */\n      tag_180\n      jump\t// in\n    tag_269:\n        /* \"#utility.yul\":2792:2853   */\n      tag_270\n        /* \"#utility.yul\":2846:2852   */\n      dup2\n        /* \"#utility.yul\":2841:2844   */\n      dup6\n        /* \"#utility.yul\":2792:2853   */\n      tag_181\n      jump\t// in\n    tag_270:\n        /* \"#utility.yul\":2785:2853   */\n      swap4\n      pop\n        /* \"#utility.yul\":2862:2927   */\n      tag_271\n        /* \"#utility.yul\":2920:2926   */\n      dup2\n        /* \"#utility.yul\":2915:2918   */\n      dup6\n        /* \"#utility.yul\":2908:2912   */\n      0x20\n        /* \"#utility.yul\":2901:2906   */\n      dup7\n        /* \"#utility.yul\":2897:2913   */\n      add\n        /* \"#utility.yul\":2862:2927   */\n      tag_182\n      jump\t// in\n    tag_271:\n        /* \"#utility.yul\":2952:2981   */\n      tag_272\n        /* \"#utility.yul\":2974:2980   */\n      dup2\n        /* \"#utility.yul\":2952:2981   */\n      tag_183\n      jump\t// in\n    tag_272:\n        /* \"#utility.yul\":2947:2950   */\n      dup5\n        /* \"#utility.yul\":2943:2982   */\n      add\n        /* \"#utility.yul\":2936:2982   */\n      swap2\n      pop\n        /* \"#utility.yul\":2713:2988   */\n      pop\n        /* \"#utility.yul\":2631:2988   */\n      swap3\n      swap2\n      pop\n      pop\n      jump\t// out\n        /* \"#utility.yul\":3046:4167   */\n    tag_185:\n        /* \"#utility.yul\":3149:3152   */\n      0x00\n        /* \"#utility.yul\":3185:3189   */\n      0xa0\n        /* \"#utility.yul\":3180:3183   */\n      dup4\n        /* \"#utility.yul\":3176:3190   */\n      add\n        /* \"#utility.yul\":3270:3274   */\n      0x00\n        /* \"#utility.yul\":3263:3268   */\n      dup4\n        /* \"#utility.yul\":3259:3275   */\n      add\n        /* \"#utility.yul\":3253:3276   */\n      mload\n        /* \"#utility.yul\":3289:3352   */\n      tag_274\n        /* \"#utility.yul\":3346:3350   */\n      0x00\n        /* \"#utility.yul\":3341:3344   */\n      dup7\n        /* \"#utility.yul\":3337:3351   */\n      add\n        /* \"#utility.yul\":3323:3335   */\n      dup3\n        /* \"#utility.yul\":3289:3352   */\n      tag_178\n      jump\t// in\n    tag_274:\n        /* \"#utility.yul\":3200:3362   */\n      pop\n        /* \"#utility.yul\":3446:3450   */\n      0x20\n        /* \"#utility.yul\":3439:3444   */\n      dup4\n        /* \"#utility.yul\":3435:3451   */\n      add\n        /* \"#utility.yul\":3429:3452   */\n      mload\n        /* \"#utility.yul\":3465:3528   */\n      tag_275\n        /* \"#utility.yul\":3522:3526   */\n      0x20\n        /* \"#utility.yul\":3517:3520   */\n      dup7\n        /* \"#utility.yul\":3513:3527   */\n      add\n        /* \"#utility.yul\":3499:3511   */\n      dup3\n        /* \"#utility.yul\":3465:3528   */\n      tag_179\n      jump\t// in\n    tag_275:\n        /* \"#utility.yul\":3372:3538   */\n      pop\n        /* \"#utility.yul\":3623:3627   */\n      0x40\n        /* \"#utility.yul\":3616:3621   */\n      dup4\n        /* \"#utility.yul\":3612:3628   */\n      add\n        /* \"#utility.yul\":3606:3629   */\n      mload\n        /* \"#utility.yul\":3676:3679   */\n      dup5\n        /* \"#utility.yul\":3670:3674   */\n      dup3\n        /* \"#utility.yul\":3666:3680   */\n      sub\n        /* \"#utility.yul\":3659:3663   */\n      0x40\n        /* \"#utility.yul\":3654:3657   */\n      dup7\n        /* \"#utility.yul\":3650:3664   */\n      add\n        /* \"#utility.yul\":3643:3681   */\n      mstore\n        /* \"#utility.yul\":3702:3775   */\n      tag_276\n        /* \"#utility.yul\":3770:3774   */\n      dup3\n        /* \"#utility.yul\":3756:3768   */\n      dup3\n        /* \"#utility.yul\":3702:3775   */\n      tag_184\n      jump\t// in\n    tag_276:\n        /* \"#utility.yul\":3694:3775   */\n      swap2\n      pop\n        /* \"#utility.yul\":3548:3786   */\n      pop\n        /* \"#utility.yul\":3873:3877   */\n      0x60\n        /* \"#utility.yul\":3866:3871   */\n      dup4\n        /* \"#utility.yul\":3862:3878   */\n      add\n        /* \"#utility.yul\":3856:3879   */\n      mload\n        /* \"#utility.yul\":3892:3955   */\n      tag_277\n        /* \"#utility.yul\":3949:3953   */\n      0x60\n        /* \"#utility.yul\":3944:3947   */\n      dup7\n        /* \"#utility.yul\":3940:3954   */\n      add\n        /* \"#utility.yul\":3926:3938   */\n      dup3\n        /* \"#utility.yul\":3892:3955   */\n      tag_178\n      jump\t// in\n    tag_277:\n        /* \"#utility.yul\":3796:3965   */\n      pop\n        /* \"#utility.yul\":4048:4052   */\n      0x80\n        /* \"#utility.yul\":4041:4046   */\n      dup4\n        /* \"#utility.yul\":4037:4053   */\n      add\n        /* \"#utility.yul\":4031:4054   */\n      mload\n        /* \"#utility.yul\":4067:4130   */\n      tag_278\n        /* \"#utility.yul\":4124:4128   */\n      0x80\n        /* \"#utility.yul\":4119:4122   */\n      dup7\n        /* \"#utility.yul\":4115:4129   */\n      add\n        /* \"#utility.yul\":4101:4113   */\n      dup3\n        /* \"#utility.yul\":4067:4130   */\n      tag_178\n      jump\t// in\n    tag_278:\n        /* \"#utility.yul\":3975:4140   */\n      pop\n        /* \"#utility.yul\":4157:4161   */\n      dup1\n        /* \"#utility.yul\":4150:4161   */\n      swap2\n      pop\n        /* \"#utility.yul\":3154:4167   */\n      pop\n        /* \"#utility.yul\":3046:4167   */\n      swap3\n      swap2\n      pop\n      pop\n      jump\t// out\n        /* \"#utility.yul\":4173:4417   */\n    tag_186:\n        /* \"#utility.yul\":4286:4296   */\n      0x00\n        /* \"#utility.yul\":4321:4411   */\n      tag_280\n        /* \"#utility.yul\":4407:4410   */\n      dup4\n        /* \"#utility.yul\":4399:4405   */\n      dup4\n        /* \"#utility.yul\":4321:4411   */\n      tag_185\n      jump\t// in\n    tag_280:\n        /* \"#utility.yul\":4307:4411   */\n      swap1\n      pop\n        /* \"#utility.yul\":4173:4417   */\n      swap3\n      swap2\n      pop\n      pop\n      jump\t// out\n        /* \"#utility.yul\":4423:4558   */\n    tag_187:\n        /* \"#utility.yul\":4515:4519   */\n      0x00\n        /* \"#utility.yul\":4547:4551   */\n      0x20\n        /* \"#utility.yul\":4542:4545   */\n      dup3\n        /* \"#utility.yul\":4538:4552   */\n      add\n        /* \"#utility.yul\":4530:4552   */\n      swap1\n      pop\n        /* \"#utility.yul\":4423:4558   */\n      swap2\n      swap1\n      pop\n      jump\t// out\n        /* \"#utility.yul\":4620:5707   */\n    tag_188:\n        /* \"#utility.yul\":4783:4786   */\n      0x00\n        /* \"#utility.yul\":4812:4888   */\n      tag_283\n        /* \"#utility.yul\":4882:4887   */\n      dup3\n        /* \"#utility.yul\":4812:4888   */\n      tag_174\n      jump\t// in\n    tag_283:\n        /* \"#utility.yul\":4904:5012   */\n      tag_284\n        /* \"#utility.yul\":5005:5011   */\n      dup2\n        /* \"#utility.yul\":5000:5003   */\n      dup6\n        /* \"#utility.yul\":4904:5012   */\n      tag_175\n      jump\t// in\n    tag_284:\n        /* \"#utility.yul\":4897:5012   */\n      swap4\n      pop\n        /* \"#utility.yul\":5038:5041   */\n      dup4\n        /* \"#utility.yul\":5083:5087   */\n      0x20\n        /* \"#utility.yul\":5075:5081   */\n      dup3\n        /* \"#utility.yul\":5071:5088   */\n      mul\n        /* \"#utility.yul\":5066:5069   */\n      dup6\n        /* \"#utility.yul\":5062:5089   */\n      add\n        /* \"#utility.yul\":5113:5191   */\n      tag_285\n        /* \"#utility.yul\":5185:5190   */\n      dup6\n        /* \"#utility.yul\":5113:5191   */\n      tag_176\n      jump\t// in\n    tag_285:\n        /* \"#utility.yul\":5214:5221   */\n      dup1\n        /* \"#utility.yul\":5245:5246   */\n      0x00\n        /* \"#utility.yul\":5230:5662   */\n    tag_286:\n        /* \"#utility.yul\":5255:5261   */\n      dup6\n        /* \"#utility.yul\":5252:5253   */\n      dup2\n        /* \"#utility.yul\":5249:5262   */\n      lt\n        /* \"#utility.yul\":5230:5662   */\n      iszero\n      tag_288\n      jumpi\n        /* \"#utility.yul\":5326:5335   */\n      dup5\n        /* \"#utility.yul\":5320:5324   */\n      dup5\n        /* \"#utility.yul\":5316:5336   */\n      sub\n        /* \"#utility.yul\":5311:5314   */\n      dup10\n        /* \"#utility.yul\":5304:5337   */\n      mstore\n        /* \"#utility.yul\":5377:5383   */\n      dup2\n        /* \"#utility.yul\":5371:5384   */\n      mload\n        /* \"#utility.yul\":5405:5513   */\n      tag_289\n        /* \"#utility.yul\":5508:5512   */\n      dup6\n        /* \"#utility.yul\":5493:5506   */\n      dup3\n        /* \"#utility.yul\":5405:5513   */\n      tag_186\n      jump\t// in\n    tag_289:\n        /* \"#utility.yul\":5397:5513   */\n      swap5\n      pop\n        /* \"#utility.yul\":5536:5618   */\n      tag_290\n        /* \"#utility.yul\":5611:5617   */\n      dup4\n        /* \"#utility.yul\":5536:5618   */\n      tag_187\n      jump\t// in\n    tag_290:\n        /* \"#utility.yul\":5526:5618   */\n      swap3\n      pop\n        /* \"#utility.yul\":5647:5651   */\n      0x20\n        /* \"#utility.yul\":5642:5645   */\n      dup11\n        /* \"#utility.yul\":5638:5652   */\n      add\n        /* \"#utility.yul\":5631:5652   */\n      swap10\n      pop\n        /* \"#utility.yul\":5290:5662   */\n      pop\n        /* \"#utility.yul\":5277:5278   */\n      0x01\n        /* \"#utility.yul\":5274:5275   */\n      dup2\n        /* \"#utility.yul\":5270:5279   */\n      add\n        /* \"#utility.yul\":5265:5279   */\n      swap1\n      pop\n        /* \"#utility.yul\":5230:5662   */\n      jump(tag_286)\n    tag_288:\n        /* \"#utility.yul\":5234:5248   */\n      pop\n        /* \"#utility.yul\":5678:5682   */\n      dup3\n        /* \"#utility.yul\":5671:5682   */\n      swap8\n      pop\n        /* \"#utility.yul\":5698:5701   */\n      dup8\n        /* \"#utility.yul\":5691:5701   */\n      swap6\n      pop\n        /* \"#utility.yul\":4788:5707   */\n      pop\n      pop\n      pop\n      pop\n      pop\n        /* \"#utility.yul\":4620:5707   */\n      swap3\n      swap2\n      pop\n      pop\n      jump\t// out\n        /* \"#utility.yul\":5713:6174   */\n    tag_20:\n        /* \"#utility.yul\":5900:5904   */\n      0x00\n        /* \"#utility.yul\":5938:5940   */\n      0x20\n        /* \"#utility.yul\":5927:5936   */\n      dup3\n        /* \"#utility.yul\":5923:5941   */\n      add\n        /* \"#utility.yul\":5915:5941   */\n      swap1\n      pop\n        /* \"#utility.yul\":5987:5996   */\n      dup2\n        /* \"#utility.yul\":5981:5985   */\n      dup2\n        /* \"#utility.yul\":5977:5997   */\n      sub\n        /* \"#utility.yul\":5973:5974   */\n      0x00\n        /* \"#utility.yul\":5962:5971   */\n      dup4\n        /* \"#utility.yul\":5958:5975   */\n      add\n        /* \"#utility.yul\":5951:5998   */\n      mstore\n        /* \"#utility.yul\":6015:6167   */\n      tag_292\n        /* \"#utility.yul\":6162:6166   */\n      dup2\n        /* \"#utility.yul\":6153:6159   */\n      dup5\n        /* \"#utility.yul\":6015:6167   */\n      tag_188\n      jump\t// in\n    tag_292:\n        /* \"#utility.yul\":6007:6167   */\n      swap1\n      pop\n        /* \"#utility.yul\":5713:6174   */\n      swap3\n      swap2\n      pop\n      pop\n      jump\t// out\n        /* \"#utility.yul\":6180:6269   */\n    tag_189:\n        /* \"#utility.yul\":6216:6223   */\n      0x00\n        /* \"#utility.yul\":6256:6262   */\n      0xffff\n        /* \"#utility.yul\":6249:6254   */\n      dup3\n        /* \"#utility.yul\":6245:6263   */\n      and\n        /* \"#utility.yul\":6234:6263   */\n      swap1\n      pop\n        /* \"#utility.yul\":6180:6269   */\n      swap2\n      swap1\n      pop\n      jump\t// out\n        /* \"#utility.yul\":6275:6395   */\n    tag_190:\n        /* \"#utility.yul\":6347:6370   */\n      tag_295\n        /* \"#utility.yul\":6364:6369   */\n      dup2\n        /* \"#utility.yul\":6347:6370   */\n      tag_189\n      jump\t// in\n    tag_295:\n        /* \"#utility.yul\":6340:6345   */\n      dup2\n        /* \"#utility.yul\":6337:6371   */\n      eq\n        /* \"#utility.yul\":6327:6389   */\n      tag_296\n      jumpi\n        /* \"#utility.yul\":6385:6386   */\n      0x00\n        /* \"#utility.yul\":6382:6383   */\n      dup1\n        /* \"#utility.yul\":6375:6387   */\n      revert\n        /* \"#utility.yul\":6327:6389   */\n    tag_296:\n        /* \"#utility.yul\":6275:6395   */\n      pop\n      jump\t// out\n        /* \"#utility.yul\":6401:6538   */\n    tag_191:\n        /* \"#utility.yul\":6446:6451   */\n      0x00\n        /* \"#utility.yul\":6484:6490   */\n      dup2\n        /* \"#utility.yul\":6471:6491   */\n      calldataload\n        /* \"#utility.yul\":6462:6491   */\n      swap1\n      pop\n        /* \"#utility.yul\":6500:6532   */\n      tag_298\n        /* \"#utility.yul\":6526:6531   */\n      dup2\n        /* \"#utility.yul\":6500:6532   */\n      tag_190\n      jump\t// in\n    tag_298:\n        /* \"#utility.yul\":6401:6538   */\n      swap3\n      swap2\n      pop\n      pop\n      jump\t// out\n        /* \"#utility.yul\":6544:6871   */\n    tag_23:\n        /* \"#utility.yul\":6602:6608   */\n      0x00\n        /* \"#utility.yul\":6651:6653   */\n      0x20\n        /* \"#utility.yul\":6639:6648   */\n      dup3\n        /* \"#utility.yul\":6630:6637   */\n      dup5\n        /* \"#utility.yul\":6626:6649   */\n      sub\n        /* \"#utility.yul\":6622:6654   */\n      slt\n        /* \"#utility.yul\":6619:6738   */\n      iszero\n      tag_300\n      jumpi\n        /* \"#utility.yul\":6657:6736   */\n      tag_301\n      tag_168\n      jump\t// in\n    tag_301:\n        /* \"#utility.yul\":6619:6738   */\n    tag_300:\n        /* \"#utility.yul\":6777:6778   */\n      0x00\n        /* \"#utility.yul\":6802:6854   */\n      tag_302\n        /* \"#utility.yul\":6846:6853   */\n      dup5\n        /* \"#utility.yul\":6837:6843   */\n      dup3\n        /* \"#utility.yul\":6826:6835   */\n      dup6\n        /* \"#utility.yul\":6822:6844   */\n      add\n        /* \"#utility.yul\":6802:6854   */\n      tag_191\n      jump\t// in\n    tag_302:\n        /* \"#utility.yul\":6792:6854   */\n      swap2\n      pop\n        /* \"#utility.yul\":6748:6864   */\n      pop\n        /* \"#utility.yul\":6544:6871   */\n      swap3\n      swap2\n      pop\n      pop\n      jump\t// out\n        /* \"#utility.yul\":6877:6994   */\n    tag_192:\n        /* \"#utility.yul\":6986:6987   */\n      0x00\n        /* \"#utility.yul\":6983:6984   */\n      dup1\n        /* \"#utility.yul\":6976:6988   */\n      revert\n        /* \"#utility.yul\":7000:7117   */\n    tag_193:\n        /* \"#utility.yul\":7109:7110   */\n      0x00\n        /* \"#utility.yul\":7106:7107   */\n      dup1\n        /* \"#utility.yul\":7099:7111   */\n      revert\n        /* \"#utility.yul\":7123:7303   */\n    tag_62:\n        /* \"#utility.yul\":7171:7248   */\n      0x4e487b7100000000000000000000000000000000000000000000000000000000\n        /* \"#utility.yul\":7168:7169   */\n      0x00\n        /* \"#utility.yul\":7161:7249   */\n      mstore\n        /* \"#utility.yul\":7268:7272   */\n      0x41\n        /* \"#utility.yul\":7265:7266   */\n      0x04\n        /* \"#utility.yul\":7258:7273   */\n      mstore\n        /* \"#utility.yul\":7292:7296   */\n      0x24\n        /* \"#utility.yul\":7289:7290   */\n      0x00\n        /* \"#utility.yul\":7282:7297   */\n      revert\n        /* \"#utility.yul\":7309:7590   */\n    tag_194:\n        /* \"#utility.yul\":7392:7419   */\n      tag_307\n        /* \"#utility.yul\":7414:7418   */\n      dup3\n        /* \"#utility.yul\":7392:7419   */\n      tag_183\n      jump\t// in\n    tag_307:\n        /* \"#utility.yul\":7384:7390   */\n      dup2\n        /* \"#utility.yul\":7380:7420   */\n      add\n        /* \"#utility.yul\":7522:7528   */\n      dup2\n        /* \"#utility.yul\":7510:7520   */\n      dup2\n        /* \"#utility.yul\":7507:7529   */\n      lt\n        /* \"#utility.yul\":7486:7504   */\n      0xffffffffffffffff\n        /* \"#utility.yul\":7474:7484   */\n      dup3\n        /* \"#utility.yul\":7471:7505   */\n      gt\n        /* \"#utility.yul\":7468:7530   */\n      or\n        /* \"#utility.yul\":7465:7553   */\n      iszero\n      tag_308\n      jumpi\n        /* \"#utility.yul\":7533:7551   */\n      tag_309\n      tag_62\n      jump\t// in\n    tag_309:\n        /* \"#utility.yul\":7465:7553   */\n    tag_308:\n        /* \"#utility.yul\":7573:7583   */\n      dup1\n        /* \"#utility.yul\":7569:7571   */\n      0x40\n        /* \"#utility.yul\":7562:7584   */\n      mstore\n        /* \"#utility.yul\":7352:7590   */\n      pop\n        /* \"#utility.yul\":7309:7590   */\n      pop\n      pop\n      jump\t// out\n        /* \"#utility.yul\":7596:7725   */\n    tag_195:\n        /* \"#utility.yul\":7630:7636   */\n      0x00\n        /* \"#utility.yul\":7657:7677   */\n      tag_311\n      tag_167\n      jump\t// in\n    tag_311:\n        /* \"#utility.yul\":7647:7677   */\n      swap1\n      pop\n        /* \"#utility.yul\":7686:7719   */\n      tag_312\n        /* \"#utility.yul\":7714:7718   */\n      dup3\n        /* \"#utility.yul\":7706:7712   */\n      dup3\n        /* \"#utility.yul\":7686:7719   */\n      tag_194\n      jump\t// in\n    tag_312:\n        /* \"#utility.yul\":7596:7725   */\n      swap2\n      swap1\n      pop\n      jump\t// out\n        /* \"#utility.yul\":7731:8039   */\n    tag_196:\n        /* \"#utility.yul\":7793:7797   */\n      0x00\n        /* \"#utility.yul\":7883:7901   */\n      0xffffffffffffffff\n        /* \"#utility.yul\":7875:7881   */\n      dup3\n        /* \"#utility.yul\":7872:7902   */\n      gt\n        /* \"#utility.yul\":7869:7925   */\n      iszero\n      tag_314\n      jumpi\n        /* \"#utility.yul\":7905:7923   */\n      tag_315\n      tag_62\n      jump\t// in\n    tag_315:\n        /* \"#utility.yul\":7869:7925   */\n    tag_314:\n        /* \"#utility.yul\":7943:7972   */\n      tag_316\n        /* \"#utility.yul\":7965:7971   */\n      dup3\n        /* \"#utility.yul\":7943:7972   */\n      tag_183\n      jump\t// in\n    tag_316:\n        /* \"#utility.yul\":7935:7972   */\n      swap1\n      pop\n        /* \"#utility.yul\":8027:8031   */\n      0x20\n        /* \"#utility.yul\":8021:8025   */\n      dup2\n        /* \"#utility.yul\":8017:8032   */\n      add\n        /* \"#utility.yul\":8009:8032   */\n      swap1\n      pop\n        /* \"#utility.yul\":7731:8039   */\n      swap2\n      swap1\n      pop\n      jump\t// out\n        /* \"#utility.yul\":8045:8191   */\n    tag_197:\n        /* \"#utility.yul\":8142:8148   */\n      dup3\n        /* \"#utility.yul\":8137:8140   */\n      dup2\n        /* \"#utility.yul\":8132:8135   */\n      dup4\n        /* \"#utility.yul\":8119:8149   */\n      calldatacopy\n        /* \"#utility.yul\":8183:8184   */\n      0x00\n        /* \"#utility.yul\":8174:8180   */\n      dup4\n        /* \"#utility.yul\":8169:8172   */\n      dup4\n        /* \"#utility.yul\":8165:8181   */\n      add\n        /* \"#utility.yul\":8158:8185   */\n      mstore\n        /* \"#utility.yul\":8045:8191   */\n      pop\n      pop\n      pop\n      jump\t// out\n        /* \"#utility.yul\":8197:8622   */\n    tag_198:\n        /* \"#utility.yul\":8275:8280   */\n      0x00\n        /* \"#utility.yul\":8300:8366   */\n      tag_319\n        /* \"#utility.yul\":8316:8365   */\n      tag_320\n        /* \"#utility.yul\":8358:8364   */\n      dup5\n        /* \"#utility.yul\":8316:8365   */\n      tag_196\n      jump\t// in\n    tag_320:\n        /* \"#utility.yul\":8300:8366   */\n      tag_195\n      jump\t// in\n    tag_319:\n        /* \"#utility.yul\":8291:8366   */\n      swap1\n      pop\n        /* \"#utility.yul\":8389:8395   */\n      dup3\n        /* \"#utility.yul\":8382:8387   */\n      dup2\n        /* \"#utility.yul\":8375:8396   */\n      mstore\n        /* \"#utility.yul\":8427:8431   */\n      0x20\n        /* \"#utility.yul\":8420:8425   */\n      dup2\n        /* \"#utility.yul\":8416:8432   */\n      add\n        /* \"#utility.yul\":8465:8468   */\n      dup5\n        /* \"#utility.yul\":8456:8462   */\n      dup5\n        /* \"#utility.yul\":8451:8454   */\n      dup5\n        /* \"#utility.yul\":8447:8463   */\n      add\n        /* \"#utility.yul\":8444:8469   */\n      gt\n        /* \"#utility.yul\":8441:8553   */\n      iszero\n      tag_321\n      jumpi\n        /* \"#utility.yul\":8472:8551   */\n      tag_322\n      tag_193\n      jump\t// in\n    tag_322:\n        /* \"#utility.yul\":8441:8553   */\n    tag_321:\n        /* \"#utility.yul\":8562:8616   */\n      tag_323\n        /* \"#utility.yul\":8609:8615   */\n      dup5\n        /* \"#utility.yul\":8604:8607   */\n      dup3\n        /* \"#utility.yul\":8599:8602   */\n      dup6\n        /* \"#utility.yul\":8562:8616   */\n      tag_197\n      jump\t// in\n    tag_323:\n        /* \"#utility.yul\":8281:8622   */\n      pop\n        /* \"#utility.yul\":8197:8622   */\n      swap4\n      swap3\n      pop\n      pop\n      pop\n      jump\t// out\n        /* \"#utility.yul\":8642:8982   */\n    tag_199:\n        /* \"#utility.yul\":8698:8703   */\n      0x00\n        /* \"#utility.yul\":8747:8750   */\n      dup3\n        /* \"#utility.yul\":8740:8744   */\n      0x1f\n        /* \"#utility.yul\":8732:8738   */\n      dup4\n        /* \"#utility.yul\":8728:8745   */\n      add\n        /* \"#utility.yul\":8724:8751   */\n      slt\n        /* \"#utility.yul\":8714:8836   */\n      tag_325\n      jumpi\n        /* \"#utility.yul\":8755:8834   */\n      tag_326\n      tag_192\n      jump\t// in\n    tag_326:\n        /* \"#utility.yul\":8714:8836   */\n    tag_325:\n        /* \"#utility.yul\":8872:8878   */\n      dup2\n        /* \"#utility.yul\":8859:8879   */\n      calldataload\n        /* \"#utility.yul\":8897:8976   */\n      tag_327\n        /* \"#utility.yul\":8972:8975   */\n      dup5\n        /* \"#utility.yul\":8964:8970   */\n      dup3\n        /* \"#utility.yul\":8957:8961   */\n      0x20\n        /* \"#utility.yul\":8949:8955   */\n      dup7\n        /* \"#utility.yul\":8945:8962   */\n      add\n        /* \"#utility.yul\":8897:8976   */\n      tag_198\n      jump\t// in\n    tag_327:\n        /* \"#utility.yul\":8888:8976   */\n      swap2\n      pop\n        /* \"#utility.yul\":8704:8982   */\n      pop\n        /* \"#utility.yul\":8642:8982   */\n      swap3\n      swap2\n      pop\n      pop\n      jump\t// out\n        /* \"#utility.yul\":8988:9497   */\n    tag_29:\n        /* \"#utility.yul\":9057:9063   */\n      0x00\n        /* \"#utility.yul\":9106:9108   */\n      0x20\n        /* \"#utility.yul\":9094:9103   */\n      dup3\n        /* \"#utility.yul\":9085:9092   */\n      dup5\n        /* \"#utility.yul\":9081:9104   */\n      sub\n        /* \"#utility.yul\":9077:9109   */\n      slt\n        /* \"#utility.yul\":9074:9193   */\n      iszero\n      tag_329\n      jumpi\n        /* \"#utility.yul\":9112:9191   */\n      tag_330\n      tag_168\n      jump\t// in\n    tag_330:\n        /* \"#utility.yul\":9074:9193   */\n    tag_329:\n        /* \"#utility.yul\":9260:9261   */\n      0x00\n        /* \"#utility.yul\":9249:9258   */\n      dup3\n        /* \"#utility.yul\":9245:9262   */\n      add\n        /* \"#utility.yul\":9232:9263   */\n      calldataload\n        /* \"#utility.yul\":9290:9308   */\n      0xffffffffffffffff\n        /* \"#utility.yul\":9282:9288   */\n      dup2\n        /* \"#utility.yul\":9279:9309   */\n      gt\n        /* \"#utility.yul\":9276:9393   */\n      iszero\n      tag_331\n      jumpi\n        /* \"#utility.yul\":9312:9391   */\n      tag_332\n      tag_169\n      jump\t// in\n    tag_332:\n        /* \"#utility.yul\":9276:9393   */\n    tag_331:\n        /* \"#utility.yul\":9417:9480   */\n      tag_333\n        /* \"#utility.yul\":9472:9479   */\n      dup5\n        /* \"#utility.yul\":9463:9469   */\n      dup3\n        /* \"#utility.yul\":9452:9461   */\n      dup6\n        /* \"#utility.yul\":9448:9470   */\n      add\n        /* \"#utility.yul\":9417:9480   */\n      tag_199\n      jump\t// in\n    tag_333:\n        /* \"#utility.yul\":9407:9480   */\n      swap2\n      pop\n        /* \"#utility.yul\":9203:9490   */\n      pop\n        /* \"#utility.yul\":8988:9497   */\n      swap3\n      swap2\n      pop\n      pop\n      jump\t// out\n        /* \"#utility.yul\":9503:9621   */\n    tag_200:\n        /* \"#utility.yul\":9590:9614   */\n      tag_335\n        /* \"#utility.yul\":9608:9613   */\n      dup2\n        /* \"#utility.yul\":9590:9614   */\n      tag_177\n      jump\t// in\n    tag_335:\n        /* \"#utility.yul\":9585:9588   */\n      dup3\n        /* \"#utility.yul\":9578:9615   */\n      mstore\n        /* \"#utility.yul\":9503:9621   */\n      pop\n      pop\n      jump\t// out\n        /* \"#utility.yul\":9627:9849   */\n    tag_35:\n        /* \"#utility.yul\":9720:9724   */\n      0x00\n        /* \"#utility.yul\":9758:9760   */\n      0x20\n        /* \"#utility.yul\":9747:9756   */\n      dup3\n        /* \"#utility.yul\":9743:9761   */\n      add\n        /* \"#utility.yul\":9735:9761   */\n      swap1\n      pop\n        /* \"#utility.yul\":9771:9842   */\n      tag_337\n        /* \"#utility.yul\":9839:9840   */\n      0x00\n        /* \"#utility.yul\":9828:9837   */\n      dup4\n        /* \"#utility.yul\":9824:9841   */\n      add\n        /* \"#utility.yul\":9815:9821   */\n      dup5\n        /* \"#utility.yul\":9771:9842   */\n      tag_200\n      jump\t// in\n    tag_337:\n        /* \"#utility.yul\":9627:9849   */\n      swap3\n      swap2\n      pop\n      pop\n      jump\t// out\n        /* \"#utility.yul\":9855:9973   */\n    tag_201:\n        /* \"#utility.yul\":9942:9966   */\n      tag_339\n        /* \"#utility.yul\":9960:9965   */\n      dup2\n        /* \"#utility.yul\":9942:9966   */\n      tag_171\n      jump\t// in\n    tag_339:\n        /* \"#utility.yul\":9937:9940   */\n      dup3\n        /* \"#utility.yul\":9930:9967   */\n      mstore\n        /* \"#utility.yul\":9855:9973   */\n      pop\n      pop\n      jump\t// out\n        /* \"#utility.yul\":9979:10201   */\n    tag_39:\n        /* \"#utility.yul\":10072:10076   */\n      0x00\n        /* \"#utility.yul\":10110:10112   */\n      0x20\n        /* \"#utility.yul\":10099:10108   */\n      dup3\n        /* \"#utility.yul\":10095:10113   */\n      add\n        /* \"#utility.yul\":10087:10113   */\n      swap1\n      pop\n        /* \"#utility.yul\":10123:10194   */\n      tag_341\n        /* \"#utility.yul\":10191:10192   */\n      0x00\n        /* \"#utility.yul\":10180:10189   */\n      dup4\n        /* \"#utility.yul\":10176:10193   */\n      add\n        /* \"#utility.yul\":10167:10173   */\n      dup5\n        /* \"#utility.yul\":10123:10194   */\n      tag_201\n      jump\t// in\n    tag_341:\n        /* \"#utility.yul\":9979:10201   */\n      swap3\n      swap2\n      pop\n      pop\n      jump\t// out\n        /* \"#utility.yul\":10207:10329   */\n    tag_202:\n        /* \"#utility.yul\":10280:10304   */\n      tag_343\n        /* \"#utility.yul\":10298:10303   */\n      dup2\n        /* \"#utility.yul\":10280:10304   */\n      tag_177\n      jump\t// in\n    tag_343:\n        /* \"#utility.yul\":10273:10278   */\n      dup2\n        /* \"#utility.yul\":10270:10305   */\n      eq\n        /* \"#utility.yul\":10260:10323   */\n      tag_344\n      jumpi\n        /* \"#utility.yul\":10319:10320   */\n      0x00\n        /* \"#utility.yul\":10316:10317   */\n      dup1\n        /* \"#utility.yul\":10309:10321   */\n      revert\n        /* \"#utility.yul\":10260:10323   */\n    tag_344:\n        /* \"#utility.yul\":10207:10329   */\n      pop\n      jump\t// out\n        /* \"#utility.yul\":10335:10474   */\n    tag_203:\n        /* \"#utility.yul\":10381:10386   */\n      0x00\n        /* \"#utility.yul\":10419:10425   */\n      dup2\n        /* \"#utility.yul\":10406:10426   */\n      calldataload\n        /* \"#utility.yul\":10397:10426   */\n      swap1\n      pop\n        /* \"#utility.yul\":10435:10468   */\n      tag_346\n        /* \"#utility.yul\":10462:10467   */\n      dup2\n        /* \"#utility.yul\":10435:10468   */\n      tag_202\n      jump\t// in\n    tag_346:\n        /* \"#utility.yul\":10335:10474   */\n      swap3\n      swap2\n      pop\n      pop\n      jump\t// out\n        /* \"#utility.yul\":10480:10954   */\n    tag_45:\n        /* \"#utility.yul\":10548:10554   */\n      0x00\n        /* \"#utility.yul\":10556:10562   */\n      dup1\n        /* \"#utility.yul\":10605:10607   */\n      0x40\n        /* \"#utility.yul\":10593:10602   */\n      dup4\n        /* \"#utility.yul\":10584:10591   */\n      dup6\n        /* \"#utility.yul\":10580:10603   */\n      sub\n        /* \"#utility.yul\":10576:10608   */\n      slt\n        /* \"#utility.yul\":10573:10692   */\n      iszero\n      tag_348\n      jumpi\n        /* \"#utility.yul\":10611:10690   */\n      tag_349\n      tag_168\n      jump\t// in\n    tag_349:\n        /* \"#utility.yul\":10573:10692   */\n    tag_348:\n        /* \"#utility.yul\":10731:10732   */\n      0x00\n        /* \"#utility.yul\":10756:10809   */\n      tag_350\n        /* \"#utility.yul\":10801:10808   */\n      dup6\n        /* \"#utility.yul\":10792:10798   */\n      dup3\n        /* \"#utility.yul\":10781:10790   */\n      dup7\n        /* \"#utility.yul\":10777:10799   */\n      add\n        /* \"#utility.yul\":10756:10809   */\n      tag_203\n      jump\t// in\n    tag_350:\n        /* \"#utility.yul\":10746:10809   */\n      swap3\n      pop\n        /* \"#utility.yul\":10702:10819   */\n      pop\n        /* \"#utility.yul\":10858:10860   */\n      0x20\n        /* \"#utility.yul\":10884:10937   */\n      tag_351\n        /* \"#utility.yul\":10929:10936   */\n      dup6\n        /* \"#utility.yul\":10920:10926   */\n      dup3\n        /* \"#utility.yul\":10909:10918   */\n      dup7\n        /* \"#utility.yul\":10905:10927   */\n      add\n        /* \"#utility.yul\":10884:10937   */\n      tag_173\n      jump\t// in\n    tag_351:\n        /* \"#utility.yul\":10874:10937   */\n      swap2\n      pop\n        /* \"#utility.yul\":10829:10947   */\n      pop\n        /* \"#utility.yul\":10480:10954   */\n      swap3\n      pop\n      swap3\n      swap1\n      pop\n      jump\t// out\n        /* \"#utility.yul\":10960:11289   */\n    tag_49:\n        /* \"#utility.yul\":11019:11025   */\n      0x00\n        /* \"#utility.yul\":11068:11070   */\n      0x20\n        /* \"#utility.yul\":11056:11065   */\n      dup3\n        /* \"#utility.yul\":11047:11054   */\n      dup5\n        /* \"#utility.yul\":11043:11066   */\n      sub\n        /* \"#utility.yul\":11039:11071   */\n      slt\n        /* \"#utility.yul\":11036:11155   */\n      iszero\n      tag_353\n      jumpi\n        /* \"#utility.yul\":11074:11153   */\n      tag_354\n      tag_168\n      jump\t// in\n    tag_354:\n        /* \"#utility.yul\":11036:11155   */\n    tag_353:\n        /* \"#utility.yul\":11194:11195   */\n      0x00\n        /* \"#utility.yul\":11219:11272   */\n      tag_355\n        /* \"#utility.yul\":11264:11271   */\n      dup5\n        /* \"#utility.yul\":11255:11261   */\n      dup3\n        /* \"#utility.yul\":11244:11253   */\n      dup6\n        /* \"#utility.yul\":11240:11262   */\n      add\n        /* \"#utility.yul\":11219:11272   */\n      tag_203\n      jump\t// in\n    tag_355:\n        /* \"#utility.yul\":11209:11272   */\n      swap2\n      pop\n        /* \"#utility.yul\":11165:11282   */\n      pop\n        /* \"#utility.yul\":10960:11289   */\n      swap3\n      swap2\n      pop\n      pop\n      jump\t// out\n        /* \"#utility.yul\":11347:12478   */\n    tag_204:\n        /* \"#utility.yul\":11460:11463   */\n      0x00\n        /* \"#utility.yul\":11496:11500   */\n      0xa0\n        /* \"#utility.yul\":11491:11494   */\n      dup4\n        /* \"#utility.yul\":11487:11501   */\n      add\n        /* \"#utility.yul\":11581:11585   */\n      0x00\n        /* \"#utility.yul\":11574:11579   */\n      dup4\n        /* \"#utility.yul\":11570:11586   */\n      add\n        /* \"#utility.yul\":11564:11587   */\n      mload\n        /* \"#utility.yul\":11600:11663   */\n      tag_357\n        /* \"#utility.yul\":11657:11661   */\n      0x00\n        /* \"#utility.yul\":11652:11655   */\n      dup7\n        /* \"#utility.yul\":11648:11662   */\n      add\n        /* \"#utility.yul\":11634:11646   */\n      dup3\n        /* \"#utility.yul\":11600:11663   */\n      tag_178\n      jump\t// in\n    tag_357:\n        /* \"#utility.yul\":11511:11673   */\n      pop\n        /* \"#utility.yul\":11757:11761   */\n      0x20\n        /* \"#utility.yul\":11750:11755   */\n      dup4\n        /* \"#utility.yul\":11746:11762   */\n      add\n        /* \"#utility.yul\":11740:11763   */\n      mload\n        /* \"#utility.yul\":11776:11839   */\n      tag_358\n        /* \"#utility.yul\":11833:11837   */\n      0x20\n        /* \"#utility.yul\":11828:11831   */\n      dup7\n        /* \"#utility.yul\":11824:11838   */\n      add\n        /* \"#utility.yul\":11810:11822   */\n      dup3\n        /* \"#utility.yul\":11776:11839   */\n      tag_179\n      jump\t// in\n    tag_358:\n        /* \"#utility.yul\":11683:11849   */\n      pop\n        /* \"#utility.yul\":11934:11938   */\n      0x40\n        /* \"#utility.yul\":11927:11932   */\n      dup4\n        /* \"#utility.yul\":11923:11939   */\n      add\n        /* \"#utility.yul\":11917:11940   */\n      mload\n        /* \"#utility.yul\":11987:11990   */\n      dup5\n        /* \"#utility.yul\":11981:11985   */\n      dup3\n        /* \"#utility.yul\":11977:11991   */\n      sub\n        /* \"#utility.yul\":11970:11974   */\n      0x40\n        /* \"#utility.yul\":11965:11968   */\n      dup7\n        /* \"#utility.yul\":11961:11975   */\n      add\n        /* \"#utility.yul\":11954:11992   */\n      mstore\n        /* \"#utility.yul\":12013:12086   */\n      tag_359\n        /* \"#utility.yul\":12081:12085   */\n      dup3\n        /* \"#utility.yul\":12067:12079   */\n      dup3\n        /* \"#utility.yul\":12013:12086   */\n      tag_184\n      jump\t// in\n    tag_359:\n        /* \"#utility.yul\":12005:12086   */\n      swap2\n      pop\n        /* \"#utility.yul\":11859:12097   */\n      pop\n        /* \"#utility.yul\":12184:12188   */\n      0x60\n        /* \"#utility.yul\":12177:12182   */\n      dup4\n        /* \"#utility.yul\":12173:12189   */\n      add\n        /* \"#utility.yul\":12167:12190   */\n      mload\n        /* \"#utility.yul\":12203:12266   */\n      tag_360\n        /* \"#utility.yul\":12260:12264   */\n      0x60\n        /* \"#utility.yul\":12255:12258   */\n      dup7\n        /* \"#utility.yul\":12251:12265   */\n      add\n        /* \"#utility.yul\":12237:12249   */\n      dup3\n        /* \"#utility.yul\":12203:12266   */\n      tag_178\n      jump\t// in\n    tag_360:\n        /* \"#utility.yul\":12107:12276   */\n      pop\n        /* \"#utility.yul\":12359:12363   */\n      0x80\n        /* \"#utility.yul\":12352:12357   */\n      dup4\n        /* \"#utility.yul\":12348:12364   */\n      add\n        /* \"#utility.yul\":12342:12365   */\n      mload\n        /* \"#utility.yul\":12378:12441   */\n      tag_361\n        /* \"#utility.yul\":12435:12439   */\n      0x80\n        /* \"#utility.yul\":12430:12433   */\n      dup7\n        /* \"#utility.yul\":12426:12440   */\n      add\n        /* \"#utility.yul\":12412:12424   */\n      dup3\n        /* \"#utility.yul\":12378:12441   */\n      tag_178\n      jump\t// in\n    tag_361:\n        /* \"#utility.yul\":12286:12451   */\n      pop\n        /* \"#utility.yul\":12468:12472   */\n      dup1\n        /* \"#utility.yul\":12461:12472   */\n      swap2\n      pop\n        /* \"#utility.yul\":11465:12478   */\n      pop\n        /* \"#utility.yul\":11347:12478   */\n      swap3\n      swap2\n      pop\n      pop\n      jump\t// out\n        /* \"#utility.yul\":12484:12845   */\n    tag_52:\n        /* \"#utility.yul\":12621:12625   */\n      0x00\n        /* \"#utility.yul\":12659:12661   */\n      0x20\n        /* \"#utility.yul\":12648:12657   */\n      dup3\n        /* \"#utility.yul\":12644:12662   */\n      add\n        /* \"#utility.yul\":12636:12662   */\n      swap1\n      pop\n        /* \"#utility.yul\":12708:12717   */\n      dup2\n        /* \"#utility.yul\":12702:12706   */\n      dup2\n        /* \"#utility.yul\":12698:12718   */\n      sub\n        /* \"#utility.yul\":12694:12695   */\n      0x00\n        /* \"#utility.yul\":12683:12692   */\n      dup4\n        /* \"#utility.yul\":12679:12696   */\n      add\n        /* \"#utility.yul\":12672:12719   */\n      mstore\n        /* \"#utility.yul\":12736:12838   */\n      tag_363\n        /* \"#utility.yul\":12833:12837   */\n      dup2\n        /* \"#utility.yul\":12824:12830   */\n      dup5\n        /* \"#utility.yul\":12736:12838   */\n      tag_204\n      jump\t// in\n    tag_363:\n        /* \"#utility.yul\":12728:12838   */\n      swap1\n      pop\n        /* \"#utility.yul\":12484:12845   */\n      swap3\n      swap2\n      pop\n      pop\n      jump\t// out\n        /* \"#utility.yul\":12851:13031   */\n    tag_205:\n        /* \"#utility.yul\":12899:12976   */\n      0x4e487b7100000000000000000000000000000000000000000000000000000000\n        /* \"#utility.yul\":12896:12897   */\n      0x00\n        /* \"#utility.yul\":12889:12977   */\n      mstore\n        /* \"#utility.yul\":12996:13000   */\n      0x22\n        /* \"#utility.yul\":12993:12994   */\n      0x04\n        /* \"#utility.yul\":12986:13001   */\n      mstore\n        /* \"#utility.yul\":13020:13024   */\n      0x24\n        /* \"#utility.yul\":13017:13018   */\n      0x00\n        /* \"#utility.yul\":13010:13025   */\n      revert\n        /* \"#utility.yul\":13037:13357   */\n    tag_71:\n        /* \"#utility.yul\":13081:13087   */\n      0x00\n        /* \"#utility.yul\":13118:13119   */\n      0x02\n        /* \"#utility.yul\":13112:13116   */\n      dup3\n        /* \"#utility.yul\":13108:13120   */\n      div\n        /* \"#utility.yul\":13098:13120   */\n      swap1\n      pop\n        /* \"#utility.yul\":13165:13166   */\n      0x01\n        /* \"#utility.yul\":13159:13163   */\n      dup3\n        /* \"#utility.yul\":13155:13167   */\n      and\n        /* \"#utility.yul\":13186:13204   */\n      dup1\n        /* \"#utility.yul\":13176:13257   */\n      tag_366\n      jumpi\n        /* \"#utility.yul\":13242:13246   */\n      0x7f\n        /* \"#utility.yul\":13234:13240   */\n      dup3\n        /* \"#utility.yul\":13230:13247   */\n      and\n        /* \"#utility.yul\":13220:13247   */\n      swap2\n      pop\n        /* \"#utility.yul\":13176:13257   */\n    tag_366:\n        /* \"#utility.yul\":13304:13306   */\n      0x20\n        /* \"#utility.yul\":13296:13302   */\n      dup3\n        /* \"#utility.yul\":13293:13307   */\n      lt\n        /* \"#utility.yul\":13273:13291   */\n      dup2\n        /* \"#utility.yul\":13270:13308   */\n      sub\n        /* \"#utility.yul\":13267:13351   */\n      tag_367\n      jumpi\n        /* \"#utility.yul\":13323:13341   */\n      tag_368\n      tag_205\n      jump\t// in\n    tag_368:\n        /* \"#utility.yul\":13267:13351   */\n    tag_367:\n        /* \"#utility.yul\":13088:13357   */\n      pop\n        /* \"#utility.yul\":13037:13357   */\n      swap2\n      swap1\n      pop\n      jump\t// out\n        /* \"#utility.yul\":13363:13543   */\n    tag_78:\n        /* \"#utility.yul\":13411:13488   */\n      0x4e487b7100000000000000000000000000000000000000000000000000000000\n        /* \"#utility.yul\":13408:13409   */\n      0x00\n        /* \"#utility.yul\":13401:13489   */\n      mstore\n        /* \"#utility.yul\":13508:13512   */\n      0x32\n        /* \"#utility.yul\":13505:13506   */\n      0x04\n        /* \"#utility.yul\":13498:13513   */\n      mstore\n        /* \"#utility.yul\":13532:13536   */\n      0x24\n        /* \"#utility.yul\":13529:13530   */\n      0x00\n        /* \"#utility.yul\":13522:13537   */\n      revert\n        /* \"#utility.yul\":13549:13666   */\n    tag_206:\n        /* \"#utility.yul\":13658:13659   */\n      0x00\n        /* \"#utility.yul\":13655:13656   */\n      dup1\n        /* \"#utility.yul\":13648:13660   */\n      revert\n        /* \"#utility.yul\":13672:13789   */\n    tag_207:\n        /* \"#utility.yul\":13781:13782   */\n      0x00\n        /* \"#utility.yul\":13778:13779   */\n      dup1\n        /* \"#utility.yul\":13771:13783   */\n      revert\n        /* \"#utility.yul\":13795:14229   */\n    tag_208:\n        /* \"#utility.yul\":13884:13889   */\n      0x00\n        /* \"#utility.yul\":13909:13975   */\n      tag_373\n        /* \"#utility.yul\":13925:13974   */\n      tag_374\n        /* \"#utility.yul\":13967:13973   */\n      dup5\n        /* \"#utility.yul\":13925:13974   */\n      tag_196\n      jump\t// in\n    tag_374:\n        /* \"#utility.yul\":13909:13975   */\n      tag_195\n      jump\t// in\n    tag_373:\n        /* \"#utility.yul\":13900:13975   */\n      swap1\n      pop\n        /* \"#utility.yul\":13998:14004   */\n      dup3\n        /* \"#utility.yul\":13991:13996   */\n      dup2\n        /* \"#utility.yul\":13984:14005   */\n      mstore\n        /* \"#utility.yul\":14036:14040   */\n      0x20\n        /* \"#utility.yul\":14029:14034   */\n      dup2\n        /* \"#utility.yul\":14025:14041   */\n      add\n        /* \"#utility.yul\":14074:14077   */\n      dup5\n        /* \"#utility.yul\":14065:14071   */\n      dup5\n        /* \"#utility.yul\":14060:14063   */\n      dup5\n        /* \"#utility.yul\":14056:14072   */\n      add\n        /* \"#utility.yul\":14053:14078   */\n      gt\n        /* \"#utility.yul\":14050:14162   */\n      iszero\n      tag_375\n      jumpi\n        /* \"#utility.yul\":14081:14160   */\n      tag_376\n      tag_193\n      jump\t// in\n    tag_376:\n        /* \"#utility.yul\":14050:14162   */\n    tag_375:\n        /* \"#utility.yul\":14171:14223   */\n      tag_377\n        /* \"#utility.yul\":14216:14222   */\n      dup5\n        /* \"#utility.yul\":14211:14214   */\n      dup3\n        /* \"#utility.yul\":14206:14209   */\n      dup6\n        /* \"#utility.yul\":14171:14223   */\n      tag_182\n      jump\t// in\n    tag_377:\n        /* \"#utility.yul\":13890:14229   */\n      pop\n        /* \"#utility.yul\":13795:14229   */\n      swap4\n      swap3\n      pop\n      pop\n      pop\n      jump\t// out\n        /* \"#utility.yul\":14249:14604   */\n    tag_209:\n        /* \"#utility.yul\":14316:14321   */\n      0x00\n        /* \"#utility.yul\":14365:14368   */\n      dup3\n        /* \"#utility.yul\":14358:14362   */\n      0x1f\n        /* \"#utility.yul\":14350:14356   */\n      dup4\n        /* \"#utility.yul\":14346:14363   */\n      add\n        /* \"#utility.yul\":14342:14369   */\n      slt\n        /* \"#utility.yul\":14332:14454   */\n      tag_379\n      jumpi\n        /* \"#utility.yul\":14373:14452   */\n      tag_380\n      tag_192\n      jump\t// in\n    tag_380:\n        /* \"#utility.yul\":14332:14454   */\n    tag_379:\n        /* \"#utility.yul\":14483:14489   */\n      dup2\n        /* \"#utility.yul\":14477:14490   */\n      mload\n        /* \"#utility.yul\":14508:14598   */\n      tag_381\n        /* \"#utility.yul\":14594:14597   */\n      dup5\n        /* \"#utility.yul\":14586:14592   */\n      dup3\n        /* \"#utility.yul\":14579:14583   */\n      0x20\n        /* \"#utility.yul\":14571:14577   */\n      dup7\n        /* \"#utility.yul\":14567:14584   */\n      add\n        /* \"#utility.yul\":14508:14598   */\n      tag_208\n      jump\t// in\n    tag_381:\n        /* \"#utility.yul\":14499:14598   */\n      swap2\n      pop\n        /* \"#utility.yul\":14322:14604   */\n      pop\n        /* \"#utility.yul\":14249:14604   */\n      swap3\n      swap2\n      pop\n      pop\n      jump\t// out\n        /* \"#utility.yul\":14645:15587   */\n    tag_210:\n        /* \"#utility.yul\":14733:14738   */\n      0x00\n        /* \"#utility.yul\":14777:14781   */\n      0x40\n        /* \"#utility.yul\":14765:14774   */\n      dup3\n        /* \"#utility.yul\":14760:14763   */\n      dup5\n        /* \"#utility.yul\":14756:14775   */\n      sub\n        /* \"#utility.yul\":14752:14782   */\n      slt\n        /* \"#utility.yul\":14749:14866   */\n      iszero\n      tag_383\n      jumpi\n        /* \"#utility.yul\":14785:14864   */\n      tag_384\n      tag_206\n      jump\t// in\n    tag_384:\n        /* \"#utility.yul\":14749:14866   */\n    tag_383:\n        /* \"#utility.yul\":14884:14905   */\n      tag_385\n        /* \"#utility.yul\":14900:14904   */\n      0x40\n        /* \"#utility.yul\":14884:14905   */\n      tag_195\n      jump\t// in\n    tag_385:\n        /* \"#utility.yul\":14875:14905   */\n      swap1\n      pop\n        /* \"#utility.yul\":14992:14993   */\n      0x00\n        /* \"#utility.yul\":14981:14990   */\n      dup3\n        /* \"#utility.yul\":14977:14994   */\n      add\n        /* \"#utility.yul\":14971:14995   */\n      mload\n        /* \"#utility.yul\":15022:15040   */\n      0xffffffffffffffff\n        /* \"#utility.yul\":15014:15020   */\n      dup2\n        /* \"#utility.yul\":15011:15041   */\n      gt\n        /* \"#utility.yul\":15008:15125   */\n      iszero\n      tag_386\n      jumpi\n        /* \"#utility.yul\":15044:15123   */\n      tag_387\n      tag_207\n      jump\t// in\n    tag_387:\n        /* \"#utility.yul\":15008:15125   */\n    tag_386:\n        /* \"#utility.yul\":15164:15234   */\n      tag_388\n        /* \"#utility.yul\":15230:15233   */\n      dup5\n        /* \"#utility.yul\":15221:15227   */\n      dup3\n        /* \"#utility.yul\":15210:15219   */\n      dup6\n        /* \"#utility.yul\":15206:15228   */\n      add\n        /* \"#utility.yul\":15164:15234   */\n      tag_209\n      jump\t// in\n    tag_388:\n        /* \"#utility.yul\":15157:15161   */\n      0x00\n        /* \"#utility.yul\":15150:15155   */\n      dup4\n        /* \"#utility.yul\":15146:15162   */\n      add\n        /* \"#utility.yul\":15139:15235   */\n      mstore\n        /* \"#utility.yul\":14915:15246   */\n      pop\n        /* \"#utility.yul\":15325:15327   */\n      0x20\n        /* \"#utility.yul\":15314:15323   */\n      dup3\n        /* \"#utility.yul\":15310:15328   */\n      add\n        /* \"#utility.yul\":15304:15329   */\n      mload\n        /* \"#utility.yul\":15356:15374   */\n      0xffffffffffffffff\n        /* \"#utility.yul\":15348:15354   */\n      dup2\n        /* \"#utility.yul\":15345:15375   */\n      gt\n        /* \"#utility.yul\":15342:15459   */\n      iszero\n      tag_389\n      jumpi\n        /* \"#utility.yul\":15378:15457   */\n      tag_390\n      tag_207\n      jump\t// in\n    tag_390:\n        /* \"#utility.yul\":15342:15459   */\n    tag_389:\n        /* \"#utility.yul\":15498:15568   */\n      tag_391\n        /* \"#utility.yul\":15564:15567   */\n      dup5\n        /* \"#utility.yul\":15555:15561   */\n      dup3\n        /* \"#utility.yul\":15544:15553   */\n      dup6\n        /* \"#utility.yul\":15540:15562   */\n      add\n        /* \"#utility.yul\":15498:15568   */\n      tag_209\n      jump\t// in\n    tag_391:\n        /* \"#utility.yul\":15491:15495   */\n      0x20\n        /* \"#utility.yul\":15484:15489   */\n      dup4\n        /* \"#utility.yul\":15480:15496   */\n      add\n        /* \"#utility.yul\":15473:15569   */\n      mstore\n        /* \"#utility.yul\":15256:15580   */\n      pop\n        /* \"#utility.yul\":14645:15587   */\n      swap3\n      swap2\n      pop\n      pop\n      jump\t// out\n        /* \"#utility.yul\":15593:16153   */\n    tag_93:\n        /* \"#utility.yul\":15691:15697   */\n      0x00\n        /* \"#utility.yul\":15740:15742   */\n      0x20\n        /* \"#utility.yul\":15728:15737   */\n      dup3\n        /* \"#utility.yul\":15719:15726   */\n      dup5\n        /* \"#utility.yul\":15715:15738   */\n      sub\n        /* \"#utility.yul\":15711:15743   */\n      slt\n        /* \"#utility.yul\":15708:15827   */\n      iszero\n      tag_393\n      jumpi\n        /* \"#utility.yul\":15746:15825   */\n      tag_394\n      tag_168\n      jump\t// in\n    tag_394:\n        /* \"#utility.yul\":15708:15827   */\n    tag_393:\n        /* \"#utility.yul\":15887:15888   */\n      0x00\n        /* \"#utility.yul\":15876:15885   */\n      dup3\n        /* \"#utility.yul\":15872:15889   */\n      add\n        /* \"#utility.yul\":15866:15890   */\n      mload\n        /* \"#utility.yul\":15917:15935   */\n      0xffffffffffffffff\n        /* \"#utility.yul\":15909:15915   */\n      dup2\n        /* \"#utility.yul\":15906:15936   */\n      gt\n        /* \"#utility.yul\":15903:16020   */\n      iszero\n      tag_395\n      jumpi\n        /* \"#utility.yul\":15939:16018   */\n      tag_396\n      tag_169\n      jump\t// in\n    tag_396:\n        /* \"#utility.yul\":15903:16020   */\n    tag_395:\n        /* \"#utility.yul\":16044:16136   */\n      tag_397\n        /* \"#utility.yul\":16128:16135   */\n      dup5\n        /* \"#utility.yul\":16119:16125   */\n      dup3\n        /* \"#utility.yul\":16108:16117   */\n      dup6\n        /* \"#utility.yul\":16104:16126   */\n      add\n        /* \"#utility.yul\":16044:16136   */\n      tag_210\n      jump\t// in\n    tag_397:\n        /* \"#utility.yul\":16034:16136   */\n      swap2\n      pop\n        /* \"#utility.yul\":15837:16146   */\n      pop\n        /* \"#utility.yul\":15593:16153   */\n      swap3\n      swap2\n      pop\n      pop\n      jump\t// out\n        /* \"#utility.yul\":16159:16328   */\n    tag_211:\n        /* \"#utility.yul\":16243:16254   */\n      0x00\n        /* \"#utility.yul\":16277:16283   */\n      dup3\n        /* \"#utility.yul\":16272:16275   */\n      dup3\n        /* \"#utility.yul\":16265:16284   */\n      mstore\n        /* \"#utility.yul\":16317:16321   */\n      0x20\n        /* \"#utility.yul\":16312:16315   */\n      dup3\n        /* \"#utility.yul\":16308:16322   */\n      add\n        /* \"#utility.yul\":16293:16322   */\n      swap1\n      pop\n        /* \"#utility.yul\":16159:16328   */\n      swap3\n      swap2\n      pop\n      pop\n      jump\t// out\n        /* \"#utility.yul\":16334:16512   */\n    tag_212:\n        /* \"#utility.yul\":16474:16504   */\n      0x5573657220646f6573206e6f74206861766520612070726f66696c6500000000\n        /* \"#utility.yul\":16470:16471   */\n      0x00\n        /* \"#utility.yul\":16462:16468   */\n      dup3\n        /* \"#utility.yul\":16458:16472   */\n      add\n        /* \"#utility.yul\":16451:16505   */\n      mstore\n        /* \"#utility.yul\":16334:16512   */\n      pop\n      jump\t// out\n        /* \"#utility.yul\":16518:16884   */\n    tag_213:\n        /* \"#utility.yul\":16660:16663   */\n      0x00\n        /* \"#utility.yul\":16681:16748   */\n      tag_401\n        /* \"#utility.yul\":16745:16747   */\n      0x1c\n        /* \"#utility.yul\":16740:16743   */\n      dup4\n        /* \"#utility.yul\":16681:16748   */\n      tag_211\n      jump\t// in\n    tag_401:\n        /* \"#utility.yul\":16674:16748   */\n      swap2\n      pop\n        /* \"#utility.yul\":16757:16850   */\n      tag_402\n        /* \"#utility.yul\":16846:16849   */\n      dup3\n        /* \"#utility.yul\":16757:16850   */\n      tag_212\n      jump\t// in\n    tag_402:\n        /* \"#utility.yul\":16875:16877   */\n      0x20\n        /* \"#utility.yul\":16870:16873   */\n      dup3\n        /* \"#utility.yul\":16866:16878   */\n      add\n        /* \"#utility.yul\":16859:16878   */\n      swap1\n      pop\n        /* \"#utility.yul\":16518:16884   */\n      swap2\n      swap1\n      pop\n      jump\t// out\n        /* \"#utility.yul\":16890:17309   */\n    tag_96:\n        /* \"#utility.yul\":17056:17060   */\n      0x00\n        /* \"#utility.yul\":17094:17096   */\n      0x20\n        /* \"#utility.yul\":17083:17092   */\n      dup3\n        /* \"#utility.yul\":17079:17097   */\n      add\n        /* \"#utility.yul\":17071:17097   */\n      swap1\n      pop\n        /* \"#utility.yul\":17143:17152   */\n      dup2\n        /* \"#utility.yul\":17137:17141   */\n      dup2\n        /* \"#utility.yul\":17133:17153   */\n      sub\n        /* \"#utility.yul\":17129:17130   */\n      0x00\n        /* \"#utility.yul\":17118:17127   */\n      dup4\n        /* \"#utility.yul\":17114:17131   */\n      add\n        /* \"#utility.yul\":17107:17154   */\n      mstore\n        /* \"#utility.yul\":17171:17302   */\n      tag_404\n        /* \"#utility.yul\":17297:17301   */\n      dup2\n        /* \"#utility.yul\":17171:17302   */\n      tag_213\n      jump\t// in\n    tag_404:\n        /* \"#utility.yul\":17163:17302   */\n      swap1\n      pop\n        /* \"#utility.yul\":16890:17309   */\n      swap2\n      swap1\n      pop\n      jump\t// out\n        /* \"#utility.yul\":17315:17489   */\n    tag_214:\n        /* \"#utility.yul\":17455:17481   */\n      0x547765657420636f6e74656e74206973206c656e677468790000000000000000\n        /* \"#utility.yul\":17451:17452   */\n      0x00\n        /* \"#utility.yul\":17443:17449   */\n      dup3\n        /* \"#utility.yul\":17439:17453   */\n      add\n        /* \"#utility.yul\":17432:17482   */\n      mstore\n        /* \"#utility.yul\":17315:17489   */\n      pop\n      jump\t// out\n        /* \"#utility.yul\":17495:17861   */\n    tag_215:\n        /* \"#utility.yul\":17637:17640   */\n      0x00\n        /* \"#utility.yul\":17658:17725   */\n      tag_407\n        /* \"#utility.yul\":17722:17724   */\n      0x18\n        /* \"#utility.yul\":17717:17720   */\n      dup4\n        /* \"#utility.yul\":17658:17725   */\n      tag_211\n      jump\t// in\n    tag_407:\n        /* \"#utility.yul\":17651:17725   */\n      swap2\n      pop\n        /* \"#utility.yul\":17734:17827   */\n      tag_408\n        /* \"#utility.yul\":17823:17826   */\n      dup3\n        /* \"#utility.yul\":17734:17827   */\n      tag_214\n      jump\t// in\n    tag_408:\n        /* \"#utility.yul\":17852:17854   */\n      0x20\n        /* \"#utility.yul\":17847:17850   */\n      dup3\n        /* \"#utility.yul\":17843:17855   */\n      add\n        /* \"#utility.yul\":17836:17855   */\n      swap1\n      pop\n        /* \"#utility.yul\":17495:17861   */\n      swap2\n      swap1\n      pop\n      jump\t// out\n        /* \"#utility.yul\":17867:18286   */\n    tag_100:\n        /* \"#utility.yul\":18033:18037   */\n      0x00\n        /* \"#utility.yul\":18071:18073   */\n      0x20\n        /* \"#utility.yul\":18060:18069   */\n      dup3\n        /* \"#utility.yul\":18056:18074   */\n      add\n        /* \"#utility.yul\":18048:18074   */\n      swap1\n      pop\n        /* \"#utility.yul\":18120:18129   */\n      dup2\n        /* \"#utility.yul\":18114:18118   */\n      dup2\n        /* \"#utility.yul\":18110:18130   */\n      sub\n        /* \"#utility.yul\":18106:18107   */\n      0x00\n        /* \"#utility.yul\":18095:18104   */\n      dup4\n        /* \"#utility.yul\":18091:18108   */\n      add\n        /* \"#utility.yul\":18084:18131   */\n      mstore\n        /* \"#utility.yul\":18148:18279   */\n      tag_410\n        /* \"#utility.yul\":18274:18278   */\n      dup2\n        /* \"#utility.yul\":18148:18279   */\n      tag_215\n      jump\t// in\n    tag_410:\n        /* \"#utility.yul\":18140:18279   */\n      swap1\n      pop\n        /* \"#utility.yul\":17867:18286   */\n      swap2\n      swap1\n      pop\n      jump\t// out\n        /* \"#utility.yul\":18292:18433   */\n    tag_216:\n        /* \"#utility.yul\":18341:18345   */\n      0x00\n        /* \"#utility.yul\":18364:18367   */\n      dup2\n        /* \"#utility.yul\":18356:18367   */\n      swap1\n      pop\n        /* \"#utility.yul\":18387:18390   */\n      dup2\n        /* \"#utility.yul\":18384:18385   */\n      0x00\n        /* \"#utility.yul\":18377:18391   */\n      mstore\n        /* \"#utility.yul\":18421:18425   */\n      0x20\n        /* \"#utility.yul\":18418:18419   */\n      0x00\n        /* \"#utility.yul\":18408:18426   */\n      keccak256\n        /* \"#utility.yul\":18400:18426   */\n      swap1\n      pop\n        /* \"#utility.yul\":18292:18433   */\n      swap2\n      swap1\n      pop\n      jump\t// out\n        /* \"#utility.yul\":18439:18532   */\n    tag_217:\n        /* \"#utility.yul\":18476:18482   */\n      0x00\n        /* \"#utility.yul\":18523:18525   */\n      0x20\n        /* \"#utility.yul\":18518:18520   */\n      0x1f\n        /* \"#utility.yul\":18511:18516   */\n      dup4\n        /* \"#utility.yul\":18507:18521   */\n      add\n        /* \"#utility.yul\":18503:18526   */\n      div\n        /* \"#utility.yul\":18493:18526   */\n      swap1\n      pop\n        /* \"#utility.yul\":18439:18532   */\n      swap2\n      swap1\n      pop\n      jump\t// out\n        /* \"#utility.yul\":18538:18645   */\n    tag_218:\n        /* \"#utility.yul\":18582:18590   */\n      0x00\n        /* \"#utility.yul\":18632:18637   */\n      dup3\n        /* \"#utility.yul\":18626:18630   */\n      dup3\n        /* \"#utility.yul\":18622:18638   */\n      shl\n        /* \"#utility.yul\":18601:18638   */\n      swap1\n      pop\n        /* \"#utility.yul\":18538:18645   */\n      swap3\n      swap2\n      pop\n      pop\n      jump\t// out\n        /* \"#utility.yul\":18651:19044   */\n    tag_219:\n        /* \"#utility.yul\":18720:18726   */\n      0x00\n        /* \"#utility.yul\":18770:18771   */\n      0x08\n        /* \"#utility.yul\":18758:18768   */\n      dup4\n        /* \"#utility.yul\":18754:18772   */\n      mul\n        /* \"#utility.yul\":18793:18890   */\n      tag_415\n        /* \"#utility.yul\":18823:18889   */\n      0xffffffffffffffffffffffffffffffffffffffffffffffffffffffffffffffff\n        /* \"#utility.yul\":18812:18821   */\n      dup3\n        /* \"#utility.yul\":18793:18890   */\n      tag_218\n      jump\t// in\n    tag_415:\n        /* \"#utility.yul\":18911:18950   */\n      tag_416\n        /* \"#utility.yul\":18941:18949   */\n      dup7\n        /* \"#utility.yul\":18930:18939   */\n      dup4\n        /* \"#utility.yul\":18911:18950   */\n      tag_218\n      jump\t// in\n    tag_416:\n        /* \"#utility.yul\":18899:18950   */\n      swap6\n      pop\n        /* \"#utility.yul\":18983:18987   */\n      dup1\n        /* \"#utility.yul\":18979:18988   */\n      not\n        /* \"#utility.yul\":18972:18977   */\n      dup5\n        /* \"#utility.yul\":18968:18989   */\n      and\n        /* \"#utility.yul\":18959:18989   */\n      swap4\n      pop\n        /* \"#utility.yul\":19032:19036   */\n      dup1\n        /* \"#utility.yul\":19022:19030   */\n      dup7\n        /* \"#utility.yul\":19018:19037   */\n      and\n        /* \"#utility.yul\":19011:19016   */\n      dup5\n        /* \"#utility.yul\":19008:19038   */\n      or\n        /* \"#utility.yul\":18998:19038   */\n      swap3\n      pop\n        /* \"#utility.yul\":18727:19044   */\n      pop\n      pop\n        /* \"#utility.yul\":18651:19044   */\n      swap4\n      swap3\n      pop\n      pop\n      pop\n      jump\t// out\n        /* \"#utility.yul\":19050:19110   */\n    tag_220:\n        /* \"#utility.yul\":19078:19081   */\n      0x00\n        /* \"#utility.yul\":19099:19104   */\n      dup2\n        /* \"#utility.yul\":19092:19104   */\n      swap1\n      pop\n        /* \"#utility.yul\":19050:19110   */\n      swap2\n      swap1\n      pop\n      jump\t// out\n        /* \"#utility.yul\":19116:19258   */\n    tag_221:\n        /* \"#utility.yul\":19166:19175   */\n      0x00\n        /* \"#utility.yul\":19199:19252   */\n      tag_419\n        /* \"#utility.yul\":19217:19251   */\n      tag_420\n        /* \"#utility.yul\":19226:19250   */\n      tag_421\n        /* \"#utility.yul\":19244:19249   */\n      dup5\n        /* \"#utility.yul\":19226:19250   */\n      tag_177\n      jump\t// in\n    tag_421:\n        /* \"#utility.yul\":19217:19251   */\n      tag_220\n      jump\t// in\n    tag_420:\n        /* \"#utility.yul\":19199:19252   */\n      tag_177\n      jump\t// in\n    tag_419:\n        /* \"#utility.yul\":19186:19252   */\n      swap1\n      pop\n        /* \"#utility.yul\":19116:19258   */\n      swap2\n      swap1\n      pop\n      jump\t// out\n        /* \"#utility.yul\":19264:19339   */\n    tag_222:\n        /* \"#utility.yul\":19307:19310   */\n      0x00\n        /* \"#utility.yul\":19328:19333   */\n      dup2\n        /* \"#utility.yul\":19321:19333   */\n      swap1\n      pop\n        /* \"#utility.yul\":19264:19339   */\n      swap2\n      swap1\n      pop\n      jump\t// out\n        /* \"#utility.yul\":19345:19614   */\n    tag_223:\n        /* \"#utility.yul\":19455:19494   */\n      tag_424\n        /* \"#utility.yul\":19486:19493   */\n      dup4\n        /* \"#utility.yul\":19455:19494   */\n      tag_221\n      jump\t// in\n    tag_424:\n        /* \"#utility.yul\":19516:19607   */\n      tag_425\n        /* \"#utility.yul\":19565:19606   */\n      tag_426\n        /* \"#utility.yul\":19589:19605   */\n      dup3\n        /* \"#utility.yul\":19565:19606   */\n      tag_222\n      jump\t// in\n    tag_426:\n        /* \"#utility.yul\":19557:19563   */\n      dup5\n        /* \"#utility.yul\":19550:19554   */\n      dup5\n        /* \"#utility.yul\":19544:19555   */\n      sload\n        /* \"#utility.yul\":19516:19607   */\n      tag_219\n      jump\t// in\n    tag_425:\n        /* \"#utility.yul\":19510:19514   */\n      dup3\n        /* \"#utility.yul\":19503:19608   */\n      sstore\n        /* \"#utility.yul\":19421:19614   */\n      pop\n        /* \"#utility.yul\":19345:19614   */\n      pop\n      pop\n      pop\n      jump\t// out\n        /* \"#utility.yul\":19620:19693   */\n    tag_224:\n        /* \"#utility.yul\":19665:19668   */\n      0x00\n        /* \"#utility.yul\":19620:19693   */\n      swap1\n      jump\t// out\n        /* \"#utility.yul\":19699:19888   */\n    tag_225:\n        /* \"#utility.yul\":19776:19808   */\n      tag_429\n      tag_224\n      jump\t// in\n    tag_429:\n        /* \"#utility.yul\":19817:19882   */\n      tag_430\n        /* \"#utility.yul\":19875:19881   */\n      dup2\n        /* \"#utility.yul\":19867:19873   */\n      dup5\n        /* \"#utility.yul\":19861:19865   */\n      dup5\n        /* \"#utility.yul\":19817:19882   */\n      tag_223\n      jump\t// in\n    tag_430:\n        /* \"#utility.yul\":19752:19888   */\n      pop\n        /* \"#utility.yul\":19699:19888   */\n      pop\n      pop\n      jump\t// out\n        /* \"#utility.yul\":19894:20080   */\n    tag_226:\n        /* \"#utility.yul\":19954:20074   */\n    tag_432:\n        /* \"#utility.yul\":19971:19974   */\n      dup2\n        /* \"#utility.yul\":19964:19969   */\n      dup2\n        /* \"#utility.yul\":19961:19975   */\n      lt\n        /* \"#utility.yul\":19954:20074   */\n      iszero\n      tag_434\n      jumpi\n        /* \"#utility.yul\":20025:20064   */\n      tag_435\n        /* \"#utility.yul\":20062:20063   */\n      0x00\n        /* \"#utility.yul\":20055:20060   */\n      dup3\n        /* \"#utility.yul\":20025:20064   */\n      tag_225\n      jump\t// in\n    tag_435:\n        /* \"#utility.yul\":19998:19999   */\n      0x01\n        /* \"#utility.yul\":19991:19996   */\n      dup2\n        /* \"#utility.yul\":19987:20000   */\n      add\n        /* \"#utility.yul\":19978:20000   */\n      swap1\n      pop\n        /* \"#utility.yul\":19954:20074   */\n      jump(tag_432)\n    tag_434:\n        /* \"#utility.yul\":19894:20080   */\n      pop\n      pop\n      jump\t// out\n        /* \"#utility.yul\":20086:20629   */\n    tag_227:\n        /* \"#utility.yul\":20187:20189   */\n      0x1f\n        /* \"#utility.yul\":20182:20185   */\n      dup3\n        /* \"#utility.yul\":20179:20190   */\n      gt\n        /* \"#utility.yul\":20176:20622   */\n      iszero\n      tag_437\n      jumpi\n        /* \"#utility.yul\":20221:20259   */\n      tag_438\n        /* \"#utility.yul\":20253:20258   */\n      dup2\n        /* \"#utility.yul\":20221:20259   */\n      tag_216\n      jump\t// in\n    tag_438:\n        /* \"#utility.yul\":20305:20334   */\n      tag_439\n        /* \"#utility.yul\":20323:20333   */\n      dup5\n        /* \"#utility.yul\":20305:20334   */\n      tag_217\n      jump\t// in\n    tag_439:\n        /* \"#utility.yul\":20295:20303   */\n      dup2\n        /* \"#utility.yul\":20291:20335   */\n      add\n        /* \"#utility.yul\":20488:20490   */\n      0x20\n        /* \"#utility.yul\":20476:20486   */\n      dup6\n        /* \"#utility.yul\":20473:20491   */\n      lt\n        /* \"#utility.yul\":20470:20519   */\n      iszero\n      tag_440\n      jumpi\n        /* \"#utility.yul\":20509:20517   */\n      dup2\n        /* \"#utility.yul\":20494:20517   */\n      swap1\n      pop\n        /* \"#utility.yul\":20470:20519   */\n    tag_440:\n        /* \"#utility.yul\":20532:20612   */\n      tag_441\n        /* \"#utility.yul\":20588:20610   */\n      tag_442\n        /* \"#utility.yul\":20606:20609   */\n      dup6\n        /* \"#utility.yul\":20588:20610   */\n      tag_217\n      jump\t// in\n    tag_442:\n        /* \"#utility.yul\":20578:20586   */\n      dup4\n        /* \"#utility.yul\":20574:20611   */\n      add\n        /* \"#utility.yul\":20561:20572   */\n      dup3\n        /* \"#utility.yul\":20532:20612   */\n      tag_226\n      jump\t// in\n    tag_441:\n        /* \"#utility.yul\":20191:20622   */\n      pop\n      pop\n        /* \"#utility.yul\":20176:20622   */\n    tag_437:\n        /* \"#utility.yul\":20086:20629   */\n      pop\n      pop\n      pop\n      jump\t// out\n        /* \"#utility.yul\":20635:20752   */\n    tag_228:\n        /* \"#utility.yul\":20689:20697   */\n      0x00\n        /* \"#utility.yul\":20739:20744   */\n      dup3\n        /* \"#utility.yul\":20733:20737   */\n      dup3\n        /* \"#utility.yul\":20729:20745   */\n      shr\n        /* \"#utility.yul\":20708:20745   */\n      swap1\n      pop\n        /* \"#utility.yul\":20635:20752   */\n      swap3\n      swap2\n      pop\n      pop\n      jump\t// out\n        /* \"#utility.yul\":20758:20927   */\n    tag_229:\n        /* \"#utility.yul\":20802:20808   */\n      0x00\n        /* \"#utility.yul\":20835:20886   */\n      tag_445\n        /* \"#utility.yul\":20883:20884   */\n      0x00\n        /* \"#utility.yul\":20879:20885   */\n      not\n        /* \"#utility.yul\":20871:20876   */\n      dup5\n        /* \"#utility.yul\":20868:20869   */\n      0x08\n        /* \"#utility.yul\":20864:20877   */\n      mul\n        /* \"#utility.yul\":20835:20886   */\n      tag_228\n      jump\t// in\n    tag_445:\n        /* \"#utility.yul\":20831:20887   */\n      not\n        /* \"#utility.yul\":20916:20920   */\n      dup1\n        /* \"#utility.yul\":20910:20914   */\n      dup4\n        /* \"#utility.yul\":20906:20921   */\n      and\n        /* \"#utility.yul\":20896:20921   */\n      swap2\n      pop\n        /* \"#utility.yul\":20809:20927   */\n      pop\n        /* \"#utility.yul\":20758:20927   */\n      swap3\n      swap2\n      pop\n      pop\n      jump\t// out\n        /* \"#utility.yul\":20932:21227   */\n    tag_230:\n        /* \"#utility.yul\":21008:21012   */\n      0x00\n        /* \"#utility.yul\":21154:21183   */\n      tag_447\n        /* \"#utility.yul\":21179:21182   */\n      dup4\n        /* \"#utility.yul\":21173:21177   */\n      dup4\n        /* \"#utility.yul\":21154:21183   */\n      tag_229\n      jump\t// in\n    tag_447:\n        /* \"#utility.yul\":21146:21183   */\n      swap2\n      pop\n        /* \"#utility.yul\":21216:21219   */\n      dup3\n        /* \"#utility.yul\":21213:21214   */\n      0x02\n        /* \"#utility.yul\":21209:21220   */\n      mul\n        /* \"#utility.yul\":21203:21207   */\n      dup3\n        /* \"#utility.yul\":21200:21221   */\n      or\n        /* \"#utility.yul\":21192:21221   */\n      swap1\n      pop\n        /* \"#utility.yul\":20932:21227   */\n      swap3\n      swap2\n      pop\n      pop\n      jump\t// out\n        /* \"#utility.yul\":21232:22627   */\n    tag_102:\n        /* \"#utility.yul\":21349:21386   */\n      tag_449\n        /* \"#utility.yul\":21382:21385   */\n      dup3\n        /* \"#utility.yul\":21349:21386   */\n      tag_180\n      jump\t// in\n    tag_449:\n        /* \"#utility.yul\":21451:21469   */\n      0xffffffffffffffff\n        /* \"#utility.yul\":21443:21449   */\n      dup2\n        /* \"#utility.yul\":21440:21470   */\n      gt\n        /* \"#utility.yul\":21437:21493   */\n      iszero\n      tag_450\n      jumpi\n        /* \"#utility.yul\":21473:21491   */\n      tag_451\n      tag_62\n      jump\t// in\n    tag_451:\n        /* \"#utility.yul\":21437:21493   */\n    tag_450:\n        /* \"#utility.yul\":21517:21555   */\n      tag_452\n        /* \"#utility.yul\":21549:21553   */\n      dup3\n        /* \"#utility.yul\":21543:21554   */\n      sload\n        /* \"#utility.yul\":21517:21555   */\n      tag_71\n      jump\t// in\n    tag_452:\n        /* \"#utility.yul\":21602:21669   */\n      tag_453\n        /* \"#utility.yul\":21662:21668   */\n      dup3\n        /* \"#utility.yul\":21654:21660   */\n      dup3\n        /* \"#utility.yul\":21648:21652   */\n      dup6\n        /* \"#utility.yul\":21602:21669   */\n      tag_227\n      jump\t// in\n    tag_453:\n        /* \"#utility.yul\":21696:21697   */\n      0x00\n        /* \"#utility.yul\":21720:21724   */\n      0x20\n        /* \"#utility.yul\":21707:21724   */\n      swap1\n      pop\n        /* \"#utility.yul\":21752:21754   */\n      0x1f\n        /* \"#utility.yul\":21744:21750   */\n      dup4\n        /* \"#utility.yul\":21741:21755   */\n      gt\n        /* \"#utility.yul\":21769:21770   */\n      0x01\n        /* \"#utility.yul\":21764:22382   */\n      dup2\n      eq\n      tag_455\n      jumpi\n        /* \"#utility.yul\":22426:22427   */\n      0x00\n        /* \"#utility.yul\":22443:22449   */\n      dup5\n        /* \"#utility.yul\":22440:22517   */\n      iszero\n      tag_456\n      jumpi\n        /* \"#utility.yul\":22492:22501   */\n      dup3\n        /* \"#utility.yul\":22487:22490   */\n      dup8\n        /* \"#utility.yul\":22483:22502   */\n      add\n        /* \"#utility.yul\":22477:22503   */\n      mload\n        /* \"#utility.yul\":22468:22503   */\n      swap1\n      pop\n        /* \"#utility.yul\":22440:22517   */\n    tag_456:\n        /* \"#utility.yul\":22543:22610   */\n      tag_457\n        /* \"#utility.yul\":22603:22609   */\n      dup6\n        /* \"#utility.yul\":22596:22601   */\n      dup3\n        /* \"#utility.yul\":22543:22610   */\n      tag_230\n      jump\t// in\n    tag_457:\n        /* \"#utility.yul\":22537:22541   */\n      dup7\n        /* \"#utility.yul\":22530:22611   */\n      sstore\n        /* \"#utility.yul\":22399:22621   */\n      pop\n        /* \"#utility.yul\":21734:22621   */\n      jump(tag_454)\n        /* \"#utility.yul\":21764:22382   */\n    tag_455:\n        /* \"#utility.yul\":21816:21820   */\n      0x1f\n        /* \"#utility.yul\":21812:21821   */\n      not\n        /* \"#utility.yul\":21804:21810   */\n      dup5\n        /* \"#utility.yul\":21800:21822   */\n      and\n        /* \"#utility.yul\":21850:21887   */\n      tag_458\n        /* \"#utility.yul\":21882:21886   */\n      dup7\n        /* \"#utility.yul\":21850:21887   */\n      tag_216\n      jump\t// in\n    tag_458:\n        /* \"#utility.yul\":21909:21910   */\n      0x00\n        /* \"#utility.yul\":21923:22131   */\n    tag_459:\n        /* \"#utility.yul\":21937:21944   */\n      dup3\n        /* \"#utility.yul\":21934:21935   */\n      dup2\n        /* \"#utility.yul\":21931:21945   */\n      lt\n        /* \"#utility.yul\":21923:22131   */\n      iszero\n      tag_461\n      jumpi\n        /* \"#utility.yul\":22016:22025   */\n      dup5\n        /* \"#utility.yul\":22011:22014   */\n      dup10\n        /* \"#utility.yul\":22007:22026   */\n      add\n        /* \"#utility.yul\":22001:22027   */\n      mload\n        /* \"#utility.yul\":21993:21999   */\n      dup3\n        /* \"#utility.yul\":21986:22028   */\n      sstore\n        /* \"#utility.yul\":22067:22068   */\n      0x01\n        /* \"#utility.yul\":22059:22065   */\n      dup3\n        /* \"#utility.yul\":22055:22069   */\n      add\n        /* \"#utility.yul\":22045:22069   */\n      swap2\n      pop\n        /* \"#utility.yul\":22114:22116   */\n      0x20\n        /* \"#utility.yul\":22103:22112   */\n      dup6\n        /* \"#utility.yul\":22099:22117   */\n      add\n        /* \"#utility.yul\":22086:22117   */\n      swap5\n      pop\n        /* \"#utility.yul\":21960:21964   */\n      0x20\n        /* \"#utility.yul\":21957:21958   */\n      dup2\n        /* \"#utility.yul\":21953:21965   */\n      add\n        /* \"#utility.yul\":21948:21965   */\n      swap1\n      pop\n        /* \"#utility.yul\":21923:22131   */\n      jump(tag_459)\n    tag_461:\n        /* \"#utility.yul\":22159:22165   */\n      dup7\n        /* \"#utility.yul\":22150:22157   */\n      dup4\n        /* \"#utility.yul\":22147:22166   */\n      lt\n        /* \"#utility.yul\":22144:22323   */\n      iszero\n      tag_462\n      jumpi\n        /* \"#utility.yul\":22217:22226   */\n      dup5\n        /* \"#utility.yul\":22212:22215   */\n      dup10\n        /* \"#utility.yul\":22208:22227   */\n      add\n        /* \"#utility.yul\":22202:22228   */\n      mload\n        /* \"#utility.yul\":22260:22308   */\n      tag_463\n        /* \"#utility.yul\":22302:22306   */\n      0x1f\n        /* \"#utility.yul\":22294:22300   */\n      dup10\n        /* \"#utility.yul\":22290:22307   */\n      and\n        /* \"#utility.yul\":22279:22288   */\n      dup3\n        /* \"#utility.yul\":22260:22308   */\n      tag_229\n      jump\t// in\n    tag_463:\n        /* \"#utility.yul\":22252:22258   */\n      dup4\n        /* \"#utility.yul\":22245:22309   */\n      sstore\n        /* \"#utility.yul\":22167:22323   */\n      pop\n        /* \"#utility.yul\":22144:22323   */\n    tag_462:\n        /* \"#utility.yul\":22369:22370   */\n      0x01\n        /* \"#utility.yul\":22365:22366   */\n      0x02\n        /* \"#utility.yul\":22357:22363   */\n      dup9\n        /* \"#utility.yul\":22353:22367   */\n      mul\n        /* \"#utility.yul\":22349:22371   */\n      add\n        /* \"#utility.yul\":22343:22347   */\n      dup9\n        /* \"#utility.yul\":22336:22372   */\n      sstore\n        /* \"#utility.yul\":21771:22382   */\n      pop\n      pop\n      pop\n        /* \"#utility.yul\":21734:22621   */\n    tag_454:\n      pop\n        /* \"#utility.yul\":21324:22627   */\n      pop\n      pop\n      pop\n        /* \"#utility.yul\":21232:22627   */\n      pop\n      pop\n      jump\t// out\n        /* \"#utility.yul\":22633:23010   */\n    tag_231:\n        /* \"#utility.yul\":22721:22724   */\n      0x00\n        /* \"#utility.yul\":22749:22788   */\n      tag_465\n        /* \"#utility.yul\":22782:22787   */\n      dup3\n        /* \"#utility.yul\":22749:22788   */\n      tag_180\n      jump\t// in\n    tag_465:\n        /* \"#utility.yul\":22804:22875   */\n      tag_466\n        /* \"#utility.yul\":22868:22874   */\n      dup2\n        /* \"#utility.yul\":22863:22866   */\n      dup6\n        /* \"#utility.yul\":22804:22875   */\n      tag_211\n      jump\t// in\n    tag_466:\n        /* \"#utility.yul\":22797:22875   */\n      swap4\n      pop\n        /* \"#utility.yul\":22884:22949   */\n      tag_467\n        /* \"#utility.yul\":22942:22948   */\n      dup2\n        /* \"#utility.yul\":22937:22940   */\n      dup6\n        /* \"#utility.yul\":22930:22934   */\n      0x20\n        /* \"#utility.yul\":22923:22928   */\n      dup7\n        /* \"#utility.yul\":22919:22935   */\n      add\n        /* \"#utility.yul\":22884:22949   */\n      tag_182\n      jump\t// in\n    tag_467:\n        /* \"#utility.yul\":22974:23003   */\n      tag_468\n        /* \"#utility.yul\":22996:23002   */\n      dup2\n        /* \"#utility.yul\":22974:23003   */\n      tag_183\n      jump\t// in\n    tag_468:\n        /* \"#utility.yul\":22969:22972   */\n      dup5\n        /* \"#utility.yul\":22965:23004   */\n      add\n        /* \"#utility.yul\":22958:23004   */\n      swap2\n      pop\n        /* \"#utility.yul\":22725:23010   */\n      pop\n        /* \"#utility.yul\":22633:23010   */\n      swap3\n      swap2\n      pop\n      pop\n      jump\t// out\n        /* \"#utility.yul\":23016:23660   */\n    tag_104:\n        /* \"#utility.yul\":23213:23217   */\n      0x00\n        /* \"#utility.yul\":23251:23254   */\n      0x80\n        /* \"#utility.yul\":23240:23249   */\n      dup3\n        /* \"#utility.yul\":23236:23255   */\n      add\n        /* \"#utility.yul\":23228:23255   */\n      swap1\n      pop\n        /* \"#utility.yul\":23265:23336   */\n      tag_470\n        /* \"#utility.yul\":23333:23334   */\n      0x00\n        /* \"#utility.yul\":23322:23331   */\n      dup4\n        /* \"#utility.yul\":23318:23335   */\n      add\n        /* \"#utility.yul\":23309:23315   */\n      dup8\n        /* \"#utility.yul\":23265:23336   */\n      tag_200\n      jump\t// in\n    tag_470:\n        /* \"#utility.yul\":23346:23418   */\n      tag_471\n        /* \"#utility.yul\":23414:23416   */\n      0x20\n        /* \"#utility.yul\":23403:23412   */\n      dup4\n        /* \"#utility.yul\":23399:23417   */\n      add\n        /* \"#utility.yul\":23390:23396   */\n      dup7\n        /* \"#utility.yul\":23346:23418   */\n      tag_201\n      jump\t// in\n    tag_471:\n        /* \"#utility.yul\":23465:23474   */\n      dup2\n        /* \"#utility.yul\":23459:23463   */\n      dup2\n        /* \"#utility.yul\":23455:23475   */\n      sub\n        /* \"#utility.yul\":23450:23452   */\n      0x40\n        /* \"#utility.yul\":23439:23448   */\n      dup4\n        /* \"#utility.yul\":23435:23453   */\n      add\n        /* \"#utility.yul\":23428:23476   */\n      mstore\n        /* \"#utility.yul\":23493:23571   */\n      tag_472\n        /* \"#utility.yul\":23566:23570   */\n      dup2\n        /* \"#utility.yul\":23557:23563   */\n      dup6\n        /* \"#utility.yul\":23493:23571   */\n      tag_231\n      jump\t// in\n    tag_472:\n        /* \"#utility.yul\":23485:23571   */\n      swap1\n      pop\n        /* \"#utility.yul\":23581:23653   */\n      tag_473\n        /* \"#utility.yul\":23649:23651   */\n      0x60\n        /* \"#utility.yul\":23638:23647   */\n      dup4\n        /* \"#utility.yul\":23634:23652   */\n      add\n        /* \"#utility.yul\":23625:23631   */\n      dup5\n        /* \"#utility.yul\":23581:23653   */\n      tag_200\n      jump\t// in\n    tag_473:\n        /* \"#utility.yul\":23016:23660   */\n      swap6\n      swap5\n      pop\n      pop\n      pop\n      pop\n      pop\n      jump\t// out\n        /* \"#utility.yul\":23666:23846   */\n    tag_232:\n        /* \"#utility.yul\":23714:23791   */\n      0x4e487b7100000000000000000000000000000000000000000000000000000000\n        /* \"#utility.yul\":23711:23712   */\n      0x00\n        /* \"#utility.yul\":23704:23792   */\n      mstore\n        /* \"#utility.yul\":23811:23815   */\n      0x11\n        /* \"#utility.yul\":23808:23809   */\n      0x04\n        /* \"#utility.yul\":23801:23816   */\n      mstore\n        /* \"#utility.yul\":23835:23839   */\n      0x24\n        /* \"#utility.yul\":23832:23833   */\n      0x00\n        /* \"#utility.yul\":23825:23840   */\n      revert\n        /* \"#utility.yul\":23852:24085   */\n    tag_106:\n        /* \"#utility.yul\":23891:23894   */\n      0x00\n        /* \"#utility.yul\":23914:23938   */\n      tag_476\n        /* \"#utility.yul\":23932:23937   */\n      dup3\n        /* \"#utility.yul\":23914:23938   */\n      tag_177\n      jump\t// in\n    tag_476:\n        /* \"#utility.yul\":23905:23938   */\n      swap2\n      pop\n        /* \"#utility.yul\":23960:24026   */\n      0xffffffffffffffffffffffffffffffffffffffffffffffffffffffffffffffff\n        /* \"#utility.yul\":23953:23958   */\n      dup3\n        /* \"#utility.yul\":23950:24027   */\n      sub\n        /* \"#utility.yul\":23947:24050   */\n      tag_477\n      jumpi\n        /* \"#utility.yul\":24030:24048   */\n      tag_478\n      tag_232\n      jump\t// in\n    tag_478:\n        /* \"#utility.yul\":23947:24050   */\n    tag_477:\n        /* \"#utility.yul\":24077:24078   */\n      0x01\n        /* \"#utility.yul\":24070:24075   */\n      dup3\n        /* \"#utility.yul\":24066:24079   */\n      add\n        /* \"#utility.yul\":24059:24079   */\n      swap1\n      pop\n        /* \"#utility.yul\":23852:24085   */\n      swap2\n      swap1\n      pop\n      jump\t// out\n        /* \"#utility.yul\":24091:24282   */\n    tag_113:\n        /* \"#utility.yul\":24131:24134   */\n      0x00\n        /* \"#utility.yul\":24150:24170   */\n      tag_480\n        /* \"#utility.yul\":24168:24169   */\n      dup3\n        /* \"#utility.yul\":24150:24170   */\n      tag_177\n      jump\t// in\n    tag_480:\n        /* \"#utility.yul\":24145:24170   */\n      swap2\n      pop\n        /* \"#utility.yul\":24184:24204   */\n      tag_481\n        /* \"#utility.yul\":24202:24203   */\n      dup4\n        /* \"#utility.yul\":24184:24204   */\n      tag_177\n      jump\t// in\n    tag_481:\n        /* \"#utility.yul\":24179:24204   */\n      swap3\n      pop\n        /* \"#utility.yul\":24227:24228   */\n      dup3\n        /* \"#utility.yul\":24224:24225   */\n      dup3\n        /* \"#utility.yul\":24220:24229   */\n      add\n        /* \"#utility.yul\":24213:24229   */\n      swap1\n      pop\n        /* \"#utility.yul\":24248:24251   */\n      dup1\n        /* \"#utility.yul\":24245:24246   */\n      dup3\n        /* \"#utility.yul\":24242:24252   */\n      gt\n        /* \"#utility.yul\":24239:24275   */\n      iszero\n      tag_482\n      jumpi\n        /* \"#utility.yul\":24255:24273   */\n      tag_483\n      tag_232\n      jump\t// in\n    tag_483:\n        /* \"#utility.yul\":24239:24275   */\n    tag_482:\n        /* \"#utility.yul\":24091:24282   */\n      swap3\n      swap2\n      pop\n      pop\n      jump\t// out\n        /* \"#utility.yul\":24288:24462   */\n    tag_233:\n        /* \"#utility.yul\":24428:24454   */\n      0x4c696b65732068617665206e6f74206164646564207965740000000000000000\n        /* \"#utility.yul\":24424:24425   */\n      0x00\n        /* \"#utility.yul\":24416:24422   */\n      dup3\n        /* \"#utility.yul\":24412:24426   */\n      add\n        /* \"#utility.yul\":24405:24455   */\n      mstore\n        /* \"#utility.yul\":24288:24462   */\n      pop\n      jump\t// out\n        /* \"#utility.yul\":24468:24834   */\n    tag_234:\n        /* \"#utility.yul\":24610:24613   */\n      0x00\n        /* \"#utility.yul\":24631:24698   */\n      tag_486\n        /* \"#utility.yul\":24695:24697   */\n      0x18\n        /* \"#utility.yul\":24690:24693   */\n      dup4\n        /* \"#utility.yul\":24631:24698   */\n      tag_211\n      jump\t// in\n    tag_486:\n        /* \"#utility.yul\":24624:24698   */\n      swap2\n      pop\n        /* \"#utility.yul\":24707:24800   */\n      tag_487\n        /* \"#utility.yul\":24796:24799   */\n      dup3\n        /* \"#utility.yul\":24707:24800   */\n      tag_233\n      jump\t// in\n    tag_487:\n        /* \"#utility.yul\":24825:24827   */\n      0x20\n        /* \"#utility.yul\":24820:24823   */\n      dup3\n        /* \"#utility.yul\":24816:24828   */\n      add\n        /* \"#utility.yul\":24809:24828   */\n      swap1\n      pop\n        /* \"#utility.yul\":24468:24834   */\n      swap2\n      swap1\n      pop\n      jump\t// out\n        /* \"#utility.yul\":24840:25259   */\n    tag_127:\n        /* \"#utility.yul\":25006:25010   */\n      0x00\n        /* \"#utility.yul\":25044:25046   */\n      0x20\n        /* \"#utility.yul\":25033:25042   */\n      dup3\n        /* \"#utility.yul\":25029:25047   */\n      add\n        /* \"#utility.yul\":25021:25047   */\n      swap1\n      pop\n        /* \"#utility.yul\":25093:25102   */\n      dup2\n        /* \"#utility.yul\":25087:25091   */\n      dup2\n        /* \"#utility.yul\":25083:25103   */\n      sub\n        /* \"#utility.yul\":25079:25080   */\n      0x00\n        /* \"#utility.yul\":25068:25077   */\n      dup4\n        /* \"#utility.yul\":25064:25081   */\n      add\n        /* \"#utility.yul\":25057:25104   */\n      mstore\n        /* \"#utility.yul\":25121:25252   */\n      tag_489\n        /* \"#utility.yul\":25247:25251   */\n      dup2\n        /* \"#utility.yul\":25121:25252   */\n      tag_234\n      jump\t// in\n    tag_489:\n        /* \"#utility.yul\":25113:25252   */\n      swap1\n      pop\n        /* \"#utility.yul\":24840:25259   */\n      swap2\n      swap1\n      pop\n      jump\t// out\n        /* \"#utility.yul\":25265:25436   */\n    tag_129:\n        /* \"#utility.yul\":25304:25307   */\n      0x00\n        /* \"#utility.yul\":25327:25351   */\n      tag_491\n        /* \"#utility.yul\":25345:25350   */\n      dup3\n        /* \"#utility.yul\":25327:25351   */\n      tag_177\n      jump\t// in\n    tag_491:\n        /* \"#utility.yul\":25318:25351   */\n      swap2\n      pop\n        /* \"#utility.yul\":25373:25377   */\n      0x00\n        /* \"#utility.yul\":25366:25371   */\n      dup3\n        /* \"#utility.yul\":25363:25378   */\n      sub\n        /* \"#utility.yul\":25360:25401   */\n      tag_492\n      jumpi\n        /* \"#utility.yul\":25381:25399   */\n      tag_493\n      tag_232\n      jump\t// in\n    tag_493:\n        /* \"#utility.yul\":25360:25401   */\n    tag_492:\n        /* \"#utility.yul\":25428:25429   */\n      0x01\n        /* \"#utility.yul\":25421:25426   */\n      dup3\n        /* \"#utility.yul\":25417:25430   */\n      sub\n        /* \"#utility.yul\":25410:25430   */\n      swap1\n      pop\n        /* \"#utility.yul\":25265:25436   */\n      swap2\n      swap1\n      pop\n      jump\t// out\n        /* \"#utility.yul\":25442:25995   */\n    tag_131:\n        /* \"#utility.yul\":25619:25623   */\n      0x00\n        /* \"#utility.yul\":25657:25660   */\n      0x80\n        /* \"#utility.yul\":25646:25655   */\n      dup3\n        /* \"#utility.yul\":25642:25661   */\n      add\n        /* \"#utility.yul\":25634:25661   */\n      swap1\n      pop\n        /* \"#utility.yul\":25671:25742   */\n      tag_495\n        /* \"#utility.yul\":25739:25740   */\n      0x00\n        /* \"#utility.yul\":25728:25737   */\n      dup4\n        /* \"#utility.yul\":25724:25741   */\n      add\n        /* \"#utility.yul\":25715:25721   */\n      dup8\n        /* \"#utility.yul\":25671:25742   */\n      tag_200\n      jump\t// in\n    tag_495:\n        /* \"#utility.yul\":25752:25824   */\n      tag_496\n        /* \"#utility.yul\":25820:25822   */\n      0x20\n        /* \"#utility.yul\":25809:25818   */\n      dup4\n        /* \"#utility.yul\":25805:25823   */\n      add\n        /* \"#utility.yul\":25796:25802   */\n      dup7\n        /* \"#utility.yul\":25752:25824   */\n      tag_201\n      jump\t// in\n    tag_496:\n        /* \"#utility.yul\":25834:25906   */\n      tag_497\n        /* \"#utility.yul\":25902:25904   */\n      0x40\n        /* \"#utility.yul\":25891:25900   */\n      dup4\n        /* \"#utility.yul\":25887:25905   */\n      add\n        /* \"#utility.yul\":25878:25884   */\n      dup6\n        /* \"#utility.yul\":25834:25906   */\n      tag_200\n      jump\t// in\n    tag_497:\n        /* \"#utility.yul\":25916:25988   */\n      tag_498\n        /* \"#utility.yul\":25984:25986   */\n      0x60\n        /* \"#utility.yul\":25973:25982   */\n      dup4\n        /* \"#utility.yul\":25969:25987   */\n      add\n        /* \"#utility.yul\":25960:25966   */\n      dup5\n        /* \"#utility.yul\":25916:25988   */\n      tag_201\n      jump\t// in\n    tag_498:\n        /* \"#utility.yul\":25442:25995   */\n      swap6\n      swap5\n      pop\n      pop\n      pop\n      pop\n      pop\n      jump\t// out\n        /* \"#utility.yul\":26001:26171   */\n    tag_235:\n        /* \"#utility.yul\":26141:26163   */\n      0x547765657420646f6573206e6f74206578697374000000000000000000000000\n        /* \"#utility.yul\":26137:26138   */\n      0x00\n        /* \"#utility.yul\":26129:26135   */\n      dup3\n        /* \"#utility.yul\":26125:26139   */\n      add\n        /* \"#utility.yul\":26118:26164   */\n      mstore\n        /* \"#utility.yul\":26001:26171   */\n      pop\n      jump\t// out\n        /* \"#utility.yul\":26177:26543   */\n    tag_236:\n        /* \"#utility.yul\":26319:26322   */\n      0x00\n        /* \"#utility.yul\":26340:26407   */\n      tag_501\n        /* \"#utility.yul\":26404:26406   */\n      0x14\n        /* \"#utility.yul\":26399:26402   */\n      dup4\n        /* \"#utility.yul\":26340:26407   */\n      tag_211\n      jump\t// in\n    tag_501:\n        /* \"#utility.yul\":26333:26407   */\n      swap2\n      pop\n        /* \"#utility.yul\":26416:26509   */\n      tag_502\n        /* \"#utility.yul\":26505:26508   */\n      dup3\n        /* \"#utility.yul\":26416:26509   */\n      tag_235\n      jump\t// in\n    tag_502:\n        /* \"#utility.yul\":26534:26536   */\n      0x20\n        /* \"#utility.yul\":26529:26532   */\n      dup3\n        /* \"#utility.yul\":26525:26537   */\n      add\n        /* \"#utility.yul\":26518:26537   */\n      swap1\n      pop\n        /* \"#utility.yul\":26177:26543   */\n      swap2\n      swap1\n      pop\n      jump\t// out\n        /* \"#utility.yul\":26549:26968   */\n    tag_149:\n        /* \"#utility.yul\":26715:26719   */\n      0x00\n        /* \"#utility.yul\":26753:26755   */\n      0x20\n        /* \"#utility.yul\":26742:26751   */\n      dup3\n        /* \"#utility.yul\":26738:26756   */\n      add\n        /* \"#utility.yul\":26730:26756   */\n      swap1\n      pop\n        /* \"#utility.yul\":26802:26811   */\n      dup2\n        /* \"#utility.yul\":26796:26800   */\n      dup2\n        /* \"#utility.yul\":26792:26812   */\n      sub\n        /* \"#utility.yul\":26788:26789   */\n      0x00\n        /* \"#utility.yul\":26777:26786   */\n      dup4\n        /* \"#utility.yul\":26773:26790   */\n      add\n        /* \"#utility.yul\":26766:26813   */\n      mstore\n        /* \"#utility.yul\":26830:26961   */\n      tag_504\n        /* \"#utility.yul\":26956:26960   */\n      dup2\n        /* \"#utility.yul\":26830:26961   */\n      tag_236\n      jump\t// in\n    tag_504:\n        /* \"#utility.yul\":26822:26961   */\n      swap1\n      pop\n        /* \"#utility.yul\":26549:26968   */\n      swap2\n      swap1\n      pop\n      jump\t// out\n\n    auxdata: 0xa2646970667358221220d5a4d12d3a3322d35c9a15ddd4dbd98c0c7331019babcbf031087213a1d0740864736f6c63430008180033\n}\n",
				"bytecode": {
					"linkReferences": {},
					"object": "608060405260c8600060146101000a81548161ffff021916908361ffff16021790555060006001553480156200003457600080fd5b50604051620021f7380380620021f783398181016040528101906200005a919062000258565b33600073ffffffffffffffffffffffffffffffffffffffff168173ffffffffffffffffffffffffffffffffffffffff1603620000d05760006040517f1e4fbdf7000000000000000000000000000000000000000000000000000000008152600401620000c791906200029b565b60405180910390fd5b620000e1816200012a60201b60201c565b5080600460006101000a81548173ffffffffffffffffffffffffffffffffffffffff021916908373ffffffffffffffffffffffffffffffffffffffff16021790555050620002b8565b60008060009054906101000a900473ffffffffffffffffffffffffffffffffffffffff169050816000806101000a81548173ffffffffffffffffffffffffffffffffffffffff021916908373ffffffffffffffffffffffffffffffffffffffff1602179055508173ffffffffffffffffffffffffffffffffffffffff168173ffffffffffffffffffffffffffffffffffffffff167f8be0079c531659141344cd1fd0a4f28419497f9722a3daafe3b4186f6b6457e060405160405180910390a35050565b600080fd5b600073ffffffffffffffffffffffffffffffffffffffff82169050919050565b60006200022082620001f3565b9050919050565b620002328162000213565b81146200023e57600080fd5b50565b600081519050620002528162000227565b92915050565b600060208284031215620002715762000270620001ee565b5b6000620002818482850162000241565b91505092915050565b620002958162000213565b82525050565b6000602082019050620002b260008301846200028a565b92915050565b611f2f80620002c86000396000f3fe608060405234801561001057600080fd5b50600436106100a95760003560e01c8063893d20e811610071578063893d20e8146101505780638da5cb5b1461016e578063a1488f7c1461018c578063c3ad5ecb146101a8578063d04ddaa0146101d8578063f2fde38b146101f4576100a9565b806312e7ee1c146100ae57806358bfa4ab146100de578063715018a6146100fa5780637c9cd2bc14610104578063820785cc14610120575b600080fd5b6100c860048036038101906100c39190611199565b610210565b6040516100d591906113b6565b60405180910390f35b6100f860048036038101906100f39190611412565b610450565b005b610102610478565b005b61011e60048036038101906101199190611574565b61048c565b005b61013a60048036038101906101359190611199565b61079d565b60405161014791906115cc565b60405180910390f35b61015861086c565b60405161016591906115f6565b60405180910390f35b61017661087b565b60405161018391906115f6565b60405180910390f35b6101a660048036038101906101a1919061163d565b6108a4565b005b6101c260048036038101906101bd919061167d565b610b1f565b6040516101cf9190611720565b60405180910390f35b6101f260048036038101906101ed919061163d565b610c8f565b005b61020e60048036038101906102099190611199565b610f09565b005b60606000600360008473ffffffffffffffffffffffffffffffffffffffff1673ffffffffffffffffffffffffffffffffffffffff16815260200190815260200160002054905060008167ffffffffffffffff81111561027257610271611449565b5b6040519080825280602002602001820160405280156102ab57816020015b6102986110e2565b8152602001906001900390816102905790505b50905060005b8281101561044557600260008673ffffffffffffffffffffffffffffffffffffffff1673ffffffffffffffffffffffffffffffffffffffff16815260200190815260200160002060008281526020019081526020016000206040518060a0016040529081600082015481526020016001820160009054906101000a900473ffffffffffffffffffffffffffffffffffffffff1673ffffffffffffffffffffffffffffffffffffffff1673ffffffffffffffffffffffffffffffffffffffff16815260200160028201805461038490611771565b80601f01602080910402602001604051908101604052809291908181526020018280546103b090611771565b80156103fd5780601f106103d2576101008083540402835291602001916103fd565b820191906000526020600020905b8154815290600101906020018083116103e057829003601f168201915b505050505081526020016003820154815260200160048201548152505082828151811061042d5761042c6117a2565b5b602002602001018190525080806001019150506102b1565b508092505050919050565b610458610f8f565b80600060146101000a81548161ffff021916908361ffff16021790555050565b610480610f8f565b61048a6000611016565b565b6000600460009054906101000a900473ffffffffffffffffffffffffffffffffffffffff1673ffffffffffffffffffffffffffffffffffffffff16630f53a470336040518263ffffffff1660e01b81526004016104e991906115f6565b600060405180830381865afa158015610506573d6000803e3d6000fd5b505050506040513d6000823e3d601f19601f8201168201806040525081019061052f91906118d3565b600001515111610574576040517f08c379a000000000000000000000000000000000000000000000000000000000815260040161056b90611979565b60405180910390fd5b600060149054906101000a900461ffff1661ffff16815111156105cc576040517f08c379a00000000000000000000000000000000000000000000000000000000081526004016105c3906119e5565b60405180910390fd5b60006040518060a0016040528060015481526020013373ffffffffffffffffffffffffffffffffffffffff1681526020018381526020014281526020016000815250905080600260003373ffffffffffffffffffffffffffffffffffffffff1673ffffffffffffffffffffffffffffffffffffffff168152602001908152602001600020600060015481526020019081526020016000206000820151816000015560208201518160010160006101000a81548173ffffffffffffffffffffffffffffffffffffffff021916908373ffffffffffffffffffffffffffffffffffffffff16021790555060408201518160020190816106c99190611bb1565b5060608201518160030155608082015181600401559050507f16fd3c13e9d46923e0a8bce11c7b473ec508a72e6c96cd2404b29ce972afc29e6001548260200151836040015184606001516040516107249493929190611cbc565b60405180910390a16001600081548092919061073f90611d37565b9190505550600360003373ffffffffffffffffffffffffffffffffffffffff1673ffffffffffffffffffffffffffffffffffffffff168152602001908152602001600020600081548092919061079490611d37565b91905055505050565b600080600090506000600360008573ffffffffffffffffffffffffffffffffffffffff1673ffffffffffffffffffffffffffffffffffffffff16815260200190815260200160002054905060005b8181101561086157600260008673ffffffffffffffffffffffffffffffffffffffff1673ffffffffffffffffffffffffffffffffffffffff168152602001908152602001600020600082815260200190815260200160002060040154836108529190611d7f565b925080806001019150506107eb565b508192505050919050565b600061087661087b565b905090565b60008060009054906101000a900473ffffffffffffffffffffffffffffffffffffffff16905090565b6000600460009054906101000a900473ffffffffffffffffffffffffffffffffffffffff1673ffffffffffffffffffffffffffffffffffffffff16630f53a470336040518263ffffffff1660e01b815260040161090191906115f6565b600060405180830381865afa15801561091e573d6000803e3d6000fd5b505050506040513d6000823e3d601f19601f8201168201806040525081019061094791906118d3565b60000151511161098c576040517f08c379a000000000000000000000000000000000000000000000000000000000815260040161098390611979565b60405180910390fd5b6000600260008373ffffffffffffffffffffffffffffffffffffffff1673ffffffffffffffffffffffffffffffffffffffff16815260200190815260200160002060008481526020019081526020016000206004015411610a22576040517f08c379a0000000000000000000000000000000000000000000000000000000008152600401610a1990611dff565b60405180910390fd5b600260008273ffffffffffffffffffffffffffffffffffffffff1673ffffffffffffffffffffffffffffffffffffffff16815260200190815260200160002060008381526020019081526020016000206004016000815480929190610a8690611e1f565b91905055507f560f33c84a1e75cd12dcc1ef33a1eca2b503d63bff21b19bf61d9a18fe9f3b418282600260008573ffffffffffffffffffffffffffffffffffffffff1673ffffffffffffffffffffffffffffffffffffffff16815260200190815260200160002060008681526020019081526020016000206004015433604051610b139493929190611e48565b60405180910390a15050565b610b276110e2565b600260003373ffffffffffffffffffffffffffffffffffffffff1673ffffffffffffffffffffffffffffffffffffffff16815260200190815260200160002060008381526020019081526020016000206040518060a0016040529081600082015481526020016001820160009054906101000a900473ffffffffffffffffffffffffffffffffffffffff1673ffffffffffffffffffffffffffffffffffffffff1673ffffffffffffffffffffffffffffffffffffffff168152602001600282018054610bf290611771565b80601f0160208091040260200160405190810160405280929190818152602001828054610c1e90611771565b8015610c6b5780601f10610c4057610100808354040283529160200191610c6b565b820191906000526020600020905b815481529060010190602001808311610c4e57829003601f168201915b50505050508152602001600382015481526020016004820154815250509050919050565b6000600460009054906101000a900473ffffffffffffffffffffffffffffffffffffffff1673ffffffffffffffffffffffffffffffffffffffff16630f53a470336040518263ffffffff1660e01b8152600401610cec91906115f6565b600060405180830381865afa158015610d09573d6000803e3d6000fd5b505050506040513d6000823e3d601f19601f82011682018060405250810190610d3291906118d3565b600001515111610d77576040517f08c379a0000000000000000000000000000000000000000000000000000000008152600401610d6e90611979565b60405180910390fd5b81600260008373ffffffffffffffffffffffffffffffffffffffff1673ffffffffffffffffffffffffffffffffffffffff16815260200190815260200160002060008481526020019081526020016000206000015414610e0c576040517f08c379a0000000000000000000000000000000000000000000000000000000008152600401610e0390611ed9565b60405180910390fd5b600260008273ffffffffffffffffffffffffffffffffffffffff1673ffffffffffffffffffffffffffffffffffffffff16815260200190815260200160002060008381526020019081526020016000206004016000815480929190610e7090611d37565b91905055507f3406cce04214d6f2a48b440426569ed56dc2700c5801c7891e32d62e23cb23318282600260008573ffffffffffffffffffffffffffffffffffffffff1673ffffffffffffffffffffffffffffffffffffffff16815260200190815260200160002060008681526020019081526020016000206004015433604051610efd9493929190611e48565b60405180910390a15050565b610f11610f8f565b600073ffffffffffffffffffffffffffffffffffffffff168173ffffffffffffffffffffffffffffffffffffffff1603610f835760006040517f1e4fbdf7000000000000000000000000000000000000000000000000000000008152600401610f7a91906115f6565b60405180910390fd5b610f8c81611016565b50565b610f976110da565b73ffffffffffffffffffffffffffffffffffffffff16610fb561087b565b73ffffffffffffffffffffffffffffffffffffffff161461101457610fd86110da565b6040517f118cdaa700000000000000000000000000000000000000000000000000000000815260040161100b91906115f6565b60405180910390fd5b565b60008060009054906101000a900473ffffffffffffffffffffffffffffffffffffffff169050816000806101000a81548173ffffffffffffffffffffffffffffffffffffffff021916908373ffffffffffffffffffffffffffffffffffffffff1602179055508173ffffffffffffffffffffffffffffffffffffffff168173ffffffffffffffffffffffffffffffffffffffff167f8be0079c531659141344cd1fd0a4f28419497f9722a3daafe3b4186f6b6457e060405160405180910390a35050565b600033905090565b6040518060a0016040528060008152602001600073ffffffffffffffffffffffffffffffffffffffff1681526020016060815260200160008152602001600081525090565b6000604051905090565b600080fd5b600080fd5b600073ffffffffffffffffffffffffffffffffffffffff82169050919050565b60006111668261113b565b9050919050565b6111768161115b565b811461118157600080fd5b50565b6000813590506111938161116d565b92915050565b6000602082840312156111af576111ae611131565b5b60006111bd84828501611184565b91505092915050565b600081519050919050565b600082825260208201905092915050565b6000819050602082019050919050565b6000819050919050565b611205816111f2565b82525050565b6112148161115b565b82525050565b600081519050919050565b600082825260208201905092915050565b60005b83811015611254578082015181840152602081019050611239565b60008484015250505050565b6000601f19601f8301169050919050565b600061127c8261121a565b6112868185611225565b9350611296818560208601611236565b61129f81611260565b840191505092915050565b600060a0830160008301516112c260008601826111fc565b5060208301516112d5602086018261120b565b50604083015184820360408601526112ed8282611271565b915050606083015161130260608601826111fc565b50608083015161131560808601826111fc565b508091505092915050565b600061132c83836112aa565b905092915050565b6000602082019050919050565b600061134c826111c6565b61135681856111d1565b935083602082028501611368856111e2565b8060005b858110156113a457848403895281516113858582611320565b945061139083611334565b925060208a0199505060018101905061136c565b50829750879550505050505092915050565b600060208201905081810360008301526113d08184611341565b905092915050565b600061ffff82169050919050565b6113ef816113d8565b81146113fa57600080fd5b50565b60008135905061140c816113e6565b92915050565b60006020828403121561142857611427611131565b5b6000611436848285016113fd565b91505092915050565b600080fd5b600080fd5b7f4e487b7100000000000000000000000000000000000000000000000000000000600052604160045260246000fd5b61148182611260565b810181811067ffffffffffffffff821117156114a05761149f611449565b5b80604052505050565b60006114b3611127565b90506114bf8282611478565b919050565b600067ffffffffffffffff8211156114df576114de611449565b5b6114e882611260565b9050602081019050919050565b82818337600083830152505050565b6000611517611512846114c4565b6114a9565b90508281526020810184848401111561153357611532611444565b5b61153e8482856114f5565b509392505050565b600082601f83011261155b5761155a61143f565b5b813561156b848260208601611504565b91505092915050565b60006020828403121561158a57611589611131565b5b600082013567ffffffffffffffff8111156115a8576115a7611136565b5b6115b484828501611546565b91505092915050565b6115c6816111f2565b82525050565b60006020820190506115e160008301846115bd565b92915050565b6115f08161115b565b82525050565b600060208201905061160b60008301846115e7565b92915050565b61161a816111f2565b811461162557600080fd5b50565b60008135905061163781611611565b92915050565b6000806040838503121561165457611653611131565b5b600061166285828601611628565b925050602061167385828601611184565b9150509250929050565b60006020828403121561169357611692611131565b5b60006116a184828501611628565b91505092915050565b600060a0830160008301516116c260008601826111fc565b5060208301516116d5602086018261120b565b50604083015184820360408601526116ed8282611271565b915050606083015161170260608601826111fc565b50608083015161171560808601826111fc565b508091505092915050565b6000602082019050818103600083015261173a81846116aa565b905092915050565b7f4e487b7100000000000000000000000000000000000000000000000000000000600052602260045260246000fd5b6000600282049050600182168061178957607f821691505b60208210810361179c5761179b611742565b5b50919050565b7f4e487b7100000000000000000000000000000000000000000000000000000000600052603260045260246000fd5b600080fd5b600080fd5b60006117ee6117e9846114c4565b6114a9565b90508281526020810184848401111561180a57611809611444565b5b611815848285611236565b509392505050565b600082601f8301126118325761183161143f565b5b81516118428482602086016117db565b91505092915050565b600060408284031215611861576118606117d1565b5b61186b60406114a9565b9050600082015167ffffffffffffffff81111561188b5761188a6117d6565b5b6118978482850161181d565b600083015250602082015167ffffffffffffffff8111156118bb576118ba6117d6565b5b6118c78482850161181d565b60208301525092915050565b6000602082840312156118e9576118e8611131565b5b600082015167ffffffffffffffff81111561190757611906611136565b5b6119138482850161184b565b91505092915050565b600082825260208201905092915050565b7f5573657220646f6573206e6f74206861766520612070726f66696c6500000000600082015250565b6000611963601c8361191c565b915061196e8261192d565b602082019050919050565b6000602082019050818103600083015261199281611956565b9050919050565b7f547765657420636f6e74656e74206973206c656e677468790000000000000000600082015250565b60006119cf60188361191c565b91506119da82611999565b602082019050919050565b600060208201905081810360008301526119fe816119c2565b9050919050565b60008190508160005260206000209050919050565b60006020601f8301049050919050565b600082821b905092915050565b600060088302611a677fffffffffffffffffffffffffffffffffffffffffffffffffffffffffffffffff82611a2a565b611a718683611a2a565b95508019841693508086168417925050509392505050565b6000819050919050565b6000611aae611aa9611aa4846111f2565b611a89565b6111f2565b9050919050565b6000819050919050565b611ac883611a93565b611adc611ad482611ab5565b848454611a37565b825550505050565b600090565b611af1611ae4565b611afc818484611abf565b505050565b5b81811015611b2057611b15600082611ae9565b600181019050611b02565b5050565b601f821115611b6557611b3681611a05565b611b3f84611a1a565b81016020851015611b4e578190505b611b62611b5a85611a1a565b830182611b01565b50505b505050565b600082821c905092915050565b6000611b8860001984600802611b6a565b1980831691505092915050565b6000611ba18383611b77565b9150826002028217905092915050565b611bba8261121a565b67ffffffffffffffff811115611bd357611bd2611449565b5b611bdd8254611771565b611be8828285611b24565b600060209050601f831160018114611c1b5760008415611c09578287015190505b611c138582611b95565b865550611c7b565b601f198416611c2986611a05565b60005b82811015611c5157848901518255600182019150602085019450602081019050611c2c565b86831015611c6e5784890151611c6a601f891682611b77565b8355505b6001600288020188555050505b505050505050565b6000611c8e8261121a565b611c98818561191c565b9350611ca8818560208601611236565b611cb181611260565b840191505092915050565b6000608082019050611cd160008301876115bd565b611cde60208301866115e7565b8181036040830152611cf08185611c83565b9050611cff60608301846115bd565b95945050505050565b7f4e487b7100000000000000000000000000000000000000000000000000000000600052601160045260246000fd5b6000611d42826111f2565b91507fffffffffffffffffffffffffffffffffffffffffffffffffffffffffffffffff8203611d7457611d73611d08565b5b600182019050919050565b6000611d8a826111f2565b9150611d95836111f2565b9250828201905080821115611dad57611dac611d08565b5b92915050565b7f4c696b65732068617665206e6f74206164646564207965740000000000000000600082015250565b6000611de960188361191c565b9150611df482611db3565b602082019050919050565b60006020820190508181036000830152611e1881611ddc565b9050919050565b6000611e2a826111f2565b915060008203611e3d57611e3c611d08565b5b600182039050919050565b6000608082019050611e5d60008301876115bd565b611e6a60208301866115e7565b611e7760408301856115bd565b611e8460608301846115e7565b95945050505050565b7f547765657420646f6573206e6f74206578697374000000000000000000000000600082015250565b6000611ec360148361191c565b9150611ece82611e8d565b602082019050919050565b60006020820190508181036000830152611ef281611eb6565b905091905056fea2646970667358221220d5a4d12d3a3322d35c9a15ddd4dbd98c0c7331019babcbf031087213a1d0740864736f6c63430008180033",
					"opcodes": "PUSH1 0x80 PUSH1 0x40 MSTORE PUSH1 0xC8 PUSH1 0x0 PUSH1 0x14 PUSH2 0x100 EXP DUP2 SLOAD DUP2 PUSH2 0xFFFF MUL NOT AND SWAP1 DUP4 PUSH2 0xFFFF AND MUL OR SWAP1 SSTORE POP PUSH1 0x0 PUSH1 0x1 SSTORE CALLVALUE DUP1 ISZERO PUSH3 0x34 JUMPI PUSH1 0x0 DUP1 REVERT JUMPDEST POP PUSH1 0x40 MLOAD PUSH3 0x21F7 CODESIZE SUB DUP1 PUSH3 0x21F7 DUP4 CODECOPY DUP2 DUP2 ADD PUSH1 0x40 MSTORE DUP2 ADD SWAP1 PUSH3 0x5A SWAP2 SWAP1 PUSH3 0x258 JUMP JUMPDEST CALLER PUSH1 0x0 PUSH20 0xFFFFFFFFFFFFFFFFFFFFFFFFFFFFFFFFFFFFFFFF AND DUP2 PUSH20 0xFFFFFFFFFFFFFFFFFFFFFFFFFFFFFFFFFFFFFFFF AND SUB PUSH3 0xD0 JUMPI PUSH1 0x0 PUSH1 0x40 MLOAD PUSH32 0x1E4FBDF700000000000000000000000000000000000000000000000000000000 DUP2 MSTORE PUSH1 0x4 ADD PUSH3 0xC7 SWAP2 SWAP1 PUSH3 0x29B JUMP JUMPDEST PUSH1 0x40 MLOAD DUP1 SWAP2 SUB SWAP1 REVERT JUMPDEST PUSH3 0xE1 DUP2 PUSH3 0x12A PUSH1 0x20 SHL PUSH1 0x20 SHR JUMP JUMPDEST POP DUP1 PUSH1 0x4 PUSH1 0x0 PUSH2 0x100 EXP DUP2 SLOAD DUP2 PUSH20 0xFFFFFFFFFFFFFFFFFFFFFFFFFFFFFFFFFFFFFFFF MUL NOT AND SWAP1 DUP4 PUSH20 0xFFFFFFFFFFFFFFFFFFFFFFFFFFFFFFFFFFFFFFFF AND MUL OR SWAP1 SSTORE POP POP PUSH3 0x2B8 JUMP JUMPDEST PUSH1 0x0 DUP1 PUSH1 0x0 SWAP1 SLOAD SWAP1 PUSH2 0x100 EXP SWAP1 DIV PUSH20 0xFFFFFFFFFFFFFFFFFFFFFFFFFFFFFFFFFFFFFFFF AND SWAP1 POP DUP2 PUSH1 0x0 DUP1 PUSH2 0x100 EXP DUP2 SLOAD DUP2 PUSH20 0xFFFFFFFFFFFFFFFFFFFFFFFFFFFFFFFFFFFFFFFF MUL NOT AND SWAP1 DUP4 PUSH20 0xFFFFFFFFFFFFFFFFFFFFFFFFFFFFFFFFFFFFFFFF AND MUL OR SWAP1 SSTORE POP DUP2 PUSH20 0xFFFFFFFFFFFFFFFFFFFFFFFFFFFFFFFFFFFFFFFF AND DUP2 PUSH20 0xFFFFFFFFFFFFFFFFFFFFFFFFFFFFFFFFFFFFFFFF AND PUSH32 0x8BE0079C531659141344CD1FD0A4F28419497F9722A3DAAFE3B4186F6B6457E0 PUSH1 0x40 MLOAD PUSH1 0x40 MLOAD DUP1 SWAP2 SUB SWAP1 LOG3 POP POP JUMP JUMPDEST PUSH1 0x0 DUP1 REVERT JUMPDEST PUSH1 0x0 PUSH20 0xFFFFFFFFFFFFFFFFFFFFFFFFFFFFFFFFFFFFFFFF DUP3 AND SWAP1 POP SWAP2 SWAP1 POP JUMP JUMPDEST PUSH1 0x0 PUSH3 0x220 DUP3 PUSH3 0x1F3 JUMP JUMPDEST SWAP1 POP SWAP2 SWAP1 POP JUMP JUMPDEST PUSH3 0x232 DUP2 PUSH3 0x213 JUMP JUMPDEST DUP2 EQ PUSH3 0x23E JUMPI PUSH1 0x0 DUP1 REVERT JUMPDEST POP JUMP JUMPDEST PUSH1 0x0 DUP2 MLOAD SWAP1 POP PUSH3 0x252 DUP2 PUSH3 0x227 JUMP JUMPDEST SWAP3 SWAP2 POP POP JUMP JUMPDEST PUSH1 0x0 PUSH1 0x20 DUP3 DUP5 SUB SLT ISZERO PUSH3 0x271 JUMPI PUSH3 0x270 PUSH3 0x1EE JUMP JUMPDEST JUMPDEST PUSH1 0x0 PUSH3 0x281 DUP5 DUP3 DUP6 ADD PUSH3 0x241 JUMP JUMPDEST SWAP2 POP POP SWAP3 SWAP2 POP POP JUMP JUMPDEST PUSH3 0x295 DUP2 PUSH3 0x213 JUMP JUMPDEST DUP3 MSTORE POP POP JUMP JUMPDEST PUSH1 0x0 PUSH1 0x20 DUP3 ADD SWAP1 POP PUSH3 0x2B2 PUSH1 0x0 DUP4 ADD DUP5 PUSH3 0x28A JUMP JUMPDEST SWAP3 SWAP2 POP POP JUMP JUMPDEST PUSH2 0x1F2F DUP1 PUSH3 0x2C8 PUSH1 0x0 CODECOPY PUSH1 0x0 RETURN INVALID PUSH1 0x80 PUSH1 0x40 MSTORE CALLVALUE DUP1 ISZERO PUSH2 0x10 JUMPI PUSH1 0x0 DUP1 REVERT JUMPDEST POP PUSH1 0x4 CALLDATASIZE LT PUSH2 0xA9 JUMPI PUSH1 0x0 CALLDATALOAD PUSH1 0xE0 SHR DUP1 PUSH4 0x893D20E8 GT PUSH2 0x71 JUMPI DUP1 PUSH4 0x893D20E8 EQ PUSH2 0x150 JUMPI DUP1 PUSH4 0x8DA5CB5B EQ PUSH2 0x16E JUMPI DUP1 PUSH4 0xA1488F7C EQ PUSH2 0x18C JUMPI DUP1 PUSH4 0xC3AD5ECB EQ PUSH2 0x1A8 JUMPI DUP1 PUSH4 0xD04DDAA0 EQ PUSH2 0x1D8 JUMPI DUP1 PUSH4 0xF2FDE38B EQ PUSH2 0x1F4 JUMPI PUSH2 0xA9 JUMP JUMPDEST DUP1 PUSH4 0x12E7EE1C EQ PUSH2 0xAE JUMPI DUP1 PUSH4 0x58BFA4AB EQ PUSH2 0xDE JUMPI DUP1 PUSH4 0x715018A6 EQ PUSH2 0xFA JUMPI DUP1 PUSH4 0x7C9CD2BC EQ PUSH2 0x104 JUMPI DUP1 PUSH4 0x820785CC EQ PUSH2 0x120 JUMPI JUMPDEST PUSH1 0x0 DUP1 REVERT JUMPDEST PUSH2 0xC8 PUSH1 0x4 DUP1 CALLDATASIZE SUB DUP2 ADD SWAP1 PUSH2 0xC3 SWAP2 SWAP1 PUSH2 0x1199 JUMP JUMPDEST PUSH2 0x210 JUMP JUMPDEST PUSH1 0x40 MLOAD PUSH2 0xD5 SWAP2 SWAP1 PUSH2 0x13B6 JUMP JUMPDEST PUSH1 0x40 MLOAD DUP1 SWAP2 SUB SWAP1 RETURN JUMPDEST PUSH2 0xF8 PUSH1 0x4 DUP1 CALLDATASIZE SUB DUP2 ADD SWAP1 PUSH2 0xF3 SWAP2 SWAP1 PUSH2 0x1412 JUMP JUMPDEST PUSH2 0x450 JUMP JUMPDEST STOP JUMPDEST PUSH2 0x102 PUSH2 0x478 JUMP JUMPDEST STOP JUMPDEST PUSH2 0x11E PUSH1 0x4 DUP1 CALLDATASIZE SUB DUP2 ADD SWAP1 PUSH2 0x119 SWAP2 SWAP1 PUSH2 0x1574 JUMP JUMPDEST PUSH2 0x48C JUMP JUMPDEST STOP JUMPDEST PUSH2 0x13A PUSH1 0x4 DUP1 CALLDATASIZE SUB DUP2 ADD SWAP1 PUSH2 0x135 SWAP2 SWAP1 PUSH2 0x1199 JUMP JUMPDEST PUSH2 0x79D JUMP JUMPDEST PUSH1 0x40 MLOAD PUSH2 0x147 SWAP2 SWAP1 PUSH2 0x15CC JUMP JUMPDEST PUSH1 0x40 MLOAD DUP1 SWAP2 SUB SWAP1 RETURN JUMPDEST PUSH2 0x158 PUSH2 0x86C JUMP JUMPDEST PUSH1 0x40 MLOAD PUSH2 0x165 SWAP2 SWAP1 PUSH2 0x15F6 JUMP JUMPDEST PUSH1 0x40 MLOAD DUP1 SWAP2 SUB SWAP1 RETURN JUMPDEST PUSH2 0x176 PUSH2 0x87B JUMP JUMPDEST PUSH1 0x40 MLOAD PUSH2 0x183 SWAP2 SWAP1 PUSH2 0x15F6 JUMP JUMPDEST PUSH1 0x40 MLOAD DUP1 SWAP2 SUB SWAP1 RETURN JUMPDEST PUSH2 0x1A6 PUSH1 0x4 DUP1 CALLDATASIZE SUB DUP2 ADD SWAP1 PUSH2 0x1A1 SWAP2 SWAP1 PUSH2 0x163D JUMP JUMPDEST PUSH2 0x8A4 JUMP JUMPDEST STOP JUMPDEST PUSH2 0x1C2 PUSH1 0x4 DUP1 CALLDATASIZE SUB DUP2 ADD SWAP1 PUSH2 0x1BD SWAP2 SWAP1 PUSH2 0x167D JUMP JUMPDEST PUSH2 0xB1F JUMP JUMPDEST PUSH1 0x40 MLOAD PUSH2 0x1CF SWAP2 SWAP1 PUSH2 0x1720 JUMP JUMPDEST PUSH1 0x40 MLOAD DUP1 SWAP2 SUB SWAP1 RETURN JUMPDEST PUSH2 0x1F2 PUSH1 0x4 DUP1 CALLDATASIZE SUB DUP2 ADD SWAP1 PUSH2 0x1ED SWAP2 SWAP1 PUSH2 0x163D JUMP JUMPDEST PUSH2 0xC8F JUMP JUMPDEST STOP JUMPDEST PUSH2 0x20E PUSH1 0x4 DUP1 CALLDATASIZE SUB DUP2 ADD SWAP1 PUSH2 0x209 SWAP2 SWAP1 PUSH2 0x1199 JUMP JUMPDEST PUSH2 0xF09 JUMP JUMPDEST STOP JUMPDEST PUSH1 0x60 PUSH1 0x0 PUSH1 0x3 PUSH1 0x0 DUP5 PUSH20 0xFFFFFFFFFFFFFFFFFFFFFFFFFFFFFFFFFFFFFFFF AND PUSH20 0xFFFFFFFFFFFFFFFFFFFFFFFFFFFFFFFFFFFFFFFF AND DUP2 MSTORE PUSH1 0x20 ADD SWAP1 DUP2 MSTORE PUSH1 0x20 ADD PUSH1 0x0 KECCAK256 SLOAD SWAP1 POP PUSH1 0x0 DUP2 PUSH8 0xFFFFFFFFFFFFFFFF DUP2 GT ISZERO PUSH2 0x272 JUMPI PUSH2 0x271 PUSH2 0x1449 JUMP JUMPDEST JUMPDEST PUSH1 0x40 MLOAD SWAP1 DUP1 DUP3 MSTORE DUP1 PUSH1 0x20 MUL PUSH1 0x20 ADD DUP3 ADD PUSH1 0x40 MSTORE DUP1 ISZERO PUSH2 0x2AB JUMPI DUP2 PUSH1 0x20 ADD JUMPDEST PUSH2 0x298 PUSH2 0x10E2 JUMP JUMPDEST DUP2 MSTORE PUSH1 0x20 ADD SWAP1 PUSH1 0x1 SWAP1 SUB SWAP1 DUP2 PUSH2 0x290 JUMPI SWAP1 POP JUMPDEST POP SWAP1 POP PUSH1 0x0 JUMPDEST DUP3 DUP2 LT ISZERO PUSH2 0x445 JUMPI PUSH1 0x2 PUSH1 0x0 DUP7 PUSH20 0xFFFFFFFFFFFFFFFFFFFFFFFFFFFFFFFFFFFFFFFF AND PUSH20 0xFFFFFFFFFFFFFFFFFFFFFFFFFFFFFFFFFFFFFFFF AND DUP2 MSTORE PUSH1 0x20 ADD SWAP1 DUP2 MSTORE PUSH1 0x20 ADD PUSH1 0x0 KECCAK256 PUSH1 0x0 DUP3 DUP2 MSTORE PUSH1 0x20 ADD SWAP1 DUP2 MSTORE PUSH1 0x20 ADD PUSH1 0x0 KECCAK256 PUSH1 0x40 MLOAD DUP1 PUSH1 0xA0 ADD PUSH1 0x40 MSTORE SWAP1 DUP2 PUSH1 0x0 DUP3 ADD SLOAD DUP2 MSTORE PUSH1 0x20 ADD PUSH1 0x1 DUP3 ADD PUSH1 0x0 SWAP1 SLOAD SWAP1 PUSH2 0x100 EXP SWAP1 DIV PUSH20 0xFFFFFFFFFFFFFFFFFFFFFFFFFFFFFFFFFFFFFFFF AND PUSH20 0xFFFFFFFFFFFFFFFFFFFFFFFFFFFFFFFFFFFFFFFF AND PUSH20 0xFFFFFFFFFFFFFFFFFFFFFFFFFFFFFFFFFFFFFFFF AND DUP2 MSTORE PUSH1 0x20 ADD PUSH1 0x2 DUP3 ADD DUP1 SLOAD PUSH2 0x384 SWAP1 PUSH2 0x1771 JUMP JUMPDEST DUP1 PUSH1 0x1F ADD PUSH1 0x20 DUP1 SWAP2 DIV MUL PUSH1 0x20 ADD PUSH1 0x40 MLOAD SWAP1 DUP2 ADD PUSH1 0x40 MSTORE DUP1 SWAP3 SWAP2 SWAP1 DUP2 DUP2 MSTORE PUSH1 0x20 ADD DUP3 DUP1 SLOAD PUSH2 0x3B0 SWAP1 PUSH2 0x1771 JUMP JUMPDEST DUP1 ISZERO PUSH2 0x3FD JUMPI DUP1 PUSH1 0x1F LT PUSH2 0x3D2 JUMPI PUSH2 0x100 DUP1 DUP4 SLOAD DIV MUL DUP4 MSTORE SWAP2 PUSH1 0x20 ADD SWAP2 PUSH2 0x3FD JUMP JUMPDEST DUP3 ADD SWAP2 SWAP1 PUSH1 0x0 MSTORE PUSH1 0x20 PUSH1 0x0 KECCAK256 SWAP1 JUMPDEST DUP2 SLOAD DUP2 MSTORE SWAP1 PUSH1 0x1 ADD SWAP1 PUSH1 0x20 ADD DUP1 DUP4 GT PUSH2 0x3E0 JUMPI DUP3 SWAP1 SUB PUSH1 0x1F AND DUP3 ADD SWAP2 JUMPDEST POP POP POP POP POP DUP2 MSTORE PUSH1 0x20 ADD PUSH1 0x3 DUP3 ADD SLOAD DUP2 MSTORE PUSH1 0x20 ADD PUSH1 0x4 DUP3 ADD SLOAD DUP2 MSTORE POP POP DUP3 DUP3 DUP2 MLOAD DUP2 LT PUSH2 0x42D JUMPI PUSH2 0x42C PUSH2 0x17A2 JUMP JUMPDEST JUMPDEST PUSH1 0x20 MUL PUSH1 0x20 ADD ADD DUP2 SWAP1 MSTORE POP DUP1 DUP1 PUSH1 0x1 ADD SWAP2 POP POP PUSH2 0x2B1 JUMP JUMPDEST POP DUP1 SWAP3 POP POP POP SWAP2 SWAP1 POP JUMP JUMPDEST PUSH2 0x458 PUSH2 0xF8F JUMP JUMPDEST DUP1 PUSH1 0x0 PUSH1 0x14 PUSH2 0x100 EXP DUP2 SLOAD DUP2 PUSH2 0xFFFF MUL NOT AND SWAP1 DUP4 PUSH2 0xFFFF AND MUL OR SWAP1 SSTORE POP POP JUMP JUMPDEST PUSH2 0x480 PUSH2 0xF8F JUMP JUMPDEST PUSH2 0x48A PUSH1 0x0 PUSH2 0x1016 JUMP JUMPDEST JUMP JUMPDEST PUSH1 0x0 PUSH1 0x4 PUSH1 0x0 SWAP1 SLOAD SWAP1 PUSH2 0x100 EXP SWAP1 DIV PUSH20 0xFFFFFFFFFFFFFFFFFFFFFFFFFFFFFFFFFFFFFFFF AND PUSH20 0xFFFFFFFFFFFFFFFFFFFFFFFFFFFFFFFFFFFFFFFF AND PUSH4 0xF53A470 CALLER PUSH1 0x40 MLOAD DUP3 PUSH4 0xFFFFFFFF AND PUSH1 0xE0 SHL DUP2 MSTORE PUSH1 0x4 ADD PUSH2 0x4E9 SWAP2 SWAP1 PUSH2 0x15F6 JUMP JUMPDEST PUSH1 0x0 PUSH1 0x40 MLOAD DUP1 DUP4 SUB DUP2 DUP7 GAS STATICCALL ISZERO DUP1 ISZERO PUSH2 0x506 JUMPI RETURNDATASIZE PUSH1 0x0 DUP1 RETURNDATACOPY RETURNDATASIZE PUSH1 0x0 REVERT JUMPDEST POP POP POP POP PUSH1 0x40 MLOAD RETURNDATASIZE PUSH1 0x0 DUP3 RETURNDATACOPY RETURNDATASIZE PUSH1 0x1F NOT PUSH1 0x1F DUP3 ADD AND DUP3 ADD DUP1 PUSH1 0x40 MSTORE POP DUP2 ADD SWAP1 PUSH2 0x52F SWAP2 SWAP1 PUSH2 0x18D3 JUMP JUMPDEST PUSH1 0x0 ADD MLOAD MLOAD GT PUSH2 0x574 JUMPI PUSH1 0x40 MLOAD PUSH32 0x8C379A000000000000000000000000000000000000000000000000000000000 DUP2 MSTORE PUSH1 0x4 ADD PUSH2 0x56B SWAP1 PUSH2 0x1979 JUMP JUMPDEST PUSH1 0x40 MLOAD DUP1 SWAP2 SUB SWAP1 REVERT JUMPDEST PUSH1 0x0 PUSH1 0x14 SWAP1 SLOAD SWAP1 PUSH2 0x100 EXP SWAP1 DIV PUSH2 0xFFFF AND PUSH2 0xFFFF AND DUP2 MLOAD GT ISZERO PUSH2 0x5CC JUMPI PUSH1 0x40 MLOAD PUSH32 0x8C379A000000000000000000000000000000000000000000000000000000000 DUP2 MSTORE PUSH1 0x4 ADD PUSH2 0x5C3 SWAP1 PUSH2 0x19E5 JUMP JUMPDEST PUSH1 0x40 MLOAD DUP1 SWAP2 SUB SWAP1 REVERT JUMPDEST PUSH1 0x0 PUSH1 0x40 MLOAD DUP1 PUSH1 0xA0 ADD PUSH1 0x40 MSTORE DUP1 PUSH1 0x1 SLOAD DUP2 MSTORE PUSH1 0x20 ADD CALLER PUSH20 0xFFFFFFFFFFFFFFFFFFFFFFFFFFFFFFFFFFFFFFFF AND DUP2 MSTORE PUSH1 0x20 ADD DUP4 DUP2 MSTORE PUSH1 0x20 ADD TIMESTAMP DUP2 MSTORE PUSH1 0x20 ADD PUSH1 0x0 DUP2 MSTORE POP SWAP1 POP DUP1 PUSH1 0x2 PUSH1 0x0 CALLER PUSH20 0xFFFFFFFFFFFFFFFFFFFFFFFFFFFFFFFFFFFFFFFF AND PUSH20 0xFFFFFFFFFFFFFFFFFFFFFFFFFFFFFFFFFFFFFFFF AND DUP2 MSTORE PUSH1 0x20 ADD SWAP1 DUP2 MSTORE PUSH1 0x20 ADD PUSH1 0x0 KECCAK256 PUSH1 0x0 PUSH1 0x1 SLOAD DUP2 MSTORE PUSH1 0x20 ADD SWAP1 DUP2 MSTORE PUSH1 0x20 ADD PUSH1 0x0 KECCAK256 PUSH1 0x0 DUP3 ADD MLOAD DUP2 PUSH1 0x0 ADD SSTORE PUSH1 0x20 DUP3 ADD MLOAD DUP2 PUSH1 0x1 ADD PUSH1 0x0 PUSH2 0x100 EXP DUP2 SLOAD DUP2 PUSH20 0xFFFFFFFFFFFFFFFFFFFFFFFFFFFFFFFFFFFFFFFF MUL NOT AND SWAP1 DUP4 PUSH20 0xFFFFFFFFFFFFFFFFFFFFFFFFFFFFFFFFFFFFFFFF AND MUL OR SWAP1 SSTORE POP PUSH1 0x40 DUP3 ADD MLOAD DUP2 PUSH1 0x2 ADD SWAP1 DUP2 PUSH2 0x6C9 SWAP2 SWAP1 PUSH2 0x1BB1 JUMP JUMPDEST POP PUSH1 0x60 DUP3 ADD MLOAD DUP2 PUSH1 0x3 ADD SSTORE PUSH1 0x80 DUP3 ADD MLOAD DUP2 PUSH1 0x4 ADD SSTORE SWAP1 POP POP PUSH32 0x16FD3C13E9D46923E0A8BCE11C7B473EC508A72E6C96CD2404B29CE972AFC29E PUSH1 0x1 SLOAD DUP3 PUSH1 0x20 ADD MLOAD DUP4 PUSH1 0x40 ADD MLOAD DUP5 PUSH1 0x60 ADD MLOAD PUSH1 0x40 MLOAD PUSH2 0x724 SWAP5 SWAP4 SWAP3 SWAP2 SWAP1 PUSH2 0x1CBC JUMP JUMPDEST PUSH1 0x40 MLOAD DUP1 SWAP2 SUB SWAP1 LOG1 PUSH1 0x1 PUSH1 0x0 DUP2 SLOAD DUP1 SWAP3 SWAP2 SWAP1 PUSH2 0x73F SWAP1 PUSH2 0x1D37 JUMP JUMPDEST SWAP2 SWAP1 POP SSTORE POP PUSH1 0x3 PUSH1 0x0 CALLER PUSH20 0xFFFFFFFFFFFFFFFFFFFFFFFFFFFFFFFFFFFFFFFF AND PUSH20 0xFFFFFFFFFFFFFFFFFFFFFFFFFFFFFFFFFFFFFFFF AND DUP2 MSTORE PUSH1 0x20 ADD SWAP1 DUP2 MSTORE PUSH1 0x20 ADD PUSH1 0x0 KECCAK256 PUSH1 0x0 DUP2 SLOAD DUP1 SWAP3 SWAP2 SWAP1 PUSH2 0x794 SWAP1 PUSH2 0x1D37 JUMP JUMPDEST SWAP2 SWAP1 POP SSTORE POP POP POP JUMP JUMPDEST PUSH1 0x0 DUP1 PUSH1 0x0 SWAP1 POP PUSH1 0x0 PUSH1 0x3 PUSH1 0x0 DUP6 PUSH20 0xFFFFFFFFFFFFFFFFFFFFFFFFFFFFFFFFFFFFFFFF AND PUSH20 0xFFFFFFFFFFFFFFFFFFFFFFFFFFFFFFFFFFFFFFFF AND DUP2 MSTORE PUSH1 0x20 ADD SWAP1 DUP2 MSTORE PUSH1 0x20 ADD PUSH1 0x0 KECCAK256 SLOAD SWAP1 POP PUSH1 0x0 JUMPDEST DUP2 DUP2 LT ISZERO PUSH2 0x861 JUMPI PUSH1 0x2 PUSH1 0x0 DUP7 PUSH20 0xFFFFFFFFFFFFFFFFFFFFFFFFFFFFFFFFFFFFFFFF AND PUSH20 0xFFFFFFFFFFFFFFFFFFFFFFFFFFFFFFFFFFFFFFFF AND DUP2 MSTORE PUSH1 0x20 ADD SWAP1 DUP2 MSTORE PUSH1 0x20 ADD PUSH1 0x0 KECCAK256 PUSH1 0x0 DUP3 DUP2 MSTORE PUSH1 0x20 ADD SWAP1 DUP2 MSTORE PUSH1 0x20 ADD PUSH1 0x0 KECCAK256 PUSH1 0x4 ADD SLOAD DUP4 PUSH2 0x852 SWAP2 SWAP1 PUSH2 0x1D7F JUMP JUMPDEST SWAP3 POP DUP1 DUP1 PUSH1 0x1 ADD SWAP2 POP POP PUSH2 0x7EB JUMP JUMPDEST POP DUP2 SWAP3 POP POP POP SWAP2 SWAP1 POP JUMP JUMPDEST PUSH1 0x0 PUSH2 0x876 PUSH2 0x87B JUMP JUMPDEST SWAP1 POP SWAP1 JUMP JUMPDEST PUSH1 0x0 DUP1 PUSH1 0x0 SWAP1 SLOAD SWAP1 PUSH2 0x100 EXP SWAP1 DIV PUSH20 0xFFFFFFFFFFFFFFFFFFFFFFFFFFFFFFFFFFFFFFFF AND SWAP1 POP SWAP1 JUMP JUMPDEST PUSH1 0x0 PUSH1 0x4 PUSH1 0x0 SWAP1 SLOAD SWAP1 PUSH2 0x100 EXP SWAP1 DIV PUSH20 0xFFFFFFFFFFFFFFFFFFFFFFFFFFFFFFFFFFFFFFFF AND PUSH20 0xFFFFFFFFFFFFFFFFFFFFFFFFFFFFFFFFFFFFFFFF AND PUSH4 0xF53A470 CALLER PUSH1 0x40 MLOAD DUP3 PUSH4 0xFFFFFFFF AND PUSH1 0xE0 SHL DUP2 MSTORE PUSH1 0x4 ADD PUSH2 0x901 SWAP2 SWAP1 PUSH2 0x15F6 JUMP JUMPDEST PUSH1 0x0 PUSH1 0x40 MLOAD DUP1 DUP4 SUB DUP2 DUP7 GAS STATICCALL ISZERO DUP1 ISZERO PUSH2 0x91E JUMPI RETURNDATASIZE PUSH1 0x0 DUP1 RETURNDATACOPY RETURNDATASIZE PUSH1 0x0 REVERT JUMPDEST POP POP POP POP PUSH1 0x40 MLOAD RETURNDATASIZE PUSH1 0x0 DUP3 RETURNDATACOPY RETURNDATASIZE PUSH1 0x1F NOT PUSH1 0x1F DUP3 ADD AND DUP3 ADD DUP1 PUSH1 0x40 MSTORE POP DUP2 ADD SWAP1 PUSH2 0x947 SWAP2 SWAP1 PUSH2 0x18D3 JUMP JUMPDEST PUSH1 0x0 ADD MLOAD MLOAD GT PUSH2 0x98C JUMPI PUSH1 0x40 MLOAD PUSH32 0x8C379A000000000000000000000000000000000000000000000000000000000 DUP2 MSTORE PUSH1 0x4 ADD PUSH2 0x983 SWAP1 PUSH2 0x1979 JUMP JUMPDEST PUSH1 0x40 MLOAD DUP1 SWAP2 SUB SWAP1 REVERT JUMPDEST PUSH1 0x0 PUSH1 0x2 PUSH1 0x0 DUP4 PUSH20 0xFFFFFFFFFFFFFFFFFFFFFFFFFFFFFFFFFFFFFFFF AND PUSH20 0xFFFFFFFFFFFFFFFFFFFFFFFFFFFFFFFFFFFFFFFF AND DUP2 MSTORE PUSH1 0x20 ADD SWAP1 DUP2 MSTORE PUSH1 0x20 ADD PUSH1 0x0 KECCAK256 PUSH1 0x0 DUP5 DUP2 MSTORE PUSH1 0x20 ADD SWAP1 DUP2 MSTORE PUSH1 0x20 ADD PUSH1 0x0 KECCAK256 PUSH1 0x4 ADD SLOAD GT PUSH2 0xA22 JUMPI PUSH1 0x40 MLOAD PUSH32 0x8C379A000000000000000000000000000000000000000000000000000000000 DUP2 MSTORE PUSH1 0x4 ADD PUSH2 0xA19 SWAP1 PUSH2 0x1DFF JUMP JUMPDEST PUSH1 0x40 MLOAD DUP1 SWAP2 SUB SWAP1 REVERT JUMPDEST PUSH1 0x2 PUSH1 0x0 DUP3 PUSH20 0xFFFFFFFFFFFFFFFFFFFFFFFFFFFFFFFFFFFFFFFF AND PUSH20 0xFFFFFFFFFFFFFFFFFFFFFFFFFFFFFFFFFFFFFFFF AND DUP2 MSTORE PUSH1 0x20 ADD SWAP1 DUP2 MSTORE PUSH1 0x20 ADD PUSH1 0x0 KECCAK256 PUSH1 0x0 DUP4 DUP2 MSTORE PUSH1 0x20 ADD SWAP1 DUP2 MSTORE PUSH1 0x20 ADD PUSH1 0x0 KECCAK256 PUSH1 0x4 ADD PUSH1 0x0 DUP2 SLOAD DUP1 SWAP3 SWAP2 SWAP1 PUSH2 0xA86 SWAP1 PUSH2 0x1E1F JUMP JUMPDEST SWAP2 SWAP1 POP SSTORE POP PUSH32 0x560F33C84A1E75CD12DCC1EF33A1ECA2B503D63BFF21B19BF61D9A18FE9F3B41 DUP3 DUP3 PUSH1 0x2 PUSH1 0x0 DUP6 PUSH20 0xFFFFFFFFFFFFFFFFFFFFFFFFFFFFFFFFFFFFFFFF AND PUSH20 0xFFFFFFFFFFFFFFFFFFFFFFFFFFFFFFFFFFFFFFFF AND DUP2 MSTORE PUSH1 0x20 ADD SWAP1 DUP2 MSTORE PUSH1 0x20 ADD PUSH1 0x0 KECCAK256 PUSH1 0x0 DUP7 DUP2 MSTORE PUSH1 0x20 ADD SWAP1 DUP2 MSTORE PUSH1 0x20 ADD PUSH1 0x0 KECCAK256 PUSH1 0x4 ADD SLOAD CALLER PUSH1 0x40 MLOAD PUSH2 0xB13 SWAP5 SWAP4 SWAP3 SWAP2 SWAP1 PUSH2 0x1E48 JUMP JUMPDEST PUSH1 0x40 MLOAD DUP1 SWAP2 SUB SWAP1 LOG1 POP POP JUMP JUMPDEST PUSH2 0xB27 PUSH2 0x10E2 JUMP JUMPDEST PUSH1 0x2 PUSH1 0x0 CALLER PUSH20 0xFFFFFFFFFFFFFFFFFFFFFFFFFFFFFFFFFFFFFFFF AND PUSH20 0xFFFFFFFFFFFFFFFFFFFFFFFFFFFFFFFFFFFFFFFF AND DUP2 MSTORE PUSH1 0x20 ADD SWAP1 DUP2 MSTORE PUSH1 0x20 ADD PUSH1 0x0 KECCAK256 PUSH1 0x0 DUP4 DUP2 MSTORE PUSH1 0x20 ADD SWAP1 DUP2 MSTORE PUSH1 0x20 ADD PUSH1 0x0 KECCAK256 PUSH1 0x40 MLOAD DUP1 PUSH1 0xA0 ADD PUSH1 0x40 MSTORE SWAP1 DUP2 PUSH1 0x0 DUP3 ADD SLOAD DUP2 MSTORE PUSH1 0x20 ADD PUSH1 0x1 DUP3 ADD PUSH1 0x0 SWAP1 SLOAD SWAP1 PUSH2 0x100 EXP SWAP1 DIV PUSH20 0xFFFFFFFFFFFFFFFFFFFFFFFFFFFFFFFFFFFFFFFF AND PUSH20 0xFFFFFFFFFFFFFFFFFFFFFFFFFFFFFFFFFFFFFFFF AND PUSH20 0xFFFFFFFFFFFFFFFFFFFFFFFFFFFFFFFFFFFFFFFF AND DUP2 MSTORE PUSH1 0x20 ADD PUSH1 0x2 DUP3 ADD DUP1 SLOAD PUSH2 0xBF2 SWAP1 PUSH2 0x1771 JUMP JUMPDEST DUP1 PUSH1 0x1F ADD PUSH1 0x20 DUP1 SWAP2 DIV MUL PUSH1 0x20 ADD PUSH1 0x40 MLOAD SWAP1 DUP2 ADD PUSH1 0x40 MSTORE DUP1 SWAP3 SWAP2 SWAP1 DUP2 DUP2 MSTORE PUSH1 0x20 ADD DUP3 DUP1 SLOAD PUSH2 0xC1E SWAP1 PUSH2 0x1771 JUMP JUMPDEST DUP1 ISZERO PUSH2 0xC6B JUMPI DUP1 PUSH1 0x1F LT PUSH2 0xC40 JUMPI PUSH2 0x100 DUP1 DUP4 SLOAD DIV MUL DUP4 MSTORE SWAP2 PUSH1 0x20 ADD SWAP2 PUSH2 0xC6B JUMP JUMPDEST DUP3 ADD SWAP2 SWAP1 PUSH1 0x0 MSTORE PUSH1 0x20 PUSH1 0x0 KECCAK256 SWAP1 JUMPDEST DUP2 SLOAD DUP2 MSTORE SWAP1 PUSH1 0x1 ADD SWAP1 PUSH1 0x20 ADD DUP1 DUP4 GT PUSH2 0xC4E JUMPI DUP3 SWAP1 SUB PUSH1 0x1F AND DUP3 ADD SWAP2 JUMPDEST POP POP POP POP POP DUP2 MSTORE PUSH1 0x20 ADD PUSH1 0x3 DUP3 ADD SLOAD DUP2 MSTORE PUSH1 0x20 ADD PUSH1 0x4 DUP3 ADD SLOAD DUP2 MSTORE POP POP SWAP1 POP SWAP2 SWAP1 POP JUMP JUMPDEST PUSH1 0x0 PUSH1 0x4 PUSH1 0x0 SWAP1 SLOAD SWAP1 PUSH2 0x100 EXP SWAP1 DIV PUSH20 0xFFFFFFFFFFFFFFFFFFFFFFFFFFFFFFFFFFFFFFFF AND PUSH20 0xFFFFFFFFFFFFFFFFFFFFFFFFFFFFFFFFFFFFFFFF AND PUSH4 0xF53A470 CALLER PUSH1 0x40 MLOAD DUP3 PUSH4 0xFFFFFFFF AND PUSH1 0xE0 SHL DUP2 MSTORE PUSH1 0x4 ADD PUSH2 0xCEC SWAP2 SWAP1 PUSH2 0x15F6 JUMP JUMPDEST PUSH1 0x0 PUSH1 0x40 MLOAD DUP1 DUP4 SUB DUP2 DUP7 GAS STATICCALL ISZERO DUP1 ISZERO PUSH2 0xD09 JUMPI RETURNDATASIZE PUSH1 0x0 DUP1 RETURNDATACOPY RETURNDATASIZE PUSH1 0x0 REVERT JUMPDEST POP POP POP POP PUSH1 0x40 MLOAD RETURNDATASIZE PUSH1 0x0 DUP3 RETURNDATACOPY RETURNDATASIZE PUSH1 0x1F NOT PUSH1 0x1F DUP3 ADD AND DUP3 ADD DUP1 PUSH1 0x40 MSTORE POP DUP2 ADD SWAP1 PUSH2 0xD32 SWAP2 SWAP1 PUSH2 0x18D3 JUMP JUMPDEST PUSH1 0x0 ADD MLOAD MLOAD GT PUSH2 0xD77 JUMPI PUSH1 0x40 MLOAD PUSH32 0x8C379A000000000000000000000000000000000000000000000000000000000 DUP2 MSTORE PUSH1 0x4 ADD PUSH2 0xD6E SWAP1 PUSH2 0x1979 JUMP JUMPDEST PUSH1 0x40 MLOAD DUP1 SWAP2 SUB SWAP1 REVERT JUMPDEST DUP2 PUSH1 0x2 PUSH1 0x0 DUP4 PUSH20 0xFFFFFFFFFFFFFFFFFFFFFFFFFFFFFFFFFFFFFFFF AND PUSH20 0xFFFFFFFFFFFFFFFFFFFFFFFFFFFFFFFFFFFFFFFF AND DUP2 MSTORE PUSH1 0x20 ADD SWAP1 DUP2 MSTORE PUSH1 0x20 ADD PUSH1 0x0 KECCAK256 PUSH1 0x0 DUP5 DUP2 MSTORE PUSH1 0x20 ADD SWAP1 DUP2 MSTORE PUSH1 0x20 ADD PUSH1 0x0 KECCAK256 PUSH1 0x0 ADD SLOAD EQ PUSH2 0xE0C JUMPI PUSH1 0x40 MLOAD PUSH32 0x8C379A000000000000000000000000000000000000000000000000000000000 DUP2 MSTORE PUSH1 0x4 ADD PUSH2 0xE03 SWAP1 PUSH2 0x1ED9 JUMP JUMPDEST PUSH1 0x40 MLOAD DUP1 SWAP2 SUB SWAP1 REVERT JUMPDEST PUSH1 0x2 PUSH1 0x0 DUP3 PUSH20 0xFFFFFFFFFFFFFFFFFFFFFFFFFFFFFFFFFFFFFFFF AND PUSH20 0xFFFFFFFFFFFFFFFFFFFFFFFFFFFFFFFFFFFFFFFF AND DUP2 MSTORE PUSH1 0x20 ADD SWAP1 DUP2 MSTORE PUSH1 0x20 ADD PUSH1 0x0 KECCAK256 PUSH1 0x0 DUP4 DUP2 MSTORE PUSH1 0x20 ADD SWAP1 DUP2 MSTORE PUSH1 0x20 ADD PUSH1 0x0 KECCAK256 PUSH1 0x4 ADD PUSH1 0x0 DUP2 SLOAD DUP1 SWAP3 SWAP2 SWAP1 PUSH2 0xE70 SWAP1 PUSH2 0x1D37 JUMP JUMPDEST SWAP2 SWAP1 POP SSTORE POP PUSH32 0x3406CCE04214D6F2A48B440426569ED56DC2700C5801C7891E32D62E23CB2331 DUP3 DUP3 PUSH1 0x2 PUSH1 0x0 DUP6 PUSH20 0xFFFFFFFFFFFFFFFFFFFFFFFFFFFFFFFFFFFFFFFF AND PUSH20 0xFFFFFFFFFFFFFFFFFFFFFFFFFFFFFFFFFFFFFFFF AND DUP2 MSTORE PUSH1 0x20 ADD SWAP1 DUP2 MSTORE PUSH1 0x20 ADD PUSH1 0x0 KECCAK256 PUSH1 0x0 DUP7 DUP2 MSTORE PUSH1 0x20 ADD SWAP1 DUP2 MSTORE PUSH1 0x20 ADD PUSH1 0x0 KECCAK256 PUSH1 0x4 ADD SLOAD CALLER PUSH1 0x40 MLOAD PUSH2 0xEFD SWAP5 SWAP4 SWAP3 SWAP2 SWAP1 PUSH2 0x1E48 JUMP JUMPDEST PUSH1 0x40 MLOAD DUP1 SWAP2 SUB SWAP1 LOG1 POP POP JUMP JUMPDEST PUSH2 0xF11 PUSH2 0xF8F JUMP JUMPDEST PUSH1 0x0 PUSH20 0xFFFFFFFFFFFFFFFFFFFFFFFFFFFFFFFFFFFFFFFF AND DUP2 PUSH20 0xFFFFFFFFFFFFFFFFFFFFFFFFFFFFFFFFFFFFFFFF AND SUB PUSH2 0xF83 JUMPI PUSH1 0x0 PUSH1 0x40 MLOAD PUSH32 0x1E4FBDF700000000000000000000000000000000000000000000000000000000 DUP2 MSTORE PUSH1 0x4 ADD PUSH2 0xF7A SWAP2 SWAP1 PUSH2 0x15F6 JUMP JUMPDEST PUSH1 0x40 MLOAD DUP1 SWAP2 SUB SWAP1 REVERT JUMPDEST PUSH2 0xF8C DUP2 PUSH2 0x1016 JUMP JUMPDEST POP JUMP JUMPDEST PUSH2 0xF97 PUSH2 0x10DA JUMP JUMPDEST PUSH20 0xFFFFFFFFFFFFFFFFFFFFFFFFFFFFFFFFFFFFFFFF AND PUSH2 0xFB5 PUSH2 0x87B JUMP JUMPDEST PUSH20 0xFFFFFFFFFFFFFFFFFFFFFFFFFFFFFFFFFFFFFFFF AND EQ PUSH2 0x1014 JUMPI PUSH2 0xFD8 PUSH2 0x10DA JUMP JUMPDEST PUSH1 0x40 MLOAD PUSH32 0x118CDAA700000000000000000000000000000000000000000000000000000000 DUP2 MSTORE PUSH1 0x4 ADD PUSH2 0x100B SWAP2 SWAP1 PUSH2 0x15F6 JUMP JUMPDEST PUSH1 0x40 MLOAD DUP1 SWAP2 SUB SWAP1 REVERT JUMPDEST JUMP JUMPDEST PUSH1 0x0 DUP1 PUSH1 0x0 SWAP1 SLOAD SWAP1 PUSH2 0x100 EXP SWAP1 DIV PUSH20 0xFFFFFFFFFFFFFFFFFFFFFFFFFFFFFFFFFFFFFFFF AND SWAP1 POP DUP2 PUSH1 0x0 DUP1 PUSH2 0x100 EXP DUP2 SLOAD DUP2 PUSH20 0xFFFFFFFFFFFFFFFFFFFFFFFFFFFFFFFFFFFFFFFF MUL NOT AND SWAP1 DUP4 PUSH20 0xFFFFFFFFFFFFFFFFFFFFFFFFFFFFFFFFFFFFFFFF AND MUL OR SWAP1 SSTORE POP DUP2 PUSH20 0xFFFFFFFFFFFFFFFFFFFFFFFFFFFFFFFFFFFFFFFF AND DUP2 PUSH20 0xFFFFFFFFFFFFFFFFFFFFFFFFFFFFFFFFFFFFFFFF AND PUSH32 0x8BE0079C531659141344CD1FD0A4F28419497F9722A3DAAFE3B4186F6B6457E0 PUSH1 0x40 MLOAD PUSH1 0x40 MLOAD DUP1 SWAP2 SUB SWAP1 LOG3 POP POP JUMP JUMPDEST PUSH1 0x0 CALLER SWAP1 POP SWAP1 JUMP JUMPDEST PUSH1 0x40 MLOAD DUP1 PUSH1 0xA0 ADD PUSH1 0x40 MSTORE DUP1 PUSH1 0x0 DUP2 MSTORE PUSH1 0x20 ADD PUSH1 0x0 PUSH20 0xFFFFFFFFFFFFFFFFFFFFFFFFFFFFFFFFFFFFFFFF AND DUP2 MSTORE PUSH1 0x20 ADD PUSH1 0x60 DUP2 MSTORE PUSH1 0x20 ADD PUSH1 0x0 DUP2 MSTORE PUSH1 0x20 ADD PUSH1 0x0 DUP2 MSTORE POP SWAP1 JUMP JUMPDEST PUSH1 0x0 PUSH1 0x40 MLOAD SWAP1 POP SWAP1 JUMP JUMPDEST PUSH1 0x0 DUP1 REVERT JUMPDEST PUSH1 0x0 DUP1 REVERT JUMPDEST PUSH1 0x0 PUSH20 0xFFFFFFFFFFFFFFFFFFFFFFFFFFFFFFFFFFFFFFFF DUP3 AND SWAP1 POP SWAP2 SWAP1 POP JUMP JUMPDEST PUSH1 0x0 PUSH2 0x1166 DUP3 PUSH2 0x113B JUMP JUMPDEST SWAP1 POP SWAP2 SWAP1 POP JUMP JUMPDEST PUSH2 0x1176 DUP2 PUSH2 0x115B JUMP JUMPDEST DUP2 EQ PUSH2 0x1181 JUMPI PUSH1 0x0 DUP1 REVERT JUMPDEST POP JUMP JUMPDEST PUSH1 0x0 DUP2 CALLDATALOAD SWAP1 POP PUSH2 0x1193 DUP2 PUSH2 0x116D JUMP JUMPDEST SWAP3 SWAP2 POP POP JUMP JUMPDEST PUSH1 0x0 PUSH1 0x20 DUP3 DUP5 SUB SLT ISZERO PUSH2 0x11AF JUMPI PUSH2 0x11AE PUSH2 0x1131 JUMP JUMPDEST JUMPDEST PUSH1 0x0 PUSH2 0x11BD DUP5 DUP3 DUP6 ADD PUSH2 0x1184 JUMP JUMPDEST SWAP2 POP POP SWAP3 SWAP2 POP POP JUMP JUMPDEST PUSH1 0x0 DUP2 MLOAD SWAP1 POP SWAP2 SWAP1 POP JUMP JUMPDEST PUSH1 0x0 DUP3 DUP3 MSTORE PUSH1 0x20 DUP3 ADD SWAP1 POP SWAP3 SWAP2 POP POP JUMP JUMPDEST PUSH1 0x0 DUP2 SWAP1 POP PUSH1 0x20 DUP3 ADD SWAP1 POP SWAP2 SWAP1 POP JUMP JUMPDEST PUSH1 0x0 DUP2 SWAP1 POP SWAP2 SWAP1 POP JUMP JUMPDEST PUSH2 0x1205 DUP2 PUSH2 0x11F2 JUMP JUMPDEST DUP3 MSTORE POP POP JUMP JUMPDEST PUSH2 0x1214 DUP2 PUSH2 0x115B JUMP JUMPDEST DUP3 MSTORE POP POP JUMP JUMPDEST PUSH1 0x0 DUP2 MLOAD SWAP1 POP SWAP2 SWAP1 POP JUMP JUMPDEST PUSH1 0x0 DUP3 DUP3 MSTORE PUSH1 0x20 DUP3 ADD SWAP1 POP SWAP3 SWAP2 POP POP JUMP JUMPDEST PUSH1 0x0 JUMPDEST DUP4 DUP2 LT ISZERO PUSH2 0x1254 JUMPI DUP1 DUP3 ADD MLOAD DUP2 DUP5 ADD MSTORE PUSH1 0x20 DUP2 ADD SWAP1 POP PUSH2 0x1239 JUMP JUMPDEST PUSH1 0x0 DUP5 DUP5 ADD MSTORE POP POP POP POP JUMP JUMPDEST PUSH1 0x0 PUSH1 0x1F NOT PUSH1 0x1F DUP4 ADD AND SWAP1 POP SWAP2 SWAP1 POP JUMP JUMPDEST PUSH1 0x0 PUSH2 0x127C DUP3 PUSH2 0x121A JUMP JUMPDEST PUSH2 0x1286 DUP2 DUP6 PUSH2 0x1225 JUMP JUMPDEST SWAP4 POP PUSH2 0x1296 DUP2 DUP6 PUSH1 0x20 DUP7 ADD PUSH2 0x1236 JUMP JUMPDEST PUSH2 0x129F DUP2 PUSH2 0x1260 JUMP JUMPDEST DUP5 ADD SWAP2 POP POP SWAP3 SWAP2 POP POP JUMP JUMPDEST PUSH1 0x0 PUSH1 0xA0 DUP4 ADD PUSH1 0x0 DUP4 ADD MLOAD PUSH2 0x12C2 PUSH1 0x0 DUP7 ADD DUP3 PUSH2 0x11FC JUMP JUMPDEST POP PUSH1 0x20 DUP4 ADD MLOAD PUSH2 0x12D5 PUSH1 0x20 DUP7 ADD DUP3 PUSH2 0x120B JUMP JUMPDEST POP PUSH1 0x40 DUP4 ADD MLOAD DUP5 DUP3 SUB PUSH1 0x40 DUP7 ADD MSTORE PUSH2 0x12ED DUP3 DUP3 PUSH2 0x1271 JUMP JUMPDEST SWAP2 POP POP PUSH1 0x60 DUP4 ADD MLOAD PUSH2 0x1302 PUSH1 0x60 DUP7 ADD DUP3 PUSH2 0x11FC JUMP JUMPDEST POP PUSH1 0x80 DUP4 ADD MLOAD PUSH2 0x1315 PUSH1 0x80 DUP7 ADD DUP3 PUSH2 0x11FC JUMP JUMPDEST POP DUP1 SWAP2 POP POP SWAP3 SWAP2 POP POP JUMP JUMPDEST PUSH1 0x0 PUSH2 0x132C DUP4 DUP4 PUSH2 0x12AA JUMP JUMPDEST SWAP1 POP SWAP3 SWAP2 POP POP JUMP JUMPDEST PUSH1 0x0 PUSH1 0x20 DUP3 ADD SWAP1 POP SWAP2 SWAP1 POP JUMP JUMPDEST PUSH1 0x0 PUSH2 0x134C DUP3 PUSH2 0x11C6 JUMP JUMPDEST PUSH2 0x1356 DUP2 DUP6 PUSH2 0x11D1 JUMP JUMPDEST SWAP4 POP DUP4 PUSH1 0x20 DUP3 MUL DUP6 ADD PUSH2 0x1368 DUP6 PUSH2 0x11E2 JUMP JUMPDEST DUP1 PUSH1 0x0 JUMPDEST DUP6 DUP2 LT ISZERO PUSH2 0x13A4 JUMPI DUP5 DUP5 SUB DUP10 MSTORE DUP2 MLOAD PUSH2 0x1385 DUP6 DUP3 PUSH2 0x1320 JUMP JUMPDEST SWAP5 POP PUSH2 0x1390 DUP4 PUSH2 0x1334 JUMP JUMPDEST SWAP3 POP PUSH1 0x20 DUP11 ADD SWAP10 POP POP PUSH1 0x1 DUP2 ADD SWAP1 POP PUSH2 0x136C JUMP JUMPDEST POP DUP3 SWAP8 POP DUP8 SWAP6 POP POP POP POP POP POP SWAP3 SWAP2 POP POP JUMP JUMPDEST PUSH1 0x0 PUSH1 0x20 DUP3 ADD SWAP1 POP DUP2 DUP2 SUB PUSH1 0x0 DUP4 ADD MSTORE PUSH2 0x13D0 DUP2 DUP5 PUSH2 0x1341 JUMP JUMPDEST SWAP1 POP SWAP3 SWAP2 POP POP JUMP JUMPDEST PUSH1 0x0 PUSH2 0xFFFF DUP3 AND SWAP1 POP SWAP2 SWAP1 POP JUMP JUMPDEST PUSH2 0x13EF DUP2 PUSH2 0x13D8 JUMP JUMPDEST DUP2 EQ PUSH2 0x13FA JUMPI PUSH1 0x0 DUP1 REVERT JUMPDEST POP JUMP JUMPDEST PUSH1 0x0 DUP2 CALLDATALOAD SWAP1 POP PUSH2 0x140C DUP2 PUSH2 0x13E6 JUMP JUMPDEST SWAP3 SWAP2 POP POP JUMP JUMPDEST PUSH1 0x0 PUSH1 0x20 DUP3 DUP5 SUB SLT ISZERO PUSH2 0x1428 JUMPI PUSH2 0x1427 PUSH2 0x1131 JUMP JUMPDEST JUMPDEST PUSH1 0x0 PUSH2 0x1436 DUP5 DUP3 DUP6 ADD PUSH2 0x13FD JUMP JUMPDEST SWAP2 POP POP SWAP3 SWAP2 POP POP JUMP JUMPDEST PUSH1 0x0 DUP1 REVERT JUMPDEST PUSH1 0x0 DUP1 REVERT JUMPDEST PUSH32 0x4E487B7100000000000000000000000000000000000000000000000000000000 PUSH1 0x0 MSTORE PUSH1 0x41 PUSH1 0x4 MSTORE PUSH1 0x24 PUSH1 0x0 REVERT JUMPDEST PUSH2 0x1481 DUP3 PUSH2 0x1260 JUMP JUMPDEST DUP2 ADD DUP2 DUP2 LT PUSH8 0xFFFFFFFFFFFFFFFF DUP3 GT OR ISZERO PUSH2 0x14A0 JUMPI PUSH2 0x149F PUSH2 0x1449 JUMP JUMPDEST JUMPDEST DUP1 PUSH1 0x40 MSTORE POP POP POP JUMP JUMPDEST PUSH1 0x0 PUSH2 0x14B3 PUSH2 0x1127 JUMP JUMPDEST SWAP1 POP PUSH2 0x14BF DUP3 DUP3 PUSH2 0x1478 JUMP JUMPDEST SWAP2 SWAP1 POP JUMP JUMPDEST PUSH1 0x0 PUSH8 0xFFFFFFFFFFFFFFFF DUP3 GT ISZERO PUSH2 0x14DF JUMPI PUSH2 0x14DE PUSH2 0x1449 JUMP JUMPDEST JUMPDEST PUSH2 0x14E8 DUP3 PUSH2 0x1260 JUMP JUMPDEST SWAP1 POP PUSH1 0x20 DUP2 ADD SWAP1 POP SWAP2 SWAP1 POP JUMP JUMPDEST DUP3 DUP2 DUP4 CALLDATACOPY PUSH1 0x0 DUP4 DUP4 ADD MSTORE POP POP POP JUMP JUMPDEST PUSH1 0x0 PUSH2 0x1517 PUSH2 0x1512 DUP5 PUSH2 0x14C4 JUMP JUMPDEST PUSH2 0x14A9 JUMP JUMPDEST SWAP1 POP DUP3 DUP2 MSTORE PUSH1 0x20 DUP2 ADD DUP5 DUP5 DUP5 ADD GT ISZERO PUSH2 0x1533 JUMPI PUSH2 0x1532 PUSH2 0x1444 JUMP JUMPDEST JUMPDEST PUSH2 0x153E DUP5 DUP3 DUP6 PUSH2 0x14F5 JUMP JUMPDEST POP SWAP4 SWAP3 POP POP POP JUMP JUMPDEST PUSH1 0x0 DUP3 PUSH1 0x1F DUP4 ADD SLT PUSH2 0x155B JUMPI PUSH2 0x155A PUSH2 0x143F JUMP JUMPDEST JUMPDEST DUP2 CALLDATALOAD PUSH2 0x156B DUP5 DUP3 PUSH1 0x20 DUP7 ADD PUSH2 0x1504 JUMP JUMPDEST SWAP2 POP POP SWAP3 SWAP2 POP POP JUMP JUMPDEST PUSH1 0x0 PUSH1 0x20 DUP3 DUP5 SUB SLT ISZERO PUSH2 0x158A JUMPI PUSH2 0x1589 PUSH2 0x1131 JUMP JUMPDEST JUMPDEST PUSH1 0x0 DUP3 ADD CALLDATALOAD PUSH8 0xFFFFFFFFFFFFFFFF DUP2 GT ISZERO PUSH2 0x15A8 JUMPI PUSH2 0x15A7 PUSH2 0x1136 JUMP JUMPDEST JUMPDEST PUSH2 0x15B4 DUP5 DUP3 DUP6 ADD PUSH2 0x1546 JUMP JUMPDEST SWAP2 POP POP SWAP3 SWAP2 POP POP JUMP JUMPDEST PUSH2 0x15C6 DUP2 PUSH2 0x11F2 JUMP JUMPDEST DUP3 MSTORE POP POP JUMP JUMPDEST PUSH1 0x0 PUSH1 0x20 DUP3 ADD SWAP1 POP PUSH2 0x15E1 PUSH1 0x0 DUP4 ADD DUP5 PUSH2 0x15BD JUMP JUMPDEST SWAP3 SWAP2 POP POP JUMP JUMPDEST PUSH2 0x15F0 DUP2 PUSH2 0x115B JUMP JUMPDEST DUP3 MSTORE POP POP JUMP JUMPDEST PUSH1 0x0 PUSH1 0x20 DUP3 ADD SWAP1 POP PUSH2 0x160B PUSH1 0x0 DUP4 ADD DUP5 PUSH2 0x15E7 JUMP JUMPDEST SWAP3 SWAP2 POP POP JUMP JUMPDEST PUSH2 0x161A DUP2 PUSH2 0x11F2 JUMP JUMPDEST DUP2 EQ PUSH2 0x1625 JUMPI PUSH1 0x0 DUP1 REVERT JUMPDEST POP JUMP JUMPDEST PUSH1 0x0 DUP2 CALLDATALOAD SWAP1 POP PUSH2 0x1637 DUP2 PUSH2 0x1611 JUMP JUMPDEST SWAP3 SWAP2 POP POP JUMP JUMPDEST PUSH1 0x0 DUP1 PUSH1 0x40 DUP4 DUP6 SUB SLT ISZERO PUSH2 0x1654 JUMPI PUSH2 0x1653 PUSH2 0x1131 JUMP JUMPDEST JUMPDEST PUSH1 0x0 PUSH2 0x1662 DUP6 DUP3 DUP7 ADD PUSH2 0x1628 JUMP JUMPDEST SWAP3 POP POP PUSH1 0x20 PUSH2 0x1673 DUP6 DUP3 DUP7 ADD PUSH2 0x1184 JUMP JUMPDEST SWAP2 POP POP SWAP3 POP SWAP3 SWAP1 POP JUMP JUMPDEST PUSH1 0x0 PUSH1 0x20 DUP3 DUP5 SUB SLT ISZERO PUSH2 0x1693 JUMPI PUSH2 0x1692 PUSH2 0x1131 JUMP JUMPDEST JUMPDEST PUSH1 0x0 PUSH2 0x16A1 DUP5 DUP3 DUP6 ADD PUSH2 0x1628 JUMP JUMPDEST SWAP2 POP POP SWAP3 SWAP2 POP POP JUMP JUMPDEST PUSH1 0x0 PUSH1 0xA0 DUP4 ADD PUSH1 0x0 DUP4 ADD MLOAD PUSH2 0x16C2 PUSH1 0x0 DUP7 ADD DUP3 PUSH2 0x11FC JUMP JUMPDEST POP PUSH1 0x20 DUP4 ADD MLOAD PUSH2 0x16D5 PUSH1 0x20 DUP7 ADD DUP3 PUSH2 0x120B JUMP JUMPDEST POP PUSH1 0x40 DUP4 ADD MLOAD DUP5 DUP3 SUB PUSH1 0x40 DUP7 ADD MSTORE PUSH2 0x16ED DUP3 DUP3 PUSH2 0x1271 JUMP JUMPDEST SWAP2 POP POP PUSH1 0x60 DUP4 ADD MLOAD PUSH2 0x1702 PUSH1 0x60 DUP7 ADD DUP3 PUSH2 0x11FC JUMP JUMPDEST POP PUSH1 0x80 DUP4 ADD MLOAD PUSH2 0x1715 PUSH1 0x80 DUP7 ADD DUP3 PUSH2 0x11FC JUMP JUMPDEST POP DUP1 SWAP2 POP POP SWAP3 SWAP2 POP POP JUMP JUMPDEST PUSH1 0x0 PUSH1 0x20 DUP3 ADD SWAP1 POP DUP2 DUP2 SUB PUSH1 0x0 DUP4 ADD MSTORE PUSH2 0x173A DUP2 DUP5 PUSH2 0x16AA JUMP JUMPDEST SWAP1 POP SWAP3 SWAP2 POP POP JUMP JUMPDEST PUSH32 0x4E487B7100000000000000000000000000000000000000000000000000000000 PUSH1 0x0 MSTORE PUSH1 0x22 PUSH1 0x4 MSTORE PUSH1 0x24 PUSH1 0x0 REVERT JUMPDEST PUSH1 0x0 PUSH1 0x2 DUP3 DIV SWAP1 POP PUSH1 0x1 DUP3 AND DUP1 PUSH2 0x1789 JUMPI PUSH1 0x7F DUP3 AND SWAP2 POP JUMPDEST PUSH1 0x20 DUP3 LT DUP2 SUB PUSH2 0x179C JUMPI PUSH2 0x179B PUSH2 0x1742 JUMP JUMPDEST JUMPDEST POP SWAP2 SWAP1 POP JUMP JUMPDEST PUSH32 0x4E487B7100000000000000000000000000000000000000000000000000000000 PUSH1 0x0 MSTORE PUSH1 0x32 PUSH1 0x4 MSTORE PUSH1 0x24 PUSH1 0x0 REVERT JUMPDEST PUSH1 0x0 DUP1 REVERT JUMPDEST PUSH1 0x0 DUP1 REVERT JUMPDEST PUSH1 0x0 PUSH2 0x17EE PUSH2 0x17E9 DUP5 PUSH2 0x14C4 JUMP JUMPDEST PUSH2 0x14A9 JUMP JUMPDEST SWAP1 POP DUP3 DUP2 MSTORE PUSH1 0x20 DUP2 ADD DUP5 DUP5 DUP5 ADD GT ISZERO PUSH2 0x180A JUMPI PUSH2 0x1809 PUSH2 0x1444 JUMP JUMPDEST JUMPDEST PUSH2 0x1815 DUP5 DUP3 DUP6 PUSH2 0x1236 JUMP JUMPDEST POP SWAP4 SWAP3 POP POP POP JUMP JUMPDEST PUSH1 0x0 DUP3 PUSH1 0x1F DUP4 ADD SLT PUSH2 0x1832 JUMPI PUSH2 0x1831 PUSH2 0x143F JUMP JUMPDEST JUMPDEST DUP2 MLOAD PUSH2 0x1842 DUP5 DUP3 PUSH1 0x20 DUP7 ADD PUSH2 0x17DB JUMP JUMPDEST SWAP2 POP POP SWAP3 SWAP2 POP POP JUMP JUMPDEST PUSH1 0x0 PUSH1 0x40 DUP3 DUP5 SUB SLT ISZERO PUSH2 0x1861 JUMPI PUSH2 0x1860 PUSH2 0x17D1 JUMP JUMPDEST JUMPDEST PUSH2 0x186B PUSH1 0x40 PUSH2 0x14A9 JUMP JUMPDEST SWAP1 POP PUSH1 0x0 DUP3 ADD MLOAD PUSH8 0xFFFFFFFFFFFFFFFF DUP2 GT ISZERO PUSH2 0x188B JUMPI PUSH2 0x188A PUSH2 0x17D6 JUMP JUMPDEST JUMPDEST PUSH2 0x1897 DUP5 DUP3 DUP6 ADD PUSH2 0x181D JUMP JUMPDEST PUSH1 0x0 DUP4 ADD MSTORE POP PUSH1 0x20 DUP3 ADD MLOAD PUSH8 0xFFFFFFFFFFFFFFFF DUP2 GT ISZERO PUSH2 0x18BB JUMPI PUSH2 0x18BA PUSH2 0x17D6 JUMP JUMPDEST JUMPDEST PUSH2 0x18C7 DUP5 DUP3 DUP6 ADD PUSH2 0x181D JUMP JUMPDEST PUSH1 0x20 DUP4 ADD MSTORE POP SWAP3 SWAP2 POP POP JUMP JUMPDEST PUSH1 0x0 PUSH1 0x20 DUP3 DUP5 SUB SLT ISZERO PUSH2 0x18E9 JUMPI PUSH2 0x18E8 PUSH2 0x1131 JUMP JUMPDEST JUMPDEST PUSH1 0x0 DUP3 ADD MLOAD PUSH8 0xFFFFFFFFFFFFFFFF DUP2 GT ISZERO PUSH2 0x1907 JUMPI PUSH2 0x1906 PUSH2 0x1136 JUMP JUMPDEST JUMPDEST PUSH2 0x1913 DUP5 DUP3 DUP6 ADD PUSH2 0x184B JUMP JUMPDEST SWAP2 POP POP SWAP3 SWAP2 POP POP JUMP JUMPDEST PUSH1 0x0 DUP3 DUP3 MSTORE PUSH1 0x20 DUP3 ADD SWAP1 POP SWAP3 SWAP2 POP POP JUMP JUMPDEST PUSH32 0x5573657220646F6573206E6F74206861766520612070726F66696C6500000000 PUSH1 0x0 DUP3 ADD MSTORE POP JUMP JUMPDEST PUSH1 0x0 PUSH2 0x1963 PUSH1 0x1C DUP4 PUSH2 0x191C JUMP JUMPDEST SWAP2 POP PUSH2 0x196E DUP3 PUSH2 0x192D JUMP JUMPDEST PUSH1 0x20 DUP3 ADD SWAP1 POP SWAP2 SWAP1 POP JUMP JUMPDEST PUSH1 0x0 PUSH1 0x20 DUP3 ADD SWAP1 POP DUP2 DUP2 SUB PUSH1 0x0 DUP4 ADD MSTORE PUSH2 0x1992 DUP2 PUSH2 0x1956 JUMP JUMPDEST SWAP1 POP SWAP2 SWAP1 POP JUMP JUMPDEST PUSH32 0x547765657420636F6E74656E74206973206C656E677468790000000000000000 PUSH1 0x0 DUP3 ADD MSTORE POP JUMP JUMPDEST PUSH1 0x0 PUSH2 0x19CF PUSH1 0x18 DUP4 PUSH2 0x191C JUMP JUMPDEST SWAP2 POP PUSH2 0x19DA DUP3 PUSH2 0x1999 JUMP JUMPDEST PUSH1 0x20 DUP3 ADD SWAP1 POP SWAP2 SWAP1 POP JUMP JUMPDEST PUSH1 0x0 PUSH1 0x20 DUP3 ADD SWAP1 POP DUP2 DUP2 SUB PUSH1 0x0 DUP4 ADD MSTORE PUSH2 0x19FE DUP2 PUSH2 0x19C2 JUMP JUMPDEST SWAP1 POP SWAP2 SWAP1 POP JUMP JUMPDEST PUSH1 0x0 DUP2 SWAP1 POP DUP2 PUSH1 0x0 MSTORE PUSH1 0x20 PUSH1 0x0 KECCAK256 SWAP1 POP SWAP2 SWAP1 POP JUMP JUMPDEST PUSH1 0x0 PUSH1 0x20 PUSH1 0x1F DUP4 ADD DIV SWAP1 POP SWAP2 SWAP1 POP JUMP JUMPDEST PUSH1 0x0 DUP3 DUP3 SHL SWAP1 POP SWAP3 SWAP2 POP POP JUMP JUMPDEST PUSH1 0x0 PUSH1 0x8 DUP4 MUL PUSH2 0x1A67 PUSH32 0xFFFFFFFFFFFFFFFFFFFFFFFFFFFFFFFFFFFFFFFFFFFFFFFFFFFFFFFFFFFFFFFF DUP3 PUSH2 0x1A2A JUMP JUMPDEST PUSH2 0x1A71 DUP7 DUP4 PUSH2 0x1A2A JUMP JUMPDEST SWAP6 POP DUP1 NOT DUP5 AND SWAP4 POP DUP1 DUP7 AND DUP5 OR SWAP3 POP POP POP SWAP4 SWAP3 POP POP POP JUMP JUMPDEST PUSH1 0x0 DUP2 SWAP1 POP SWAP2 SWAP1 POP JUMP JUMPDEST PUSH1 0x0 PUSH2 0x1AAE PUSH2 0x1AA9 PUSH2 0x1AA4 DUP5 PUSH2 0x11F2 JUMP JUMPDEST PUSH2 0x1A89 JUMP JUMPDEST PUSH2 0x11F2 JUMP JUMPDEST SWAP1 POP SWAP2 SWAP1 POP JUMP JUMPDEST PUSH1 0x0 DUP2 SWAP1 POP SWAP2 SWAP1 POP JUMP JUMPDEST PUSH2 0x1AC8 DUP4 PUSH2 0x1A93 JUMP JUMPDEST PUSH2 0x1ADC PUSH2 0x1AD4 DUP3 PUSH2 0x1AB5 JUMP JUMPDEST DUP5 DUP5 SLOAD PUSH2 0x1A37 JUMP JUMPDEST DUP3 SSTORE POP POP POP POP JUMP JUMPDEST PUSH1 0x0 SWAP1 JUMP JUMPDEST PUSH2 0x1AF1 PUSH2 0x1AE4 JUMP JUMPDEST PUSH2 0x1AFC DUP2 DUP5 DUP5 PUSH2 0x1ABF JUMP JUMPDEST POP POP POP JUMP JUMPDEST JUMPDEST DUP2 DUP2 LT ISZERO PUSH2 0x1B20 JUMPI PUSH2 0x1B15 PUSH1 0x0 DUP3 PUSH2 0x1AE9 JUMP JUMPDEST PUSH1 0x1 DUP2 ADD SWAP1 POP PUSH2 0x1B02 JUMP JUMPDEST POP POP JUMP JUMPDEST PUSH1 0x1F DUP3 GT ISZERO PUSH2 0x1B65 JUMPI PUSH2 0x1B36 DUP2 PUSH2 0x1A05 JUMP JUMPDEST PUSH2 0x1B3F DUP5 PUSH2 0x1A1A JUMP JUMPDEST DUP2 ADD PUSH1 0x20 DUP6 LT ISZERO PUSH2 0x1B4E JUMPI DUP2 SWAP1 POP JUMPDEST PUSH2 0x1B62 PUSH2 0x1B5A DUP6 PUSH2 0x1A1A JUMP JUMPDEST DUP4 ADD DUP3 PUSH2 0x1B01 JUMP JUMPDEST POP POP JUMPDEST POP POP POP JUMP JUMPDEST PUSH1 0x0 DUP3 DUP3 SHR SWAP1 POP SWAP3 SWAP2 POP POP JUMP JUMPDEST PUSH1 0x0 PUSH2 0x1B88 PUSH1 0x0 NOT DUP5 PUSH1 0x8 MUL PUSH2 0x1B6A JUMP JUMPDEST NOT DUP1 DUP4 AND SWAP2 POP POP SWAP3 SWAP2 POP POP JUMP JUMPDEST PUSH1 0x0 PUSH2 0x1BA1 DUP4 DUP4 PUSH2 0x1B77 JUMP JUMPDEST SWAP2 POP DUP3 PUSH1 0x2 MUL DUP3 OR SWAP1 POP SWAP3 SWAP2 POP POP JUMP JUMPDEST PUSH2 0x1BBA DUP3 PUSH2 0x121A JUMP JUMPDEST PUSH8 0xFFFFFFFFFFFFFFFF DUP2 GT ISZERO PUSH2 0x1BD3 JUMPI PUSH2 0x1BD2 PUSH2 0x1449 JUMP JUMPDEST JUMPDEST PUSH2 0x1BDD DUP3 SLOAD PUSH2 0x1771 JUMP JUMPDEST PUSH2 0x1BE8 DUP3 DUP3 DUP6 PUSH2 0x1B24 JUMP JUMPDEST PUSH1 0x0 PUSH1 0x20 SWAP1 POP PUSH1 0x1F DUP4 GT PUSH1 0x1 DUP2 EQ PUSH2 0x1C1B JUMPI PUSH1 0x0 DUP5 ISZERO PUSH2 0x1C09 JUMPI DUP3 DUP8 ADD MLOAD SWAP1 POP JUMPDEST PUSH2 0x1C13 DUP6 DUP3 PUSH2 0x1B95 JUMP JUMPDEST DUP7 SSTORE POP PUSH2 0x1C7B JUMP JUMPDEST PUSH1 0x1F NOT DUP5 AND PUSH2 0x1C29 DUP7 PUSH2 0x1A05 JUMP JUMPDEST PUSH1 0x0 JUMPDEST DUP3 DUP2 LT ISZERO PUSH2 0x1C51 JUMPI DUP5 DUP10 ADD MLOAD DUP3 SSTORE PUSH1 0x1 DUP3 ADD SWAP2 POP PUSH1 0x20 DUP6 ADD SWAP5 POP PUSH1 0x20 DUP2 ADD SWAP1 POP PUSH2 0x1C2C JUMP JUMPDEST DUP7 DUP4 LT ISZERO PUSH2 0x1C6E JUMPI DUP5 DUP10 ADD MLOAD PUSH2 0x1C6A PUSH1 0x1F DUP10 AND DUP3 PUSH2 0x1B77 JUMP JUMPDEST DUP4 SSTORE POP JUMPDEST PUSH1 0x1 PUSH1 0x2 DUP9 MUL ADD DUP9 SSTORE POP POP POP JUMPDEST POP POP POP POP POP POP JUMP JUMPDEST PUSH1 0x0 PUSH2 0x1C8E DUP3 PUSH2 0x121A JUMP JUMPDEST PUSH2 0x1C98 DUP2 DUP6 PUSH2 0x191C JUMP JUMPDEST SWAP4 POP PUSH2 0x1CA8 DUP2 DUP6 PUSH1 0x20 DUP7 ADD PUSH2 0x1236 JUMP JUMPDEST PUSH2 0x1CB1 DUP2 PUSH2 0x1260 JUMP JUMPDEST DUP5 ADD SWAP2 POP POP SWAP3 SWAP2 POP POP JUMP JUMPDEST PUSH1 0x0 PUSH1 0x80 DUP3 ADD SWAP1 POP PUSH2 0x1CD1 PUSH1 0x0 DUP4 ADD DUP8 PUSH2 0x15BD JUMP JUMPDEST PUSH2 0x1CDE PUSH1 0x20 DUP4 ADD DUP7 PUSH2 0x15E7 JUMP JUMPDEST DUP2 DUP2 SUB PUSH1 0x40 DUP4 ADD MSTORE PUSH2 0x1CF0 DUP2 DUP6 PUSH2 0x1C83 JUMP JUMPDEST SWAP1 POP PUSH2 0x1CFF PUSH1 0x60 DUP4 ADD DUP5 PUSH2 0x15BD JUMP JUMPDEST SWAP6 SWAP5 POP POP POP POP POP JUMP JUMPDEST PUSH32 0x4E487B7100000000000000000000000000000000000000000000000000000000 PUSH1 0x0 MSTORE PUSH1 0x11 PUSH1 0x4 MSTORE PUSH1 0x24 PUSH1 0x0 REVERT JUMPDEST PUSH1 0x0 PUSH2 0x1D42 DUP3 PUSH2 0x11F2 JUMP JUMPDEST SWAP2 POP PUSH32 0xFFFFFFFFFFFFFFFFFFFFFFFFFFFFFFFFFFFFFFFFFFFFFFFFFFFFFFFFFFFFFFFF DUP3 SUB PUSH2 0x1D74 JUMPI PUSH2 0x1D73 PUSH2 0x1D08 JUMP JUMPDEST JUMPDEST PUSH1 0x1 DUP3 ADD SWAP1 POP SWAP2 SWAP1 POP JUMP JUMPDEST PUSH1 0x0 PUSH2 0x1D8A DUP3 PUSH2 0x11F2 JUMP JUMPDEST SWAP2 POP PUSH2 0x1D95 DUP4 PUSH2 0x11F2 JUMP JUMPDEST SWAP3 POP DUP3 DUP3 ADD SWAP1 POP DUP1 DUP3 GT ISZERO PUSH2 0x1DAD JUMPI PUSH2 0x1DAC PUSH2 0x1D08 JUMP JUMPDEST JUMPDEST SWAP3 SWAP2 POP POP JUMP JUMPDEST PUSH32 0x4C696B65732068617665206E6F74206164646564207965740000000000000000 PUSH1 0x0 DUP3 ADD MSTORE POP JUMP JUMPDEST PUSH1 0x0 PUSH2 0x1DE9 PUSH1 0x18 DUP4 PUSH2 0x191C JUMP JUMPDEST SWAP2 POP PUSH2 0x1DF4 DUP3 PUSH2 0x1DB3 JUMP JUMPDEST PUSH1 0x20 DUP3 ADD SWAP1 POP SWAP2 SWAP1 POP JUMP JUMPDEST PUSH1 0x0 PUSH1 0x20 DUP3 ADD SWAP1 POP DUP2 DUP2 SUB PUSH1 0x0 DUP4 ADD MSTORE PUSH2 0x1E18 DUP2 PUSH2 0x1DDC JUMP JUMPDEST SWAP1 POP SWAP2 SWAP1 POP JUMP JUMPDEST PUSH1 0x0 PUSH2 0x1E2A DUP3 PUSH2 0x11F2 JUMP JUMPDEST SWAP2 POP PUSH1 0x0 DUP3 SUB PUSH2 0x1E3D JUMPI PUSH2 0x1E3C PUSH2 0x1D08 JUMP JUMPDEST JUMPDEST PUSH1 0x1 DUP3 SUB SWAP1 POP SWAP2 SWAP1 POP JUMP JUMPDEST PUSH1 0x0 PUSH1 0x80 DUP3 ADD SWAP1 POP PUSH2 0x1E5D PUSH1 0x0 DUP4 ADD DUP8 PUSH2 0x15BD JUMP JUMPDEST PUSH2 0x1E6A PUSH1 0x20 DUP4 ADD DUP7 PUSH2 0x15E7 JUMP JUMPDEST PUSH2 0x1E77 PUSH1 0x40 DUP4 ADD DUP6 PUSH2 0x15BD JUMP JUMPDEST PUSH2 0x1E84 PUSH1 0x60 DUP4 ADD DUP5 PUSH2 0x15E7 JUMP JUMPDEST SWAP6 SWAP5 POP POP POP POP POP JUMP JUMPDEST PUSH32 0x547765657420646F6573206E6F74206578697374000000000000000000000000 PUSH1 0x0 DUP3 ADD MSTORE POP JUMP JUMPDEST PUSH1 0x0 PUSH2 0x1EC3 PUSH1 0x14 DUP4 PUSH2 0x191C JUMP JUMPDEST SWAP2 POP PUSH2 0x1ECE DUP3 PUSH2 0x1E8D JUMP JUMPDEST PUSH1 0x20 DUP3 ADD SWAP1 POP SWAP2 SWAP1 POP JUMP JUMPDEST PUSH1 0x0 PUSH1 0x20 DUP3 ADD SWAP1 POP DUP2 DUP2 SUB PUSH1 0x0 DUP4 ADD MSTORE PUSH2 0x1EF2 DUP2 PUSH2 0x1EB6 JUMP JUMPDEST SWAP1 POP SWAP2 SWAP1 POP JUMP INVALID LOG2 PUSH5 0x6970667358 0x22 SLT KECCAK256 0xD5 LOG4 0xD1 0x2D GASPRICE CALLER 0x22 0xD3 TLOAD SWAP11 ISZERO 0xDD 0xD4 0xDB 0xD9 DUP13 0xC PUSH20 0x31019BABCBF031087213A1D0740864736F6C6343 STOP ADDMOD XOR STOP CALLER "
				},
				"gasEstimates": {
					"creation": {
						"codeDepositCost": "1596600",
						"executionCost": "infinite",
						"totalCost": "infinite"
					},
					"external": {
						"changeTweetLength(uint16)": "infinite",
						"createTweet(string)": "infinite",
						"getAllTweets(address)": "infinite",
						"getOwner()": "2557",
						"getTotalLikes(address)": "infinite",
						"getTweet(uint256)": "infinite",
						"likeTweet(uint256,address)": "infinite",
						"owner()": "2544",
						"renounceOwnership()": "infinite",
						"transferOwnership(address)": "infinite",
						"unlikeTweet(uint256,address)": "infinite"
					}
				},
				"methodIdentifiers": {
					"changeTweetLength(uint16)": "58bfa4ab",
					"createTweet(string)": "7c9cd2bc",
					"getAllTweets(address)": "12e7ee1c",
					"getOwner()": "893d20e8",
					"getTotalLikes(address)": "820785cc",
					"getTweet(uint256)": "c3ad5ecb",
					"likeTweet(uint256,address)": "d04ddaa0",
					"owner()": "8da5cb5b",
					"renounceOwnership()": "715018a6",
					"transferOwnership(address)": "f2fde38b",
					"unlikeTweet(uint256,address)": "a1488f7c"
				}
			},
			"storageLayout": {
				"storage": [
					{
						"astId": 8,
						"contract": "contracts/Basic/Twitter.sol:Twitter",
						"label": "_owner",
						"offset": 0,
						"slot": "0",
						"type": "t_address"
					},
					{
						"astId": 206,
						"contract": "contracts/Basic/Twitter.sol:Twitter",
						"label": "MAX_TWEET_LENGTH",
						"offset": 20,
						"slot": "0",
						"type": "t_uint16"
					},
					{
						"astId": 209,
						"contract": "contracts/Basic/Twitter.sol:Twitter",
						"label": "currentTweetId",
						"offset": 0,
						"slot": "1",
						"type": "t_uint256"
					},
					{
						"astId": 227,
						"contract": "contracts/Basic/Twitter.sol:Twitter",
						"label": "tweets",
						"offset": 0,
						"slot": "2",
						"type": "t_mapping(t_address,t_mapping(t_uint256,t_struct(Tweet)220_storage))"
					},
					{
						"astId": 231,
						"contract": "contracts/Basic/Twitter.sol:Twitter",
						"label": "tweetCount",
						"offset": 0,
						"slot": "3",
						"type": "t_mapping(t_address,t_uint256)"
					},
					{
						"astId": 234,
						"contract": "contracts/Basic/Twitter.sol:Twitter",
						"label": "profileContract",
						"offset": 0,
						"slot": "4",
						"type": "t_contract(IProfile)201"
					}
				],
				"types": {
					"t_address": {
						"encoding": "inplace",
						"label": "address",
						"numberOfBytes": "20"
					},
					"t_contract(IProfile)201": {
						"encoding": "inplace",
						"label": "contract IProfile",
						"numberOfBytes": "20"
					},
					"t_mapping(t_address,t_mapping(t_uint256,t_struct(Tweet)220_storage))": {
						"encoding": "mapping",
						"key": "t_address",
						"label": "mapping(address => mapping(uint256 => struct Twitter.Tweet))",
						"numberOfBytes": "32",
						"value": "t_mapping(t_uint256,t_struct(Tweet)220_storage)"
					},
					"t_mapping(t_address,t_uint256)": {
						"encoding": "mapping",
						"key": "t_address",
						"label": "mapping(address => uint256)",
						"numberOfBytes": "32",
						"value": "t_uint256"
					},
					"t_mapping(t_uint256,t_struct(Tweet)220_storage)": {
						"encoding": "mapping",
						"key": "t_uint256",
						"label": "mapping(uint256 => struct Twitter.Tweet)",
						"numberOfBytes": "32",
						"value": "t_struct(Tweet)220_storage"
					},
					"t_string_storage": {
						"encoding": "bytes",
						"label": "string",
						"numberOfBytes": "32"
					},
					"t_struct(Tweet)220_storage": {
						"encoding": "inplace",
						"label": "struct Twitter.Tweet",
						"members": [
							{
								"astId": 211,
								"contract": "contracts/Basic/Twitter.sol:Twitter",
								"label": "id",
								"offset": 0,
								"slot": "0",
								"type": "t_uint256"
							},
							{
								"astId": 213,
								"contract": "contracts/Basic/Twitter.sol:Twitter",
								"label": "author",
								"offset": 0,
								"slot": "1",
								"type": "t_address"
							},
							{
								"astId": 215,
								"contract": "contracts/Basic/Twitter.sol:Twitter",
								"label": "content",
								"offset": 0,
								"slot": "2",
								"type": "t_string_storage"
							},
							{
								"astId": 217,
								"contract": "contracts/Basic/Twitter.sol:Twitter",
								"label": "timestamp",
								"offset": 0,
								"slot": "3",
								"type": "t_uint256"
							},
							{
								"astId": 219,
								"contract": "contracts/Basic/Twitter.sol:Twitter",
								"label": "likes",
								"offset": 0,
								"slot": "4",
								"type": "t_uint256"
							}
						],
						"numberOfBytes": "160"
					},
					"t_uint16": {
						"encoding": "inplace",
						"label": "uint16",
						"numberOfBytes": "2"
					},
					"t_uint256": {
						"encoding": "inplace",
						"label": "uint256",
						"numberOfBytes": "32"
					}
				}
			},
			"userdoc": {
				"kind": "user",
				"methods": {},
				"version": 1
			}
		}
	}
}