{
	"contracts/Expenses.sol": {
		"ExpenseTracker": {
			"abi": [
				{
					"inputs": [],
					"stateMutability": "nonpayable",
					"type": "constructor"
				},
				{
					"inputs": [
						{
							"internalType": "string",
							"name": "_description",
							"type": "string"
						},
						{
							"internalType": "uint256",
							"name": "_amount",
							"type": "uint256"
						}
					],
					"name": "addExpense",
					"outputs": [],
					"stateMutability": "nonpayable",
					"type": "function"
				},
				{
					"inputs": [
						{
							"internalType": "uint256",
							"name": "",
							"type": "uint256"
						}
					],
					"name": "expenses",
					"outputs": [
						{
							"internalType": "address",
							"name": "user",
							"type": "address"
						},
						{
							"internalType": "string",
							"name": "description",
							"type": "string"
						},
						{
							"internalType": "uint256",
							"name": "amount",
							"type": "uint256"
						}
					],
					"stateMutability": "view",
					"type": "function"
				},
				{
					"inputs": [
						{
							"internalType": "address",
							"name": "_user",
							"type": "address"
						}
					],
					"name": "getTotalExpenses",
					"outputs": [
						{
							"internalType": "uint256",
							"name": "",
							"type": "uint256"
						}
					],
					"stateMutability": "view",
					"type": "function"
				}
			],
			"devdoc": {
				"kind": "dev",
				"methods": {},
				"version": 1
			},
			"evm": {
				"assembly": "    /* \"contracts/Expenses.sol\":293:1104  contract ExpenseTracker {... */\n  mstore(0x40, 0x80)\n    /* \"contracts/Expenses.sol\":454:664  constructor() {... */\n  callvalue\n  dup1\n  iszero\n  tag_1\n  jumpi\n  0x00\n  dup1\n  revert\ntag_1:\n  pop\n    /* \"contracts/Expenses.sol\":478:486  expenses */\n  0x00\n    /* \"contracts/Expenses.sol\":492:528  Expense(msg.sender, \"Groceries\", 50) */\n  mload(0x40)\n  dup1\n  0x60\n  add\n  0x40\n  mstore\n  dup1\n    /* \"contracts/Expenses.sol\":500:510  msg.sender */\n  caller\n    /* \"contracts/Expenses.sol\":492:528  Expense(msg.sender, \"Groceries\", 50) */\n  0xffffffffffffffffffffffffffffffffffffffff\n  and\n  dup2\n  mstore\n  0x20\n  add\n  mload(0x40)\n  dup1\n  0x40\n  add\n  0x40\n  mstore\n  dup1\n  0x09\n  dup2\n  mstore\n  0x20\n  add\n  0x47726f6365726965730000000000000000000000000000000000000000000000\n  dup2\n  mstore\n  pop\n  dup2\n  mstore\n  0x20\n  add\n    /* \"contracts/Expenses.sol\":525:527  50 */\n  0x32\n    /* \"contracts/Expenses.sol\":492:528  Expense(msg.sender, \"Groceries\", 50) */\n  dup2\n  mstore\n  pop\n    /* \"contracts/Expenses.sol\":478:529  expenses.push(Expense(msg.sender, \"Groceries\", 50)) */\n  swap1\n  dup1\n  0x01\n  dup2\n  sload\n  add\n  dup1\n  dup3\n  sstore\n  dup1\n  swap2\n  pop\n  pop\n  0x01\n  swap1\n  sub\n  swap1\n  0x00\n  mstore\n  keccak256(0x00, 0x20)\n  swap1\n  0x03\n  mul\n  add\n  0x00\n  swap1\n  swap2\n  swap1\n  swap2\n  swap1\n  swap2\n  pop\n  0x00\n  dup3\n  add\n  mload\n  dup2\n  0x00\n  add\n  exp(0x0100, 0x00)\n  dup2\n  sload\n  dup2\n  0xffffffffffffffffffffffffffffffffffffffff\n  mul\n  not\n  and\n  swap1\n  dup4\n  0xffffffffffffffffffffffffffffffffffffffff\n  and\n  mul\n  or\n  swap1\n  sstore\n  pop\n  0x20\n  dup3\n  add\n  mload\n  dup2\n  0x01\n  add\n  swap1\n  dup2\n  tag_5\n  swap2\n  swap1\n  tag_6\n  jump\t// in\ntag_5:\n  pop\n  0x40\n  dup3\n  add\n  mload\n  dup2\n  0x02\n  add\n  sstore\n  pop\n  pop\n    /* \"contracts/Expenses.sol\":539:547  expenses */\n  0x00\n    /* \"contracts/Expenses.sol\":553:594  Expense(msg.sender, \"Transportation\", 30) */\n  mload(0x40)\n  dup1\n  0x60\n  add\n  0x40\n  mstore\n  dup1\n    /* \"contracts/Expenses.sol\":561:571  msg.sender */\n  caller\n    /* \"contracts/Expenses.sol\":553:594  Expense(msg.sender, \"Transportation\", 30) */\n  0xffffffffffffffffffffffffffffffffffffffff\n  and\n  dup2\n  mstore\n  0x20\n  add\n  mload(0x40)\n  dup1\n  0x40\n  add\n  0x40\n  mstore\n  dup1\n  0x0e\n  dup2\n  mstore\n  0x20\n  add\n  0x5472616e73706f72746174696f6e000000000000000000000000000000000000\n  dup2\n  mstore\n  pop\n  dup2\n  mstore\n  0x20\n  add\n    /* \"contracts/Expenses.sol\":591:593  30 */\n  0x1e\n    /* \"contracts/Expenses.sol\":553:594  Expense(msg.sender, \"Transportation\", 30) */\n  dup2\n  mstore\n  pop\n    /* \"contracts/Expenses.sol\":539:595  expenses.push(Expense(msg.sender, \"Transportation\", 30)) */\n  swap1\n  dup1\n  0x01\n  dup2\n  sload\n  add\n  dup1\n  dup3\n  sstore\n  dup1\n  swap2\n  pop\n  pop\n  0x01\n  swap1\n  sub\n  swap1\n  0x00\n  mstore\n  keccak256(0x00, 0x20)\n  swap1\n  0x03\n  mul\n  add\n  0x00\n  swap1\n  swap2\n  swap1\n  swap2\n  swap1\n  swap2\n  pop\n  0x00\n  dup3\n  add\n  mload\n  dup2\n  0x00\n  add\n  exp(0x0100, 0x00)\n  dup2\n  sload\n  dup2\n  0xffffffffffffffffffffffffffffffffffffffff\n  mul\n  not\n  and\n  swap1\n  dup4\n  0xffffffffffffffffffffffffffffffffffffffff\n  and\n  mul\n  or\n  swap1\n  sstore\n  pop\n  0x20\n  dup3\n  add\n  mload\n  dup2\n  0x01\n  add\n  swap1\n  dup2\n  tag_8\n  swap2\n  swap1\n  tag_6\n  jump\t// in\ntag_8:\n  pop\n  0x40\n  dup3\n  add\n  mload\n  dup2\n  0x02\n  add\n  sstore\n  pop\n  pop\n    /* \"contracts/Expenses.sol\":605:613  expenses */\n  0x00\n    /* \"contracts/Expenses.sol\":619:656  Expense(msg.sender, \"Dining out\", 25) */\n  mload(0x40)\n  dup1\n  0x60\n  add\n  0x40\n  mstore\n  dup1\n    /* \"contracts/Expenses.sol\":627:637  msg.sender */\n  caller\n    /* \"contracts/Expenses.sol\":619:656  Expense(msg.sender, \"Dining out\", 25) */\n  0xffffffffffffffffffffffffffffffffffffffff\n  and\n  dup2\n  mstore\n  0x20\n  add\n  mload(0x40)\n  dup1\n  0x40\n  add\n  0x40\n  mstore\n  dup1\n  0x0a\n  dup2\n  mstore\n  0x20\n  add\n  0x44696e696e67206f757400000000000000000000000000000000000000000000\n  dup2\n  mstore\n  pop\n  dup2\n  mstore\n  0x20\n  add\n    /* \"contracts/Expenses.sol\":653:655  25 */\n  0x19\n    /* \"contracts/Expenses.sol\":619:656  Expense(msg.sender, \"Dining out\", 25) */\n  dup2\n  mstore\n  pop\n    /* \"contracts/Expenses.sol\":605:657  expenses.push(Expense(msg.sender, \"Dining out\", 25)) */\n  swap1\n  dup1\n  0x01\n  dup2\n  sload\n  add\n  dup1\n  dup3\n  sstore\n  dup1\n  swap2\n  pop\n  pop\n  0x01\n  swap1\n  sub\n  swap1\n  0x00\n  mstore\n  keccak256(0x00, 0x20)\n  swap1\n  0x03\n  mul\n  add\n  0x00\n  swap1\n  swap2\n  swap1\n  swap2\n  swap1\n  swap2\n  pop\n  0x00\n  dup3\n  add\n  mload\n  dup2\n  0x00\n  add\n  exp(0x0100, 0x00)\n  dup2\n  sload\n  dup2\n  0xffffffffffffffffffffffffffffffffffffffff\n  mul\n  not\n  and\n  swap1\n  dup4\n  0xffffffffffffffffffffffffffffffffffffffff\n  and\n  mul\n  or\n  swap1\n  sstore\n  pop\n  0x20\n  dup3\n  add\n  mload\n  dup2\n  0x01\n  add\n  swap1\n  dup2\n  tag_10\n  swap2\n  swap1\n  tag_6\n  jump\t// in\ntag_10:\n  pop\n  0x40\n  dup3\n  add\n  mload\n  dup2\n  0x02\n  add\n  sstore\n  pop\n  pop\n    /* \"contracts/Expenses.sol\":293:1104  contract ExpenseTracker {... */\n  jump(tag_11)\n    /* \"#utility.yul\":7:106   */\ntag_12:\n    /* \"#utility.yul\":59:65   */\n  0x00\n    /* \"#utility.yul\":93:98   */\n  dup2\n    /* \"#utility.yul\":87:99   */\n  mload\n    /* \"#utility.yul\":77:99   */\n  swap1\n  pop\n    /* \"#utility.yul\":7:106   */\n  swap2\n  swap1\n  pop\n  jump\t// out\n    /* \"#utility.yul\":112:292   */\ntag_13:\n    /* \"#utility.yul\":160:237   */\n  0x4e487b7100000000000000000000000000000000000000000000000000000000\n    /* \"#utility.yul\":157:158   */\n  0x00\n    /* \"#utility.yul\":150:238   */\n  mstore\n    /* \"#utility.yul\":257:261   */\n  0x41\n    /* \"#utility.yul\":254:255   */\n  0x04\n    /* \"#utility.yul\":247:262   */\n  mstore\n    /* \"#utility.yul\":281:285   */\n  0x24\n    /* \"#utility.yul\":278:279   */\n  0x00\n    /* \"#utility.yul\":271:286   */\n  revert\n    /* \"#utility.yul\":298:478   */\ntag_14:\n    /* \"#utility.yul\":346:423   */\n  0x4e487b7100000000000000000000000000000000000000000000000000000000\n    /* \"#utility.yul\":343:344   */\n  0x00\n    /* \"#utility.yul\":336:424   */\n  mstore\n    /* \"#utility.yul\":443:447   */\n  0x22\n    /* \"#utility.yul\":440:441   */\n  0x04\n    /* \"#utility.yul\":433:448   */\n  mstore\n    /* \"#utility.yul\":467:471   */\n  0x24\n    /* \"#utility.yul\":464:465   */\n  0x00\n    /* \"#utility.yul\":457:472   */\n  revert\n    /* \"#utility.yul\":484:804   */\ntag_15:\n    /* \"#utility.yul\":528:534   */\n  0x00\n    /* \"#utility.yul\":565:566   */\n  0x02\n    /* \"#utility.yul\":559:563   */\n  dup3\n    /* \"#utility.yul\":555:567   */\n  div\n    /* \"#utility.yul\":545:567   */\n  swap1\n  pop\n    /* \"#utility.yul\":612:613   */\n  0x01\n    /* \"#utility.yul\":606:610   */\n  dup3\n    /* \"#utility.yul\":602:614   */\n  and\n    /* \"#utility.yul\":633:651   */\n  dup1\n    /* \"#utility.yul\":623:704   */\n  tag_37\n  jumpi\n    /* \"#utility.yul\":689:693   */\n  0x7f\n    /* \"#utility.yul\":681:687   */\n  dup3\n    /* \"#utility.yul\":677:694   */\n  and\n    /* \"#utility.yul\":667:694   */\n  swap2\n  pop\n    /* \"#utility.yul\":623:704   */\ntag_37:\n    /* \"#utility.yul\":751:753   */\n  0x20\n    /* \"#utility.yul\":743:749   */\n  dup3\n    /* \"#utility.yul\":740:754   */\n  lt\n    /* \"#utility.yul\":720:738   */\n  dup2\n    /* \"#utility.yul\":717:755   */\n  sub\n    /* \"#utility.yul\":714:798   */\n  tag_38\n  jumpi\n    /* \"#utility.yul\":770:788   */\n  tag_39\n  tag_14\n  jump\t// in\ntag_39:\n    /* \"#utility.yul\":714:798   */\ntag_38:\n    /* \"#utility.yul\":535:804   */\n  pop\n    /* \"#utility.yul\":484:804   */\n  swap2\n  swap1\n  pop\n  jump\t// out\n    /* \"#utility.yul\":810:951   */\ntag_16:\n    /* \"#utility.yul\":859:863   */\n  0x00\n    /* \"#utility.yul\":882:885   */\n  dup2\n    /* \"#utility.yul\":874:885   */\n  swap1\n  pop\n    /* \"#utility.yul\":905:908   */\n  dup2\n    /* \"#utility.yul\":902:903   */\n  0x00\n    /* \"#utility.yul\":895:909   */\n  mstore\n    /* \"#utility.yul\":939:943   */\n  0x20\n    /* \"#utility.yul\":936:937   */\n  0x00\n    /* \"#utility.yul\":926:944   */\n  keccak256\n    /* \"#utility.yul\":918:944   */\n  swap1\n  pop\n    /* \"#utility.yul\":810:951   */\n  swap2\n  swap1\n  pop\n  jump\t// out\n    /* \"#utility.yul\":957:1050   */\ntag_17:\n    /* \"#utility.yul\":994:1000   */\n  0x00\n    /* \"#utility.yul\":1041:1043   */\n  0x20\n    /* \"#utility.yul\":1036:1038   */\n  0x1f\n    /* \"#utility.yul\":1029:1034   */\n  dup4\n    /* \"#utility.yul\":1025:1039   */\n  add\n    /* \"#utility.yul\":1021:1044   */\n  div\n    /* \"#utility.yul\":1011:1044   */\n  swap1\n  pop\n    /* \"#utility.yul\":957:1050   */\n  swap2\n  swap1\n  pop\n  jump\t// out\n    /* \"#utility.yul\":1056:1163   */\ntag_18:\n    /* \"#utility.yul\":1100:1108   */\n  0x00\n    /* \"#utility.yul\":1150:1155   */\n  dup3\n    /* \"#utility.yul\":1144:1148   */\n  dup3\n    /* \"#utility.yul\":1140:1156   */\n  shl\n    /* \"#utility.yul\":1119:1156   */\n  swap1\n  pop\n    /* \"#utility.yul\":1056:1163   */\n  swap3\n  swap2\n  pop\n  pop\n  jump\t// out\n    /* \"#utility.yul\":1169:1562   */\ntag_19:\n    /* \"#utility.yul\":1238:1244   */\n  0x00\n    /* \"#utility.yul\":1288:1289   */\n  0x08\n    /* \"#utility.yul\":1276:1286   */\n  dup4\n    /* \"#utility.yul\":1272:1290   */\n  mul\n    /* \"#utility.yul\":1311:1408   */\n  tag_44\n    /* \"#utility.yul\":1341:1407   */\n  0xffffffffffffffffffffffffffffffffffffffffffffffffffffffffffffffff\n    /* \"#utility.yul\":1330:1339   */\n  dup3\n    /* \"#utility.yul\":1311:1408   */\n  tag_18\n  jump\t// in\ntag_44:\n    /* \"#utility.yul\":1429:1468   */\n  tag_45\n    /* \"#utility.yul\":1459:1467   */\n  dup7\n    /* \"#utility.yul\":1448:1457   */\n  dup4\n    /* \"#utility.yul\":1429:1468   */\n  tag_18\n  jump\t// in\ntag_45:\n    /* \"#utility.yul\":1417:1468   */\n  swap6\n  pop\n    /* \"#utility.yul\":1501:1505   */\n  dup1\n    /* \"#utility.yul\":1497:1506   */\n  not\n    /* \"#utility.yul\":1490:1495   */\n  dup5\n    /* \"#utility.yul\":1486:1507   */\n  and\n    /* \"#utility.yul\":1477:1507   */\n  swap4\n  pop\n    /* \"#utility.yul\":1550:1554   */\n  dup1\n    /* \"#utility.yul\":1540:1548   */\n  dup7\n    /* \"#utility.yul\":1536:1555   */\n  and\n    /* \"#utility.yul\":1529:1534   */\n  dup5\n    /* \"#utility.yul\":1526:1556   */\n  or\n    /* \"#utility.yul\":1516:1556   */\n  swap3\n  pop\n    /* \"#utility.yul\":1245:1562   */\n  pop\n  pop\n    /* \"#utility.yul\":1169:1562   */\n  swap4\n  swap3\n  pop\n  pop\n  pop\n  jump\t// out\n    /* \"#utility.yul\":1568:1645   */\ntag_20:\n    /* \"#utility.yul\":1605:1612   */\n  0x00\n    /* \"#utility.yul\":1634:1639   */\n  dup2\n    /* \"#utility.yul\":1623:1639   */\n  swap1\n  pop\n    /* \"#utility.yul\":1568:1645   */\n  swap2\n  swap1\n  pop\n  jump\t// out\n    /* \"#utility.yul\":1651:1711   */\ntag_21:\n    /* \"#utility.yul\":1679:1682   */\n  0x00\n    /* \"#utility.yul\":1700:1705   */\n  dup2\n    /* \"#utility.yul\":1693:1705   */\n  swap1\n  pop\n    /* \"#utility.yul\":1651:1711   */\n  swap2\n  swap1\n  pop\n  jump\t// out\n    /* \"#utility.yul\":1717:1859   */\ntag_22:\n    /* \"#utility.yul\":1767:1776   */\n  0x00\n    /* \"#utility.yul\":1800:1853   */\n  tag_49\n    /* \"#utility.yul\":1818:1852   */\n  tag_50\n    /* \"#utility.yul\":1827:1851   */\n  tag_51\n    /* \"#utility.yul\":1845:1850   */\n  dup5\n    /* \"#utility.yul\":1827:1851   */\n  tag_20\n  jump\t// in\ntag_51:\n    /* \"#utility.yul\":1818:1852   */\n  tag_21\n  jump\t// in\ntag_50:\n    /* \"#utility.yul\":1800:1853   */\n  tag_20\n  jump\t// in\ntag_49:\n    /* \"#utility.yul\":1787:1853   */\n  swap1\n  pop\n    /* \"#utility.yul\":1717:1859   */\n  swap2\n  swap1\n  pop\n  jump\t// out\n    /* \"#utility.yul\":1865:1940   */\ntag_23:\n    /* \"#utility.yul\":1908:1911   */\n  0x00\n    /* \"#utility.yul\":1929:1934   */\n  dup2\n    /* \"#utility.yul\":1922:1934   */\n  swap1\n  pop\n    /* \"#utility.yul\":1865:1940   */\n  swap2\n  swap1\n  pop\n  jump\t// out\n    /* \"#utility.yul\":1946:2215   */\ntag_24:\n    /* \"#utility.yul\":2056:2095   */\n  tag_54\n    /* \"#utility.yul\":2087:2094   */\n  dup4\n    /* \"#utility.yul\":2056:2095   */\n  tag_22\n  jump\t// in\ntag_54:\n    /* \"#utility.yul\":2117:2208   */\n  tag_55\n    /* \"#utility.yul\":2166:2207   */\n  tag_56\n    /* \"#utility.yul\":2190:2206   */\n  dup3\n    /* \"#utility.yul\":2166:2207   */\n  tag_23\n  jump\t// in\ntag_56:\n    /* \"#utility.yul\":2158:2164   */\n  dup5\n    /* \"#utility.yul\":2151:2155   */\n  dup5\n    /* \"#utility.yul\":2145:2156   */\n  sload\n    /* \"#utility.yul\":2117:2208   */\n  tag_19\n  jump\t// in\ntag_55:\n    /* \"#utility.yul\":2111:2115   */\n  dup3\n    /* \"#utility.yul\":2104:2209   */\n  sstore\n    /* \"#utility.yul\":2022:2215   */\n  pop\n    /* \"#utility.yul\":1946:2215   */\n  pop\n  pop\n  pop\n  jump\t// out\n    /* \"#utility.yul\":2221:2294   */\ntag_25:\n    /* \"#utility.yul\":2266:2269   */\n  0x00\n    /* \"#utility.yul\":2221:2294   */\n  swap1\n  jump\t// out\n    /* \"#utility.yul\":2300:2489   */\ntag_26:\n    /* \"#utility.yul\":2377:2409   */\n  tag_59\n  tag_25\n  jump\t// in\ntag_59:\n    /* \"#utility.yul\":2418:2483   */\n  tag_60\n    /* \"#utility.yul\":2476:2482   */\n  dup2\n    /* \"#utility.yul\":2468:2474   */\n  dup5\n    /* \"#utility.yul\":2462:2466   */\n  dup5\n    /* \"#utility.yul\":2418:2483   */\n  tag_24\n  jump\t// in\ntag_60:\n    /* \"#utility.yul\":2353:2489   */\n  pop\n    /* \"#utility.yul\":2300:2489   */\n  pop\n  pop\n  jump\t// out\n    /* \"#utility.yul\":2495:2681   */\ntag_27:\n    /* \"#utility.yul\":2555:2675   */\ntag_62:\n    /* \"#utility.yul\":2572:2575   */\n  dup2\n    /* \"#utility.yul\":2565:2570   */\n  dup2\n    /* \"#utility.yul\":2562:2576   */\n  lt\n    /* \"#utility.yul\":2555:2675   */\n  iszero\n  tag_64\n  jumpi\n    /* \"#utility.yul\":2626:2665   */\n  tag_65\n    /* \"#utility.yul\":2663:2664   */\n  0x00\n    /* \"#utility.yul\":2656:2661   */\n  dup3\n    /* \"#utility.yul\":2626:2665   */\n  tag_26\n  jump\t// in\ntag_65:\n    /* \"#utility.yul\":2599:2600   */\n  0x01\n    /* \"#utility.yul\":2592:2597   */\n  dup2\n    /* \"#utility.yul\":2588:2601   */\n  add\n    /* \"#utility.yul\":2579:2601   */\n  swap1\n  pop\n    /* \"#utility.yul\":2555:2675   */\n  jump(tag_62)\ntag_64:\n    /* \"#utility.yul\":2495:2681   */\n  pop\n  pop\n  jump\t// out\n    /* \"#utility.yul\":2687:3230   */\ntag_28:\n    /* \"#utility.yul\":2788:2790   */\n  0x1f\n    /* \"#utility.yul\":2783:2786   */\n  dup3\n    /* \"#utility.yul\":2780:2791   */\n  gt\n    /* \"#utility.yul\":2777:3223   */\n  iszero\n  tag_67\n  jumpi\n    /* \"#utility.yul\":2822:2860   */\n  tag_68\n    /* \"#utility.yul\":2854:2859   */\n  dup2\n    /* \"#utility.yul\":2822:2860   */\n  tag_16\n  jump\t// in\ntag_68:\n    /* \"#utility.yul\":2906:2935   */\n  tag_69\n    /* \"#utility.yul\":2924:2934   */\n  dup5\n    /* \"#utility.yul\":2906:2935   */\n  tag_17\n  jump\t// in\ntag_69:\n    /* \"#utility.yul\":2896:2904   */\n  dup2\n    /* \"#utility.yul\":2892:2936   */\n  add\n    /* \"#utility.yul\":3089:3091   */\n  0x20\n    /* \"#utility.yul\":3077:3087   */\n  dup6\n    /* \"#utility.yul\":3074:3092   */\n  lt\n    /* \"#utility.yul\":3071:3120   */\n  iszero\n  tag_70\n  jumpi\n    /* \"#utility.yul\":3110:3118   */\n  dup2\n    /* \"#utility.yul\":3095:3118   */\n  swap1\n  pop\n    /* \"#utility.yul\":3071:3120   */\ntag_70:\n    /* \"#utility.yul\":3133:3213   */\n  tag_71\n    /* \"#utility.yul\":3189:3211   */\n  tag_72\n    /* \"#utility.yul\":3207:3210   */\n  dup6\n    /* \"#utility.yul\":3189:3211   */\n  tag_17\n  jump\t// in\ntag_72:\n    /* \"#utility.yul\":3179:3187   */\n  dup4\n    /* \"#utility.yul\":3175:3212   */\n  add\n    /* \"#utility.yul\":3162:3173   */\n  dup3\n    /* \"#utility.yul\":3133:3213   */\n  tag_27\n  jump\t// in\ntag_71:\n    /* \"#utility.yul\":2792:3223   */\n  pop\n  pop\n    /* \"#utility.yul\":2777:3223   */\ntag_67:\n    /* \"#utility.yul\":2687:3230   */\n  pop\n  pop\n  pop\n  jump\t// out\n    /* \"#utility.yul\":3236:3353   */\ntag_29:\n    /* \"#utility.yul\":3290:3298   */\n  0x00\n    /* \"#utility.yul\":3340:3345   */\n  dup3\n    /* \"#utility.yul\":3334:3338   */\n  dup3\n    /* \"#utility.yul\":3330:3346   */\n  shr\n    /* \"#utility.yul\":3309:3346   */\n  swap1\n  pop\n    /* \"#utility.yul\":3236:3353   */\n  swap3\n  swap2\n  pop\n  pop\n  jump\t// out\n    /* \"#utility.yul\":3359:3528   */\ntag_30:\n    /* \"#utility.yul\":3403:3409   */\n  0x00\n    /* \"#utility.yul\":3436:3487   */\n  tag_75\n    /* \"#utility.yul\":3484:3485   */\n  0x00\n    /* \"#utility.yul\":3480:3486   */\n  not\n    /* \"#utility.yul\":3472:3477   */\n  dup5\n    /* \"#utility.yul\":3469:3470   */\n  0x08\n    /* \"#utility.yul\":3465:3478   */\n  mul\n    /* \"#utility.yul\":3436:3487   */\n  tag_29\n  jump\t// in\ntag_75:\n    /* \"#utility.yul\":3432:3488   */\n  not\n    /* \"#utility.yul\":3517:3521   */\n  dup1\n    /* \"#utility.yul\":3511:3515   */\n  dup4\n    /* \"#utility.yul\":3507:3522   */\n  and\n    /* \"#utility.yul\":3497:3522   */\n  swap2\n  pop\n    /* \"#utility.yul\":3410:3528   */\n  pop\n    /* \"#utility.yul\":3359:3528   */\n  swap3\n  swap2\n  pop\n  pop\n  jump\t// out\n    /* \"#utility.yul\":3533:3828   */\ntag_31:\n    /* \"#utility.yul\":3609:3613   */\n  0x00\n    /* \"#utility.yul\":3755:3784   */\n  tag_77\n    /* \"#utility.yul\":3780:3783   */\n  dup4\n    /* \"#utility.yul\":3774:3778   */\n  dup4\n    /* \"#utility.yul\":3755:3784   */\n  tag_30\n  jump\t// in\ntag_77:\n    /* \"#utility.yul\":3747:3784   */\n  swap2\n  pop\n    /* \"#utility.yul\":3817:3820   */\n  dup3\n    /* \"#utility.yul\":3814:3815   */\n  0x02\n    /* \"#utility.yul\":3810:3821   */\n  mul\n    /* \"#utility.yul\":3804:3808   */\n  dup3\n    /* \"#utility.yul\":3801:3822   */\n  or\n    /* \"#utility.yul\":3793:3822   */\n  swap1\n  pop\n    /* \"#utility.yul\":3533:3828   */\n  swap3\n  swap2\n  pop\n  pop\n  jump\t// out\n    /* \"#utility.yul\":3833:5228   */\ntag_6:\n    /* \"#utility.yul\":3950:3987   */\n  tag_79\n    /* \"#utility.yul\":3983:3986   */\n  dup3\n    /* \"#utility.yul\":3950:3987   */\n  tag_12\n  jump\t// in\ntag_79:\n    /* \"#utility.yul\":4052:4070   */\n  0xffffffffffffffff\n    /* \"#utility.yul\":4044:4050   */\n  dup2\n    /* \"#utility.yul\":4041:4071   */\n  gt\n    /* \"#utility.yul\":4038:4094   */\n  iszero\n  tag_80\n  jumpi\n    /* \"#utility.yul\":4074:4092   */\n  tag_81\n  tag_13\n  jump\t// in\ntag_81:\n    /* \"#utility.yul\":4038:4094   */\ntag_80:\n    /* \"#utility.yul\":4118:4156   */\n  tag_82\n    /* \"#utility.yul\":4150:4154   */\n  dup3\n    /* \"#utility.yul\":4144:4155   */\n  sload\n    /* \"#utility.yul\":4118:4156   */\n  tag_15\n  jump\t// in\ntag_82:\n    /* \"#utility.yul\":4203:4270   */\n  tag_83\n    /* \"#utility.yul\":4263:4269   */\n  dup3\n    /* \"#utility.yul\":4255:4261   */\n  dup3\n    /* \"#utility.yul\":4249:4253   */\n  dup6\n    /* \"#utility.yul\":4203:4270   */\n  tag_28\n  jump\t// in\ntag_83:\n    /* \"#utility.yul\":4297:4298   */\n  0x00\n    /* \"#utility.yul\":4321:4325   */\n  0x20\n    /* \"#utility.yul\":4308:4325   */\n  swap1\n  pop\n    /* \"#utility.yul\":4353:4355   */\n  0x1f\n    /* \"#utility.yul\":4345:4351   */\n  dup4\n    /* \"#utility.yul\":4342:4356   */\n  gt\n    /* \"#utility.yul\":4370:4371   */\n  0x01\n    /* \"#utility.yul\":4365:4983   */\n  dup2\n  eq\n  tag_85\n  jumpi\n    /* \"#utility.yul\":5027:5028   */\n  0x00\n    /* \"#utility.yul\":5044:5050   */\n  dup5\n    /* \"#utility.yul\":5041:5118   */\n  iszero\n  tag_86\n  jumpi\n    /* \"#utility.yul\":5093:5102   */\n  dup3\n    /* \"#utility.yul\":5088:5091   */\n  dup8\n    /* \"#utility.yul\":5084:5103   */\n  add\n    /* \"#utility.yul\":5078:5104   */\n  mload\n    /* \"#utility.yul\":5069:5104   */\n  swap1\n  pop\n    /* \"#utility.yul\":5041:5118   */\ntag_86:\n    /* \"#utility.yul\":5144:5211   */\n  tag_87\n    /* \"#utility.yul\":5204:5210   */\n  dup6\n    /* \"#utility.yul\":5197:5202   */\n  dup3\n    /* \"#utility.yul\":5144:5211   */\n  tag_31\n  jump\t// in\ntag_87:\n    /* \"#utility.yul\":5138:5142   */\n  dup7\n    /* \"#utility.yul\":5131:5212   */\n  sstore\n    /* \"#utility.yul\":5000:5222   */\n  pop\n    /* \"#utility.yul\":4335:5222   */\n  jump(tag_84)\n    /* \"#utility.yul\":4365:4983   */\ntag_85:\n    /* \"#utility.yul\":4417:4421   */\n  0x1f\n    /* \"#utility.yul\":4413:4422   */\n  not\n    /* \"#utility.yul\":4405:4411   */\n  dup5\n    /* \"#utility.yul\":4401:4423   */\n  and\n    /* \"#utility.yul\":4451:4488   */\n  tag_88\n    /* \"#utility.yul\":4483:4487   */\n  dup7\n    /* \"#utility.yul\":4451:4488   */\n  tag_16\n  jump\t// in\ntag_88:\n    /* \"#utility.yul\":4510:4511   */\n  0x00\n    /* \"#utility.yul\":4524:4732   */\ntag_89:\n    /* \"#utility.yul\":4538:4545   */\n  dup3\n    /* \"#utility.yul\":4535:4536   */\n  dup2\n    /* \"#utility.yul\":4532:4546   */\n  lt\n    /* \"#utility.yul\":4524:4732   */\n  iszero\n  tag_91\n  jumpi\n    /* \"#utility.yul\":4617:4626   */\n  dup5\n    /* \"#utility.yul\":4612:4615   */\n  dup10\n    /* \"#utility.yul\":4608:4627   */\n  add\n    /* \"#utility.yul\":4602:4628   */\n  mload\n    /* \"#utility.yul\":4594:4600   */\n  dup3\n    /* \"#utility.yul\":4587:4629   */\n  sstore\n    /* \"#utility.yul\":4668:4669   */\n  0x01\n    /* \"#utility.yul\":4660:4666   */\n  dup3\n    /* \"#utility.yul\":4656:4670   */\n  add\n    /* \"#utility.yul\":4646:4670   */\n  swap2\n  pop\n    /* \"#utility.yul\":4715:4717   */\n  0x20\n    /* \"#utility.yul\":4704:4713   */\n  dup6\n    /* \"#utility.yul\":4700:4718   */\n  add\n    /* \"#utility.yul\":4687:4718   */\n  swap5\n  pop\n    /* \"#utility.yul\":4561:4565   */\n  0x20\n    /* \"#utility.yul\":4558:4559   */\n  dup2\n    /* \"#utility.yul\":4554:4566   */\n  add\n    /* \"#utility.yul\":4549:4566   */\n  swap1\n  pop\n    /* \"#utility.yul\":4524:4732   */\n  jump(tag_89)\ntag_91:\n    /* \"#utility.yul\":4760:4766   */\n  dup7\n    /* \"#utility.yul\":4751:4758   */\n  dup4\n    /* \"#utility.yul\":4748:4767   */\n  lt\n    /* \"#utility.yul\":4745:4924   */\n  iszero\n  tag_92\n  jumpi\n    /* \"#utility.yul\":4818:4827   */\n  dup5\n    /* \"#utility.yul\":4813:4816   */\n  dup10\n    /* \"#utility.yul\":4809:4828   */\n  add\n    /* \"#utility.yul\":4803:4829   */\n  mload\n    /* \"#utility.yul\":4861:4909   */\n  tag_93\n    /* \"#utility.yul\":4903:4907   */\n  0x1f\n    /* \"#utility.yul\":4895:4901   */\n  dup10\n    /* \"#utility.yul\":4891:4908   */\n  and\n    /* \"#utility.yul\":4880:4889   */\n  dup3\n    /* \"#utility.yul\":4861:4909   */\n  tag_30\n  jump\t// in\ntag_93:\n    /* \"#utility.yul\":4853:4859   */\n  dup4\n    /* \"#utility.yul\":4846:4910   */\n  sstore\n    /* \"#utility.yul\":4768:4924   */\n  pop\n    /* \"#utility.yul\":4745:4924   */\ntag_92:\n    /* \"#utility.yul\":4970:4971   */\n  0x01\n    /* \"#utility.yul\":4966:4967   */\n  0x02\n    /* \"#utility.yul\":4958:4964   */\n  dup9\n    /* \"#utility.yul\":4954:4968   */\n  mul\n    /* \"#utility.yul\":4950:4972   */\n  add\n    /* \"#utility.yul\":4944:4948   */\n  dup9\n    /* \"#utility.yul\":4937:4973   */\n  sstore\n    /* \"#utility.yul\":4372:4983   */\n  pop\n  pop\n  pop\n    /* \"#utility.yul\":4335:5222   */\ntag_84:\n  pop\n    /* \"#utility.yul\":3925:5228   */\n  pop\n  pop\n  pop\n    /* \"#utility.yul\":3833:5228   */\n  pop\n  pop\n  jump\t// out\n    /* \"contracts/Expenses.sol\":293:1104  contract ExpenseTracker {... */\ntag_11:\n  dataSize(sub_0)\n  dup1\n  dataOffset(sub_0)\n  0x00\n  codecopy\n  0x00\n  return\nstop\n\nsub_0: assembly {\n        /* \"contracts/Expenses.sol\":293:1104  contract ExpenseTracker {... */\n      mstore(0x40, 0x80)\n      callvalue\n      dup1\n      iszero\n      tag_1\n      jumpi\n      0x00\n      dup1\n      revert\n    tag_1:\n      pop\n      jumpi(tag_2, lt(calldatasize, 0x04))\n      shr(0xe0, calldataload(0x00))\n      dup1\n      0x3fb457e4\n      eq\n      tag_3\n      jumpi\n      dup1\n      0xa4df1f5a\n      eq\n      tag_4\n      jumpi\n      dup1\n      0xaf4afe0a\n      eq\n      tag_5\n      jumpi\n    tag_2:\n      0x00\n      dup1\n      revert\n        /* \"contracts/Expenses.sol\":819:1102  function getTotalExpenses(address _user) public view returns (uint) {... */\n    tag_3:\n      tag_6\n      0x04\n      dup1\n      calldatasize\n      sub\n      dup2\n      add\n      swap1\n      tag_7\n      swap2\n      swap1\n      tag_8\n      jump\t// in\n    tag_7:\n      tag_9\n      jump\t// in\n    tag_6:\n      mload(0x40)\n      tag_10\n      swap2\n      swap1\n      tag_11\n      jump\t// in\n    tag_10:\n      mload(0x40)\n      dup1\n      swap2\n      sub\n      swap1\n      return\n        /* \"contracts/Expenses.sol\":670:813  function addExpense(string memory _description, uint _amount) public {... */\n    tag_4:\n      tag_12\n      0x04\n      dup1\n      calldatasize\n      sub\n      dup2\n      add\n      swap1\n      tag_13\n      swap2\n      swap1\n      tag_14\n      jump\t// in\n    tag_13:\n      tag_15\n      jump\t// in\n    tag_12:\n      stop\n        /* \"contracts/Expenses.sol\":422:447  Expense[] public expenses */\n    tag_5:\n      tag_16\n      0x04\n      dup1\n      calldatasize\n      sub\n      dup2\n      add\n      swap1\n      tag_17\n      swap2\n      swap1\n      tag_18\n      jump\t// in\n    tag_17:\n      tag_19\n      jump\t// in\n    tag_16:\n      mload(0x40)\n      tag_20\n      swap4\n      swap3\n      swap2\n      swap1\n      tag_21\n      jump\t// in\n    tag_20:\n      mload(0x40)\n      dup1\n      swap2\n      sub\n      swap1\n      return\n        /* \"contracts/Expenses.sol\":819:1102  function getTotalExpenses(address _user) public view returns (uint) {... */\n    tag_9:\n        /* \"contracts/Expenses.sol\":881:885  uint */\n      0x00\n        /* \"contracts/Expenses.sol\":897:905  uint sum */\n      dup1\n        /* \"contracts/Expenses.sol\":908:909  0 */\n      0x00\n        /* \"contracts/Expenses.sol\":897:909  uint sum = 0 */\n      swap1\n      pop\n        /* \"contracts/Expenses.sol\":924:930  uint i */\n      0x00\n        /* \"contracts/Expenses.sol\":919:1075  for (uint i = 0; i < expenses.length; i++) {... */\n    tag_23:\n        /* \"contracts/Expenses.sol\":940:948  expenses */\n      0x00\n        /* \"contracts/Expenses.sol\":940:955  expenses.length */\n      dup1\n      sload\n      swap1\n      pop\n        /* \"contracts/Expenses.sol\":936:937  i */\n      dup2\n        /* \"contracts/Expenses.sol\":936:955  i < expenses.length */\n      lt\n        /* \"contracts/Expenses.sol\":919:1075  for (uint i = 0; i < expenses.length; i++) {... */\n      iszero\n      tag_24\n      jumpi\n        /* \"contracts/Expenses.sol\":1000:1005  _user */\n      dup4\n        /* \"contracts/Expenses.sol\":980:1005  expenses[i].user == _user */\n      0xffffffffffffffffffffffffffffffffffffffff\n      and\n        /* \"contracts/Expenses.sol\":980:988  expenses */\n      0x00\n        /* \"contracts/Expenses.sol\":989:990  i */\n      dup3\n        /* \"contracts/Expenses.sol\":980:991  expenses[i] */\n      dup2\n      sload\n      dup2\n      lt\n      tag_26\n      jumpi\n      tag_27\n      tag_28\n      jump\t// in\n    tag_27:\n    tag_26:\n      swap1\n      0x00\n      mstore\n      keccak256(0x00, 0x20)\n      swap1\n      0x03\n      mul\n      add\n        /* \"contracts/Expenses.sol\":980:996  expenses[i].user */\n      0x00\n      add\n      0x00\n      swap1\n      sload\n      swap1\n      0x0100\n      exp\n      swap1\n      div\n      0xffffffffffffffffffffffffffffffffffffffff\n      and\n        /* \"contracts/Expenses.sol\":980:1005  expenses[i].user == _user */\n      0xffffffffffffffffffffffffffffffffffffffff\n      and\n      sub\n        /* \"contracts/Expenses.sol\":976:1065  if (expenses[i].user == _user) {... */\n      tag_30\n      jumpi\n        /* \"contracts/Expenses.sol\":1032:1040  expenses */\n      0x00\n        /* \"contracts/Expenses.sol\":1041:1042  i */\n      dup2\n        /* \"contracts/Expenses.sol\":1032:1043  expenses[i] */\n      dup2\n      sload\n      dup2\n      lt\n      tag_31\n      jumpi\n      tag_32\n      tag_28\n      jump\t// in\n    tag_32:\n    tag_31:\n      swap1\n      0x00\n      mstore\n      keccak256(0x00, 0x20)\n      swap1\n      0x03\n      mul\n      add\n        /* \"contracts/Expenses.sol\":1032:1050  expenses[i].amount */\n      0x02\n      add\n      sload\n        /* \"contracts/Expenses.sol\":1025:1050  sum += expenses[i].amount */\n      dup3\n      tag_34\n      swap2\n      swap1\n      tag_35\n      jump\t// in\n    tag_34:\n      swap2\n      pop\n        /* \"contracts/Expenses.sol\":976:1065  if (expenses[i].user == _user) {... */\n    tag_30:\n        /* \"contracts/Expenses.sol\":957:960  i++ */\n      dup1\n      dup1\n      0x01\n      add\n      swap2\n      pop\n      pop\n        /* \"contracts/Expenses.sol\":919:1075  for (uint i = 0; i < expenses.length; i++) {... */\n      jump(tag_23)\n    tag_24:\n      pop\n        /* \"contracts/Expenses.sol\":1092:1095  sum */\n      dup1\n        /* \"contracts/Expenses.sol\":1085:1095  return sum */\n      swap2\n      pop\n      pop\n        /* \"contracts/Expenses.sol\":819:1102  function getTotalExpenses(address _user) public view returns (uint) {... */\n      swap2\n      swap1\n      pop\n      jump\t// out\n        /* \"contracts/Expenses.sol\":670:813  function addExpense(string memory _description, uint _amount) public {... */\n    tag_15:\n        /* \"contracts/Expenses.sol\":749:757  expenses */\n      0x00\n        /* \"contracts/Expenses.sol\":763:805  Expense(msg.sender, _description, _amount) */\n      mload(0x40)\n      dup1\n      0x60\n      add\n      0x40\n      mstore\n      dup1\n        /* \"contracts/Expenses.sol\":771:781  msg.sender */\n      caller\n        /* \"contracts/Expenses.sol\":763:805  Expense(msg.sender, _description, _amount) */\n      0xffffffffffffffffffffffffffffffffffffffff\n      and\n      dup2\n      mstore\n      0x20\n      add\n        /* \"contracts/Expenses.sol\":783:795  _description */\n      dup5\n        /* \"contracts/Expenses.sol\":763:805  Expense(msg.sender, _description, _amount) */\n      dup2\n      mstore\n      0x20\n      add\n        /* \"contracts/Expenses.sol\":797:804  _amount */\n      dup4\n        /* \"contracts/Expenses.sol\":763:805  Expense(msg.sender, _description, _amount) */\n      dup2\n      mstore\n      pop\n        /* \"contracts/Expenses.sol\":749:806  expenses.push(Expense(msg.sender, _description, _amount)) */\n      swap1\n      dup1\n      0x01\n      dup2\n      sload\n      add\n      dup1\n      dup3\n      sstore\n      dup1\n      swap2\n      pop\n      pop\n      0x01\n      swap1\n      sub\n      swap1\n      0x00\n      mstore\n      keccak256(0x00, 0x20)\n      swap1\n      0x03\n      mul\n      add\n      0x00\n      swap1\n      swap2\n      swap1\n      swap2\n      swap1\n      swap2\n      pop\n      0x00\n      dup3\n      add\n      mload\n      dup2\n      0x00\n      add\n      exp(0x0100, 0x00)\n      dup2\n      sload\n      dup2\n      0xffffffffffffffffffffffffffffffffffffffff\n      mul\n      not\n      and\n      swap1\n      dup4\n      0xffffffffffffffffffffffffffffffffffffffff\n      and\n      mul\n      or\n      swap1\n      sstore\n      pop\n      0x20\n      dup3\n      add\n      mload\n      dup2\n      0x01\n      add\n      swap1\n      dup2\n      tag_38\n      swap2\n      swap1\n      tag_39\n      jump\t// in\n    tag_38:\n      pop\n      0x40\n      dup3\n      add\n      mload\n      dup2\n      0x02\n      add\n      sstore\n      pop\n      pop\n        /* \"contracts/Expenses.sol\":670:813  function addExpense(string memory _description, uint _amount) public {... */\n      pop\n      pop\n      jump\t// out\n        /* \"contracts/Expenses.sol\":422:447  Expense[] public expenses */\n    tag_19:\n      0x00\n      dup2\n      dup2\n      sload\n      dup2\n      lt\n      tag_40\n      jumpi\n      0x00\n      dup1\n      revert\n    tag_40:\n      swap1\n      0x00\n      mstore\n      keccak256(0x00, 0x20)\n      swap1\n      0x03\n      mul\n      add\n      0x00\n      swap2\n      pop\n      swap1\n      pop\n      dup1\n      0x00\n      add\n      0x00\n      swap1\n      sload\n      swap1\n      0x0100\n      exp\n      swap1\n      div\n      0xffffffffffffffffffffffffffffffffffffffff\n      and\n      swap1\n      dup1\n      0x01\n      add\n      dup1\n      sload\n      tag_42\n      swap1\n      tag_43\n      jump\t// in\n    tag_42:\n      dup1\n      0x1f\n      add\n      0x20\n      dup1\n      swap2\n      div\n      mul\n      0x20\n      add\n      mload(0x40)\n      swap1\n      dup2\n      add\n      0x40\n      mstore\n      dup1\n      swap3\n      swap2\n      swap1\n      dup2\n      dup2\n      mstore\n      0x20\n      add\n      dup3\n      dup1\n      sload\n      tag_44\n      swap1\n      tag_43\n      jump\t// in\n    tag_44:\n      dup1\n      iszero\n      tag_45\n      jumpi\n      dup1\n      0x1f\n      lt\n      tag_46\n      jumpi\n      0x0100\n      dup1\n      dup4\n      sload\n      div\n      mul\n      dup4\n      mstore\n      swap2\n      0x20\n      add\n      swap2\n      jump(tag_45)\n    tag_46:\n      dup3\n      add\n      swap2\n      swap1\n      0x00\n      mstore\n      keccak256(0x00, 0x20)\n      swap1\n    tag_47:\n      dup2\n      sload\n      dup2\n      mstore\n      swap1\n      0x01\n      add\n      swap1\n      0x20\n      add\n      dup1\n      dup4\n      gt\n      tag_47\n      jumpi\n      dup3\n      swap1\n      sub\n      0x1f\n      and\n      dup3\n      add\n      swap2\n    tag_45:\n      pop\n      pop\n      pop\n      pop\n      pop\n      swap1\n      dup1\n      0x02\n      add\n      sload\n      swap1\n      pop\n      dup4\n      jump\t// out\n        /* \"#utility.yul\":7:82   */\n    tag_48:\n        /* \"#utility.yul\":40:46   */\n      0x00\n        /* \"#utility.yul\":73:75   */\n      0x40\n        /* \"#utility.yul\":67:76   */\n      mload\n        /* \"#utility.yul\":57:76   */\n      swap1\n      pop\n        /* \"#utility.yul\":7:82   */\n      swap1\n      jump\t// out\n        /* \"#utility.yul\":88:205   */\n    tag_49:\n        /* \"#utility.yul\":197:198   */\n      0x00\n        /* \"#utility.yul\":194:195   */\n      dup1\n        /* \"#utility.yul\":187:199   */\n      revert\n        /* \"#utility.yul\":211:328   */\n    tag_50:\n        /* \"#utility.yul\":320:321   */\n      0x00\n        /* \"#utility.yul\":317:318   */\n      dup1\n        /* \"#utility.yul\":310:322   */\n      revert\n        /* \"#utility.yul\":334:460   */\n    tag_51:\n        /* \"#utility.yul\":371:378   */\n      0x00\n        /* \"#utility.yul\":411:453   */\n      0xffffffffffffffffffffffffffffffffffffffff\n        /* \"#utility.yul\":404:409   */\n      dup3\n        /* \"#utility.yul\":400:454   */\n      and\n        /* \"#utility.yul\":389:454   */\n      swap1\n      pop\n        /* \"#utility.yul\":334:460   */\n      swap2\n      swap1\n      pop\n      jump\t// out\n        /* \"#utility.yul\":466:562   */\n    tag_52:\n        /* \"#utility.yul\":503:510   */\n      0x00\n        /* \"#utility.yul\":532:556   */\n      tag_97\n        /* \"#utility.yul\":550:555   */\n      dup3\n        /* \"#utility.yul\":532:556   */\n      tag_51\n      jump\t// in\n    tag_97:\n        /* \"#utility.yul\":521:556   */\n      swap1\n      pop\n        /* \"#utility.yul\":466:562   */\n      swap2\n      swap1\n      pop\n      jump\t// out\n        /* \"#utility.yul\":568:690   */\n    tag_53:\n        /* \"#utility.yul\":641:665   */\n      tag_99\n        /* \"#utility.yul\":659:664   */\n      dup2\n        /* \"#utility.yul\":641:665   */\n      tag_52\n      jump\t// in\n    tag_99:\n        /* \"#utility.yul\":634:639   */\n      dup2\n        /* \"#utility.yul\":631:666   */\n      eq\n        /* \"#utility.yul\":621:684   */\n      tag_100\n      jumpi\n        /* \"#utility.yul\":680:681   */\n      0x00\n        /* \"#utility.yul\":677:678   */\n      dup1\n        /* \"#utility.yul\":670:682   */\n      revert\n        /* \"#utility.yul\":621:684   */\n    tag_100:\n        /* \"#utility.yul\":568:690   */\n      pop\n      jump\t// out\n        /* \"#utility.yul\":696:835   */\n    tag_54:\n        /* \"#utility.yul\":742:747   */\n      0x00\n        /* \"#utility.yul\":780:786   */\n      dup2\n        /* \"#utility.yul\":767:787   */\n      calldataload\n        /* \"#utility.yul\":758:787   */\n      swap1\n      pop\n        /* \"#utility.yul\":796:829   */\n      tag_102\n        /* \"#utility.yul\":823:828   */\n      dup2\n        /* \"#utility.yul\":796:829   */\n      tag_53\n      jump\t// in\n    tag_102:\n        /* \"#utility.yul\":696:835   */\n      swap3\n      swap2\n      pop\n      pop\n      jump\t// out\n        /* \"#utility.yul\":841:1170   */\n    tag_8:\n        /* \"#utility.yul\":900:906   */\n      0x00\n        /* \"#utility.yul\":949:951   */\n      0x20\n        /* \"#utility.yul\":937:946   */\n      dup3\n        /* \"#utility.yul\":928:935   */\n      dup5\n        /* \"#utility.yul\":924:947   */\n      sub\n        /* \"#utility.yul\":920:952   */\n      slt\n        /* \"#utility.yul\":917:1036   */\n      iszero\n      tag_104\n      jumpi\n        /* \"#utility.yul\":955:1034   */\n      tag_105\n      tag_49\n      jump\t// in\n    tag_105:\n        /* \"#utility.yul\":917:1036   */\n    tag_104:\n        /* \"#utility.yul\":1075:1076   */\n      0x00\n        /* \"#utility.yul\":1100:1153   */\n      tag_106\n        /* \"#utility.yul\":1145:1152   */\n      dup5\n        /* \"#utility.yul\":1136:1142   */\n      dup3\n        /* \"#utility.yul\":1125:1134   */\n      dup6\n        /* \"#utility.yul\":1121:1143   */\n      add\n        /* \"#utility.yul\":1100:1153   */\n      tag_54\n      jump\t// in\n    tag_106:\n        /* \"#utility.yul\":1090:1153   */\n      swap2\n      pop\n        /* \"#utility.yul\":1046:1163   */\n      pop\n        /* \"#utility.yul\":841:1170   */\n      swap3\n      swap2\n      pop\n      pop\n      jump\t// out\n        /* \"#utility.yul\":1176:1253   */\n    tag_55:\n        /* \"#utility.yul\":1213:1220   */\n      0x00\n        /* \"#utility.yul\":1242:1247   */\n      dup2\n        /* \"#utility.yul\":1231:1247   */\n      swap1\n      pop\n        /* \"#utility.yul\":1176:1253   */\n      swap2\n      swap1\n      pop\n      jump\t// out\n        /* \"#utility.yul\":1259:1377   */\n    tag_56:\n        /* \"#utility.yul\":1346:1370   */\n      tag_109\n        /* \"#utility.yul\":1364:1369   */\n      dup2\n        /* \"#utility.yul\":1346:1370   */\n      tag_55\n      jump\t// in\n    tag_109:\n        /* \"#utility.yul\":1341:1344   */\n      dup3\n        /* \"#utility.yul\":1334:1371   */\n      mstore\n        /* \"#utility.yul\":1259:1377   */\n      pop\n      pop\n      jump\t// out\n        /* \"#utility.yul\":1383:1605   */\n    tag_11:\n        /* \"#utility.yul\":1476:1480   */\n      0x00\n        /* \"#utility.yul\":1514:1516   */\n      0x20\n        /* \"#utility.yul\":1503:1512   */\n      dup3\n        /* \"#utility.yul\":1499:1517   */\n      add\n        /* \"#utility.yul\":1491:1517   */\n      swap1\n      pop\n        /* \"#utility.yul\":1527:1598   */\n      tag_111\n        /* \"#utility.yul\":1595:1596   */\n      0x00\n        /* \"#utility.yul\":1584:1593   */\n      dup4\n        /* \"#utility.yul\":1580:1597   */\n      add\n        /* \"#utility.yul\":1571:1577   */\n      dup5\n        /* \"#utility.yul\":1527:1598   */\n      tag_56\n      jump\t// in\n    tag_111:\n        /* \"#utility.yul\":1383:1605   */\n      swap3\n      swap2\n      pop\n      pop\n      jump\t// out\n        /* \"#utility.yul\":1611:1728   */\n    tag_57:\n        /* \"#utility.yul\":1720:1721   */\n      0x00\n        /* \"#utility.yul\":1717:1718   */\n      dup1\n        /* \"#utility.yul\":1710:1722   */\n      revert\n        /* \"#utility.yul\":1734:1851   */\n    tag_58:\n        /* \"#utility.yul\":1843:1844   */\n      0x00\n        /* \"#utility.yul\":1840:1841   */\n      dup1\n        /* \"#utility.yul\":1833:1845   */\n      revert\n        /* \"#utility.yul\":1857:1959   */\n    tag_59:\n        /* \"#utility.yul\":1898:1904   */\n      0x00\n        /* \"#utility.yul\":1949:1951   */\n      0x1f\n        /* \"#utility.yul\":1945:1952   */\n      not\n        /* \"#utility.yul\":1940:1942   */\n      0x1f\n        /* \"#utility.yul\":1933:1938   */\n      dup4\n        /* \"#utility.yul\":1929:1943   */\n      add\n        /* \"#utility.yul\":1925:1953   */\n      and\n        /* \"#utility.yul\":1915:1953   */\n      swap1\n      pop\n        /* \"#utility.yul\":1857:1959   */\n      swap2\n      swap1\n      pop\n      jump\t// out\n        /* \"#utility.yul\":1965:2145   */\n    tag_60:\n        /* \"#utility.yul\":2013:2090   */\n      0x4e487b7100000000000000000000000000000000000000000000000000000000\n        /* \"#utility.yul\":2010:2011   */\n      0x00\n        /* \"#utility.yul\":2003:2091   */\n      mstore\n        /* \"#utility.yul\":2110:2114   */\n      0x41\n        /* \"#utility.yul\":2107:2108   */\n      0x04\n        /* \"#utility.yul\":2100:2115   */\n      mstore\n        /* \"#utility.yul\":2134:2138   */\n      0x24\n        /* \"#utility.yul\":2131:2132   */\n      0x00\n        /* \"#utility.yul\":2124:2139   */\n      revert\n        /* \"#utility.yul\":2151:2432   */\n    tag_61:\n        /* \"#utility.yul\":2234:2261   */\n      tag_117\n        /* \"#utility.yul\":2256:2260   */\n      dup3\n        /* \"#utility.yul\":2234:2261   */\n      tag_59\n      jump\t// in\n    tag_117:\n        /* \"#utility.yul\":2226:2232   */\n      dup2\n        /* \"#utility.yul\":2222:2262   */\n      add\n        /* \"#utility.yul\":2364:2370   */\n      dup2\n        /* \"#utility.yul\":2352:2362   */\n      dup2\n        /* \"#utility.yul\":2349:2371   */\n      lt\n        /* \"#utility.yul\":2328:2346   */\n      0xffffffffffffffff\n        /* \"#utility.yul\":2316:2326   */\n      dup3\n        /* \"#utility.yul\":2313:2347   */\n      gt\n        /* \"#utility.yul\":2310:2372   */\n      or\n        /* \"#utility.yul\":2307:2395   */\n      iszero\n      tag_118\n      jumpi\n        /* \"#utility.yul\":2375:2393   */\n      tag_119\n      tag_60\n      jump\t// in\n    tag_119:\n        /* \"#utility.yul\":2307:2395   */\n    tag_118:\n        /* \"#utility.yul\":2415:2425   */\n      dup1\n        /* \"#utility.yul\":2411:2413   */\n      0x40\n        /* \"#utility.yul\":2404:2426   */\n      mstore\n        /* \"#utility.yul\":2194:2432   */\n      pop\n        /* \"#utility.yul\":2151:2432   */\n      pop\n      pop\n      jump\t// out\n        /* \"#utility.yul\":2438:2567   */\n    tag_62:\n        /* \"#utility.yul\":2472:2478   */\n      0x00\n        /* \"#utility.yul\":2499:2519   */\n      tag_121\n      tag_48\n      jump\t// in\n    tag_121:\n        /* \"#utility.yul\":2489:2519   */\n      swap1\n      pop\n        /* \"#utility.yul\":2528:2561   */\n      tag_122\n        /* \"#utility.yul\":2556:2560   */\n      dup3\n        /* \"#utility.yul\":2548:2554   */\n      dup3\n        /* \"#utility.yul\":2528:2561   */\n      tag_61\n      jump\t// in\n    tag_122:\n        /* \"#utility.yul\":2438:2567   */\n      swap2\n      swap1\n      pop\n      jump\t// out\n        /* \"#utility.yul\":2573:2881   */\n    tag_63:\n        /* \"#utility.yul\":2635:2639   */\n      0x00\n        /* \"#utility.yul\":2725:2743   */\n      0xffffffffffffffff\n        /* \"#utility.yul\":2717:2723   */\n      dup3\n        /* \"#utility.yul\":2714:2744   */\n      gt\n        /* \"#utility.yul\":2711:2767   */\n      iszero\n      tag_124\n      jumpi\n        /* \"#utility.yul\":2747:2765   */\n      tag_125\n      tag_60\n      jump\t// in\n    tag_125:\n        /* \"#utility.yul\":2711:2767   */\n    tag_124:\n        /* \"#utility.yul\":2785:2814   */\n      tag_126\n        /* \"#utility.yul\":2807:2813   */\n      dup3\n        /* \"#utility.yul\":2785:2814   */\n      tag_59\n      jump\t// in\n    tag_126:\n        /* \"#utility.yul\":2777:2814   */\n      swap1\n      pop\n        /* \"#utility.yul\":2869:2873   */\n      0x20\n        /* \"#utility.yul\":2863:2867   */\n      dup2\n        /* \"#utility.yul\":2859:2874   */\n      add\n        /* \"#utility.yul\":2851:2874   */\n      swap1\n      pop\n        /* \"#utility.yul\":2573:2881   */\n      swap2\n      swap1\n      pop\n      jump\t// out\n        /* \"#utility.yul\":2887:3033   */\n    tag_64:\n        /* \"#utility.yul\":2984:2990   */\n      dup3\n        /* \"#utility.yul\":2979:2982   */\n      dup2\n        /* \"#utility.yul\":2974:2977   */\n      dup4\n        /* \"#utility.yul\":2961:2991   */\n      calldatacopy\n        /* \"#utility.yul\":3025:3026   */\n      0x00\n        /* \"#utility.yul\":3016:3022   */\n      dup4\n        /* \"#utility.yul\":3011:3014   */\n      dup4\n        /* \"#utility.yul\":3007:3023   */\n      add\n        /* \"#utility.yul\":3000:3027   */\n      mstore\n        /* \"#utility.yul\":2887:3033   */\n      pop\n      pop\n      pop\n      jump\t// out\n        /* \"#utility.yul\":3039:3464   */\n    tag_65:\n        /* \"#utility.yul\":3117:3122   */\n      0x00\n        /* \"#utility.yul\":3142:3208   */\n      tag_129\n        /* \"#utility.yul\":3158:3207   */\n      tag_130\n        /* \"#utility.yul\":3200:3206   */\n      dup5\n        /* \"#utility.yul\":3158:3207   */\n      tag_63\n      jump\t// in\n    tag_130:\n        /* \"#utility.yul\":3142:3208   */\n      tag_62\n      jump\t// in\n    tag_129:\n        /* \"#utility.yul\":3133:3208   */\n      swap1\n      pop\n        /* \"#utility.yul\":3231:3237   */\n      dup3\n        /* \"#utility.yul\":3224:3229   */\n      dup2\n        /* \"#utility.yul\":3217:3238   */\n      mstore\n        /* \"#utility.yul\":3269:3273   */\n      0x20\n        /* \"#utility.yul\":3262:3267   */\n      dup2\n        /* \"#utility.yul\":3258:3274   */\n      add\n        /* \"#utility.yul\":3307:3310   */\n      dup5\n        /* \"#utility.yul\":3298:3304   */\n      dup5\n        /* \"#utility.yul\":3293:3296   */\n      dup5\n        /* \"#utility.yul\":3289:3305   */\n      add\n        /* \"#utility.yul\":3286:3311   */\n      gt\n        /* \"#utility.yul\":3283:3395   */\n      iszero\n      tag_131\n      jumpi\n        /* \"#utility.yul\":3314:3393   */\n      tag_132\n      tag_58\n      jump\t// in\n    tag_132:\n        /* \"#utility.yul\":3283:3395   */\n    tag_131:\n        /* \"#utility.yul\":3404:3458   */\n      tag_133\n        /* \"#utility.yul\":3451:3457   */\n      dup5\n        /* \"#utility.yul\":3446:3449   */\n      dup3\n        /* \"#utility.yul\":3441:3444   */\n      dup6\n        /* \"#utility.yul\":3404:3458   */\n      tag_64\n      jump\t// in\n    tag_133:\n        /* \"#utility.yul\":3123:3464   */\n      pop\n        /* \"#utility.yul\":3039:3464   */\n      swap4\n      swap3\n      pop\n      pop\n      pop\n      jump\t// out\n        /* \"#utility.yul\":3484:3824   */\n    tag_66:\n        /* \"#utility.yul\":3540:3545   */\n      0x00\n        /* \"#utility.yul\":3589:3592   */\n      dup3\n        /* \"#utility.yul\":3582:3586   */\n      0x1f\n        /* \"#utility.yul\":3574:3580   */\n      dup4\n        /* \"#utility.yul\":3570:3587   */\n      add\n        /* \"#utility.yul\":3566:3593   */\n      slt\n        /* \"#utility.yul\":3556:3678   */\n      tag_135\n      jumpi\n        /* \"#utility.yul\":3597:3676   */\n      tag_136\n      tag_57\n      jump\t// in\n    tag_136:\n        /* \"#utility.yul\":3556:3678   */\n    tag_135:\n        /* \"#utility.yul\":3714:3720   */\n      dup2\n        /* \"#utility.yul\":3701:3721   */\n      calldataload\n        /* \"#utility.yul\":3739:3818   */\n      tag_137\n        /* \"#utility.yul\":3814:3817   */\n      dup5\n        /* \"#utility.yul\":3806:3812   */\n      dup3\n        /* \"#utility.yul\":3799:3803   */\n      0x20\n        /* \"#utility.yul\":3791:3797   */\n      dup7\n        /* \"#utility.yul\":3787:3804   */\n      add\n        /* \"#utility.yul\":3739:3818   */\n      tag_65\n      jump\t// in\n    tag_137:\n        /* \"#utility.yul\":3730:3818   */\n      swap2\n      pop\n        /* \"#utility.yul\":3546:3824   */\n      pop\n        /* \"#utility.yul\":3484:3824   */\n      swap3\n      swap2\n      pop\n      pop\n      jump\t// out\n        /* \"#utility.yul\":3830:3952   */\n    tag_67:\n        /* \"#utility.yul\":3903:3927   */\n      tag_139\n        /* \"#utility.yul\":3921:3926   */\n      dup2\n        /* \"#utility.yul\":3903:3927   */\n      tag_55\n      jump\t// in\n    tag_139:\n        /* \"#utility.yul\":3896:3901   */\n      dup2\n        /* \"#utility.yul\":3893:3928   */\n      eq\n        /* \"#utility.yul\":3883:3946   */\n      tag_140\n      jumpi\n        /* \"#utility.yul\":3942:3943   */\n      0x00\n        /* \"#utility.yul\":3939:3940   */\n      dup1\n        /* \"#utility.yul\":3932:3944   */\n      revert\n        /* \"#utility.yul\":3883:3946   */\n    tag_140:\n        /* \"#utility.yul\":3830:3952   */\n      pop\n      jump\t// out\n        /* \"#utility.yul\":3958:4097   */\n    tag_68:\n        /* \"#utility.yul\":4004:4009   */\n      0x00\n        /* \"#utility.yul\":4042:4048   */\n      dup2\n        /* \"#utility.yul\":4029:4049   */\n      calldataload\n        /* \"#utility.yul\":4020:4049   */\n      swap1\n      pop\n        /* \"#utility.yul\":4058:4091   */\n      tag_142\n        /* \"#utility.yul\":4085:4090   */\n      dup2\n        /* \"#utility.yul\":4058:4091   */\n      tag_67\n      jump\t// in\n    tag_142:\n        /* \"#utility.yul\":3958:4097   */\n      swap3\n      swap2\n      pop\n      pop\n      jump\t// out\n        /* \"#utility.yul\":4103:4757   */\n    tag_14:\n        /* \"#utility.yul\":4181:4187   */\n      0x00\n        /* \"#utility.yul\":4189:4195   */\n      dup1\n        /* \"#utility.yul\":4238:4240   */\n      0x40\n        /* \"#utility.yul\":4226:4235   */\n      dup4\n        /* \"#utility.yul\":4217:4224   */\n      dup6\n        /* \"#utility.yul\":4213:4236   */\n      sub\n        /* \"#utility.yul\":4209:4241   */\n      slt\n        /* \"#utility.yul\":4206:4325   */\n      iszero\n      tag_144\n      jumpi\n        /* \"#utility.yul\":4244:4323   */\n      tag_145\n      tag_49\n      jump\t// in\n    tag_145:\n        /* \"#utility.yul\":4206:4325   */\n    tag_144:\n        /* \"#utility.yul\":4392:4393   */\n      0x00\n        /* \"#utility.yul\":4381:4390   */\n      dup4\n        /* \"#utility.yul\":4377:4394   */\n      add\n        /* \"#utility.yul\":4364:4395   */\n      calldataload\n        /* \"#utility.yul\":4422:4440   */\n      0xffffffffffffffff\n        /* \"#utility.yul\":4414:4420   */\n      dup2\n        /* \"#utility.yul\":4411:4441   */\n      gt\n        /* \"#utility.yul\":4408:4525   */\n      iszero\n      tag_146\n      jumpi\n        /* \"#utility.yul\":4444:4523   */\n      tag_147\n      tag_50\n      jump\t// in\n    tag_147:\n        /* \"#utility.yul\":4408:4525   */\n    tag_146:\n        /* \"#utility.yul\":4549:4612   */\n      tag_148\n        /* \"#utility.yul\":4604:4611   */\n      dup6\n        /* \"#utility.yul\":4595:4601   */\n      dup3\n        /* \"#utility.yul\":4584:4593   */\n      dup7\n        /* \"#utility.yul\":4580:4602   */\n      add\n        /* \"#utility.yul\":4549:4612   */\n      tag_66\n      jump\t// in\n    tag_148:\n        /* \"#utility.yul\":4539:4612   */\n      swap3\n      pop\n        /* \"#utility.yul\":4335:4622   */\n      pop\n        /* \"#utility.yul\":4661:4663   */\n      0x20\n        /* \"#utility.yul\":4687:4740   */\n      tag_149\n        /* \"#utility.yul\":4732:4739   */\n      dup6\n        /* \"#utility.yul\":4723:4729   */\n      dup3\n        /* \"#utility.yul\":4712:4721   */\n      dup7\n        /* \"#utility.yul\":4708:4730   */\n      add\n        /* \"#utility.yul\":4687:4740   */\n      tag_68\n      jump\t// in\n    tag_149:\n        /* \"#utility.yul\":4677:4740   */\n      swap2\n      pop\n        /* \"#utility.yul\":4632:4750   */\n      pop\n        /* \"#utility.yul\":4103:4757   */\n      swap3\n      pop\n      swap3\n      swap1\n      pop\n      jump\t// out\n        /* \"#utility.yul\":4763:5092   */\n    tag_18:\n        /* \"#utility.yul\":4822:4828   */\n      0x00\n        /* \"#utility.yul\":4871:4873   */\n      0x20\n        /* \"#utility.yul\":4859:4868   */\n      dup3\n        /* \"#utility.yul\":4850:4857   */\n      dup5\n        /* \"#utility.yul\":4846:4869   */\n      sub\n        /* \"#utility.yul\":4842:4874   */\n      slt\n        /* \"#utility.yul\":4839:4958   */\n      iszero\n      tag_151\n      jumpi\n        /* \"#utility.yul\":4877:4956   */\n      tag_152\n      tag_49\n      jump\t// in\n    tag_152:\n        /* \"#utility.yul\":4839:4958   */\n    tag_151:\n        /* \"#utility.yul\":4997:4998   */\n      0x00\n        /* \"#utility.yul\":5022:5075   */\n      tag_153\n        /* \"#utility.yul\":5067:5074   */\n      dup5\n        /* \"#utility.yul\":5058:5064   */\n      dup3\n        /* \"#utility.yul\":5047:5056   */\n      dup6\n        /* \"#utility.yul\":5043:5065   */\n      add\n        /* \"#utility.yul\":5022:5075   */\n      tag_68\n      jump\t// in\n    tag_153:\n        /* \"#utility.yul\":5012:5075   */\n      swap2\n      pop\n        /* \"#utility.yul\":4968:5085   */\n      pop\n        /* \"#utility.yul\":4763:5092   */\n      swap3\n      swap2\n      pop\n      pop\n      jump\t// out\n        /* \"#utility.yul\":5098:5216   */\n    tag_69:\n        /* \"#utility.yul\":5185:5209   */\n      tag_155\n        /* \"#utility.yul\":5203:5208   */\n      dup2\n        /* \"#utility.yul\":5185:5209   */\n      tag_52\n      jump\t// in\n    tag_155:\n        /* \"#utility.yul\":5180:5183   */\n      dup3\n        /* \"#utility.yul\":5173:5210   */\n      mstore\n        /* \"#utility.yul\":5098:5216   */\n      pop\n      pop\n      jump\t// out\n        /* \"#utility.yul\":5222:5321   */\n    tag_70:\n        /* \"#utility.yul\":5274:5280   */\n      0x00\n        /* \"#utility.yul\":5308:5313   */\n      dup2\n        /* \"#utility.yul\":5302:5314   */\n      mload\n        /* \"#utility.yul\":5292:5314   */\n      swap1\n      pop\n        /* \"#utility.yul\":5222:5321   */\n      swap2\n      swap1\n      pop\n      jump\t// out\n        /* \"#utility.yul\":5327:5496   */\n    tag_71:\n        /* \"#utility.yul\":5411:5422   */\n      0x00\n        /* \"#utility.yul\":5445:5451   */\n      dup3\n        /* \"#utility.yul\":5440:5443   */\n      dup3\n        /* \"#utility.yul\":5433:5452   */\n      mstore\n        /* \"#utility.yul\":5485:5489   */\n      0x20\n        /* \"#utility.yul\":5480:5483   */\n      dup3\n        /* \"#utility.yul\":5476:5490   */\n      add\n        /* \"#utility.yul\":5461:5490   */\n      swap1\n      pop\n        /* \"#utility.yul\":5327:5496   */\n      swap3\n      swap2\n      pop\n      pop\n      jump\t// out\n        /* \"#utility.yul\":5502:5748   */\n    tag_72:\n        /* \"#utility.yul\":5583:5584   */\n      0x00\n        /* \"#utility.yul\":5593:5706   */\n    tag_159:\n        /* \"#utility.yul\":5607:5613   */\n      dup4\n        /* \"#utility.yul\":5604:5605   */\n      dup2\n        /* \"#utility.yul\":5601:5614   */\n      lt\n        /* \"#utility.yul\":5593:5706   */\n      iszero\n      tag_161\n      jumpi\n        /* \"#utility.yul\":5692:5693   */\n      dup1\n        /* \"#utility.yul\":5687:5690   */\n      dup3\n        /* \"#utility.yul\":5683:5694   */\n      add\n        /* \"#utility.yul\":5677:5695   */\n      mload\n        /* \"#utility.yul\":5673:5674   */\n      dup2\n        /* \"#utility.yul\":5668:5671   */\n      dup5\n        /* \"#utility.yul\":5664:5675   */\n      add\n        /* \"#utility.yul\":5657:5696   */\n      mstore\n        /* \"#utility.yul\":5629:5631   */\n      0x20\n        /* \"#utility.yul\":5626:5627   */\n      dup2\n        /* \"#utility.yul\":5622:5632   */\n      add\n        /* \"#utility.yul\":5617:5632   */\n      swap1\n      pop\n        /* \"#utility.yul\":5593:5706   */\n      jump(tag_159)\n    tag_161:\n        /* \"#utility.yul\":5740:5741   */\n      0x00\n        /* \"#utility.yul\":5731:5737   */\n      dup5\n        /* \"#utility.yul\":5726:5729   */\n      dup5\n        /* \"#utility.yul\":5722:5738   */\n      add\n        /* \"#utility.yul\":5715:5742   */\n      mstore\n        /* \"#utility.yul\":5564:5748   */\n      pop\n        /* \"#utility.yul\":5502:5748   */\n      pop\n      pop\n      pop\n      jump\t// out\n        /* \"#utility.yul\":5754:6131   */\n    tag_73:\n        /* \"#utility.yul\":5842:5845   */\n      0x00\n        /* \"#utility.yul\":5870:5909   */\n      tag_163\n        /* \"#utility.yul\":5903:5908   */\n      dup3\n        /* \"#utility.yul\":5870:5909   */\n      tag_70\n      jump\t// in\n    tag_163:\n        /* \"#utility.yul\":5925:5996   */\n      tag_164\n        /* \"#utility.yul\":5989:5995   */\n      dup2\n        /* \"#utility.yul\":5984:5987   */\n      dup6\n        /* \"#utility.yul\":5925:5996   */\n      tag_71\n      jump\t// in\n    tag_164:\n        /* \"#utility.yul\":5918:5996   */\n      swap4\n      pop\n        /* \"#utility.yul\":6005:6070   */\n      tag_165\n        /* \"#utility.yul\":6063:6069   */\n      dup2\n        /* \"#utility.yul\":6058:6061   */\n      dup6\n        /* \"#utility.yul\":6051:6055   */\n      0x20\n        /* \"#utility.yul\":6044:6049   */\n      dup7\n        /* \"#utility.yul\":6040:6056   */\n      add\n        /* \"#utility.yul\":6005:6070   */\n      tag_72\n      jump\t// in\n    tag_165:\n        /* \"#utility.yul\":6095:6124   */\n      tag_166\n        /* \"#utility.yul\":6117:6123   */\n      dup2\n        /* \"#utility.yul\":6095:6124   */\n      tag_59\n      jump\t// in\n    tag_166:\n        /* \"#utility.yul\":6090:6093   */\n      dup5\n        /* \"#utility.yul\":6086:6125   */\n      add\n        /* \"#utility.yul\":6079:6125   */\n      swap2\n      pop\n        /* \"#utility.yul\":5846:6131   */\n      pop\n        /* \"#utility.yul\":5754:6131   */\n      swap3\n      swap2\n      pop\n      pop\n      jump\t// out\n        /* \"#utility.yul\":6137:6670   */\n    tag_21:\n        /* \"#utility.yul\":6306:6310   */\n      0x00\n        /* \"#utility.yul\":6344:6346   */\n      0x60\n        /* \"#utility.yul\":6333:6342   */\n      dup3\n        /* \"#utility.yul\":6329:6347   */\n      add\n        /* \"#utility.yul\":6321:6347   */\n      swap1\n      pop\n        /* \"#utility.yul\":6357:6428   */\n      tag_168\n        /* \"#utility.yul\":6425:6426   */\n      0x00\n        /* \"#utility.yul\":6414:6423   */\n      dup4\n        /* \"#utility.yul\":6410:6427   */\n      add\n        /* \"#utility.yul\":6401:6407   */\n      dup7\n        /* \"#utility.yul\":6357:6428   */\n      tag_69\n      jump\t// in\n    tag_168:\n        /* \"#utility.yul\":6475:6484   */\n      dup2\n        /* \"#utility.yul\":6469:6473   */\n      dup2\n        /* \"#utility.yul\":6465:6485   */\n      sub\n        /* \"#utility.yul\":6460:6462   */\n      0x20\n        /* \"#utility.yul\":6449:6458   */\n      dup4\n        /* \"#utility.yul\":6445:6463   */\n      add\n        /* \"#utility.yul\":6438:6486   */\n      mstore\n        /* \"#utility.yul\":6503:6581   */\n      tag_169\n        /* \"#utility.yul\":6576:6580   */\n      dup2\n        /* \"#utility.yul\":6567:6573   */\n      dup6\n        /* \"#utility.yul\":6503:6581   */\n      tag_73\n      jump\t// in\n    tag_169:\n        /* \"#utility.yul\":6495:6581   */\n      swap1\n      pop\n        /* \"#utility.yul\":6591:6663   */\n      tag_170\n        /* \"#utility.yul\":6659:6661   */\n      0x40\n        /* \"#utility.yul\":6648:6657   */\n      dup4\n        /* \"#utility.yul\":6644:6662   */\n      add\n        /* \"#utility.yul\":6635:6641   */\n      dup5\n        /* \"#utility.yul\":6591:6663   */\n      tag_56\n      jump\t// in\n    tag_170:\n        /* \"#utility.yul\":6137:6670   */\n      swap5\n      swap4\n      pop\n      pop\n      pop\n      pop\n      jump\t// out\n        /* \"#utility.yul\":6676:6856   */\n    tag_28:\n        /* \"#utility.yul\":6724:6801   */\n      0x4e487b7100000000000000000000000000000000000000000000000000000000\n        /* \"#utility.yul\":6721:6722   */\n      0x00\n        /* \"#utility.yul\":6714:6802   */\n      mstore\n        /* \"#utility.yul\":6821:6825   */\n      0x32\n        /* \"#utility.yul\":6818:6819   */\n      0x04\n        /* \"#utility.yul\":6811:6826   */\n      mstore\n        /* \"#utility.yul\":6845:6849   */\n      0x24\n        /* \"#utility.yul\":6842:6843   */\n      0x00\n        /* \"#utility.yul\":6835:6850   */\n      revert\n        /* \"#utility.yul\":6862:7042   */\n    tag_74:\n        /* \"#utility.yul\":6910:6987   */\n      0x4e487b7100000000000000000000000000000000000000000000000000000000\n        /* \"#utility.yul\":6907:6908   */\n      0x00\n        /* \"#utility.yul\":6900:6988   */\n      mstore\n        /* \"#utility.yul\":7007:7011   */\n      0x11\n        /* \"#utility.yul\":7004:7005   */\n      0x04\n        /* \"#utility.yul\":6997:7012   */\n      mstore\n        /* \"#utility.yul\":7031:7035   */\n      0x24\n        /* \"#utility.yul\":7028:7029   */\n      0x00\n        /* \"#utility.yul\":7021:7036   */\n      revert\n        /* \"#utility.yul\":7048:7239   */\n    tag_35:\n        /* \"#utility.yul\":7088:7091   */\n      0x00\n        /* \"#utility.yul\":7107:7127   */\n      tag_174\n        /* \"#utility.yul\":7125:7126   */\n      dup3\n        /* \"#utility.yul\":7107:7127   */\n      tag_55\n      jump\t// in\n    tag_174:\n        /* \"#utility.yul\":7102:7127   */\n      swap2\n      pop\n        /* \"#utility.yul\":7141:7161   */\n      tag_175\n        /* \"#utility.yul\":7159:7160   */\n      dup4\n        /* \"#utility.yul\":7141:7161   */\n      tag_55\n      jump\t// in\n    tag_175:\n        /* \"#utility.yul\":7136:7161   */\n      swap3\n      pop\n        /* \"#utility.yul\":7184:7185   */\n      dup3\n        /* \"#utility.yul\":7181:7182   */\n      dup3\n        /* \"#utility.yul\":7177:7186   */\n      add\n        /* \"#utility.yul\":7170:7186   */\n      swap1\n      pop\n        /* \"#utility.yul\":7205:7208   */\n      dup1\n        /* \"#utility.yul\":7202:7203   */\n      dup3\n        /* \"#utility.yul\":7199:7209   */\n      gt\n        /* \"#utility.yul\":7196:7232   */\n      iszero\n      tag_176\n      jumpi\n        /* \"#utility.yul\":7212:7230   */\n      tag_177\n      tag_74\n      jump\t// in\n    tag_177:\n        /* \"#utility.yul\":7196:7232   */\n    tag_176:\n        /* \"#utility.yul\":7048:7239   */\n      swap3\n      swap2\n      pop\n      pop\n      jump\t// out\n        /* \"#utility.yul\":7245:7425   */\n    tag_75:\n        /* \"#utility.yul\":7293:7370   */\n      0x4e487b7100000000000000000000000000000000000000000000000000000000\n        /* \"#utility.yul\":7290:7291   */\n      0x00\n        /* \"#utility.yul\":7283:7371   */\n      mstore\n        /* \"#utility.yul\":7390:7394   */\n      0x22\n        /* \"#utility.yul\":7387:7388   */\n      0x04\n        /* \"#utility.yul\":7380:7395   */\n      mstore\n        /* \"#utility.yul\":7414:7418   */\n      0x24\n        /* \"#utility.yul\":7411:7412   */\n      0x00\n        /* \"#utility.yul\":7404:7419   */\n      revert\n        /* \"#utility.yul\":7431:7751   */\n    tag_43:\n        /* \"#utility.yul\":7475:7481   */\n      0x00\n        /* \"#utility.yul\":7512:7513   */\n      0x02\n        /* \"#utility.yul\":7506:7510   */\n      dup3\n        /* \"#utility.yul\":7502:7514   */\n      div\n        /* \"#utility.yul\":7492:7514   */\n      swap1\n      pop\n        /* \"#utility.yul\":7559:7560   */\n      0x01\n        /* \"#utility.yul\":7553:7557   */\n      dup3\n        /* \"#utility.yul\":7549:7561   */\n      and\n        /* \"#utility.yul\":7580:7598   */\n      dup1\n        /* \"#utility.yul\":7570:7651   */\n      tag_180\n      jumpi\n        /* \"#utility.yul\":7636:7640   */\n      0x7f\n        /* \"#utility.yul\":7628:7634   */\n      dup3\n        /* \"#utility.yul\":7624:7641   */\n      and\n        /* \"#utility.yul\":7614:7641   */\n      swap2\n      pop\n        /* \"#utility.yul\":7570:7651   */\n    tag_180:\n        /* \"#utility.yul\":7698:7700   */\n      0x20\n        /* \"#utility.yul\":7690:7696   */\n      dup3\n        /* \"#utility.yul\":7687:7701   */\n      lt\n        /* \"#utility.yul\":7667:7685   */\n      dup2\n        /* \"#utility.yul\":7664:7702   */\n      sub\n        /* \"#utility.yul\":7661:7745   */\n      tag_181\n      jumpi\n        /* \"#utility.yul\":7717:7735   */\n      tag_182\n      tag_75\n      jump\t// in\n    tag_182:\n        /* \"#utility.yul\":7661:7745   */\n    tag_181:\n        /* \"#utility.yul\":7482:7751   */\n      pop\n        /* \"#utility.yul\":7431:7751   */\n      swap2\n      swap1\n      pop\n      jump\t// out\n        /* \"#utility.yul\":7757:7898   */\n    tag_76:\n        /* \"#utility.yul\":7806:7810   */\n      0x00\n        /* \"#utility.yul\":7829:7832   */\n      dup2\n        /* \"#utility.yul\":7821:7832   */\n      swap1\n      pop\n        /* \"#utility.yul\":7852:7855   */\n      dup2\n        /* \"#utility.yul\":7849:7850   */\n      0x00\n        /* \"#utility.yul\":7842:7856   */\n      mstore\n        /* \"#utility.yul\":7886:7890   */\n      0x20\n        /* \"#utility.yul\":7883:7884   */\n      0x00\n        /* \"#utility.yul\":7873:7891   */\n      keccak256\n        /* \"#utility.yul\":7865:7891   */\n      swap1\n      pop\n        /* \"#utility.yul\":7757:7898   */\n      swap2\n      swap1\n      pop\n      jump\t// out\n        /* \"#utility.yul\":7904:7997   */\n    tag_77:\n        /* \"#utility.yul\":7941:7947   */\n      0x00\n        /* \"#utility.yul\":7988:7990   */\n      0x20\n        /* \"#utility.yul\":7983:7985   */\n      0x1f\n        /* \"#utility.yul\":7976:7981   */\n      dup4\n        /* \"#utility.yul\":7972:7986   */\n      add\n        /* \"#utility.yul\":7968:7991   */\n      div\n        /* \"#utility.yul\":7958:7991   */\n      swap1\n      pop\n        /* \"#utility.yul\":7904:7997   */\n      swap2\n      swap1\n      pop\n      jump\t// out\n        /* \"#utility.yul\":8003:8110   */\n    tag_78:\n        /* \"#utility.yul\":8047:8055   */\n      0x00\n        /* \"#utility.yul\":8097:8102   */\n      dup3\n        /* \"#utility.yul\":8091:8095   */\n      dup3\n        /* \"#utility.yul\":8087:8103   */\n      shl\n        /* \"#utility.yul\":8066:8103   */\n      swap1\n      pop\n        /* \"#utility.yul\":8003:8110   */\n      swap3\n      swap2\n      pop\n      pop\n      jump\t// out\n        /* \"#utility.yul\":8116:8509   */\n    tag_79:\n        /* \"#utility.yul\":8185:8191   */\n      0x00\n        /* \"#utility.yul\":8235:8236   */\n      0x08\n        /* \"#utility.yul\":8223:8233   */\n      dup4\n        /* \"#utility.yul\":8219:8237   */\n      mul\n        /* \"#utility.yul\":8258:8355   */\n      tag_187\n        /* \"#utility.yul\":8288:8354   */\n      0xffffffffffffffffffffffffffffffffffffffffffffffffffffffffffffffff\n        /* \"#utility.yul\":8277:8286   */\n      dup3\n        /* \"#utility.yul\":8258:8355   */\n      tag_78\n      jump\t// in\n    tag_187:\n        /* \"#utility.yul\":8376:8415   */\n      tag_188\n        /* \"#utility.yul\":8406:8414   */\n      dup7\n        /* \"#utility.yul\":8395:8404   */\n      dup4\n        /* \"#utility.yul\":8376:8415   */\n      tag_78\n      jump\t// in\n    tag_188:\n        /* \"#utility.yul\":8364:8415   */\n      swap6\n      pop\n        /* \"#utility.yul\":8448:8452   */\n      dup1\n        /* \"#utility.yul\":8444:8453   */\n      not\n        /* \"#utility.yul\":8437:8442   */\n      dup5\n        /* \"#utility.yul\":8433:8454   */\n      and\n        /* \"#utility.yul\":8424:8454   */\n      swap4\n      pop\n        /* \"#utility.yul\":8497:8501   */\n      dup1\n        /* \"#utility.yul\":8487:8495   */\n      dup7\n        /* \"#utility.yul\":8483:8502   */\n      and\n        /* \"#utility.yul\":8476:8481   */\n      dup5\n        /* \"#utility.yul\":8473:8503   */\n      or\n        /* \"#utility.yul\":8463:8503   */\n      swap3\n      pop\n        /* \"#utility.yul\":8192:8509   */\n      pop\n      pop\n        /* \"#utility.yul\":8116:8509   */\n      swap4\n      swap3\n      pop\n      pop\n      pop\n      jump\t// out\n        /* \"#utility.yul\":8515:8575   */\n    tag_80:\n        /* \"#utility.yul\":8543:8546   */\n      0x00\n        /* \"#utility.yul\":8564:8569   */\n      dup2\n        /* \"#utility.yul\":8557:8569   */\n      swap1\n      pop\n        /* \"#utility.yul\":8515:8575   */\n      swap2\n      swap1\n      pop\n      jump\t// out\n        /* \"#utility.yul\":8581:8723   */\n    tag_81:\n        /* \"#utility.yul\":8631:8640   */\n      0x00\n        /* \"#utility.yul\":8664:8717   */\n      tag_191\n        /* \"#utility.yul\":8682:8716   */\n      tag_192\n        /* \"#utility.yul\":8691:8715   */\n      tag_193\n        /* \"#utility.yul\":8709:8714   */\n      dup5\n        /* \"#utility.yul\":8691:8715   */\n      tag_55\n      jump\t// in\n    tag_193:\n        /* \"#utility.yul\":8682:8716   */\n      tag_80\n      jump\t// in\n    tag_192:\n        /* \"#utility.yul\":8664:8717   */\n      tag_55\n      jump\t// in\n    tag_191:\n        /* \"#utility.yul\":8651:8717   */\n      swap1\n      pop\n        /* \"#utility.yul\":8581:8723   */\n      swap2\n      swap1\n      pop\n      jump\t// out\n        /* \"#utility.yul\":8729:8804   */\n    tag_82:\n        /* \"#utility.yul\":8772:8775   */\n      0x00\n        /* \"#utility.yul\":8793:8798   */\n      dup2\n        /* \"#utility.yul\":8786:8798   */\n      swap1\n      pop\n        /* \"#utility.yul\":8729:8804   */\n      swap2\n      swap1\n      pop\n      jump\t// out\n        /* \"#utility.yul\":8810:9079   */\n    tag_83:\n        /* \"#utility.yul\":8920:8959   */\n      tag_196\n        /* \"#utility.yul\":8951:8958   */\n      dup4\n        /* \"#utility.yul\":8920:8959   */\n      tag_81\n      jump\t// in\n    tag_196:\n        /* \"#utility.yul\":8981:9072   */\n      tag_197\n        /* \"#utility.yul\":9030:9071   */\n      tag_198\n        /* \"#utility.yul\":9054:9070   */\n      dup3\n        /* \"#utility.yul\":9030:9071   */\n      tag_82\n      jump\t// in\n    tag_198:\n        /* \"#utility.yul\":9022:9028   */\n      dup5\n        /* \"#utility.yul\":9015:9019   */\n      dup5\n        /* \"#utility.yul\":9009:9020   */\n      sload\n        /* \"#utility.yul\":8981:9072   */\n      tag_79\n      jump\t// in\n    tag_197:\n        /* \"#utility.yul\":8975:8979   */\n      dup3\n        /* \"#utility.yul\":8968:9073   */\n      sstore\n        /* \"#utility.yul\":8886:9079   */\n      pop\n        /* \"#utility.yul\":8810:9079   */\n      pop\n      pop\n      pop\n      jump\t// out\n        /* \"#utility.yul\":9085:9158   */\n    tag_84:\n        /* \"#utility.yul\":9130:9133   */\n      0x00\n        /* \"#utility.yul\":9085:9158   */\n      swap1\n      jump\t// out\n        /* \"#utility.yul\":9164:9353   */\n    tag_85:\n        /* \"#utility.yul\":9241:9273   */\n      tag_201\n      tag_84\n      jump\t// in\n    tag_201:\n        /* \"#utility.yul\":9282:9347   */\n      tag_202\n        /* \"#utility.yul\":9340:9346   */\n      dup2\n        /* \"#utility.yul\":9332:9338   */\n      dup5\n        /* \"#utility.yul\":9326:9330   */\n      dup5\n        /* \"#utility.yul\":9282:9347   */\n      tag_83\n      jump\t// in\n    tag_202:\n        /* \"#utility.yul\":9217:9353   */\n      pop\n        /* \"#utility.yul\":9164:9353   */\n      pop\n      pop\n      jump\t// out\n        /* \"#utility.yul\":9359:9545   */\n    tag_86:\n        /* \"#utility.yul\":9419:9539   */\n    tag_204:\n        /* \"#utility.yul\":9436:9439   */\n      dup2\n        /* \"#utility.yul\":9429:9434   */\n      dup2\n        /* \"#utility.yul\":9426:9440   */\n      lt\n        /* \"#utility.yul\":9419:9539   */\n      iszero\n      tag_206\n      jumpi\n        /* \"#utility.yul\":9490:9529   */\n      tag_207\n        /* \"#utility.yul\":9527:9528   */\n      0x00\n        /* \"#utility.yul\":9520:9525   */\n      dup3\n        /* \"#utility.yul\":9490:9529   */\n      tag_85\n      jump\t// in\n    tag_207:\n        /* \"#utility.yul\":9463:9464   */\n      0x01\n        /* \"#utility.yul\":9456:9461   */\n      dup2\n        /* \"#utility.yul\":9452:9465   */\n      add\n        /* \"#utility.yul\":9443:9465   */\n      swap1\n      pop\n        /* \"#utility.yul\":9419:9539   */\n      jump(tag_204)\n    tag_206:\n        /* \"#utility.yul\":9359:9545   */\n      pop\n      pop\n      jump\t// out\n        /* \"#utility.yul\":9551:10094   */\n    tag_87:\n        /* \"#utility.yul\":9652:9654   */\n      0x1f\n        /* \"#utility.yul\":9647:9650   */\n      dup3\n        /* \"#utility.yul\":9644:9655   */\n      gt\n        /* \"#utility.yul\":9641:10087   */\n      iszero\n      tag_209\n      jumpi\n        /* \"#utility.yul\":9686:9724   */\n      tag_210\n        /* \"#utility.yul\":9718:9723   */\n      dup2\n        /* \"#utility.yul\":9686:9724   */\n      tag_76\n      jump\t// in\n    tag_210:\n        /* \"#utility.yul\":9770:9799   */\n      tag_211\n        /* \"#utility.yul\":9788:9798   */\n      dup5\n        /* \"#utility.yul\":9770:9799   */\n      tag_77\n      jump\t// in\n    tag_211:\n        /* \"#utility.yul\":9760:9768   */\n      dup2\n        /* \"#utility.yul\":9756:9800   */\n      add\n        /* \"#utility.yul\":9953:9955   */\n      0x20\n        /* \"#utility.yul\":9941:9951   */\n      dup6\n        /* \"#utility.yul\":9938:9956   */\n      lt\n        /* \"#utility.yul\":9935:9984   */\n      iszero\n      tag_212\n      jumpi\n        /* \"#utility.yul\":9974:9982   */\n      dup2\n        /* \"#utility.yul\":9959:9982   */\n      swap1\n      pop\n        /* \"#utility.yul\":9935:9984   */\n    tag_212:\n        /* \"#utility.yul\":9997:10077   */\n      tag_213\n        /* \"#utility.yul\":10053:10075   */\n      tag_214\n        /* \"#utility.yul\":10071:10074   */\n      dup6\n        /* \"#utility.yul\":10053:10075   */\n      tag_77\n      jump\t// in\n    tag_214:\n        /* \"#utility.yul\":10043:10051   */\n      dup4\n        /* \"#utility.yul\":10039:10076   */\n      add\n        /* \"#utility.yul\":10026:10037   */\n      dup3\n        /* \"#utility.yul\":9997:10077   */\n      tag_86\n      jump\t// in\n    tag_213:\n        /* \"#utility.yul\":9656:10087   */\n      pop\n      pop\n        /* \"#utility.yul\":9641:10087   */\n    tag_209:\n        /* \"#utility.yul\":9551:10094   */\n      pop\n      pop\n      pop\n      jump\t// out\n        /* \"#utility.yul\":10100:10217   */\n    tag_88:\n        /* \"#utility.yul\":10154:10162   */\n      0x00\n        /* \"#utility.yul\":10204:10209   */\n      dup3\n        /* \"#utility.yul\":10198:10202   */\n      dup3\n        /* \"#utility.yul\":10194:10210   */\n      shr\n        /* \"#utility.yul\":10173:10210   */\n      swap1\n      pop\n        /* \"#utility.yul\":10100:10217   */\n      swap3\n      swap2\n      pop\n      pop\n      jump\t// out\n        /* \"#utility.yul\":10223:10392   */\n    tag_89:\n        /* \"#utility.yul\":10267:10273   */\n      0x00\n        /* \"#utility.yul\":10300:10351   */\n      tag_217\n        /* \"#utility.yul\":10348:10349   */\n      0x00\n        /* \"#utility.yul\":10344:10350   */\n      not\n        /* \"#utility.yul\":10336:10341   */\n      dup5\n        /* \"#utility.yul\":10333:10334   */\n      0x08\n        /* \"#utility.yul\":10329:10342   */\n      mul\n        /* \"#utility.yul\":10300:10351   */\n      tag_88\n      jump\t// in\n    tag_217:\n        /* \"#utility.yul\":10296:10352   */\n      not\n        /* \"#utility.yul\":10381:10385   */\n      dup1\n        /* \"#utility.yul\":10375:10379   */\n      dup4\n        /* \"#utility.yul\":10371:10386   */\n      and\n        /* \"#utility.yul\":10361:10386   */\n      swap2\n      pop\n        /* \"#utility.yul\":10274:10392   */\n      pop\n        /* \"#utility.yul\":10223:10392   */\n      swap3\n      swap2\n      pop\n      pop\n      jump\t// out\n        /* \"#utility.yul\":10397:10692   */\n    tag_90:\n        /* \"#utility.yul\":10473:10477   */\n      0x00\n        /* \"#utility.yul\":10619:10648   */\n      tag_219\n        /* \"#utility.yul\":10644:10647   */\n      dup4\n        /* \"#utility.yul\":10638:10642   */\n      dup4\n        /* \"#utility.yul\":10619:10648   */\n      tag_89\n      jump\t// in\n    tag_219:\n        /* \"#utility.yul\":10611:10648   */\n      swap2\n      pop\n        /* \"#utility.yul\":10681:10684   */\n      dup3\n        /* \"#utility.yul\":10678:10679   */\n      0x02\n        /* \"#utility.yul\":10674:10685   */\n      mul\n        /* \"#utility.yul\":10668:10672   */\n      dup3\n        /* \"#utility.yul\":10665:10686   */\n      or\n        /* \"#utility.yul\":10657:10686   */\n      swap1\n      pop\n        /* \"#utility.yul\":10397:10692   */\n      swap3\n      swap2\n      pop\n      pop\n      jump\t// out\n        /* \"#utility.yul\":10697:12092   */\n    tag_39:\n        /* \"#utility.yul\":10814:10851   */\n      tag_221\n        /* \"#utility.yul\":10847:10850   */\n      dup3\n        /* \"#utility.yul\":10814:10851   */\n      tag_70\n      jump\t// in\n    tag_221:\n        /* \"#utility.yul\":10916:10934   */\n      0xffffffffffffffff\n        /* \"#utility.yul\":10908:10914   */\n      dup2\n        /* \"#utility.yul\":10905:10935   */\n      gt\n        /* \"#utility.yul\":10902:10958   */\n      iszero\n      tag_222\n      jumpi\n        /* \"#utility.yul\":10938:10956   */\n      tag_223\n      tag_60\n      jump\t// in\n    tag_223:\n        /* \"#utility.yul\":10902:10958   */\n    tag_222:\n        /* \"#utility.yul\":10982:11020   */\n      tag_224\n        /* \"#utility.yul\":11014:11018   */\n      dup3\n        /* \"#utility.yul\":11008:11019   */\n      sload\n        /* \"#utility.yul\":10982:11020   */\n      tag_43\n      jump\t// in\n    tag_224:\n        /* \"#utility.yul\":11067:11134   */\n      tag_225\n        /* \"#utility.yul\":11127:11133   */\n      dup3\n        /* \"#utility.yul\":11119:11125   */\n      dup3\n        /* \"#utility.yul\":11113:11117   */\n      dup6\n        /* \"#utility.yul\":11067:11134   */\n      tag_87\n      jump\t// in\n    tag_225:\n        /* \"#utility.yul\":11161:11162   */\n      0x00\n        /* \"#utility.yul\":11185:11189   */\n      0x20\n        /* \"#utility.yul\":11172:11189   */\n      swap1\n      pop\n        /* \"#utility.yul\":11217:11219   */\n      0x1f\n        /* \"#utility.yul\":11209:11215   */\n      dup4\n        /* \"#utility.yul\":11206:11220   */\n      gt\n        /* \"#utility.yul\":11234:11235   */\n      0x01\n        /* \"#utility.yul\":11229:11847   */\n      dup2\n      eq\n      tag_227\n      jumpi\n        /* \"#utility.yul\":11891:11892   */\n      0x00\n        /* \"#utility.yul\":11908:11914   */\n      dup5\n        /* \"#utility.yul\":11905:11982   */\n      iszero\n      tag_228\n      jumpi\n        /* \"#utility.yul\":11957:11966   */\n      dup3\n        /* \"#utility.yul\":11952:11955   */\n      dup8\n        /* \"#utility.yul\":11948:11967   */\n      add\n        /* \"#utility.yul\":11942:11968   */\n      mload\n        /* \"#utility.yul\":11933:11968   */\n      swap1\n      pop\n        /* \"#utility.yul\":11905:11982   */\n    tag_228:\n        /* \"#utility.yul\":12008:12075   */\n      tag_229\n        /* \"#utility.yul\":12068:12074   */\n      dup6\n        /* \"#utility.yul\":12061:12066   */\n      dup3\n        /* \"#utility.yul\":12008:12075   */\n      tag_90\n      jump\t// in\n    tag_229:\n        /* \"#utility.yul\":12002:12006   */\n      dup7\n        /* \"#utility.yul\":11995:12076   */\n      sstore\n        /* \"#utility.yul\":11864:12086   */\n      pop\n        /* \"#utility.yul\":11199:12086   */\n      jump(tag_226)\n        /* \"#utility.yul\":11229:11847   */\n    tag_227:\n        /* \"#utility.yul\":11281:11285   */\n      0x1f\n        /* \"#utility.yul\":11277:11286   */\n      not\n        /* \"#utility.yul\":11269:11275   */\n      dup5\n        /* \"#utility.yul\":11265:11287   */\n      and\n        /* \"#utility.yul\":11315:11352   */\n      tag_230\n        /* \"#utility.yul\":11347:11351   */\n      dup7\n        /* \"#utility.yul\":11315:11352   */\n      tag_76\n      jump\t// in\n    tag_230:\n        /* \"#utility.yul\":11374:11375   */\n      0x00\n        /* \"#utility.yul\":11388:11596   */\n    tag_231:\n        /* \"#utility.yul\":11402:11409   */\n      dup3\n        /* \"#utility.yul\":11399:11400   */\n      dup2\n        /* \"#utility.yul\":11396:11410   */\n      lt\n        /* \"#utility.yul\":11388:11596   */\n      iszero\n      tag_233\n      jumpi\n        /* \"#utility.yul\":11481:11490   */\n      dup5\n        /* \"#utility.yul\":11476:11479   */\n      dup10\n        /* \"#utility.yul\":11472:11491   */\n      add\n        /* \"#utility.yul\":11466:11492   */\n      mload\n        /* \"#utility.yul\":11458:11464   */\n      dup3\n        /* \"#utility.yul\":11451:11493   */\n      sstore\n        /* \"#utility.yul\":11532:11533   */\n      0x01\n        /* \"#utility.yul\":11524:11530   */\n      dup3\n        /* \"#utility.yul\":11520:11534   */\n      add\n        /* \"#utility.yul\":11510:11534   */\n      swap2\n      pop\n        /* \"#utility.yul\":11579:11581   */\n      0x20\n        /* \"#utility.yul\":11568:11577   */\n      dup6\n        /* \"#utility.yul\":11564:11582   */\n      add\n        /* \"#utility.yul\":11551:11582   */\n      swap5\n      pop\n        /* \"#utility.yul\":11425:11429   */\n      0x20\n        /* \"#utility.yul\":11422:11423   */\n      dup2\n        /* \"#utility.yul\":11418:11430   */\n      add\n        /* \"#utility.yul\":11413:11430   */\n      swap1\n      pop\n        /* \"#utility.yul\":11388:11596   */\n      jump(tag_231)\n    tag_233:\n        /* \"#utility.yul\":11624:11630   */\n      dup7\n        /* \"#utility.yul\":11615:11622   */\n      dup4\n        /* \"#utility.yul\":11612:11631   */\n      lt\n        /* \"#utility.yul\":11609:11788   */\n      iszero\n      tag_234\n      jumpi\n        /* \"#utility.yul\":11682:11691   */\n      dup5\n        /* \"#utility.yul\":11677:11680   */\n      dup10\n        /* \"#utility.yul\":11673:11692   */\n      add\n        /* \"#utility.yul\":11667:11693   */\n      mload\n        /* \"#utility.yul\":11725:11773   */\n      tag_235\n        /* \"#utility.yul\":11767:11771   */\n      0x1f\n        /* \"#utility.yul\":11759:11765   */\n      dup10\n        /* \"#utility.yul\":11755:11772   */\n      and\n        /* \"#utility.yul\":11744:11753   */\n      dup3\n        /* \"#utility.yul\":11725:11773   */\n      tag_89\n      jump\t// in\n    tag_235:\n        /* \"#utility.yul\":11717:11723   */\n      dup4\n        /* \"#utility.yul\":11710:11774   */\n      sstore\n        /* \"#utility.yul\":11632:11788   */\n      pop\n        /* \"#utility.yul\":11609:11788   */\n    tag_234:\n        /* \"#utility.yul\":11834:11835   */\n      0x01\n        /* \"#utility.yul\":11830:11831   */\n      0x02\n        /* \"#utility.yul\":11822:11828   */\n      dup9\n        /* \"#utility.yul\":11818:11832   */\n      mul\n        /* \"#utility.yul\":11814:11836   */\n      add\n        /* \"#utility.yul\":11808:11812   */\n      dup9\n        /* \"#utility.yul\":11801:11837   */\n      sstore\n        /* \"#utility.yul\":11236:11847   */\n      pop\n      pop\n      pop\n        /* \"#utility.yul\":11199:12086   */\n    tag_226:\n      pop\n        /* \"#utility.yul\":10789:12092   */\n      pop\n      pop\n      pop\n        /* \"#utility.yul\":10697:12092   */\n      pop\n      pop\n      jump\t// out\n\n    auxdata: 0xa264697066735822122041e3135b7cd1fcb64893cf1faa03fb6c5c486f5df7db461f023ecac023b3cc7064736f6c63430008180033\n}\n",
				"bytecode": {
					"linkReferences": {},
					"object": "60806040523480156200001157600080fd5b50600060405180606001604052803373ffffffffffffffffffffffffffffffffffffffff1681526020016040518060400160405280600981526020017f47726f636572696573000000000000000000000000000000000000000000000081525081526020016032815250908060018154018082558091505060019003906000526020600020906003020160009091909190915060008201518160000160006101000a81548173ffffffffffffffffffffffffffffffffffffffff021916908373ffffffffffffffffffffffffffffffffffffffff160217905550602082015181600101908162000102919062000589565b50604082015181600201555050600060405180606001604052803373ffffffffffffffffffffffffffffffffffffffff1681526020016040518060400160405280600e81526020017f5472616e73706f72746174696f6e0000000000000000000000000000000000008152508152602001601e815250908060018154018082558091505060019003906000526020600020906003020160009091909190915060008201518160000160006101000a81548173ffffffffffffffffffffffffffffffffffffffff021916908373ffffffffffffffffffffffffffffffffffffffff1602179055506020820151816001019081620001ff919062000589565b50604082015181600201555050600060405180606001604052803373ffffffffffffffffffffffffffffffffffffffff1681526020016040518060400160405280600a81526020017f44696e696e67206f75740000000000000000000000000000000000000000000081525081526020016019815250908060018154018082558091505060019003906000526020600020906003020160009091909190915060008201518160000160006101000a81548173ffffffffffffffffffffffffffffffffffffffff021916908373ffffffffffffffffffffffffffffffffffffffff1602179055506020820151816001019081620002fc919062000589565b5060408201518160020155505062000670565b600081519050919050565b7f4e487b7100000000000000000000000000000000000000000000000000000000600052604160045260246000fd5b7f4e487b7100000000000000000000000000000000000000000000000000000000600052602260045260246000fd5b600060028204905060018216806200039157607f821691505b602082108103620003a757620003a662000349565b5b50919050565b60008190508160005260206000209050919050565b60006020601f8301049050919050565b600082821b905092915050565b600060088302620004117fffffffffffffffffffffffffffffffffffffffffffffffffffffffffffffffff82620003d2565b6200041d8683620003d2565b95508019841693508086168417925050509392505050565b6000819050919050565b6000819050919050565b60006200046a620004646200045e8462000435565b6200043f565b62000435565b9050919050565b6000819050919050565b620004868362000449565b6200049e620004958262000471565b848454620003df565b825550505050565b600090565b620004b5620004a6565b620004c28184846200047b565b505050565b5b81811015620004ea57620004de600082620004ab565b600181019050620004c8565b5050565b601f82111562000539576200050381620003ad565b6200050e84620003c2565b810160208510156200051e578190505b620005366200052d85620003c2565b830182620004c7565b50505b505050565b600082821c905092915050565b60006200055e600019846008026200053e565b1980831691505092915050565b60006200057983836200054b565b9150826002028217905092915050565b62000594826200030f565b67ffffffffffffffff811115620005b057620005af6200031a565b5b620005bc825462000378565b620005c9828285620004ee565b600060209050601f831160018114620006015760008415620005ec578287015190505b620005f885826200056b565b86555062000668565b601f1984166200061186620003ad565b60005b828110156200063b5784890151825560018201915060208501945060208101905062000614565b868310156200065b578489015162000657601f8916826200054b565b8355505b6001600288020188555050505b505050505050565b610a8980620006806000396000f3fe608060405234801561001057600080fd5b50600436106100415760003560e01c80633fb457e414610046578063a4df1f5a14610076578063af4afe0a14610092575b600080fd5b610060600480360381019061005b91906103bb565b6100c4565b60405161006d9190610401565b60405180910390f35b610090600480360381019061008b919061058e565b61019e565b005b6100ac60048036038101906100a791906105ea565b610267565b6040516100bb939291906106a5565b60405180910390f35b6000806000905060005b600080549050811015610194578373ffffffffffffffffffffffffffffffffffffffff1660008281548110610106576101056106e3565b5b906000526020600020906003020160000160009054906101000a900473ffffffffffffffffffffffffffffffffffffffff1673ffffffffffffffffffffffffffffffffffffffff16036101875760008181548110610167576101666106e3565b5b906000526020600020906003020160020154826101849190610741565b91505b80806001019150506100ce565b5080915050919050565b600060405180606001604052803373ffffffffffffffffffffffffffffffffffffffff16815260200184815260200183815250908060018154018082558091505060019003906000526020600020906003020160009091909190915060008201518160000160006101000a81548173ffffffffffffffffffffffffffffffffffffffff021916908373ffffffffffffffffffffffffffffffffffffffff16021790555060208201518160010190816102569190610981565b506040820151816002015550505050565b6000818154811061027757600080fd5b90600052602060002090600302016000915090508060000160009054906101000a900473ffffffffffffffffffffffffffffffffffffffff16908060010180546102c0906107a4565b80601f01602080910402602001604051908101604052809291908181526020018280546102ec906107a4565b80156103395780601f1061030e57610100808354040283529160200191610339565b820191906000526020600020905b81548152906001019060200180831161031c57829003601f168201915b5050505050908060020154905083565b6000604051905090565b600080fd5b600080fd5b600073ffffffffffffffffffffffffffffffffffffffff82169050919050565b60006103888261035d565b9050919050565b6103988161037d565b81146103a357600080fd5b50565b6000813590506103b58161038f565b92915050565b6000602082840312156103d1576103d0610353565b5b60006103df848285016103a6565b91505092915050565b6000819050919050565b6103fb816103e8565b82525050565b600060208201905061041660008301846103f2565b92915050565b600080fd5b600080fd5b6000601f19601f8301169050919050565b7f4e487b7100000000000000000000000000000000000000000000000000000000600052604160045260246000fd5b61046f82610426565b810181811067ffffffffffffffff8211171561048e5761048d610437565b5b80604052505050565b60006104a1610349565b90506104ad8282610466565b919050565b600067ffffffffffffffff8211156104cd576104cc610437565b5b6104d682610426565b9050602081019050919050565b82818337600083830152505050565b6000610505610500846104b2565b610497565b90508281526020810184848401111561052157610520610421565b5b61052c8482856104e3565b509392505050565b600082601f8301126105495761054861041c565b5b81356105598482602086016104f2565b91505092915050565b61056b816103e8565b811461057657600080fd5b50565b60008135905061058881610562565b92915050565b600080604083850312156105a5576105a4610353565b5b600083013567ffffffffffffffff8111156105c3576105c2610358565b5b6105cf85828601610534565b92505060206105e085828601610579565b9150509250929050565b600060208284031215610600576105ff610353565b5b600061060e84828501610579565b91505092915050565b6106208161037d565b82525050565b600081519050919050565b600082825260208201905092915050565b60005b83811015610660578082015181840152602081019050610645565b60008484015250505050565b600061067782610626565b6106818185610631565b9350610691818560208601610642565b61069a81610426565b840191505092915050565b60006060820190506106ba6000830186610617565b81810360208301526106cc818561066c565b90506106db60408301846103f2565b949350505050565b7f4e487b7100000000000000000000000000000000000000000000000000000000600052603260045260246000fd5b7f4e487b7100000000000000000000000000000000000000000000000000000000600052601160045260246000fd5b600061074c826103e8565b9150610757836103e8565b925082820190508082111561076f5761076e610712565b5b92915050565b7f4e487b7100000000000000000000000000000000000000000000000000000000600052602260045260246000fd5b600060028204905060018216806107bc57607f821691505b6020821081036107cf576107ce610775565b5b50919050565b60008190508160005260206000209050919050565b60006020601f8301049050919050565b600082821b905092915050565b6000600883026108377fffffffffffffffffffffffffffffffffffffffffffffffffffffffffffffffff826107fa565b61084186836107fa565b95508019841693508086168417925050509392505050565b6000819050919050565b600061087e610879610874846103e8565b610859565b6103e8565b9050919050565b6000819050919050565b61089883610863565b6108ac6108a482610885565b848454610807565b825550505050565b600090565b6108c16108b4565b6108cc81848461088f565b505050565b5b818110156108f0576108e56000826108b9565b6001810190506108d2565b5050565b601f82111561093557610906816107d5565b61090f846107ea565b8101602085101561091e578190505b61093261092a856107ea565b8301826108d1565b50505b505050565b600082821c905092915050565b60006109586000198460080261093a565b1980831691505092915050565b60006109718383610947565b9150826002028217905092915050565b61098a82610626565b67ffffffffffffffff8111156109a3576109a2610437565b5b6109ad82546107a4565b6109b88282856108f4565b600060209050601f8311600181146109eb57600084156109d9578287015190505b6109e38582610965565b865550610a4b565b601f1984166109f9866107d5565b60005b82811015610a21578489015182556001820191506020850194506020810190506109fc565b86831015610a3e5784890151610a3a601f891682610947565b8355505b6001600288020188555050505b50505050505056fea264697066735822122041e3135b7cd1fcb64893cf1faa03fb6c5c486f5df7db461f023ecac023b3cc7064736f6c63430008180033",
					"opcodes": "PUSH1 0x80 PUSH1 0x40 MSTORE CALLVALUE DUP1 ISZERO PUSH3 0x11 JUMPI PUSH1 0x0 DUP1 REVERT JUMPDEST POP PUSH1 0x0 PUSH1 0x40 MLOAD DUP1 PUSH1 0x60 ADD PUSH1 0x40 MSTORE DUP1 CALLER PUSH20 0xFFFFFFFFFFFFFFFFFFFFFFFFFFFFFFFFFFFFFFFF AND DUP2 MSTORE PUSH1 0x20 ADD PUSH1 0x40 MLOAD DUP1 PUSH1 0x40 ADD PUSH1 0x40 MSTORE DUP1 PUSH1 0x9 DUP2 MSTORE PUSH1 0x20 ADD PUSH32 0x47726F6365726965730000000000000000000000000000000000000000000000 DUP2 MSTORE POP DUP2 MSTORE PUSH1 0x20 ADD PUSH1 0x32 DUP2 MSTORE POP SWAP1 DUP1 PUSH1 0x1 DUP2 SLOAD ADD DUP1 DUP3 SSTORE DUP1 SWAP2 POP POP PUSH1 0x1 SWAP1 SUB SWAP1 PUSH1 0x0 MSTORE PUSH1 0x20 PUSH1 0x0 KECCAK256 SWAP1 PUSH1 0x3 MUL ADD PUSH1 0x0 SWAP1 SWAP2 SWAP1 SWAP2 SWAP1 SWAP2 POP PUSH1 0x0 DUP3 ADD MLOAD DUP2 PUSH1 0x0 ADD PUSH1 0x0 PUSH2 0x100 EXP DUP2 SLOAD DUP2 PUSH20 0xFFFFFFFFFFFFFFFFFFFFFFFFFFFFFFFFFFFFFFFF MUL NOT AND SWAP1 DUP4 PUSH20 0xFFFFFFFFFFFFFFFFFFFFFFFFFFFFFFFFFFFFFFFF AND MUL OR SWAP1 SSTORE POP PUSH1 0x20 DUP3 ADD MLOAD DUP2 PUSH1 0x1 ADD SWAP1 DUP2 PUSH3 0x102 SWAP2 SWAP1 PUSH3 0x589 JUMP JUMPDEST POP PUSH1 0x40 DUP3 ADD MLOAD DUP2 PUSH1 0x2 ADD SSTORE POP POP PUSH1 0x0 PUSH1 0x40 MLOAD DUP1 PUSH1 0x60 ADD PUSH1 0x40 MSTORE DUP1 CALLER PUSH20 0xFFFFFFFFFFFFFFFFFFFFFFFFFFFFFFFFFFFFFFFF AND DUP2 MSTORE PUSH1 0x20 ADD PUSH1 0x40 MLOAD DUP1 PUSH1 0x40 ADD PUSH1 0x40 MSTORE DUP1 PUSH1 0xE DUP2 MSTORE PUSH1 0x20 ADD PUSH32 0x5472616E73706F72746174696F6E000000000000000000000000000000000000 DUP2 MSTORE POP DUP2 MSTORE PUSH1 0x20 ADD PUSH1 0x1E DUP2 MSTORE POP SWAP1 DUP1 PUSH1 0x1 DUP2 SLOAD ADD DUP1 DUP3 SSTORE DUP1 SWAP2 POP POP PUSH1 0x1 SWAP1 SUB SWAP1 PUSH1 0x0 MSTORE PUSH1 0x20 PUSH1 0x0 KECCAK256 SWAP1 PUSH1 0x3 MUL ADD PUSH1 0x0 SWAP1 SWAP2 SWAP1 SWAP2 SWAP1 SWAP2 POP PUSH1 0x0 DUP3 ADD MLOAD DUP2 PUSH1 0x0 ADD PUSH1 0x0 PUSH2 0x100 EXP DUP2 SLOAD DUP2 PUSH20 0xFFFFFFFFFFFFFFFFFFFFFFFFFFFFFFFFFFFFFFFF MUL NOT AND SWAP1 DUP4 PUSH20 0xFFFFFFFFFFFFFFFFFFFFFFFFFFFFFFFFFFFFFFFF AND MUL OR SWAP1 SSTORE POP PUSH1 0x20 DUP3 ADD MLOAD DUP2 PUSH1 0x1 ADD SWAP1 DUP2 PUSH3 0x1FF SWAP2 SWAP1 PUSH3 0x589 JUMP JUMPDEST POP PUSH1 0x40 DUP3 ADD MLOAD DUP2 PUSH1 0x2 ADD SSTORE POP POP PUSH1 0x0 PUSH1 0x40 MLOAD DUP1 PUSH1 0x60 ADD PUSH1 0x40 MSTORE DUP1 CALLER PUSH20 0xFFFFFFFFFFFFFFFFFFFFFFFFFFFFFFFFFFFFFFFF AND DUP2 MSTORE PUSH1 0x20 ADD PUSH1 0x40 MLOAD DUP1 PUSH1 0x40 ADD PUSH1 0x40 MSTORE DUP1 PUSH1 0xA DUP2 MSTORE PUSH1 0x20 ADD PUSH32 0x44696E696E67206F757400000000000000000000000000000000000000000000 DUP2 MSTORE POP DUP2 MSTORE PUSH1 0x20 ADD PUSH1 0x19 DUP2 MSTORE POP SWAP1 DUP1 PUSH1 0x1 DUP2 SLOAD ADD DUP1 DUP3 SSTORE DUP1 SWAP2 POP POP PUSH1 0x1 SWAP1 SUB SWAP1 PUSH1 0x0 MSTORE PUSH1 0x20 PUSH1 0x0 KECCAK256 SWAP1 PUSH1 0x3 MUL ADD PUSH1 0x0 SWAP1 SWAP2 SWAP1 SWAP2 SWAP1 SWAP2 POP PUSH1 0x0 DUP3 ADD MLOAD DUP2 PUSH1 0x0 ADD PUSH1 0x0 PUSH2 0x100 EXP DUP2 SLOAD DUP2 PUSH20 0xFFFFFFFFFFFFFFFFFFFFFFFFFFFFFFFFFFFFFFFF MUL NOT AND SWAP1 DUP4 PUSH20 0xFFFFFFFFFFFFFFFFFFFFFFFFFFFFFFFFFFFFFFFF AND MUL OR SWAP1 SSTORE POP PUSH1 0x20 DUP3 ADD MLOAD DUP2 PUSH1 0x1 ADD SWAP1 DUP2 PUSH3 0x2FC SWAP2 SWAP1 PUSH3 0x589 JUMP JUMPDEST POP PUSH1 0x40 DUP3 ADD MLOAD DUP2 PUSH1 0x2 ADD SSTORE POP POP PUSH3 0x670 JUMP JUMPDEST PUSH1 0x0 DUP2 MLOAD SWAP1 POP SWAP2 SWAP1 POP JUMP JUMPDEST PUSH32 0x4E487B7100000000000000000000000000000000000000000000000000000000 PUSH1 0x0 MSTORE PUSH1 0x41 PUSH1 0x4 MSTORE PUSH1 0x24 PUSH1 0x0 REVERT JUMPDEST PUSH32 0x4E487B7100000000000000000000000000000000000000000000000000000000 PUSH1 0x0 MSTORE PUSH1 0x22 PUSH1 0x4 MSTORE PUSH1 0x24 PUSH1 0x0 REVERT JUMPDEST PUSH1 0x0 PUSH1 0x2 DUP3 DIV SWAP1 POP PUSH1 0x1 DUP3 AND DUP1 PUSH3 0x391 JUMPI PUSH1 0x7F DUP3 AND SWAP2 POP JUMPDEST PUSH1 0x20 DUP3 LT DUP2 SUB PUSH3 0x3A7 JUMPI PUSH3 0x3A6 PUSH3 0x349 JUMP JUMPDEST JUMPDEST POP SWAP2 SWAP1 POP JUMP JUMPDEST PUSH1 0x0 DUP2 SWAP1 POP DUP2 PUSH1 0x0 MSTORE PUSH1 0x20 PUSH1 0x0 KECCAK256 SWAP1 POP SWAP2 SWAP1 POP JUMP JUMPDEST PUSH1 0x0 PUSH1 0x20 PUSH1 0x1F DUP4 ADD DIV SWAP1 POP SWAP2 SWAP1 POP JUMP JUMPDEST PUSH1 0x0 DUP3 DUP3 SHL SWAP1 POP SWAP3 SWAP2 POP POP JUMP JUMPDEST PUSH1 0x0 PUSH1 0x8 DUP4 MUL PUSH3 0x411 PUSH32 0xFFFFFFFFFFFFFFFFFFFFFFFFFFFFFFFFFFFFFFFFFFFFFFFFFFFFFFFFFFFFFFFF DUP3 PUSH3 0x3D2 JUMP JUMPDEST PUSH3 0x41D DUP7 DUP4 PUSH3 0x3D2 JUMP JUMPDEST SWAP6 POP DUP1 NOT DUP5 AND SWAP4 POP DUP1 DUP7 AND DUP5 OR SWAP3 POP POP POP SWAP4 SWAP3 POP POP POP JUMP JUMPDEST PUSH1 0x0 DUP2 SWAP1 POP SWAP2 SWAP1 POP JUMP JUMPDEST PUSH1 0x0 DUP2 SWAP1 POP SWAP2 SWAP1 POP JUMP JUMPDEST PUSH1 0x0 PUSH3 0x46A PUSH3 0x464 PUSH3 0x45E DUP5 PUSH3 0x435 JUMP JUMPDEST PUSH3 0x43F JUMP JUMPDEST PUSH3 0x435 JUMP JUMPDEST SWAP1 POP SWAP2 SWAP1 POP JUMP JUMPDEST PUSH1 0x0 DUP2 SWAP1 POP SWAP2 SWAP1 POP JUMP JUMPDEST PUSH3 0x486 DUP4 PUSH3 0x449 JUMP JUMPDEST PUSH3 0x49E PUSH3 0x495 DUP3 PUSH3 0x471 JUMP JUMPDEST DUP5 DUP5 SLOAD PUSH3 0x3DF JUMP JUMPDEST DUP3 SSTORE POP POP POP POP JUMP JUMPDEST PUSH1 0x0 SWAP1 JUMP JUMPDEST PUSH3 0x4B5 PUSH3 0x4A6 JUMP JUMPDEST PUSH3 0x4C2 DUP2 DUP5 DUP5 PUSH3 0x47B JUMP JUMPDEST POP POP POP JUMP JUMPDEST JUMPDEST DUP2 DUP2 LT ISZERO PUSH3 0x4EA JUMPI PUSH3 0x4DE PUSH1 0x0 DUP3 PUSH3 0x4AB JUMP JUMPDEST PUSH1 0x1 DUP2 ADD SWAP1 POP PUSH3 0x4C8 JUMP JUMPDEST POP POP JUMP JUMPDEST PUSH1 0x1F DUP3 GT ISZERO PUSH3 0x539 JUMPI PUSH3 0x503 DUP2 PUSH3 0x3AD JUMP JUMPDEST PUSH3 0x50E DUP5 PUSH3 0x3C2 JUMP JUMPDEST DUP2 ADD PUSH1 0x20 DUP6 LT ISZERO PUSH3 0x51E JUMPI DUP2 SWAP1 POP JUMPDEST PUSH3 0x536 PUSH3 0x52D DUP6 PUSH3 0x3C2 JUMP JUMPDEST DUP4 ADD DUP3 PUSH3 0x4C7 JUMP JUMPDEST POP POP JUMPDEST POP POP POP JUMP JUMPDEST PUSH1 0x0 DUP3 DUP3 SHR SWAP1 POP SWAP3 SWAP2 POP POP JUMP JUMPDEST PUSH1 0x0 PUSH3 0x55E PUSH1 0x0 NOT DUP5 PUSH1 0x8 MUL PUSH3 0x53E JUMP JUMPDEST NOT DUP1 DUP4 AND SWAP2 POP POP SWAP3 SWAP2 POP POP JUMP JUMPDEST PUSH1 0x0 PUSH3 0x579 DUP4 DUP4 PUSH3 0x54B JUMP JUMPDEST SWAP2 POP DUP3 PUSH1 0x2 MUL DUP3 OR SWAP1 POP SWAP3 SWAP2 POP POP JUMP JUMPDEST PUSH3 0x594 DUP3 PUSH3 0x30F JUMP JUMPDEST PUSH8 0xFFFFFFFFFFFFFFFF DUP2 GT ISZERO PUSH3 0x5B0 JUMPI PUSH3 0x5AF PUSH3 0x31A JUMP JUMPDEST JUMPDEST PUSH3 0x5BC DUP3 SLOAD PUSH3 0x378 JUMP JUMPDEST PUSH3 0x5C9 DUP3 DUP3 DUP6 PUSH3 0x4EE JUMP JUMPDEST PUSH1 0x0 PUSH1 0x20 SWAP1 POP PUSH1 0x1F DUP4 GT PUSH1 0x1 DUP2 EQ PUSH3 0x601 JUMPI PUSH1 0x0 DUP5 ISZERO PUSH3 0x5EC JUMPI DUP3 DUP8 ADD MLOAD SWAP1 POP JUMPDEST PUSH3 0x5F8 DUP6 DUP3 PUSH3 0x56B JUMP JUMPDEST DUP7 SSTORE POP PUSH3 0x668 JUMP JUMPDEST PUSH1 0x1F NOT DUP5 AND PUSH3 0x611 DUP7 PUSH3 0x3AD JUMP JUMPDEST PUSH1 0x0 JUMPDEST DUP3 DUP2 LT ISZERO PUSH3 0x63B JUMPI DUP5 DUP10 ADD MLOAD DUP3 SSTORE PUSH1 0x1 DUP3 ADD SWAP2 POP PUSH1 0x20 DUP6 ADD SWAP5 POP PUSH1 0x20 DUP2 ADD SWAP1 POP PUSH3 0x614 JUMP JUMPDEST DUP7 DUP4 LT ISZERO PUSH3 0x65B JUMPI DUP5 DUP10 ADD MLOAD PUSH3 0x657 PUSH1 0x1F DUP10 AND DUP3 PUSH3 0x54B JUMP JUMPDEST DUP4 SSTORE POP JUMPDEST PUSH1 0x1 PUSH1 0x2 DUP9 MUL ADD DUP9 SSTORE POP POP POP JUMPDEST POP POP POP POP POP POP JUMP JUMPDEST PUSH2 0xA89 DUP1 PUSH3 0x680 PUSH1 0x0 CODECOPY PUSH1 0x0 RETURN INVALID PUSH1 0x80 PUSH1 0x40 MSTORE CALLVALUE DUP1 ISZERO PUSH2 0x10 JUMPI PUSH1 0x0 DUP1 REVERT JUMPDEST POP PUSH1 0x4 CALLDATASIZE LT PUSH2 0x41 JUMPI PUSH1 0x0 CALLDATALOAD PUSH1 0xE0 SHR DUP1 PUSH4 0x3FB457E4 EQ PUSH2 0x46 JUMPI DUP1 PUSH4 0xA4DF1F5A EQ PUSH2 0x76 JUMPI DUP1 PUSH4 0xAF4AFE0A EQ PUSH2 0x92 JUMPI JUMPDEST PUSH1 0x0 DUP1 REVERT JUMPDEST PUSH2 0x60 PUSH1 0x4 DUP1 CALLDATASIZE SUB DUP2 ADD SWAP1 PUSH2 0x5B SWAP2 SWAP1 PUSH2 0x3BB JUMP JUMPDEST PUSH2 0xC4 JUMP JUMPDEST PUSH1 0x40 MLOAD PUSH2 0x6D SWAP2 SWAP1 PUSH2 0x401 JUMP JUMPDEST PUSH1 0x40 MLOAD DUP1 SWAP2 SUB SWAP1 RETURN JUMPDEST PUSH2 0x90 PUSH1 0x4 DUP1 CALLDATASIZE SUB DUP2 ADD SWAP1 PUSH2 0x8B SWAP2 SWAP1 PUSH2 0x58E JUMP JUMPDEST PUSH2 0x19E JUMP JUMPDEST STOP JUMPDEST PUSH2 0xAC PUSH1 0x4 DUP1 CALLDATASIZE SUB DUP2 ADD SWAP1 PUSH2 0xA7 SWAP2 SWAP1 PUSH2 0x5EA JUMP JUMPDEST PUSH2 0x267 JUMP JUMPDEST PUSH1 0x40 MLOAD PUSH2 0xBB SWAP4 SWAP3 SWAP2 SWAP1 PUSH2 0x6A5 JUMP JUMPDEST PUSH1 0x40 MLOAD DUP1 SWAP2 SUB SWAP1 RETURN JUMPDEST PUSH1 0x0 DUP1 PUSH1 0x0 SWAP1 POP PUSH1 0x0 JUMPDEST PUSH1 0x0 DUP1 SLOAD SWAP1 POP DUP2 LT ISZERO PUSH2 0x194 JUMPI DUP4 PUSH20 0xFFFFFFFFFFFFFFFFFFFFFFFFFFFFFFFFFFFFFFFF AND PUSH1 0x0 DUP3 DUP2 SLOAD DUP2 LT PUSH2 0x106 JUMPI PUSH2 0x105 PUSH2 0x6E3 JUMP JUMPDEST JUMPDEST SWAP1 PUSH1 0x0 MSTORE PUSH1 0x20 PUSH1 0x0 KECCAK256 SWAP1 PUSH1 0x3 MUL ADD PUSH1 0x0 ADD PUSH1 0x0 SWAP1 SLOAD SWAP1 PUSH2 0x100 EXP SWAP1 DIV PUSH20 0xFFFFFFFFFFFFFFFFFFFFFFFFFFFFFFFFFFFFFFFF AND PUSH20 0xFFFFFFFFFFFFFFFFFFFFFFFFFFFFFFFFFFFFFFFF AND SUB PUSH2 0x187 JUMPI PUSH1 0x0 DUP2 DUP2 SLOAD DUP2 LT PUSH2 0x167 JUMPI PUSH2 0x166 PUSH2 0x6E3 JUMP JUMPDEST JUMPDEST SWAP1 PUSH1 0x0 MSTORE PUSH1 0x20 PUSH1 0x0 KECCAK256 SWAP1 PUSH1 0x3 MUL ADD PUSH1 0x2 ADD SLOAD DUP3 PUSH2 0x184 SWAP2 SWAP1 PUSH2 0x741 JUMP JUMPDEST SWAP2 POP JUMPDEST DUP1 DUP1 PUSH1 0x1 ADD SWAP2 POP POP PUSH2 0xCE JUMP JUMPDEST POP DUP1 SWAP2 POP POP SWAP2 SWAP1 POP JUMP JUMPDEST PUSH1 0x0 PUSH1 0x40 MLOAD DUP1 PUSH1 0x60 ADD PUSH1 0x40 MSTORE DUP1 CALLER PUSH20 0xFFFFFFFFFFFFFFFFFFFFFFFFFFFFFFFFFFFFFFFF AND DUP2 MSTORE PUSH1 0x20 ADD DUP5 DUP2 MSTORE PUSH1 0x20 ADD DUP4 DUP2 MSTORE POP SWAP1 DUP1 PUSH1 0x1 DUP2 SLOAD ADD DUP1 DUP3 SSTORE DUP1 SWAP2 POP POP PUSH1 0x1 SWAP1 SUB SWAP1 PUSH1 0x0 MSTORE PUSH1 0x20 PUSH1 0x0 KECCAK256 SWAP1 PUSH1 0x3 MUL ADD PUSH1 0x0 SWAP1 SWAP2 SWAP1 SWAP2 SWAP1 SWAP2 POP PUSH1 0x0 DUP3 ADD MLOAD DUP2 PUSH1 0x0 ADD PUSH1 0x0 PUSH2 0x100 EXP DUP2 SLOAD DUP2 PUSH20 0xFFFFFFFFFFFFFFFFFFFFFFFFFFFFFFFFFFFFFFFF MUL NOT AND SWAP1 DUP4 PUSH20 0xFFFFFFFFFFFFFFFFFFFFFFFFFFFFFFFFFFFFFFFF AND MUL OR SWAP1 SSTORE POP PUSH1 0x20 DUP3 ADD MLOAD DUP2 PUSH1 0x1 ADD SWAP1 DUP2 PUSH2 0x256 SWAP2 SWAP1 PUSH2 0x981 JUMP JUMPDEST POP PUSH1 0x40 DUP3 ADD MLOAD DUP2 PUSH1 0x2 ADD SSTORE POP POP POP POP JUMP JUMPDEST PUSH1 0x0 DUP2 DUP2 SLOAD DUP2 LT PUSH2 0x277 JUMPI PUSH1 0x0 DUP1 REVERT JUMPDEST SWAP1 PUSH1 0x0 MSTORE PUSH1 0x20 PUSH1 0x0 KECCAK256 SWAP1 PUSH1 0x3 MUL ADD PUSH1 0x0 SWAP2 POP SWAP1 POP DUP1 PUSH1 0x0 ADD PUSH1 0x0 SWAP1 SLOAD SWAP1 PUSH2 0x100 EXP SWAP1 DIV PUSH20 0xFFFFFFFFFFFFFFFFFFFFFFFFFFFFFFFFFFFFFFFF AND SWAP1 DUP1 PUSH1 0x1 ADD DUP1 SLOAD PUSH2 0x2C0 SWAP1 PUSH2 0x7A4 JUMP JUMPDEST DUP1 PUSH1 0x1F ADD PUSH1 0x20 DUP1 SWAP2 DIV MUL PUSH1 0x20 ADD PUSH1 0x40 MLOAD SWAP1 DUP2 ADD PUSH1 0x40 MSTORE DUP1 SWAP3 SWAP2 SWAP1 DUP2 DUP2 MSTORE PUSH1 0x20 ADD DUP3 DUP1 SLOAD PUSH2 0x2EC SWAP1 PUSH2 0x7A4 JUMP JUMPDEST DUP1 ISZERO PUSH2 0x339 JUMPI DUP1 PUSH1 0x1F LT PUSH2 0x30E JUMPI PUSH2 0x100 DUP1 DUP4 SLOAD DIV MUL DUP4 MSTORE SWAP2 PUSH1 0x20 ADD SWAP2 PUSH2 0x339 JUMP JUMPDEST DUP3 ADD SWAP2 SWAP1 PUSH1 0x0 MSTORE PUSH1 0x20 PUSH1 0x0 KECCAK256 SWAP1 JUMPDEST DUP2 SLOAD DUP2 MSTORE SWAP1 PUSH1 0x1 ADD SWAP1 PUSH1 0x20 ADD DUP1 DUP4 GT PUSH2 0x31C JUMPI DUP3 SWAP1 SUB PUSH1 0x1F AND DUP3 ADD SWAP2 JUMPDEST POP POP POP POP POP SWAP1 DUP1 PUSH1 0x2 ADD SLOAD SWAP1 POP DUP4 JUMP JUMPDEST PUSH1 0x0 PUSH1 0x40 MLOAD SWAP1 POP SWAP1 JUMP JUMPDEST PUSH1 0x0 DUP1 REVERT JUMPDEST PUSH1 0x0 DUP1 REVERT JUMPDEST PUSH1 0x0 PUSH20 0xFFFFFFFFFFFFFFFFFFFFFFFFFFFFFFFFFFFFFFFF DUP3 AND SWAP1 POP SWAP2 SWAP1 POP JUMP JUMPDEST PUSH1 0x0 PUSH2 0x388 DUP3 PUSH2 0x35D JUMP JUMPDEST SWAP1 POP SWAP2 SWAP1 POP JUMP JUMPDEST PUSH2 0x398 DUP2 PUSH2 0x37D JUMP JUMPDEST DUP2 EQ PUSH2 0x3A3 JUMPI PUSH1 0x0 DUP1 REVERT JUMPDEST POP JUMP JUMPDEST PUSH1 0x0 DUP2 CALLDATALOAD SWAP1 POP PUSH2 0x3B5 DUP2 PUSH2 0x38F JUMP JUMPDEST SWAP3 SWAP2 POP POP JUMP JUMPDEST PUSH1 0x0 PUSH1 0x20 DUP3 DUP5 SUB SLT ISZERO PUSH2 0x3D1 JUMPI PUSH2 0x3D0 PUSH2 0x353 JUMP JUMPDEST JUMPDEST PUSH1 0x0 PUSH2 0x3DF DUP5 DUP3 DUP6 ADD PUSH2 0x3A6 JUMP JUMPDEST SWAP2 POP POP SWAP3 SWAP2 POP POP JUMP JUMPDEST PUSH1 0x0 DUP2 SWAP1 POP SWAP2 SWAP1 POP JUMP JUMPDEST PUSH2 0x3FB DUP2 PUSH2 0x3E8 JUMP JUMPDEST DUP3 MSTORE POP POP JUMP JUMPDEST PUSH1 0x0 PUSH1 0x20 DUP3 ADD SWAP1 POP PUSH2 0x416 PUSH1 0x0 DUP4 ADD DUP5 PUSH2 0x3F2 JUMP JUMPDEST SWAP3 SWAP2 POP POP JUMP JUMPDEST PUSH1 0x0 DUP1 REVERT JUMPDEST PUSH1 0x0 DUP1 REVERT JUMPDEST PUSH1 0x0 PUSH1 0x1F NOT PUSH1 0x1F DUP4 ADD AND SWAP1 POP SWAP2 SWAP1 POP JUMP JUMPDEST PUSH32 0x4E487B7100000000000000000000000000000000000000000000000000000000 PUSH1 0x0 MSTORE PUSH1 0x41 PUSH1 0x4 MSTORE PUSH1 0x24 PUSH1 0x0 REVERT JUMPDEST PUSH2 0x46F DUP3 PUSH2 0x426 JUMP JUMPDEST DUP2 ADD DUP2 DUP2 LT PUSH8 0xFFFFFFFFFFFFFFFF DUP3 GT OR ISZERO PUSH2 0x48E JUMPI PUSH2 0x48D PUSH2 0x437 JUMP JUMPDEST JUMPDEST DUP1 PUSH1 0x40 MSTORE POP POP POP JUMP JUMPDEST PUSH1 0x0 PUSH2 0x4A1 PUSH2 0x349 JUMP JUMPDEST SWAP1 POP PUSH2 0x4AD DUP3 DUP3 PUSH2 0x466 JUMP JUMPDEST SWAP2 SWAP1 POP JUMP JUMPDEST PUSH1 0x0 PUSH8 0xFFFFFFFFFFFFFFFF DUP3 GT ISZERO PUSH2 0x4CD JUMPI PUSH2 0x4CC PUSH2 0x437 JUMP JUMPDEST JUMPDEST PUSH2 0x4D6 DUP3 PUSH2 0x426 JUMP JUMPDEST SWAP1 POP PUSH1 0x20 DUP2 ADD SWAP1 POP SWAP2 SWAP1 POP JUMP JUMPDEST DUP3 DUP2 DUP4 CALLDATACOPY PUSH1 0x0 DUP4 DUP4 ADD MSTORE POP POP POP JUMP JUMPDEST PUSH1 0x0 PUSH2 0x505 PUSH2 0x500 DUP5 PUSH2 0x4B2 JUMP JUMPDEST PUSH2 0x497 JUMP JUMPDEST SWAP1 POP DUP3 DUP2 MSTORE PUSH1 0x20 DUP2 ADD DUP5 DUP5 DUP5 ADD GT ISZERO PUSH2 0x521 JUMPI PUSH2 0x520 PUSH2 0x421 JUMP JUMPDEST JUMPDEST PUSH2 0x52C DUP5 DUP3 DUP6 PUSH2 0x4E3 JUMP JUMPDEST POP SWAP4 SWAP3 POP POP POP JUMP JUMPDEST PUSH1 0x0 DUP3 PUSH1 0x1F DUP4 ADD SLT PUSH2 0x549 JUMPI PUSH2 0x548 PUSH2 0x41C JUMP JUMPDEST JUMPDEST DUP2 CALLDATALOAD PUSH2 0x559 DUP5 DUP3 PUSH1 0x20 DUP7 ADD PUSH2 0x4F2 JUMP JUMPDEST SWAP2 POP POP SWAP3 SWAP2 POP POP JUMP JUMPDEST PUSH2 0x56B DUP2 PUSH2 0x3E8 JUMP JUMPDEST DUP2 EQ PUSH2 0x576 JUMPI PUSH1 0x0 DUP1 REVERT JUMPDEST POP JUMP JUMPDEST PUSH1 0x0 DUP2 CALLDATALOAD SWAP1 POP PUSH2 0x588 DUP2 PUSH2 0x562 JUMP JUMPDEST SWAP3 SWAP2 POP POP JUMP JUMPDEST PUSH1 0x0 DUP1 PUSH1 0x40 DUP4 DUP6 SUB SLT ISZERO PUSH2 0x5A5 JUMPI PUSH2 0x5A4 PUSH2 0x353 JUMP JUMPDEST JUMPDEST PUSH1 0x0 DUP4 ADD CALLDATALOAD PUSH8 0xFFFFFFFFFFFFFFFF DUP2 GT ISZERO PUSH2 0x5C3 JUMPI PUSH2 0x5C2 PUSH2 0x358 JUMP JUMPDEST JUMPDEST PUSH2 0x5CF DUP6 DUP3 DUP7 ADD PUSH2 0x534 JUMP JUMPDEST SWAP3 POP POP PUSH1 0x20 PUSH2 0x5E0 DUP6 DUP3 DUP7 ADD PUSH2 0x579 JUMP JUMPDEST SWAP2 POP POP SWAP3 POP SWAP3 SWAP1 POP JUMP JUMPDEST PUSH1 0x0 PUSH1 0x20 DUP3 DUP5 SUB SLT ISZERO PUSH2 0x600 JUMPI PUSH2 0x5FF PUSH2 0x353 JUMP JUMPDEST JUMPDEST PUSH1 0x0 PUSH2 0x60E DUP5 DUP3 DUP6 ADD PUSH2 0x579 JUMP JUMPDEST SWAP2 POP POP SWAP3 SWAP2 POP POP JUMP JUMPDEST PUSH2 0x620 DUP2 PUSH2 0x37D JUMP JUMPDEST DUP3 MSTORE POP POP JUMP JUMPDEST PUSH1 0x0 DUP2 MLOAD SWAP1 POP SWAP2 SWAP1 POP JUMP JUMPDEST PUSH1 0x0 DUP3 DUP3 MSTORE PUSH1 0x20 DUP3 ADD SWAP1 POP SWAP3 SWAP2 POP POP JUMP JUMPDEST PUSH1 0x0 JUMPDEST DUP4 DUP2 LT ISZERO PUSH2 0x660 JUMPI DUP1 DUP3 ADD MLOAD DUP2 DUP5 ADD MSTORE PUSH1 0x20 DUP2 ADD SWAP1 POP PUSH2 0x645 JUMP JUMPDEST PUSH1 0x0 DUP5 DUP5 ADD MSTORE POP POP POP POP JUMP JUMPDEST PUSH1 0x0 PUSH2 0x677 DUP3 PUSH2 0x626 JUMP JUMPDEST PUSH2 0x681 DUP2 DUP6 PUSH2 0x631 JUMP JUMPDEST SWAP4 POP PUSH2 0x691 DUP2 DUP6 PUSH1 0x20 DUP7 ADD PUSH2 0x642 JUMP JUMPDEST PUSH2 0x69A DUP2 PUSH2 0x426 JUMP JUMPDEST DUP5 ADD SWAP2 POP POP SWAP3 SWAP2 POP POP JUMP JUMPDEST PUSH1 0x0 PUSH1 0x60 DUP3 ADD SWAP1 POP PUSH2 0x6BA PUSH1 0x0 DUP4 ADD DUP7 PUSH2 0x617 JUMP JUMPDEST DUP2 DUP2 SUB PUSH1 0x20 DUP4 ADD MSTORE PUSH2 0x6CC DUP2 DUP6 PUSH2 0x66C JUMP JUMPDEST SWAP1 POP PUSH2 0x6DB PUSH1 0x40 DUP4 ADD DUP5 PUSH2 0x3F2 JUMP JUMPDEST SWAP5 SWAP4 POP POP POP POP JUMP JUMPDEST PUSH32 0x4E487B7100000000000000000000000000000000000000000000000000000000 PUSH1 0x0 MSTORE PUSH1 0x32 PUSH1 0x4 MSTORE PUSH1 0x24 PUSH1 0x0 REVERT JUMPDEST PUSH32 0x4E487B7100000000000000000000000000000000000000000000000000000000 PUSH1 0x0 MSTORE PUSH1 0x11 PUSH1 0x4 MSTORE PUSH1 0x24 PUSH1 0x0 REVERT JUMPDEST PUSH1 0x0 PUSH2 0x74C DUP3 PUSH2 0x3E8 JUMP JUMPDEST SWAP2 POP PUSH2 0x757 DUP4 PUSH2 0x3E8 JUMP JUMPDEST SWAP3 POP DUP3 DUP3 ADD SWAP1 POP DUP1 DUP3 GT ISZERO PUSH2 0x76F JUMPI PUSH2 0x76E PUSH2 0x712 JUMP JUMPDEST JUMPDEST SWAP3 SWAP2 POP POP JUMP JUMPDEST PUSH32 0x4E487B7100000000000000000000000000000000000000000000000000000000 PUSH1 0x0 MSTORE PUSH1 0x22 PUSH1 0x4 MSTORE PUSH1 0x24 PUSH1 0x0 REVERT JUMPDEST PUSH1 0x0 PUSH1 0x2 DUP3 DIV SWAP1 POP PUSH1 0x1 DUP3 AND DUP1 PUSH2 0x7BC JUMPI PUSH1 0x7F DUP3 AND SWAP2 POP JUMPDEST PUSH1 0x20 DUP3 LT DUP2 SUB PUSH2 0x7CF JUMPI PUSH2 0x7CE PUSH2 0x775 JUMP JUMPDEST JUMPDEST POP SWAP2 SWAP1 POP JUMP JUMPDEST PUSH1 0x0 DUP2 SWAP1 POP DUP2 PUSH1 0x0 MSTORE PUSH1 0x20 PUSH1 0x0 KECCAK256 SWAP1 POP SWAP2 SWAP1 POP JUMP JUMPDEST PUSH1 0x0 PUSH1 0x20 PUSH1 0x1F DUP4 ADD DIV SWAP1 POP SWAP2 SWAP1 POP JUMP JUMPDEST PUSH1 0x0 DUP3 DUP3 SHL SWAP1 POP SWAP3 SWAP2 POP POP JUMP JUMPDEST PUSH1 0x0 PUSH1 0x8 DUP4 MUL PUSH2 0x837 PUSH32 0xFFFFFFFFFFFFFFFFFFFFFFFFFFFFFFFFFFFFFFFFFFFFFFFFFFFFFFFFFFFFFFFF DUP3 PUSH2 0x7FA JUMP JUMPDEST PUSH2 0x841 DUP7 DUP4 PUSH2 0x7FA JUMP JUMPDEST SWAP6 POP DUP1 NOT DUP5 AND SWAP4 POP DUP1 DUP7 AND DUP5 OR SWAP3 POP POP POP SWAP4 SWAP3 POP POP POP JUMP JUMPDEST PUSH1 0x0 DUP2 SWAP1 POP SWAP2 SWAP1 POP JUMP JUMPDEST PUSH1 0x0 PUSH2 0x87E PUSH2 0x879 PUSH2 0x874 DUP5 PUSH2 0x3E8 JUMP JUMPDEST PUSH2 0x859 JUMP JUMPDEST PUSH2 0x3E8 JUMP JUMPDEST SWAP1 POP SWAP2 SWAP1 POP JUMP JUMPDEST PUSH1 0x0 DUP2 SWAP1 POP SWAP2 SWAP1 POP JUMP JUMPDEST PUSH2 0x898 DUP4 PUSH2 0x863 JUMP JUMPDEST PUSH2 0x8AC PUSH2 0x8A4 DUP3 PUSH2 0x885 JUMP JUMPDEST DUP5 DUP5 SLOAD PUSH2 0x807 JUMP JUMPDEST DUP3 SSTORE POP POP POP POP JUMP JUMPDEST PUSH1 0x0 SWAP1 JUMP JUMPDEST PUSH2 0x8C1 PUSH2 0x8B4 JUMP JUMPDEST PUSH2 0x8CC DUP2 DUP5 DUP5 PUSH2 0x88F JUMP JUMPDEST POP POP POP JUMP JUMPDEST JUMPDEST DUP2 DUP2 LT ISZERO PUSH2 0x8F0 JUMPI PUSH2 0x8E5 PUSH1 0x0 DUP3 PUSH2 0x8B9 JUMP JUMPDEST PUSH1 0x1 DUP2 ADD SWAP1 POP PUSH2 0x8D2 JUMP JUMPDEST POP POP JUMP JUMPDEST PUSH1 0x1F DUP3 GT ISZERO PUSH2 0x935 JUMPI PUSH2 0x906 DUP2 PUSH2 0x7D5 JUMP JUMPDEST PUSH2 0x90F DUP5 PUSH2 0x7EA JUMP JUMPDEST DUP2 ADD PUSH1 0x20 DUP6 LT ISZERO PUSH2 0x91E JUMPI DUP2 SWAP1 POP JUMPDEST PUSH2 0x932 PUSH2 0x92A DUP6 PUSH2 0x7EA JUMP JUMPDEST DUP4 ADD DUP3 PUSH2 0x8D1 JUMP JUMPDEST POP POP JUMPDEST POP POP POP JUMP JUMPDEST PUSH1 0x0 DUP3 DUP3 SHR SWAP1 POP SWAP3 SWAP2 POP POP JUMP JUMPDEST PUSH1 0x0 PUSH2 0x958 PUSH1 0x0 NOT DUP5 PUSH1 0x8 MUL PUSH2 0x93A JUMP JUMPDEST NOT DUP1 DUP4 AND SWAP2 POP POP SWAP3 SWAP2 POP POP JUMP JUMPDEST PUSH1 0x0 PUSH2 0x971 DUP4 DUP4 PUSH2 0x947 JUMP JUMPDEST SWAP2 POP DUP3 PUSH1 0x2 MUL DUP3 OR SWAP1 POP SWAP3 SWAP2 POP POP JUMP JUMPDEST PUSH2 0x98A DUP3 PUSH2 0x626 JUMP JUMPDEST PUSH8 0xFFFFFFFFFFFFFFFF DUP2 GT ISZERO PUSH2 0x9A3 JUMPI PUSH2 0x9A2 PUSH2 0x437 JUMP JUMPDEST JUMPDEST PUSH2 0x9AD DUP3 SLOAD PUSH2 0x7A4 JUMP JUMPDEST PUSH2 0x9B8 DUP3 DUP3 DUP6 PUSH2 0x8F4 JUMP JUMPDEST PUSH1 0x0 PUSH1 0x20 SWAP1 POP PUSH1 0x1F DUP4 GT PUSH1 0x1 DUP2 EQ PUSH2 0x9EB JUMPI PUSH1 0x0 DUP5 ISZERO PUSH2 0x9D9 JUMPI DUP3 DUP8 ADD MLOAD SWAP1 POP JUMPDEST PUSH2 0x9E3 DUP6 DUP3 PUSH2 0x965 JUMP JUMPDEST DUP7 SSTORE POP PUSH2 0xA4B JUMP JUMPDEST PUSH1 0x1F NOT DUP5 AND PUSH2 0x9F9 DUP7 PUSH2 0x7D5 JUMP JUMPDEST PUSH1 0x0 JUMPDEST DUP3 DUP2 LT ISZERO PUSH2 0xA21 JUMPI DUP5 DUP10 ADD MLOAD DUP3 SSTORE PUSH1 0x1 DUP3 ADD SWAP2 POP PUSH1 0x20 DUP6 ADD SWAP5 POP PUSH1 0x20 DUP2 ADD SWAP1 POP PUSH2 0x9FC JUMP JUMPDEST DUP7 DUP4 LT ISZERO PUSH2 0xA3E JUMPI DUP5 DUP10 ADD MLOAD PUSH2 0xA3A PUSH1 0x1F DUP10 AND DUP3 PUSH2 0x947 JUMP JUMPDEST DUP4 SSTORE POP JUMPDEST PUSH1 0x1 PUSH1 0x2 DUP9 MUL ADD DUP9 SSTORE POP POP POP JUMPDEST POP POP POP POP POP POP JUMP INVALID LOG2 PUSH5 0x6970667358 0x22 SLT KECCAK256 COINBASE 0xE3 SGT JUMPDEST PUSH29 0xD1FCB64893CF1FAA03FB6C5C486F5DF7DB461F023ECAC023B3CC706473 PUSH16 0x6C634300081800330000000000000000 "
				},
				"gasEstimates": {
					"creation": {
						"codeDepositCost": "539400",
						"executionCost": "infinite",
						"totalCost": "infinite"
					},
					"external": {
						"addExpense(string,uint256)": "infinite",
						"expenses(uint256)": "infinite",
						"getTotalExpenses(address)": "infinite"
					}
				},
				"methodIdentifiers": {
					"addExpense(string,uint256)": "a4df1f5a",
					"expenses(uint256)": "af4afe0a",
					"getTotalExpenses(address)": "3fb457e4"
				}
			},
			"storageLayout": {
				"storage": [
					{
						"astId": 12,
						"contract": "contracts/Expenses.sol:ExpenseTracker",
						"label": "expenses",
						"offset": 0,
						"slot": "0",
						"type": "t_array(t_struct(Expense)8_storage)dyn_storage"
					}
				],
				"types": {
					"t_address": {
						"encoding": "inplace",
						"label": "address",
						"numberOfBytes": "20"
					},
					"t_array(t_struct(Expense)8_storage)dyn_storage": {
						"base": "t_struct(Expense)8_storage",
						"encoding": "dynamic_array",
						"label": "struct ExpenseTracker.Expense[]",
						"numberOfBytes": "32"
					},
					"t_string_storage": {
						"encoding": "bytes",
						"label": "string",
						"numberOfBytes": "32"
					},
					"t_struct(Expense)8_storage": {
						"encoding": "inplace",
						"label": "struct ExpenseTracker.Expense",
						"members": [
							{
								"astId": 3,
								"contract": "contracts/Expenses.sol:ExpenseTracker",
								"label": "user",
								"offset": 0,
								"slot": "0",
								"type": "t_address"
							},
							{
								"astId": 5,
								"contract": "contracts/Expenses.sol:ExpenseTracker",
								"label": "description",
								"offset": 0,
								"slot": "1",
								"type": "t_string_storage"
							},
							{
								"astId": 7,
								"contract": "contracts/Expenses.sol:ExpenseTracker",
								"label": "amount",
								"offset": 0,
								"slot": "2",
								"type": "t_uint256"
							}
						],
						"numberOfBytes": "96"
					},
					"t_uint256": {
						"encoding": "inplace",
						"label": "uint256",
						"numberOfBytes": "32"
					}
				}
			},
			"userdoc": {
				"kind": "user",
				"methods": {},
				"version": 1
			}
		}
	}
}