{
	"contracts/Twitter.sol": {
		"Twitter": {
			"abi": [
				{
					"inputs": [],
					"stateMutability": "nonpayable",
					"type": "constructor"
				},
				{
					"inputs": [
						{
							"internalType": "address",
							"name": "owner",
							"type": "address"
						}
					],
					"name": "OwnableInvalidOwner",
					"type": "error"
				},
				{
					"inputs": [
						{
							"internalType": "address",
							"name": "account",
							"type": "address"
						}
					],
					"name": "OwnableUnauthorizedAccount",
					"type": "error"
				},
				{
					"anonymous": false,
					"inputs": [
						{
							"indexed": true,
							"internalType": "address",
							"name": "previousOwner",
							"type": "address"
						},
						{
							"indexed": true,
							"internalType": "address",
							"name": "newOwner",
							"type": "address"
						}
					],
					"name": "OwnershipTransferred",
					"type": "event"
				},
				{
					"anonymous": false,
					"inputs": [
						{
							"indexed": false,
							"internalType": "uint256",
							"name": "id",
							"type": "uint256"
						},
						{
							"indexed": false,
							"internalType": "address",
							"name": "author",
							"type": "address"
						},
						{
							"indexed": false,
							"internalType": "string",
							"name": "content",
							"type": "string"
						},
						{
							"indexed": false,
							"internalType": "uint256",
							"name": "timestamp",
							"type": "uint256"
						}
					],
					"name": "TweetCreated",
					"type": "event"
				},
				{
					"anonymous": false,
					"inputs": [
						{
							"indexed": false,
							"internalType": "uint256",
							"name": "id",
							"type": "uint256"
						},
						{
							"indexed": false,
							"internalType": "address",
							"name": "author",
							"type": "address"
						},
						{
							"indexed": false,
							"internalType": "uint256",
							"name": "likeCount",
							"type": "uint256"
						},
						{
							"indexed": false,
							"internalType": "address",
							"name": "liker",
							"type": "address"
						}
					],
					"name": "TweetLiked",
					"type": "event"
				},
				{
					"anonymous": false,
					"inputs": [
						{
							"indexed": false,
							"internalType": "uint256",
							"name": "id",
							"type": "uint256"
						},
						{
							"indexed": false,
							"internalType": "address",
							"name": "author",
							"type": "address"
						},
						{
							"indexed": false,
							"internalType": "uint256",
							"name": "likeCount",
							"type": "uint256"
						},
						{
							"indexed": false,
							"internalType": "address",
							"name": "liker",
							"type": "address"
						}
					],
					"name": "TweetUnliked",
					"type": "event"
				},
				{
					"inputs": [],
					"name": "MAX_TWEET_LENGTH",
					"outputs": [
						{
							"internalType": "uint16",
							"name": "",
							"type": "uint16"
						}
					],
					"stateMutability": "view",
					"type": "function"
				},
				{
					"inputs": [
						{
							"internalType": "uint16",
							"name": "_input",
							"type": "uint16"
						}
					],
					"name": "changeTweetLength",
					"outputs": [],
					"stateMutability": "nonpayable",
					"type": "function"
				},
				{
					"inputs": [
						{
							"internalType": "string",
							"name": "_input",
							"type": "string"
						}
					],
					"name": "createTweet",
					"outputs": [],
					"stateMutability": "nonpayable",
					"type": "function"
				},
				{
					"inputs": [
						{
							"internalType": "address",
							"name": "owner",
							"type": "address"
						}
					],
					"name": "getAllTweets",
					"outputs": [
						{
							"components": [
								{
									"internalType": "uint256",
									"name": "id",
									"type": "uint256"
								},
								{
									"internalType": "address",
									"name": "author",
									"type": "address"
								},
								{
									"internalType": "string",
									"name": "content",
									"type": "string"
								},
								{
									"internalType": "uint256",
									"name": "timestamp",
									"type": "uint256"
								},
								{
									"internalType": "uint256",
									"name": "likes",
									"type": "uint256"
								}
							],
							"internalType": "struct Twitter.Tweet[]",
							"name": "",
							"type": "tuple[]"
						}
					],
					"stateMutability": "view",
					"type": "function"
				},
				{
					"inputs": [],
					"name": "getOwner",
					"outputs": [
						{
							"internalType": "address",
							"name": "",
							"type": "address"
						}
					],
					"stateMutability": "view",
					"type": "function"
				},
				{
					"inputs": [
						{
							"internalType": "address",
							"name": "_author",
							"type": "address"
						}
					],
					"name": "getTotalLikes",
					"outputs": [
						{
							"internalType": "uint256",
							"name": "",
							"type": "uint256"
						}
					],
					"stateMutability": "view",
					"type": "function"
				},
				{
					"inputs": [
						{
							"internalType": "uint256",
							"name": "_i",
							"type": "uint256"
						}
					],
					"name": "getTweet",
					"outputs": [
						{
							"components": [
								{
									"internalType": "uint256",
									"name": "id",
									"type": "uint256"
								},
								{
									"internalType": "address",
									"name": "author",
									"type": "address"
								},
								{
									"internalType": "string",
									"name": "content",
									"type": "string"
								},
								{
									"internalType": "uint256",
									"name": "timestamp",
									"type": "uint256"
								},
								{
									"internalType": "uint256",
									"name": "likes",
									"type": "uint256"
								}
							],
							"internalType": "struct Twitter.Tweet",
							"name": "",
							"type": "tuple"
						}
					],
					"stateMutability": "view",
					"type": "function"
				},
				{
					"inputs": [
						{
							"internalType": "uint256",
							"name": "_id",
							"type": "uint256"
						},
						{
							"internalType": "address",
							"name": "_author",
							"type": "address"
						}
					],
					"name": "likeTweet",
					"outputs": [],
					"stateMutability": "nonpayable",
					"type": "function"
				},
				{
					"inputs": [],
					"name": "owner",
					"outputs": [
						{
							"internalType": "address",
							"name": "",
							"type": "address"
						}
					],
					"stateMutability": "view",
					"type": "function"
				},
				{
					"inputs": [],
					"name": "renounceOwnership",
					"outputs": [],
					"stateMutability": "nonpayable",
					"type": "function"
				},
				{
					"inputs": [
						{
							"internalType": "address",
							"name": "newOwner",
							"type": "address"
						}
					],
					"name": "transferOwnership",
					"outputs": [],
					"stateMutability": "nonpayable",
					"type": "function"
				},
				{
					"inputs": [
						{
							"internalType": "uint256",
							"name": "_id",
							"type": "uint256"
						},
						{
							"internalType": "address",
							"name": "_author",
							"type": "address"
						}
					],
					"name": "unlikeTweet",
					"outputs": [],
					"stateMutability": "nonpayable",
					"type": "function"
				}
			],
			"devdoc": {
				"errors": {
					"OwnableInvalidOwner(address)": [
						{
							"details": "The owner is not a valid owner account. (eg. `address(0)`)"
						}
					],
					"OwnableUnauthorizedAccount(address)": [
						{
							"details": "The caller account is not authorized to perform an operation."
						}
					]
				},
				"kind": "dev",
				"methods": {
					"owner()": {
						"details": "Returns the address of the current owner."
					},
					"renounceOwnership()": {
						"details": "Leaves the contract without owner. It will not be possible to call `onlyOwner` functions. Can only be called by the current owner. NOTE: Renouncing ownership will leave the contract without an owner, thereby disabling any functionality that is only available to the owner."
					},
					"transferOwnership(address)": {
						"details": "Transfers ownership of the contract to a new account (`newOwner`). Can only be called by the current owner."
					}
				},
				"version": 1
			},
			"evm": {
				"assembly": "    /* \"contracts/Twitter.sol\":186:3097  contract Twitter is Ownable {... */\n  mstore(0x40, 0x80)\n    /* \"contracts/Twitter.sol\":253:256  200 */\n  0xc8\n    /* \"contracts/Twitter.sol\":220:256  uint16 public MAX_TWEET_LENGTH = 200 */\n  0x00\n  exp(0x0100, 0x14)\n  dup2\n  sload\n  dup2\n  0xffff\n  mul\n  not\n  and\n  swap1\n  dup4\n  0xffff\n  and\n  mul\n  or\n  swap1\n  sstore\n  pop\n    /* \"contracts/Twitter.sol\":287:288  0 */\n  0x00\n    /* \"contracts/Twitter.sol\":262:288  uint256 currentTweetId = 0 */\n  0x01\n  sstore\n    /* \"contracts/Twitter.sol\":843:884  constructor() Ownable(msg.sender) {... */\n  callvalue\n  dup1\n  iszero\n  tag_1\n  jumpi\n  0x00\n  dup1\n  revert\ntag_1:\n  pop\n    /* \"contracts/Twitter.sol\":865:875  msg.sender */\n  caller\n    /* \"@openzeppelin/contracts/access/Ownable.sol\":1297:1298  0 */\n  0x00\n    /* \"@openzeppelin/contracts/access/Ownable.sol\":1273:1299  initialOwner == address(0) */\n  0xffffffffffffffffffffffffffffffffffffffff\n  and\n    /* \"@openzeppelin/contracts/access/Ownable.sol\":1273:1285  initialOwner */\n  dup2\n    /* \"@openzeppelin/contracts/access/Ownable.sol\":1273:1299  initialOwner == address(0) */\n  0xffffffffffffffffffffffffffffffffffffffff\n  and\n  sub\n    /* \"@openzeppelin/contracts/access/Ownable.sol\":1269:1364  if (initialOwner == address(0)) {... */\n  tag_5\n  jumpi\n    /* \"@openzeppelin/contracts/access/Ownable.sol\":1350:1351  0 */\n  0x00\n    /* \"@openzeppelin/contracts/access/Ownable.sol\":1322:1353  OwnableInvalidOwner(address(0)) */\n  mload(0x40)\n  0x1e4fbdf700000000000000000000000000000000000000000000000000000000\n  dup2\n  mstore\n  0x04\n  add\n  tag_6\n  swap2\n  swap1\n  tag_7\n  jump\t// in\ntag_6:\n  mload(0x40)\n  dup1\n  swap2\n  sub\n  swap1\n  revert\n    /* \"@openzeppelin/contracts/access/Ownable.sol\":1269:1364  if (initialOwner == address(0)) {... */\ntag_5:\n    /* \"@openzeppelin/contracts/access/Ownable.sol\":1373:1405  _transferOwnership(initialOwner) */\n  tag_8\n    /* \"@openzeppelin/contracts/access/Ownable.sol\":1392:1404  initialOwner */\n  dup2\n    /* \"@openzeppelin/contracts/access/Ownable.sol\":1373:1391  _transferOwnership */\n  shl(0x20, tag_9)\n    /* \"@openzeppelin/contracts/access/Ownable.sol\":1373:1405  _transferOwnership(initialOwner) */\n  0x20\n  shr\n  jump\t// in\ntag_8:\n    /* \"@openzeppelin/contracts/access/Ownable.sol\":1225:1412  constructor(address initialOwner) {... */\n  pop\n    /* \"contracts/Twitter.sol\":186:3097  contract Twitter is Ownable {... */\n  jump(tag_11)\n    /* \"@openzeppelin/contracts/access/Ownable.sol\":2912:3099  function _transferOwnership(address newOwner) internal virtual {... */\ntag_9:\n    /* \"@openzeppelin/contracts/access/Ownable.sol\":2985:3001  address oldOwner */\n  0x00\n    /* \"@openzeppelin/contracts/access/Ownable.sol\":3004:3010  _owner */\n  dup1\n  0x00\n  swap1\n  sload\n  swap1\n  0x0100\n  exp\n  swap1\n  div\n  0xffffffffffffffffffffffffffffffffffffffff\n  and\n    /* \"@openzeppelin/contracts/access/Ownable.sol\":2985:3010  address oldOwner = _owner */\n  swap1\n  pop\n    /* \"@openzeppelin/contracts/access/Ownable.sol\":3029:3037  newOwner */\n  dup2\n    /* \"@openzeppelin/contracts/access/Ownable.sol\":3020:3026  _owner */\n  0x00\n  dup1\n    /* \"@openzeppelin/contracts/access/Ownable.sol\":3020:3037  _owner = newOwner */\n  0x0100\n  exp\n  dup2\n  sload\n  dup2\n  0xffffffffffffffffffffffffffffffffffffffff\n  mul\n  not\n  and\n  swap1\n  dup4\n  0xffffffffffffffffffffffffffffffffffffffff\n  and\n  mul\n  or\n  swap1\n  sstore\n  pop\n    /* \"@openzeppelin/contracts/access/Ownable.sol\":3083:3091  newOwner */\n  dup2\n    /* \"@openzeppelin/contracts/access/Ownable.sol\":3052:3092  OwnershipTransferred(oldOwner, newOwner) */\n  0xffffffffffffffffffffffffffffffffffffffff\n  and\n    /* \"@openzeppelin/contracts/access/Ownable.sol\":3073:3081  oldOwner */\n  dup2\n    /* \"@openzeppelin/contracts/access/Ownable.sol\":3052:3092  OwnershipTransferred(oldOwner, newOwner) */\n  0xffffffffffffffffffffffffffffffffffffffff\n  and\n  0x8be0079c531659141344cd1fd0a4f28419497f9722a3daafe3b4186f6b6457e0\n  mload(0x40)\n  mload(0x40)\n  dup1\n  swap2\n  sub\n  swap1\n  log3\n    /* \"@openzeppelin/contracts/access/Ownable.sol\":2975:3099  {... */\n  pop\n    /* \"@openzeppelin/contracts/access/Ownable.sol\":2912:3099  function _transferOwnership(address newOwner) internal virtual {... */\n  pop\n  jump\t// out\n    /* \"#utility.yul\":7:133   */\ntag_13:\n    /* \"#utility.yul\":44:51   */\n  0x00\n    /* \"#utility.yul\":84:126   */\n  0xffffffffffffffffffffffffffffffffffffffff\n    /* \"#utility.yul\":77:82   */\n  dup3\n    /* \"#utility.yul\":73:127   */\n  and\n    /* \"#utility.yul\":62:127   */\n  swap1\n  pop\n    /* \"#utility.yul\":7:133   */\n  swap2\n  swap1\n  pop\n  jump\t// out\n    /* \"#utility.yul\":139:235   */\ntag_14:\n    /* \"#utility.yul\":176:183   */\n  0x00\n    /* \"#utility.yul\":205:229   */\n  tag_19\n    /* \"#utility.yul\":223:228   */\n  dup3\n    /* \"#utility.yul\":205:229   */\n  tag_13\n  jump\t// in\ntag_19:\n    /* \"#utility.yul\":194:229   */\n  swap1\n  pop\n    /* \"#utility.yul\":139:235   */\n  swap2\n  swap1\n  pop\n  jump\t// out\n    /* \"#utility.yul\":241:359   */\ntag_15:\n    /* \"#utility.yul\":328:352   */\n  tag_21\n    /* \"#utility.yul\":346:351   */\n  dup2\n    /* \"#utility.yul\":328:352   */\n  tag_14\n  jump\t// in\ntag_21:\n    /* \"#utility.yul\":323:326   */\n  dup3\n    /* \"#utility.yul\":316:353   */\n  mstore\n    /* \"#utility.yul\":241:359   */\n  pop\n  pop\n  jump\t// out\n    /* \"#utility.yul\":365:587   */\ntag_7:\n    /* \"#utility.yul\":458:462   */\n  0x00\n    /* \"#utility.yul\":496:498   */\n  0x20\n    /* \"#utility.yul\":485:494   */\n  dup3\n    /* \"#utility.yul\":481:499   */\n  add\n    /* \"#utility.yul\":473:499   */\n  swap1\n  pop\n    /* \"#utility.yul\":509:580   */\n  tag_23\n    /* \"#utility.yul\":577:578   */\n  0x00\n    /* \"#utility.yul\":566:575   */\n  dup4\n    /* \"#utility.yul\":562:579   */\n  add\n    /* \"#utility.yul\":553:559   */\n  dup5\n    /* \"#utility.yul\":509:580   */\n  tag_15\n  jump\t// in\ntag_23:\n    /* \"#utility.yul\":365:587   */\n  swap3\n  swap2\n  pop\n  pop\n  jump\t// out\n    /* \"contracts/Twitter.sol\":186:3097  contract Twitter is Ownable {... */\ntag_11:\n  dataSize(sub_0)\n  dup1\n  dataOffset(sub_0)\n  0x00\n  codecopy\n  0x00\n  return\nstop\n\nsub_0: assembly {\n        /* \"contracts/Twitter.sol\":186:3097  contract Twitter is Ownable {... */\n      mstore(0x40, 0x80)\n      callvalue\n      dup1\n      iszero\n      tag_1\n      jumpi\n      0x00\n      dup1\n      revert\n    tag_1:\n      pop\n      jumpi(tag_2, lt(calldatasize, 0x04))\n      shr(0xe0, calldataload(0x00))\n      dup1\n      0x893d20e8\n      gt\n      tag_15\n      jumpi\n      dup1\n      0x893d20e8\n      eq\n      tag_9\n      jumpi\n      dup1\n      0x8da5cb5b\n      eq\n      tag_10\n      jumpi\n      dup1\n      0xa1488f7c\n      eq\n      tag_11\n      jumpi\n      dup1\n      0xc3ad5ecb\n      eq\n      tag_12\n      jumpi\n      dup1\n      0xd04ddaa0\n      eq\n      tag_13\n      jumpi\n      dup1\n      0xf2fde38b\n      eq\n      tag_14\n      jumpi\n      jump(tag_2)\n    tag_15:\n      dup1\n      0x12e7ee1c\n      eq\n      tag_3\n      jumpi\n      dup1\n      0x58bfa4ab\n      eq\n      tag_4\n      jumpi\n      dup1\n      0x6eb10797\n      eq\n      tag_5\n      jumpi\n      dup1\n      0x715018a6\n      eq\n      tag_6\n      jumpi\n      dup1\n      0x7c9cd2bc\n      eq\n      tag_7\n      jumpi\n      dup1\n      0x820785cc\n      eq\n      tag_8\n      jumpi\n    tag_2:\n      0x00\n      dup1\n      revert\n        /* \"contracts/Twitter.sol\":1729:2044  function getAllTweets(address owner) public view returns (Tweet[] memory) {... */\n    tag_3:\n      tag_16\n      0x04\n      dup1\n      calldatasize\n      sub\n      dup2\n      add\n      swap1\n      tag_17\n      swap2\n      swap1\n      tag_18\n      jump\t// in\n    tag_17:\n      tag_19\n      jump\t// in\n    tag_16:\n      mload(0x40)\n      tag_20\n      swap2\n      swap1\n      tag_21\n      jump\t// in\n    tag_20:\n      mload(0x40)\n      dup1\n      swap2\n      sub\n      swap1\n      return\n        /* \"contracts/Twitter.sol\":2050:2151  function changeTweetLength(uint16 _input) public onlyOwner {... */\n    tag_4:\n      tag_22\n      0x04\n      dup1\n      calldatasize\n      sub\n      dup2\n      add\n      swap1\n      tag_23\n      swap2\n      swap1\n      tag_24\n      jump\t// in\n    tag_23:\n      tag_25\n      jump\t// in\n    tag_22:\n      stop\n        /* \"contracts/Twitter.sol\":220:256  uint16 public MAX_TWEET_LENGTH = 200 */\n    tag_5:\n      tag_26\n      tag_27\n      jump\t// in\n    tag_26:\n      mload(0x40)\n      tag_28\n      swap2\n      swap1\n      tag_29\n      jump\t// in\n    tag_28:\n      mload(0x40)\n      dup1\n      swap2\n      sub\n      swap1\n      return\n        /* \"@openzeppelin/contracts/access/Ownable.sol\":2293:2394  function renounceOwnership() public virtual onlyOwner {... */\n    tag_6:\n      tag_30\n      tag_31\n      jump\t// in\n    tag_30:\n      stop\n        /* \"contracts/Twitter.sol\":1027:1610  function createTweet(string memory _input) public {... */\n    tag_7:\n      tag_32\n      0x04\n      dup1\n      calldatasize\n      sub\n      dup2\n      add\n      swap1\n      tag_33\n      swap2\n      swap1\n      tag_34\n      jump\t// in\n    tag_33:\n      tag_35\n      jump\t// in\n    tag_32:\n      stop\n        /* \"contracts/Twitter.sol\":2784:3095  function getTotalLikes(address _author) public view returns (uint256) {... */\n    tag_8:\n      tag_36\n      0x04\n      dup1\n      calldatasize\n      sub\n      dup2\n      add\n      swap1\n      tag_37\n      swap2\n      swap1\n      tag_18\n      jump\t// in\n    tag_37:\n      tag_38\n      jump\t// in\n    tag_36:\n      mload(0x40)\n      tag_39\n      swap2\n      swap1\n      tag_40\n      jump\t// in\n    tag_39:\n      mload(0x40)\n      dup1\n      swap2\n      sub\n      swap1\n      return\n        /* \"contracts/Twitter.sol\":2157:2246  function getOwner() public view returns (address) {... */\n    tag_9:\n      tag_41\n      tag_42\n      jump\t// in\n    tag_41:\n      mload(0x40)\n      tag_43\n      swap2\n      swap1\n      tag_44\n      jump\t// in\n    tag_43:\n      mload(0x40)\n      dup1\n      swap2\n      sub\n      swap1\n      return\n        /* \"@openzeppelin/contracts/access/Ownable.sol\":1638:1723  function owner() public view virtual returns (address) {... */\n    tag_10:\n      tag_45\n      tag_46\n      jump\t// in\n    tag_45:\n      mload(0x40)\n      tag_47\n      swap2\n      swap1\n      tag_44\n      jump\t// in\n    tag_47:\n      mload(0x40)\n      dup1\n      swap2\n      sub\n      swap1\n      return\n        /* \"contracts/Twitter.sol\":2514:2778  function unlikeTweet(uint256 _id, address _author) external {... */\n    tag_11:\n      tag_48\n      0x04\n      dup1\n      calldatasize\n      sub\n      dup2\n      add\n      swap1\n      tag_49\n      swap2\n      swap1\n      tag_50\n      jump\t// in\n    tag_49:\n      tag_51\n      jump\t// in\n    tag_48:\n      stop\n        /* \"contracts/Twitter.sol\":1616:1723  function getTweet(uint _i) public view returns (Tweet memory){... */\n    tag_12:\n      tag_52\n      0x04\n      dup1\n      calldatasize\n      sub\n      dup2\n      add\n      swap1\n      tag_53\n      swap2\n      swap1\n      tag_54\n      jump\t// in\n    tag_53:\n      tag_55\n      jump\t// in\n    tag_52:\n      mload(0x40)\n      tag_56\n      swap2\n      swap1\n      tag_57\n      jump\t// in\n    tag_56:\n      mload(0x40)\n      dup1\n      swap2\n      sub\n      swap1\n      return\n        /* \"contracts/Twitter.sol\":2252:2508  function likeTweet(uint256 _id, address _author) external {... */\n    tag_13:\n      tag_58\n      0x04\n      dup1\n      calldatasize\n      sub\n      dup2\n      add\n      swap1\n      tag_59\n      swap2\n      swap1\n      tag_50\n      jump\t// in\n    tag_59:\n      tag_60\n      jump\t// in\n    tag_58:\n      stop\n        /* \"@openzeppelin/contracts/access/Ownable.sol\":2543:2758  function transferOwnership(address newOwner) public virtual onlyOwner {... */\n    tag_14:\n      tag_61\n      0x04\n      dup1\n      calldatasize\n      sub\n      dup2\n      add\n      swap1\n      tag_62\n      swap2\n      swap1\n      tag_18\n      jump\t// in\n    tag_62:\n      tag_63\n      jump\t// in\n    tag_61:\n      stop\n        /* \"contracts/Twitter.sol\":1729:2044  function getAllTweets(address owner) public view returns (Tweet[] memory) {... */\n    tag_19:\n        /* \"contracts/Twitter.sol\":1787:1801  Tweet[] memory */\n      0x60\n        /* \"contracts/Twitter.sol\":1813:1826  uint256 count */\n      0x00\n        /* \"contracts/Twitter.sol\":1829:1839  tweetCount */\n      0x03\n        /* \"contracts/Twitter.sol\":1829:1846  tweetCount[owner] */\n      0x00\n        /* \"contracts/Twitter.sol\":1840:1845  owner */\n      dup5\n        /* \"contracts/Twitter.sol\":1829:1846  tweetCount[owner] */\n      0xffffffffffffffffffffffffffffffffffffffff\n      and\n      0xffffffffffffffffffffffffffffffffffffffff\n      and\n      dup2\n      mstore\n      0x20\n      add\n      swap1\n      dup2\n      mstore\n      0x20\n      add\n      0x00\n      keccak256\n      sload\n        /* \"contracts/Twitter.sol\":1813:1846  uint256 count = tweetCount[owner] */\n      swap1\n      pop\n        /* \"contracts/Twitter.sol\":1856:1880  Tweet[] memory allTweets */\n      0x00\n        /* \"contracts/Twitter.sol\":1895:1900  count */\n      dup2\n        /* \"contracts/Twitter.sol\":1883:1901  new Tweet[](count) */\n      0xffffffffffffffff\n      dup2\n      gt\n      iszero\n      tag_65\n      jumpi\n      tag_66\n      tag_67\n      jump\t// in\n    tag_66:\n    tag_65:\n      mload(0x40)\n      swap1\n      dup1\n      dup3\n      mstore\n      dup1\n      0x20\n      mul\n      0x20\n      add\n      dup3\n      add\n      0x40\n      mstore\n      dup1\n      iszero\n      tag_68\n      jumpi\n      dup2\n      0x20\n      add\n    tag_69:\n      tag_70\n      tag_71\n      jump\t// in\n    tag_70:\n      dup2\n      mstore\n      0x20\n      add\n      swap1\n      0x01\n      swap1\n      sub\n      swap1\n      dup2\n      tag_69\n      jumpi\n      swap1\n      pop\n    tag_68:\n      pop\n        /* \"contracts/Twitter.sol\":1856:1901  Tweet[] memory allTweets = new Tweet[](count) */\n      swap1\n      pop\n        /* \"contracts/Twitter.sol\":1916:1925  uint256 i */\n      0x00\n        /* \"contracts/Twitter.sol\":1911:2003  for (uint256 i = 0; i < count; i++) {... */\n    tag_72:\n        /* \"contracts/Twitter.sol\":1935:1940  count */\n      dup3\n        /* \"contracts/Twitter.sol\":1931:1932  i */\n      dup2\n        /* \"contracts/Twitter.sol\":1931:1940  i < count */\n      lt\n        /* \"contracts/Twitter.sol\":1911:2003  for (uint256 i = 0; i < count; i++) {... */\n      iszero\n      tag_73\n      jumpi\n        /* \"contracts/Twitter.sol\":1976:1982  tweets */\n      0x02\n        /* \"contracts/Twitter.sol\":1976:1989  tweets[owner] */\n      0x00\n        /* \"contracts/Twitter.sol\":1983:1988  owner */\n      dup7\n        /* \"contracts/Twitter.sol\":1976:1989  tweets[owner] */\n      0xffffffffffffffffffffffffffffffffffffffff\n      and\n      0xffffffffffffffffffffffffffffffffffffffff\n      and\n      dup2\n      mstore\n      0x20\n      add\n      swap1\n      dup2\n      mstore\n      0x20\n      add\n      0x00\n      keccak256\n        /* \"contracts/Twitter.sol\":1976:1992  tweets[owner][i] */\n      0x00\n        /* \"contracts/Twitter.sol\":1990:1991  i */\n      dup3\n        /* \"contracts/Twitter.sol\":1976:1992  tweets[owner][i] */\n      dup2\n      mstore\n      0x20\n      add\n      swap1\n      dup2\n      mstore\n      0x20\n      add\n      0x00\n      keccak256\n        /* \"contracts/Twitter.sol\":1961:1992  allTweets[i] = tweets[owner][i] */\n      mload(0x40)\n      dup1\n      0xa0\n      add\n      0x40\n      mstore\n      swap1\n      dup2\n      0x00\n      dup3\n      add\n      sload\n      dup2\n      mstore\n      0x20\n      add\n      0x01\n      dup3\n      add\n      0x00\n      swap1\n      sload\n      swap1\n      0x0100\n      exp\n      swap1\n      div\n      0xffffffffffffffffffffffffffffffffffffffff\n      and\n      0xffffffffffffffffffffffffffffffffffffffff\n      and\n      0xffffffffffffffffffffffffffffffffffffffff\n      and\n      dup2\n      mstore\n      0x20\n      add\n      0x02\n      dup3\n      add\n      dup1\n      sload\n      tag_75\n      swap1\n      tag_76\n      jump\t// in\n    tag_75:\n      dup1\n      0x1f\n      add\n      0x20\n      dup1\n      swap2\n      div\n      mul\n      0x20\n      add\n      mload(0x40)\n      swap1\n      dup2\n      add\n      0x40\n      mstore\n      dup1\n      swap3\n      swap2\n      swap1\n      dup2\n      dup2\n      mstore\n      0x20\n      add\n      dup3\n      dup1\n      sload\n      tag_77\n      swap1\n      tag_76\n      jump\t// in\n    tag_77:\n      dup1\n      iszero\n      tag_78\n      jumpi\n      dup1\n      0x1f\n      lt\n      tag_79\n      jumpi\n      0x0100\n      dup1\n      dup4\n      sload\n      div\n      mul\n      dup4\n      mstore\n      swap2\n      0x20\n      add\n      swap2\n      jump(tag_78)\n    tag_79:\n      dup3\n      add\n      swap2\n      swap1\n      0x00\n      mstore\n      keccak256(0x00, 0x20)\n      swap1\n    tag_80:\n      dup2\n      sload\n      dup2\n      mstore\n      swap1\n      0x01\n      add\n      swap1\n      0x20\n      add\n      dup1\n      dup4\n      gt\n      tag_80\n      jumpi\n      dup3\n      swap1\n      sub\n      0x1f\n      and\n      dup3\n      add\n      swap2\n    tag_78:\n      pop\n      pop\n      pop\n      pop\n      pop\n      dup2\n      mstore\n      0x20\n      add\n      0x03\n      dup3\n      add\n      sload\n      dup2\n      mstore\n      0x20\n      add\n      0x04\n      dup3\n      add\n      sload\n      dup2\n      mstore\n      pop\n      pop\n        /* \"contracts/Twitter.sol\":1961:1970  allTweets */\n      dup3\n        /* \"contracts/Twitter.sol\":1971:1972  i */\n      dup3\n        /* \"contracts/Twitter.sol\":1961:1973  allTweets[i] */\n      dup2\n      mload\n      dup2\n      lt\n      tag_81\n      jumpi\n      tag_82\n      tag_83\n      jump\t// in\n    tag_82:\n    tag_81:\n      0x20\n      mul\n      0x20\n      add\n      add\n        /* \"contracts/Twitter.sol\":1961:1992  allTweets[i] = tweets[owner][i] */\n      dup2\n      swap1\n      mstore\n      pop\n        /* \"contracts/Twitter.sol\":1942:1945  i++ */\n      dup1\n      dup1\n      0x01\n      add\n      swap2\n      pop\n      pop\n        /* \"contracts/Twitter.sol\":1911:2003  for (uint256 i = 0; i < count; i++) {... */\n      jump(tag_72)\n    tag_73:\n      pop\n        /* \"contracts/Twitter.sol\":2028:2037  allTweets */\n      dup1\n        /* \"contracts/Twitter.sol\":2021:2037  return allTweets */\n      swap3\n      pop\n      pop\n      pop\n        /* \"contracts/Twitter.sol\":1729:2044  function getAllTweets(address owner) public view returns (Tweet[] memory) {... */\n      swap2\n      swap1\n      pop\n      jump\t// out\n        /* \"contracts/Twitter.sol\":2050:2151  function changeTweetLength(uint16 _input) public onlyOwner {... */\n    tag_25:\n        /* \"@openzeppelin/contracts/access/Ownable.sol\":1531:1544  _checkOwner() */\n      tag_85\n        /* \"@openzeppelin/contracts/access/Ownable.sol\":1531:1542  _checkOwner */\n      tag_86\n        /* \"@openzeppelin/contracts/access/Ownable.sol\":1531:1544  _checkOwner() */\n      jump\t// in\n    tag_85:\n        /* \"contracts/Twitter.sol\":2138:2144  _input */\n      dup1\n        /* \"contracts/Twitter.sol\":2119:2135  MAX_TWEET_LENGTH */\n      0x00\n      0x14\n        /* \"contracts/Twitter.sol\":2119:2144  MAX_TWEET_LENGTH = _input */\n      0x0100\n      exp\n      dup2\n      sload\n      dup2\n      0xffff\n      mul\n      not\n      and\n      swap1\n      dup4\n      0xffff\n      and\n      mul\n      or\n      swap1\n      sstore\n      pop\n        /* \"contracts/Twitter.sol\":2050:2151  function changeTweetLength(uint16 _input) public onlyOwner {... */\n      pop\n      jump\t// out\n        /* \"contracts/Twitter.sol\":220:256  uint16 public MAX_TWEET_LENGTH = 200 */\n    tag_27:\n      0x00\n      0x14\n      swap1\n      sload\n      swap1\n      0x0100\n      exp\n      swap1\n      div\n      0xffff\n      and\n      dup2\n      jump\t// out\n        /* \"@openzeppelin/contracts/access/Ownable.sol\":2293:2394  function renounceOwnership() public virtual onlyOwner {... */\n    tag_31:\n        /* \"@openzeppelin/contracts/access/Ownable.sol\":1531:1544  _checkOwner() */\n      tag_89\n        /* \"@openzeppelin/contracts/access/Ownable.sol\":1531:1542  _checkOwner */\n      tag_86\n        /* \"@openzeppelin/contracts/access/Ownable.sol\":1531:1544  _checkOwner() */\n      jump\t// in\n    tag_89:\n        /* \"@openzeppelin/contracts/access/Ownable.sol\":2357:2387  _transferOwnership(address(0)) */\n      tag_91\n        /* \"@openzeppelin/contracts/access/Ownable.sol\":2384:2385  0 */\n      0x00\n        /* \"@openzeppelin/contracts/access/Ownable.sol\":2357:2375  _transferOwnership */\n      tag_92\n        /* \"@openzeppelin/contracts/access/Ownable.sol\":2357:2387  _transferOwnership(address(0)) */\n      jump\t// in\n    tag_91:\n        /* \"@openzeppelin/contracts/access/Ownable.sol\":2293:2394  function renounceOwnership() public virtual onlyOwner {... */\n      jump\t// out\n        /* \"contracts/Twitter.sol\":1027:1610  function createTweet(string memory _input) public {... */\n    tag_35:\n        /* \"contracts/Twitter.sol\":1119:1135  MAX_TWEET_LENGTH */\n      0x00\n      0x14\n      swap1\n      sload\n      swap1\n      0x0100\n      exp\n      swap1\n      div\n      0xffff\n      and\n        /* \"contracts/Twitter.sol\":1095:1135  bytes(_input).length <= MAX_TWEET_LENGTH */\n      0xffff\n      and\n        /* \"contracts/Twitter.sol\":1101:1107  _input */\n      dup2\n        /* \"contracts/Twitter.sol\":1095:1115  bytes(_input).length */\n      mload\n        /* \"contracts/Twitter.sol\":1095:1135  bytes(_input).length <= MAX_TWEET_LENGTH */\n      gt\n      iszero\n        /* \"contracts/Twitter.sol\":1087:1164  require(bytes(_input).length <= MAX_TWEET_LENGTH, \"Tweet content is lengthy\") */\n      tag_94\n      jumpi\n      mload(0x40)\n      0x08c379a000000000000000000000000000000000000000000000000000000000\n      dup2\n      mstore\n      0x04\n      add\n      tag_95\n      swap1\n      tag_96\n      jump\t// in\n    tag_95:\n      mload(0x40)\n      dup1\n      swap2\n      sub\n      swap1\n      revert\n    tag_94:\n        /* \"contracts/Twitter.sol\":1175:1196  Tweet memory newTweet */\n      0x00\n        /* \"contracts/Twitter.sol\":1199:1371  Tweet({... */\n      mload(0x40)\n      dup1\n      0xa0\n      add\n      0x40\n      mstore\n      dup1\n        /* \"contracts/Twitter.sol\":1223:1237  currentTweetId */\n      sload(0x01)\n        /* \"contracts/Twitter.sol\":1199:1371  Tweet({... */\n      dup2\n      mstore\n      0x20\n      add\n        /* \"contracts/Twitter.sol\":1259:1269  msg.sender */\n      caller\n        /* \"contracts/Twitter.sol\":1199:1371  Tweet({... */\n      0xffffffffffffffffffffffffffffffffffffffff\n      and\n      dup2\n      mstore\n      0x20\n      add\n        /* \"contracts/Twitter.sol\":1292:1298  _input */\n      dup4\n        /* \"contracts/Twitter.sol\":1199:1371  Tweet({... */\n      dup2\n      mstore\n      0x20\n      add\n        /* \"contracts/Twitter.sol\":1323:1338  block.timestamp */\n      timestamp\n        /* \"contracts/Twitter.sol\":1199:1371  Tweet({... */\n      dup2\n      mstore\n      0x20\n      add\n        /* \"contracts/Twitter.sol\":1359:1360  0 */\n      0x00\n        /* \"contracts/Twitter.sol\":1199:1371  Tweet({... */\n      dup2\n      mstore\n      pop\n        /* \"contracts/Twitter.sol\":1175:1371  Tweet memory newTweet = Tweet({... */\n      swap1\n      pop\n        /* \"contracts/Twitter.sol\":1419:1427  newTweet */\n      dup1\n        /* \"contracts/Twitter.sol\":1382:1388  tweets */\n      0x02\n        /* \"contracts/Twitter.sol\":1382:1400  tweets[msg.sender] */\n      0x00\n        /* \"contracts/Twitter.sol\":1389:1399  msg.sender */\n      caller\n        /* \"contracts/Twitter.sol\":1382:1400  tweets[msg.sender] */\n      0xffffffffffffffffffffffffffffffffffffffff\n      and\n      0xffffffffffffffffffffffffffffffffffffffff\n      and\n      dup2\n      mstore\n      0x20\n      add\n      swap1\n      dup2\n      mstore\n      0x20\n      add\n      0x00\n      keccak256\n        /* \"contracts/Twitter.sol\":1382:1416  tweets[msg.sender][currentTweetId] */\n      0x00\n        /* \"contracts/Twitter.sol\":1401:1415  currentTweetId */\n      sload(0x01)\n        /* \"contracts/Twitter.sol\":1382:1416  tweets[msg.sender][currentTweetId] */\n      dup2\n      mstore\n      0x20\n      add\n      swap1\n      dup2\n      mstore\n      0x20\n      add\n      0x00\n      keccak256\n        /* \"contracts/Twitter.sol\":1382:1427  tweets[msg.sender][currentTweetId] = newTweet */\n      0x00\n      dup3\n      add\n      mload\n      dup2\n      0x00\n      add\n      sstore\n      0x20\n      dup3\n      add\n      mload\n      dup2\n      0x01\n      add\n      exp(0x0100, 0x00)\n      dup2\n      sload\n      dup2\n      0xffffffffffffffffffffffffffffffffffffffff\n      mul\n      not\n      and\n      swap1\n      dup4\n      0xffffffffffffffffffffffffffffffffffffffff\n      and\n      mul\n      or\n      swap1\n      sstore\n      pop\n      0x40\n      dup3\n      add\n      mload\n      dup2\n      0x02\n      add\n      swap1\n      dup2\n      tag_97\n      swap2\n      swap1\n      tag_98\n      jump\t// in\n    tag_97:\n      pop\n      0x60\n      dup3\n      add\n      mload\n      dup2\n      0x03\n      add\n      sstore\n      0x80\n      dup3\n      add\n      mload\n      dup2\n      0x04\n      add\n      sstore\n      swap1\n      pop\n      pop\n        /* \"contracts/Twitter.sol\":1451:1534  TweetCreated(currentTweetId, newTweet.author, newTweet.content, newTweet.timestamp) */\n      0x16fd3c13e9d46923e0a8bce11c7b473ec508a72e6c96cd2404b29ce972afc29e\n        /* \"contracts/Twitter.sol\":1464:1478  currentTweetId */\n      sload(0x01)\n        /* \"contracts/Twitter.sol\":1480:1488  newTweet */\n      dup3\n        /* \"contracts/Twitter.sol\":1480:1495  newTweet.author */\n      0x20\n      add\n      mload\n        /* \"contracts/Twitter.sol\":1497:1505  newTweet */\n      dup4\n        /* \"contracts/Twitter.sol\":1497:1513  newTweet.content */\n      0x40\n      add\n      mload\n        /* \"contracts/Twitter.sol\":1515:1523  newTweet */\n      dup5\n        /* \"contracts/Twitter.sol\":1515:1533  newTweet.timestamp */\n      0x60\n      add\n      mload\n        /* \"contracts/Twitter.sol\":1451:1534  TweetCreated(currentTweetId, newTweet.author, newTweet.content, newTweet.timestamp) */\n      mload(0x40)\n      tag_99\n      swap5\n      swap4\n      swap3\n      swap2\n      swap1\n      tag_100\n      jump\t// in\n    tag_99:\n      mload(0x40)\n      dup1\n      swap2\n      sub\n      swap1\n      log1\n        /* \"contracts/Twitter.sol\":1553:1567  currentTweetId */\n      0x01\n      0x00\n        /* \"contracts/Twitter.sol\":1553:1569  currentTweetId++ */\n      dup2\n      sload\n      dup1\n      swap3\n      swap2\n      swap1\n      tag_101\n      swap1\n      tag_102\n      jump\t// in\n    tag_101:\n      swap2\n      swap1\n      pop\n      sstore\n      pop\n        /* \"contracts/Twitter.sol\":1579:1589  tweetCount */\n      0x03\n        /* \"contracts/Twitter.sol\":1579:1601  tweetCount[msg.sender] */\n      0x00\n        /* \"contracts/Twitter.sol\":1590:1600  msg.sender */\n      caller\n        /* \"contracts/Twitter.sol\":1579:1601  tweetCount[msg.sender] */\n      0xffffffffffffffffffffffffffffffffffffffff\n      and\n      0xffffffffffffffffffffffffffffffffffffffff\n      and\n      dup2\n      mstore\n      0x20\n      add\n      swap1\n      dup2\n      mstore\n      0x20\n      add\n      0x00\n      keccak256\n      0x00\n        /* \"contracts/Twitter.sol\":1579:1603  tweetCount[msg.sender]++ */\n      dup2\n      sload\n      dup1\n      swap3\n      swap2\n      swap1\n      tag_103\n      swap1\n      tag_102\n      jump\t// in\n    tag_103:\n      swap2\n      swap1\n      pop\n      sstore\n      pop\n        /* \"contracts/Twitter.sol\":1077:1610  {... */\n      pop\n        /* \"contracts/Twitter.sol\":1027:1610  function createTweet(string memory _input) public {... */\n      pop\n      jump\t// out\n        /* \"contracts/Twitter.sol\":2784:3095  function getTotalLikes(address _author) public view returns (uint256) {... */\n    tag_38:\n        /* \"contracts/Twitter.sol\":2845:2852  uint256 */\n      0x00\n        /* \"contracts/Twitter.sol\":2864:2882  uint256 totalLikes */\n      dup1\n        /* \"contracts/Twitter.sol\":2885:2886  0 */\n      0x00\n        /* \"contracts/Twitter.sol\":2864:2886  uint256 totalLikes = 0 */\n      swap1\n      pop\n        /* \"contracts/Twitter.sol\":2896:2921  uint256 tweetCountForUser */\n      0x00\n        /* \"contracts/Twitter.sol\":2924:2934  tweetCount */\n      0x03\n        /* \"contracts/Twitter.sol\":2924:2943  tweetCount[_author] */\n      0x00\n        /* \"contracts/Twitter.sol\":2935:2942  _author */\n      dup6\n        /* \"contracts/Twitter.sol\":2924:2943  tweetCount[_author] */\n      0xffffffffffffffffffffffffffffffffffffffff\n      and\n      0xffffffffffffffffffffffffffffffffffffffff\n      and\n      dup2\n      mstore\n      0x20\n      add\n      swap1\n      dup2\n      mstore\n      0x20\n      add\n      0x00\n      keccak256\n      sload\n        /* \"contracts/Twitter.sol\":2896:2943  uint256 tweetCountForUser = tweetCount[_author] */\n      swap1\n      pop\n        /* \"contracts/Twitter.sol\":2958:2964  uint i */\n      0x00\n        /* \"contracts/Twitter.sol\":2953:3061  for (uint i = 0; i < tweetCountForUser; i++) {... */\n    tag_105:\n        /* \"contracts/Twitter.sol\":2974:2991  tweetCountForUser */\n      dup2\n        /* \"contracts/Twitter.sol\":2970:2971  i */\n      dup2\n        /* \"contracts/Twitter.sol\":2970:2991  i < tweetCountForUser */\n      lt\n        /* \"contracts/Twitter.sol\":2953:3061  for (uint i = 0; i < tweetCountForUser; i++) {... */\n      iszero\n      tag_106\n      jumpi\n        /* \"contracts/Twitter.sol\":3026:3032  tweets */\n      0x02\n        /* \"contracts/Twitter.sol\":3026:3041  tweets[_author] */\n      0x00\n        /* \"contracts/Twitter.sol\":3033:3040  _author */\n      dup7\n        /* \"contracts/Twitter.sol\":3026:3041  tweets[_author] */\n      0xffffffffffffffffffffffffffffffffffffffff\n      and\n      0xffffffffffffffffffffffffffffffffffffffff\n      and\n      dup2\n      mstore\n      0x20\n      add\n      swap1\n      dup2\n      mstore\n      0x20\n      add\n      0x00\n      keccak256\n        /* \"contracts/Twitter.sol\":3026:3044  tweets[_author][i] */\n      0x00\n        /* \"contracts/Twitter.sol\":3042:3043  i */\n      dup3\n        /* \"contracts/Twitter.sol\":3026:3044  tweets[_author][i] */\n      dup2\n      mstore\n      0x20\n      add\n      swap1\n      dup2\n      mstore\n      0x20\n      add\n      0x00\n      keccak256\n        /* \"contracts/Twitter.sol\":3026:3050  tweets[_author][i].likes */\n      0x04\n      add\n      sload\n        /* \"contracts/Twitter.sol\":3012:3050  totalLikes += tweets[_author][i].likes */\n      dup4\n      tag_108\n      swap2\n      swap1\n      tag_109\n      jump\t// in\n    tag_108:\n      swap3\n      pop\n        /* \"contracts/Twitter.sol\":2993:2996  i++ */\n      dup1\n      dup1\n      0x01\n      add\n      swap2\n      pop\n      pop\n        /* \"contracts/Twitter.sol\":2953:3061  for (uint i = 0; i < tweetCountForUser; i++) {... */\n      jump(tag_105)\n    tag_106:\n      pop\n        /* \"contracts/Twitter.sol\":3078:3088  totalLikes */\n      dup2\n        /* \"contracts/Twitter.sol\":3071:3088  return totalLikes */\n      swap3\n      pop\n      pop\n      pop\n        /* \"contracts/Twitter.sol\":2784:3095  function getTotalLikes(address _author) public view returns (uint256) {... */\n      swap2\n      swap1\n      pop\n      jump\t// out\n        /* \"contracts/Twitter.sol\":2157:2246  function getOwner() public view returns (address) {... */\n    tag_42:\n        /* \"contracts/Twitter.sol\":2198:2205  address */\n      0x00\n        /* \"contracts/Twitter.sol\":2224:2239  Ownable.owner() */\n      tag_111\n        /* \"contracts/Twitter.sol\":2224:2237  Ownable.owner */\n      tag_46\n        /* \"contracts/Twitter.sol\":2224:2239  Ownable.owner() */\n      jump\t// in\n    tag_111:\n        /* \"contracts/Twitter.sol\":2217:2239  return Ownable.owner() */\n      swap1\n      pop\n        /* \"contracts/Twitter.sol\":2157:2246  function getOwner() public view returns (address) {... */\n      swap1\n      jump\t// out\n        /* \"@openzeppelin/contracts/access/Ownable.sol\":1638:1723  function owner() public view virtual returns (address) {... */\n    tag_46:\n        /* \"@openzeppelin/contracts/access/Ownable.sol\":1684:1691  address */\n      0x00\n        /* \"@openzeppelin/contracts/access/Ownable.sol\":1710:1716  _owner */\n      dup1\n      0x00\n      swap1\n      sload\n      swap1\n      0x0100\n      exp\n      swap1\n      div\n      0xffffffffffffffffffffffffffffffffffffffff\n      and\n        /* \"@openzeppelin/contracts/access/Ownable.sol\":1703:1716  return _owner */\n      swap1\n      pop\n        /* \"@openzeppelin/contracts/access/Ownable.sol\":1638:1723  function owner() public view virtual returns (address) {... */\n      swap1\n      jump\t// out\n        /* \"contracts/Twitter.sol\":2514:2778  function unlikeTweet(uint256 _id, address _author) external {... */\n    tag_51:\n        /* \"contracts/Twitter.sol\":2621:2622  0 */\n      0x00\n        /* \"contracts/Twitter.sol\":2592:2598  tweets */\n      0x02\n        /* \"contracts/Twitter.sol\":2592:2607  tweets[_author] */\n      0x00\n        /* \"contracts/Twitter.sol\":2599:2606  _author */\n      dup4\n        /* \"contracts/Twitter.sol\":2592:2607  tweets[_author] */\n      0xffffffffffffffffffffffffffffffffffffffff\n      and\n      0xffffffffffffffffffffffffffffffffffffffff\n      and\n      dup2\n      mstore\n      0x20\n      add\n      swap1\n      dup2\n      mstore\n      0x20\n      add\n      0x00\n      keccak256\n        /* \"contracts/Twitter.sol\":2592:2612  tweets[_author][_id] */\n      0x00\n        /* \"contracts/Twitter.sol\":2608:2611  _id */\n      dup5\n        /* \"contracts/Twitter.sol\":2592:2612  tweets[_author][_id] */\n      dup2\n      mstore\n      0x20\n      add\n      swap1\n      dup2\n      mstore\n      0x20\n      add\n      0x00\n      keccak256\n        /* \"contracts/Twitter.sol\":2592:2618  tweets[_author][_id].likes */\n      0x04\n      add\n      sload\n        /* \"contracts/Twitter.sol\":2592:2622  tweets[_author][_id].likes > 0 */\n      gt\n        /* \"contracts/Twitter.sol\":2584:2651  require(tweets[_author][_id].likes > 0, \"Likes have not added yet\") */\n      tag_114\n      jumpi\n      mload(0x40)\n      0x08c379a000000000000000000000000000000000000000000000000000000000\n      dup2\n      mstore\n      0x04\n      add\n      tag_115\n      swap1\n      tag_116\n      jump\t// in\n    tag_115:\n      mload(0x40)\n      dup1\n      swap2\n      sub\n      swap1\n      revert\n    tag_114:\n        /* \"contracts/Twitter.sol\":2661:2667  tweets */\n      0x02\n        /* \"contracts/Twitter.sol\":2661:2676  tweets[_author] */\n      0x00\n        /* \"contracts/Twitter.sol\":2668:2675  _author */\n      dup3\n        /* \"contracts/Twitter.sol\":2661:2676  tweets[_author] */\n      0xffffffffffffffffffffffffffffffffffffffff\n      and\n      0xffffffffffffffffffffffffffffffffffffffff\n      and\n      dup2\n      mstore\n      0x20\n      add\n      swap1\n      dup2\n      mstore\n      0x20\n      add\n      0x00\n      keccak256\n        /* \"contracts/Twitter.sol\":2661:2681  tweets[_author][_id] */\n      0x00\n        /* \"contracts/Twitter.sol\":2677:2680  _id */\n      dup4\n        /* \"contracts/Twitter.sol\":2661:2681  tweets[_author][_id] */\n      dup2\n      mstore\n      0x20\n      add\n      swap1\n      dup2\n      mstore\n      0x20\n      add\n      0x00\n      keccak256\n        /* \"contracts/Twitter.sol\":2661:2687  tweets[_author][_id].likes */\n      0x04\n      add\n      0x00\n        /* \"contracts/Twitter.sol\":2661:2689  tweets[_author][_id].likes-- */\n      dup2\n      sload\n      dup1\n      swap3\n      swap2\n      swap1\n      tag_117\n      swap1\n      tag_118\n      jump\t// in\n    tag_117:\n      swap2\n      swap1\n      pop\n      sstore\n      pop\n        /* \"contracts/Twitter.sol\":2705:2771  TweetUnliked(_id, _author, tweets[_author][_id].likes, msg.sender) */\n      0x560f33c84a1e75cd12dcc1ef33a1eca2b503d63bff21b19bf61d9a18fe9f3b41\n        /* \"contracts/Twitter.sol\":2718:2721  _id */\n      dup3\n        /* \"contracts/Twitter.sol\":2723:2730  _author */\n      dup3\n        /* \"contracts/Twitter.sol\":2732:2738  tweets */\n      0x02\n        /* \"contracts/Twitter.sol\":2732:2747  tweets[_author] */\n      0x00\n        /* \"contracts/Twitter.sol\":2739:2746  _author */\n      dup6\n        /* \"contracts/Twitter.sol\":2732:2747  tweets[_author] */\n      0xffffffffffffffffffffffffffffffffffffffff\n      and\n      0xffffffffffffffffffffffffffffffffffffffff\n      and\n      dup2\n      mstore\n      0x20\n      add\n      swap1\n      dup2\n      mstore\n      0x20\n      add\n      0x00\n      keccak256\n        /* \"contracts/Twitter.sol\":2732:2752  tweets[_author][_id] */\n      0x00\n        /* \"contracts/Twitter.sol\":2748:2751  _id */\n      dup7\n        /* \"contracts/Twitter.sol\":2732:2752  tweets[_author][_id] */\n      dup2\n      mstore\n      0x20\n      add\n      swap1\n      dup2\n      mstore\n      0x20\n      add\n      0x00\n      keccak256\n        /* \"contracts/Twitter.sol\":2732:2758  tweets[_author][_id].likes */\n      0x04\n      add\n      sload\n        /* \"contracts/Twitter.sol\":2760:2770  msg.sender */\n      caller\n        /* \"contracts/Twitter.sol\":2705:2771  TweetUnliked(_id, _author, tweets[_author][_id].likes, msg.sender) */\n      mload(0x40)\n      tag_119\n      swap5\n      swap4\n      swap3\n      swap2\n      swap1\n      tag_120\n      jump\t// in\n    tag_119:\n      mload(0x40)\n      dup1\n      swap2\n      sub\n      swap1\n      log1\n        /* \"contracts/Twitter.sol\":2514:2778  function unlikeTweet(uint256 _id, address _author) external {... */\n      pop\n      pop\n      jump\t// out\n        /* \"contracts/Twitter.sol\":1616:1723  function getTweet(uint _i) public view returns (Tweet memory){... */\n    tag_55:\n        /* \"contracts/Twitter.sol\":1664:1676  Tweet memory */\n      tag_121\n      tag_71\n      jump\t// in\n    tag_121:\n        /* \"contracts/Twitter.sol\":1694:1700  tweets */\n      0x02\n        /* \"contracts/Twitter.sol\":1694:1712  tweets[msg.sender] */\n      0x00\n        /* \"contracts/Twitter.sol\":1701:1711  msg.sender */\n      caller\n        /* \"contracts/Twitter.sol\":1694:1712  tweets[msg.sender] */\n      0xffffffffffffffffffffffffffffffffffffffff\n      and\n      0xffffffffffffffffffffffffffffffffffffffff\n      and\n      dup2\n      mstore\n      0x20\n      add\n      swap1\n      dup2\n      mstore\n      0x20\n      add\n      0x00\n      keccak256\n        /* \"contracts/Twitter.sol\":1694:1716  tweets[msg.sender][_i] */\n      0x00\n        /* \"contracts/Twitter.sol\":1713:1715  _i */\n      dup4\n        /* \"contracts/Twitter.sol\":1694:1716  tweets[msg.sender][_i] */\n      dup2\n      mstore\n      0x20\n      add\n      swap1\n      dup2\n      mstore\n      0x20\n      add\n      0x00\n      keccak256\n        /* \"contracts/Twitter.sol\":1687:1716  return tweets[msg.sender][_i] */\n      mload(0x40)\n      dup1\n      0xa0\n      add\n      0x40\n      mstore\n      swap1\n      dup2\n      0x00\n      dup3\n      add\n      sload\n      dup2\n      mstore\n      0x20\n      add\n      0x01\n      dup3\n      add\n      0x00\n      swap1\n      sload\n      swap1\n      0x0100\n      exp\n      swap1\n      div\n      0xffffffffffffffffffffffffffffffffffffffff\n      and\n      0xffffffffffffffffffffffffffffffffffffffff\n      and\n      0xffffffffffffffffffffffffffffffffffffffff\n      and\n      dup2\n      mstore\n      0x20\n      add\n      0x02\n      dup3\n      add\n      dup1\n      sload\n      tag_123\n      swap1\n      tag_76\n      jump\t// in\n    tag_123:\n      dup1\n      0x1f\n      add\n      0x20\n      dup1\n      swap2\n      div\n      mul\n      0x20\n      add\n      mload(0x40)\n      swap1\n      dup2\n      add\n      0x40\n      mstore\n      dup1\n      swap3\n      swap2\n      swap1\n      dup2\n      dup2\n      mstore\n      0x20\n      add\n      dup3\n      dup1\n      sload\n      tag_124\n      swap1\n      tag_76\n      jump\t// in\n    tag_124:\n      dup1\n      iszero\n      tag_125\n      jumpi\n      dup1\n      0x1f\n      lt\n      tag_126\n      jumpi\n      0x0100\n      dup1\n      dup4\n      sload\n      div\n      mul\n      dup4\n      mstore\n      swap2\n      0x20\n      add\n      swap2\n      jump(tag_125)\n    tag_126:\n      dup3\n      add\n      swap2\n      swap1\n      0x00\n      mstore\n      keccak256(0x00, 0x20)\n      swap1\n    tag_127:\n      dup2\n      sload\n      dup2\n      mstore\n      swap1\n      0x01\n      add\n      swap1\n      0x20\n      add\n      dup1\n      dup4\n      gt\n      tag_127\n      jumpi\n      dup3\n      swap1\n      sub\n      0x1f\n      and\n      dup3\n      add\n      swap2\n    tag_125:\n      pop\n      pop\n      pop\n      pop\n      pop\n      dup2\n      mstore\n      0x20\n      add\n      0x03\n      dup3\n      add\n      sload\n      dup2\n      mstore\n      0x20\n      add\n      0x04\n      dup3\n      add\n      sload\n      dup2\n      mstore\n      pop\n      pop\n      swap1\n      pop\n        /* \"contracts/Twitter.sol\":1616:1723  function getTweet(uint _i) public view returns (Tweet memory){... */\n      swap2\n      swap1\n      pop\n      jump\t// out\n        /* \"contracts/Twitter.sol\":2252:2508  function likeTweet(uint256 _id, address _author) external {... */\n    tag_60:\n        /* \"contracts/Twitter.sol\":2355:2358  _id */\n      dup2\n        /* \"contracts/Twitter.sol\":2328:2334  tweets */\n      0x02\n        /* \"contracts/Twitter.sol\":2328:2343  tweets[_author] */\n      0x00\n        /* \"contracts/Twitter.sol\":2335:2342  _author */\n      dup4\n        /* \"contracts/Twitter.sol\":2328:2343  tweets[_author] */\n      0xffffffffffffffffffffffffffffffffffffffff\n      and\n      0xffffffffffffffffffffffffffffffffffffffff\n      and\n      dup2\n      mstore\n      0x20\n      add\n      swap1\n      dup2\n      mstore\n      0x20\n      add\n      0x00\n      keccak256\n        /* \"contracts/Twitter.sol\":2328:2348  tweets[_author][_id] */\n      0x00\n        /* \"contracts/Twitter.sol\":2344:2347  _id */\n      dup5\n        /* \"contracts/Twitter.sol\":2328:2348  tweets[_author][_id] */\n      dup2\n      mstore\n      0x20\n      add\n      swap1\n      dup2\n      mstore\n      0x20\n      add\n      0x00\n      keccak256\n        /* \"contracts/Twitter.sol\":2328:2351  tweets[_author][_id].id */\n      0x00\n      add\n      sload\n        /* \"contracts/Twitter.sol\":2328:2358  tweets[_author][_id].id == _id */\n      eq\n        /* \"contracts/Twitter.sol\":2320:2383  require(tweets[_author][_id].id == _id, \"Tweet does not exist\") */\n      tag_129\n      jumpi\n      mload(0x40)\n      0x08c379a000000000000000000000000000000000000000000000000000000000\n      dup2\n      mstore\n      0x04\n      add\n      tag_130\n      swap1\n      tag_131\n      jump\t// in\n    tag_130:\n      mload(0x40)\n      dup1\n      swap2\n      sub\n      swap1\n      revert\n    tag_129:\n        /* \"contracts/Twitter.sol\":2393:2399  tweets */\n      0x02\n        /* \"contracts/Twitter.sol\":2393:2408  tweets[_author] */\n      0x00\n        /* \"contracts/Twitter.sol\":2400:2407  _author */\n      dup3\n        /* \"contracts/Twitter.sol\":2393:2408  tweets[_author] */\n      0xffffffffffffffffffffffffffffffffffffffff\n      and\n      0xffffffffffffffffffffffffffffffffffffffff\n      and\n      dup2\n      mstore\n      0x20\n      add\n      swap1\n      dup2\n      mstore\n      0x20\n      add\n      0x00\n      keccak256\n        /* \"contracts/Twitter.sol\":2393:2413  tweets[_author][_id] */\n      0x00\n        /* \"contracts/Twitter.sol\":2409:2412  _id */\n      dup4\n        /* \"contracts/Twitter.sol\":2393:2413  tweets[_author][_id] */\n      dup2\n      mstore\n      0x20\n      add\n      swap1\n      dup2\n      mstore\n      0x20\n      add\n      0x00\n      keccak256\n        /* \"contracts/Twitter.sol\":2393:2419  tweets[_author][_id].likes */\n      0x04\n      add\n      0x00\n        /* \"contracts/Twitter.sol\":2393:2421  tweets[_author][_id].likes++ */\n      dup2\n      sload\n      dup1\n      swap3\n      swap2\n      swap1\n      tag_132\n      swap1\n      tag_102\n      jump\t// in\n    tag_132:\n      swap2\n      swap1\n      pop\n      sstore\n      pop\n        /* \"contracts/Twitter.sol\":2437:2501  TweetLiked(_id, _author, tweets[_author][_id].likes, msg.sender) */\n      0x3406cce04214d6f2a48b440426569ed56dc2700c5801c7891e32d62e23cb2331\n        /* \"contracts/Twitter.sol\":2448:2451  _id */\n      dup3\n        /* \"contracts/Twitter.sol\":2453:2460  _author */\n      dup3\n        /* \"contracts/Twitter.sol\":2462:2468  tweets */\n      0x02\n        /* \"contracts/Twitter.sol\":2462:2477  tweets[_author] */\n      0x00\n        /* \"contracts/Twitter.sol\":2469:2476  _author */\n      dup6\n        /* \"contracts/Twitter.sol\":2462:2477  tweets[_author] */\n      0xffffffffffffffffffffffffffffffffffffffff\n      and\n      0xffffffffffffffffffffffffffffffffffffffff\n      and\n      dup2\n      mstore\n      0x20\n      add\n      swap1\n      dup2\n      mstore\n      0x20\n      add\n      0x00\n      keccak256\n        /* \"contracts/Twitter.sol\":2462:2482  tweets[_author][_id] */\n      0x00\n        /* \"contracts/Twitter.sol\":2478:2481  _id */\n      dup7\n        /* \"contracts/Twitter.sol\":2462:2482  tweets[_author][_id] */\n      dup2\n      mstore\n      0x20\n      add\n      swap1\n      dup2\n      mstore\n      0x20\n      add\n      0x00\n      keccak256\n        /* \"contracts/Twitter.sol\":2462:2488  tweets[_author][_id].likes */\n      0x04\n      add\n      sload\n        /* \"contracts/Twitter.sol\":2490:2500  msg.sender */\n      caller\n        /* \"contracts/Twitter.sol\":2437:2501  TweetLiked(_id, _author, tweets[_author][_id].likes, msg.sender) */\n      mload(0x40)\n      tag_133\n      swap5\n      swap4\n      swap3\n      swap2\n      swap1\n      tag_120\n      jump\t// in\n    tag_133:\n      mload(0x40)\n      dup1\n      swap2\n      sub\n      swap1\n      log1\n        /* \"contracts/Twitter.sol\":2252:2508  function likeTweet(uint256 _id, address _author) external {... */\n      pop\n      pop\n      jump\t// out\n        /* \"@openzeppelin/contracts/access/Ownable.sol\":2543:2758  function transferOwnership(address newOwner) public virtual onlyOwner {... */\n    tag_63:\n        /* \"@openzeppelin/contracts/access/Ownable.sol\":1531:1544  _checkOwner() */\n      tag_135\n        /* \"@openzeppelin/contracts/access/Ownable.sol\":1531:1542  _checkOwner */\n      tag_86\n        /* \"@openzeppelin/contracts/access/Ownable.sol\":1531:1544  _checkOwner() */\n      jump\t// in\n    tag_135:\n        /* \"@openzeppelin/contracts/access/Ownable.sol\":2647:2648  0 */\n      0x00\n        /* \"@openzeppelin/contracts/access/Ownable.sol\":2627:2649  newOwner == address(0) */\n      0xffffffffffffffffffffffffffffffffffffffff\n      and\n        /* \"@openzeppelin/contracts/access/Ownable.sol\":2627:2635  newOwner */\n      dup2\n        /* \"@openzeppelin/contracts/access/Ownable.sol\":2627:2649  newOwner == address(0) */\n      0xffffffffffffffffffffffffffffffffffffffff\n      and\n      sub\n        /* \"@openzeppelin/contracts/access/Ownable.sol\":2623:2714  if (newOwner == address(0)) {... */\n      tag_137\n      jumpi\n        /* \"@openzeppelin/contracts/access/Ownable.sol\":2700:2701  0 */\n      0x00\n        /* \"@openzeppelin/contracts/access/Ownable.sol\":2672:2703  OwnableInvalidOwner(address(0)) */\n      mload(0x40)\n      0x1e4fbdf700000000000000000000000000000000000000000000000000000000\n      dup2\n      mstore\n      0x04\n      add\n      tag_138\n      swap2\n      swap1\n      tag_44\n      jump\t// in\n    tag_138:\n      mload(0x40)\n      dup1\n      swap2\n      sub\n      swap1\n      revert\n        /* \"@openzeppelin/contracts/access/Ownable.sol\":2623:2714  if (newOwner == address(0)) {... */\n    tag_137:\n        /* \"@openzeppelin/contracts/access/Ownable.sol\":2723:2751  _transferOwnership(newOwner) */\n      tag_139\n        /* \"@openzeppelin/contracts/access/Ownable.sol\":2742:2750  newOwner */\n      dup2\n        /* \"@openzeppelin/contracts/access/Ownable.sol\":2723:2741  _transferOwnership */\n      tag_92\n        /* \"@openzeppelin/contracts/access/Ownable.sol\":2723:2751  _transferOwnership(newOwner) */\n      jump\t// in\n    tag_139:\n        /* \"@openzeppelin/contracts/access/Ownable.sol\":2543:2758  function transferOwnership(address newOwner) public virtual onlyOwner {... */\n      pop\n      jump\t// out\n        /* \"@openzeppelin/contracts/access/Ownable.sol\":1796:1958  function _checkOwner() internal view virtual {... */\n    tag_86:\n        /* \"@openzeppelin/contracts/access/Ownable.sol\":1866:1878  _msgSender() */\n      tag_141\n        /* \"@openzeppelin/contracts/access/Ownable.sol\":1866:1876  _msgSender */\n      tag_142\n        /* \"@openzeppelin/contracts/access/Ownable.sol\":1866:1878  _msgSender() */\n      jump\t// in\n    tag_141:\n        /* \"@openzeppelin/contracts/access/Ownable.sol\":1855:1878  owner() != _msgSender() */\n      0xffffffffffffffffffffffffffffffffffffffff\n      and\n        /* \"@openzeppelin/contracts/access/Ownable.sol\":1855:1862  owner() */\n      tag_143\n        /* \"@openzeppelin/contracts/access/Ownable.sol\":1855:1860  owner */\n      tag_46\n        /* \"@openzeppelin/contracts/access/Ownable.sol\":1855:1862  owner() */\n      jump\t// in\n    tag_143:\n        /* \"@openzeppelin/contracts/access/Ownable.sol\":1855:1878  owner() != _msgSender() */\n      0xffffffffffffffffffffffffffffffffffffffff\n      and\n      eq\n        /* \"@openzeppelin/contracts/access/Ownable.sol\":1851:1952  if (owner() != _msgSender()) {... */\n      tag_144\n      jumpi\n        /* \"@openzeppelin/contracts/access/Ownable.sol\":1928:1940  _msgSender() */\n      tag_145\n        /* \"@openzeppelin/contracts/access/Ownable.sol\":1928:1938  _msgSender */\n      tag_142\n        /* \"@openzeppelin/contracts/access/Ownable.sol\":1928:1940  _msgSender() */\n      jump\t// in\n    tag_145:\n        /* \"@openzeppelin/contracts/access/Ownable.sol\":1901:1941  OwnableUnauthorizedAccount(_msgSender()) */\n      mload(0x40)\n      0x118cdaa700000000000000000000000000000000000000000000000000000000\n      dup2\n      mstore\n      0x04\n      add\n      tag_146\n      swap2\n      swap1\n      tag_44\n      jump\t// in\n    tag_146:\n      mload(0x40)\n      dup1\n      swap2\n      sub\n      swap1\n      revert\n        /* \"@openzeppelin/contracts/access/Ownable.sol\":1851:1952  if (owner() != _msgSender()) {... */\n    tag_144:\n        /* \"@openzeppelin/contracts/access/Ownable.sol\":1796:1958  function _checkOwner() internal view virtual {... */\n      jump\t// out\n        /* \"@openzeppelin/contracts/access/Ownable.sol\":2912:3099  function _transferOwnership(address newOwner) internal virtual {... */\n    tag_92:\n        /* \"@openzeppelin/contracts/access/Ownable.sol\":2985:3001  address oldOwner */\n      0x00\n        /* \"@openzeppelin/contracts/access/Ownable.sol\":3004:3010  _owner */\n      dup1\n      0x00\n      swap1\n      sload\n      swap1\n      0x0100\n      exp\n      swap1\n      div\n      0xffffffffffffffffffffffffffffffffffffffff\n      and\n        /* \"@openzeppelin/contracts/access/Ownable.sol\":2985:3010  address oldOwner = _owner */\n      swap1\n      pop\n        /* \"@openzeppelin/contracts/access/Ownable.sol\":3029:3037  newOwner */\n      dup2\n        /* \"@openzeppelin/contracts/access/Ownable.sol\":3020:3026  _owner */\n      0x00\n      dup1\n        /* \"@openzeppelin/contracts/access/Ownable.sol\":3020:3037  _owner = newOwner */\n      0x0100\n      exp\n      dup2\n      sload\n      dup2\n      0xffffffffffffffffffffffffffffffffffffffff\n      mul\n      not\n      and\n      swap1\n      dup4\n      0xffffffffffffffffffffffffffffffffffffffff\n      and\n      mul\n      or\n      swap1\n      sstore\n      pop\n        /* \"@openzeppelin/contracts/access/Ownable.sol\":3083:3091  newOwner */\n      dup2\n        /* \"@openzeppelin/contracts/access/Ownable.sol\":3052:3092  OwnershipTransferred(oldOwner, newOwner) */\n      0xffffffffffffffffffffffffffffffffffffffff\n      and\n        /* \"@openzeppelin/contracts/access/Ownable.sol\":3073:3081  oldOwner */\n      dup2\n        /* \"@openzeppelin/contracts/access/Ownable.sol\":3052:3092  OwnershipTransferred(oldOwner, newOwner) */\n      0xffffffffffffffffffffffffffffffffffffffff\n      and\n      0x8be0079c531659141344cd1fd0a4f28419497f9722a3daafe3b4186f6b6457e0\n      mload(0x40)\n      mload(0x40)\n      dup1\n      swap2\n      sub\n      swap1\n      log3\n        /* \"@openzeppelin/contracts/access/Ownable.sol\":2975:3099  {... */\n      pop\n        /* \"@openzeppelin/contracts/access/Ownable.sol\":2912:3099  function _transferOwnership(address newOwner) internal virtual {... */\n      pop\n      jump\t// out\n        /* \"@openzeppelin/contracts/utils/Context.sol\":656:752  function _msgSender() internal view virtual returns (address) {... */\n    tag_142:\n        /* \"@openzeppelin/contracts/utils/Context.sol\":709:716  address */\n      0x00\n        /* \"@openzeppelin/contracts/utils/Context.sol\":735:745  msg.sender */\n      caller\n        /* \"@openzeppelin/contracts/utils/Context.sol\":728:745  return msg.sender */\n      swap1\n      pop\n        /* \"@openzeppelin/contracts/utils/Context.sol\":656:752  function _msgSender() internal view virtual returns (address) {... */\n      swap1\n      jump\t// out\n    tag_71:\n      mload(0x40)\n      dup1\n      0xa0\n      add\n      0x40\n      mstore\n      dup1\n      0x00\n      dup2\n      mstore\n      0x20\n      add\n      and(0xffffffffffffffffffffffffffffffffffffffff, 0x00)\n      dup2\n      mstore\n      0x20\n      add\n      0x60\n      dup2\n      mstore\n      0x20\n      add\n      0x00\n      dup2\n      mstore\n      0x20\n      add\n      0x00\n      dup2\n      mstore\n      pop\n      swap1\n      jump\t// out\n        /* \"#utility.yul\":7:82   */\n    tag_149:\n        /* \"#utility.yul\":40:46   */\n      0x00\n        /* \"#utility.yul\":73:75   */\n      0x40\n        /* \"#utility.yul\":67:76   */\n      mload\n        /* \"#utility.yul\":57:76   */\n      swap1\n      pop\n        /* \"#utility.yul\":7:82   */\n      swap1\n      jump\t// out\n        /* \"#utility.yul\":88:205   */\n    tag_150:\n        /* \"#utility.yul\":197:198   */\n      0x00\n        /* \"#utility.yul\":194:195   */\n      dup1\n        /* \"#utility.yul\":187:199   */\n      revert\n        /* \"#utility.yul\":211:328   */\n    tag_151:\n        /* \"#utility.yul\":320:321   */\n      0x00\n        /* \"#utility.yul\":317:318   */\n      dup1\n        /* \"#utility.yul\":310:322   */\n      revert\n        /* \"#utility.yul\":334:460   */\n    tag_152:\n        /* \"#utility.yul\":371:378   */\n      0x00\n        /* \"#utility.yul\":411:453   */\n      0xffffffffffffffffffffffffffffffffffffffff\n        /* \"#utility.yul\":404:409   */\n      dup3\n        /* \"#utility.yul\":400:454   */\n      and\n        /* \"#utility.yul\":389:454   */\n      swap1\n      pop\n        /* \"#utility.yul\":334:460   */\n      swap2\n      swap1\n      pop\n      jump\t// out\n        /* \"#utility.yul\":466:562   */\n    tag_153:\n        /* \"#utility.yul\":503:510   */\n      0x00\n        /* \"#utility.yul\":532:556   */\n      tag_219\n        /* \"#utility.yul\":550:555   */\n      dup3\n        /* \"#utility.yul\":532:556   */\n      tag_152\n      jump\t// in\n    tag_219:\n        /* \"#utility.yul\":521:556   */\n      swap1\n      pop\n        /* \"#utility.yul\":466:562   */\n      swap2\n      swap1\n      pop\n      jump\t// out\n        /* \"#utility.yul\":568:690   */\n    tag_154:\n        /* \"#utility.yul\":641:665   */\n      tag_221\n        /* \"#utility.yul\":659:664   */\n      dup2\n        /* \"#utility.yul\":641:665   */\n      tag_153\n      jump\t// in\n    tag_221:\n        /* \"#utility.yul\":634:639   */\n      dup2\n        /* \"#utility.yul\":631:666   */\n      eq\n        /* \"#utility.yul\":621:684   */\n      tag_222\n      jumpi\n        /* \"#utility.yul\":680:681   */\n      0x00\n        /* \"#utility.yul\":677:678   */\n      dup1\n        /* \"#utility.yul\":670:682   */\n      revert\n        /* \"#utility.yul\":621:684   */\n    tag_222:\n        /* \"#utility.yul\":568:690   */\n      pop\n      jump\t// out\n        /* \"#utility.yul\":696:835   */\n    tag_155:\n        /* \"#utility.yul\":742:747   */\n      0x00\n        /* \"#utility.yul\":780:786   */\n      dup2\n        /* \"#utility.yul\":767:787   */\n      calldataload\n        /* \"#utility.yul\":758:787   */\n      swap1\n      pop\n        /* \"#utility.yul\":796:829   */\n      tag_224\n        /* \"#utility.yul\":823:828   */\n      dup2\n        /* \"#utility.yul\":796:829   */\n      tag_154\n      jump\t// in\n    tag_224:\n        /* \"#utility.yul\":696:835   */\n      swap3\n      swap2\n      pop\n      pop\n      jump\t// out\n        /* \"#utility.yul\":841:1170   */\n    tag_18:\n        /* \"#utility.yul\":900:906   */\n      0x00\n        /* \"#utility.yul\":949:951   */\n      0x20\n        /* \"#utility.yul\":937:946   */\n      dup3\n        /* \"#utility.yul\":928:935   */\n      dup5\n        /* \"#utility.yul\":924:947   */\n      sub\n        /* \"#utility.yul\":920:952   */\n      slt\n        /* \"#utility.yul\":917:1036   */\n      iszero\n      tag_226\n      jumpi\n        /* \"#utility.yul\":955:1034   */\n      tag_227\n      tag_150\n      jump\t// in\n    tag_227:\n        /* \"#utility.yul\":917:1036   */\n    tag_226:\n        /* \"#utility.yul\":1075:1076   */\n      0x00\n        /* \"#utility.yul\":1100:1153   */\n      tag_228\n        /* \"#utility.yul\":1145:1152   */\n      dup5\n        /* \"#utility.yul\":1136:1142   */\n      dup3\n        /* \"#utility.yul\":1125:1134   */\n      dup6\n        /* \"#utility.yul\":1121:1143   */\n      add\n        /* \"#utility.yul\":1100:1153   */\n      tag_155\n      jump\t// in\n    tag_228:\n        /* \"#utility.yul\":1090:1153   */\n      swap2\n      pop\n        /* \"#utility.yul\":1046:1163   */\n      pop\n        /* \"#utility.yul\":841:1170   */\n      swap3\n      swap2\n      pop\n      pop\n      jump\t// out\n        /* \"#utility.yul\":1176:1312   */\n    tag_156:\n        /* \"#utility.yul\":1265:1271   */\n      0x00\n        /* \"#utility.yul\":1299:1304   */\n      dup2\n        /* \"#utility.yul\":1293:1305   */\n      mload\n        /* \"#utility.yul\":1283:1305   */\n      swap1\n      pop\n        /* \"#utility.yul\":1176:1312   */\n      swap2\n      swap1\n      pop\n      jump\t// out\n        /* \"#utility.yul\":1318:1524   */\n    tag_157:\n        /* \"#utility.yul\":1439:1450   */\n      0x00\n        /* \"#utility.yul\":1473:1479   */\n      dup3\n        /* \"#utility.yul\":1468:1471   */\n      dup3\n        /* \"#utility.yul\":1461:1480   */\n      mstore\n        /* \"#utility.yul\":1513:1517   */\n      0x20\n        /* \"#utility.yul\":1508:1511   */\n      dup3\n        /* \"#utility.yul\":1504:1518   */\n      add\n        /* \"#utility.yul\":1489:1518   */\n      swap1\n      pop\n        /* \"#utility.yul\":1318:1524   */\n      swap3\n      swap2\n      pop\n      pop\n      jump\t// out\n        /* \"#utility.yul\":1530:1684   */\n    tag_158:\n        /* \"#utility.yul\":1619:1623   */\n      0x00\n        /* \"#utility.yul\":1642:1645   */\n      dup2\n        /* \"#utility.yul\":1634:1645   */\n      swap1\n      pop\n        /* \"#utility.yul\":1672:1676   */\n      0x20\n        /* \"#utility.yul\":1667:1670   */\n      dup3\n        /* \"#utility.yul\":1663:1677   */\n      add\n        /* \"#utility.yul\":1655:1677   */\n      swap1\n      pop\n        /* \"#utility.yul\":1530:1684   */\n      swap2\n      swap1\n      pop\n      jump\t// out\n        /* \"#utility.yul\":1690:1767   */\n    tag_159:\n        /* \"#utility.yul\":1727:1734   */\n      0x00\n        /* \"#utility.yul\":1756:1761   */\n      dup2\n        /* \"#utility.yul\":1745:1761   */\n      swap1\n      pop\n        /* \"#utility.yul\":1690:1767   */\n      swap2\n      swap1\n      pop\n      jump\t// out\n        /* \"#utility.yul\":1773:1881   */\n    tag_160:\n        /* \"#utility.yul\":1850:1874   */\n      tag_234\n        /* \"#utility.yul\":1868:1873   */\n      dup2\n        /* \"#utility.yul\":1850:1874   */\n      tag_159\n      jump\t// in\n    tag_234:\n        /* \"#utility.yul\":1845:1848   */\n      dup3\n        /* \"#utility.yul\":1838:1875   */\n      mstore\n        /* \"#utility.yul\":1773:1881   */\n      pop\n      pop\n      jump\t// out\n        /* \"#utility.yul\":1887:1995   */\n    tag_161:\n        /* \"#utility.yul\":1964:1988   */\n      tag_236\n        /* \"#utility.yul\":1982:1987   */\n      dup2\n        /* \"#utility.yul\":1964:1988   */\n      tag_153\n      jump\t// in\n    tag_236:\n        /* \"#utility.yul\":1959:1962   */\n      dup3\n        /* \"#utility.yul\":1952:1989   */\n      mstore\n        /* \"#utility.yul\":1887:1995   */\n      pop\n      pop\n      jump\t// out\n        /* \"#utility.yul\":2001:2100   */\n    tag_162:\n        /* \"#utility.yul\":2053:2059   */\n      0x00\n        /* \"#utility.yul\":2087:2092   */\n      dup2\n        /* \"#utility.yul\":2081:2093   */\n      mload\n        /* \"#utility.yul\":2071:2093   */\n      swap1\n      pop\n        /* \"#utility.yul\":2001:2100   */\n      swap2\n      swap1\n      pop\n      jump\t// out\n        /* \"#utility.yul\":2106:2265   */\n    tag_163:\n        /* \"#utility.yul\":2180:2191   */\n      0x00\n        /* \"#utility.yul\":2214:2220   */\n      dup3\n        /* \"#utility.yul\":2209:2212   */\n      dup3\n        /* \"#utility.yul\":2202:2221   */\n      mstore\n        /* \"#utility.yul\":2254:2258   */\n      0x20\n        /* \"#utility.yul\":2249:2252   */\n      dup3\n        /* \"#utility.yul\":2245:2259   */\n      add\n        /* \"#utility.yul\":2230:2259   */\n      swap1\n      pop\n        /* \"#utility.yul\":2106:2265   */\n      swap3\n      swap2\n      pop\n      pop\n      jump\t// out\n        /* \"#utility.yul\":2271:2517   */\n    tag_164:\n        /* \"#utility.yul\":2352:2353   */\n      0x00\n        /* \"#utility.yul\":2362:2475   */\n    tag_240:\n        /* \"#utility.yul\":2376:2382   */\n      dup4\n        /* \"#utility.yul\":2373:2374   */\n      dup2\n        /* \"#utility.yul\":2370:2383   */\n      lt\n        /* \"#utility.yul\":2362:2475   */\n      iszero\n      tag_242\n      jumpi\n        /* \"#utility.yul\":2461:2462   */\n      dup1\n        /* \"#utility.yul\":2456:2459   */\n      dup3\n        /* \"#utility.yul\":2452:2463   */\n      add\n        /* \"#utility.yul\":2446:2464   */\n      mload\n        /* \"#utility.yul\":2442:2443   */\n      dup2\n        /* \"#utility.yul\":2437:2440   */\n      dup5\n        /* \"#utility.yul\":2433:2444   */\n      add\n        /* \"#utility.yul\":2426:2465   */\n      mstore\n        /* \"#utility.yul\":2398:2400   */\n      0x20\n        /* \"#utility.yul\":2395:2396   */\n      dup2\n        /* \"#utility.yul\":2391:2401   */\n      add\n        /* \"#utility.yul\":2386:2401   */\n      swap1\n      pop\n        /* \"#utility.yul\":2362:2475   */\n      jump(tag_240)\n    tag_242:\n        /* \"#utility.yul\":2509:2510   */\n      0x00\n        /* \"#utility.yul\":2500:2506   */\n      dup5\n        /* \"#utility.yul\":2495:2498   */\n      dup5\n        /* \"#utility.yul\":2491:2507   */\n      add\n        /* \"#utility.yul\":2484:2511   */\n      mstore\n        /* \"#utility.yul\":2333:2517   */\n      pop\n        /* \"#utility.yul\":2271:2517   */\n      pop\n      pop\n      pop\n      jump\t// out\n        /* \"#utility.yul\":2523:2625   */\n    tag_165:\n        /* \"#utility.yul\":2564:2570   */\n      0x00\n        /* \"#utility.yul\":2615:2617   */\n      0x1f\n        /* \"#utility.yul\":2611:2618   */\n      not\n        /* \"#utility.yul\":2606:2608   */\n      0x1f\n        /* \"#utility.yul\":2599:2604   */\n      dup4\n        /* \"#utility.yul\":2595:2609   */\n      add\n        /* \"#utility.yul\":2591:2619   */\n      and\n        /* \"#utility.yul\":2581:2619   */\n      swap1\n      pop\n        /* \"#utility.yul\":2523:2625   */\n      swap2\n      swap1\n      pop\n      jump\t// out\n        /* \"#utility.yul\":2631:2988   */\n    tag_166:\n        /* \"#utility.yul\":2709:2712   */\n      0x00\n        /* \"#utility.yul\":2737:2776   */\n      tag_245\n        /* \"#utility.yul\":2770:2775   */\n      dup3\n        /* \"#utility.yul\":2737:2776   */\n      tag_162\n      jump\t// in\n    tag_245:\n        /* \"#utility.yul\":2792:2853   */\n      tag_246\n        /* \"#utility.yul\":2846:2852   */\n      dup2\n        /* \"#utility.yul\":2841:2844   */\n      dup6\n        /* \"#utility.yul\":2792:2853   */\n      tag_163\n      jump\t// in\n    tag_246:\n        /* \"#utility.yul\":2785:2853   */\n      swap4\n      pop\n        /* \"#utility.yul\":2862:2927   */\n      tag_247\n        /* \"#utility.yul\":2920:2926   */\n      dup2\n        /* \"#utility.yul\":2915:2918   */\n      dup6\n        /* \"#utility.yul\":2908:2912   */\n      0x20\n        /* \"#utility.yul\":2901:2906   */\n      dup7\n        /* \"#utility.yul\":2897:2913   */\n      add\n        /* \"#utility.yul\":2862:2927   */\n      tag_164\n      jump\t// in\n    tag_247:\n        /* \"#utility.yul\":2952:2981   */\n      tag_248\n        /* \"#utility.yul\":2974:2980   */\n      dup2\n        /* \"#utility.yul\":2952:2981   */\n      tag_165\n      jump\t// in\n    tag_248:\n        /* \"#utility.yul\":2947:2950   */\n      dup5\n        /* \"#utility.yul\":2943:2982   */\n      add\n        /* \"#utility.yul\":2936:2982   */\n      swap2\n      pop\n        /* \"#utility.yul\":2713:2988   */\n      pop\n        /* \"#utility.yul\":2631:2988   */\n      swap3\n      swap2\n      pop\n      pop\n      jump\t// out\n        /* \"#utility.yul\":3046:4167   */\n    tag_167:\n        /* \"#utility.yul\":3149:3152   */\n      0x00\n        /* \"#utility.yul\":3185:3189   */\n      0xa0\n        /* \"#utility.yul\":3180:3183   */\n      dup4\n        /* \"#utility.yul\":3176:3190   */\n      add\n        /* \"#utility.yul\":3270:3274   */\n      0x00\n        /* \"#utility.yul\":3263:3268   */\n      dup4\n        /* \"#utility.yul\":3259:3275   */\n      add\n        /* \"#utility.yul\":3253:3276   */\n      mload\n        /* \"#utility.yul\":3289:3352   */\n      tag_250\n        /* \"#utility.yul\":3346:3350   */\n      0x00\n        /* \"#utility.yul\":3341:3344   */\n      dup7\n        /* \"#utility.yul\":3337:3351   */\n      add\n        /* \"#utility.yul\":3323:3335   */\n      dup3\n        /* \"#utility.yul\":3289:3352   */\n      tag_160\n      jump\t// in\n    tag_250:\n        /* \"#utility.yul\":3200:3362   */\n      pop\n        /* \"#utility.yul\":3446:3450   */\n      0x20\n        /* \"#utility.yul\":3439:3444   */\n      dup4\n        /* \"#utility.yul\":3435:3451   */\n      add\n        /* \"#utility.yul\":3429:3452   */\n      mload\n        /* \"#utility.yul\":3465:3528   */\n      tag_251\n        /* \"#utility.yul\":3522:3526   */\n      0x20\n        /* \"#utility.yul\":3517:3520   */\n      dup7\n        /* \"#utility.yul\":3513:3527   */\n      add\n        /* \"#utility.yul\":3499:3511   */\n      dup3\n        /* \"#utility.yul\":3465:3528   */\n      tag_161\n      jump\t// in\n    tag_251:\n        /* \"#utility.yul\":3372:3538   */\n      pop\n        /* \"#utility.yul\":3623:3627   */\n      0x40\n        /* \"#utility.yul\":3616:3621   */\n      dup4\n        /* \"#utility.yul\":3612:3628   */\n      add\n        /* \"#utility.yul\":3606:3629   */\n      mload\n        /* \"#utility.yul\":3676:3679   */\n      dup5\n        /* \"#utility.yul\":3670:3674   */\n      dup3\n        /* \"#utility.yul\":3666:3680   */\n      sub\n        /* \"#utility.yul\":3659:3663   */\n      0x40\n        /* \"#utility.yul\":3654:3657   */\n      dup7\n        /* \"#utility.yul\":3650:3664   */\n      add\n        /* \"#utility.yul\":3643:3681   */\n      mstore\n        /* \"#utility.yul\":3702:3775   */\n      tag_252\n        /* \"#utility.yul\":3770:3774   */\n      dup3\n        /* \"#utility.yul\":3756:3768   */\n      dup3\n        /* \"#utility.yul\":3702:3775   */\n      tag_166\n      jump\t// in\n    tag_252:\n        /* \"#utility.yul\":3694:3775   */\n      swap2\n      pop\n        /* \"#utility.yul\":3548:3786   */\n      pop\n        /* \"#utility.yul\":3873:3877   */\n      0x60\n        /* \"#utility.yul\":3866:3871   */\n      dup4\n        /* \"#utility.yul\":3862:3878   */\n      add\n        /* \"#utility.yul\":3856:3879   */\n      mload\n        /* \"#utility.yul\":3892:3955   */\n      tag_253\n        /* \"#utility.yul\":3949:3953   */\n      0x60\n        /* \"#utility.yul\":3944:3947   */\n      dup7\n        /* \"#utility.yul\":3940:3954   */\n      add\n        /* \"#utility.yul\":3926:3938   */\n      dup3\n        /* \"#utility.yul\":3892:3955   */\n      tag_160\n      jump\t// in\n    tag_253:\n        /* \"#utility.yul\":3796:3965   */\n      pop\n        /* \"#utility.yul\":4048:4052   */\n      0x80\n        /* \"#utility.yul\":4041:4046   */\n      dup4\n        /* \"#utility.yul\":4037:4053   */\n      add\n        /* \"#utility.yul\":4031:4054   */\n      mload\n        /* \"#utility.yul\":4067:4130   */\n      tag_254\n        /* \"#utility.yul\":4124:4128   */\n      0x80\n        /* \"#utility.yul\":4119:4122   */\n      dup7\n        /* \"#utility.yul\":4115:4129   */\n      add\n        /* \"#utility.yul\":4101:4113   */\n      dup3\n        /* \"#utility.yul\":4067:4130   */\n      tag_160\n      jump\t// in\n    tag_254:\n        /* \"#utility.yul\":3975:4140   */\n      pop\n        /* \"#utility.yul\":4157:4161   */\n      dup1\n        /* \"#utility.yul\":4150:4161   */\n      swap2\n      pop\n        /* \"#utility.yul\":3154:4167   */\n      pop\n        /* \"#utility.yul\":3046:4167   */\n      swap3\n      swap2\n      pop\n      pop\n      jump\t// out\n        /* \"#utility.yul\":4173:4417   */\n    tag_168:\n        /* \"#utility.yul\":4286:4296   */\n      0x00\n        /* \"#utility.yul\":4321:4411   */\n      tag_256\n        /* \"#utility.yul\":4407:4410   */\n      dup4\n        /* \"#utility.yul\":4399:4405   */\n      dup4\n        /* \"#utility.yul\":4321:4411   */\n      tag_167\n      jump\t// in\n    tag_256:\n        /* \"#utility.yul\":4307:4411   */\n      swap1\n      pop\n        /* \"#utility.yul\":4173:4417   */\n      swap3\n      swap2\n      pop\n      pop\n      jump\t// out\n        /* \"#utility.yul\":4423:4558   */\n    tag_169:\n        /* \"#utility.yul\":4515:4519   */\n      0x00\n        /* \"#utility.yul\":4547:4551   */\n      0x20\n        /* \"#utility.yul\":4542:4545   */\n      dup3\n        /* \"#utility.yul\":4538:4552   */\n      add\n        /* \"#utility.yul\":4530:4552   */\n      swap1\n      pop\n        /* \"#utility.yul\":4423:4558   */\n      swap2\n      swap1\n      pop\n      jump\t// out\n        /* \"#utility.yul\":4620:5707   */\n    tag_170:\n        /* \"#utility.yul\":4783:4786   */\n      0x00\n        /* \"#utility.yul\":4812:4888   */\n      tag_259\n        /* \"#utility.yul\":4882:4887   */\n      dup3\n        /* \"#utility.yul\":4812:4888   */\n      tag_156\n      jump\t// in\n    tag_259:\n        /* \"#utility.yul\":4904:5012   */\n      tag_260\n        /* \"#utility.yul\":5005:5011   */\n      dup2\n        /* \"#utility.yul\":5000:5003   */\n      dup6\n        /* \"#utility.yul\":4904:5012   */\n      tag_157\n      jump\t// in\n    tag_260:\n        /* \"#utility.yul\":4897:5012   */\n      swap4\n      pop\n        /* \"#utility.yul\":5038:5041   */\n      dup4\n        /* \"#utility.yul\":5083:5087   */\n      0x20\n        /* \"#utility.yul\":5075:5081   */\n      dup3\n        /* \"#utility.yul\":5071:5088   */\n      mul\n        /* \"#utility.yul\":5066:5069   */\n      dup6\n        /* \"#utility.yul\":5062:5089   */\n      add\n        /* \"#utility.yul\":5113:5191   */\n      tag_261\n        /* \"#utility.yul\":5185:5190   */\n      dup6\n        /* \"#utility.yul\":5113:5191   */\n      tag_158\n      jump\t// in\n    tag_261:\n        /* \"#utility.yul\":5214:5221   */\n      dup1\n        /* \"#utility.yul\":5245:5246   */\n      0x00\n        /* \"#utility.yul\":5230:5662   */\n    tag_262:\n        /* \"#utility.yul\":5255:5261   */\n      dup6\n        /* \"#utility.yul\":5252:5253   */\n      dup2\n        /* \"#utility.yul\":5249:5262   */\n      lt\n        /* \"#utility.yul\":5230:5662   */\n      iszero\n      tag_264\n      jumpi\n        /* \"#utility.yul\":5326:5335   */\n      dup5\n        /* \"#utility.yul\":5320:5324   */\n      dup5\n        /* \"#utility.yul\":5316:5336   */\n      sub\n        /* \"#utility.yul\":5311:5314   */\n      dup10\n        /* \"#utility.yul\":5304:5337   */\n      mstore\n        /* \"#utility.yul\":5377:5383   */\n      dup2\n        /* \"#utility.yul\":5371:5384   */\n      mload\n        /* \"#utility.yul\":5405:5513   */\n      tag_265\n        /* \"#utility.yul\":5508:5512   */\n      dup6\n        /* \"#utility.yul\":5493:5506   */\n      dup3\n        /* \"#utility.yul\":5405:5513   */\n      tag_168\n      jump\t// in\n    tag_265:\n        /* \"#utility.yul\":5397:5513   */\n      swap5\n      pop\n        /* \"#utility.yul\":5536:5618   */\n      tag_266\n        /* \"#utility.yul\":5611:5617   */\n      dup4\n        /* \"#utility.yul\":5536:5618   */\n      tag_169\n      jump\t// in\n    tag_266:\n        /* \"#utility.yul\":5526:5618   */\n      swap3\n      pop\n        /* \"#utility.yul\":5647:5651   */\n      0x20\n        /* \"#utility.yul\":5642:5645   */\n      dup11\n        /* \"#utility.yul\":5638:5652   */\n      add\n        /* \"#utility.yul\":5631:5652   */\n      swap10\n      pop\n        /* \"#utility.yul\":5290:5662   */\n      pop\n        /* \"#utility.yul\":5277:5278   */\n      0x01\n        /* \"#utility.yul\":5274:5275   */\n      dup2\n        /* \"#utility.yul\":5270:5279   */\n      add\n        /* \"#utility.yul\":5265:5279   */\n      swap1\n      pop\n        /* \"#utility.yul\":5230:5662   */\n      jump(tag_262)\n    tag_264:\n        /* \"#utility.yul\":5234:5248   */\n      pop\n        /* \"#utility.yul\":5678:5682   */\n      dup3\n        /* \"#utility.yul\":5671:5682   */\n      swap8\n      pop\n        /* \"#utility.yul\":5698:5701   */\n      dup8\n        /* \"#utility.yul\":5691:5701   */\n      swap6\n      pop\n        /* \"#utility.yul\":4788:5707   */\n      pop\n      pop\n      pop\n      pop\n      pop\n        /* \"#utility.yul\":4620:5707   */\n      swap3\n      swap2\n      pop\n      pop\n      jump\t// out\n        /* \"#utility.yul\":5713:6174   */\n    tag_21:\n        /* \"#utility.yul\":5900:5904   */\n      0x00\n        /* \"#utility.yul\":5938:5940   */\n      0x20\n        /* \"#utility.yul\":5927:5936   */\n      dup3\n        /* \"#utility.yul\":5923:5941   */\n      add\n        /* \"#utility.yul\":5915:5941   */\n      swap1\n      pop\n        /* \"#utility.yul\":5987:5996   */\n      dup2\n        /* \"#utility.yul\":5981:5985   */\n      dup2\n        /* \"#utility.yul\":5977:5997   */\n      sub\n        /* \"#utility.yul\":5973:5974   */\n      0x00\n        /* \"#utility.yul\":5962:5971   */\n      dup4\n        /* \"#utility.yul\":5958:5975   */\n      add\n        /* \"#utility.yul\":5951:5998   */\n      mstore\n        /* \"#utility.yul\":6015:6167   */\n      tag_268\n        /* \"#utility.yul\":6162:6166   */\n      dup2\n        /* \"#utility.yul\":6153:6159   */\n      dup5\n        /* \"#utility.yul\":6015:6167   */\n      tag_170\n      jump\t// in\n    tag_268:\n        /* \"#utility.yul\":6007:6167   */\n      swap1\n      pop\n        /* \"#utility.yul\":5713:6174   */\n      swap3\n      swap2\n      pop\n      pop\n      jump\t// out\n        /* \"#utility.yul\":6180:6269   */\n    tag_171:\n        /* \"#utility.yul\":6216:6223   */\n      0x00\n        /* \"#utility.yul\":6256:6262   */\n      0xffff\n        /* \"#utility.yul\":6249:6254   */\n      dup3\n        /* \"#utility.yul\":6245:6263   */\n      and\n        /* \"#utility.yul\":6234:6263   */\n      swap1\n      pop\n        /* \"#utility.yul\":6180:6269   */\n      swap2\n      swap1\n      pop\n      jump\t// out\n        /* \"#utility.yul\":6275:6395   */\n    tag_172:\n        /* \"#utility.yul\":6347:6370   */\n      tag_271\n        /* \"#utility.yul\":6364:6369   */\n      dup2\n        /* \"#utility.yul\":6347:6370   */\n      tag_171\n      jump\t// in\n    tag_271:\n        /* \"#utility.yul\":6340:6345   */\n      dup2\n        /* \"#utility.yul\":6337:6371   */\n      eq\n        /* \"#utility.yul\":6327:6389   */\n      tag_272\n      jumpi\n        /* \"#utility.yul\":6385:6386   */\n      0x00\n        /* \"#utility.yul\":6382:6383   */\n      dup1\n        /* \"#utility.yul\":6375:6387   */\n      revert\n        /* \"#utility.yul\":6327:6389   */\n    tag_272:\n        /* \"#utility.yul\":6275:6395   */\n      pop\n      jump\t// out\n        /* \"#utility.yul\":6401:6538   */\n    tag_173:\n        /* \"#utility.yul\":6446:6451   */\n      0x00\n        /* \"#utility.yul\":6484:6490   */\n      dup2\n        /* \"#utility.yul\":6471:6491   */\n      calldataload\n        /* \"#utility.yul\":6462:6491   */\n      swap1\n      pop\n        /* \"#utility.yul\":6500:6532   */\n      tag_274\n        /* \"#utility.yul\":6526:6531   */\n      dup2\n        /* \"#utility.yul\":6500:6532   */\n      tag_172\n      jump\t// in\n    tag_274:\n        /* \"#utility.yul\":6401:6538   */\n      swap3\n      swap2\n      pop\n      pop\n      jump\t// out\n        /* \"#utility.yul\":6544:6871   */\n    tag_24:\n        /* \"#utility.yul\":6602:6608   */\n      0x00\n        /* \"#utility.yul\":6651:6653   */\n      0x20\n        /* \"#utility.yul\":6639:6648   */\n      dup3\n        /* \"#utility.yul\":6630:6637   */\n      dup5\n        /* \"#utility.yul\":6626:6649   */\n      sub\n        /* \"#utility.yul\":6622:6654   */\n      slt\n        /* \"#utility.yul\":6619:6738   */\n      iszero\n      tag_276\n      jumpi\n        /* \"#utility.yul\":6657:6736   */\n      tag_277\n      tag_150\n      jump\t// in\n    tag_277:\n        /* \"#utility.yul\":6619:6738   */\n    tag_276:\n        /* \"#utility.yul\":6777:6778   */\n      0x00\n        /* \"#utility.yul\":6802:6854   */\n      tag_278\n        /* \"#utility.yul\":6846:6853   */\n      dup5\n        /* \"#utility.yul\":6837:6843   */\n      dup3\n        /* \"#utility.yul\":6826:6835   */\n      dup6\n        /* \"#utility.yul\":6822:6844   */\n      add\n        /* \"#utility.yul\":6802:6854   */\n      tag_173\n      jump\t// in\n    tag_278:\n        /* \"#utility.yul\":6792:6854   */\n      swap2\n      pop\n        /* \"#utility.yul\":6748:6864   */\n      pop\n        /* \"#utility.yul\":6544:6871   */\n      swap3\n      swap2\n      pop\n      pop\n      jump\t// out\n        /* \"#utility.yul\":6877:6992   */\n    tag_174:\n        /* \"#utility.yul\":6962:6985   */\n      tag_280\n        /* \"#utility.yul\":6979:6984   */\n      dup2\n        /* \"#utility.yul\":6962:6985   */\n      tag_171\n      jump\t// in\n    tag_280:\n        /* \"#utility.yul\":6957:6960   */\n      dup3\n        /* \"#utility.yul\":6950:6986   */\n      mstore\n        /* \"#utility.yul\":6877:6992   */\n      pop\n      pop\n      jump\t// out\n        /* \"#utility.yul\":6998:7216   */\n    tag_29:\n        /* \"#utility.yul\":7089:7093   */\n      0x00\n        /* \"#utility.yul\":7127:7129   */\n      0x20\n        /* \"#utility.yul\":7116:7125   */\n      dup3\n        /* \"#utility.yul\":7112:7130   */\n      add\n        /* \"#utility.yul\":7104:7130   */\n      swap1\n      pop\n        /* \"#utility.yul\":7140:7209   */\n      tag_282\n        /* \"#utility.yul\":7206:7207   */\n      0x00\n        /* \"#utility.yul\":7195:7204   */\n      dup4\n        /* \"#utility.yul\":7191:7208   */\n      add\n        /* \"#utility.yul\":7182:7188   */\n      dup5\n        /* \"#utility.yul\":7140:7209   */\n      tag_174\n      jump\t// in\n    tag_282:\n        /* \"#utility.yul\":6998:7216   */\n      swap3\n      swap2\n      pop\n      pop\n      jump\t// out\n        /* \"#utility.yul\":7222:7339   */\n    tag_175:\n        /* \"#utility.yul\":7331:7332   */\n      0x00\n        /* \"#utility.yul\":7328:7329   */\n      dup1\n        /* \"#utility.yul\":7321:7333   */\n      revert\n        /* \"#utility.yul\":7345:7462   */\n    tag_176:\n        /* \"#utility.yul\":7454:7455   */\n      0x00\n        /* \"#utility.yul\":7451:7452   */\n      dup1\n        /* \"#utility.yul\":7444:7456   */\n      revert\n        /* \"#utility.yul\":7468:7648   */\n    tag_67:\n        /* \"#utility.yul\":7516:7593   */\n      0x4e487b7100000000000000000000000000000000000000000000000000000000\n        /* \"#utility.yul\":7513:7514   */\n      0x00\n        /* \"#utility.yul\":7506:7594   */\n      mstore\n        /* \"#utility.yul\":7613:7617   */\n      0x41\n        /* \"#utility.yul\":7610:7611   */\n      0x04\n        /* \"#utility.yul\":7603:7618   */\n      mstore\n        /* \"#utility.yul\":7637:7641   */\n      0x24\n        /* \"#utility.yul\":7634:7635   */\n      0x00\n        /* \"#utility.yul\":7627:7642   */\n      revert\n        /* \"#utility.yul\":7654:7935   */\n    tag_177:\n        /* \"#utility.yul\":7737:7764   */\n      tag_287\n        /* \"#utility.yul\":7759:7763   */\n      dup3\n        /* \"#utility.yul\":7737:7764   */\n      tag_165\n      jump\t// in\n    tag_287:\n        /* \"#utility.yul\":7729:7735   */\n      dup2\n        /* \"#utility.yul\":7725:7765   */\n      add\n        /* \"#utility.yul\":7867:7873   */\n      dup2\n        /* \"#utility.yul\":7855:7865   */\n      dup2\n        /* \"#utility.yul\":7852:7874   */\n      lt\n        /* \"#utility.yul\":7831:7849   */\n      0xffffffffffffffff\n        /* \"#utility.yul\":7819:7829   */\n      dup3\n        /* \"#utility.yul\":7816:7850   */\n      gt\n        /* \"#utility.yul\":7813:7875   */\n      or\n        /* \"#utility.yul\":7810:7898   */\n      iszero\n      tag_288\n      jumpi\n        /* \"#utility.yul\":7878:7896   */\n      tag_289\n      tag_67\n      jump\t// in\n    tag_289:\n        /* \"#utility.yul\":7810:7898   */\n    tag_288:\n        /* \"#utility.yul\":7918:7928   */\n      dup1\n        /* \"#utility.yul\":7914:7916   */\n      0x40\n        /* \"#utility.yul\":7907:7929   */\n      mstore\n        /* \"#utility.yul\":7697:7935   */\n      pop\n        /* \"#utility.yul\":7654:7935   */\n      pop\n      pop\n      jump\t// out\n        /* \"#utility.yul\":7941:8070   */\n    tag_178:\n        /* \"#utility.yul\":7975:7981   */\n      0x00\n        /* \"#utility.yul\":8002:8022   */\n      tag_291\n      tag_149\n      jump\t// in\n    tag_291:\n        /* \"#utility.yul\":7992:8022   */\n      swap1\n      pop\n        /* \"#utility.yul\":8031:8064   */\n      tag_292\n        /* \"#utility.yul\":8059:8063   */\n      dup3\n        /* \"#utility.yul\":8051:8057   */\n      dup3\n        /* \"#utility.yul\":8031:8064   */\n      tag_177\n      jump\t// in\n    tag_292:\n        /* \"#utility.yul\":7941:8070   */\n      swap2\n      swap1\n      pop\n      jump\t// out\n        /* \"#utility.yul\":8076:8384   */\n    tag_179:\n        /* \"#utility.yul\":8138:8142   */\n      0x00\n        /* \"#utility.yul\":8228:8246   */\n      0xffffffffffffffff\n        /* \"#utility.yul\":8220:8226   */\n      dup3\n        /* \"#utility.yul\":8217:8247   */\n      gt\n        /* \"#utility.yul\":8214:8270   */\n      iszero\n      tag_294\n      jumpi\n        /* \"#utility.yul\":8250:8268   */\n      tag_295\n      tag_67\n      jump\t// in\n    tag_295:\n        /* \"#utility.yul\":8214:8270   */\n    tag_294:\n        /* \"#utility.yul\":8288:8317   */\n      tag_296\n        /* \"#utility.yul\":8310:8316   */\n      dup3\n        /* \"#utility.yul\":8288:8317   */\n      tag_165\n      jump\t// in\n    tag_296:\n        /* \"#utility.yul\":8280:8317   */\n      swap1\n      pop\n        /* \"#utility.yul\":8372:8376   */\n      0x20\n        /* \"#utility.yul\":8366:8370   */\n      dup2\n        /* \"#utility.yul\":8362:8377   */\n      add\n        /* \"#utility.yul\":8354:8377   */\n      swap1\n      pop\n        /* \"#utility.yul\":8076:8384   */\n      swap2\n      swap1\n      pop\n      jump\t// out\n        /* \"#utility.yul\":8390:8536   */\n    tag_180:\n        /* \"#utility.yul\":8487:8493   */\n      dup3\n        /* \"#utility.yul\":8482:8485   */\n      dup2\n        /* \"#utility.yul\":8477:8480   */\n      dup4\n        /* \"#utility.yul\":8464:8494   */\n      calldatacopy\n        /* \"#utility.yul\":8528:8529   */\n      0x00\n        /* \"#utility.yul\":8519:8525   */\n      dup4\n        /* \"#utility.yul\":8514:8517   */\n      dup4\n        /* \"#utility.yul\":8510:8526   */\n      add\n        /* \"#utility.yul\":8503:8530   */\n      mstore\n        /* \"#utility.yul\":8390:8536   */\n      pop\n      pop\n      pop\n      jump\t// out\n        /* \"#utility.yul\":8542:8967   */\n    tag_181:\n        /* \"#utility.yul\":8620:8625   */\n      0x00\n        /* \"#utility.yul\":8645:8711   */\n      tag_299\n        /* \"#utility.yul\":8661:8710   */\n      tag_300\n        /* \"#utility.yul\":8703:8709   */\n      dup5\n        /* \"#utility.yul\":8661:8710   */\n      tag_179\n      jump\t// in\n    tag_300:\n        /* \"#utility.yul\":8645:8711   */\n      tag_178\n      jump\t// in\n    tag_299:\n        /* \"#utility.yul\":8636:8711   */\n      swap1\n      pop\n        /* \"#utility.yul\":8734:8740   */\n      dup3\n        /* \"#utility.yul\":8727:8732   */\n      dup2\n        /* \"#utility.yul\":8720:8741   */\n      mstore\n        /* \"#utility.yul\":8772:8776   */\n      0x20\n        /* \"#utility.yul\":8765:8770   */\n      dup2\n        /* \"#utility.yul\":8761:8777   */\n      add\n        /* \"#utility.yul\":8810:8813   */\n      dup5\n        /* \"#utility.yul\":8801:8807   */\n      dup5\n        /* \"#utility.yul\":8796:8799   */\n      dup5\n        /* \"#utility.yul\":8792:8808   */\n      add\n        /* \"#utility.yul\":8789:8814   */\n      gt\n        /* \"#utility.yul\":8786:8898   */\n      iszero\n      tag_301\n      jumpi\n        /* \"#utility.yul\":8817:8896   */\n      tag_302\n      tag_176\n      jump\t// in\n    tag_302:\n        /* \"#utility.yul\":8786:8898   */\n    tag_301:\n        /* \"#utility.yul\":8907:8961   */\n      tag_303\n        /* \"#utility.yul\":8954:8960   */\n      dup5\n        /* \"#utility.yul\":8949:8952   */\n      dup3\n        /* \"#utility.yul\":8944:8947   */\n      dup6\n        /* \"#utility.yul\":8907:8961   */\n      tag_180\n      jump\t// in\n    tag_303:\n        /* \"#utility.yul\":8626:8967   */\n      pop\n        /* \"#utility.yul\":8542:8967   */\n      swap4\n      swap3\n      pop\n      pop\n      pop\n      jump\t// out\n        /* \"#utility.yul\":8987:9327   */\n    tag_182:\n        /* \"#utility.yul\":9043:9048   */\n      0x00\n        /* \"#utility.yul\":9092:9095   */\n      dup3\n        /* \"#utility.yul\":9085:9089   */\n      0x1f\n        /* \"#utility.yul\":9077:9083   */\n      dup4\n        /* \"#utility.yul\":9073:9090   */\n      add\n        /* \"#utility.yul\":9069:9096   */\n      slt\n        /* \"#utility.yul\":9059:9181   */\n      tag_305\n      jumpi\n        /* \"#utility.yul\":9100:9179   */\n      tag_306\n      tag_175\n      jump\t// in\n    tag_306:\n        /* \"#utility.yul\":9059:9181   */\n    tag_305:\n        /* \"#utility.yul\":9217:9223   */\n      dup2\n        /* \"#utility.yul\":9204:9224   */\n      calldataload\n        /* \"#utility.yul\":9242:9321   */\n      tag_307\n        /* \"#utility.yul\":9317:9320   */\n      dup5\n        /* \"#utility.yul\":9309:9315   */\n      dup3\n        /* \"#utility.yul\":9302:9306   */\n      0x20\n        /* \"#utility.yul\":9294:9300   */\n      dup7\n        /* \"#utility.yul\":9290:9307   */\n      add\n        /* \"#utility.yul\":9242:9321   */\n      tag_181\n      jump\t// in\n    tag_307:\n        /* \"#utility.yul\":9233:9321   */\n      swap2\n      pop\n        /* \"#utility.yul\":9049:9327   */\n      pop\n        /* \"#utility.yul\":8987:9327   */\n      swap3\n      swap2\n      pop\n      pop\n      jump\t// out\n        /* \"#utility.yul\":9333:9842   */\n    tag_34:\n        /* \"#utility.yul\":9402:9408   */\n      0x00\n        /* \"#utility.yul\":9451:9453   */\n      0x20\n        /* \"#utility.yul\":9439:9448   */\n      dup3\n        /* \"#utility.yul\":9430:9437   */\n      dup5\n        /* \"#utility.yul\":9426:9449   */\n      sub\n        /* \"#utility.yul\":9422:9454   */\n      slt\n        /* \"#utility.yul\":9419:9538   */\n      iszero\n      tag_309\n      jumpi\n        /* \"#utility.yul\":9457:9536   */\n      tag_310\n      tag_150\n      jump\t// in\n    tag_310:\n        /* \"#utility.yul\":9419:9538   */\n    tag_309:\n        /* \"#utility.yul\":9605:9606   */\n      0x00\n        /* \"#utility.yul\":9594:9603   */\n      dup3\n        /* \"#utility.yul\":9590:9607   */\n      add\n        /* \"#utility.yul\":9577:9608   */\n      calldataload\n        /* \"#utility.yul\":9635:9653   */\n      0xffffffffffffffff\n        /* \"#utility.yul\":9627:9633   */\n      dup2\n        /* \"#utility.yul\":9624:9654   */\n      gt\n        /* \"#utility.yul\":9621:9738   */\n      iszero\n      tag_311\n      jumpi\n        /* \"#utility.yul\":9657:9736   */\n      tag_312\n      tag_151\n      jump\t// in\n    tag_312:\n        /* \"#utility.yul\":9621:9738   */\n    tag_311:\n        /* \"#utility.yul\":9762:9825   */\n      tag_313\n        /* \"#utility.yul\":9817:9824   */\n      dup5\n        /* \"#utility.yul\":9808:9814   */\n      dup3\n        /* \"#utility.yul\":9797:9806   */\n      dup6\n        /* \"#utility.yul\":9793:9815   */\n      add\n        /* \"#utility.yul\":9762:9825   */\n      tag_182\n      jump\t// in\n    tag_313:\n        /* \"#utility.yul\":9752:9825   */\n      swap2\n      pop\n        /* \"#utility.yul\":9548:9835   */\n      pop\n        /* \"#utility.yul\":9333:9842   */\n      swap3\n      swap2\n      pop\n      pop\n      jump\t// out\n        /* \"#utility.yul\":9848:9966   */\n    tag_183:\n        /* \"#utility.yul\":9935:9959   */\n      tag_315\n        /* \"#utility.yul\":9953:9958   */\n      dup2\n        /* \"#utility.yul\":9935:9959   */\n      tag_159\n      jump\t// in\n    tag_315:\n        /* \"#utility.yul\":9930:9933   */\n      dup3\n        /* \"#utility.yul\":9923:9960   */\n      mstore\n        /* \"#utility.yul\":9848:9966   */\n      pop\n      pop\n      jump\t// out\n        /* \"#utility.yul\":9972:10194   */\n    tag_40:\n        /* \"#utility.yul\":10065:10069   */\n      0x00\n        /* \"#utility.yul\":10103:10105   */\n      0x20\n        /* \"#utility.yul\":10092:10101   */\n      dup3\n        /* \"#utility.yul\":10088:10106   */\n      add\n        /* \"#utility.yul\":10080:10106   */\n      swap1\n      pop\n        /* \"#utility.yul\":10116:10187   */\n      tag_317\n        /* \"#utility.yul\":10184:10185   */\n      0x00\n        /* \"#utility.yul\":10173:10182   */\n      dup4\n        /* \"#utility.yul\":10169:10186   */\n      add\n        /* \"#utility.yul\":10160:10166   */\n      dup5\n        /* \"#utility.yul\":10116:10187   */\n      tag_183\n      jump\t// in\n    tag_317:\n        /* \"#utility.yul\":9972:10194   */\n      swap3\n      swap2\n      pop\n      pop\n      jump\t// out\n        /* \"#utility.yul\":10200:10318   */\n    tag_184:\n        /* \"#utility.yul\":10287:10311   */\n      tag_319\n        /* \"#utility.yul\":10305:10310   */\n      dup2\n        /* \"#utility.yul\":10287:10311   */\n      tag_153\n      jump\t// in\n    tag_319:\n        /* \"#utility.yul\":10282:10285   */\n      dup3\n        /* \"#utility.yul\":10275:10312   */\n      mstore\n        /* \"#utility.yul\":10200:10318   */\n      pop\n      pop\n      jump\t// out\n        /* \"#utility.yul\":10324:10546   */\n    tag_44:\n        /* \"#utility.yul\":10417:10421   */\n      0x00\n        /* \"#utility.yul\":10455:10457   */\n      0x20\n        /* \"#utility.yul\":10444:10453   */\n      dup3\n        /* \"#utility.yul\":10440:10458   */\n      add\n        /* \"#utility.yul\":10432:10458   */\n      swap1\n      pop\n        /* \"#utility.yul\":10468:10539   */\n      tag_321\n        /* \"#utility.yul\":10536:10537   */\n      0x00\n        /* \"#utility.yul\":10525:10534   */\n      dup4\n        /* \"#utility.yul\":10521:10538   */\n      add\n        /* \"#utility.yul\":10512:10518   */\n      dup5\n        /* \"#utility.yul\":10468:10539   */\n      tag_184\n      jump\t// in\n    tag_321:\n        /* \"#utility.yul\":10324:10546   */\n      swap3\n      swap2\n      pop\n      pop\n      jump\t// out\n        /* \"#utility.yul\":10552:10674   */\n    tag_185:\n        /* \"#utility.yul\":10625:10649   */\n      tag_323\n        /* \"#utility.yul\":10643:10648   */\n      dup2\n        /* \"#utility.yul\":10625:10649   */\n      tag_159\n      jump\t// in\n    tag_323:\n        /* \"#utility.yul\":10618:10623   */\n      dup2\n        /* \"#utility.yul\":10615:10650   */\n      eq\n        /* \"#utility.yul\":10605:10668   */\n      tag_324\n      jumpi\n        /* \"#utility.yul\":10664:10665   */\n      0x00\n        /* \"#utility.yul\":10661:10662   */\n      dup1\n        /* \"#utility.yul\":10654:10666   */\n      revert\n        /* \"#utility.yul\":10605:10668   */\n    tag_324:\n        /* \"#utility.yul\":10552:10674   */\n      pop\n      jump\t// out\n        /* \"#utility.yul\":10680:10819   */\n    tag_186:\n        /* \"#utility.yul\":10726:10731   */\n      0x00\n        /* \"#utility.yul\":10764:10770   */\n      dup2\n        /* \"#utility.yul\":10751:10771   */\n      calldataload\n        /* \"#utility.yul\":10742:10771   */\n      swap1\n      pop\n        /* \"#utility.yul\":10780:10813   */\n      tag_326\n        /* \"#utility.yul\":10807:10812   */\n      dup2\n        /* \"#utility.yul\":10780:10813   */\n      tag_185\n      jump\t// in\n    tag_326:\n        /* \"#utility.yul\":10680:10819   */\n      swap3\n      swap2\n      pop\n      pop\n      jump\t// out\n        /* \"#utility.yul\":10825:11299   */\n    tag_50:\n        /* \"#utility.yul\":10893:10899   */\n      0x00\n        /* \"#utility.yul\":10901:10907   */\n      dup1\n        /* \"#utility.yul\":10950:10952   */\n      0x40\n        /* \"#utility.yul\":10938:10947   */\n      dup4\n        /* \"#utility.yul\":10929:10936   */\n      dup6\n        /* \"#utility.yul\":10925:10948   */\n      sub\n        /* \"#utility.yul\":10921:10953   */\n      slt\n        /* \"#utility.yul\":10918:11037   */\n      iszero\n      tag_328\n      jumpi\n        /* \"#utility.yul\":10956:11035   */\n      tag_329\n      tag_150\n      jump\t// in\n    tag_329:\n        /* \"#utility.yul\":10918:11037   */\n    tag_328:\n        /* \"#utility.yul\":11076:11077   */\n      0x00\n        /* \"#utility.yul\":11101:11154   */\n      tag_330\n        /* \"#utility.yul\":11146:11153   */\n      dup6\n        /* \"#utility.yul\":11137:11143   */\n      dup3\n        /* \"#utility.yul\":11126:11135   */\n      dup7\n        /* \"#utility.yul\":11122:11144   */\n      add\n        /* \"#utility.yul\":11101:11154   */\n      tag_186\n      jump\t// in\n    tag_330:\n        /* \"#utility.yul\":11091:11154   */\n      swap3\n      pop\n        /* \"#utility.yul\":11047:11164   */\n      pop\n        /* \"#utility.yul\":11203:11205   */\n      0x20\n        /* \"#utility.yul\":11229:11282   */\n      tag_331\n        /* \"#utility.yul\":11274:11281   */\n      dup6\n        /* \"#utility.yul\":11265:11271   */\n      dup3\n        /* \"#utility.yul\":11254:11263   */\n      dup7\n        /* \"#utility.yul\":11250:11272   */\n      add\n        /* \"#utility.yul\":11229:11282   */\n      tag_155\n      jump\t// in\n    tag_331:\n        /* \"#utility.yul\":11219:11282   */\n      swap2\n      pop\n        /* \"#utility.yul\":11174:11292   */\n      pop\n        /* \"#utility.yul\":10825:11299   */\n      swap3\n      pop\n      swap3\n      swap1\n      pop\n      jump\t// out\n        /* \"#utility.yul\":11305:11634   */\n    tag_54:\n        /* \"#utility.yul\":11364:11370   */\n      0x00\n        /* \"#utility.yul\":11413:11415   */\n      0x20\n        /* \"#utility.yul\":11401:11410   */\n      dup3\n        /* \"#utility.yul\":11392:11399   */\n      dup5\n        /* \"#utility.yul\":11388:11411   */\n      sub\n        /* \"#utility.yul\":11384:11416   */\n      slt\n        /* \"#utility.yul\":11381:11500   */\n      iszero\n      tag_333\n      jumpi\n        /* \"#utility.yul\":11419:11498   */\n      tag_334\n      tag_150\n      jump\t// in\n    tag_334:\n        /* \"#utility.yul\":11381:11500   */\n    tag_333:\n        /* \"#utility.yul\":11539:11540   */\n      0x00\n        /* \"#utility.yul\":11564:11617   */\n      tag_335\n        /* \"#utility.yul\":11609:11616   */\n      dup5\n        /* \"#utility.yul\":11600:11606   */\n      dup3\n        /* \"#utility.yul\":11589:11598   */\n      dup6\n        /* \"#utility.yul\":11585:11607   */\n      add\n        /* \"#utility.yul\":11564:11617   */\n      tag_186\n      jump\t// in\n    tag_335:\n        /* \"#utility.yul\":11554:11617   */\n      swap2\n      pop\n        /* \"#utility.yul\":11510:11627   */\n      pop\n        /* \"#utility.yul\":11305:11634   */\n      swap3\n      swap2\n      pop\n      pop\n      jump\t// out\n        /* \"#utility.yul\":11692:12823   */\n    tag_187:\n        /* \"#utility.yul\":11805:11808   */\n      0x00\n        /* \"#utility.yul\":11841:11845   */\n      0xa0\n        /* \"#utility.yul\":11836:11839   */\n      dup4\n        /* \"#utility.yul\":11832:11846   */\n      add\n        /* \"#utility.yul\":11926:11930   */\n      0x00\n        /* \"#utility.yul\":11919:11924   */\n      dup4\n        /* \"#utility.yul\":11915:11931   */\n      add\n        /* \"#utility.yul\":11909:11932   */\n      mload\n        /* \"#utility.yul\":11945:12008   */\n      tag_337\n        /* \"#utility.yul\":12002:12006   */\n      0x00\n        /* \"#utility.yul\":11997:12000   */\n      dup7\n        /* \"#utility.yul\":11993:12007   */\n      add\n        /* \"#utility.yul\":11979:11991   */\n      dup3\n        /* \"#utility.yul\":11945:12008   */\n      tag_160\n      jump\t// in\n    tag_337:\n        /* \"#utility.yul\":11856:12018   */\n      pop\n        /* \"#utility.yul\":12102:12106   */\n      0x20\n        /* \"#utility.yul\":12095:12100   */\n      dup4\n        /* \"#utility.yul\":12091:12107   */\n      add\n        /* \"#utility.yul\":12085:12108   */\n      mload\n        /* \"#utility.yul\":12121:12184   */\n      tag_338\n        /* \"#utility.yul\":12178:12182   */\n      0x20\n        /* \"#utility.yul\":12173:12176   */\n      dup7\n        /* \"#utility.yul\":12169:12183   */\n      add\n        /* \"#utility.yul\":12155:12167   */\n      dup3\n        /* \"#utility.yul\":12121:12184   */\n      tag_161\n      jump\t// in\n    tag_338:\n        /* \"#utility.yul\":12028:12194   */\n      pop\n        /* \"#utility.yul\":12279:12283   */\n      0x40\n        /* \"#utility.yul\":12272:12277   */\n      dup4\n        /* \"#utility.yul\":12268:12284   */\n      add\n        /* \"#utility.yul\":12262:12285   */\n      mload\n        /* \"#utility.yul\":12332:12335   */\n      dup5\n        /* \"#utility.yul\":12326:12330   */\n      dup3\n        /* \"#utility.yul\":12322:12336   */\n      sub\n        /* \"#utility.yul\":12315:12319   */\n      0x40\n        /* \"#utility.yul\":12310:12313   */\n      dup7\n        /* \"#utility.yul\":12306:12320   */\n      add\n        /* \"#utility.yul\":12299:12337   */\n      mstore\n        /* \"#utility.yul\":12358:12431   */\n      tag_339\n        /* \"#utility.yul\":12426:12430   */\n      dup3\n        /* \"#utility.yul\":12412:12424   */\n      dup3\n        /* \"#utility.yul\":12358:12431   */\n      tag_166\n      jump\t// in\n    tag_339:\n        /* \"#utility.yul\":12350:12431   */\n      swap2\n      pop\n        /* \"#utility.yul\":12204:12442   */\n      pop\n        /* \"#utility.yul\":12529:12533   */\n      0x60\n        /* \"#utility.yul\":12522:12527   */\n      dup4\n        /* \"#utility.yul\":12518:12534   */\n      add\n        /* \"#utility.yul\":12512:12535   */\n      mload\n        /* \"#utility.yul\":12548:12611   */\n      tag_340\n        /* \"#utility.yul\":12605:12609   */\n      0x60\n        /* \"#utility.yul\":12600:12603   */\n      dup7\n        /* \"#utility.yul\":12596:12610   */\n      add\n        /* \"#utility.yul\":12582:12594   */\n      dup3\n        /* \"#utility.yul\":12548:12611   */\n      tag_160\n      jump\t// in\n    tag_340:\n        /* \"#utility.yul\":12452:12621   */\n      pop\n        /* \"#utility.yul\":12704:12708   */\n      0x80\n        /* \"#utility.yul\":12697:12702   */\n      dup4\n        /* \"#utility.yul\":12693:12709   */\n      add\n        /* \"#utility.yul\":12687:12710   */\n      mload\n        /* \"#utility.yul\":12723:12786   */\n      tag_341\n        /* \"#utility.yul\":12780:12784   */\n      0x80\n        /* \"#utility.yul\":12775:12778   */\n      dup7\n        /* \"#utility.yul\":12771:12785   */\n      add\n        /* \"#utility.yul\":12757:12769   */\n      dup3\n        /* \"#utility.yul\":12723:12786   */\n      tag_160\n      jump\t// in\n    tag_341:\n        /* \"#utility.yul\":12631:12796   */\n      pop\n        /* \"#utility.yul\":12813:12817   */\n      dup1\n        /* \"#utility.yul\":12806:12817   */\n      swap2\n      pop\n        /* \"#utility.yul\":11810:12823   */\n      pop\n        /* \"#utility.yul\":11692:12823   */\n      swap3\n      swap2\n      pop\n      pop\n      jump\t// out\n        /* \"#utility.yul\":12829:13190   */\n    tag_57:\n        /* \"#utility.yul\":12966:12970   */\n      0x00\n        /* \"#utility.yul\":13004:13006   */\n      0x20\n        /* \"#utility.yul\":12993:13002   */\n      dup3\n        /* \"#utility.yul\":12989:13007   */\n      add\n        /* \"#utility.yul\":12981:13007   */\n      swap1\n      pop\n        /* \"#utility.yul\":13053:13062   */\n      dup2\n        /* \"#utility.yul\":13047:13051   */\n      dup2\n        /* \"#utility.yul\":13043:13063   */\n      sub\n        /* \"#utility.yul\":13039:13040   */\n      0x00\n        /* \"#utility.yul\":13028:13037   */\n      dup4\n        /* \"#utility.yul\":13024:13041   */\n      add\n        /* \"#utility.yul\":13017:13064   */\n      mstore\n        /* \"#utility.yul\":13081:13183   */\n      tag_343\n        /* \"#utility.yul\":13178:13182   */\n      dup2\n        /* \"#utility.yul\":13169:13175   */\n      dup5\n        /* \"#utility.yul\":13081:13183   */\n      tag_187\n      jump\t// in\n    tag_343:\n        /* \"#utility.yul\":13073:13183   */\n      swap1\n      pop\n        /* \"#utility.yul\":12829:13190   */\n      swap3\n      swap2\n      pop\n      pop\n      jump\t// out\n        /* \"#utility.yul\":13196:13376   */\n    tag_188:\n        /* \"#utility.yul\":13244:13321   */\n      0x4e487b7100000000000000000000000000000000000000000000000000000000\n        /* \"#utility.yul\":13241:13242   */\n      0x00\n        /* \"#utility.yul\":13234:13322   */\n      mstore\n        /* \"#utility.yul\":13341:13345   */\n      0x22\n        /* \"#utility.yul\":13338:13339   */\n      0x04\n        /* \"#utility.yul\":13331:13346   */\n      mstore\n        /* \"#utility.yul\":13365:13369   */\n      0x24\n        /* \"#utility.yul\":13362:13363   */\n      0x00\n        /* \"#utility.yul\":13355:13370   */\n      revert\n        /* \"#utility.yul\":13382:13702   */\n    tag_76:\n        /* \"#utility.yul\":13426:13432   */\n      0x00\n        /* \"#utility.yul\":13463:13464   */\n      0x02\n        /* \"#utility.yul\":13457:13461   */\n      dup3\n        /* \"#utility.yul\":13453:13465   */\n      div\n        /* \"#utility.yul\":13443:13465   */\n      swap1\n      pop\n        /* \"#utility.yul\":13510:13511   */\n      0x01\n        /* \"#utility.yul\":13504:13508   */\n      dup3\n        /* \"#utility.yul\":13500:13512   */\n      and\n        /* \"#utility.yul\":13531:13549   */\n      dup1\n        /* \"#utility.yul\":13521:13602   */\n      tag_346\n      jumpi\n        /* \"#utility.yul\":13587:13591   */\n      0x7f\n        /* \"#utility.yul\":13579:13585   */\n      dup3\n        /* \"#utility.yul\":13575:13592   */\n      and\n        /* \"#utility.yul\":13565:13592   */\n      swap2\n      pop\n        /* \"#utility.yul\":13521:13602   */\n    tag_346:\n        /* \"#utility.yul\":13649:13651   */\n      0x20\n        /* \"#utility.yul\":13641:13647   */\n      dup3\n        /* \"#utility.yul\":13638:13652   */\n      lt\n        /* \"#utility.yul\":13618:13636   */\n      dup2\n        /* \"#utility.yul\":13615:13653   */\n      sub\n        /* \"#utility.yul\":13612:13696   */\n      tag_347\n      jumpi\n        /* \"#utility.yul\":13668:13686   */\n      tag_348\n      tag_188\n      jump\t// in\n    tag_348:\n        /* \"#utility.yul\":13612:13696   */\n    tag_347:\n        /* \"#utility.yul\":13433:13702   */\n      pop\n        /* \"#utility.yul\":13382:13702   */\n      swap2\n      swap1\n      pop\n      jump\t// out\n        /* \"#utility.yul\":13708:13888   */\n    tag_83:\n        /* \"#utility.yul\":13756:13833   */\n      0x4e487b7100000000000000000000000000000000000000000000000000000000\n        /* \"#utility.yul\":13753:13754   */\n      0x00\n        /* \"#utility.yul\":13746:13834   */\n      mstore\n        /* \"#utility.yul\":13853:13857   */\n      0x32\n        /* \"#utility.yul\":13850:13851   */\n      0x04\n        /* \"#utility.yul\":13843:13858   */\n      mstore\n        /* \"#utility.yul\":13877:13881   */\n      0x24\n        /* \"#utility.yul\":13874:13875   */\n      0x00\n        /* \"#utility.yul\":13867:13882   */\n      revert\n        /* \"#utility.yul\":13894:14063   */\n    tag_189:\n        /* \"#utility.yul\":13978:13989   */\n      0x00\n        /* \"#utility.yul\":14012:14018   */\n      dup3\n        /* \"#utility.yul\":14007:14010   */\n      dup3\n        /* \"#utility.yul\":14000:14019   */\n      mstore\n        /* \"#utility.yul\":14052:14056   */\n      0x20\n        /* \"#utility.yul\":14047:14050   */\n      dup3\n        /* \"#utility.yul\":14043:14057   */\n      add\n        /* \"#utility.yul\":14028:14057   */\n      swap1\n      pop\n        /* \"#utility.yul\":13894:14063   */\n      swap3\n      swap2\n      pop\n      pop\n      jump\t// out\n        /* \"#utility.yul\":14069:14243   */\n    tag_190:\n        /* \"#utility.yul\":14209:14235   */\n      0x547765657420636f6e74656e74206973206c656e677468790000000000000000\n        /* \"#utility.yul\":14205:14206   */\n      0x00\n        /* \"#utility.yul\":14197:14203   */\n      dup3\n        /* \"#utility.yul\":14193:14207   */\n      add\n        /* \"#utility.yul\":14186:14236   */\n      mstore\n        /* \"#utility.yul\":14069:14243   */\n      pop\n      jump\t// out\n        /* \"#utility.yul\":14249:14615   */\n    tag_191:\n        /* \"#utility.yul\":14391:14394   */\n      0x00\n        /* \"#utility.yul\":14412:14479   */\n      tag_353\n        /* \"#utility.yul\":14476:14478   */\n      0x18\n        /* \"#utility.yul\":14471:14474   */\n      dup4\n        /* \"#utility.yul\":14412:14479   */\n      tag_189\n      jump\t// in\n    tag_353:\n        /* \"#utility.yul\":14405:14479   */\n      swap2\n      pop\n        /* \"#utility.yul\":14488:14581   */\n      tag_354\n        /* \"#utility.yul\":14577:14580   */\n      dup3\n        /* \"#utility.yul\":14488:14581   */\n      tag_190\n      jump\t// in\n    tag_354:\n        /* \"#utility.yul\":14606:14608   */\n      0x20\n        /* \"#utility.yul\":14601:14604   */\n      dup3\n        /* \"#utility.yul\":14597:14609   */\n      add\n        /* \"#utility.yul\":14590:14609   */\n      swap1\n      pop\n        /* \"#utility.yul\":14249:14615   */\n      swap2\n      swap1\n      pop\n      jump\t// out\n        /* \"#utility.yul\":14621:15040   */\n    tag_96:\n        /* \"#utility.yul\":14787:14791   */\n      0x00\n        /* \"#utility.yul\":14825:14827   */\n      0x20\n        /* \"#utility.yul\":14814:14823   */\n      dup3\n        /* \"#utility.yul\":14810:14828   */\n      add\n        /* \"#utility.yul\":14802:14828   */\n      swap1\n      pop\n        /* \"#utility.yul\":14874:14883   */\n      dup2\n        /* \"#utility.yul\":14868:14872   */\n      dup2\n        /* \"#utility.yul\":14864:14884   */\n      sub\n        /* \"#utility.yul\":14860:14861   */\n      0x00\n        /* \"#utility.yul\":14849:14858   */\n      dup4\n        /* \"#utility.yul\":14845:14862   */\n      add\n        /* \"#utility.yul\":14838:14885   */\n      mstore\n        /* \"#utility.yul\":14902:15033   */\n      tag_356\n        /* \"#utility.yul\":15028:15032   */\n      dup2\n        /* \"#utility.yul\":14902:15033   */\n      tag_191\n      jump\t// in\n    tag_356:\n        /* \"#utility.yul\":14894:15033   */\n      swap1\n      pop\n        /* \"#utility.yul\":14621:15040   */\n      swap2\n      swap1\n      pop\n      jump\t// out\n        /* \"#utility.yul\":15046:15187   */\n    tag_192:\n        /* \"#utility.yul\":15095:15099   */\n      0x00\n        /* \"#utility.yul\":15118:15121   */\n      dup2\n        /* \"#utility.yul\":15110:15121   */\n      swap1\n      pop\n        /* \"#utility.yul\":15141:15144   */\n      dup2\n        /* \"#utility.yul\":15138:15139   */\n      0x00\n        /* \"#utility.yul\":15131:15145   */\n      mstore\n        /* \"#utility.yul\":15175:15179   */\n      0x20\n        /* \"#utility.yul\":15172:15173   */\n      0x00\n        /* \"#utility.yul\":15162:15180   */\n      keccak256\n        /* \"#utility.yul\":15154:15180   */\n      swap1\n      pop\n        /* \"#utility.yul\":15046:15187   */\n      swap2\n      swap1\n      pop\n      jump\t// out\n        /* \"#utility.yul\":15193:15286   */\n    tag_193:\n        /* \"#utility.yul\":15230:15236   */\n      0x00\n        /* \"#utility.yul\":15277:15279   */\n      0x20\n        /* \"#utility.yul\":15272:15274   */\n      0x1f\n        /* \"#utility.yul\":15265:15270   */\n      dup4\n        /* \"#utility.yul\":15261:15275   */\n      add\n        /* \"#utility.yul\":15257:15280   */\n      div\n        /* \"#utility.yul\":15247:15280   */\n      swap1\n      pop\n        /* \"#utility.yul\":15193:15286   */\n      swap2\n      swap1\n      pop\n      jump\t// out\n        /* \"#utility.yul\":15292:15399   */\n    tag_194:\n        /* \"#utility.yul\":15336:15344   */\n      0x00\n        /* \"#utility.yul\":15386:15391   */\n      dup3\n        /* \"#utility.yul\":15380:15384   */\n      dup3\n        /* \"#utility.yul\":15376:15392   */\n      shl\n        /* \"#utility.yul\":15355:15392   */\n      swap1\n      pop\n        /* \"#utility.yul\":15292:15399   */\n      swap3\n      swap2\n      pop\n      pop\n      jump\t// out\n        /* \"#utility.yul\":15405:15798   */\n    tag_195:\n        /* \"#utility.yul\":15474:15480   */\n      0x00\n        /* \"#utility.yul\":15524:15525   */\n      0x08\n        /* \"#utility.yul\":15512:15522   */\n      dup4\n        /* \"#utility.yul\":15508:15526   */\n      mul\n        /* \"#utility.yul\":15547:15644   */\n      tag_361\n        /* \"#utility.yul\":15577:15643   */\n      0xffffffffffffffffffffffffffffffffffffffffffffffffffffffffffffffff\n        /* \"#utility.yul\":15566:15575   */\n      dup3\n        /* \"#utility.yul\":15547:15644   */\n      tag_194\n      jump\t// in\n    tag_361:\n        /* \"#utility.yul\":15665:15704   */\n      tag_362\n        /* \"#utility.yul\":15695:15703   */\n      dup7\n        /* \"#utility.yul\":15684:15693   */\n      dup4\n        /* \"#utility.yul\":15665:15704   */\n      tag_194\n      jump\t// in\n    tag_362:\n        /* \"#utility.yul\":15653:15704   */\n      swap6\n      pop\n        /* \"#utility.yul\":15737:15741   */\n      dup1\n        /* \"#utility.yul\":15733:15742   */\n      not\n        /* \"#utility.yul\":15726:15731   */\n      dup5\n        /* \"#utility.yul\":15722:15743   */\n      and\n        /* \"#utility.yul\":15713:15743   */\n      swap4\n      pop\n        /* \"#utility.yul\":15786:15790   */\n      dup1\n        /* \"#utility.yul\":15776:15784   */\n      dup7\n        /* \"#utility.yul\":15772:15791   */\n      and\n        /* \"#utility.yul\":15765:15770   */\n      dup5\n        /* \"#utility.yul\":15762:15792   */\n      or\n        /* \"#utility.yul\":15752:15792   */\n      swap3\n      pop\n        /* \"#utility.yul\":15481:15798   */\n      pop\n      pop\n        /* \"#utility.yul\":15405:15798   */\n      swap4\n      swap3\n      pop\n      pop\n      pop\n      jump\t// out\n        /* \"#utility.yul\":15804:15864   */\n    tag_196:\n        /* \"#utility.yul\":15832:15835   */\n      0x00\n        /* \"#utility.yul\":15853:15858   */\n      dup2\n        /* \"#utility.yul\":15846:15858   */\n      swap1\n      pop\n        /* \"#utility.yul\":15804:15864   */\n      swap2\n      swap1\n      pop\n      jump\t// out\n        /* \"#utility.yul\":15870:16012   */\n    tag_197:\n        /* \"#utility.yul\":15920:15929   */\n      0x00\n        /* \"#utility.yul\":15953:16006   */\n      tag_365\n        /* \"#utility.yul\":15971:16005   */\n      tag_366\n        /* \"#utility.yul\":15980:16004   */\n      tag_367\n        /* \"#utility.yul\":15998:16003   */\n      dup5\n        /* \"#utility.yul\":15980:16004   */\n      tag_159\n      jump\t// in\n    tag_367:\n        /* \"#utility.yul\":15971:16005   */\n      tag_196\n      jump\t// in\n    tag_366:\n        /* \"#utility.yul\":15953:16006   */\n      tag_159\n      jump\t// in\n    tag_365:\n        /* \"#utility.yul\":15940:16006   */\n      swap1\n      pop\n        /* \"#utility.yul\":15870:16012   */\n      swap2\n      swap1\n      pop\n      jump\t// out\n        /* \"#utility.yul\":16018:16093   */\n    tag_198:\n        /* \"#utility.yul\":16061:16064   */\n      0x00\n        /* \"#utility.yul\":16082:16087   */\n      dup2\n        /* \"#utility.yul\":16075:16087   */\n      swap1\n      pop\n        /* \"#utility.yul\":16018:16093   */\n      swap2\n      swap1\n      pop\n      jump\t// out\n        /* \"#utility.yul\":16099:16368   */\n    tag_199:\n        /* \"#utility.yul\":16209:16248   */\n      tag_370\n        /* \"#utility.yul\":16240:16247   */\n      dup4\n        /* \"#utility.yul\":16209:16248   */\n      tag_197\n      jump\t// in\n    tag_370:\n        /* \"#utility.yul\":16270:16361   */\n      tag_371\n        /* \"#utility.yul\":16319:16360   */\n      tag_372\n        /* \"#utility.yul\":16343:16359   */\n      dup3\n        /* \"#utility.yul\":16319:16360   */\n      tag_198\n      jump\t// in\n    tag_372:\n        /* \"#utility.yul\":16311:16317   */\n      dup5\n        /* \"#utility.yul\":16304:16308   */\n      dup5\n        /* \"#utility.yul\":16298:16309   */\n      sload\n        /* \"#utility.yul\":16270:16361   */\n      tag_195\n      jump\t// in\n    tag_371:\n        /* \"#utility.yul\":16264:16268   */\n      dup3\n        /* \"#utility.yul\":16257:16362   */\n      sstore\n        /* \"#utility.yul\":16175:16368   */\n      pop\n        /* \"#utility.yul\":16099:16368   */\n      pop\n      pop\n      pop\n      jump\t// out\n        /* \"#utility.yul\":16374:16447   */\n    tag_200:\n        /* \"#utility.yul\":16419:16422   */\n      0x00\n        /* \"#utility.yul\":16374:16447   */\n      swap1\n      jump\t// out\n        /* \"#utility.yul\":16453:16642   */\n    tag_201:\n        /* \"#utility.yul\":16530:16562   */\n      tag_375\n      tag_200\n      jump\t// in\n    tag_375:\n        /* \"#utility.yul\":16571:16636   */\n      tag_376\n        /* \"#utility.yul\":16629:16635   */\n      dup2\n        /* \"#utility.yul\":16621:16627   */\n      dup5\n        /* \"#utility.yul\":16615:16619   */\n      dup5\n        /* \"#utility.yul\":16571:16636   */\n      tag_199\n      jump\t// in\n    tag_376:\n        /* \"#utility.yul\":16506:16642   */\n      pop\n        /* \"#utility.yul\":16453:16642   */\n      pop\n      pop\n      jump\t// out\n        /* \"#utility.yul\":16648:16834   */\n    tag_202:\n        /* \"#utility.yul\":16708:16828   */\n    tag_378:\n        /* \"#utility.yul\":16725:16728   */\n      dup2\n        /* \"#utility.yul\":16718:16723   */\n      dup2\n        /* \"#utility.yul\":16715:16729   */\n      lt\n        /* \"#utility.yul\":16708:16828   */\n      iszero\n      tag_380\n      jumpi\n        /* \"#utility.yul\":16779:16818   */\n      tag_381\n        /* \"#utility.yul\":16816:16817   */\n      0x00\n        /* \"#utility.yul\":16809:16814   */\n      dup3\n        /* \"#utility.yul\":16779:16818   */\n      tag_201\n      jump\t// in\n    tag_381:\n        /* \"#utility.yul\":16752:16753   */\n      0x01\n        /* \"#utility.yul\":16745:16750   */\n      dup2\n        /* \"#utility.yul\":16741:16754   */\n      add\n        /* \"#utility.yul\":16732:16754   */\n      swap1\n      pop\n        /* \"#utility.yul\":16708:16828   */\n      jump(tag_378)\n    tag_380:\n        /* \"#utility.yul\":16648:16834   */\n      pop\n      pop\n      jump\t// out\n        /* \"#utility.yul\":16840:17383   */\n    tag_203:\n        /* \"#utility.yul\":16941:16943   */\n      0x1f\n        /* \"#utility.yul\":16936:16939   */\n      dup3\n        /* \"#utility.yul\":16933:16944   */\n      gt\n        /* \"#utility.yul\":16930:17376   */\n      iszero\n      tag_383\n      jumpi\n        /* \"#utility.yul\":16975:17013   */\n      tag_384\n        /* \"#utility.yul\":17007:17012   */\n      dup2\n        /* \"#utility.yul\":16975:17013   */\n      tag_192\n      jump\t// in\n    tag_384:\n        /* \"#utility.yul\":17059:17088   */\n      tag_385\n        /* \"#utility.yul\":17077:17087   */\n      dup5\n        /* \"#utility.yul\":17059:17088   */\n      tag_193\n      jump\t// in\n    tag_385:\n        /* \"#utility.yul\":17049:17057   */\n      dup2\n        /* \"#utility.yul\":17045:17089   */\n      add\n        /* \"#utility.yul\":17242:17244   */\n      0x20\n        /* \"#utility.yul\":17230:17240   */\n      dup6\n        /* \"#utility.yul\":17227:17245   */\n      lt\n        /* \"#utility.yul\":17224:17273   */\n      iszero\n      tag_386\n      jumpi\n        /* \"#utility.yul\":17263:17271   */\n      dup2\n        /* \"#utility.yul\":17248:17271   */\n      swap1\n      pop\n        /* \"#utility.yul\":17224:17273   */\n    tag_386:\n        /* \"#utility.yul\":17286:17366   */\n      tag_387\n        /* \"#utility.yul\":17342:17364   */\n      tag_388\n        /* \"#utility.yul\":17360:17363   */\n      dup6\n        /* \"#utility.yul\":17342:17364   */\n      tag_193\n      jump\t// in\n    tag_388:\n        /* \"#utility.yul\":17332:17340   */\n      dup4\n        /* \"#utility.yul\":17328:17365   */\n      add\n        /* \"#utility.yul\":17315:17326   */\n      dup3\n        /* \"#utility.yul\":17286:17366   */\n      tag_202\n      jump\t// in\n    tag_387:\n        /* \"#utility.yul\":16945:17376   */\n      pop\n      pop\n        /* \"#utility.yul\":16930:17376   */\n    tag_383:\n        /* \"#utility.yul\":16840:17383   */\n      pop\n      pop\n      pop\n      jump\t// out\n        /* \"#utility.yul\":17389:17506   */\n    tag_204:\n        /* \"#utility.yul\":17443:17451   */\n      0x00\n        /* \"#utility.yul\":17493:17498   */\n      dup3\n        /* \"#utility.yul\":17487:17491   */\n      dup3\n        /* \"#utility.yul\":17483:17499   */\n      shr\n        /* \"#utility.yul\":17462:17499   */\n      swap1\n      pop\n        /* \"#utility.yul\":17389:17506   */\n      swap3\n      swap2\n      pop\n      pop\n      jump\t// out\n        /* \"#utility.yul\":17512:17681   */\n    tag_205:\n        /* \"#utility.yul\":17556:17562   */\n      0x00\n        /* \"#utility.yul\":17589:17640   */\n      tag_391\n        /* \"#utility.yul\":17637:17638   */\n      0x00\n        /* \"#utility.yul\":17633:17639   */\n      not\n        /* \"#utility.yul\":17625:17630   */\n      dup5\n        /* \"#utility.yul\":17622:17623   */\n      0x08\n        /* \"#utility.yul\":17618:17631   */\n      mul\n        /* \"#utility.yul\":17589:17640   */\n      tag_204\n      jump\t// in\n    tag_391:\n        /* \"#utility.yul\":17585:17641   */\n      not\n        /* \"#utility.yul\":17670:17674   */\n      dup1\n        /* \"#utility.yul\":17664:17668   */\n      dup4\n        /* \"#utility.yul\":17660:17675   */\n      and\n        /* \"#utility.yul\":17650:17675   */\n      swap2\n      pop\n        /* \"#utility.yul\":17563:17681   */\n      pop\n        /* \"#utility.yul\":17512:17681   */\n      swap3\n      swap2\n      pop\n      pop\n      jump\t// out\n        /* \"#utility.yul\":17686:17981   */\n    tag_206:\n        /* \"#utility.yul\":17762:17766   */\n      0x00\n        /* \"#utility.yul\":17908:17937   */\n      tag_393\n        /* \"#utility.yul\":17933:17936   */\n      dup4\n        /* \"#utility.yul\":17927:17931   */\n      dup4\n        /* \"#utility.yul\":17908:17937   */\n      tag_205\n      jump\t// in\n    tag_393:\n        /* \"#utility.yul\":17900:17937   */\n      swap2\n      pop\n        /* \"#utility.yul\":17970:17973   */\n      dup3\n        /* \"#utility.yul\":17967:17968   */\n      0x02\n        /* \"#utility.yul\":17963:17974   */\n      mul\n        /* \"#utility.yul\":17957:17961   */\n      dup3\n        /* \"#utility.yul\":17954:17975   */\n      or\n        /* \"#utility.yul\":17946:17975   */\n      swap1\n      pop\n        /* \"#utility.yul\":17686:17981   */\n      swap3\n      swap2\n      pop\n      pop\n      jump\t// out\n        /* \"#utility.yul\":17986:19381   */\n    tag_98:\n        /* \"#utility.yul\":18103:18140   */\n      tag_395\n        /* \"#utility.yul\":18136:18139   */\n      dup3\n        /* \"#utility.yul\":18103:18140   */\n      tag_162\n      jump\t// in\n    tag_395:\n        /* \"#utility.yul\":18205:18223   */\n      0xffffffffffffffff\n        /* \"#utility.yul\":18197:18203   */\n      dup2\n        /* \"#utility.yul\":18194:18224   */\n      gt\n        /* \"#utility.yul\":18191:18247   */\n      iszero\n      tag_396\n      jumpi\n        /* \"#utility.yul\":18227:18245   */\n      tag_397\n      tag_67\n      jump\t// in\n    tag_397:\n        /* \"#utility.yul\":18191:18247   */\n    tag_396:\n        /* \"#utility.yul\":18271:18309   */\n      tag_398\n        /* \"#utility.yul\":18303:18307   */\n      dup3\n        /* \"#utility.yul\":18297:18308   */\n      sload\n        /* \"#utility.yul\":18271:18309   */\n      tag_76\n      jump\t// in\n    tag_398:\n        /* \"#utility.yul\":18356:18423   */\n      tag_399\n        /* \"#utility.yul\":18416:18422   */\n      dup3\n        /* \"#utility.yul\":18408:18414   */\n      dup3\n        /* \"#utility.yul\":18402:18406   */\n      dup6\n        /* \"#utility.yul\":18356:18423   */\n      tag_203\n      jump\t// in\n    tag_399:\n        /* \"#utility.yul\":18450:18451   */\n      0x00\n        /* \"#utility.yul\":18474:18478   */\n      0x20\n        /* \"#utility.yul\":18461:18478   */\n      swap1\n      pop\n        /* \"#utility.yul\":18506:18508   */\n      0x1f\n        /* \"#utility.yul\":18498:18504   */\n      dup4\n        /* \"#utility.yul\":18495:18509   */\n      gt\n        /* \"#utility.yul\":18523:18524   */\n      0x01\n        /* \"#utility.yul\":18518:19136   */\n      dup2\n      eq\n      tag_401\n      jumpi\n        /* \"#utility.yul\":19180:19181   */\n      0x00\n        /* \"#utility.yul\":19197:19203   */\n      dup5\n        /* \"#utility.yul\":19194:19271   */\n      iszero\n      tag_402\n      jumpi\n        /* \"#utility.yul\":19246:19255   */\n      dup3\n        /* \"#utility.yul\":19241:19244   */\n      dup8\n        /* \"#utility.yul\":19237:19256   */\n      add\n        /* \"#utility.yul\":19231:19257   */\n      mload\n        /* \"#utility.yul\":19222:19257   */\n      swap1\n      pop\n        /* \"#utility.yul\":19194:19271   */\n    tag_402:\n        /* \"#utility.yul\":19297:19364   */\n      tag_403\n        /* \"#utility.yul\":19357:19363   */\n      dup6\n        /* \"#utility.yul\":19350:19355   */\n      dup3\n        /* \"#utility.yul\":19297:19364   */\n      tag_206\n      jump\t// in\n    tag_403:\n        /* \"#utility.yul\":19291:19295   */\n      dup7\n        /* \"#utility.yul\":19284:19365   */\n      sstore\n        /* \"#utility.yul\":19153:19375   */\n      pop\n        /* \"#utility.yul\":18488:19375   */\n      jump(tag_400)\n        /* \"#utility.yul\":18518:19136   */\n    tag_401:\n        /* \"#utility.yul\":18570:18574   */\n      0x1f\n        /* \"#utility.yul\":18566:18575   */\n      not\n        /* \"#utility.yul\":18558:18564   */\n      dup5\n        /* \"#utility.yul\":18554:18576   */\n      and\n        /* \"#utility.yul\":18604:18641   */\n      tag_404\n        /* \"#utility.yul\":18636:18640   */\n      dup7\n        /* \"#utility.yul\":18604:18641   */\n      tag_192\n      jump\t// in\n    tag_404:\n        /* \"#utility.yul\":18663:18664   */\n      0x00\n        /* \"#utility.yul\":18677:18885   */\n    tag_405:\n        /* \"#utility.yul\":18691:18698   */\n      dup3\n        /* \"#utility.yul\":18688:18689   */\n      dup2\n        /* \"#utility.yul\":18685:18699   */\n      lt\n        /* \"#utility.yul\":18677:18885   */\n      iszero\n      tag_407\n      jumpi\n        /* \"#utility.yul\":18770:18779   */\n      dup5\n        /* \"#utility.yul\":18765:18768   */\n      dup10\n        /* \"#utility.yul\":18761:18780   */\n      add\n        /* \"#utility.yul\":18755:18781   */\n      mload\n        /* \"#utility.yul\":18747:18753   */\n      dup3\n        /* \"#utility.yul\":18740:18782   */\n      sstore\n        /* \"#utility.yul\":18821:18822   */\n      0x01\n        /* \"#utility.yul\":18813:18819   */\n      dup3\n        /* \"#utility.yul\":18809:18823   */\n      add\n        /* \"#utility.yul\":18799:18823   */\n      swap2\n      pop\n        /* \"#utility.yul\":18868:18870   */\n      0x20\n        /* \"#utility.yul\":18857:18866   */\n      dup6\n        /* \"#utility.yul\":18853:18871   */\n      add\n        /* \"#utility.yul\":18840:18871   */\n      swap5\n      pop\n        /* \"#utility.yul\":18714:18718   */\n      0x20\n        /* \"#utility.yul\":18711:18712   */\n      dup2\n        /* \"#utility.yul\":18707:18719   */\n      add\n        /* \"#utility.yul\":18702:18719   */\n      swap1\n      pop\n        /* \"#utility.yul\":18677:18885   */\n      jump(tag_405)\n    tag_407:\n        /* \"#utility.yul\":18913:18919   */\n      dup7\n        /* \"#utility.yul\":18904:18911   */\n      dup4\n        /* \"#utility.yul\":18901:18920   */\n      lt\n        /* \"#utility.yul\":18898:19077   */\n      iszero\n      tag_408\n      jumpi\n        /* \"#utility.yul\":18971:18980   */\n      dup5\n        /* \"#utility.yul\":18966:18969   */\n      dup10\n        /* \"#utility.yul\":18962:18981   */\n      add\n        /* \"#utility.yul\":18956:18982   */\n      mload\n        /* \"#utility.yul\":19014:19062   */\n      tag_409\n        /* \"#utility.yul\":19056:19060   */\n      0x1f\n        /* \"#utility.yul\":19048:19054   */\n      dup10\n        /* \"#utility.yul\":19044:19061   */\n      and\n        /* \"#utility.yul\":19033:19042   */\n      dup3\n        /* \"#utility.yul\":19014:19062   */\n      tag_205\n      jump\t// in\n    tag_409:\n        /* \"#utility.yul\":19006:19012   */\n      dup4\n        /* \"#utility.yul\":18999:19063   */\n      sstore\n        /* \"#utility.yul\":18921:19077   */\n      pop\n        /* \"#utility.yul\":18898:19077   */\n    tag_408:\n        /* \"#utility.yul\":19123:19124   */\n      0x01\n        /* \"#utility.yul\":19119:19120   */\n      0x02\n        /* \"#utility.yul\":19111:19117   */\n      dup9\n        /* \"#utility.yul\":19107:19121   */\n      mul\n        /* \"#utility.yul\":19103:19125   */\n      add\n        /* \"#utility.yul\":19097:19101   */\n      dup9\n        /* \"#utility.yul\":19090:19126   */\n      sstore\n        /* \"#utility.yul\":18525:19136   */\n      pop\n      pop\n      pop\n        /* \"#utility.yul\":18488:19375   */\n    tag_400:\n      pop\n        /* \"#utility.yul\":18078:19381   */\n      pop\n      pop\n      pop\n        /* \"#utility.yul\":17986:19381   */\n      pop\n      pop\n      jump\t// out\n        /* \"#utility.yul\":19387:19764   */\n    tag_207:\n        /* \"#utility.yul\":19475:19478   */\n      0x00\n        /* \"#utility.yul\":19503:19542   */\n      tag_411\n        /* \"#utility.yul\":19536:19541   */\n      dup3\n        /* \"#utility.yul\":19503:19542   */\n      tag_162\n      jump\t// in\n    tag_411:\n        /* \"#utility.yul\":19558:19629   */\n      tag_412\n        /* \"#utility.yul\":19622:19628   */\n      dup2\n        /* \"#utility.yul\":19617:19620   */\n      dup6\n        /* \"#utility.yul\":19558:19629   */\n      tag_189\n      jump\t// in\n    tag_412:\n        /* \"#utility.yul\":19551:19629   */\n      swap4\n      pop\n        /* \"#utility.yul\":19638:19703   */\n      tag_413\n        /* \"#utility.yul\":19696:19702   */\n      dup2\n        /* \"#utility.yul\":19691:19694   */\n      dup6\n        /* \"#utility.yul\":19684:19688   */\n      0x20\n        /* \"#utility.yul\":19677:19682   */\n      dup7\n        /* \"#utility.yul\":19673:19689   */\n      add\n        /* \"#utility.yul\":19638:19703   */\n      tag_164\n      jump\t// in\n    tag_413:\n        /* \"#utility.yul\":19728:19757   */\n      tag_414\n        /* \"#utility.yul\":19750:19756   */\n      dup2\n        /* \"#utility.yul\":19728:19757   */\n      tag_165\n      jump\t// in\n    tag_414:\n        /* \"#utility.yul\":19723:19726   */\n      dup5\n        /* \"#utility.yul\":19719:19758   */\n      add\n        /* \"#utility.yul\":19712:19758   */\n      swap2\n      pop\n        /* \"#utility.yul\":19479:19764   */\n      pop\n        /* \"#utility.yul\":19387:19764   */\n      swap3\n      swap2\n      pop\n      pop\n      jump\t// out\n        /* \"#utility.yul\":19770:20414   */\n    tag_100:\n        /* \"#utility.yul\":19967:19971   */\n      0x00\n        /* \"#utility.yul\":20005:20008   */\n      0x80\n        /* \"#utility.yul\":19994:20003   */\n      dup3\n        /* \"#utility.yul\":19990:20009   */\n      add\n        /* \"#utility.yul\":19982:20009   */\n      swap1\n      pop\n        /* \"#utility.yul\":20019:20090   */\n      tag_416\n        /* \"#utility.yul\":20087:20088   */\n      0x00\n        /* \"#utility.yul\":20076:20085   */\n      dup4\n        /* \"#utility.yul\":20072:20089   */\n      add\n        /* \"#utility.yul\":20063:20069   */\n      dup8\n        /* \"#utility.yul\":20019:20090   */\n      tag_183\n      jump\t// in\n    tag_416:\n        /* \"#utility.yul\":20100:20172   */\n      tag_417\n        /* \"#utility.yul\":20168:20170   */\n      0x20\n        /* \"#utility.yul\":20157:20166   */\n      dup4\n        /* \"#utility.yul\":20153:20171   */\n      add\n        /* \"#utility.yul\":20144:20150   */\n      dup7\n        /* \"#utility.yul\":20100:20172   */\n      tag_184\n      jump\t// in\n    tag_417:\n        /* \"#utility.yul\":20219:20228   */\n      dup2\n        /* \"#utility.yul\":20213:20217   */\n      dup2\n        /* \"#utility.yul\":20209:20229   */\n      sub\n        /* \"#utility.yul\":20204:20206   */\n      0x40\n        /* \"#utility.yul\":20193:20202   */\n      dup4\n        /* \"#utility.yul\":20189:20207   */\n      add\n        /* \"#utility.yul\":20182:20230   */\n      mstore\n        /* \"#utility.yul\":20247:20325   */\n      tag_418\n        /* \"#utility.yul\":20320:20324   */\n      dup2\n        /* \"#utility.yul\":20311:20317   */\n      dup6\n        /* \"#utility.yul\":20247:20325   */\n      tag_207\n      jump\t// in\n    tag_418:\n        /* \"#utility.yul\":20239:20325   */\n      swap1\n      pop\n        /* \"#utility.yul\":20335:20407   */\n      tag_419\n        /* \"#utility.yul\":20403:20405   */\n      0x60\n        /* \"#utility.yul\":20392:20401   */\n      dup4\n        /* \"#utility.yul\":20388:20406   */\n      add\n        /* \"#utility.yul\":20379:20385   */\n      dup5\n        /* \"#utility.yul\":20335:20407   */\n      tag_183\n      jump\t// in\n    tag_419:\n        /* \"#utility.yul\":19770:20414   */\n      swap6\n      swap5\n      pop\n      pop\n      pop\n      pop\n      pop\n      jump\t// out\n        /* \"#utility.yul\":20420:20600   */\n    tag_208:\n        /* \"#utility.yul\":20468:20545   */\n      0x4e487b7100000000000000000000000000000000000000000000000000000000\n        /* \"#utility.yul\":20465:20466   */\n      0x00\n        /* \"#utility.yul\":20458:20546   */\n      mstore\n        /* \"#utility.yul\":20565:20569   */\n      0x11\n        /* \"#utility.yul\":20562:20563   */\n      0x04\n        /* \"#utility.yul\":20555:20570   */\n      mstore\n        /* \"#utility.yul\":20589:20593   */\n      0x24\n        /* \"#utility.yul\":20586:20587   */\n      0x00\n        /* \"#utility.yul\":20579:20594   */\n      revert\n        /* \"#utility.yul\":20606:20839   */\n    tag_102:\n        /* \"#utility.yul\":20645:20648   */\n      0x00\n        /* \"#utility.yul\":20668:20692   */\n      tag_422\n        /* \"#utility.yul\":20686:20691   */\n      dup3\n        /* \"#utility.yul\":20668:20692   */\n      tag_159\n      jump\t// in\n    tag_422:\n        /* \"#utility.yul\":20659:20692   */\n      swap2\n      pop\n        /* \"#utility.yul\":20714:20780   */\n      0xffffffffffffffffffffffffffffffffffffffffffffffffffffffffffffffff\n        /* \"#utility.yul\":20707:20712   */\n      dup3\n        /* \"#utility.yul\":20704:20781   */\n      sub\n        /* \"#utility.yul\":20701:20804   */\n      tag_423\n      jumpi\n        /* \"#utility.yul\":20784:20802   */\n      tag_424\n      tag_208\n      jump\t// in\n    tag_424:\n        /* \"#utility.yul\":20701:20804   */\n    tag_423:\n        /* \"#utility.yul\":20831:20832   */\n      0x01\n        /* \"#utility.yul\":20824:20829   */\n      dup3\n        /* \"#utility.yul\":20820:20833   */\n      add\n        /* \"#utility.yul\":20813:20833   */\n      swap1\n      pop\n        /* \"#utility.yul\":20606:20839   */\n      swap2\n      swap1\n      pop\n      jump\t// out\n        /* \"#utility.yul\":20845:21036   */\n    tag_109:\n        /* \"#utility.yul\":20885:20888   */\n      0x00\n        /* \"#utility.yul\":20904:20924   */\n      tag_426\n        /* \"#utility.yul\":20922:20923   */\n      dup3\n        /* \"#utility.yul\":20904:20924   */\n      tag_159\n      jump\t// in\n    tag_426:\n        /* \"#utility.yul\":20899:20924   */\n      swap2\n      pop\n        /* \"#utility.yul\":20938:20958   */\n      tag_427\n        /* \"#utility.yul\":20956:20957   */\n      dup4\n        /* \"#utility.yul\":20938:20958   */\n      tag_159\n      jump\t// in\n    tag_427:\n        /* \"#utility.yul\":20933:20958   */\n      swap3\n      pop\n        /* \"#utility.yul\":20981:20982   */\n      dup3\n        /* \"#utility.yul\":20978:20979   */\n      dup3\n        /* \"#utility.yul\":20974:20983   */\n      add\n        /* \"#utility.yul\":20967:20983   */\n      swap1\n      pop\n        /* \"#utility.yul\":21002:21005   */\n      dup1\n        /* \"#utility.yul\":20999:21000   */\n      dup3\n        /* \"#utility.yul\":20996:21006   */\n      gt\n        /* \"#utility.yul\":20993:21029   */\n      iszero\n      tag_428\n      jumpi\n        /* \"#utility.yul\":21009:21027   */\n      tag_429\n      tag_208\n      jump\t// in\n    tag_429:\n        /* \"#utility.yul\":20993:21029   */\n    tag_428:\n        /* \"#utility.yul\":20845:21036   */\n      swap3\n      swap2\n      pop\n      pop\n      jump\t// out\n        /* \"#utility.yul\":21042:21216   */\n    tag_209:\n        /* \"#utility.yul\":21182:21208   */\n      0x4c696b65732068617665206e6f74206164646564207965740000000000000000\n        /* \"#utility.yul\":21178:21179   */\n      0x00\n        /* \"#utility.yul\":21170:21176   */\n      dup3\n        /* \"#utility.yul\":21166:21180   */\n      add\n        /* \"#utility.yul\":21159:21209   */\n      mstore\n        /* \"#utility.yul\":21042:21216   */\n      pop\n      jump\t// out\n        /* \"#utility.yul\":21222:21588   */\n    tag_210:\n        /* \"#utility.yul\":21364:21367   */\n      0x00\n        /* \"#utility.yul\":21385:21452   */\n      tag_432\n        /* \"#utility.yul\":21449:21451   */\n      0x18\n        /* \"#utility.yul\":21444:21447   */\n      dup4\n        /* \"#utility.yul\":21385:21452   */\n      tag_189\n      jump\t// in\n    tag_432:\n        /* \"#utility.yul\":21378:21452   */\n      swap2\n      pop\n        /* \"#utility.yul\":21461:21554   */\n      tag_433\n        /* \"#utility.yul\":21550:21553   */\n      dup3\n        /* \"#utility.yul\":21461:21554   */\n      tag_209\n      jump\t// in\n    tag_433:\n        /* \"#utility.yul\":21579:21581   */\n      0x20\n        /* \"#utility.yul\":21574:21577   */\n      dup3\n        /* \"#utility.yul\":21570:21582   */\n      add\n        /* \"#utility.yul\":21563:21582   */\n      swap1\n      pop\n        /* \"#utility.yul\":21222:21588   */\n      swap2\n      swap1\n      pop\n      jump\t// out\n        /* \"#utility.yul\":21594:22013   */\n    tag_116:\n        /* \"#utility.yul\":21760:21764   */\n      0x00\n        /* \"#utility.yul\":21798:21800   */\n      0x20\n        /* \"#utility.yul\":21787:21796   */\n      dup3\n        /* \"#utility.yul\":21783:21801   */\n      add\n        /* \"#utility.yul\":21775:21801   */\n      swap1\n      pop\n        /* \"#utility.yul\":21847:21856   */\n      dup2\n        /* \"#utility.yul\":21841:21845   */\n      dup2\n        /* \"#utility.yul\":21837:21857   */\n      sub\n        /* \"#utility.yul\":21833:21834   */\n      0x00\n        /* \"#utility.yul\":21822:21831   */\n      dup4\n        /* \"#utility.yul\":21818:21835   */\n      add\n        /* \"#utility.yul\":21811:21858   */\n      mstore\n        /* \"#utility.yul\":21875:22006   */\n      tag_435\n        /* \"#utility.yul\":22001:22005   */\n      dup2\n        /* \"#utility.yul\":21875:22006   */\n      tag_210\n      jump\t// in\n    tag_435:\n        /* \"#utility.yul\":21867:22006   */\n      swap1\n      pop\n        /* \"#utility.yul\":21594:22013   */\n      swap2\n      swap1\n      pop\n      jump\t// out\n        /* \"#utility.yul\":22019:22190   */\n    tag_118:\n        /* \"#utility.yul\":22058:22061   */\n      0x00\n        /* \"#utility.yul\":22081:22105   */\n      tag_437\n        /* \"#utility.yul\":22099:22104   */\n      dup3\n        /* \"#utility.yul\":22081:22105   */\n      tag_159\n      jump\t// in\n    tag_437:\n        /* \"#utility.yul\":22072:22105   */\n      swap2\n      pop\n        /* \"#utility.yul\":22127:22131   */\n      0x00\n        /* \"#utility.yul\":22120:22125   */\n      dup3\n        /* \"#utility.yul\":22117:22132   */\n      sub\n        /* \"#utility.yul\":22114:22155   */\n      tag_438\n      jumpi\n        /* \"#utility.yul\":22135:22153   */\n      tag_439\n      tag_208\n      jump\t// in\n    tag_439:\n        /* \"#utility.yul\":22114:22155   */\n    tag_438:\n        /* \"#utility.yul\":22182:22183   */\n      0x01\n        /* \"#utility.yul\":22175:22180   */\n      dup3\n        /* \"#utility.yul\":22171:22184   */\n      sub\n        /* \"#utility.yul\":22164:22184   */\n      swap1\n      pop\n        /* \"#utility.yul\":22019:22190   */\n      swap2\n      swap1\n      pop\n      jump\t// out\n        /* \"#utility.yul\":22196:22749   */\n    tag_120:\n        /* \"#utility.yul\":22373:22377   */\n      0x00\n        /* \"#utility.yul\":22411:22414   */\n      0x80\n        /* \"#utility.yul\":22400:22409   */\n      dup3\n        /* \"#utility.yul\":22396:22415   */\n      add\n        /* \"#utility.yul\":22388:22415   */\n      swap1\n      pop\n        /* \"#utility.yul\":22425:22496   */\n      tag_441\n        /* \"#utility.yul\":22493:22494   */\n      0x00\n        /* \"#utility.yul\":22482:22491   */\n      dup4\n        /* \"#utility.yul\":22478:22495   */\n      add\n        /* \"#utility.yul\":22469:22475   */\n      dup8\n        /* \"#utility.yul\":22425:22496   */\n      tag_183\n      jump\t// in\n    tag_441:\n        /* \"#utility.yul\":22506:22578   */\n      tag_442\n        /* \"#utility.yul\":22574:22576   */\n      0x20\n        /* \"#utility.yul\":22563:22572   */\n      dup4\n        /* \"#utility.yul\":22559:22577   */\n      add\n        /* \"#utility.yul\":22550:22556   */\n      dup7\n        /* \"#utility.yul\":22506:22578   */\n      tag_184\n      jump\t// in\n    tag_442:\n        /* \"#utility.yul\":22588:22660   */\n      tag_443\n        /* \"#utility.yul\":22656:22658   */\n      0x40\n        /* \"#utility.yul\":22645:22654   */\n      dup4\n        /* \"#utility.yul\":22641:22659   */\n      add\n        /* \"#utility.yul\":22632:22638   */\n      dup6\n        /* \"#utility.yul\":22588:22660   */\n      tag_183\n      jump\t// in\n    tag_443:\n        /* \"#utility.yul\":22670:22742   */\n      tag_444\n        /* \"#utility.yul\":22738:22740   */\n      0x60\n        /* \"#utility.yul\":22727:22736   */\n      dup4\n        /* \"#utility.yul\":22723:22741   */\n      add\n        /* \"#utility.yul\":22714:22720   */\n      dup5\n        /* \"#utility.yul\":22670:22742   */\n      tag_184\n      jump\t// in\n    tag_444:\n        /* \"#utility.yul\":22196:22749   */\n      swap6\n      swap5\n      pop\n      pop\n      pop\n      pop\n      pop\n      jump\t// out\n        /* \"#utility.yul\":22755:22925   */\n    tag_211:\n        /* \"#utility.yul\":22895:22917   */\n      0x547765657420646f6573206e6f74206578697374000000000000000000000000\n        /* \"#utility.yul\":22891:22892   */\n      0x00\n        /* \"#utility.yul\":22883:22889   */\n      dup3\n        /* \"#utility.yul\":22879:22893   */\n      add\n        /* \"#utility.yul\":22872:22918   */\n      mstore\n        /* \"#utility.yul\":22755:22925   */\n      pop\n      jump\t// out\n        /* \"#utility.yul\":22931:23297   */\n    tag_212:\n        /* \"#utility.yul\":23073:23076   */\n      0x00\n        /* \"#utility.yul\":23094:23161   */\n      tag_447\n        /* \"#utility.yul\":23158:23160   */\n      0x14\n        /* \"#utility.yul\":23153:23156   */\n      dup4\n        /* \"#utility.yul\":23094:23161   */\n      tag_189\n      jump\t// in\n    tag_447:\n        /* \"#utility.yul\":23087:23161   */\n      swap2\n      pop\n        /* \"#utility.yul\":23170:23263   */\n      tag_448\n        /* \"#utility.yul\":23259:23262   */\n      dup3\n        /* \"#utility.yul\":23170:23263   */\n      tag_211\n      jump\t// in\n    tag_448:\n        /* \"#utility.yul\":23288:23290   */\n      0x20\n        /* \"#utility.yul\":23283:23286   */\n      dup3\n        /* \"#utility.yul\":23279:23291   */\n      add\n        /* \"#utility.yul\":23272:23291   */\n      swap1\n      pop\n        /* \"#utility.yul\":22931:23297   */\n      swap2\n      swap1\n      pop\n      jump\t// out\n        /* \"#utility.yul\":23303:23722   */\n    tag_131:\n        /* \"#utility.yul\":23469:23473   */\n      0x00\n        /* \"#utility.yul\":23507:23509   */\n      0x20\n        /* \"#utility.yul\":23496:23505   */\n      dup3\n        /* \"#utility.yul\":23492:23510   */\n      add\n        /* \"#utility.yul\":23484:23510   */\n      swap1\n      pop\n        /* \"#utility.yul\":23556:23565   */\n      dup2\n        /* \"#utility.yul\":23550:23554   */\n      dup2\n        /* \"#utility.yul\":23546:23566   */\n      sub\n        /* \"#utility.yul\":23542:23543   */\n      0x00\n        /* \"#utility.yul\":23531:23540   */\n      dup4\n        /* \"#utility.yul\":23527:23544   */\n      add\n        /* \"#utility.yul\":23520:23567   */\n      mstore\n        /* \"#utility.yul\":23584:23715   */\n      tag_450\n        /* \"#utility.yul\":23710:23714   */\n      dup2\n        /* \"#utility.yul\":23584:23715   */\n      tag_212\n      jump\t// in\n    tag_450:\n        /* \"#utility.yul\":23576:23715   */\n      swap1\n      pop\n        /* \"#utility.yul\":23303:23722   */\n      swap2\n      swap1\n      pop\n      jump\t// out\n\n    auxdata: 0xa2646970667358221220ec2fe5ff90503f21f802007482df169cc8f1e3c1ed79d71ceb6a04d349eb57a464736f6c63430008180033\n}\n",
				"bytecode": {
					"linkReferences": {},
					"object": "608060405260c8600060146101000a81548161ffff021916908361ffff16021790555060006001553480156200003457600080fd5b5033600073ffffffffffffffffffffffffffffffffffffffff168173ffffffffffffffffffffffffffffffffffffffff1603620000ab5760006040517f1e4fbdf7000000000000000000000000000000000000000000000000000000008152600401620000a29190620001cc565b60405180910390fd5b620000bc81620000c360201b60201c565b50620001e9565b60008060009054906101000a900473ffffffffffffffffffffffffffffffffffffffff169050816000806101000a81548173ffffffffffffffffffffffffffffffffffffffff021916908373ffffffffffffffffffffffffffffffffffffffff1602179055508173ffffffffffffffffffffffffffffffffffffffff168173ffffffffffffffffffffffffffffffffffffffff167f8be0079c531659141344cd1fd0a4f28419497f9722a3daafe3b4186f6b6457e060405160405180910390a35050565b600073ffffffffffffffffffffffffffffffffffffffff82169050919050565b6000620001b48262000187565b9050919050565b620001c681620001a7565b82525050565b6000602082019050620001e36000830184620001bb565b92915050565b611b2780620001f96000396000f3fe608060405234801561001057600080fd5b50600436106100b45760003560e01c8063893d20e811610071578063893d20e8146101795780638da5cb5b14610197578063a1488f7c146101b5578063c3ad5ecb146101d1578063d04ddaa014610201578063f2fde38b1461021d576100b4565b806312e7ee1c146100b957806358bfa4ab146100e95780636eb1079714610105578063715018a6146101235780637c9cd2bc1461012d578063820785cc14610149575b600080fd5b6100d360048036038101906100ce9190610f1e565b610239565b6040516100e0919061113b565b60405180910390f35b61010360048036038101906100fe9190611197565b610479565b005b61010d6104a1565b60405161011a91906111d3565b60405180910390f35b61012b6104b5565b005b61014760048036038101906101429190611323565b6104c9565b005b610163600480360381019061015e9190610f1e565b6106f2565b604051610170919061137b565b60405180910390f35b6101816107c1565b60405161018e91906113a5565b60405180910390f35b61019f6107d0565b6040516101ac91906113a5565b60405180910390f35b6101cf60048036038101906101ca91906113ec565b6107f9565b005b6101eb60048036038101906101e6919061142c565b61098c565b6040516101f891906114cf565b60405180910390f35b61021b600480360381019061021691906113ec565b610afc565b005b61023760048036038101906102329190610f1e565b610c8e565b005b60606000600360008473ffffffffffffffffffffffffffffffffffffffff1673ffffffffffffffffffffffffffffffffffffffff16815260200190815260200160002054905060008167ffffffffffffffff81111561029b5761029a6111f8565b5b6040519080825280602002602001820160405280156102d457816020015b6102c1610e67565b8152602001906001900390816102b95790505b50905060005b8281101561046e57600260008673ffffffffffffffffffffffffffffffffffffffff1673ffffffffffffffffffffffffffffffffffffffff16815260200190815260200160002060008281526020019081526020016000206040518060a0016040529081600082015481526020016001820160009054906101000a900473ffffffffffffffffffffffffffffffffffffffff1673ffffffffffffffffffffffffffffffffffffffff1673ffffffffffffffffffffffffffffffffffffffff1681526020016002820180546103ad90611520565b80601f01602080910402602001604051908101604052809291908181526020018280546103d990611520565b80156104265780601f106103fb57610100808354040283529160200191610426565b820191906000526020600020905b81548152906001019060200180831161040957829003601f168201915b505050505081526020016003820154815260200160048201548152505082828151811061045657610455611551565b5b602002602001018190525080806001019150506102da565b508092505050919050565b610481610d14565b80600060146101000a81548161ffff021916908361ffff16021790555050565b600060149054906101000a900461ffff1681565b6104bd610d14565b6104c76000610d9b565b565b600060149054906101000a900461ffff1661ffff1681511115610521576040517f08c379a0000000000000000000000000000000000000000000000000000000008152600401610518906115dd565b60405180910390fd5b60006040518060a0016040528060015481526020013373ffffffffffffffffffffffffffffffffffffffff1681526020018381526020014281526020016000815250905080600260003373ffffffffffffffffffffffffffffffffffffffff1673ffffffffffffffffffffffffffffffffffffffff168152602001908152602001600020600060015481526020019081526020016000206000820151816000015560208201518160010160006101000a81548173ffffffffffffffffffffffffffffffffffffffff021916908373ffffffffffffffffffffffffffffffffffffffff160217905550604082015181600201908161061e91906117a9565b5060608201518160030155608082015181600401559050507f16fd3c13e9d46923e0a8bce11c7b473ec508a72e6c96cd2404b29ce972afc29e60015482602001518360400151846060015160405161067994939291906118b4565b60405180910390a1600160008154809291906106949061192f565b9190505550600360003373ffffffffffffffffffffffffffffffffffffffff1673ffffffffffffffffffffffffffffffffffffffff16815260200190815260200160002060008154809291906106e99061192f565b91905055505050565b600080600090506000600360008573ffffffffffffffffffffffffffffffffffffffff1673ffffffffffffffffffffffffffffffffffffffff16815260200190815260200160002054905060005b818110156107b657600260008673ffffffffffffffffffffffffffffffffffffffff1673ffffffffffffffffffffffffffffffffffffffff168152602001908152602001600020600082815260200190815260200160002060040154836107a79190611977565b92508080600101915050610740565b508192505050919050565b60006107cb6107d0565b905090565b60008060009054906101000a900473ffffffffffffffffffffffffffffffffffffffff16905090565b6000600260008373ffffffffffffffffffffffffffffffffffffffff1673ffffffffffffffffffffffffffffffffffffffff1681526020019081526020016000206000848152602001908152602001600020600401541161088f576040517f08c379a0000000000000000000000000000000000000000000000000000000008152600401610886906119f7565b60405180910390fd5b600260008273ffffffffffffffffffffffffffffffffffffffff1673ffffffffffffffffffffffffffffffffffffffff168152602001908152602001600020600083815260200190815260200160002060040160008154809291906108f390611a17565b91905055507f560f33c84a1e75cd12dcc1ef33a1eca2b503d63bff21b19bf61d9a18fe9f3b418282600260008573ffffffffffffffffffffffffffffffffffffffff1673ffffffffffffffffffffffffffffffffffffffff168152602001908152602001600020600086815260200190815260200160002060040154336040516109809493929190611a40565b60405180910390a15050565b610994610e67565b600260003373ffffffffffffffffffffffffffffffffffffffff1673ffffffffffffffffffffffffffffffffffffffff16815260200190815260200160002060008381526020019081526020016000206040518060a0016040529081600082015481526020016001820160009054906101000a900473ffffffffffffffffffffffffffffffffffffffff1673ffffffffffffffffffffffffffffffffffffffff1673ffffffffffffffffffffffffffffffffffffffff168152602001600282018054610a5f90611520565b80601f0160208091040260200160405190810160405280929190818152602001828054610a8b90611520565b8015610ad85780601f10610aad57610100808354040283529160200191610ad8565b820191906000526020600020905b815481529060010190602001808311610abb57829003601f168201915b50505050508152602001600382015481526020016004820154815250509050919050565b81600260008373ffffffffffffffffffffffffffffffffffffffff1673ffffffffffffffffffffffffffffffffffffffff16815260200190815260200160002060008481526020019081526020016000206000015414610b91576040517f08c379a0000000000000000000000000000000000000000000000000000000008152600401610b8890611ad1565b60405180910390fd5b600260008273ffffffffffffffffffffffffffffffffffffffff1673ffffffffffffffffffffffffffffffffffffffff16815260200190815260200160002060008381526020019081526020016000206004016000815480929190610bf59061192f565b91905055507f3406cce04214d6f2a48b440426569ed56dc2700c5801c7891e32d62e23cb23318282600260008573ffffffffffffffffffffffffffffffffffffffff1673ffffffffffffffffffffffffffffffffffffffff16815260200190815260200160002060008681526020019081526020016000206004015433604051610c829493929190611a40565b60405180910390a15050565b610c96610d14565b600073ffffffffffffffffffffffffffffffffffffffff168173ffffffffffffffffffffffffffffffffffffffff1603610d085760006040517f1e4fbdf7000000000000000000000000000000000000000000000000000000008152600401610cff91906113a5565b60405180910390fd5b610d1181610d9b565b50565b610d1c610e5f565b73ffffffffffffffffffffffffffffffffffffffff16610d3a6107d0565b73ffffffffffffffffffffffffffffffffffffffff1614610d9957610d5d610e5f565b6040517f118cdaa7000000000000000000000000000000000000000000000000000000008152600401610d9091906113a5565b60405180910390fd5b565b60008060009054906101000a900473ffffffffffffffffffffffffffffffffffffffff169050816000806101000a81548173ffffffffffffffffffffffffffffffffffffffff021916908373ffffffffffffffffffffffffffffffffffffffff1602179055508173ffffffffffffffffffffffffffffffffffffffff168173ffffffffffffffffffffffffffffffffffffffff167f8be0079c531659141344cd1fd0a4f28419497f9722a3daafe3b4186f6b6457e060405160405180910390a35050565b600033905090565b6040518060a0016040528060008152602001600073ffffffffffffffffffffffffffffffffffffffff1681526020016060815260200160008152602001600081525090565b6000604051905090565b600080fd5b600080fd5b600073ffffffffffffffffffffffffffffffffffffffff82169050919050565b6000610eeb82610ec0565b9050919050565b610efb81610ee0565b8114610f0657600080fd5b50565b600081359050610f1881610ef2565b92915050565b600060208284031215610f3457610f33610eb6565b5b6000610f4284828501610f09565b91505092915050565b600081519050919050565b600082825260208201905092915050565b6000819050602082019050919050565b6000819050919050565b610f8a81610f77565b82525050565b610f9981610ee0565b82525050565b600081519050919050565b600082825260208201905092915050565b60005b83811015610fd9578082015181840152602081019050610fbe565b60008484015250505050565b6000601f19601f8301169050919050565b600061100182610f9f565b61100b8185610faa565b935061101b818560208601610fbb565b61102481610fe5565b840191505092915050565b600060a0830160008301516110476000860182610f81565b50602083015161105a6020860182610f90565b50604083015184820360408601526110728282610ff6565b91505060608301516110876060860182610f81565b50608083015161109a6080860182610f81565b508091505092915050565b60006110b1838361102f565b905092915050565b6000602082019050919050565b60006110d182610f4b565b6110db8185610f56565b9350836020820285016110ed85610f67565b8060005b85811015611129578484038952815161110a85826110a5565b9450611115836110b9565b925060208a019950506001810190506110f1565b50829750879550505050505092915050565b6000602082019050818103600083015261115581846110c6565b905092915050565b600061ffff82169050919050565b6111748161115d565b811461117f57600080fd5b50565b6000813590506111918161116b565b92915050565b6000602082840312156111ad576111ac610eb6565b5b60006111bb84828501611182565b91505092915050565b6111cd8161115d565b82525050565b60006020820190506111e860008301846111c4565b92915050565b600080fd5b600080fd5b7f4e487b7100000000000000000000000000000000000000000000000000000000600052604160045260246000fd5b61123082610fe5565b810181811067ffffffffffffffff8211171561124f5761124e6111f8565b5b80604052505050565b6000611262610eac565b905061126e8282611227565b919050565b600067ffffffffffffffff82111561128e5761128d6111f8565b5b61129782610fe5565b9050602081019050919050565b82818337600083830152505050565b60006112c66112c184611273565b611258565b9050828152602081018484840111156112e2576112e16111f3565b5b6112ed8482856112a4565b509392505050565b600082601f83011261130a576113096111ee565b5b813561131a8482602086016112b3565b91505092915050565b60006020828403121561133957611338610eb6565b5b600082013567ffffffffffffffff81111561135757611356610ebb565b5b611363848285016112f5565b91505092915050565b61137581610f77565b82525050565b6000602082019050611390600083018461136c565b92915050565b61139f81610ee0565b82525050565b60006020820190506113ba6000830184611396565b92915050565b6113c981610f77565b81146113d457600080fd5b50565b6000813590506113e6816113c0565b92915050565b6000806040838503121561140357611402610eb6565b5b6000611411858286016113d7565b925050602061142285828601610f09565b9150509250929050565b60006020828403121561144257611441610eb6565b5b6000611450848285016113d7565b91505092915050565b600060a0830160008301516114716000860182610f81565b5060208301516114846020860182610f90565b506040830151848203604086015261149c8282610ff6565b91505060608301516114b16060860182610f81565b5060808301516114c46080860182610f81565b508091505092915050565b600060208201905081810360008301526114e98184611459565b905092915050565b7f4e487b7100000000000000000000000000000000000000000000000000000000600052602260045260246000fd5b6000600282049050600182168061153857607f821691505b60208210810361154b5761154a6114f1565b5b50919050565b7f4e487b7100000000000000000000000000000000000000000000000000000000600052603260045260246000fd5b600082825260208201905092915050565b7f547765657420636f6e74656e74206973206c656e677468790000000000000000600082015250565b60006115c7601883611580565b91506115d282611591565b602082019050919050565b600060208201905081810360008301526115f6816115ba565b9050919050565b60008190508160005260206000209050919050565b60006020601f8301049050919050565b600082821b905092915050565b60006008830261165f7fffffffffffffffffffffffffffffffffffffffffffffffffffffffffffffffff82611622565b6116698683611622565b95508019841693508086168417925050509392505050565b6000819050919050565b60006116a66116a161169c84610f77565b611681565b610f77565b9050919050565b6000819050919050565b6116c08361168b565b6116d46116cc826116ad565b84845461162f565b825550505050565b600090565b6116e96116dc565b6116f48184846116b7565b505050565b5b818110156117185761170d6000826116e1565b6001810190506116fa565b5050565b601f82111561175d5761172e816115fd565b61173784611612565b81016020851015611746578190505b61175a61175285611612565b8301826116f9565b50505b505050565b600082821c905092915050565b600061178060001984600802611762565b1980831691505092915050565b6000611799838361176f565b9150826002028217905092915050565b6117b282610f9f565b67ffffffffffffffff8111156117cb576117ca6111f8565b5b6117d58254611520565b6117e082828561171c565b600060209050601f8311600181146118135760008415611801578287015190505b61180b858261178d565b865550611873565b601f198416611821866115fd565b60005b8281101561184957848901518255600182019150602085019450602081019050611824565b868310156118665784890151611862601f89168261176f565b8355505b6001600288020188555050505b505050505050565b600061188682610f9f565b6118908185611580565b93506118a0818560208601610fbb565b6118a981610fe5565b840191505092915050565b60006080820190506118c9600083018761136c565b6118d66020830186611396565b81810360408301526118e8818561187b565b90506118f7606083018461136c565b95945050505050565b7f4e487b7100000000000000000000000000000000000000000000000000000000600052601160045260246000fd5b600061193a82610f77565b91507fffffffffffffffffffffffffffffffffffffffffffffffffffffffffffffffff820361196c5761196b611900565b5b600182019050919050565b600061198282610f77565b915061198d83610f77565b92508282019050808211156119a5576119a4611900565b5b92915050565b7f4c696b65732068617665206e6f74206164646564207965740000000000000000600082015250565b60006119e1601883611580565b91506119ec826119ab565b602082019050919050565b60006020820190508181036000830152611a10816119d4565b9050919050565b6000611a2282610f77565b915060008203611a3557611a34611900565b5b600182039050919050565b6000608082019050611a55600083018761136c565b611a626020830186611396565b611a6f604083018561136c565b611a7c6060830184611396565b95945050505050565b7f547765657420646f6573206e6f74206578697374000000000000000000000000600082015250565b6000611abb601483611580565b9150611ac682611a85565b602082019050919050565b60006020820190508181036000830152611aea81611aae565b905091905056fea2646970667358221220ec2fe5ff90503f21f802007482df169cc8f1e3c1ed79d71ceb6a04d349eb57a464736f6c63430008180033",
					"opcodes": "PUSH1 0x80 PUSH1 0x40 MSTORE PUSH1 0xC8 PUSH1 0x0 PUSH1 0x14 PUSH2 0x100 EXP DUP2 SLOAD DUP2 PUSH2 0xFFFF MUL NOT AND SWAP1 DUP4 PUSH2 0xFFFF AND MUL OR SWAP1 SSTORE POP PUSH1 0x0 PUSH1 0x1 SSTORE CALLVALUE DUP1 ISZERO PUSH3 0x34 JUMPI PUSH1 0x0 DUP1 REVERT JUMPDEST POP CALLER PUSH1 0x0 PUSH20 0xFFFFFFFFFFFFFFFFFFFFFFFFFFFFFFFFFFFFFFFF AND DUP2 PUSH20 0xFFFFFFFFFFFFFFFFFFFFFFFFFFFFFFFFFFFFFFFF AND SUB PUSH3 0xAB JUMPI PUSH1 0x0 PUSH1 0x40 MLOAD PUSH32 0x1E4FBDF700000000000000000000000000000000000000000000000000000000 DUP2 MSTORE PUSH1 0x4 ADD PUSH3 0xA2 SWAP2 SWAP1 PUSH3 0x1CC JUMP JUMPDEST PUSH1 0x40 MLOAD DUP1 SWAP2 SUB SWAP1 REVERT JUMPDEST PUSH3 0xBC DUP2 PUSH3 0xC3 PUSH1 0x20 SHL PUSH1 0x20 SHR JUMP JUMPDEST POP PUSH3 0x1E9 JUMP JUMPDEST PUSH1 0x0 DUP1 PUSH1 0x0 SWAP1 SLOAD SWAP1 PUSH2 0x100 EXP SWAP1 DIV PUSH20 0xFFFFFFFFFFFFFFFFFFFFFFFFFFFFFFFFFFFFFFFF AND SWAP1 POP DUP2 PUSH1 0x0 DUP1 PUSH2 0x100 EXP DUP2 SLOAD DUP2 PUSH20 0xFFFFFFFFFFFFFFFFFFFFFFFFFFFFFFFFFFFFFFFF MUL NOT AND SWAP1 DUP4 PUSH20 0xFFFFFFFFFFFFFFFFFFFFFFFFFFFFFFFFFFFFFFFF AND MUL OR SWAP1 SSTORE POP DUP2 PUSH20 0xFFFFFFFFFFFFFFFFFFFFFFFFFFFFFFFFFFFFFFFF AND DUP2 PUSH20 0xFFFFFFFFFFFFFFFFFFFFFFFFFFFFFFFFFFFFFFFF AND PUSH32 0x8BE0079C531659141344CD1FD0A4F28419497F9722A3DAAFE3B4186F6B6457E0 PUSH1 0x40 MLOAD PUSH1 0x40 MLOAD DUP1 SWAP2 SUB SWAP1 LOG3 POP POP JUMP JUMPDEST PUSH1 0x0 PUSH20 0xFFFFFFFFFFFFFFFFFFFFFFFFFFFFFFFFFFFFFFFF DUP3 AND SWAP1 POP SWAP2 SWAP1 POP JUMP JUMPDEST PUSH1 0x0 PUSH3 0x1B4 DUP3 PUSH3 0x187 JUMP JUMPDEST SWAP1 POP SWAP2 SWAP1 POP JUMP JUMPDEST PUSH3 0x1C6 DUP2 PUSH3 0x1A7 JUMP JUMPDEST DUP3 MSTORE POP POP JUMP JUMPDEST PUSH1 0x0 PUSH1 0x20 DUP3 ADD SWAP1 POP PUSH3 0x1E3 PUSH1 0x0 DUP4 ADD DUP5 PUSH3 0x1BB JUMP JUMPDEST SWAP3 SWAP2 POP POP JUMP JUMPDEST PUSH2 0x1B27 DUP1 PUSH3 0x1F9 PUSH1 0x0 CODECOPY PUSH1 0x0 RETURN INVALID PUSH1 0x80 PUSH1 0x40 MSTORE CALLVALUE DUP1 ISZERO PUSH2 0x10 JUMPI PUSH1 0x0 DUP1 REVERT JUMPDEST POP PUSH1 0x4 CALLDATASIZE LT PUSH2 0xB4 JUMPI PUSH1 0x0 CALLDATALOAD PUSH1 0xE0 SHR DUP1 PUSH4 0x893D20E8 GT PUSH2 0x71 JUMPI DUP1 PUSH4 0x893D20E8 EQ PUSH2 0x179 JUMPI DUP1 PUSH4 0x8DA5CB5B EQ PUSH2 0x197 JUMPI DUP1 PUSH4 0xA1488F7C EQ PUSH2 0x1B5 JUMPI DUP1 PUSH4 0xC3AD5ECB EQ PUSH2 0x1D1 JUMPI DUP1 PUSH4 0xD04DDAA0 EQ PUSH2 0x201 JUMPI DUP1 PUSH4 0xF2FDE38B EQ PUSH2 0x21D JUMPI PUSH2 0xB4 JUMP JUMPDEST DUP1 PUSH4 0x12E7EE1C EQ PUSH2 0xB9 JUMPI DUP1 PUSH4 0x58BFA4AB EQ PUSH2 0xE9 JUMPI DUP1 PUSH4 0x6EB10797 EQ PUSH2 0x105 JUMPI DUP1 PUSH4 0x715018A6 EQ PUSH2 0x123 JUMPI DUP1 PUSH4 0x7C9CD2BC EQ PUSH2 0x12D JUMPI DUP1 PUSH4 0x820785CC EQ PUSH2 0x149 JUMPI JUMPDEST PUSH1 0x0 DUP1 REVERT JUMPDEST PUSH2 0xD3 PUSH1 0x4 DUP1 CALLDATASIZE SUB DUP2 ADD SWAP1 PUSH2 0xCE SWAP2 SWAP1 PUSH2 0xF1E JUMP JUMPDEST PUSH2 0x239 JUMP JUMPDEST PUSH1 0x40 MLOAD PUSH2 0xE0 SWAP2 SWAP1 PUSH2 0x113B JUMP JUMPDEST PUSH1 0x40 MLOAD DUP1 SWAP2 SUB SWAP1 RETURN JUMPDEST PUSH2 0x103 PUSH1 0x4 DUP1 CALLDATASIZE SUB DUP2 ADD SWAP1 PUSH2 0xFE SWAP2 SWAP1 PUSH2 0x1197 JUMP JUMPDEST PUSH2 0x479 JUMP JUMPDEST STOP JUMPDEST PUSH2 0x10D PUSH2 0x4A1 JUMP JUMPDEST PUSH1 0x40 MLOAD PUSH2 0x11A SWAP2 SWAP1 PUSH2 0x11D3 JUMP JUMPDEST PUSH1 0x40 MLOAD DUP1 SWAP2 SUB SWAP1 RETURN JUMPDEST PUSH2 0x12B PUSH2 0x4B5 JUMP JUMPDEST STOP JUMPDEST PUSH2 0x147 PUSH1 0x4 DUP1 CALLDATASIZE SUB DUP2 ADD SWAP1 PUSH2 0x142 SWAP2 SWAP1 PUSH2 0x1323 JUMP JUMPDEST PUSH2 0x4C9 JUMP JUMPDEST STOP JUMPDEST PUSH2 0x163 PUSH1 0x4 DUP1 CALLDATASIZE SUB DUP2 ADD SWAP1 PUSH2 0x15E SWAP2 SWAP1 PUSH2 0xF1E JUMP JUMPDEST PUSH2 0x6F2 JUMP JUMPDEST PUSH1 0x40 MLOAD PUSH2 0x170 SWAP2 SWAP1 PUSH2 0x137B JUMP JUMPDEST PUSH1 0x40 MLOAD DUP1 SWAP2 SUB SWAP1 RETURN JUMPDEST PUSH2 0x181 PUSH2 0x7C1 JUMP JUMPDEST PUSH1 0x40 MLOAD PUSH2 0x18E SWAP2 SWAP1 PUSH2 0x13A5 JUMP JUMPDEST PUSH1 0x40 MLOAD DUP1 SWAP2 SUB SWAP1 RETURN JUMPDEST PUSH2 0x19F PUSH2 0x7D0 JUMP JUMPDEST PUSH1 0x40 MLOAD PUSH2 0x1AC SWAP2 SWAP1 PUSH2 0x13A5 JUMP JUMPDEST PUSH1 0x40 MLOAD DUP1 SWAP2 SUB SWAP1 RETURN JUMPDEST PUSH2 0x1CF PUSH1 0x4 DUP1 CALLDATASIZE SUB DUP2 ADD SWAP1 PUSH2 0x1CA SWAP2 SWAP1 PUSH2 0x13EC JUMP JUMPDEST PUSH2 0x7F9 JUMP JUMPDEST STOP JUMPDEST PUSH2 0x1EB PUSH1 0x4 DUP1 CALLDATASIZE SUB DUP2 ADD SWAP1 PUSH2 0x1E6 SWAP2 SWAP1 PUSH2 0x142C JUMP JUMPDEST PUSH2 0x98C JUMP JUMPDEST PUSH1 0x40 MLOAD PUSH2 0x1F8 SWAP2 SWAP1 PUSH2 0x14CF JUMP JUMPDEST PUSH1 0x40 MLOAD DUP1 SWAP2 SUB SWAP1 RETURN JUMPDEST PUSH2 0x21B PUSH1 0x4 DUP1 CALLDATASIZE SUB DUP2 ADD SWAP1 PUSH2 0x216 SWAP2 SWAP1 PUSH2 0x13EC JUMP JUMPDEST PUSH2 0xAFC JUMP JUMPDEST STOP JUMPDEST PUSH2 0x237 PUSH1 0x4 DUP1 CALLDATASIZE SUB DUP2 ADD SWAP1 PUSH2 0x232 SWAP2 SWAP1 PUSH2 0xF1E JUMP JUMPDEST PUSH2 0xC8E JUMP JUMPDEST STOP JUMPDEST PUSH1 0x60 PUSH1 0x0 PUSH1 0x3 PUSH1 0x0 DUP5 PUSH20 0xFFFFFFFFFFFFFFFFFFFFFFFFFFFFFFFFFFFFFFFF AND PUSH20 0xFFFFFFFFFFFFFFFFFFFFFFFFFFFFFFFFFFFFFFFF AND DUP2 MSTORE PUSH1 0x20 ADD SWAP1 DUP2 MSTORE PUSH1 0x20 ADD PUSH1 0x0 KECCAK256 SLOAD SWAP1 POP PUSH1 0x0 DUP2 PUSH8 0xFFFFFFFFFFFFFFFF DUP2 GT ISZERO PUSH2 0x29B JUMPI PUSH2 0x29A PUSH2 0x11F8 JUMP JUMPDEST JUMPDEST PUSH1 0x40 MLOAD SWAP1 DUP1 DUP3 MSTORE DUP1 PUSH1 0x20 MUL PUSH1 0x20 ADD DUP3 ADD PUSH1 0x40 MSTORE DUP1 ISZERO PUSH2 0x2D4 JUMPI DUP2 PUSH1 0x20 ADD JUMPDEST PUSH2 0x2C1 PUSH2 0xE67 JUMP JUMPDEST DUP2 MSTORE PUSH1 0x20 ADD SWAP1 PUSH1 0x1 SWAP1 SUB SWAP1 DUP2 PUSH2 0x2B9 JUMPI SWAP1 POP JUMPDEST POP SWAP1 POP PUSH1 0x0 JUMPDEST DUP3 DUP2 LT ISZERO PUSH2 0x46E JUMPI PUSH1 0x2 PUSH1 0x0 DUP7 PUSH20 0xFFFFFFFFFFFFFFFFFFFFFFFFFFFFFFFFFFFFFFFF AND PUSH20 0xFFFFFFFFFFFFFFFFFFFFFFFFFFFFFFFFFFFFFFFF AND DUP2 MSTORE PUSH1 0x20 ADD SWAP1 DUP2 MSTORE PUSH1 0x20 ADD PUSH1 0x0 KECCAK256 PUSH1 0x0 DUP3 DUP2 MSTORE PUSH1 0x20 ADD SWAP1 DUP2 MSTORE PUSH1 0x20 ADD PUSH1 0x0 KECCAK256 PUSH1 0x40 MLOAD DUP1 PUSH1 0xA0 ADD PUSH1 0x40 MSTORE SWAP1 DUP2 PUSH1 0x0 DUP3 ADD SLOAD DUP2 MSTORE PUSH1 0x20 ADD PUSH1 0x1 DUP3 ADD PUSH1 0x0 SWAP1 SLOAD SWAP1 PUSH2 0x100 EXP SWAP1 DIV PUSH20 0xFFFFFFFFFFFFFFFFFFFFFFFFFFFFFFFFFFFFFFFF AND PUSH20 0xFFFFFFFFFFFFFFFFFFFFFFFFFFFFFFFFFFFFFFFF AND PUSH20 0xFFFFFFFFFFFFFFFFFFFFFFFFFFFFFFFFFFFFFFFF AND DUP2 MSTORE PUSH1 0x20 ADD PUSH1 0x2 DUP3 ADD DUP1 SLOAD PUSH2 0x3AD SWAP1 PUSH2 0x1520 JUMP JUMPDEST DUP1 PUSH1 0x1F ADD PUSH1 0x20 DUP1 SWAP2 DIV MUL PUSH1 0x20 ADD PUSH1 0x40 MLOAD SWAP1 DUP2 ADD PUSH1 0x40 MSTORE DUP1 SWAP3 SWAP2 SWAP1 DUP2 DUP2 MSTORE PUSH1 0x20 ADD DUP3 DUP1 SLOAD PUSH2 0x3D9 SWAP1 PUSH2 0x1520 JUMP JUMPDEST DUP1 ISZERO PUSH2 0x426 JUMPI DUP1 PUSH1 0x1F LT PUSH2 0x3FB JUMPI PUSH2 0x100 DUP1 DUP4 SLOAD DIV MUL DUP4 MSTORE SWAP2 PUSH1 0x20 ADD SWAP2 PUSH2 0x426 JUMP JUMPDEST DUP3 ADD SWAP2 SWAP1 PUSH1 0x0 MSTORE PUSH1 0x20 PUSH1 0x0 KECCAK256 SWAP1 JUMPDEST DUP2 SLOAD DUP2 MSTORE SWAP1 PUSH1 0x1 ADD SWAP1 PUSH1 0x20 ADD DUP1 DUP4 GT PUSH2 0x409 JUMPI DUP3 SWAP1 SUB PUSH1 0x1F AND DUP3 ADD SWAP2 JUMPDEST POP POP POP POP POP DUP2 MSTORE PUSH1 0x20 ADD PUSH1 0x3 DUP3 ADD SLOAD DUP2 MSTORE PUSH1 0x20 ADD PUSH1 0x4 DUP3 ADD SLOAD DUP2 MSTORE POP POP DUP3 DUP3 DUP2 MLOAD DUP2 LT PUSH2 0x456 JUMPI PUSH2 0x455 PUSH2 0x1551 JUMP JUMPDEST JUMPDEST PUSH1 0x20 MUL PUSH1 0x20 ADD ADD DUP2 SWAP1 MSTORE POP DUP1 DUP1 PUSH1 0x1 ADD SWAP2 POP POP PUSH2 0x2DA JUMP JUMPDEST POP DUP1 SWAP3 POP POP POP SWAP2 SWAP1 POP JUMP JUMPDEST PUSH2 0x481 PUSH2 0xD14 JUMP JUMPDEST DUP1 PUSH1 0x0 PUSH1 0x14 PUSH2 0x100 EXP DUP2 SLOAD DUP2 PUSH2 0xFFFF MUL NOT AND SWAP1 DUP4 PUSH2 0xFFFF AND MUL OR SWAP1 SSTORE POP POP JUMP JUMPDEST PUSH1 0x0 PUSH1 0x14 SWAP1 SLOAD SWAP1 PUSH2 0x100 EXP SWAP1 DIV PUSH2 0xFFFF AND DUP2 JUMP JUMPDEST PUSH2 0x4BD PUSH2 0xD14 JUMP JUMPDEST PUSH2 0x4C7 PUSH1 0x0 PUSH2 0xD9B JUMP JUMPDEST JUMP JUMPDEST PUSH1 0x0 PUSH1 0x14 SWAP1 SLOAD SWAP1 PUSH2 0x100 EXP SWAP1 DIV PUSH2 0xFFFF AND PUSH2 0xFFFF AND DUP2 MLOAD GT ISZERO PUSH2 0x521 JUMPI PUSH1 0x40 MLOAD PUSH32 0x8C379A000000000000000000000000000000000000000000000000000000000 DUP2 MSTORE PUSH1 0x4 ADD PUSH2 0x518 SWAP1 PUSH2 0x15DD JUMP JUMPDEST PUSH1 0x40 MLOAD DUP1 SWAP2 SUB SWAP1 REVERT JUMPDEST PUSH1 0x0 PUSH1 0x40 MLOAD DUP1 PUSH1 0xA0 ADD PUSH1 0x40 MSTORE DUP1 PUSH1 0x1 SLOAD DUP2 MSTORE PUSH1 0x20 ADD CALLER PUSH20 0xFFFFFFFFFFFFFFFFFFFFFFFFFFFFFFFFFFFFFFFF AND DUP2 MSTORE PUSH1 0x20 ADD DUP4 DUP2 MSTORE PUSH1 0x20 ADD TIMESTAMP DUP2 MSTORE PUSH1 0x20 ADD PUSH1 0x0 DUP2 MSTORE POP SWAP1 POP DUP1 PUSH1 0x2 PUSH1 0x0 CALLER PUSH20 0xFFFFFFFFFFFFFFFFFFFFFFFFFFFFFFFFFFFFFFFF AND PUSH20 0xFFFFFFFFFFFFFFFFFFFFFFFFFFFFFFFFFFFFFFFF AND DUP2 MSTORE PUSH1 0x20 ADD SWAP1 DUP2 MSTORE PUSH1 0x20 ADD PUSH1 0x0 KECCAK256 PUSH1 0x0 PUSH1 0x1 SLOAD DUP2 MSTORE PUSH1 0x20 ADD SWAP1 DUP2 MSTORE PUSH1 0x20 ADD PUSH1 0x0 KECCAK256 PUSH1 0x0 DUP3 ADD MLOAD DUP2 PUSH1 0x0 ADD SSTORE PUSH1 0x20 DUP3 ADD MLOAD DUP2 PUSH1 0x1 ADD PUSH1 0x0 PUSH2 0x100 EXP DUP2 SLOAD DUP2 PUSH20 0xFFFFFFFFFFFFFFFFFFFFFFFFFFFFFFFFFFFFFFFF MUL NOT AND SWAP1 DUP4 PUSH20 0xFFFFFFFFFFFFFFFFFFFFFFFFFFFFFFFFFFFFFFFF AND MUL OR SWAP1 SSTORE POP PUSH1 0x40 DUP3 ADD MLOAD DUP2 PUSH1 0x2 ADD SWAP1 DUP2 PUSH2 0x61E SWAP2 SWAP1 PUSH2 0x17A9 JUMP JUMPDEST POP PUSH1 0x60 DUP3 ADD MLOAD DUP2 PUSH1 0x3 ADD SSTORE PUSH1 0x80 DUP3 ADD MLOAD DUP2 PUSH1 0x4 ADD SSTORE SWAP1 POP POP PUSH32 0x16FD3C13E9D46923E0A8BCE11C7B473EC508A72E6C96CD2404B29CE972AFC29E PUSH1 0x1 SLOAD DUP3 PUSH1 0x20 ADD MLOAD DUP4 PUSH1 0x40 ADD MLOAD DUP5 PUSH1 0x60 ADD MLOAD PUSH1 0x40 MLOAD PUSH2 0x679 SWAP5 SWAP4 SWAP3 SWAP2 SWAP1 PUSH2 0x18B4 JUMP JUMPDEST PUSH1 0x40 MLOAD DUP1 SWAP2 SUB SWAP1 LOG1 PUSH1 0x1 PUSH1 0x0 DUP2 SLOAD DUP1 SWAP3 SWAP2 SWAP1 PUSH2 0x694 SWAP1 PUSH2 0x192F JUMP JUMPDEST SWAP2 SWAP1 POP SSTORE POP PUSH1 0x3 PUSH1 0x0 CALLER PUSH20 0xFFFFFFFFFFFFFFFFFFFFFFFFFFFFFFFFFFFFFFFF AND PUSH20 0xFFFFFFFFFFFFFFFFFFFFFFFFFFFFFFFFFFFFFFFF AND DUP2 MSTORE PUSH1 0x20 ADD SWAP1 DUP2 MSTORE PUSH1 0x20 ADD PUSH1 0x0 KECCAK256 PUSH1 0x0 DUP2 SLOAD DUP1 SWAP3 SWAP2 SWAP1 PUSH2 0x6E9 SWAP1 PUSH2 0x192F JUMP JUMPDEST SWAP2 SWAP1 POP SSTORE POP POP POP JUMP JUMPDEST PUSH1 0x0 DUP1 PUSH1 0x0 SWAP1 POP PUSH1 0x0 PUSH1 0x3 PUSH1 0x0 DUP6 PUSH20 0xFFFFFFFFFFFFFFFFFFFFFFFFFFFFFFFFFFFFFFFF AND PUSH20 0xFFFFFFFFFFFFFFFFFFFFFFFFFFFFFFFFFFFFFFFF AND DUP2 MSTORE PUSH1 0x20 ADD SWAP1 DUP2 MSTORE PUSH1 0x20 ADD PUSH1 0x0 KECCAK256 SLOAD SWAP1 POP PUSH1 0x0 JUMPDEST DUP2 DUP2 LT ISZERO PUSH2 0x7B6 JUMPI PUSH1 0x2 PUSH1 0x0 DUP7 PUSH20 0xFFFFFFFFFFFFFFFFFFFFFFFFFFFFFFFFFFFFFFFF AND PUSH20 0xFFFFFFFFFFFFFFFFFFFFFFFFFFFFFFFFFFFFFFFF AND DUP2 MSTORE PUSH1 0x20 ADD SWAP1 DUP2 MSTORE PUSH1 0x20 ADD PUSH1 0x0 KECCAK256 PUSH1 0x0 DUP3 DUP2 MSTORE PUSH1 0x20 ADD SWAP1 DUP2 MSTORE PUSH1 0x20 ADD PUSH1 0x0 KECCAK256 PUSH1 0x4 ADD SLOAD DUP4 PUSH2 0x7A7 SWAP2 SWAP1 PUSH2 0x1977 JUMP JUMPDEST SWAP3 POP DUP1 DUP1 PUSH1 0x1 ADD SWAP2 POP POP PUSH2 0x740 JUMP JUMPDEST POP DUP2 SWAP3 POP POP POP SWAP2 SWAP1 POP JUMP JUMPDEST PUSH1 0x0 PUSH2 0x7CB PUSH2 0x7D0 JUMP JUMPDEST SWAP1 POP SWAP1 JUMP JUMPDEST PUSH1 0x0 DUP1 PUSH1 0x0 SWAP1 SLOAD SWAP1 PUSH2 0x100 EXP SWAP1 DIV PUSH20 0xFFFFFFFFFFFFFFFFFFFFFFFFFFFFFFFFFFFFFFFF AND SWAP1 POP SWAP1 JUMP JUMPDEST PUSH1 0x0 PUSH1 0x2 PUSH1 0x0 DUP4 PUSH20 0xFFFFFFFFFFFFFFFFFFFFFFFFFFFFFFFFFFFFFFFF AND PUSH20 0xFFFFFFFFFFFFFFFFFFFFFFFFFFFFFFFFFFFFFFFF AND DUP2 MSTORE PUSH1 0x20 ADD SWAP1 DUP2 MSTORE PUSH1 0x20 ADD PUSH1 0x0 KECCAK256 PUSH1 0x0 DUP5 DUP2 MSTORE PUSH1 0x20 ADD SWAP1 DUP2 MSTORE PUSH1 0x20 ADD PUSH1 0x0 KECCAK256 PUSH1 0x4 ADD SLOAD GT PUSH2 0x88F JUMPI PUSH1 0x40 MLOAD PUSH32 0x8C379A000000000000000000000000000000000000000000000000000000000 DUP2 MSTORE PUSH1 0x4 ADD PUSH2 0x886 SWAP1 PUSH2 0x19F7 JUMP JUMPDEST PUSH1 0x40 MLOAD DUP1 SWAP2 SUB SWAP1 REVERT JUMPDEST PUSH1 0x2 PUSH1 0x0 DUP3 PUSH20 0xFFFFFFFFFFFFFFFFFFFFFFFFFFFFFFFFFFFFFFFF AND PUSH20 0xFFFFFFFFFFFFFFFFFFFFFFFFFFFFFFFFFFFFFFFF AND DUP2 MSTORE PUSH1 0x20 ADD SWAP1 DUP2 MSTORE PUSH1 0x20 ADD PUSH1 0x0 KECCAK256 PUSH1 0x0 DUP4 DUP2 MSTORE PUSH1 0x20 ADD SWAP1 DUP2 MSTORE PUSH1 0x20 ADD PUSH1 0x0 KECCAK256 PUSH1 0x4 ADD PUSH1 0x0 DUP2 SLOAD DUP1 SWAP3 SWAP2 SWAP1 PUSH2 0x8F3 SWAP1 PUSH2 0x1A17 JUMP JUMPDEST SWAP2 SWAP1 POP SSTORE POP PUSH32 0x560F33C84A1E75CD12DCC1EF33A1ECA2B503D63BFF21B19BF61D9A18FE9F3B41 DUP3 DUP3 PUSH1 0x2 PUSH1 0x0 DUP6 PUSH20 0xFFFFFFFFFFFFFFFFFFFFFFFFFFFFFFFFFFFFFFFF AND PUSH20 0xFFFFFFFFFFFFFFFFFFFFFFFFFFFFFFFFFFFFFFFF AND DUP2 MSTORE PUSH1 0x20 ADD SWAP1 DUP2 MSTORE PUSH1 0x20 ADD PUSH1 0x0 KECCAK256 PUSH1 0x0 DUP7 DUP2 MSTORE PUSH1 0x20 ADD SWAP1 DUP2 MSTORE PUSH1 0x20 ADD PUSH1 0x0 KECCAK256 PUSH1 0x4 ADD SLOAD CALLER PUSH1 0x40 MLOAD PUSH2 0x980 SWAP5 SWAP4 SWAP3 SWAP2 SWAP1 PUSH2 0x1A40 JUMP JUMPDEST PUSH1 0x40 MLOAD DUP1 SWAP2 SUB SWAP1 LOG1 POP POP JUMP JUMPDEST PUSH2 0x994 PUSH2 0xE67 JUMP JUMPDEST PUSH1 0x2 PUSH1 0x0 CALLER PUSH20 0xFFFFFFFFFFFFFFFFFFFFFFFFFFFFFFFFFFFFFFFF AND PUSH20 0xFFFFFFFFFFFFFFFFFFFFFFFFFFFFFFFFFFFFFFFF AND DUP2 MSTORE PUSH1 0x20 ADD SWAP1 DUP2 MSTORE PUSH1 0x20 ADD PUSH1 0x0 KECCAK256 PUSH1 0x0 DUP4 DUP2 MSTORE PUSH1 0x20 ADD SWAP1 DUP2 MSTORE PUSH1 0x20 ADD PUSH1 0x0 KECCAK256 PUSH1 0x40 MLOAD DUP1 PUSH1 0xA0 ADD PUSH1 0x40 MSTORE SWAP1 DUP2 PUSH1 0x0 DUP3 ADD SLOAD DUP2 MSTORE PUSH1 0x20 ADD PUSH1 0x1 DUP3 ADD PUSH1 0x0 SWAP1 SLOAD SWAP1 PUSH2 0x100 EXP SWAP1 DIV PUSH20 0xFFFFFFFFFFFFFFFFFFFFFFFFFFFFFFFFFFFFFFFF AND PUSH20 0xFFFFFFFFFFFFFFFFFFFFFFFFFFFFFFFFFFFFFFFF AND PUSH20 0xFFFFFFFFFFFFFFFFFFFFFFFFFFFFFFFFFFFFFFFF AND DUP2 MSTORE PUSH1 0x20 ADD PUSH1 0x2 DUP3 ADD DUP1 SLOAD PUSH2 0xA5F SWAP1 PUSH2 0x1520 JUMP JUMPDEST DUP1 PUSH1 0x1F ADD PUSH1 0x20 DUP1 SWAP2 DIV MUL PUSH1 0x20 ADD PUSH1 0x40 MLOAD SWAP1 DUP2 ADD PUSH1 0x40 MSTORE DUP1 SWAP3 SWAP2 SWAP1 DUP2 DUP2 MSTORE PUSH1 0x20 ADD DUP3 DUP1 SLOAD PUSH2 0xA8B SWAP1 PUSH2 0x1520 JUMP JUMPDEST DUP1 ISZERO PUSH2 0xAD8 JUMPI DUP1 PUSH1 0x1F LT PUSH2 0xAAD JUMPI PUSH2 0x100 DUP1 DUP4 SLOAD DIV MUL DUP4 MSTORE SWAP2 PUSH1 0x20 ADD SWAP2 PUSH2 0xAD8 JUMP JUMPDEST DUP3 ADD SWAP2 SWAP1 PUSH1 0x0 MSTORE PUSH1 0x20 PUSH1 0x0 KECCAK256 SWAP1 JUMPDEST DUP2 SLOAD DUP2 MSTORE SWAP1 PUSH1 0x1 ADD SWAP1 PUSH1 0x20 ADD DUP1 DUP4 GT PUSH2 0xABB JUMPI DUP3 SWAP1 SUB PUSH1 0x1F AND DUP3 ADD SWAP2 JUMPDEST POP POP POP POP POP DUP2 MSTORE PUSH1 0x20 ADD PUSH1 0x3 DUP3 ADD SLOAD DUP2 MSTORE PUSH1 0x20 ADD PUSH1 0x4 DUP3 ADD SLOAD DUP2 MSTORE POP POP SWAP1 POP SWAP2 SWAP1 POP JUMP JUMPDEST DUP2 PUSH1 0x2 PUSH1 0x0 DUP4 PUSH20 0xFFFFFFFFFFFFFFFFFFFFFFFFFFFFFFFFFFFFFFFF AND PUSH20 0xFFFFFFFFFFFFFFFFFFFFFFFFFFFFFFFFFFFFFFFF AND DUP2 MSTORE PUSH1 0x20 ADD SWAP1 DUP2 MSTORE PUSH1 0x20 ADD PUSH1 0x0 KECCAK256 PUSH1 0x0 DUP5 DUP2 MSTORE PUSH1 0x20 ADD SWAP1 DUP2 MSTORE PUSH1 0x20 ADD PUSH1 0x0 KECCAK256 PUSH1 0x0 ADD SLOAD EQ PUSH2 0xB91 JUMPI PUSH1 0x40 MLOAD PUSH32 0x8C379A000000000000000000000000000000000000000000000000000000000 DUP2 MSTORE PUSH1 0x4 ADD PUSH2 0xB88 SWAP1 PUSH2 0x1AD1 JUMP JUMPDEST PUSH1 0x40 MLOAD DUP1 SWAP2 SUB SWAP1 REVERT JUMPDEST PUSH1 0x2 PUSH1 0x0 DUP3 PUSH20 0xFFFFFFFFFFFFFFFFFFFFFFFFFFFFFFFFFFFFFFFF AND PUSH20 0xFFFFFFFFFFFFFFFFFFFFFFFFFFFFFFFFFFFFFFFF AND DUP2 MSTORE PUSH1 0x20 ADD SWAP1 DUP2 MSTORE PUSH1 0x20 ADD PUSH1 0x0 KECCAK256 PUSH1 0x0 DUP4 DUP2 MSTORE PUSH1 0x20 ADD SWAP1 DUP2 MSTORE PUSH1 0x20 ADD PUSH1 0x0 KECCAK256 PUSH1 0x4 ADD PUSH1 0x0 DUP2 SLOAD DUP1 SWAP3 SWAP2 SWAP1 PUSH2 0xBF5 SWAP1 PUSH2 0x192F JUMP JUMPDEST SWAP2 SWAP1 POP SSTORE POP PUSH32 0x3406CCE04214D6F2A48B440426569ED56DC2700C5801C7891E32D62E23CB2331 DUP3 DUP3 PUSH1 0x2 PUSH1 0x0 DUP6 PUSH20 0xFFFFFFFFFFFFFFFFFFFFFFFFFFFFFFFFFFFFFFFF AND PUSH20 0xFFFFFFFFFFFFFFFFFFFFFFFFFFFFFFFFFFFFFFFF AND DUP2 MSTORE PUSH1 0x20 ADD SWAP1 DUP2 MSTORE PUSH1 0x20 ADD PUSH1 0x0 KECCAK256 PUSH1 0x0 DUP7 DUP2 MSTORE PUSH1 0x20 ADD SWAP1 DUP2 MSTORE PUSH1 0x20 ADD PUSH1 0x0 KECCAK256 PUSH1 0x4 ADD SLOAD CALLER PUSH1 0x40 MLOAD PUSH2 0xC82 SWAP5 SWAP4 SWAP3 SWAP2 SWAP1 PUSH2 0x1A40 JUMP JUMPDEST PUSH1 0x40 MLOAD DUP1 SWAP2 SUB SWAP1 LOG1 POP POP JUMP JUMPDEST PUSH2 0xC96 PUSH2 0xD14 JUMP JUMPDEST PUSH1 0x0 PUSH20 0xFFFFFFFFFFFFFFFFFFFFFFFFFFFFFFFFFFFFFFFF AND DUP2 PUSH20 0xFFFFFFFFFFFFFFFFFFFFFFFFFFFFFFFFFFFFFFFF AND SUB PUSH2 0xD08 JUMPI PUSH1 0x0 PUSH1 0x40 MLOAD PUSH32 0x1E4FBDF700000000000000000000000000000000000000000000000000000000 DUP2 MSTORE PUSH1 0x4 ADD PUSH2 0xCFF SWAP2 SWAP1 PUSH2 0x13A5 JUMP JUMPDEST PUSH1 0x40 MLOAD DUP1 SWAP2 SUB SWAP1 REVERT JUMPDEST PUSH2 0xD11 DUP2 PUSH2 0xD9B JUMP JUMPDEST POP JUMP JUMPDEST PUSH2 0xD1C PUSH2 0xE5F JUMP JUMPDEST PUSH20 0xFFFFFFFFFFFFFFFFFFFFFFFFFFFFFFFFFFFFFFFF AND PUSH2 0xD3A PUSH2 0x7D0 JUMP JUMPDEST PUSH20 0xFFFFFFFFFFFFFFFFFFFFFFFFFFFFFFFFFFFFFFFF AND EQ PUSH2 0xD99 JUMPI PUSH2 0xD5D PUSH2 0xE5F JUMP JUMPDEST PUSH1 0x40 MLOAD PUSH32 0x118CDAA700000000000000000000000000000000000000000000000000000000 DUP2 MSTORE PUSH1 0x4 ADD PUSH2 0xD90 SWAP2 SWAP1 PUSH2 0x13A5 JUMP JUMPDEST PUSH1 0x40 MLOAD DUP1 SWAP2 SUB SWAP1 REVERT JUMPDEST JUMP JUMPDEST PUSH1 0x0 DUP1 PUSH1 0x0 SWAP1 SLOAD SWAP1 PUSH2 0x100 EXP SWAP1 DIV PUSH20 0xFFFFFFFFFFFFFFFFFFFFFFFFFFFFFFFFFFFFFFFF AND SWAP1 POP DUP2 PUSH1 0x0 DUP1 PUSH2 0x100 EXP DUP2 SLOAD DUP2 PUSH20 0xFFFFFFFFFFFFFFFFFFFFFFFFFFFFFFFFFFFFFFFF MUL NOT AND SWAP1 DUP4 PUSH20 0xFFFFFFFFFFFFFFFFFFFFFFFFFFFFFFFFFFFFFFFF AND MUL OR SWAP1 SSTORE POP DUP2 PUSH20 0xFFFFFFFFFFFFFFFFFFFFFFFFFFFFFFFFFFFFFFFF AND DUP2 PUSH20 0xFFFFFFFFFFFFFFFFFFFFFFFFFFFFFFFFFFFFFFFF AND PUSH32 0x8BE0079C531659141344CD1FD0A4F28419497F9722A3DAAFE3B4186F6B6457E0 PUSH1 0x40 MLOAD PUSH1 0x40 MLOAD DUP1 SWAP2 SUB SWAP1 LOG3 POP POP JUMP JUMPDEST PUSH1 0x0 CALLER SWAP1 POP SWAP1 JUMP JUMPDEST PUSH1 0x40 MLOAD DUP1 PUSH1 0xA0 ADD PUSH1 0x40 MSTORE DUP1 PUSH1 0x0 DUP2 MSTORE PUSH1 0x20 ADD PUSH1 0x0 PUSH20 0xFFFFFFFFFFFFFFFFFFFFFFFFFFFFFFFFFFFFFFFF AND DUP2 MSTORE PUSH1 0x20 ADD PUSH1 0x60 DUP2 MSTORE PUSH1 0x20 ADD PUSH1 0x0 DUP2 MSTORE PUSH1 0x20 ADD PUSH1 0x0 DUP2 MSTORE POP SWAP1 JUMP JUMPDEST PUSH1 0x0 PUSH1 0x40 MLOAD SWAP1 POP SWAP1 JUMP JUMPDEST PUSH1 0x0 DUP1 REVERT JUMPDEST PUSH1 0x0 DUP1 REVERT JUMPDEST PUSH1 0x0 PUSH20 0xFFFFFFFFFFFFFFFFFFFFFFFFFFFFFFFFFFFFFFFF DUP3 AND SWAP1 POP SWAP2 SWAP1 POP JUMP JUMPDEST PUSH1 0x0 PUSH2 0xEEB DUP3 PUSH2 0xEC0 JUMP JUMPDEST SWAP1 POP SWAP2 SWAP1 POP JUMP JUMPDEST PUSH2 0xEFB DUP2 PUSH2 0xEE0 JUMP JUMPDEST DUP2 EQ PUSH2 0xF06 JUMPI PUSH1 0x0 DUP1 REVERT JUMPDEST POP JUMP JUMPDEST PUSH1 0x0 DUP2 CALLDATALOAD SWAP1 POP PUSH2 0xF18 DUP2 PUSH2 0xEF2 JUMP JUMPDEST SWAP3 SWAP2 POP POP JUMP JUMPDEST PUSH1 0x0 PUSH1 0x20 DUP3 DUP5 SUB SLT ISZERO PUSH2 0xF34 JUMPI PUSH2 0xF33 PUSH2 0xEB6 JUMP JUMPDEST JUMPDEST PUSH1 0x0 PUSH2 0xF42 DUP5 DUP3 DUP6 ADD PUSH2 0xF09 JUMP JUMPDEST SWAP2 POP POP SWAP3 SWAP2 POP POP JUMP JUMPDEST PUSH1 0x0 DUP2 MLOAD SWAP1 POP SWAP2 SWAP1 POP JUMP JUMPDEST PUSH1 0x0 DUP3 DUP3 MSTORE PUSH1 0x20 DUP3 ADD SWAP1 POP SWAP3 SWAP2 POP POP JUMP JUMPDEST PUSH1 0x0 DUP2 SWAP1 POP PUSH1 0x20 DUP3 ADD SWAP1 POP SWAP2 SWAP1 POP JUMP JUMPDEST PUSH1 0x0 DUP2 SWAP1 POP SWAP2 SWAP1 POP JUMP JUMPDEST PUSH2 0xF8A DUP2 PUSH2 0xF77 JUMP JUMPDEST DUP3 MSTORE POP POP JUMP JUMPDEST PUSH2 0xF99 DUP2 PUSH2 0xEE0 JUMP JUMPDEST DUP3 MSTORE POP POP JUMP JUMPDEST PUSH1 0x0 DUP2 MLOAD SWAP1 POP SWAP2 SWAP1 POP JUMP JUMPDEST PUSH1 0x0 DUP3 DUP3 MSTORE PUSH1 0x20 DUP3 ADD SWAP1 POP SWAP3 SWAP2 POP POP JUMP JUMPDEST PUSH1 0x0 JUMPDEST DUP4 DUP2 LT ISZERO PUSH2 0xFD9 JUMPI DUP1 DUP3 ADD MLOAD DUP2 DUP5 ADD MSTORE PUSH1 0x20 DUP2 ADD SWAP1 POP PUSH2 0xFBE JUMP JUMPDEST PUSH1 0x0 DUP5 DUP5 ADD MSTORE POP POP POP POP JUMP JUMPDEST PUSH1 0x0 PUSH1 0x1F NOT PUSH1 0x1F DUP4 ADD AND SWAP1 POP SWAP2 SWAP1 POP JUMP JUMPDEST PUSH1 0x0 PUSH2 0x1001 DUP3 PUSH2 0xF9F JUMP JUMPDEST PUSH2 0x100B DUP2 DUP6 PUSH2 0xFAA JUMP JUMPDEST SWAP4 POP PUSH2 0x101B DUP2 DUP6 PUSH1 0x20 DUP7 ADD PUSH2 0xFBB JUMP JUMPDEST PUSH2 0x1024 DUP2 PUSH2 0xFE5 JUMP JUMPDEST DUP5 ADD SWAP2 POP POP SWAP3 SWAP2 POP POP JUMP JUMPDEST PUSH1 0x0 PUSH1 0xA0 DUP4 ADD PUSH1 0x0 DUP4 ADD MLOAD PUSH2 0x1047 PUSH1 0x0 DUP7 ADD DUP3 PUSH2 0xF81 JUMP JUMPDEST POP PUSH1 0x20 DUP4 ADD MLOAD PUSH2 0x105A PUSH1 0x20 DUP7 ADD DUP3 PUSH2 0xF90 JUMP JUMPDEST POP PUSH1 0x40 DUP4 ADD MLOAD DUP5 DUP3 SUB PUSH1 0x40 DUP7 ADD MSTORE PUSH2 0x1072 DUP3 DUP3 PUSH2 0xFF6 JUMP JUMPDEST SWAP2 POP POP PUSH1 0x60 DUP4 ADD MLOAD PUSH2 0x1087 PUSH1 0x60 DUP7 ADD DUP3 PUSH2 0xF81 JUMP JUMPDEST POP PUSH1 0x80 DUP4 ADD MLOAD PUSH2 0x109A PUSH1 0x80 DUP7 ADD DUP3 PUSH2 0xF81 JUMP JUMPDEST POP DUP1 SWAP2 POP POP SWAP3 SWAP2 POP POP JUMP JUMPDEST PUSH1 0x0 PUSH2 0x10B1 DUP4 DUP4 PUSH2 0x102F JUMP JUMPDEST SWAP1 POP SWAP3 SWAP2 POP POP JUMP JUMPDEST PUSH1 0x0 PUSH1 0x20 DUP3 ADD SWAP1 POP SWAP2 SWAP1 POP JUMP JUMPDEST PUSH1 0x0 PUSH2 0x10D1 DUP3 PUSH2 0xF4B JUMP JUMPDEST PUSH2 0x10DB DUP2 DUP6 PUSH2 0xF56 JUMP JUMPDEST SWAP4 POP DUP4 PUSH1 0x20 DUP3 MUL DUP6 ADD PUSH2 0x10ED DUP6 PUSH2 0xF67 JUMP JUMPDEST DUP1 PUSH1 0x0 JUMPDEST DUP6 DUP2 LT ISZERO PUSH2 0x1129 JUMPI DUP5 DUP5 SUB DUP10 MSTORE DUP2 MLOAD PUSH2 0x110A DUP6 DUP3 PUSH2 0x10A5 JUMP JUMPDEST SWAP5 POP PUSH2 0x1115 DUP4 PUSH2 0x10B9 JUMP JUMPDEST SWAP3 POP PUSH1 0x20 DUP11 ADD SWAP10 POP POP PUSH1 0x1 DUP2 ADD SWAP1 POP PUSH2 0x10F1 JUMP JUMPDEST POP DUP3 SWAP8 POP DUP8 SWAP6 POP POP POP POP POP POP SWAP3 SWAP2 POP POP JUMP JUMPDEST PUSH1 0x0 PUSH1 0x20 DUP3 ADD SWAP1 POP DUP2 DUP2 SUB PUSH1 0x0 DUP4 ADD MSTORE PUSH2 0x1155 DUP2 DUP5 PUSH2 0x10C6 JUMP JUMPDEST SWAP1 POP SWAP3 SWAP2 POP POP JUMP JUMPDEST PUSH1 0x0 PUSH2 0xFFFF DUP3 AND SWAP1 POP SWAP2 SWAP1 POP JUMP JUMPDEST PUSH2 0x1174 DUP2 PUSH2 0x115D JUMP JUMPDEST DUP2 EQ PUSH2 0x117F JUMPI PUSH1 0x0 DUP1 REVERT JUMPDEST POP JUMP JUMPDEST PUSH1 0x0 DUP2 CALLDATALOAD SWAP1 POP PUSH2 0x1191 DUP2 PUSH2 0x116B JUMP JUMPDEST SWAP3 SWAP2 POP POP JUMP JUMPDEST PUSH1 0x0 PUSH1 0x20 DUP3 DUP5 SUB SLT ISZERO PUSH2 0x11AD JUMPI PUSH2 0x11AC PUSH2 0xEB6 JUMP JUMPDEST JUMPDEST PUSH1 0x0 PUSH2 0x11BB DUP5 DUP3 DUP6 ADD PUSH2 0x1182 JUMP JUMPDEST SWAP2 POP POP SWAP3 SWAP2 POP POP JUMP JUMPDEST PUSH2 0x11CD DUP2 PUSH2 0x115D JUMP JUMPDEST DUP3 MSTORE POP POP JUMP JUMPDEST PUSH1 0x0 PUSH1 0x20 DUP3 ADD SWAP1 POP PUSH2 0x11E8 PUSH1 0x0 DUP4 ADD DUP5 PUSH2 0x11C4 JUMP JUMPDEST SWAP3 SWAP2 POP POP JUMP JUMPDEST PUSH1 0x0 DUP1 REVERT JUMPDEST PUSH1 0x0 DUP1 REVERT JUMPDEST PUSH32 0x4E487B7100000000000000000000000000000000000000000000000000000000 PUSH1 0x0 MSTORE PUSH1 0x41 PUSH1 0x4 MSTORE PUSH1 0x24 PUSH1 0x0 REVERT JUMPDEST PUSH2 0x1230 DUP3 PUSH2 0xFE5 JUMP JUMPDEST DUP2 ADD DUP2 DUP2 LT PUSH8 0xFFFFFFFFFFFFFFFF DUP3 GT OR ISZERO PUSH2 0x124F JUMPI PUSH2 0x124E PUSH2 0x11F8 JUMP JUMPDEST JUMPDEST DUP1 PUSH1 0x40 MSTORE POP POP POP JUMP JUMPDEST PUSH1 0x0 PUSH2 0x1262 PUSH2 0xEAC JUMP JUMPDEST SWAP1 POP PUSH2 0x126E DUP3 DUP3 PUSH2 0x1227 JUMP JUMPDEST SWAP2 SWAP1 POP JUMP JUMPDEST PUSH1 0x0 PUSH8 0xFFFFFFFFFFFFFFFF DUP3 GT ISZERO PUSH2 0x128E JUMPI PUSH2 0x128D PUSH2 0x11F8 JUMP JUMPDEST JUMPDEST PUSH2 0x1297 DUP3 PUSH2 0xFE5 JUMP JUMPDEST SWAP1 POP PUSH1 0x20 DUP2 ADD SWAP1 POP SWAP2 SWAP1 POP JUMP JUMPDEST DUP3 DUP2 DUP4 CALLDATACOPY PUSH1 0x0 DUP4 DUP4 ADD MSTORE POP POP POP JUMP JUMPDEST PUSH1 0x0 PUSH2 0x12C6 PUSH2 0x12C1 DUP5 PUSH2 0x1273 JUMP JUMPDEST PUSH2 0x1258 JUMP JUMPDEST SWAP1 POP DUP3 DUP2 MSTORE PUSH1 0x20 DUP2 ADD DUP5 DUP5 DUP5 ADD GT ISZERO PUSH2 0x12E2 JUMPI PUSH2 0x12E1 PUSH2 0x11F3 JUMP JUMPDEST JUMPDEST PUSH2 0x12ED DUP5 DUP3 DUP6 PUSH2 0x12A4 JUMP JUMPDEST POP SWAP4 SWAP3 POP POP POP JUMP JUMPDEST PUSH1 0x0 DUP3 PUSH1 0x1F DUP4 ADD SLT PUSH2 0x130A JUMPI PUSH2 0x1309 PUSH2 0x11EE JUMP JUMPDEST JUMPDEST DUP2 CALLDATALOAD PUSH2 0x131A DUP5 DUP3 PUSH1 0x20 DUP7 ADD PUSH2 0x12B3 JUMP JUMPDEST SWAP2 POP POP SWAP3 SWAP2 POP POP JUMP JUMPDEST PUSH1 0x0 PUSH1 0x20 DUP3 DUP5 SUB SLT ISZERO PUSH2 0x1339 JUMPI PUSH2 0x1338 PUSH2 0xEB6 JUMP JUMPDEST JUMPDEST PUSH1 0x0 DUP3 ADD CALLDATALOAD PUSH8 0xFFFFFFFFFFFFFFFF DUP2 GT ISZERO PUSH2 0x1357 JUMPI PUSH2 0x1356 PUSH2 0xEBB JUMP JUMPDEST JUMPDEST PUSH2 0x1363 DUP5 DUP3 DUP6 ADD PUSH2 0x12F5 JUMP JUMPDEST SWAP2 POP POP SWAP3 SWAP2 POP POP JUMP JUMPDEST PUSH2 0x1375 DUP2 PUSH2 0xF77 JUMP JUMPDEST DUP3 MSTORE POP POP JUMP JUMPDEST PUSH1 0x0 PUSH1 0x20 DUP3 ADD SWAP1 POP PUSH2 0x1390 PUSH1 0x0 DUP4 ADD DUP5 PUSH2 0x136C JUMP JUMPDEST SWAP3 SWAP2 POP POP JUMP JUMPDEST PUSH2 0x139F DUP2 PUSH2 0xEE0 JUMP JUMPDEST DUP3 MSTORE POP POP JUMP JUMPDEST PUSH1 0x0 PUSH1 0x20 DUP3 ADD SWAP1 POP PUSH2 0x13BA PUSH1 0x0 DUP4 ADD DUP5 PUSH2 0x1396 JUMP JUMPDEST SWAP3 SWAP2 POP POP JUMP JUMPDEST PUSH2 0x13C9 DUP2 PUSH2 0xF77 JUMP JUMPDEST DUP2 EQ PUSH2 0x13D4 JUMPI PUSH1 0x0 DUP1 REVERT JUMPDEST POP JUMP JUMPDEST PUSH1 0x0 DUP2 CALLDATALOAD SWAP1 POP PUSH2 0x13E6 DUP2 PUSH2 0x13C0 JUMP JUMPDEST SWAP3 SWAP2 POP POP JUMP JUMPDEST PUSH1 0x0 DUP1 PUSH1 0x40 DUP4 DUP6 SUB SLT ISZERO PUSH2 0x1403 JUMPI PUSH2 0x1402 PUSH2 0xEB6 JUMP JUMPDEST JUMPDEST PUSH1 0x0 PUSH2 0x1411 DUP6 DUP3 DUP7 ADD PUSH2 0x13D7 JUMP JUMPDEST SWAP3 POP POP PUSH1 0x20 PUSH2 0x1422 DUP6 DUP3 DUP7 ADD PUSH2 0xF09 JUMP JUMPDEST SWAP2 POP POP SWAP3 POP SWAP3 SWAP1 POP JUMP JUMPDEST PUSH1 0x0 PUSH1 0x20 DUP3 DUP5 SUB SLT ISZERO PUSH2 0x1442 JUMPI PUSH2 0x1441 PUSH2 0xEB6 JUMP JUMPDEST JUMPDEST PUSH1 0x0 PUSH2 0x1450 DUP5 DUP3 DUP6 ADD PUSH2 0x13D7 JUMP JUMPDEST SWAP2 POP POP SWAP3 SWAP2 POP POP JUMP JUMPDEST PUSH1 0x0 PUSH1 0xA0 DUP4 ADD PUSH1 0x0 DUP4 ADD MLOAD PUSH2 0x1471 PUSH1 0x0 DUP7 ADD DUP3 PUSH2 0xF81 JUMP JUMPDEST POP PUSH1 0x20 DUP4 ADD MLOAD PUSH2 0x1484 PUSH1 0x20 DUP7 ADD DUP3 PUSH2 0xF90 JUMP JUMPDEST POP PUSH1 0x40 DUP4 ADD MLOAD DUP5 DUP3 SUB PUSH1 0x40 DUP7 ADD MSTORE PUSH2 0x149C DUP3 DUP3 PUSH2 0xFF6 JUMP JUMPDEST SWAP2 POP POP PUSH1 0x60 DUP4 ADD MLOAD PUSH2 0x14B1 PUSH1 0x60 DUP7 ADD DUP3 PUSH2 0xF81 JUMP JUMPDEST POP PUSH1 0x80 DUP4 ADD MLOAD PUSH2 0x14C4 PUSH1 0x80 DUP7 ADD DUP3 PUSH2 0xF81 JUMP JUMPDEST POP DUP1 SWAP2 POP POP SWAP3 SWAP2 POP POP JUMP JUMPDEST PUSH1 0x0 PUSH1 0x20 DUP3 ADD SWAP1 POP DUP2 DUP2 SUB PUSH1 0x0 DUP4 ADD MSTORE PUSH2 0x14E9 DUP2 DUP5 PUSH2 0x1459 JUMP JUMPDEST SWAP1 POP SWAP3 SWAP2 POP POP JUMP JUMPDEST PUSH32 0x4E487B7100000000000000000000000000000000000000000000000000000000 PUSH1 0x0 MSTORE PUSH1 0x22 PUSH1 0x4 MSTORE PUSH1 0x24 PUSH1 0x0 REVERT JUMPDEST PUSH1 0x0 PUSH1 0x2 DUP3 DIV SWAP1 POP PUSH1 0x1 DUP3 AND DUP1 PUSH2 0x1538 JUMPI PUSH1 0x7F DUP3 AND SWAP2 POP JUMPDEST PUSH1 0x20 DUP3 LT DUP2 SUB PUSH2 0x154B JUMPI PUSH2 0x154A PUSH2 0x14F1 JUMP JUMPDEST JUMPDEST POP SWAP2 SWAP1 POP JUMP JUMPDEST PUSH32 0x4E487B7100000000000000000000000000000000000000000000000000000000 PUSH1 0x0 MSTORE PUSH1 0x32 PUSH1 0x4 MSTORE PUSH1 0x24 PUSH1 0x0 REVERT JUMPDEST PUSH1 0x0 DUP3 DUP3 MSTORE PUSH1 0x20 DUP3 ADD SWAP1 POP SWAP3 SWAP2 POP POP JUMP JUMPDEST PUSH32 0x547765657420636F6E74656E74206973206C656E677468790000000000000000 PUSH1 0x0 DUP3 ADD MSTORE POP JUMP JUMPDEST PUSH1 0x0 PUSH2 0x15C7 PUSH1 0x18 DUP4 PUSH2 0x1580 JUMP JUMPDEST SWAP2 POP PUSH2 0x15D2 DUP3 PUSH2 0x1591 JUMP JUMPDEST PUSH1 0x20 DUP3 ADD SWAP1 POP SWAP2 SWAP1 POP JUMP JUMPDEST PUSH1 0x0 PUSH1 0x20 DUP3 ADD SWAP1 POP DUP2 DUP2 SUB PUSH1 0x0 DUP4 ADD MSTORE PUSH2 0x15F6 DUP2 PUSH2 0x15BA JUMP JUMPDEST SWAP1 POP SWAP2 SWAP1 POP JUMP JUMPDEST PUSH1 0x0 DUP2 SWAP1 POP DUP2 PUSH1 0x0 MSTORE PUSH1 0x20 PUSH1 0x0 KECCAK256 SWAP1 POP SWAP2 SWAP1 POP JUMP JUMPDEST PUSH1 0x0 PUSH1 0x20 PUSH1 0x1F DUP4 ADD DIV SWAP1 POP SWAP2 SWAP1 POP JUMP JUMPDEST PUSH1 0x0 DUP3 DUP3 SHL SWAP1 POP SWAP3 SWAP2 POP POP JUMP JUMPDEST PUSH1 0x0 PUSH1 0x8 DUP4 MUL PUSH2 0x165F PUSH32 0xFFFFFFFFFFFFFFFFFFFFFFFFFFFFFFFFFFFFFFFFFFFFFFFFFFFFFFFFFFFFFFFF DUP3 PUSH2 0x1622 JUMP JUMPDEST PUSH2 0x1669 DUP7 DUP4 PUSH2 0x1622 JUMP JUMPDEST SWAP6 POP DUP1 NOT DUP5 AND SWAP4 POP DUP1 DUP7 AND DUP5 OR SWAP3 POP POP POP SWAP4 SWAP3 POP POP POP JUMP JUMPDEST PUSH1 0x0 DUP2 SWAP1 POP SWAP2 SWAP1 POP JUMP JUMPDEST PUSH1 0x0 PUSH2 0x16A6 PUSH2 0x16A1 PUSH2 0x169C DUP5 PUSH2 0xF77 JUMP JUMPDEST PUSH2 0x1681 JUMP JUMPDEST PUSH2 0xF77 JUMP JUMPDEST SWAP1 POP SWAP2 SWAP1 POP JUMP JUMPDEST PUSH1 0x0 DUP2 SWAP1 POP SWAP2 SWAP1 POP JUMP JUMPDEST PUSH2 0x16C0 DUP4 PUSH2 0x168B JUMP JUMPDEST PUSH2 0x16D4 PUSH2 0x16CC DUP3 PUSH2 0x16AD JUMP JUMPDEST DUP5 DUP5 SLOAD PUSH2 0x162F JUMP JUMPDEST DUP3 SSTORE POP POP POP POP JUMP JUMPDEST PUSH1 0x0 SWAP1 JUMP JUMPDEST PUSH2 0x16E9 PUSH2 0x16DC JUMP JUMPDEST PUSH2 0x16F4 DUP2 DUP5 DUP5 PUSH2 0x16B7 JUMP JUMPDEST POP POP POP JUMP JUMPDEST JUMPDEST DUP2 DUP2 LT ISZERO PUSH2 0x1718 JUMPI PUSH2 0x170D PUSH1 0x0 DUP3 PUSH2 0x16E1 JUMP JUMPDEST PUSH1 0x1 DUP2 ADD SWAP1 POP PUSH2 0x16FA JUMP JUMPDEST POP POP JUMP JUMPDEST PUSH1 0x1F DUP3 GT ISZERO PUSH2 0x175D JUMPI PUSH2 0x172E DUP2 PUSH2 0x15FD JUMP JUMPDEST PUSH2 0x1737 DUP5 PUSH2 0x1612 JUMP JUMPDEST DUP2 ADD PUSH1 0x20 DUP6 LT ISZERO PUSH2 0x1746 JUMPI DUP2 SWAP1 POP JUMPDEST PUSH2 0x175A PUSH2 0x1752 DUP6 PUSH2 0x1612 JUMP JUMPDEST DUP4 ADD DUP3 PUSH2 0x16F9 JUMP JUMPDEST POP POP JUMPDEST POP POP POP JUMP JUMPDEST PUSH1 0x0 DUP3 DUP3 SHR SWAP1 POP SWAP3 SWAP2 POP POP JUMP JUMPDEST PUSH1 0x0 PUSH2 0x1780 PUSH1 0x0 NOT DUP5 PUSH1 0x8 MUL PUSH2 0x1762 JUMP JUMPDEST NOT DUP1 DUP4 AND SWAP2 POP POP SWAP3 SWAP2 POP POP JUMP JUMPDEST PUSH1 0x0 PUSH2 0x1799 DUP4 DUP4 PUSH2 0x176F JUMP JUMPDEST SWAP2 POP DUP3 PUSH1 0x2 MUL DUP3 OR SWAP1 POP SWAP3 SWAP2 POP POP JUMP JUMPDEST PUSH2 0x17B2 DUP3 PUSH2 0xF9F JUMP JUMPDEST PUSH8 0xFFFFFFFFFFFFFFFF DUP2 GT ISZERO PUSH2 0x17CB JUMPI PUSH2 0x17CA PUSH2 0x11F8 JUMP JUMPDEST JUMPDEST PUSH2 0x17D5 DUP3 SLOAD PUSH2 0x1520 JUMP JUMPDEST PUSH2 0x17E0 DUP3 DUP3 DUP6 PUSH2 0x171C JUMP JUMPDEST PUSH1 0x0 PUSH1 0x20 SWAP1 POP PUSH1 0x1F DUP4 GT PUSH1 0x1 DUP2 EQ PUSH2 0x1813 JUMPI PUSH1 0x0 DUP5 ISZERO PUSH2 0x1801 JUMPI DUP3 DUP8 ADD MLOAD SWAP1 POP JUMPDEST PUSH2 0x180B DUP6 DUP3 PUSH2 0x178D JUMP JUMPDEST DUP7 SSTORE POP PUSH2 0x1873 JUMP JUMPDEST PUSH1 0x1F NOT DUP5 AND PUSH2 0x1821 DUP7 PUSH2 0x15FD JUMP JUMPDEST PUSH1 0x0 JUMPDEST DUP3 DUP2 LT ISZERO PUSH2 0x1849 JUMPI DUP5 DUP10 ADD MLOAD DUP3 SSTORE PUSH1 0x1 DUP3 ADD SWAP2 POP PUSH1 0x20 DUP6 ADD SWAP5 POP PUSH1 0x20 DUP2 ADD SWAP1 POP PUSH2 0x1824 JUMP JUMPDEST DUP7 DUP4 LT ISZERO PUSH2 0x1866 JUMPI DUP5 DUP10 ADD MLOAD PUSH2 0x1862 PUSH1 0x1F DUP10 AND DUP3 PUSH2 0x176F JUMP JUMPDEST DUP4 SSTORE POP JUMPDEST PUSH1 0x1 PUSH1 0x2 DUP9 MUL ADD DUP9 SSTORE POP POP POP JUMPDEST POP POP POP POP POP POP JUMP JUMPDEST PUSH1 0x0 PUSH2 0x1886 DUP3 PUSH2 0xF9F JUMP JUMPDEST PUSH2 0x1890 DUP2 DUP6 PUSH2 0x1580 JUMP JUMPDEST SWAP4 POP PUSH2 0x18A0 DUP2 DUP6 PUSH1 0x20 DUP7 ADD PUSH2 0xFBB JUMP JUMPDEST PUSH2 0x18A9 DUP2 PUSH2 0xFE5 JUMP JUMPDEST DUP5 ADD SWAP2 POP POP SWAP3 SWAP2 POP POP JUMP JUMPDEST PUSH1 0x0 PUSH1 0x80 DUP3 ADD SWAP1 POP PUSH2 0x18C9 PUSH1 0x0 DUP4 ADD DUP8 PUSH2 0x136C JUMP JUMPDEST PUSH2 0x18D6 PUSH1 0x20 DUP4 ADD DUP7 PUSH2 0x1396 JUMP JUMPDEST DUP2 DUP2 SUB PUSH1 0x40 DUP4 ADD MSTORE PUSH2 0x18E8 DUP2 DUP6 PUSH2 0x187B JUMP JUMPDEST SWAP1 POP PUSH2 0x18F7 PUSH1 0x60 DUP4 ADD DUP5 PUSH2 0x136C JUMP JUMPDEST SWAP6 SWAP5 POP POP POP POP POP JUMP JUMPDEST PUSH32 0x4E487B7100000000000000000000000000000000000000000000000000000000 PUSH1 0x0 MSTORE PUSH1 0x11 PUSH1 0x4 MSTORE PUSH1 0x24 PUSH1 0x0 REVERT JUMPDEST PUSH1 0x0 PUSH2 0x193A DUP3 PUSH2 0xF77 JUMP JUMPDEST SWAP2 POP PUSH32 0xFFFFFFFFFFFFFFFFFFFFFFFFFFFFFFFFFFFFFFFFFFFFFFFFFFFFFFFFFFFFFFFF DUP3 SUB PUSH2 0x196C JUMPI PUSH2 0x196B PUSH2 0x1900 JUMP JUMPDEST JUMPDEST PUSH1 0x1 DUP3 ADD SWAP1 POP SWAP2 SWAP1 POP JUMP JUMPDEST PUSH1 0x0 PUSH2 0x1982 DUP3 PUSH2 0xF77 JUMP JUMPDEST SWAP2 POP PUSH2 0x198D DUP4 PUSH2 0xF77 JUMP JUMPDEST SWAP3 POP DUP3 DUP3 ADD SWAP1 POP DUP1 DUP3 GT ISZERO PUSH2 0x19A5 JUMPI PUSH2 0x19A4 PUSH2 0x1900 JUMP JUMPDEST JUMPDEST SWAP3 SWAP2 POP POP JUMP JUMPDEST PUSH32 0x4C696B65732068617665206E6F74206164646564207965740000000000000000 PUSH1 0x0 DUP3 ADD MSTORE POP JUMP JUMPDEST PUSH1 0x0 PUSH2 0x19E1 PUSH1 0x18 DUP4 PUSH2 0x1580 JUMP JUMPDEST SWAP2 POP PUSH2 0x19EC DUP3 PUSH2 0x19AB JUMP JUMPDEST PUSH1 0x20 DUP3 ADD SWAP1 POP SWAP2 SWAP1 POP JUMP JUMPDEST PUSH1 0x0 PUSH1 0x20 DUP3 ADD SWAP1 POP DUP2 DUP2 SUB PUSH1 0x0 DUP4 ADD MSTORE PUSH2 0x1A10 DUP2 PUSH2 0x19D4 JUMP JUMPDEST SWAP1 POP SWAP2 SWAP1 POP JUMP JUMPDEST PUSH1 0x0 PUSH2 0x1A22 DUP3 PUSH2 0xF77 JUMP JUMPDEST SWAP2 POP PUSH1 0x0 DUP3 SUB PUSH2 0x1A35 JUMPI PUSH2 0x1A34 PUSH2 0x1900 JUMP JUMPDEST JUMPDEST PUSH1 0x1 DUP3 SUB SWAP1 POP SWAP2 SWAP1 POP JUMP JUMPDEST PUSH1 0x0 PUSH1 0x80 DUP3 ADD SWAP1 POP PUSH2 0x1A55 PUSH1 0x0 DUP4 ADD DUP8 PUSH2 0x136C JUMP JUMPDEST PUSH2 0x1A62 PUSH1 0x20 DUP4 ADD DUP7 PUSH2 0x1396 JUMP JUMPDEST PUSH2 0x1A6F PUSH1 0x40 DUP4 ADD DUP6 PUSH2 0x136C JUMP JUMPDEST PUSH2 0x1A7C PUSH1 0x60 DUP4 ADD DUP5 PUSH2 0x1396 JUMP JUMPDEST SWAP6 SWAP5 POP POP POP POP POP JUMP JUMPDEST PUSH32 0x547765657420646F6573206E6F74206578697374000000000000000000000000 PUSH1 0x0 DUP3 ADD MSTORE POP JUMP JUMPDEST PUSH1 0x0 PUSH2 0x1ABB PUSH1 0x14 DUP4 PUSH2 0x1580 JUMP JUMPDEST SWAP2 POP PUSH2 0x1AC6 DUP3 PUSH2 0x1A85 JUMP JUMPDEST PUSH1 0x20 DUP3 ADD SWAP1 POP SWAP2 SWAP1 POP JUMP JUMPDEST PUSH1 0x0 PUSH1 0x20 DUP3 ADD SWAP1 POP DUP2 DUP2 SUB PUSH1 0x0 DUP4 ADD MSTORE PUSH2 0x1AEA DUP2 PUSH2 0x1AAE JUMP JUMPDEST SWAP1 POP SWAP2 SWAP1 POP JUMP INVALID LOG2 PUSH5 0x6970667358 0x22 SLT KECCAK256 0xEC 0x2F 0xE5 SELFDESTRUCT SWAP1 POP EXTCODEHASH 0x21 0xF8 MUL STOP PUSH21 0x82DF169CC8F1E3C1ED79D71CEB6A04D349EB57A464 PUSH20 0x6F6C634300081800330000000000000000000000 "
				},
				"gasEstimates": {
					"creation": {
						"codeDepositCost": "1390200",
						"executionCost": "infinite",
						"totalCost": "infinite"
					},
					"external": {
						"MAX_TWEET_LENGTH()": "2566",
						"changeTweetLength(uint16)": "infinite",
						"createTweet(string)": "infinite",
						"getAllTweets(address)": "infinite",
						"getOwner()": "2557",
						"getTotalLikes(address)": "infinite",
						"getTweet(uint256)": "infinite",
						"likeTweet(uint256,address)": "infinite",
						"owner()": "2544",
						"renounceOwnership()": "infinite",
						"transferOwnership(address)": "infinite",
						"unlikeTweet(uint256,address)": "infinite"
					}
				},
				"methodIdentifiers": {
					"MAX_TWEET_LENGTH()": "6eb10797",
					"changeTweetLength(uint16)": "58bfa4ab",
					"createTweet(string)": "7c9cd2bc",
					"getAllTweets(address)": "12e7ee1c",
					"getOwner()": "893d20e8",
					"getTotalLikes(address)": "820785cc",
					"getTweet(uint256)": "c3ad5ecb",
					"likeTweet(uint256,address)": "d04ddaa0",
					"owner()": "8da5cb5b",
					"renounceOwnership()": "715018a6",
					"transferOwnership(address)": "f2fde38b",
					"unlikeTweet(uint256,address)": "a1488f7c"
				}
			},
			"storageLayout": {
				"storage": [
					{
						"astId": 8,
						"contract": "contracts/Twitter.sol:Twitter",
						"label": "_owner",
						"offset": 0,
						"slot": "0",
						"type": "t_address"
					},
					{
						"astId": 185,
						"contract": "contracts/Twitter.sol:Twitter",
						"label": "MAX_TWEET_LENGTH",
						"offset": 20,
						"slot": "0",
						"type": "t_uint16"
					},
					{
						"astId": 188,
						"contract": "contracts/Twitter.sol:Twitter",
						"label": "currentTweetId",
						"offset": 0,
						"slot": "1",
						"type": "t_uint256"
					},
					{
						"astId": 206,
						"contract": "contracts/Twitter.sol:Twitter",
						"label": "tweets",
						"offset": 0,
						"slot": "2",
						"type": "t_mapping(t_address,t_mapping(t_uint256,t_struct(Tweet)199_storage))"
					},
					{
						"astId": 210,
						"contract": "contracts/Twitter.sol:Twitter",
						"label": "tweetCount",
						"offset": 0,
						"slot": "3",
						"type": "t_mapping(t_address,t_uint256)"
					}
				],
				"types": {
					"t_address": {
						"encoding": "inplace",
						"label": "address",
						"numberOfBytes": "20"
					},
					"t_mapping(t_address,t_mapping(t_uint256,t_struct(Tweet)199_storage))": {
						"encoding": "mapping",
						"key": "t_address",
						"label": "mapping(address => mapping(uint256 => struct Twitter.Tweet))",
						"numberOfBytes": "32",
						"value": "t_mapping(t_uint256,t_struct(Tweet)199_storage)"
					},
					"t_mapping(t_address,t_uint256)": {
						"encoding": "mapping",
						"key": "t_address",
						"label": "mapping(address => uint256)",
						"numberOfBytes": "32",
						"value": "t_uint256"
					},
					"t_mapping(t_uint256,t_struct(Tweet)199_storage)": {
						"encoding": "mapping",
						"key": "t_uint256",
						"label": "mapping(uint256 => struct Twitter.Tweet)",
						"numberOfBytes": "32",
						"value": "t_struct(Tweet)199_storage"
					},
					"t_string_storage": {
						"encoding": "bytes",
						"label": "string",
						"numberOfBytes": "32"
					},
					"t_struct(Tweet)199_storage": {
						"encoding": "inplace",
						"label": "struct Twitter.Tweet",
						"members": [
							{
								"astId": 190,
								"contract": "contracts/Twitter.sol:Twitter",
								"label": "id",
								"offset": 0,
								"slot": "0",
								"type": "t_uint256"
							},
							{
								"astId": 192,
								"contract": "contracts/Twitter.sol:Twitter",
								"label": "author",
								"offset": 0,
								"slot": "1",
								"type": "t_address"
							},
							{
								"astId": 194,
								"contract": "contracts/Twitter.sol:Twitter",
								"label": "content",
								"offset": 0,
								"slot": "2",
								"type": "t_string_storage"
							},
							{
								"astId": 196,
								"contract": "contracts/Twitter.sol:Twitter",
								"label": "timestamp",
								"offset": 0,
								"slot": "3",
								"type": "t_uint256"
							},
							{
								"astId": 198,
								"contract": "contracts/Twitter.sol:Twitter",
								"label": "likes",
								"offset": 0,
								"slot": "4",
								"type": "t_uint256"
							}
						],
						"numberOfBytes": "160"
					},
					"t_uint16": {
						"encoding": "inplace",
						"label": "uint16",
						"numberOfBytes": "2"
					},
					"t_uint256": {
						"encoding": "inplace",
						"label": "uint256",
						"numberOfBytes": "32"
					}
				}
			},
			"userdoc": {
				"kind": "user",
				"methods": {},
				"version": 1
			}
		}
	}
}